{
	"data": {
		"bytecode": {
			"linkReferences": {},
			"object": "60896032600b8282823980515f1a607314602657634e487b7160e01b5f525f60045260245ffd5b305f52607381538281f3fe73000000000000000000000000000000000000000030146080604052600436106032575f3560e01c806314d90e1b146036575b5f5ffd5b603d601481565b60405160ff909116815260200160405180910390f3fea2646970667358221220c9fd666ef6faa9a845845b0674e150c700b72a289b9dcecdffc4831a87dcfa3264736f6c634300081e0033",
			"opcodes": "PUSH1 0x89 PUSH1 0x32 PUSH1 0xB DUP3 DUP3 DUP3 CODECOPY DUP1 MLOAD PUSH0 BYTE PUSH1 0x73 EQ PUSH1 0x26 JUMPI PUSH4 0x4E487B71 PUSH1 0xE0 SHL PUSH0 MSTORE PUSH0 PUSH1 0x4 MSTORE PUSH1 0x24 PUSH0 REVERT JUMPDEST ADDRESS PUSH0 MSTORE PUSH1 0x73 DUP2 MSTORE8 DUP3 DUP2 RETURN INVALID PUSH20 0x0 ADDRESS EQ PUSH1 0x80 PUSH1 0x40 MSTORE PUSH1 0x4 CALLDATASIZE LT PUSH1 0x32 JUMPI PUSH0 CALLDATALOAD PUSH1 0xE0 SHR DUP1 PUSH4 0x14D90E1B EQ PUSH1 0x36 JUMPI JUMPDEST PUSH0 PUSH0 REVERT JUMPDEST PUSH1 0x3D PUSH1 0x14 DUP2 JUMP JUMPDEST PUSH1 0x40 MLOAD PUSH1 0xFF SWAP1 SWAP2 AND DUP2 MSTORE PUSH1 0x20 ADD PUSH1 0x40 MLOAD DUP1 SWAP2 SUB SWAP1 RETURN INVALID LOG2 PUSH5 0x6970667358 0x22 SLT KECCAK256 0xC9 REVERT PUSH7 0x6EF6FAA9A84584 JUMPDEST MOD PUSH21 0xE150C700B72A289B9DCECDFFC4831A87DCFA326473 PUSH16 0x6C634300081E00330000000000000000 "
		},
		"gasEstimates": {
			"creation": {
				"codeDepositCost": "27400",
				"executionCost": "108",
				"totalCost": "27508"
			},
			"external": {
				"MAX_SERVICE_FEE()": "153"
			}
		},
		"methodIdentifiers": {
			"MAX_SERVICE_FEE()": "14d90e1b"
		}
	},
	"abi": [
		{
			"inputs": [],
			"name": "MAX_SERVICE_FEE",
			"outputs": [
				{
					"internalType": "uint8",
					"name": "",
					"type": "uint8"
				}
			],
			"stateMutability": "view",
			"type": "function"
		}
	]
}