{
	"contracts/RestaurantManager.sol": {
		"RestaurantManager": {
			"abi": [
				{
					"inputs": [],
					"stateMutability": "nonpayable",
					"type": "constructor"
				},
				{
					"inputs": [],
					"name": "FailedCall",
					"type": "error"
				},
				{
					"inputs": [
						{
							"internalType": "uint256",
							"name": "balance",
							"type": "uint256"
						},
						{
							"internalType": "uint256",
							"name": "needed",
							"type": "uint256"
						}
					],
					"name": "InsufficientBalance",
					"type": "error"
				},
				{
					"inputs": [
						{
							"internalType": "address",
							"name": "owner",
							"type": "address"
						}
					],
					"name": "OwnableInvalidOwner",
					"type": "error"
				},
				{
					"inputs": [
						{
							"internalType": "address",
							"name": "account",
							"type": "address"
						}
					],
					"name": "OwnableUnauthorizedAccount",
					"type": "error"
				},
				{
					"anonymous": false,
					"inputs": [
						{
							"indexed": true,
							"internalType": "address",
							"name": "previousOwner",
							"type": "address"
						},
						{
							"indexed": true,
							"internalType": "address",
							"name": "newOwner",
							"type": "address"
						}
					],
					"name": "OwnershipTransferred",
					"type": "event"
				},
				{
					"anonymous": false,
					"inputs": [
						{
							"indexed": false,
							"internalType": "address",
							"name": "recipient",
							"type": "address"
						},
						{
							"indexed": false,
							"internalType": "uint128",
							"name": "amount",
							"type": "uint128"
						}
					],
					"name": "PaymentReleased",
					"type": "event"
				},
				{
					"anonymous": false,
					"inputs": [
						{
							"indexed": false,
							"internalType": "uint128",
							"name": "restaurantId",
							"type": "uint128"
						},
						{
							"indexed": false,
							"internalType": "address",
							"name": "owner",
							"type": "address"
						}
					],
					"name": "RestaurantRegistered",
					"type": "event"
				},
				{
					"anonymous": false,
					"inputs": [
						{
							"indexed": false,
							"internalType": "address",
							"name": "user",
							"type": "address"
						},
						{
							"indexed": false,
							"internalType": "enum RestaurantManager.Role",
							"name": "role",
							"type": "uint8"
						}
					],
					"name": "RoleAssigned",
					"type": "event"
				},
				{
					"anonymous": false,
					"inputs": [
						{
							"indexed": false,
							"internalType": "uint8",
							"name": "newPercentage",
							"type": "uint8"
						}
					],
					"name": "ServiceFeeUpdated",
					"type": "event"
				},
				{
					"anonymous": false,
					"inputs": [
						{
							"indexed": false,
							"internalType": "address",
							"name": "staff",
							"type": "address"
						},
						{
							"indexed": false,
							"internalType": "uint128",
							"name": "restaurantId",
							"type": "uint128"
						}
					],
					"name": "StaffAssigned",
					"type": "event"
				},
				{
					"inputs": [],
					"name": "MAX_SERVICE_FEE",
					"outputs": [
						{
							"internalType": "uint8",
							"name": "",
							"type": "uint8"
						}
					],
					"stateMutability": "view",
					"type": "function"
				},
				{
					"inputs": [
						{
							"internalType": "address",
							"name": "recipient",
							"type": "address"
						},
						{
							"internalType": "uint128",
							"name": "amount",
							"type": "uint128"
						}
					],
					"name": "addPendingWithdrawal",
					"outputs": [],
					"stateMutability": "nonpayable",
					"type": "function"
				},
				{
					"inputs": [
						{
							"internalType": "address",
							"name": "user",
							"type": "address"
						},
						{
							"internalType": "enum RestaurantManager.Role",
							"name": "role",
							"type": "uint8"
						}
					],
					"name": "assignRole",
					"outputs": [],
					"stateMutability": "nonpayable",
					"type": "function"
				},
				{
					"inputs": [
						{
							"internalType": "address",
							"name": "staff",
							"type": "address"
						},
						{
							"internalType": "uint128",
							"name": "restaurantId",
							"type": "uint128"
						}
					],
					"name": "assignStaff",
					"outputs": [],
					"stateMutability": "nonpayable",
					"type": "function"
				},
				{
					"inputs": [],
					"name": "owner",
					"outputs": [
						{
							"internalType": "address",
							"name": "",
							"type": "address"
						}
					],
					"stateMutability": "view",
					"type": "function"
				},
				{
					"inputs": [
						{
							"internalType": "address",
							"name": "",
							"type": "address"
						},
						{
							"internalType": "uint256",
							"name": "",
							"type": "uint256"
						}
					],
					"name": "ownerRestaurants",
					"outputs": [
						{
							"internalType": "uint128",
							"name": "",
							"type": "uint128"
						}
					],
					"stateMutability": "view",
					"type": "function"
				},
				{
					"inputs": [
						{
							"internalType": "address",
							"name": "",
							"type": "address"
						}
					],
					"name": "pendingWithdrawals",
					"outputs": [
						{
							"internalType": "uint128",
							"name": "",
							"type": "uint128"
						}
					],
					"stateMutability": "view",
					"type": "function"
				},
				{
					"inputs": [],
					"name": "registerRestaurant",
					"outputs": [
						{
							"internalType": "uint128",
							"name": "",
							"type": "uint128"
						}
					],
					"stateMutability": "nonpayable",
					"type": "function"
				},
				{
					"inputs": [],
					"name": "renounceOwnership",
					"outputs": [],
					"stateMutability": "nonpayable",
					"type": "function"
				},
				{
					"inputs": [
						{
							"internalType": "uint128",
							"name": "",
							"type": "uint128"
						}
					],
					"name": "restaurantOwners",
					"outputs": [
						{
							"internalType": "address",
							"name": "",
							"type": "address"
						}
					],
					"stateMutability": "view",
					"type": "function"
				},
				{
					"inputs": [
						{
							"internalType": "address",
							"name": "",
							"type": "address"
						}
					],
					"name": "roles",
					"outputs": [
						{
							"internalType": "enum RestaurantManager.Role",
							"name": "",
							"type": "uint8"
						}
					],
					"stateMutability": "view",
					"type": "function"
				},
				{
					"inputs": [],
					"name": "serviceFeePercentage",
					"outputs": [
						{
							"internalType": "uint8",
							"name": "",
							"type": "uint8"
						}
					],
					"stateMutability": "view",
					"type": "function"
				},
				{
					"inputs": [
						{
							"internalType": "uint8",
							"name": "percentage",
							"type": "uint8"
						}
					],
					"name": "setServiceFeePercentage",
					"outputs": [],
					"stateMutability": "nonpayable",
					"type": "function"
				},
				{
					"inputs": [
						{
							"internalType": "address",
							"name": "",
							"type": "address"
						}
					],
					"name": "staffRestaurant",
					"outputs": [
						{
							"internalType": "uint128",
							"name": "",
							"type": "uint128"
						}
					],
					"stateMutability": "view",
					"type": "function"
				},
				{
					"inputs": [
						{
							"internalType": "address",
							"name": "newOwner",
							"type": "address"
						}
					],
					"name": "transferOwnership",
					"outputs": [],
					"stateMutability": "nonpayable",
					"type": "function"
				},
				{
					"inputs": [],
					"name": "withdrawServiceFees",
					"outputs": [],
					"stateMutability": "nonpayable",
					"type": "function"
				}
			],
			"devdoc": {
				"errors": {
					"FailedCall()": [
						{
							"details": "A call to an address target failed. The target may have reverted."
						}
					],
					"InsufficientBalance(uint256,uint256)": [
						{
							"details": "The ETH balance of the account is not enough to perform the operation."
						}
					],
					"OwnableInvalidOwner(address)": [
						{
							"details": "The owner is not a valid owner account. (eg. `address(0)`)"
						}
					],
					"OwnableUnauthorizedAccount(address)": [
						{
							"details": "The caller account is not authorized to perform an operation."
						}
					]
				},
				"kind": "dev",
				"methods": {
					"owner()": {
						"details": "Returns the address of the current owner."
					},
					"renounceOwnership()": {
						"details": "Leaves the contract without owner. It will not be possible to call `onlyOwner` functions. Can only be called by the current owner. NOTE: Renouncing ownership will leave the contract without an owner, thereby disabling any functionality that is only available to the owner."
					},
					"transferOwnership(address)": {
						"details": "Transfers ownership of the contract to a new account (`newOwner`). Can only be called by the current owner."
					}
				},
				"version": 1
			},
			"evm": {
				"assembly": "    /* \"contracts/RestaurantManager.sol\":170:3269  contract RestaurantManager is Ownable {... */\n  mstore(0x40, 0x80)\n    /* \"contracts/RestaurantManager.sol\":336:337  1 */\n  0x01\n    /* \"contracts/RestaurantManager.sol\":301:337  uint128 private nextRestaurantId = 1 */\n  dup1\n  sload\n  not(sub(shl(0x88, 0x01), 0x01))\n    /* \"contracts/RestaurantManager.sol\":344:381  uint8 public serviceFeePercentage = 5 */\n  and\n  0x0500000000000000000000000000000001\n  or\n  swap1\n  sstore\n    /* \"contracts/RestaurantManager.sol\":1314:1397  constructor() Ownable(msg.sender) {... */\n  callvalue\n  dup1\n  iszero\n  tag_1\n  jumpi\n  revert(0x00, 0x00)\ntag_1:\n  pop\n    /* \"contracts/RestaurantManager.sol\":1336:1346  msg.sender */\n  caller\n  dup1\n    /* \"@openzeppelin/contracts/access/Ownable.sol\":1269:1364  if (initialOwner == address(0)) {... */\n  tag_5\n  jumpi\n    /* \"@openzeppelin/contracts/access/Ownable.sol\":1322:1353  OwnableInvalidOwner(address(0)) */\n  mload(0x40)\n  shl(0xe0, 0x1e4fbdf7)\n  dup2\n  mstore\n    /* \"@openzeppelin/contracts/access/Ownable.sol\":1350:1351  0 */\n  0x00\n    /* \"@openzeppelin/contracts/access/Ownable.sol\":1322:1353  OwnableInvalidOwner(address(0)) */\n  0x04\n  dup3\n  add\n    /* \"#utility.yul\":160:211   */\n  mstore\n    /* \"#utility.yul\":133:151   */\n  0x24\n  add\n    /* \"@openzeppelin/contracts/access/Ownable.sol\":1322:1353  OwnableInvalidOwner(address(0)) */\n  mload(0x40)\n  dup1\n  swap2\n  sub\n  swap1\n  revert\n    /* \"@openzeppelin/contracts/access/Ownable.sol\":1269:1364  if (initialOwner == address(0)) {... */\ntag_5:\n    /* \"@openzeppelin/contracts/access/Ownable.sol\":1373:1405  _transferOwnership(initialOwner) */\n  tag_8\n    /* \"@openzeppelin/contracts/access/Ownable.sol\":1392:1404  initialOwner */\n  dup2\n    /* \"@openzeppelin/contracts/access/Ownable.sol\":1373:1391  _transferOwnership */\n  tag_9\n    /* \"@openzeppelin/contracts/access/Ownable.sol\":1373:1405  _transferOwnership(initialOwner) */\n  jump\t// in\ntag_8:\n  pop\n    /* \"contracts/RestaurantManager.sol\":1365:1375  msg.sender */\n  caller\n    /* \"contracts/RestaurantManager.sol\":1359:1376  roles[msg.sender] */\n  0x00\n  swap1\n  dup2\n  mstore\n    /* \"contracts/RestaurantManager.sol\":1379:1389  Role.Admin */\n  0x02\n    /* \"contracts/RestaurantManager.sol\":1359:1376  roles[msg.sender] */\n  0x20\n  dup2\n  swap1\n  mstore\n  0x40\n  swap1\n  swap2\n  keccak256\n    /* \"contracts/RestaurantManager.sol\":1359:1389  roles[msg.sender] = Role.Admin */\n  dup1\n  sload\n  not(0xff)\n  and\n  swap1\n  swap2\n  or\n  swap1\n  sstore\n    /* \"contracts/RestaurantManager.sol\":170:3269  contract RestaurantManager is Ownable {... */\n  jump(tag_16)\n    /* \"@openzeppelin/contracts/access/Ownable.sol\":2912:3099  function _transferOwnership(address newOwner) internal virtual {... */\ntag_9:\n    /* \"@openzeppelin/contracts/access/Ownable.sol\":2985:3001  address oldOwner */\n  0x00\n    /* \"@openzeppelin/contracts/access/Ownable.sol\":3004:3010  _owner */\n  dup1\n  sload\n  sub(shl(0xa0, 0x01), 0x01)\n    /* \"@openzeppelin/contracts/access/Ownable.sol\":3020:3037  _owner = newOwner */\n  dup4\n  dup2\n  and\n  not(sub(shl(0xa0, 0x01), 0x01))\n  dup4\n  and\n  dup2\n  or\n  dup5\n  sstore\n    /* \"@openzeppelin/contracts/access/Ownable.sol\":3052:3092  OwnershipTransferred(oldOwner, newOwner) */\n  mload(0x40)\n    /* \"@openzeppelin/contracts/access/Ownable.sol\":3004:3010  _owner */\n  swap2\n  swap1\n  swap3\n  and\n  swap3\n  dup4\n  swap2\n    /* \"@openzeppelin/contracts/access/Ownable.sol\":3052:3092  OwnershipTransferred(oldOwner, newOwner) */\n  0x8be0079c531659141344cd1fd0a4f28419497f9722a3daafe3b4186f6b6457e0\n  swap2\n    /* \"@openzeppelin/contracts/access/Ownable.sol\":2985:3001  address oldOwner */\n  swap1\n    /* \"@openzeppelin/contracts/access/Ownable.sol\":3052:3092  OwnershipTransferred(oldOwner, newOwner) */\n  log3\n    /* \"@openzeppelin/contracts/access/Ownable.sol\":2975:3099  {... */\n  pop\n    /* \"@openzeppelin/contracts/access/Ownable.sol\":2912:3099  function _transferOwnership(address newOwner) internal virtual {... */\n  pop\n  jump\t// out\n    /* \"#utility.yul\":222:349   */\ntag_16:\n    /* \"contracts/RestaurantManager.sol\":170:3269  contract RestaurantManager is Ownable {... */\n  dataSize(sub_0)\n  dup1\n  dataOffset(sub_0)\n  0x00\n  codecopy\n  0x00\n  return\nstop\n\nsub_0: assembly {\n        /* \"contracts/RestaurantManager.sol\":170:3269  contract RestaurantManager is Ownable {... */\n      mstore(0x40, 0x80)\n      callvalue\n      dup1\n      iszero\n      tag_1\n      jumpi\n      revert(0x00, 0x00)\n    tag_1:\n      pop\n      jumpi(tag_2, lt(calldatasize, 0x04))\n      shr(0xe0, calldataload(0x00))\n      dup1\n      0xae9a4655\n      gt\n      tag_19\n      jumpi\n      dup1\n      0xf2fde38b\n      gt\n      tag_20\n      jumpi\n      dup1\n      0xf2fde38b\n      eq\n      tag_15\n      jumpi\n      dup1\n      0xf3f43703\n      eq\n      tag_16\n      jumpi\n      dup1\n      0xf7937282\n      eq\n      tag_17\n      jumpi\n      dup1\n      0xfa20fca7\n      eq\n      tag_18\n      jumpi\n      revert(0x00, 0x00)\n    tag_20:\n      dup1\n      0xae9a4655\n      eq\n      tag_11\n      jumpi\n      dup1\n      0xd72e481d\n      eq\n      tag_12\n      jumpi\n      dup1\n      0xd76d571a\n      eq\n      tag_13\n      jumpi\n      dup1\n      0xe28d7a18\n      eq\n      tag_14\n      jumpi\n      revert(0x00, 0x00)\n    tag_19:\n      dup1\n      0x8da5cb5b\n      gt\n      tag_21\n      jumpi\n      dup1\n      0x8da5cb5b\n      eq\n      tag_7\n      jumpi\n      dup1\n      0x99374642\n      eq\n      tag_8\n      jumpi\n      dup1\n      0xa0e31ec4\n      eq\n      tag_9\n      jumpi\n      dup1\n      0xabca88f0\n      eq\n      tag_10\n      jumpi\n      revert(0x00, 0x00)\n    tag_21:\n      dup1\n      0x14d90e1b\n      eq\n      tag_3\n      jumpi\n      dup1\n      0x603ef649\n      eq\n      tag_4\n      jumpi\n      dup1\n      0x630a195b\n      eq\n      tag_5\n      jumpi\n      dup1\n      0x715018a6\n      eq\n      tag_6\n      jumpi\n    tag_2:\n      revert(0x00, 0x00)\n        /* \"contracts/RestaurantManager.sol\":388:430  uint8 public constant MAX_SERVICE_FEE = 20 */\n    tag_3:\n      tag_22\n        /* \"contracts/RestaurantManager.sol\":428:430  20 */\n      0x14\n        /* \"contracts/RestaurantManager.sol\":388:430  uint8 public constant MAX_SERVICE_FEE = 20 */\n      dup2\n      jump\n    tag_22:\n      mload(0x40)\n        /* \"#utility.yul\":186:190   */\n      0xff\n        /* \"#utility.yul\":174:191   */\n      swap1\n      swap2\n      and\n        /* \"#utility.yul\":156:192   */\n      dup2\n      mstore\n        /* \"#utility.yul\":144:146   */\n      0x20\n        /* \"#utility.yul\":129:147   */\n      add\n        /* \"contracts/RestaurantManager.sol\":388:430  uint8 public constant MAX_SERVICE_FEE = 20 */\n    tag_24:\n      mload(0x40)\n      dup1\n      swap2\n      sub\n      swap1\n      return\n        /* \"contracts/RestaurantManager.sol\":344:381  uint8 public serviceFeePercentage = 5 */\n    tag_4:\n      sload(0x01)\n      tag_22\n      swap1\n      shl(0x80, 0x01)\n      swap1\n      div\n      0xff\n      and\n      dup2\n      jump\n        /* \"contracts/RestaurantManager.sol\":2189:2476  function assignRole(address user, Role role) external onlyAdmin {... */\n    tag_5:\n      tag_29\n      tag_30\n      calldatasize\n      0x04\n      tag_31\n      jump\t// in\n    tag_30:\n      tag_32\n      jump\t// in\n    tag_29:\n      stop\n        /* \"@openzeppelin/contracts/access/Ownable.sol\":2293:2394  function renounceOwnership() public virtual onlyOwner {... */\n    tag_6:\n      tag_29\n      tag_34\n      jump\t// in\n        /* \"@openzeppelin/contracts/access/Ownable.sol\":1638:1723  function owner() public view virtual returns (address) {... */\n    tag_7:\n        /* \"@openzeppelin/contracts/access/Ownable.sol\":1684:1691  address */\n      0x00\n        /* \"@openzeppelin/contracts/access/Ownable.sol\":1710:1716  _owner */\n      sload\n      sub(shl(0xa0, 0x01), 0x01)\n      and\n        /* \"@openzeppelin/contracts/access/Ownable.sol\":1638:1723  function owner() public view virtual returns (address) {... */\n    tag_35:\n      mload(0x40)\n      sub(shl(0xa0, 0x01), 0x01)\n        /* \"#utility.yul\":888:920   */\n      swap1\n      swap2\n      and\n        /* \"#utility.yul\":870:921   */\n      dup2\n      mstore\n        /* \"#utility.yul\":858:860   */\n      0x20\n        /* \"#utility.yul\":843:861   */\n      add\n        /* \"@openzeppelin/contracts/access/Ownable.sol\":1638:1723  function owner() public view virtual returns (address) {... */\n      tag_24\n        /* \"#utility.yul\":724:927   */\n      jump\n        /* \"contracts/RestaurantManager.sol\":439:476  mapping(address => Role) public roles */\n    tag_8:\n      tag_39\n      tag_40\n      calldatasize\n      0x04\n      tag_41\n      jump\t// in\n    tag_40:\n      mstore(0x20, 0x02)\n      0x00\n      swap1\n      dup2\n      mstore\n      0x40\n      swap1\n      keccak256\n      sload\n      0xff\n      and\n      dup2\n      jump\n    tag_39:\n      mload(0x40)\n      tag_24\n      swap2\n      swap1\n      tag_44\n      jump\t// in\n        /* \"contracts/RestaurantManager.sol\":3042:3266  function addPendingWithdrawal(address recipient, uint128 amount) external {... */\n    tag_9:\n      tag_29\n      tag_46\n      calldatasize\n      0x04\n      tag_47\n      jump\t// in\n    tag_46:\n      tag_48\n      jump\t// in\n        /* \"contracts/RestaurantManager.sol\":603:654  mapping(uint128 => address) public restaurantOwners */\n    tag_10:\n      tag_35\n      tag_50\n      calldatasize\n      0x04\n      tag_51\n      jump\t// in\n    tag_50:\n      mstore(0x20, 0x05)\n      0x00\n      swap1\n      dup2\n      mstore\n      0x40\n      swap1\n      keccak256\n      sload\n      sub(shl(0xa0, 0x01), 0x01)\n      and\n      dup2\n      jump\n        /* \"contracts/RestaurantManager.sol\":1761:2181  function assignStaff(address staff, uint128 restaurantId) ... */\n    tag_11:\n      tag_29\n      tag_55\n      calldatasize\n      0x04\n      tag_47\n      jump\t// in\n    tag_55:\n      tag_56\n      jump\t// in\n        /* \"contracts/RestaurantManager.sol\":2732:3036  function withdrawServiceFees() external onlyAdmin {... */\n    tag_12:\n      tag_29\n      tag_58\n      jump\t// in\n        /* \"contracts/RestaurantManager.sol\":543:596  mapping(address => uint128[]) public ownerRestaurants */\n    tag_13:\n      tag_59\n      tag_60\n      calldatasize\n      0x04\n      tag_61\n      jump\t// in\n    tag_60:\n      tag_62\n      jump\t// in\n    tag_59:\n      mload(0x40)\n      sub(shl(0x80, 0x01), 0x01)\n        /* \"#utility.yul\":2766:2813   */\n      swap1\n      swap2\n      and\n        /* \"#utility.yul\":2748:2814   */\n      dup2\n      mstore\n        /* \"#utility.yul\":2736:2738   */\n      0x20\n        /* \"#utility.yul\":2721:2739   */\n      add\n        /* \"contracts/RestaurantManager.sol\":543:596  mapping(address => uint128[]) public ownerRestaurants */\n      tag_24\n        /* \"#utility.yul\":2602:2820   */\n      jump\n        /* \"contracts/RestaurantManager.sol\":661:711  mapping(address => uint128) public staffRestaurant */\n    tag_14:\n      tag_59\n      tag_66\n      calldatasize\n      0x04\n      tag_41\n      jump\t// in\n    tag_66:\n      mstore(0x20, 0x06)\n      0x00\n      swap1\n      dup2\n      mstore\n      0x40\n      swap1\n      keccak256\n      sload\n      sub(shl(0x80, 0x01), 0x01)\n      and\n      dup2\n      jump\n        /* \"@openzeppelin/contracts/access/Ownable.sol\":2543:2758  function transferOwnership(address newOwner) public virtual onlyOwner {... */\n    tag_15:\n      tag_29\n      tag_70\n      calldatasize\n      0x04\n      tag_41\n      jump\t// in\n    tag_70:\n      tag_71\n      jump\t// in\n        /* \"contracts/RestaurantManager.sol\":483:536  mapping(address => uint128) public pendingWithdrawals */\n    tag_16:\n      tag_59\n      tag_73\n      calldatasize\n      0x04\n      tag_41\n      jump\t// in\n    tag_73:\n      mstore(0x20, 0x03)\n      0x00\n      swap1\n      dup2\n      mstore\n      0x40\n      swap1\n      keccak256\n      sload\n      sub(shl(0x80, 0x01), 0x01)\n      and\n      dup2\n      jump\n        /* \"contracts/RestaurantManager.sol\":2484:2724  function setServiceFeePercentage(uint8 percentage) external onlyAdmin {... */\n    tag_17:\n      tag_29\n      tag_77\n      calldatasize\n      0x04\n      tag_78\n      jump\t// in\n    tag_77:\n      tag_79\n      jump\t// in\n        /* \"contracts/RestaurantManager.sol\":1405:1753  function registerRestaurant() external returns (uint128) {... */\n    tag_18:\n      tag_59\n      tag_81\n      jump\t// in\n        /* \"contracts/RestaurantManager.sol\":2189:2476  function assignRole(address user, Role role) external onlyAdmin {... */\n    tag_32:\n        /* \"contracts/RestaurantManager.sol\":1065:1075  msg.sender */\n      caller\n        /* \"contracts/RestaurantManager.sol\":1059:1076  roles[msg.sender] */\n      0x00\n      swap1\n      dup2\n      mstore\n        /* \"contracts/RestaurantManager.sol\":1080:1090  Role.Admin */\n      0x02\n        /* \"contracts/RestaurantManager.sol\":1059:1076  roles[msg.sender] */\n      0x20\n      dup2\n      swap1\n      mstore\n      0x40\n      swap1\n      swap2\n      keccak256\n      sload\n      0xff\n      and\n        /* \"contracts/RestaurantManager.sol\":1059:1090  roles[msg.sender] == Role.Admin */\n      dup2\n      dup2\n      gt\n      iszero\n      tag_88\n      jumpi\n      tag_88\n      tag_86\n      jump\t// in\n    tag_88:\n      eq\n        /* \"contracts/RestaurantManager.sol\":1051:1119  require(roles[msg.sender] == Role.Admin, \"Unauthorized: Admin only\") */\n      tag_89\n      jumpi\n      mload(0x40)\n      shl(0xe5, 0x461bcd)\n      dup2\n      mstore\n      0x04\n      add\n      tag_90\n      swap1\n      tag_91\n      jump\t// in\n    tag_90:\n      mload(0x40)\n      dup1\n      swap2\n      sub\n      swap1\n      revert\n    tag_89:\n      sub(shl(0xa0, 0x01), 0x01)\n        /* \"contracts/RestaurantManager.sol\":2272:2290  user != address(0) */\n      dup3\n      and\n        /* \"contracts/RestaurantManager.sol\":2264:2310  require(user != address(0), \"Invalid address\") */\n      tag_93\n      jumpi\n      mload(0x40)\n      shl(0xe5, 0x461bcd)\n      dup2\n      mstore\n        /* \"#utility.yul\":3654:3656   */\n      0x20\n        /* \"contracts/RestaurantManager.sol\":2264:2310  require(user != address(0), \"Invalid address\") */\n      0x04\n      dup3\n      add\n        /* \"#utility.yul\":3636:3657   */\n      mstore\n        /* \"#utility.yul\":3693:3695   */\n      0x0f\n        /* \"#utility.yul\":3673:3691   */\n      0x24\n      dup3\n      add\n        /* \"#utility.yul\":3666:3696   */\n      mstore\n      shl(0x88, 0x496e76616c69642061646472657373)\n        /* \"#utility.yul\":3712:3730   */\n      0x44\n      dup3\n      add\n        /* \"#utility.yul\":3705:3750   */\n      mstore\n        /* \"#utility.yul\":3767:3785   */\n      0x64\n      add\n        /* \"contracts/RestaurantManager.sol\":2264:2310  require(user != address(0), \"Invalid address\") */\n      tag_90\n        /* \"#utility.yul\":3452:3791   */\n      jump\n        /* \"contracts/RestaurantManager.sol\":2264:2310  require(user != address(0), \"Invalid address\") */\n    tag_93:\n      sub(shl(0xa0, 0x01), 0x01)\n        /* \"contracts/RestaurantManager.sol\":2321:2332  roles[user] */\n      dup3\n      and\n      0x00\n      swap1\n      dup2\n      mstore\n        /* \"contracts/RestaurantManager.sol\":2321:2326  roles */\n      0x02\n        /* \"contracts/RestaurantManager.sol\":2321:2332  roles[user] */\n      0x20\n      dup2\n      swap1\n      mstore\n      0x40\n      swap1\n      swap2\n      keccak256\n        /* \"contracts/RestaurantManager.sol\":2321:2339  roles[user] = role */\n      dup1\n      sload\n        /* \"contracts/RestaurantManager.sol\":2335:2339  role */\n      dup4\n      swap3\n      not(0xff)\n        /* \"contracts/RestaurantManager.sol\":2321:2339  roles[user] = role */\n      swap1\n      swap2\n      and\n      swap1\n      0x01\n      swap1\n        /* \"contracts/RestaurantManager.sol\":2335:2339  role */\n      dup5\n      swap1\n        /* \"contracts/RestaurantManager.sol\":2321:2339  roles[user] = role */\n      dup2\n      gt\n      iszero\n      tag_97\n      jumpi\n      tag_97\n      tag_86\n      jump\t// in\n    tag_97:\n      mul\n      or\n      swap1\n      sstore\n      pop\n        /* \"contracts/RestaurantManager.sol\":2362:2372  Role.Staff */\n      0x01\n        /* \"contracts/RestaurantManager.sol\":2354:2358  role */\n      dup2\n        /* \"contracts/RestaurantManager.sol\":2354:2372  role != Role.Staff */\n      0x02\n      dup2\n      gt\n      iszero\n      tag_101\n      jumpi\n      tag_101\n      tag_86\n      jump\t// in\n    tag_101:\n      eq\n        /* \"contracts/RestaurantManager.sol\":2350:2429  if (role != Role.Staff) {... */\n      tag_102\n      jumpi\n      sub(shl(0xa0, 0x01), 0x01)\n        /* \"contracts/RestaurantManager.sol\":2396:2417  staffRestaurant[user] */\n      dup3\n      and\n      0x00\n      swap1\n      dup2\n      mstore\n        /* \"contracts/RestaurantManager.sol\":2396:2411  staffRestaurant */\n      0x06\n        /* \"contracts/RestaurantManager.sol\":2396:2417  staffRestaurant[user] */\n      0x20\n      mstore\n      0x40\n      swap1\n      keccak256\n        /* \"contracts/RestaurantManager.sol\":2389:2417  delete staffRestaurant[user] */\n      dup1\n      sload\n      not(sub(shl(0x80, 0x01), 0x01))\n      and\n      swap1\n      sstore\n        /* \"contracts/RestaurantManager.sol\":2350:2429  if (role != Role.Staff) {... */\n    tag_102:\n        /* \"contracts/RestaurantManager.sol\":2444:2468  RoleAssigned(user, role) */\n      0x4ac36fa53f167ceb85964be512e01de2a3b8bdb9862f917da079deeeff689b38\n        /* \"contracts/RestaurantManager.sol\":2457:2461  user */\n      dup3\n        /* \"contracts/RestaurantManager.sol\":2463:2467  role */\n      dup3\n        /* \"contracts/RestaurantManager.sol\":2444:2468  RoleAssigned(user, role) */\n      mload(0x40)\n      tag_103\n      swap3\n      swap2\n      swap1\n      tag_104\n      jump\t// in\n    tag_103:\n      mload(0x40)\n      dup1\n      swap2\n      sub\n      swap1\n      log1\n        /* \"contracts/RestaurantManager.sol\":2189:2476  function assignRole(address user, Role role) external onlyAdmin {... */\n      pop\n      pop\n      jump\t// out\n        /* \"@openzeppelin/contracts/access/Ownable.sol\":2293:2394  function renounceOwnership() public virtual onlyOwner {... */\n    tag_34:\n        /* \"@openzeppelin/contracts/access/Ownable.sol\":1531:1544  _checkOwner() */\n      tag_106\n        /* \"@openzeppelin/contracts/access/Ownable.sol\":1531:1542  _checkOwner */\n      tag_107\n        /* \"@openzeppelin/contracts/access/Ownable.sol\":1531:1544  _checkOwner() */\n      jump\t// in\n    tag_106:\n        /* \"@openzeppelin/contracts/access/Ownable.sol\":2357:2387  _transferOwnership(address(0)) */\n      tag_109\n        /* \"@openzeppelin/contracts/access/Ownable.sol\":2384:2385  0 */\n      0x00\n        /* \"@openzeppelin/contracts/access/Ownable.sol\":2357:2375  _transferOwnership */\n      tag_110\n        /* \"@openzeppelin/contracts/access/Ownable.sol\":2357:2387  _transferOwnership(address(0)) */\n      jump\t// in\n    tag_109:\n        /* \"@openzeppelin/contracts/access/Ownable.sol\":2293:2394  function renounceOwnership() public virtual onlyOwner {... */\n      jump\t// out\n        /* \"contracts/RestaurantManager.sol\":3042:3266  function addPendingWithdrawal(address recipient, uint128 amount) external {... */\n    tag_48:\n        /* \"@openzeppelin/contracts/access/Ownable.sol\":1684:1691  address */\n      0x00\n        /* \"@openzeppelin/contracts/access/Ownable.sol\":1710:1716  _owner */\n      sload\n      sub(shl(0xa0, 0x01), 0x01)\n      and\n        /* \"contracts/RestaurantManager.sol\":3135:3145  msg.sender */\n      caller\n        /* \"contracts/RestaurantManager.sol\":3135:3156  msg.sender == owner() */\n      eq\n      dup1\n        /* \"contracts/RestaurantManager.sol\":3135:3191  msg.sender == owner() || roles[msg.sender] == Role.Admin */\n      tag_114\n      jumpi\n      pop\n        /* \"contracts/RestaurantManager.sol\":3166:3176  msg.sender */\n      caller\n        /* \"contracts/RestaurantManager.sol\":3160:3177  roles[msg.sender] */\n      0x00\n      swap1\n      dup2\n      mstore\n        /* \"contracts/RestaurantManager.sol\":3181:3191  Role.Admin */\n      0x02\n        /* \"contracts/RestaurantManager.sol\":3160:3177  roles[msg.sender] */\n      0x20\n      dup2\n      swap1\n      mstore\n      0x40\n      swap1\n      swap2\n      keccak256\n      sload\n      0xff\n      and\n        /* \"contracts/RestaurantManager.sol\":3160:3191  roles[msg.sender] == Role.Admin */\n      dup2\n      dup2\n      gt\n      iszero\n      tag_118\n      jumpi\n      tag_118\n      tag_86\n      jump\t// in\n    tag_118:\n      eq\n        /* \"contracts/RestaurantManager.sol\":3135:3191  msg.sender == owner() || roles[msg.sender] == Role.Admin */\n    tag_114:\n        /* \"contracts/RestaurantManager.sol\":3127:3208  require(msg.sender == owner() || roles[msg.sender] == Role.Admin, \"Unauthorized\") */\n      tag_119\n      jumpi\n      mload(0x40)\n      shl(0xe5, 0x461bcd)\n      dup2\n      mstore\n        /* \"#utility.yul\":4297:4299   */\n      0x20\n        /* \"contracts/RestaurantManager.sol\":3127:3208  require(msg.sender == owner() || roles[msg.sender] == Role.Admin, \"Unauthorized\") */\n      0x04\n      dup3\n      add\n        /* \"#utility.yul\":4279:4300   */\n      mstore\n        /* \"#utility.yul\":4336:4338   */\n      0x0c\n        /* \"#utility.yul\":4316:4334   */\n      0x24\n      dup3\n      add\n        /* \"#utility.yul\":4309:4339   */\n      mstore\n      shl(0xa2, 0x155b985d5d1a1bdc9a5e9959)\n        /* \"#utility.yul\":4355:4373   */\n      0x44\n      dup3\n      add\n        /* \"#utility.yul\":4348:4390   */\n      mstore\n        /* \"#utility.yul\":4407:4425   */\n      0x64\n      add\n        /* \"contracts/RestaurantManager.sol\":3127:3208  require(msg.sender == owner() || roles[msg.sender] == Role.Admin, \"Unauthorized\") */\n      tag_90\n        /* \"#utility.yul\":4095:4431   */\n      jump\n        /* \"contracts/RestaurantManager.sol\":3127:3208  require(msg.sender == owner() || roles[msg.sender] == Role.Admin, \"Unauthorized\") */\n    tag_119:\n      sub(shl(0xa0, 0x01), 0x01)\n        /* \"contracts/RestaurantManager.sol\":3219:3248  pendingWithdrawals[recipient] */\n      dup3\n      and\n      0x00\n      swap1\n      dup2\n      mstore\n        /* \"contracts/RestaurantManager.sol\":3219:3237  pendingWithdrawals */\n      0x03\n        /* \"contracts/RestaurantManager.sol\":3219:3248  pendingWithdrawals[recipient] */\n      0x20\n      mstore\n      0x40\n      dup2\n      keccak256\n        /* \"contracts/RestaurantManager.sol\":3219:3258  pendingWithdrawals[recipient] += amount */\n      dup1\n      sload\n        /* \"contracts/RestaurantManager.sol\":3252:3258  amount */\n      dup4\n      swap3\n        /* \"contracts/RestaurantManager.sol\":3219:3248  pendingWithdrawals[recipient] */\n      swap1\n        /* \"contracts/RestaurantManager.sol\":3219:3258  pendingWithdrawals[recipient] += amount */\n      tag_122\n      swap1\n        /* \"contracts/RestaurantManager.sol\":3252:3258  amount */\n      dup5\n      swap1\n      sub(shl(0x80, 0x01), 0x01)\n        /* \"contracts/RestaurantManager.sol\":3219:3258  pendingWithdrawals[recipient] += amount */\n      and\n      tag_123\n      jump\t// in\n    tag_122:\n      swap3\n      pop\n      0x0100\n      exp\n      dup2\n      sload\n      dup2\n      sub(shl(0x80, 0x01), 0x01)\n      mul\n      not\n      and\n      swap1\n      dup4\n      sub(shl(0x80, 0x01), 0x01)\n      and\n      mul\n      or\n      swap1\n      sstore\n      pop\n        /* \"contracts/RestaurantManager.sol\":3042:3266  function addPendingWithdrawal(address recipient, uint128 amount) external {... */\n      pop\n      pop\n      jump\t// out\n        /* \"contracts/RestaurantManager.sol\":1761:2181  function assignStaff(address staff, uint128 restaurantId) ... */\n    tag_56:\n      sub(shl(0x80, 0x01), 0x01)\n        /* \"contracts/RestaurantManager.sol\":1217:1247  restaurantOwners[restaurantId] */\n      dup2\n      and\n      0x00\n      swap1\n      dup2\n      mstore\n        /* \"contracts/RestaurantManager.sol\":1217:1233  restaurantOwners */\n      0x05\n        /* \"contracts/RestaurantManager.sol\":1217:1247  restaurantOwners[restaurantId] */\n      0x20\n      mstore\n      0x40\n      swap1\n      keccak256\n      sload\n        /* \"contracts/RestaurantManager.sol\":1868:1880  restaurantId */\n      dup2\n      swap1\n      sub(shl(0xa0, 0x01), 0x01)\n        /* \"contracts/RestaurantManager.sol\":1217:1247  restaurantOwners[restaurantId] */\n      and\n        /* \"contracts/RestaurantManager.sol\":1251:1261  msg.sender */\n      caller\n        /* \"contracts/RestaurantManager.sol\":1217:1261  restaurantOwners[restaurantId] == msg.sender */\n      eq\n        /* \"contracts/RestaurantManager.sol\":1209:1286  require(restaurantOwners[restaurantId] == msg.sender, \"Not restaurant owner\") */\n      tag_125\n      jumpi\n      mload(0x40)\n      shl(0xe5, 0x461bcd)\n      dup2\n      mstore\n        /* \"#utility.yul\":5015:5017   */\n      0x20\n        /* \"contracts/RestaurantManager.sol\":1209:1286  require(restaurantOwners[restaurantId] == msg.sender, \"Not restaurant owner\") */\n      0x04\n      dup3\n      add\n        /* \"#utility.yul\":4997:5018   */\n      mstore\n        /* \"#utility.yul\":5054:5056   */\n      0x14\n        /* \"#utility.yul\":5034:5052   */\n      0x24\n      dup3\n      add\n        /* \"#utility.yul\":5027:5057   */\n      mstore\n      shl(0x61, 0x2737ba103932b9ba30bab930b73a1037bbb732b9)\n        /* \"#utility.yul\":5073:5091   */\n      0x44\n      dup3\n      add\n        /* \"#utility.yul\":5066:5116   */\n      mstore\n        /* \"#utility.yul\":5133:5151   */\n      0x64\n      add\n        /* \"contracts/RestaurantManager.sol\":1209:1286  require(restaurantOwners[restaurantId] == msg.sender, \"Not restaurant owner\") */\n      tag_90\n        /* \"#utility.yul\":4813:5157   */\n      jump\n        /* \"contracts/RestaurantManager.sol\":1209:1286  require(restaurantOwners[restaurantId] == msg.sender, \"Not restaurant owner\") */\n    tag_125:\n      sub(shl(0xa0, 0x01), 0x01)\n        /* \"contracts/RestaurantManager.sol\":1907:1926  staff != address(0) */\n      dup4\n      and\n        /* \"contracts/RestaurantManager.sol\":1899:1946  require(staff != address(0), \"Invalid address\") */\n      tag_129\n      jumpi\n      mload(0x40)\n      shl(0xe5, 0x461bcd)\n      dup2\n      mstore\n        /* \"#utility.yul\":3654:3656   */\n      0x20\n        /* \"contracts/RestaurantManager.sol\":1899:1946  require(staff != address(0), \"Invalid address\") */\n      0x04\n      dup3\n      add\n        /* \"#utility.yul\":3636:3657   */\n      mstore\n        /* \"#utility.yul\":3693:3695   */\n      0x0f\n        /* \"#utility.yul\":3673:3691   */\n      0x24\n      dup3\n      add\n        /* \"#utility.yul\":3666:3696   */\n      mstore\n      shl(0x88, 0x496e76616c69642061646472657373)\n        /* \"#utility.yul\":3712:3730   */\n      0x44\n      dup3\n      add\n        /* \"#utility.yul\":3705:3750   */\n      mstore\n        /* \"#utility.yul\":3767:3785   */\n      0x64\n      add\n        /* \"contracts/RestaurantManager.sol\":1899:1946  require(staff != address(0), \"Invalid address\") */\n      tag_90\n        /* \"#utility.yul\":3452:3791   */\n      jump\n        /* \"contracts/RestaurantManager.sol\":1899:1946  require(staff != address(0), \"Invalid address\") */\n    tag_129:\n      sub(shl(0x80, 0x01), 0x01)\n        /* \"contracts/RestaurantManager.sol\":1965:1995  restaurantOwners[restaurantId] */\n      dup3\n      and\n        /* \"contracts/RestaurantManager.sol\":2007:2008  0 */\n      0x00\n        /* \"contracts/RestaurantManager.sol\":1965:1995  restaurantOwners[restaurantId] */\n      swap1\n      dup2\n      mstore\n        /* \"contracts/RestaurantManager.sol\":1965:1981  restaurantOwners */\n      0x05\n        /* \"contracts/RestaurantManager.sol\":1965:1995  restaurantOwners[restaurantId] */\n      0x20\n      mstore\n      0x40\n      swap1\n      keccak256\n      sload\n      sub(shl(0xa0, 0x01), 0x01)\n      and\n        /* \"contracts/RestaurantManager.sol\":1957:2039  require(restaurantOwners[restaurantId] != address(0), \"Restaurant does not exist\") */\n      tag_131\n      jumpi\n      mload(0x40)\n      shl(0xe5, 0x461bcd)\n      dup2\n      mstore\n        /* \"#utility.yul\":5364:5366   */\n      0x20\n        /* \"contracts/RestaurantManager.sol\":1957:2039  require(restaurantOwners[restaurantId] != address(0), \"Restaurant does not exist\") */\n      0x04\n      dup3\n      add\n        /* \"#utility.yul\":5346:5367   */\n      mstore\n        /* \"#utility.yul\":5403:5405   */\n      0x19\n        /* \"#utility.yul\":5383:5401   */\n      0x24\n      dup3\n      add\n        /* \"#utility.yul\":5376:5406   */\n      mstore\n        /* \"#utility.yul\":5442:5469   */\n      0x52657374617572616e7420646f6573206e6f7420657869737400000000000000\n        /* \"#utility.yul\":5422:5440   */\n      0x44\n      dup3\n      add\n        /* \"#utility.yul\":5415:5470   */\n      mstore\n        /* \"#utility.yul\":5487:5505   */\n      0x64\n      add\n        /* \"contracts/RestaurantManager.sol\":1957:2039  require(restaurantOwners[restaurantId] != address(0), \"Restaurant does not exist\") */\n      tag_90\n        /* \"#utility.yul\":5162:5511   */\n      jump\n        /* \"contracts/RestaurantManager.sol\":1957:2039  require(restaurantOwners[restaurantId] != address(0), \"Restaurant does not exist\") */\n    tag_131:\n      sub(shl(0xa0, 0x01), 0x01)\n        /* \"contracts/RestaurantManager.sol\":2050:2062  roles[staff] */\n      dup4\n      and\n      0x00\n      dup2\n      dup2\n      mstore\n        /* \"contracts/RestaurantManager.sol\":2050:2055  roles */\n      0x02\n        /* \"contracts/RestaurantManager.sol\":2050:2062  roles[staff] */\n      0x20\n      swap1\n      dup2\n      mstore\n      0x40\n      dup1\n      dup4\n      keccak256\n        /* \"contracts/RestaurantManager.sol\":2050:2075  roles[staff] = Role.Staff */\n      dup1\n      sload\n      not(0xff)\n      and\n        /* \"contracts/RestaurantManager.sol\":2065:2075  Role.Staff */\n      0x01\n        /* \"contracts/RestaurantManager.sol\":2050:2075  roles[staff] = Role.Staff */\n      or\n      swap1\n      sstore\n        /* \"contracts/RestaurantManager.sol\":2086:2101  staffRestaurant */\n      0x06\n        /* \"contracts/RestaurantManager.sol\":2086:2108  staffRestaurant[staff] */\n      dup3\n      mstore\n      swap2\n      dup3\n      swap1\n      keccak256\n        /* \"contracts/RestaurantManager.sol\":2086:2123  staffRestaurant[staff] = restaurantId */\n      dup1\n      sload\n      sub(shl(0x80, 0x01), 0x01)\n      dup8\n      and\n      not(sub(shl(0x80, 0x01), 0x01))\n      swap1\n      swap2\n      and\n      dup2\n      or\n      swap1\n      swap2\n      sstore\n        /* \"contracts/RestaurantManager.sol\":2139:2173  StaffAssigned(staff, restaurantId) */\n      dup3\n      mload\n        /* \"#utility.yul\":5690:5741   */\n      swap4\n      dup5\n      mstore\n        /* \"#utility.yul\":5757:5775   */\n      swap1\n      dup4\n      add\n        /* \"#utility.yul\":5750:5825   */\n      mstore\n        /* \"contracts/RestaurantManager.sol\":2139:2173  StaffAssigned(staff, restaurantId) */\n      0x69a85d8f30649b59eeb2b4393ea9eb9c9ed001f6974226d94a7fa2dfd562f15b\n      swap2\n        /* \"#utility.yul\":5663:5681   */\n      add\n        /* \"contracts/RestaurantManager.sol\":2139:2173  StaffAssigned(staff, restaurantId) */\n      mload(0x40)\n      dup1\n      swap2\n      sub\n      swap1\n      log1\n        /* \"contracts/RestaurantManager.sol\":1761:2181  function assignStaff(address staff, uint128 restaurantId) ... */\n      pop\n      pop\n      pop\n      jump\t// out\n        /* \"contracts/RestaurantManager.sol\":2732:3036  function withdrawServiceFees() external onlyAdmin {... */\n    tag_58:\n        /* \"contracts/RestaurantManager.sol\":1065:1075  msg.sender */\n      caller\n        /* \"contracts/RestaurantManager.sol\":1059:1076  roles[msg.sender] */\n      0x00\n      swap1\n      dup2\n      mstore\n        /* \"contracts/RestaurantManager.sol\":1080:1090  Role.Admin */\n      0x02\n        /* \"contracts/RestaurantManager.sol\":1059:1076  roles[msg.sender] */\n      0x20\n      dup2\n      swap1\n      mstore\n      0x40\n      swap1\n      swap2\n      keccak256\n      sload\n      0xff\n      and\n        /* \"contracts/RestaurantManager.sol\":1059:1090  roles[msg.sender] == Role.Admin */\n      dup2\n      dup2\n      gt\n      iszero\n      tag_142\n      jumpi\n      tag_142\n      tag_86\n      jump\t// in\n    tag_142:\n      eq\n        /* \"contracts/RestaurantManager.sol\":1051:1119  require(roles[msg.sender] == Role.Admin, \"Unauthorized: Admin only\") */\n      tag_143\n      jumpi\n      mload(0x40)\n      shl(0xe5, 0x461bcd)\n      dup2\n      mstore\n      0x04\n      add\n      tag_90\n      swap1\n      tag_91\n      jump\t// in\n    tag_143:\n        /* \"contracts/RestaurantManager.sol\":2793:2808  uint128 balance */\n      0x00\n        /* \"contracts/RestaurantManager.sol\":2811:2829  pendingWithdrawals */\n      0x03\n        /* \"contracts/RestaurantManager.sol\":2811:2838  pendingWithdrawals[owner()] */\n      0x00\n        /* \"contracts/RestaurantManager.sol\":2830:2837  owner() */\n      tag_146\n        /* \"@openzeppelin/contracts/access/Ownable.sol\":1684:1691  address */\n      0x00\n        /* \"@openzeppelin/contracts/access/Ownable.sol\":1710:1716  _owner */\n      sload\n      sub(shl(0xa0, 0x01), 0x01)\n      and\n      swap1\n        /* \"@openzeppelin/contracts/access/Ownable.sol\":1638:1723  function owner() public view virtual returns (address) {... */\n      jump\n        /* \"contracts/RestaurantManager.sol\":2830:2837  owner() */\n    tag_146:\n      sub(shl(0xa0, 0x01), 0x01)\n        /* \"contracts/RestaurantManager.sol\":2811:2838  pendingWithdrawals[owner()] */\n      and\n      dup2\n      mstore\n      0x20\n      dup2\n      add\n      swap2\n      swap1\n      swap2\n      mstore\n      0x40\n      add\n      0x00\n      keccak256\n      sload\n      sub(shl(0x80, 0x01), 0x01)\n      and\n      swap1\n      pop\n        /* \"contracts/RestaurantManager.sol\":2857:2868  balance > 0 */\n      dup1\n        /* \"contracts/RestaurantManager.sol\":2849:2891  require(balance > 0, \"No funds available\") */\n      tag_147\n      jumpi\n      mload(0x40)\n      shl(0xe5, 0x461bcd)\n      dup2\n      mstore\n        /* \"#utility.yul\":6038:6040   */\n      0x20\n        /* \"contracts/RestaurantManager.sol\":2849:2891  require(balance > 0, \"No funds available\") */\n      0x04\n      dup3\n      add\n        /* \"#utility.yul\":6020:6041   */\n      mstore\n        /* \"#utility.yul\":6077:6079   */\n      0x12\n        /* \"#utility.yul\":6057:6075   */\n      0x24\n      dup3\n      add\n        /* \"#utility.yul\":6050:6080   */\n      mstore\n      shl(0x70, 0x4e6f2066756e647320617661696c61626c65)\n        /* \"#utility.yul\":6096:6114   */\n      0x44\n      dup3\n      add\n        /* \"#utility.yul\":6089:6137   */\n      mstore\n        /* \"#utility.yul\":6154:6172   */\n      0x64\n      add\n        /* \"contracts/RestaurantManager.sol\":2849:2891  require(balance > 0, \"No funds available\") */\n      tag_90\n        /* \"#utility.yul\":5836:6178   */\n      jump\n        /* \"contracts/RestaurantManager.sol\":2849:2891  require(balance > 0, \"No funds available\") */\n    tag_147:\n        /* \"contracts/RestaurantManager.sol\":2932:2933  0 */\n      0x00\n        /* \"contracts/RestaurantManager.sol\":2902:2920  pendingWithdrawals */\n      0x03\n        /* \"contracts/RestaurantManager.sol\":2902:2929  pendingWithdrawals[owner()] */\n      0x00\n        /* \"contracts/RestaurantManager.sol\":2921:2928  owner() */\n      tag_150\n        /* \"@openzeppelin/contracts/access/Ownable.sol\":1684:1691  address */\n      0x00\n        /* \"@openzeppelin/contracts/access/Ownable.sol\":1710:1716  _owner */\n      sload\n      sub(shl(0xa0, 0x01), 0x01)\n      and\n      swap1\n        /* \"@openzeppelin/contracts/access/Ownable.sol\":1638:1723  function owner() public view virtual returns (address) {... */\n      jump\n        /* \"contracts/RestaurantManager.sol\":2921:2928  owner() */\n    tag_150:\n      sub(shl(0xa0, 0x01), 0x01)\n        /* \"contracts/RestaurantManager.sol\":2902:2929  pendingWithdrawals[owner()] */\n      and\n      dup2\n      mstore\n      0x20\n      dup2\n      add\n      swap2\n      swap1\n      swap2\n      mstore\n      0x40\n      add\n      0x00\n      keccak256\n        /* \"contracts/RestaurantManager.sol\":2902:2933  pendingWithdrawals[owner()] = 0 */\n      dup1\n      sload\n      sub(shl(0x80, 0x01), 0x01)\n      swap3\n      dup4\n      and\n      not(sub(shl(0x80, 0x01), 0x01))\n      swap1\n      swap2\n      and\n      or\n      swap1\n      sstore\n        /* \"contracts/RestaurantManager.sol\":2944:2979  payable(owner()).sendValue(balance) */\n      tag_151\n      swap1\n      dup3\n      and\n        /* \"contracts/RestaurantManager.sol\":2952:2959  owner() */\n      tag_152\n        /* \"@openzeppelin/contracts/access/Ownable.sol\":1684:1691  address */\n      0x00\n        /* \"@openzeppelin/contracts/access/Ownable.sol\":1710:1716  _owner */\n      sload\n      sub(shl(0xa0, 0x01), 0x01)\n      and\n      swap1\n        /* \"@openzeppelin/contracts/access/Ownable.sol\":1638:1723  function owner() public view virtual returns (address) {... */\n      jump\n        /* \"contracts/RestaurantManager.sol\":2952:2959  owner() */\n    tag_152:\n      sub(shl(0xa0, 0x01), 0x01)\n        /* \"contracts/RestaurantManager.sol\":2944:2970  payable(owner()).sendValue */\n      and\n      swap1\n      tag_153\n        /* \"contracts/RestaurantManager.sol\":2944:2979  payable(owner()).sendValue(balance) */\n      jump\t// in\n    tag_151:\n        /* \"contracts/RestaurantManager.sol\":2995:3028  PaymentReleased(owner(), balance) */\n      0x15ed0a7026c7f7b2319e041da1e43e0b566e892499962bc6b464292ef9d38757\n        /* \"contracts/RestaurantManager.sol\":3011:3018  owner() */\n      tag_154\n        /* \"@openzeppelin/contracts/access/Ownable.sol\":1684:1691  address */\n      0x00\n        /* \"@openzeppelin/contracts/access/Ownable.sol\":1710:1716  _owner */\n      sload\n      sub(shl(0xa0, 0x01), 0x01)\n      and\n      swap1\n        /* \"@openzeppelin/contracts/access/Ownable.sol\":1638:1723  function owner() public view virtual returns (address) {... */\n      jump\n        /* \"contracts/RestaurantManager.sol\":3011:3018  owner() */\n    tag_154:\n        /* \"contracts/RestaurantManager.sol\":2995:3028  PaymentReleased(owner(), balance) */\n      0x40\n      dup1\n      mload\n      sub(shl(0xa0, 0x01), 0x01)\n        /* \"#utility.yul\":5708:5740   */\n      swap1\n      swap3\n      and\n        /* \"#utility.yul\":5690:5741   */\n      dup3\n      mstore\n      sub(shl(0x80, 0x01), 0x01)\n        /* \"#utility.yul\":5777:5824   */\n      dup5\n      and\n        /* \"#utility.yul\":5772:5774   */\n      0x20\n        /* \"#utility.yul\":5757:5775   */\n      dup4\n      add\n        /* \"#utility.yul\":5750:5825   */\n      mstore\n        /* \"#utility.yul\":5663:5681   */\n      add\n        /* \"contracts/RestaurantManager.sol\":2995:3028  PaymentReleased(owner(), balance) */\n    tag_155:\n      mload(0x40)\n      dup1\n      swap2\n      sub\n      swap1\n      log1\n        /* \"contracts/RestaurantManager.sol\":2782:3036  {... */\n      pop\n        /* \"contracts/RestaurantManager.sol\":2732:3036  function withdrawServiceFees() external onlyAdmin {... */\n      jump\t// out\n        /* \"contracts/RestaurantManager.sol\":543:596  mapping(address => uint128[]) public ownerRestaurants */\n    tag_62:\n      mstore(0x20, 0x04)\n      dup2\n      0x00\n      mstore\n      keccak256(0x00, 0x40)\n      dup2\n      dup2\n      sload\n      dup2\n      lt\n      tag_156\n      jumpi\n      0x00\n      dup1\n      revert\n    tag_156:\n      swap1\n      0x00\n      mstore\n      keccak256(0x00, 0x20)\n      swap1\n      0x02\n      swap2\n      dup3\n      dup3\n      div\n      add\n      swap2\n      swap1\n      mod\n      0x10\n      mul\n      swap2\n      pop\n      swap2\n      pop\n      swap1\n      sload\n      swap1\n      0x0100\n      exp\n      swap1\n      div\n      sub(shl(0x80, 0x01), 0x01)\n      and\n      dup2\n      jump\t// out\n        /* \"@openzeppelin/contracts/access/Ownable.sol\":2543:2758  function transferOwnership(address newOwner) public virtual onlyOwner {... */\n    tag_71:\n        /* \"@openzeppelin/contracts/access/Ownable.sol\":1531:1544  _checkOwner() */\n      tag_159\n        /* \"@openzeppelin/contracts/access/Ownable.sol\":1531:1542  _checkOwner */\n      tag_107\n        /* \"@openzeppelin/contracts/access/Ownable.sol\":1531:1544  _checkOwner() */\n      jump\t// in\n    tag_159:\n      sub(shl(0xa0, 0x01), 0x01)\n        /* \"@openzeppelin/contracts/access/Ownable.sol\":2627:2649  newOwner == address(0) */\n      dup2\n      and\n        /* \"@openzeppelin/contracts/access/Ownable.sol\":2623:2714  if (newOwner == address(0)) {... */\n      tag_161\n      jumpi\n        /* \"@openzeppelin/contracts/access/Ownable.sol\":2672:2703  OwnableInvalidOwner(address(0)) */\n      mload(0x40)\n      shl(0xe0, 0x1e4fbdf7)\n      dup2\n      mstore\n        /* \"@openzeppelin/contracts/access/Ownable.sol\":2700:2701  0 */\n      0x00\n        /* \"@openzeppelin/contracts/access/Ownable.sol\":2672:2703  OwnableInvalidOwner(address(0)) */\n      0x04\n      dup3\n      add\n        /* \"#utility.yul\":870:921   */\n      mstore\n        /* \"#utility.yul\":843:861   */\n      0x24\n      add\n        /* \"@openzeppelin/contracts/access/Ownable.sol\":2672:2703  OwnableInvalidOwner(address(0)) */\n      tag_90\n        /* \"#utility.yul\":724:927   */\n      jump\n        /* \"@openzeppelin/contracts/access/Ownable.sol\":2623:2714  if (newOwner == address(0)) {... */\n    tag_161:\n        /* \"@openzeppelin/contracts/access/Ownable.sol\":2723:2751  _transferOwnership(newOwner) */\n      tag_163\n        /* \"@openzeppelin/contracts/access/Ownable.sol\":2742:2750  newOwner */\n      dup2\n        /* \"@openzeppelin/contracts/access/Ownable.sol\":2723:2741  _transferOwnership */\n      tag_110\n        /* \"@openzeppelin/contracts/access/Ownable.sol\":2723:2751  _transferOwnership(newOwner) */\n      jump\t// in\n    tag_163:\n        /* \"@openzeppelin/contracts/access/Ownable.sol\":2543:2758  function transferOwnership(address newOwner) public virtual onlyOwner {... */\n      pop\n      jump\t// out\n        /* \"contracts/RestaurantManager.sol\":2484:2724  function setServiceFeePercentage(uint8 percentage) external onlyAdmin {... */\n    tag_79:\n        /* \"contracts/RestaurantManager.sol\":1065:1075  msg.sender */\n      caller\n        /* \"contracts/RestaurantManager.sol\":1059:1076  roles[msg.sender] */\n      0x00\n      swap1\n      dup2\n      mstore\n        /* \"contracts/RestaurantManager.sol\":1080:1090  Role.Admin */\n      0x02\n        /* \"contracts/RestaurantManager.sol\":1059:1076  roles[msg.sender] */\n      0x20\n      dup2\n      swap1\n      mstore\n      0x40\n      swap1\n      swap2\n      keccak256\n      sload\n      0xff\n      and\n        /* \"contracts/RestaurantManager.sol\":1059:1090  roles[msg.sender] == Role.Admin */\n      dup2\n      dup2\n      gt\n      iszero\n      tag_168\n      jumpi\n      tag_168\n      tag_86\n      jump\t// in\n    tag_168:\n      eq\n        /* \"contracts/RestaurantManager.sol\":1051:1119  require(roles[msg.sender] == Role.Admin, \"Unauthorized: Admin only\") */\n      tag_169\n      jumpi\n      mload(0x40)\n      shl(0xe5, 0x461bcd)\n      dup2\n      mstore\n      0x04\n      add\n      tag_90\n      swap1\n      tag_91\n      jump\t// in\n    tag_169:\n        /* \"contracts/RestaurantManager.sol\":428:430  20 */\n      0x14\n        /* \"contracts/RestaurantManager.sol\":2573:2602  percentage <= MAX_SERVICE_FEE */\n      0xff\n      dup3\n      and\n      gt\n      iszero\n        /* \"contracts/RestaurantManager.sol\":2565:2627  require(percentage <= MAX_SERVICE_FEE, \"Service fee too high\") */\n      tag_172\n      jumpi\n      mload(0x40)\n      shl(0xe5, 0x461bcd)\n      dup2\n      mstore\n        /* \"#utility.yul\":6385:6387   */\n      0x20\n        /* \"contracts/RestaurantManager.sol\":2565:2627  require(percentage <= MAX_SERVICE_FEE, \"Service fee too high\") */\n      0x04\n      dup3\n      add\n        /* \"#utility.yul\":6367:6388   */\n      mstore\n        /* \"#utility.yul\":6424:6426   */\n      0x14\n        /* \"#utility.yul\":6404:6422   */\n      0x24\n      dup3\n      add\n        /* \"#utility.yul\":6397:6427   */\n      mstore\n      shl(0x63, 0x0a6cae4ecd2c6ca40cccaca40e8dede40d0d2ced)\n        /* \"#utility.yul\":6443:6461   */\n      0x44\n      dup3\n      add\n        /* \"#utility.yul\":6436:6486   */\n      mstore\n        /* \"#utility.yul\":6503:6521   */\n      0x64\n      add\n        /* \"contracts/RestaurantManager.sol\":2565:2627  require(percentage <= MAX_SERVICE_FEE, \"Service fee too high\") */\n      tag_90\n        /* \"#utility.yul\":6183:6527   */\n      jump\n        /* \"contracts/RestaurantManager.sol\":2565:2627  require(percentage <= MAX_SERVICE_FEE, \"Service fee too high\") */\n    tag_172:\n        /* \"contracts/RestaurantManager.sol\":2638:2658  serviceFeePercentage */\n      0x01\n        /* \"contracts/RestaurantManager.sol\":2638:2671  serviceFeePercentage = percentage */\n      dup1\n      sload\n      not(shl(0x80, 0xff))\n      and\n      shl(0x80, 0x01)\n      0xff\n      dup5\n      and\n      swap1\n      dup2\n      mul\n      swap2\n      swap1\n      swap2\n      or\n      swap1\n      swap2\n      sstore\n        /* \"contracts/RestaurantManager.sol\":2687:2716  ServiceFeeUpdated(percentage) */\n      mload(0x40)\n        /* \"#utility.yul\":156:192   */\n      swap1\n      dup2\n      mstore\n        /* \"contracts/RestaurantManager.sol\":2687:2716  ServiceFeeUpdated(percentage) */\n      0xc2e7293b347ac956898a90e36061ef247c8d3516f25e87a91009be115ce27ac4\n      swap1\n        /* \"#utility.yul\":144:146   */\n      0x20\n        /* \"#utility.yul\":129:147   */\n      add\n        /* \"contracts/RestaurantManager.sol\":2687:2716  ServiceFeeUpdated(percentage) */\n      tag_155\n        /* \"#utility.yul\":14:198   */\n      jump\n        /* \"contracts/RestaurantManager.sol\":1405:1753  function registerRestaurant() external returns (uint128) {... */\n    tag_81:\n        /* \"contracts/RestaurantManager.sol\":1496:1512  nextRestaurantId */\n      0x01\n      dup1\n      sload\n      sub(shl(0x80, 0x01), 0x01)\n      swap1\n      dup2\n      and\n        /* \"contracts/RestaurantManager.sol\":1453:1460  uint128 */\n      0x00\n        /* \"contracts/RestaurantManager.sol\":1523:1553  restaurantOwners[restaurantId] */\n      dup2\n      dup2\n      mstore\n        /* \"contracts/RestaurantManager.sol\":1523:1539  restaurantOwners */\n      0x05\n        /* \"contracts/RestaurantManager.sol\":1523:1553  restaurantOwners[restaurantId] */\n      0x20\n      swap1\n      dup2\n      mstore\n      0x40\n      dup1\n      dup4\n      keccak256\n        /* \"contracts/RestaurantManager.sol\":1523:1566  restaurantOwners[restaurantId] = msg.sender */\n      dup1\n      sload\n        /* \"contracts/RestaurantManager.sol\":1556:1566  msg.sender */\n      caller\n      not(sub(shl(0xa0, 0x01), 0x01))\n        /* \"contracts/RestaurantManager.sol\":1523:1566  restaurantOwners[restaurantId] = msg.sender */\n      swap1\n      swap2\n      and\n      dup2\n      or\n      swap1\n      swap2\n      sstore\n        /* \"contracts/RestaurantManager.sol\":1577:1605  ownerRestaurants[msg.sender] */\n      dup1\n      dup5\n      mstore\n        /* \"contracts/RestaurantManager.sol\":1577:1593  ownerRestaurants */\n      0x04\n        /* \"contracts/RestaurantManager.sol\":1577:1605  ownerRestaurants[msg.sender] */\n      dup4\n      mstore\n      dup2\n      dup5\n      keccak256\n        /* \"contracts/RestaurantManager.sol\":1577:1624  ownerRestaurants[msg.sender].push(restaurantId) */\n      dup1\n      sload\n      dup1\n      dup10\n      add\n      dup3\n      sstore\n      swap1\n      dup6\n      mstore\n      dup4\n      dup6\n      keccak256\n      0x02\n      dup3\n      div\n      add\n      dup1\n      sload\n      swap2\n      swap1\n      swap9\n      and\n      0x10\n      mul\n        /* \"contracts/RestaurantManager.sol\":1496:1512  nextRestaurantId */\n      0x0100\n        /* \"contracts/RestaurantManager.sol\":1577:1624  ownerRestaurants[msg.sender].push(restaurantId) */\n      exp\n      swap7\n      dup8\n      mul\n      not\n      and\n      swap6\n      dup6\n      mul\n      swap6\n      swap1\n      swap6\n      or\n      swap1\n      swap6\n      sstore\n        /* \"contracts/RestaurantManager.sol\":1640:1686  RestaurantRegistered(restaurantId, msg.sender) */\n      dup5\n      mload\n        /* \"#utility.yul\":6706:6772   */\n      dup4\n      dup2\n      mstore\n        /* \"#utility.yul\":6788:6806   */\n      swap1\n      dup2\n      add\n        /* \"#utility.yul\":6781:6841   */\n      swap4\n      swap1\n      swap4\n      mstore\n        /* \"contracts/RestaurantManager.sol\":1453:1460  uint128 */\n      swap3\n        /* \"contracts/RestaurantManager.sol\":1496:1512  nextRestaurantId */\n      swap1\n      swap2\n        /* \"contracts/RestaurantManager.sol\":1640:1686  RestaurantRegistered(restaurantId, msg.sender) */\n      0xbafbc0bfd4afd8a222b8cd09b01ce310b06b0beb42503ea91a76135e6a532e92\n      swap2\n        /* \"#utility.yul\":6679:6697   */\n      add\n        /* \"contracts/RestaurantManager.sol\":1640:1686  RestaurantRegistered(restaurantId, msg.sender) */\n      mload(0x40)\n      dup1\n      swap2\n      sub\n      swap1\n      log1\n        /* \"contracts/RestaurantManager.sol\":1697:1713  nextRestaurantId */\n      0x01\n        /* \"contracts/RestaurantManager.sol\":1697:1715  nextRestaurantId++ */\n      dup1\n      sload\n      sub(shl(0x80, 0x01), 0x01)\n      and\n      swap1\n        /* \"contracts/RestaurantManager.sol\":1697:1713  nextRestaurantId */\n      0x00\n        /* \"contracts/RestaurantManager.sol\":1697:1715  nextRestaurantId++ */\n      tag_180\n      dup4\n      tag_181\n      jump\t// in\n    tag_180:\n      swap2\n      swap1\n      0x0100\n      exp\n      dup2\n      sload\n      dup2\n      sub(shl(0x80, 0x01), 0x01)\n      mul\n      not\n      and\n      swap1\n      dup4\n      sub(shl(0x80, 0x01), 0x01)\n      and\n      mul\n      or\n      swap1\n      sstore\n      pop\n      pop\n        /* \"contracts/RestaurantManager.sol\":1733:1745  restaurantId */\n      dup1\n        /* \"contracts/RestaurantManager.sol\":1726:1745  return restaurantId */\n      swap2\n      pop\n      pop\n        /* \"contracts/RestaurantManager.sol\":1405:1753  function registerRestaurant() external returns (uint128) {... */\n      swap1\n      jump\t// out\n        /* \"@openzeppelin/contracts/access/Ownable.sol\":1796:1958  function _checkOwner() internal view virtual {... */\n    tag_107:\n        /* \"@openzeppelin/contracts/access/Ownable.sol\":1684:1691  address */\n      0x00\n        /* \"@openzeppelin/contracts/access/Ownable.sol\":1710:1716  _owner */\n      sload\n      sub(shl(0xa0, 0x01), 0x01)\n      and\n        /* \"@openzeppelin/contracts/utils/Context.sol\":735:745  msg.sender */\n      caller\n        /* \"@openzeppelin/contracts/access/Ownable.sol\":1855:1878  owner() != _msgSender() */\n      eq\n        /* \"@openzeppelin/contracts/access/Ownable.sol\":1851:1952  if (owner() != _msgSender()) {... */\n      tag_109\n      jumpi\n        /* \"@openzeppelin/contracts/access/Ownable.sol\":1901:1941  OwnableUnauthorizedAccount(_msgSender()) */\n      mload(0x40)\n      shl(0xe0, 0x118cdaa7)\n      dup2\n      mstore\n        /* \"@openzeppelin/contracts/utils/Context.sol\":735:745  msg.sender */\n      caller\n        /* \"@openzeppelin/contracts/access/Ownable.sol\":1901:1941  OwnableUnauthorizedAccount(_msgSender()) */\n      0x04\n      dup3\n      add\n        /* \"#utility.yul\":870:921   */\n      mstore\n        /* \"#utility.yul\":843:861   */\n      0x24\n      add\n        /* \"@openzeppelin/contracts/access/Ownable.sol\":1901:1941  OwnableUnauthorizedAccount(_msgSender()) */\n      tag_90\n        /* \"#utility.yul\":724:927   */\n      jump\n        /* \"@openzeppelin/contracts/access/Ownable.sol\":2912:3099  function _transferOwnership(address newOwner) internal virtual {... */\n    tag_110:\n        /* \"@openzeppelin/contracts/access/Ownable.sol\":2985:3001  address oldOwner */\n      0x00\n        /* \"@openzeppelin/contracts/access/Ownable.sol\":3004:3010  _owner */\n      dup1\n      sload\n      sub(shl(0xa0, 0x01), 0x01)\n        /* \"@openzeppelin/contracts/access/Ownable.sol\":3020:3037  _owner = newOwner */\n      dup4\n      dup2\n      and\n      not(sub(shl(0xa0, 0x01), 0x01))\n      dup4\n      and\n      dup2\n      or\n      dup5\n      sstore\n        /* \"@openzeppelin/contracts/access/Ownable.sol\":3052:3092  OwnershipTransferred(oldOwner, newOwner) */\n      mload(0x40)\n        /* \"@openzeppelin/contracts/access/Ownable.sol\":3004:3010  _owner */\n      swap2\n      swap1\n      swap3\n      and\n      swap3\n      dup4\n      swap2\n        /* \"@openzeppelin/contracts/access/Ownable.sol\":3052:3092  OwnershipTransferred(oldOwner, newOwner) */\n      0x8be0079c531659141344cd1fd0a4f28419497f9722a3daafe3b4186f6b6457e0\n      swap2\n        /* \"@openzeppelin/contracts/access/Ownable.sol\":2985:3001  address oldOwner */\n      swap1\n        /* \"@openzeppelin/contracts/access/Ownable.sol\":3052:3092  OwnershipTransferred(oldOwner, newOwner) */\n      log3\n        /* \"@openzeppelin/contracts/access/Ownable.sol\":2975:3099  {... */\n      pop\n        /* \"@openzeppelin/contracts/access/Ownable.sol\":2912:3099  function _transferOwnership(address newOwner) internal virtual {... */\n      pop\n      jump\t// out\n        /* \"@openzeppelin/contracts/utils/Address.sol\":1290:1655  function sendValue(address payable recipient, uint256 amount) internal {... */\n    tag_153:\n        /* \"@openzeppelin/contracts/utils/Address.sol\":1399:1405  amount */\n      dup1\n        /* \"@openzeppelin/contracts/utils/Address.sol\":1375:1396  address(this).balance */\n      selfbalance\n        /* \"@openzeppelin/contracts/utils/Address.sol\":1375:1405  address(this).balance < amount */\n      lt\n        /* \"@openzeppelin/contracts/utils/Address.sol\":1371:1496  if (address(this).balance < amount) {... */\n      iszero\n      tag_191\n      jumpi\n        /* \"@openzeppelin/contracts/utils/Address.sol\":1428:1485  Errors.InsufficientBalance(address(this).balance, amount) */\n      mload(0x40)\n      shl(0xe0, 0xcf479181)\n      dup2\n      mstore\n        /* \"@openzeppelin/contracts/utils/Address.sol\":1455:1476  address(this).balance */\n      selfbalance\n        /* \"@openzeppelin/contracts/utils/Address.sol\":1428:1485  Errors.InsufficientBalance(address(this).balance, amount) */\n      0x04\n      dup3\n      add\n        /* \"#utility.yul\":7268:7293   */\n      mstore\n        /* \"#utility.yul\":7309:7327   */\n      0x24\n      dup2\n      add\n        /* \"#utility.yul\":7302:7336   */\n      dup3\n      swap1\n      mstore\n        /* \"#utility.yul\":7241:7259   */\n      0x44\n      add\n        /* \"@openzeppelin/contracts/utils/Address.sol\":1428:1485  Errors.InsufficientBalance(address(this).balance, amount) */\n      tag_90\n        /* \"#utility.yul\":7094:7342   */\n      jump\n        /* \"@openzeppelin/contracts/utils/Address.sol\":1371:1496  if (address(this).balance < amount) {... */\n    tag_191:\n        /* \"@openzeppelin/contracts/utils/Address.sol\":1507:1519  bool success */\n      0x00\n        /* \"@openzeppelin/contracts/utils/Address.sol\":1521:1544  bytes memory returndata */\n      0x00\n        /* \"@openzeppelin/contracts/utils/Address.sol\":1548:1557  recipient */\n      dup4\n      sub(shl(0xa0, 0x01), 0x01)\n        /* \"@openzeppelin/contracts/utils/Address.sol\":1548:1562  recipient.call */\n      and\n        /* \"@openzeppelin/contracts/utils/Address.sol\":1570:1576  amount */\n      dup4\n        /* \"@openzeppelin/contracts/utils/Address.sol\":1548:1581  recipient.call{value: amount}(\"\") */\n      mload(0x40)\n      0x00\n      mload(0x40)\n      dup1\n      dup4\n      sub\n      dup2\n      dup6\n      dup8\n      gas\n      call\n      swap3\n      pop\n      pop\n      pop\n      returndatasize\n      dup1\n      0x00\n      dup2\n      eq\n      tag_198\n      jumpi\n      mload(0x40)\n      swap2\n      pop\n      and(add(returndatasize, 0x3f), not(0x1f))\n      dup3\n      add\n      0x40\n      mstore\n      returndatasize\n      dup3\n      mstore\n      returndatasize\n      0x00\n      0x20\n      dup5\n      add\n      returndatacopy\n      jump(tag_197)\n    tag_198:\n      0x60\n      swap2\n      pop\n    tag_197:\n      pop\n        /* \"@openzeppelin/contracts/utils/Address.sol\":1506:1581  (bool success, bytes memory returndata) = recipient.call{value: amount}(\"\") */\n      swap2\n      pop\n      swap2\n      pop\n        /* \"@openzeppelin/contracts/utils/Address.sol\":1596:1603  success */\n      dup2\n        /* \"@openzeppelin/contracts/utils/Address.sol\":1591:1649  if (!success) {... */\n      tag_200\n      jumpi\n        /* \"@openzeppelin/contracts/utils/Address.sol\":1619:1638  _revert(returndata) */\n      tag_200\n        /* \"@openzeppelin/contracts/utils/Address.sol\":1627:1637  returndata */\n      dup2\n        /* \"@openzeppelin/contracts/utils/Address.sol\":1619:1626  _revert */\n      tag_201\n        /* \"@openzeppelin/contracts/utils/Address.sol\":1619:1638  _revert(returndata) */\n      jump\t// in\n    tag_200:\n        /* \"@openzeppelin/contracts/utils/Address.sol\":1361:1655  {... */\n      pop\n      pop\n        /* \"@openzeppelin/contracts/utils/Address.sol\":1290:1655  function sendValue(address payable recipient, uint256 amount) internal {... */\n      pop\n      pop\n      jump\t// out\n        /* \"@openzeppelin/contracts/utils/Address.sol\":5559:6046  function _revert(bytes memory returndata) private pure {... */\n    tag_201:\n        /* \"@openzeppelin/contracts/utils/Address.sol\":5690:5707  returndata.length */\n      dup1\n      mload\n        /* \"@openzeppelin/contracts/utils/Address.sol\":5690:5711  returndata.length > 0 */\n      iszero\n        /* \"@openzeppelin/contracts/utils/Address.sol\":5686:6040  if (returndata.length > 0) {... */\n      tag_204\n      jumpi\n        /* \"@openzeppelin/contracts/utils/Address.sol\":5887:5897  returndata */\n      dup1\n        /* \"@openzeppelin/contracts/utils/Address.sol\":5881:5898  mload(returndata) */\n      mload\n        /* \"@openzeppelin/contracts/utils/Address.sol\":5943:5958  returndata_size */\n      dup1\n        /* \"@openzeppelin/contracts/utils/Address.sol\":5930:5940  returndata */\n      dup3\n        /* \"@openzeppelin/contracts/utils/Address.sol\":5926:5928  32 */\n      0x20\n        /* \"@openzeppelin/contracts/utils/Address.sol\":5922:5941  add(32, returndata) */\n      add\n        /* \"@openzeppelin/contracts/utils/Address.sol\":5915:5959  revert(add(32, returndata), returndata_size) */\n      revert\n        /* \"@openzeppelin/contracts/utils/Address.sol\":5686:6040  if (returndata.length > 0) {... */\n    tag_204:\n        /* \"@openzeppelin/contracts/utils/Address.sol\":6010:6029  Errors.FailedCall() */\n      mload(0x40)\n      shl(0xe0, 0xd6bda275)\n      dup2\n      mstore\n      0x04\n      add\n      mload(0x40)\n      dup1\n      swap2\n      sub\n      swap1\n      revert\n        /* \"#utility.yul\":203:376   */\n    tag_206:\n        /* \"#utility.yul\":271:291   */\n      dup1\n      calldataload\n      sub(shl(0xa0, 0x01), 0x01)\n        /* \"#utility.yul\":320:351   */\n      dup2\n      and\n        /* \"#utility.yul\":310:352   */\n      dup2\n      eq\n        /* \"#utility.yul\":300:370   */\n      tag_213\n      jumpi\n        /* \"#utility.yul\":366:367   */\n      0x00\n        /* \"#utility.yul\":363:364   */\n      0x00\n        /* \"#utility.yul\":356:368   */\n      revert\n        /* \"#utility.yul\":300:370   */\n    tag_213:\n        /* \"#utility.yul\":203:376   */\n      swap2\n      swap1\n      pop\n      jump\t// out\n        /* \"#utility.yul\":381:719   */\n    tag_31:\n        /* \"#utility.yul\":457:463   */\n      0x00\n        /* \"#utility.yul\":465:471   */\n      0x00\n        /* \"#utility.yul\":518:520   */\n      0x40\n        /* \"#utility.yul\":506:515   */\n      dup4\n        /* \"#utility.yul\":497:504   */\n      dup6\n        /* \"#utility.yul\":493:516   */\n      sub\n        /* \"#utility.yul\":489:521   */\n      slt\n        /* \"#utility.yul\":486:538   */\n      iszero\n      tag_215\n      jumpi\n        /* \"#utility.yul\":534:535   */\n      0x00\n        /* \"#utility.yul\":531:532   */\n      0x00\n        /* \"#utility.yul\":524:536   */\n      revert\n        /* \"#utility.yul\":486:538   */\n    tag_215:\n        /* \"#utility.yul\":557:586   */\n      tag_216\n        /* \"#utility.yul\":576:585   */\n      dup4\n        /* \"#utility.yul\":557:586   */\n      tag_206\n      jump\t// in\n    tag_216:\n        /* \"#utility.yul\":547:586   */\n      swap2\n      pop\n        /* \"#utility.yul\":636:638   */\n      0x20\n        /* \"#utility.yul\":625:634   */\n      dup4\n        /* \"#utility.yul\":621:639   */\n      add\n        /* \"#utility.yul\":608:640   */\n      calldataload\n        /* \"#utility.yul\":669:670   */\n      0x03\n        /* \"#utility.yul\":662:667   */\n      dup2\n        /* \"#utility.yul\":659:671   */\n      lt\n        /* \"#utility.yul\":649:689   */\n      tag_217\n      jumpi\n        /* \"#utility.yul\":685:686   */\n      0x00\n        /* \"#utility.yul\":682:683   */\n      0x00\n        /* \"#utility.yul\":675:687   */\n      revert\n        /* \"#utility.yul\":649:689   */\n    tag_217:\n        /* \"#utility.yul\":708:713   */\n      dup1\n        /* \"#utility.yul\":698:713   */\n      swap2\n      pop\n      pop\n        /* \"#utility.yul\":381:719   */\n      swap3\n      pop\n      swap3\n      swap1\n      pop\n      jump\t// out\n        /* \"#utility.yul\":932:1118   */\n    tag_41:\n        /* \"#utility.yul\":991:997   */\n      0x00\n        /* \"#utility.yul\":1044:1046   */\n      0x20\n        /* \"#utility.yul\":1032:1041   */\n      dup3\n        /* \"#utility.yul\":1023:1030   */\n      dup5\n        /* \"#utility.yul\":1019:1042   */\n      sub\n        /* \"#utility.yul\":1015:1047   */\n      slt\n        /* \"#utility.yul\":1012:1064   */\n      iszero\n      tag_220\n      jumpi\n        /* \"#utility.yul\":1060:1061   */\n      0x00\n        /* \"#utility.yul\":1057:1058   */\n      0x00\n        /* \"#utility.yul\":1050:1062   */\n      revert\n        /* \"#utility.yul\":1012:1064   */\n    tag_220:\n        /* \"#utility.yul\":1083:1112   */\n      tag_221\n        /* \"#utility.yul\":1102:1111   */\n      dup3\n        /* \"#utility.yul\":1083:1112   */\n      tag_206\n      jump\t// in\n    tag_221:\n        /* \"#utility.yul\":1073:1112   */\n      swap4\n        /* \"#utility.yul\":932:1118   */\n      swap3\n      pop\n      pop\n      pop\n      jump\t// out\n        /* \"#utility.yul\":1123:1250   */\n    tag_86:\n        /* \"#utility.yul\":1184:1194   */\n      0x4e487b71\n        /* \"#utility.yul\":1179:1182   */\n      0xe0\n        /* \"#utility.yul\":1175:1195   */\n      shl\n        /* \"#utility.yul\":1172:1173   */\n      0x00\n        /* \"#utility.yul\":1165:1196   */\n      mstore\n        /* \"#utility.yul\":1215:1219   */\n      0x21\n        /* \"#utility.yul\":1212:1213   */\n      0x04\n        /* \"#utility.yul\":1205:1220   */\n      mstore\n        /* \"#utility.yul\":1239:1243   */\n      0x24\n        /* \"#utility.yul\":1236:1237   */\n      0x00\n        /* \"#utility.yul\":1229:1244   */\n      revert\n        /* \"#utility.yul\":1255:1487   */\n    tag_207:\n        /* \"#utility.yul\":1331:1332   */\n      0x03\n        /* \"#utility.yul\":1324:1329   */\n      dup2\n        /* \"#utility.yul\":1321:1333   */\n      lt\n        /* \"#utility.yul\":1311:1454   */\n      tag_224\n      jumpi\n        /* \"#utility.yul\":1376:1386   */\n      0x4e487b71\n        /* \"#utility.yul\":1371:1374   */\n      0xe0\n        /* \"#utility.yul\":1367:1387   */\n      shl\n        /* \"#utility.yul\":1364:1365   */\n      0x00\n        /* \"#utility.yul\":1357:1388   */\n      mstore\n        /* \"#utility.yul\":1411:1415   */\n      0x21\n        /* \"#utility.yul\":1408:1409   */\n      0x04\n        /* \"#utility.yul\":1401:1416   */\n      mstore\n        /* \"#utility.yul\":1439:1443   */\n      0x24\n        /* \"#utility.yul\":1436:1437   */\n      0x00\n        /* \"#utility.yul\":1429:1444   */\n      revert\n        /* \"#utility.yul\":1311:1454   */\n    tag_224:\n        /* \"#utility.yul\":1463:1481   */\n      swap1\n      mstore\n        /* \"#utility.yul\":1255:1487   */\n      jump\t// out\n        /* \"#utility.yul\":1492:1689   */\n    tag_44:\n        /* \"#utility.yul\":1632:1634   */\n      0x20\n        /* \"#utility.yul\":1617:1635   */\n      dup2\n      add\n        /* \"#utility.yul\":1644:1683   */\n      tag_226\n        /* \"#utility.yul\":1621:1630   */\n      dup3\n        /* \"#utility.yul\":1665:1671   */\n      dup5\n        /* \"#utility.yul\":1644:1683   */\n      tag_207\n      jump\t// in\n    tag_226:\n        /* \"#utility.yul\":1492:1689   */\n      swap3\n      swap2\n      pop\n      pop\n      jump\t// out\n        /* \"#utility.yul\":1694:1882   */\n    tag_208:\n        /* \"#utility.yul\":1762:1782   */\n      dup1\n      calldataload\n      sub(shl(0x80, 0x01), 0x01)\n        /* \"#utility.yul\":1811:1857   */\n      dup2\n      and\n        /* \"#utility.yul\":1801:1858   */\n      dup2\n      eq\n        /* \"#utility.yul\":1791:1876   */\n      tag_213\n      jumpi\n        /* \"#utility.yul\":1872:1873   */\n      0x00\n        /* \"#utility.yul\":1869:1870   */\n      0x00\n        /* \"#utility.yul\":1862:1874   */\n      revert\n        /* \"#utility.yul\":1887:2147   */\n    tag_47:\n        /* \"#utility.yul\":1955:1961   */\n      0x00\n        /* \"#utility.yul\":1963:1969   */\n      0x00\n        /* \"#utility.yul\":2016:2018   */\n      0x40\n        /* \"#utility.yul\":2004:2013   */\n      dup4\n        /* \"#utility.yul\":1995:2002   */\n      dup6\n        /* \"#utility.yul\":1991:2014   */\n      sub\n        /* \"#utility.yul\":1987:2019   */\n      slt\n        /* \"#utility.yul\":1984:2036   */\n      iszero\n      tag_230\n      jumpi\n        /* \"#utility.yul\":2032:2033   */\n      0x00\n        /* \"#utility.yul\":2029:2030   */\n      0x00\n        /* \"#utility.yul\":2022:2034   */\n      revert\n        /* \"#utility.yul\":1984:2036   */\n    tag_230:\n        /* \"#utility.yul\":2055:2084   */\n      tag_231\n        /* \"#utility.yul\":2074:2083   */\n      dup4\n        /* \"#utility.yul\":2055:2084   */\n      tag_206\n      jump\t// in\n    tag_231:\n        /* \"#utility.yul\":2045:2084   */\n      swap2\n      pop\n        /* \"#utility.yul\":2103:2141   */\n      tag_232\n        /* \"#utility.yul\":2137:2139   */\n      0x20\n        /* \"#utility.yul\":2126:2135   */\n      dup5\n        /* \"#utility.yul\":2122:2140   */\n      add\n        /* \"#utility.yul\":2103:2141   */\n      tag_208\n      jump\t// in\n    tag_232:\n        /* \"#utility.yul\":2093:2141   */\n      swap1\n      pop\n        /* \"#utility.yul\":1887:2147   */\n      swap3\n      pop\n      swap3\n      swap1\n      pop\n      jump\t// out\n        /* \"#utility.yul\":2152:2338   */\n    tag_51:\n        /* \"#utility.yul\":2211:2217   */\n      0x00\n        /* \"#utility.yul\":2264:2266   */\n      0x20\n        /* \"#utility.yul\":2252:2261   */\n      dup3\n        /* \"#utility.yul\":2243:2250   */\n      dup5\n        /* \"#utility.yul\":2239:2262   */\n      sub\n        /* \"#utility.yul\":2235:2267   */\n      slt\n        /* \"#utility.yul\":2232:2284   */\n      iszero\n      tag_234\n      jumpi\n        /* \"#utility.yul\":2280:2281   */\n      0x00\n        /* \"#utility.yul\":2277:2278   */\n      0x00\n        /* \"#utility.yul\":2270:2282   */\n      revert\n        /* \"#utility.yul\":2232:2284   */\n    tag_234:\n        /* \"#utility.yul\":2303:2332   */\n      tag_221\n        /* \"#utility.yul\":2322:2331   */\n      dup3\n        /* \"#utility.yul\":2303:2332   */\n      tag_208\n      jump\t// in\n        /* \"#utility.yul\":2343:2597   */\n    tag_61:\n        /* \"#utility.yul\":2411:2417   */\n      0x00\n        /* \"#utility.yul\":2419:2425   */\n      0x00\n        /* \"#utility.yul\":2472:2474   */\n      0x40\n        /* \"#utility.yul\":2460:2469   */\n      dup4\n        /* \"#utility.yul\":2451:2458   */\n      dup6\n        /* \"#utility.yul\":2447:2470   */\n      sub\n        /* \"#utility.yul\":2443:2475   */\n      slt\n        /* \"#utility.yul\":2440:2492   */\n      iszero\n      tag_237\n      jumpi\n        /* \"#utility.yul\":2488:2489   */\n      0x00\n        /* \"#utility.yul\":2485:2486   */\n      0x00\n        /* \"#utility.yul\":2478:2490   */\n      revert\n        /* \"#utility.yul\":2440:2492   */\n    tag_237:\n        /* \"#utility.yul\":2511:2540   */\n      tag_238\n        /* \"#utility.yul\":2530:2539   */\n      dup4\n        /* \"#utility.yul\":2511:2540   */\n      tag_206\n      jump\t// in\n    tag_238:\n        /* \"#utility.yul\":2501:2540   */\n      swap5\n        /* \"#utility.yul\":2587:2589   */\n      0x20\n        /* \"#utility.yul\":2572:2590   */\n      swap4\n      swap1\n      swap4\n      add\n        /* \"#utility.yul\":2559:2591   */\n      calldataload\n      swap4\n      pop\n      pop\n      pop\n        /* \"#utility.yul\":2343:2597   */\n      jump\t// out\n        /* \"#utility.yul\":2825:3094   */\n    tag_78:\n        /* \"#utility.yul\":2882:2888   */\n      0x00\n        /* \"#utility.yul\":2935:2937   */\n      0x20\n        /* \"#utility.yul\":2923:2932   */\n      dup3\n        /* \"#utility.yul\":2914:2921   */\n      dup5\n        /* \"#utility.yul\":2910:2933   */\n      sub\n        /* \"#utility.yul\":2906:2938   */\n      slt\n        /* \"#utility.yul\":2903:2955   */\n      iszero\n      tag_241\n      jumpi\n        /* \"#utility.yul\":2951:2952   */\n      0x00\n        /* \"#utility.yul\":2948:2949   */\n      0x00\n        /* \"#utility.yul\":2941:2953   */\n      revert\n        /* \"#utility.yul\":2903:2955   */\n    tag_241:\n        /* \"#utility.yul\":2990:2999   */\n      dup2\n        /* \"#utility.yul\":2977:3000   */\n      calldataload\n        /* \"#utility.yul\":3040:3044   */\n      0xff\n        /* \"#utility.yul\":3033:3038   */\n      dup2\n        /* \"#utility.yul\":3029:3045   */\n      and\n        /* \"#utility.yul\":3022:3027   */\n      dup2\n        /* \"#utility.yul\":3019:3046   */\n      eq\n        /* \"#utility.yul\":3009:3064   */\n      tag_221\n      jumpi\n        /* \"#utility.yul\":3060:3061   */\n      0x00\n        /* \"#utility.yul\":3057:3058   */\n      0x00\n        /* \"#utility.yul\":3050:3062   */\n      revert\n        /* \"#utility.yul\":3099:3447   */\n    tag_91:\n        /* \"#utility.yul\":3301:3303   */\n      0x20\n        /* \"#utility.yul\":3283:3304   */\n      dup1\n      dup3\n      mstore\n        /* \"#utility.yul\":3340:3342   */\n      0x18\n        /* \"#utility.yul\":3320:3338   */\n      swap1\n      dup3\n      add\n        /* \"#utility.yul\":3313:3343   */\n      mstore\n        /* \"#utility.yul\":3379:3405   */\n      0x556e617574686f72697a65643a2041646d696e206f6e6c790000000000000000\n        /* \"#utility.yul\":3374:3376   */\n      0x40\n        /* \"#utility.yul\":3359:3377   */\n      dup3\n      add\n        /* \"#utility.yul\":3352:3406   */\n      mstore\n        /* \"#utility.yul\":3438:3440   */\n      0x60\n        /* \"#utility.yul\":3423:3441   */\n      add\n      swap1\n        /* \"#utility.yul\":3099:3447   */\n      jump\t// out\n        /* \"#utility.yul\":3796:4090   */\n    tag_104:\n      sub(shl(0xa0, 0x01), 0x01)\n        /* \"#utility.yul\":3994:4026   */\n      dup4\n      and\n        /* \"#utility.yul\":3976:4027   */\n      dup2\n      mstore\n        /* \"#utility.yul\":3964:3966   */\n      0x40\n        /* \"#utility.yul\":3949:3967   */\n      dup2\n      add\n        /* \"#utility.yul\":4036:4084   */\n      tag_221\n        /* \"#utility.yul\":4080:4082   */\n      0x20\n        /* \"#utility.yul\":4065:4083   */\n      dup4\n      add\n        /* \"#utility.yul\":4057:4063   */\n      dup5\n        /* \"#utility.yul\":4036:4084   */\n      tag_207\n      jump\t// in\n        /* \"#utility.yul\":4436:4563   */\n    tag_209:\n        /* \"#utility.yul\":4497:4507   */\n      0x4e487b71\n        /* \"#utility.yul\":4492:4495   */\n      0xe0\n        /* \"#utility.yul\":4488:4508   */\n      shl\n        /* \"#utility.yul\":4485:4486   */\n      0x00\n        /* \"#utility.yul\":4478:4509   */\n      mstore\n        /* \"#utility.yul\":4528:4532   */\n      0x11\n        /* \"#utility.yul\":4525:4526   */\n      0x04\n        /* \"#utility.yul\":4518:4533   */\n      mstore\n        /* \"#utility.yul\":4552:4556   */\n      0x24\n        /* \"#utility.yul\":4549:4550   */\n      0x00\n        /* \"#utility.yul\":4542:4557   */\n      revert\n        /* \"#utility.yul\":4568:4808   */\n    tag_123:\n      sub(shl(0x80, 0x01), 0x01)\n        /* \"#utility.yul\":4637:4679   */\n      dup2\n      dup2\n      and\n        /* \"#utility.yul\":4681:4723   */\n      dup4\n      dup3\n      and\n        /* \"#utility.yul\":4633:4724   */\n      add\n      swap1\n        /* \"#utility.yul\":4736:4779   */\n      dup2\n      gt\n        /* \"#utility.yul\":4733:4802   */\n      iszero\n      tag_226\n      jumpi\n        /* \"#utility.yul\":4782:4800   */\n      tag_226\n      tag_209\n      jump\t// in\n        /* \"#utility.yul\":6852:7089   */\n    tag_181:\n        /* \"#utility.yul\":6891:6894   */\n      0x00\n      sub(shl(0x80, 0x01), 0x01)\n        /* \"#utility.yul\":6928:6933   */\n      dup3\n        /* \"#utility.yul\":6924:6970   */\n      and\n      sub(shl(0x80, 0x01), 0x01)\n        /* \"#utility.yul\":6985:6992   */\n      dup2\n        /* \"#utility.yul\":6982:7029   */\n      sub\n        /* \"#utility.yul\":6979:7052   */\n      tag_260\n      jumpi\n        /* \"#utility.yul\":7032:7050   */\n      tag_260\n      tag_209\n      jump\t// in\n    tag_260:\n        /* \"#utility.yul\":7081:7082   */\n      0x01\n        /* \"#utility.yul\":7068:7083   */\n      add\n      swap3\n        /* \"#utility.yul\":6852:7089   */\n      swap2\n      pop\n      pop\n      jump\t// out\n\n    auxdata: 0xa264697066735822122013a7fda9534c1974a615d7b81ade2632c397a89d9409dc994e977aceec8e4a1c64736f6c634300081e0033\n}\n",
				"bytecode": {
					"linkReferences": {},
					"object": "6080604052600180546001600160881b0319167005000000000000000000000000000000011790553480156031575f5ffd5b503380605657604051631e4fbdf760e01b81525f600482015260240160405180910390fd5b605d81607e565b50335f908152600260208190526040909120805460ff1916909117905560cd565b5f80546001600160a01b038381166001600160a01b0319831681178455604051919092169283917f8be0079c531659141344cd1fd0a4f28419497f9722a3daafe3b4186f6b6457e09190a35050565b610dc1806100da5f395ff3fe608060405234801561000f575f5ffd5b50600436106100fb575f3560e01c8063ae9a465511610093578063f2fde38b11610063578063f2fde38b1461024b578063f3f437031461025e578063f793728214610286578063fa20fca714610299575f5ffd5b8063ae9a4655146101dd578063d72e481d146101f0578063d76d571a146101f8578063e28d7a1814610223575f5ffd5b80638da5cb5b116100ce5780638da5cb5b1461014f5780639937464214610173578063a0e31ec4146101a2578063abca88f0146101b5575f5ffd5b806314d90e1b146100ff578063603ef6491461011e578063630a195b14610132578063715018a614610147575b5f5ffd5b610107601481565b60405160ff90911681526020015b60405180910390f35b60015461010790600160801b900460ff1681565b610145610140366004610b92565b6102a1565b005b6101456103ee565b5f546001600160a01b03165b6040516001600160a01b039091168152602001610115565b610195610181366004610bca565b60026020525f908152604090205460ff1681565b6040516101159190610c1e565b6101456101b0366004610c48565b610401565b61015b6101c3366004610c79565b60056020525f90815260409020546001600160a01b031681565b6101456101eb366004610c48565b6104ce565b61014561066e565b61020b610206366004610c92565b6107f9565b6040516001600160801b039091168152602001610115565b61020b610231366004610bca565b60066020525f90815260409020546001600160801b031681565b610145610259366004610bca565b610840565b61020b61026c366004610bca565b60036020525f90815260409020546001600160801b031681565b610145610294366004610cba565b61087d565b61020b610958565b335f9081526002602081905260409091205460ff16818111156102c6576102c6610bea565b146102ec5760405162461bcd60e51b81526004016102e390610cda565b60405180910390fd5b6001600160a01b0382166103345760405162461bcd60e51b815260206004820152600f60248201526e496e76616c6964206164647265737360881b60448201526064016102e3565b6001600160a01b0382165f9081526002602081905260409091208054839260ff1990911690600190849081111561036d5761036d610bea565b0217905550600181600281111561038657610386610bea565b146103b1576001600160a01b0382165f90815260066020526040902080546001600160801b03191690555b7f4ac36fa53f167ceb85964be512e01de2a3b8bdb9862f917da079deeeff689b3882826040516103e2929190610d11565b60405180910390a15050565b6103f6610a41565b6103ff5f610a6d565b565b5f546001600160a01b031633148061043b5750335f9081526002602081905260409091205460ff168181111561043957610439610bea565b145b6104765760405162461bcd60e51b815260206004820152600c60248201526b155b985d5d1a1bdc9a5e995960a21b60448201526064016102e3565b6001600160a01b0382165f90815260036020526040812080548392906104a69084906001600160801b0316610d42565b92506101000a8154816001600160801b0302191690836001600160801b031602179055505050565b6001600160801b0381165f9081526005602052604090205481906001600160a01b031633146105365760405162461bcd60e51b81526020600482015260146024820152732737ba103932b9ba30bab930b73a1037bbb732b960611b60448201526064016102e3565b6001600160a01b03831661057e5760405162461bcd60e51b815260206004820152600f60248201526e496e76616c6964206164647265737360881b60448201526064016102e3565b6001600160801b0382165f908152600560205260409020546001600160a01b03166105eb5760405162461bcd60e51b815260206004820152601960248201527f52657374617572616e7420646f6573206e6f742065786973740000000000000060448201526064016102e3565b6001600160a01b0383165f818152600260209081526040808320805460ff19166001179055600682529182902080546001600160801b0387166001600160801b031990911681179091558251938452908301527f69a85d8f30649b59eeb2b4393ea9eb9c9ed001f6974226d94a7fa2dfd562f15b910160405180910390a1505050565b335f9081526002602081905260409091205460ff168181111561069357610693610bea565b146106b05760405162461bcd60e51b81526004016102e390610cda565b5f60035f6106c55f546001600160a01b031690565b6001600160a01b0316815260208101919091526040015f20546001600160801b031690508061072b5760405162461bcd60e51b81526020600482015260126024820152714e6f2066756e647320617661696c61626c6560701b60448201526064016102e3565b5f60035f6107405f546001600160a01b031690565b6001600160a01b0316815260208101919091526040015f2080546001600160801b039283166001600160801b031990911617905561079a90821661078b5f546001600160a01b031690565b6001600160a01b031690610abc565b7f15ed0a7026c7f7b2319e041da1e43e0b566e892499962bc6b464292ef9d387576107cc5f546001600160a01b031690565b604080516001600160a01b0390921682526001600160801b0384166020830152015b60405180910390a150565b6004602052815f5260405f208181548110610812575f80fd5b905f5260205f209060029182820401919006601002915091509054906101000a90046001600160801b031681565b610848610a41565b6001600160a01b03811661087157604051631e4fbdf760e01b81525f60048201526024016102e3565b61087a81610a6d565b50565b335f9081526002602081905260409091205460ff16818111156108a2576108a2610bea565b146108bf5760405162461bcd60e51b81526004016102e390610cda565b601460ff8216111561090a5760405162461bcd60e51b81526020600482015260146024820152730a6cae4ecd2c6ca40cccaca40e8dede40d0d2ced60631b60448201526064016102e3565b6001805460ff60801b1916600160801b60ff8416908102919091179091556040519081527fc2e7293b347ac956898a90e36061ef247c8d3516f25e87a91009be115ce27ac4906020016107ee565b600180546001600160801b039081165f8181526005602090815260408083208054336001600160a01b03199091168117909155808452600483528184208054808901825590855283852060028204018054919098166010026101000a9687021916958502959095179095558451838152908101939093529290917fbafbc0bfd4afd8a222b8cd09b01ce310b06b0beb42503ea91a76135e6a532e92910160405180910390a1600180546001600160801b0316905f610a1583610d61565b91906101000a8154816001600160801b0302191690836001600160801b03160217905550508091505090565b5f546001600160a01b031633146103ff5760405163118cdaa760e01b81523360048201526024016102e3565b5f80546001600160a01b038381166001600160a01b0319831681178455604051919092169283917f8be0079c531659141344cd1fd0a4f28419497f9722a3daafe3b4186f6b6457e09190a35050565b80471015610ae65760405163cf47918160e01b8152476004820152602481018290526044016102e3565b5f5f836001600160a01b0316836040515f6040518083038185875af1925050503d805f8114610b30576040519150601f19603f3d011682016040523d82523d5f602084013e610b35565b606091505b509150915081610b4857610b4881610b4e565b50505050565b805115610b5e5780518082602001fd5b60405163d6bda27560e01b815260040160405180910390fd5b80356001600160a01b0381168114610b8d575f5ffd5b919050565b5f5f60408385031215610ba3575f5ffd5b610bac83610b77565b9150602083013560038110610bbf575f5ffd5b809150509250929050565b5f60208284031215610bda575f5ffd5b610be382610b77565b9392505050565b634e487b7160e01b5f52602160045260245ffd5b60038110610c1a57634e487b7160e01b5f52602160045260245ffd5b9052565b60208101610c2c8284610bfe565b92915050565b80356001600160801b0381168114610b8d575f5ffd5b5f5f60408385031215610c59575f5ffd5b610c6283610b77565b9150610c7060208401610c32565b90509250929050565b5f60208284031215610c89575f5ffd5b610be382610c32565b5f5f60408385031215610ca3575f5ffd5b610cac83610b77565b946020939093013593505050565b5f60208284031215610cca575f5ffd5b813560ff81168114610be3575f5ffd5b60208082526018908201527f556e617574686f72697a65643a2041646d696e206f6e6c790000000000000000604082015260600190565b6001600160a01b038316815260408101610be36020830184610bfe565b634e487b7160e01b5f52601160045260245ffd5b6001600160801b038181168382160190811115610c2c57610c2c610d2e565b5f6001600160801b0382166001600160801b038103610d8257610d82610d2e565b6001019291505056fea264697066735822122013a7fda9534c1974a615d7b81ade2632c397a89d9409dc994e977aceec8e4a1c64736f6c634300081e0033",
					"opcodes": "PUSH1 0x80 PUSH1 0x40 MSTORE PUSH1 0x1 DUP1 SLOAD PUSH1 0x1 PUSH1 0x1 PUSH1 0x88 SHL SUB NOT AND PUSH17 0x500000000000000000000000000000001 OR SWAP1 SSTORE CALLVALUE DUP1 ISZERO PUSH1 0x31 JUMPI PUSH0 PUSH0 REVERT JUMPDEST POP CALLER DUP1 PUSH1 0x56 JUMPI PUSH1 0x40 MLOAD PUSH4 0x1E4FBDF7 PUSH1 0xE0 SHL DUP2 MSTORE PUSH0 PUSH1 0x4 DUP3 ADD MSTORE PUSH1 0x24 ADD PUSH1 0x40 MLOAD DUP1 SWAP2 SUB SWAP1 REVERT JUMPDEST PUSH1 0x5D DUP2 PUSH1 0x7E JUMP JUMPDEST POP CALLER PUSH0 SWAP1 DUP2 MSTORE PUSH1 0x2 PUSH1 0x20 DUP2 SWAP1 MSTORE PUSH1 0x40 SWAP1 SWAP2 KECCAK256 DUP1 SLOAD PUSH1 0xFF NOT AND SWAP1 SWAP2 OR SWAP1 SSTORE PUSH1 0xCD JUMP JUMPDEST PUSH0 DUP1 SLOAD PUSH1 0x1 PUSH1 0x1 PUSH1 0xA0 SHL SUB DUP4 DUP2 AND PUSH1 0x1 PUSH1 0x1 PUSH1 0xA0 SHL SUB NOT DUP4 AND DUP2 OR DUP5 SSTORE PUSH1 0x40 MLOAD SWAP2 SWAP1 SWAP3 AND SWAP3 DUP4 SWAP2 PUSH32 0x8BE0079C531659141344CD1FD0A4F28419497F9722A3DAAFE3B4186F6B6457E0 SWAP2 SWAP1 LOG3 POP POP JUMP JUMPDEST PUSH2 0xDC1 DUP1 PUSH2 0xDA PUSH0 CODECOPY PUSH0 RETURN INVALID PUSH1 0x80 PUSH1 0x40 MSTORE CALLVALUE DUP1 ISZERO PUSH2 0xF JUMPI PUSH0 PUSH0 REVERT JUMPDEST POP PUSH1 0x4 CALLDATASIZE LT PUSH2 0xFB JUMPI PUSH0 CALLDATALOAD PUSH1 0xE0 SHR DUP1 PUSH4 0xAE9A4655 GT PUSH2 0x93 JUMPI DUP1 PUSH4 0xF2FDE38B GT PUSH2 0x63 JUMPI DUP1 PUSH4 0xF2FDE38B EQ PUSH2 0x24B JUMPI DUP1 PUSH4 0xF3F43703 EQ PUSH2 0x25E JUMPI DUP1 PUSH4 0xF7937282 EQ PUSH2 0x286 JUMPI DUP1 PUSH4 0xFA20FCA7 EQ PUSH2 0x299 JUMPI PUSH0 PUSH0 REVERT JUMPDEST DUP1 PUSH4 0xAE9A4655 EQ PUSH2 0x1DD JUMPI DUP1 PUSH4 0xD72E481D EQ PUSH2 0x1F0 JUMPI DUP1 PUSH4 0xD76D571A EQ PUSH2 0x1F8 JUMPI DUP1 PUSH4 0xE28D7A18 EQ PUSH2 0x223 JUMPI PUSH0 PUSH0 REVERT JUMPDEST DUP1 PUSH4 0x8DA5CB5B GT PUSH2 0xCE JUMPI DUP1 PUSH4 0x8DA5CB5B EQ PUSH2 0x14F JUMPI DUP1 PUSH4 0x99374642 EQ PUSH2 0x173 JUMPI DUP1 PUSH4 0xA0E31EC4 EQ PUSH2 0x1A2 JUMPI DUP1 PUSH4 0xABCA88F0 EQ PUSH2 0x1B5 JUMPI PUSH0 PUSH0 REVERT JUMPDEST DUP1 PUSH4 0x14D90E1B EQ PUSH2 0xFF JUMPI DUP1 PUSH4 0x603EF649 EQ PUSH2 0x11E JUMPI DUP1 PUSH4 0x630A195B EQ PUSH2 0x132 JUMPI DUP1 PUSH4 0x715018A6 EQ PUSH2 0x147 JUMPI JUMPDEST PUSH0 PUSH0 REVERT JUMPDEST PUSH2 0x107 PUSH1 0x14 DUP2 JUMP JUMPDEST PUSH1 0x40 MLOAD PUSH1 0xFF SWAP1 SWAP2 AND DUP2 MSTORE PUSH1 0x20 ADD JUMPDEST PUSH1 0x40 MLOAD DUP1 SWAP2 SUB SWAP1 RETURN JUMPDEST PUSH1 0x1 SLOAD PUSH2 0x107 SWAP1 PUSH1 0x1 PUSH1 0x80 SHL SWAP1 DIV PUSH1 0xFF AND DUP2 JUMP JUMPDEST PUSH2 0x145 PUSH2 0x140 CALLDATASIZE PUSH1 0x4 PUSH2 0xB92 JUMP JUMPDEST PUSH2 0x2A1 JUMP JUMPDEST STOP JUMPDEST PUSH2 0x145 PUSH2 0x3EE JUMP JUMPDEST PUSH0 SLOAD PUSH1 0x1 PUSH1 0x1 PUSH1 0xA0 SHL SUB AND JUMPDEST PUSH1 0x40 MLOAD PUSH1 0x1 PUSH1 0x1 PUSH1 0xA0 SHL SUB SWAP1 SWAP2 AND DUP2 MSTORE PUSH1 0x20 ADD PUSH2 0x115 JUMP JUMPDEST PUSH2 0x195 PUSH2 0x181 CALLDATASIZE PUSH1 0x4 PUSH2 0xBCA JUMP JUMPDEST PUSH1 0x2 PUSH1 0x20 MSTORE PUSH0 SWAP1 DUP2 MSTORE PUSH1 0x40 SWAP1 KECCAK256 SLOAD PUSH1 0xFF AND DUP2 JUMP JUMPDEST PUSH1 0x40 MLOAD PUSH2 0x115 SWAP2 SWAP1 PUSH2 0xC1E JUMP JUMPDEST PUSH2 0x145 PUSH2 0x1B0 CALLDATASIZE PUSH1 0x4 PUSH2 0xC48 JUMP JUMPDEST PUSH2 0x401 JUMP JUMPDEST PUSH2 0x15B PUSH2 0x1C3 CALLDATASIZE PUSH1 0x4 PUSH2 0xC79 JUMP JUMPDEST PUSH1 0x5 PUSH1 0x20 MSTORE PUSH0 SWAP1 DUP2 MSTORE PUSH1 0x40 SWAP1 KECCAK256 SLOAD PUSH1 0x1 PUSH1 0x1 PUSH1 0xA0 SHL SUB AND DUP2 JUMP JUMPDEST PUSH2 0x145 PUSH2 0x1EB CALLDATASIZE PUSH1 0x4 PUSH2 0xC48 JUMP JUMPDEST PUSH2 0x4CE JUMP JUMPDEST PUSH2 0x145 PUSH2 0x66E JUMP JUMPDEST PUSH2 0x20B PUSH2 0x206 CALLDATASIZE PUSH1 0x4 PUSH2 0xC92 JUMP JUMPDEST PUSH2 0x7F9 JUMP JUMPDEST PUSH1 0x40 MLOAD PUSH1 0x1 PUSH1 0x1 PUSH1 0x80 SHL SUB SWAP1 SWAP2 AND DUP2 MSTORE PUSH1 0x20 ADD PUSH2 0x115 JUMP JUMPDEST PUSH2 0x20B PUSH2 0x231 CALLDATASIZE PUSH1 0x4 PUSH2 0xBCA JUMP JUMPDEST PUSH1 0x6 PUSH1 0x20 MSTORE PUSH0 SWAP1 DUP2 MSTORE PUSH1 0x40 SWAP1 KECCAK256 SLOAD PUSH1 0x1 PUSH1 0x1 PUSH1 0x80 SHL SUB AND DUP2 JUMP JUMPDEST PUSH2 0x145 PUSH2 0x259 CALLDATASIZE PUSH1 0x4 PUSH2 0xBCA JUMP JUMPDEST PUSH2 0x840 JUMP JUMPDEST PUSH2 0x20B PUSH2 0x26C CALLDATASIZE PUSH1 0x4 PUSH2 0xBCA JUMP JUMPDEST PUSH1 0x3 PUSH1 0x20 MSTORE PUSH0 SWAP1 DUP2 MSTORE PUSH1 0x40 SWAP1 KECCAK256 SLOAD PUSH1 0x1 PUSH1 0x1 PUSH1 0x80 SHL SUB AND DUP2 JUMP JUMPDEST PUSH2 0x145 PUSH2 0x294 CALLDATASIZE PUSH1 0x4 PUSH2 0xCBA JUMP JUMPDEST PUSH2 0x87D JUMP JUMPDEST PUSH2 0x20B PUSH2 0x958 JUMP JUMPDEST CALLER PUSH0 SWAP1 DUP2 MSTORE PUSH1 0x2 PUSH1 0x20 DUP2 SWAP1 MSTORE PUSH1 0x40 SWAP1 SWAP2 KECCAK256 SLOAD PUSH1 0xFF AND DUP2 DUP2 GT ISZERO PUSH2 0x2C6 JUMPI PUSH2 0x2C6 PUSH2 0xBEA JUMP JUMPDEST EQ PUSH2 0x2EC JUMPI PUSH1 0x40 MLOAD PUSH3 0x461BCD PUSH1 0xE5 SHL DUP2 MSTORE PUSH1 0x4 ADD PUSH2 0x2E3 SWAP1 PUSH2 0xCDA JUMP JUMPDEST PUSH1 0x40 MLOAD DUP1 SWAP2 SUB SWAP1 REVERT JUMPDEST PUSH1 0x1 PUSH1 0x1 PUSH1 0xA0 SHL SUB DUP3 AND PUSH2 0x334 JUMPI PUSH1 0x40 MLOAD PUSH3 0x461BCD PUSH1 0xE5 SHL DUP2 MSTORE PUSH1 0x20 PUSH1 0x4 DUP3 ADD MSTORE PUSH1 0xF PUSH1 0x24 DUP3 ADD MSTORE PUSH15 0x496E76616C69642061646472657373 PUSH1 0x88 SHL PUSH1 0x44 DUP3 ADD MSTORE PUSH1 0x64 ADD PUSH2 0x2E3 JUMP JUMPDEST PUSH1 0x1 PUSH1 0x1 PUSH1 0xA0 SHL SUB DUP3 AND PUSH0 SWAP1 DUP2 MSTORE PUSH1 0x2 PUSH1 0x20 DUP2 SWAP1 MSTORE PUSH1 0x40 SWAP1 SWAP2 KECCAK256 DUP1 SLOAD DUP4 SWAP3 PUSH1 0xFF NOT SWAP1 SWAP2 AND SWAP1 PUSH1 0x1 SWAP1 DUP5 SWAP1 DUP2 GT ISZERO PUSH2 0x36D JUMPI PUSH2 0x36D PUSH2 0xBEA JUMP JUMPDEST MUL OR SWAP1 SSTORE POP PUSH1 0x1 DUP2 PUSH1 0x2 DUP2 GT ISZERO PUSH2 0x386 JUMPI PUSH2 0x386 PUSH2 0xBEA JUMP JUMPDEST EQ PUSH2 0x3B1 JUMPI PUSH1 0x1 PUSH1 0x1 PUSH1 0xA0 SHL SUB DUP3 AND PUSH0 SWAP1 DUP2 MSTORE PUSH1 0x6 PUSH1 0x20 MSTORE PUSH1 0x40 SWAP1 KECCAK256 DUP1 SLOAD PUSH1 0x1 PUSH1 0x1 PUSH1 0x80 SHL SUB NOT AND SWAP1 SSTORE JUMPDEST PUSH32 0x4AC36FA53F167CEB85964BE512E01DE2A3B8BDB9862F917DA079DEEEFF689B38 DUP3 DUP3 PUSH1 0x40 MLOAD PUSH2 0x3E2 SWAP3 SWAP2 SWAP1 PUSH2 0xD11 JUMP JUMPDEST PUSH1 0x40 MLOAD DUP1 SWAP2 SUB SWAP1 LOG1 POP POP JUMP JUMPDEST PUSH2 0x3F6 PUSH2 0xA41 JUMP JUMPDEST PUSH2 0x3FF PUSH0 PUSH2 0xA6D JUMP JUMPDEST JUMP JUMPDEST PUSH0 SLOAD PUSH1 0x1 PUSH1 0x1 PUSH1 0xA0 SHL SUB AND CALLER EQ DUP1 PUSH2 0x43B JUMPI POP CALLER PUSH0 SWAP1 DUP2 MSTORE PUSH1 0x2 PUSH1 0x20 DUP2 SWAP1 MSTORE PUSH1 0x40 SWAP1 SWAP2 KECCAK256 SLOAD PUSH1 0xFF AND DUP2 DUP2 GT ISZERO PUSH2 0x439 JUMPI PUSH2 0x439 PUSH2 0xBEA JUMP JUMPDEST EQ JUMPDEST PUSH2 0x476 JUMPI PUSH1 0x40 MLOAD PUSH3 0x461BCD PUSH1 0xE5 SHL DUP2 MSTORE PUSH1 0x20 PUSH1 0x4 DUP3 ADD MSTORE PUSH1 0xC PUSH1 0x24 DUP3 ADD MSTORE PUSH12 0x155B985D5D1A1BDC9A5E9959 PUSH1 0xA2 SHL PUSH1 0x44 DUP3 ADD MSTORE PUSH1 0x64 ADD PUSH2 0x2E3 JUMP JUMPDEST PUSH1 0x1 PUSH1 0x1 PUSH1 0xA0 SHL SUB DUP3 AND PUSH0 SWAP1 DUP2 MSTORE PUSH1 0x3 PUSH1 0x20 MSTORE PUSH1 0x40 DUP2 KECCAK256 DUP1 SLOAD DUP4 SWAP3 SWAP1 PUSH2 0x4A6 SWAP1 DUP5 SWAP1 PUSH1 0x1 PUSH1 0x1 PUSH1 0x80 SHL SUB AND PUSH2 0xD42 JUMP JUMPDEST SWAP3 POP PUSH2 0x100 EXP DUP2 SLOAD DUP2 PUSH1 0x1 PUSH1 0x1 PUSH1 0x80 SHL SUB MUL NOT AND SWAP1 DUP4 PUSH1 0x1 PUSH1 0x1 PUSH1 0x80 SHL SUB AND MUL OR SWAP1 SSTORE POP POP POP JUMP JUMPDEST PUSH1 0x1 PUSH1 0x1 PUSH1 0x80 SHL SUB DUP2 AND PUSH0 SWAP1 DUP2 MSTORE PUSH1 0x5 PUSH1 0x20 MSTORE PUSH1 0x40 SWAP1 KECCAK256 SLOAD DUP2 SWAP1 PUSH1 0x1 PUSH1 0x1 PUSH1 0xA0 SHL SUB AND CALLER EQ PUSH2 0x536 JUMPI PUSH1 0x40 MLOAD PUSH3 0x461BCD PUSH1 0xE5 SHL DUP2 MSTORE PUSH1 0x20 PUSH1 0x4 DUP3 ADD MSTORE PUSH1 0x14 PUSH1 0x24 DUP3 ADD MSTORE PUSH20 0x2737BA103932B9BA30BAB930B73A1037BBB732B9 PUSH1 0x61 SHL PUSH1 0x44 DUP3 ADD MSTORE PUSH1 0x64 ADD PUSH2 0x2E3 JUMP JUMPDEST PUSH1 0x1 PUSH1 0x1 PUSH1 0xA0 SHL SUB DUP4 AND PUSH2 0x57E JUMPI PUSH1 0x40 MLOAD PUSH3 0x461BCD PUSH1 0xE5 SHL DUP2 MSTORE PUSH1 0x20 PUSH1 0x4 DUP3 ADD MSTORE PUSH1 0xF PUSH1 0x24 DUP3 ADD MSTORE PUSH15 0x496E76616C69642061646472657373 PUSH1 0x88 SHL PUSH1 0x44 DUP3 ADD MSTORE PUSH1 0x64 ADD PUSH2 0x2E3 JUMP JUMPDEST PUSH1 0x1 PUSH1 0x1 PUSH1 0x80 SHL SUB DUP3 AND PUSH0 SWAP1 DUP2 MSTORE PUSH1 0x5 PUSH1 0x20 MSTORE PUSH1 0x40 SWAP1 KECCAK256 SLOAD PUSH1 0x1 PUSH1 0x1 PUSH1 0xA0 SHL SUB AND PUSH2 0x5EB JUMPI PUSH1 0x40 MLOAD PUSH3 0x461BCD PUSH1 0xE5 SHL DUP2 MSTORE PUSH1 0x20 PUSH1 0x4 DUP3 ADD MSTORE PUSH1 0x19 PUSH1 0x24 DUP3 ADD MSTORE PUSH32 0x52657374617572616E7420646F6573206E6F7420657869737400000000000000 PUSH1 0x44 DUP3 ADD MSTORE PUSH1 0x64 ADD PUSH2 0x2E3 JUMP JUMPDEST PUSH1 0x1 PUSH1 0x1 PUSH1 0xA0 SHL SUB DUP4 AND PUSH0 DUP2 DUP2 MSTORE PUSH1 0x2 PUSH1 0x20 SWAP1 DUP2 MSTORE PUSH1 0x40 DUP1 DUP4 KECCAK256 DUP1 SLOAD PUSH1 0xFF NOT AND PUSH1 0x1 OR SWAP1 SSTORE PUSH1 0x6 DUP3 MSTORE SWAP2 DUP3 SWAP1 KECCAK256 DUP1 SLOAD PUSH1 0x1 PUSH1 0x1 PUSH1 0x80 SHL SUB DUP8 AND PUSH1 0x1 PUSH1 0x1 PUSH1 0x80 SHL SUB NOT SWAP1 SWAP2 AND DUP2 OR SWAP1 SWAP2 SSTORE DUP3 MLOAD SWAP4 DUP5 MSTORE SWAP1 DUP4 ADD MSTORE PUSH32 0x69A85D8F30649B59EEB2B4393EA9EB9C9ED001F6974226D94A7FA2DFD562F15B SWAP2 ADD PUSH1 0x40 MLOAD DUP1 SWAP2 SUB SWAP1 LOG1 POP POP POP JUMP JUMPDEST CALLER PUSH0 SWAP1 DUP2 MSTORE PUSH1 0x2 PUSH1 0x20 DUP2 SWAP1 MSTORE PUSH1 0x40 SWAP1 SWAP2 KECCAK256 SLOAD PUSH1 0xFF AND DUP2 DUP2 GT ISZERO PUSH2 0x693 JUMPI PUSH2 0x693 PUSH2 0xBEA JUMP JUMPDEST EQ PUSH2 0x6B0 JUMPI PUSH1 0x40 MLOAD PUSH3 0x461BCD PUSH1 0xE5 SHL DUP2 MSTORE PUSH1 0x4 ADD PUSH2 0x2E3 SWAP1 PUSH2 0xCDA JUMP JUMPDEST PUSH0 PUSH1 0x3 PUSH0 PUSH2 0x6C5 PUSH0 SLOAD PUSH1 0x1 PUSH1 0x1 PUSH1 0xA0 SHL SUB AND SWAP1 JUMP JUMPDEST PUSH1 0x1 PUSH1 0x1 PUSH1 0xA0 SHL SUB AND DUP2 MSTORE PUSH1 0x20 DUP2 ADD SWAP2 SWAP1 SWAP2 MSTORE PUSH1 0x40 ADD PUSH0 KECCAK256 SLOAD PUSH1 0x1 PUSH1 0x1 PUSH1 0x80 SHL SUB AND SWAP1 POP DUP1 PUSH2 0x72B JUMPI PUSH1 0x40 MLOAD PUSH3 0x461BCD PUSH1 0xE5 SHL DUP2 MSTORE PUSH1 0x20 PUSH1 0x4 DUP3 ADD MSTORE PUSH1 0x12 PUSH1 0x24 DUP3 ADD MSTORE PUSH18 0x4E6F2066756E647320617661696C61626C65 PUSH1 0x70 SHL PUSH1 0x44 DUP3 ADD MSTORE PUSH1 0x64 ADD PUSH2 0x2E3 JUMP JUMPDEST PUSH0 PUSH1 0x3 PUSH0 PUSH2 0x740 PUSH0 SLOAD PUSH1 0x1 PUSH1 0x1 PUSH1 0xA0 SHL SUB AND SWAP1 JUMP JUMPDEST PUSH1 0x1 PUSH1 0x1 PUSH1 0xA0 SHL SUB AND DUP2 MSTORE PUSH1 0x20 DUP2 ADD SWAP2 SWAP1 SWAP2 MSTORE PUSH1 0x40 ADD PUSH0 KECCAK256 DUP1 SLOAD PUSH1 0x1 PUSH1 0x1 PUSH1 0x80 SHL SUB SWAP3 DUP4 AND PUSH1 0x1 PUSH1 0x1 PUSH1 0x80 SHL SUB NOT SWAP1 SWAP2 AND OR SWAP1 SSTORE PUSH2 0x79A SWAP1 DUP3 AND PUSH2 0x78B PUSH0 SLOAD PUSH1 0x1 PUSH1 0x1 PUSH1 0xA0 SHL SUB AND SWAP1 JUMP JUMPDEST PUSH1 0x1 PUSH1 0x1 PUSH1 0xA0 SHL SUB AND SWAP1 PUSH2 0xABC JUMP JUMPDEST PUSH32 0x15ED0A7026C7F7B2319E041DA1E43E0B566E892499962BC6B464292EF9D38757 PUSH2 0x7CC PUSH0 SLOAD PUSH1 0x1 PUSH1 0x1 PUSH1 0xA0 SHL SUB AND SWAP1 JUMP JUMPDEST PUSH1 0x40 DUP1 MLOAD PUSH1 0x1 PUSH1 0x1 PUSH1 0xA0 SHL SUB SWAP1 SWAP3 AND DUP3 MSTORE PUSH1 0x1 PUSH1 0x1 PUSH1 0x80 SHL SUB DUP5 AND PUSH1 0x20 DUP4 ADD MSTORE ADD JUMPDEST PUSH1 0x40 MLOAD DUP1 SWAP2 SUB SWAP1 LOG1 POP JUMP JUMPDEST PUSH1 0x4 PUSH1 0x20 MSTORE DUP2 PUSH0 MSTORE PUSH1 0x40 PUSH0 KECCAK256 DUP2 DUP2 SLOAD DUP2 LT PUSH2 0x812 JUMPI PUSH0 DUP1 REVERT JUMPDEST SWAP1 PUSH0 MSTORE PUSH1 0x20 PUSH0 KECCAK256 SWAP1 PUSH1 0x2 SWAP2 DUP3 DUP3 DIV ADD SWAP2 SWAP1 MOD PUSH1 0x10 MUL SWAP2 POP SWAP2 POP SWAP1 SLOAD SWAP1 PUSH2 0x100 EXP SWAP1 DIV PUSH1 0x1 PUSH1 0x1 PUSH1 0x80 SHL SUB AND DUP2 JUMP JUMPDEST PUSH2 0x848 PUSH2 0xA41 JUMP JUMPDEST PUSH1 0x1 PUSH1 0x1 PUSH1 0xA0 SHL SUB DUP2 AND PUSH2 0x871 JUMPI PUSH1 0x40 MLOAD PUSH4 0x1E4FBDF7 PUSH1 0xE0 SHL DUP2 MSTORE PUSH0 PUSH1 0x4 DUP3 ADD MSTORE PUSH1 0x24 ADD PUSH2 0x2E3 JUMP JUMPDEST PUSH2 0x87A DUP2 PUSH2 0xA6D JUMP JUMPDEST POP JUMP JUMPDEST CALLER PUSH0 SWAP1 DUP2 MSTORE PUSH1 0x2 PUSH1 0x20 DUP2 SWAP1 MSTORE PUSH1 0x40 SWAP1 SWAP2 KECCAK256 SLOAD PUSH1 0xFF AND DUP2 DUP2 GT ISZERO PUSH2 0x8A2 JUMPI PUSH2 0x8A2 PUSH2 0xBEA JUMP JUMPDEST EQ PUSH2 0x8BF JUMPI PUSH1 0x40 MLOAD PUSH3 0x461BCD PUSH1 0xE5 SHL DUP2 MSTORE PUSH1 0x4 ADD PUSH2 0x2E3 SWAP1 PUSH2 0xCDA JUMP JUMPDEST PUSH1 0x14 PUSH1 0xFF DUP3 AND GT ISZERO PUSH2 0x90A JUMPI PUSH1 0x40 MLOAD PUSH3 0x461BCD PUSH1 0xE5 SHL DUP2 MSTORE PUSH1 0x20 PUSH1 0x4 DUP3 ADD MSTORE PUSH1 0x14 PUSH1 0x24 DUP3 ADD MSTORE PUSH20 0xA6CAE4ECD2C6CA40CCCACA40E8DEDE40D0D2CED PUSH1 0x63 SHL PUSH1 0x44 DUP3 ADD MSTORE PUSH1 0x64 ADD PUSH2 0x2E3 JUMP JUMPDEST PUSH1 0x1 DUP1 SLOAD PUSH1 0xFF PUSH1 0x80 SHL NOT AND PUSH1 0x1 PUSH1 0x80 SHL PUSH1 0xFF DUP5 AND SWAP1 DUP2 MUL SWAP2 SWAP1 SWAP2 OR SWAP1 SWAP2 SSTORE PUSH1 0x40 MLOAD SWAP1 DUP2 MSTORE PUSH32 0xC2E7293B347AC956898A90E36061EF247C8D3516F25E87A91009BE115CE27AC4 SWAP1 PUSH1 0x20 ADD PUSH2 0x7EE JUMP JUMPDEST PUSH1 0x1 DUP1 SLOAD PUSH1 0x1 PUSH1 0x1 PUSH1 0x80 SHL SUB SWAP1 DUP2 AND PUSH0 DUP2 DUP2 MSTORE PUSH1 0x5 PUSH1 0x20 SWAP1 DUP2 MSTORE PUSH1 0x40 DUP1 DUP4 KECCAK256 DUP1 SLOAD CALLER PUSH1 0x1 PUSH1 0x1 PUSH1 0xA0 SHL SUB NOT SWAP1 SWAP2 AND DUP2 OR SWAP1 SWAP2 SSTORE DUP1 DUP5 MSTORE PUSH1 0x4 DUP4 MSTORE DUP2 DUP5 KECCAK256 DUP1 SLOAD DUP1 DUP10 ADD DUP3 SSTORE SWAP1 DUP6 MSTORE DUP4 DUP6 KECCAK256 PUSH1 0x2 DUP3 DIV ADD DUP1 SLOAD SWAP2 SWAP1 SWAP9 AND PUSH1 0x10 MUL PUSH2 0x100 EXP SWAP7 DUP8 MUL NOT AND SWAP6 DUP6 MUL SWAP6 SWAP1 SWAP6 OR SWAP1 SWAP6 SSTORE DUP5 MLOAD DUP4 DUP2 MSTORE SWAP1 DUP2 ADD SWAP4 SWAP1 SWAP4 MSTORE SWAP3 SWAP1 SWAP2 PUSH32 0xBAFBC0BFD4AFD8A222B8CD09B01CE310B06B0BEB42503EA91A76135E6A532E92 SWAP2 ADD PUSH1 0x40 MLOAD DUP1 SWAP2 SUB SWAP1 LOG1 PUSH1 0x1 DUP1 SLOAD PUSH1 0x1 PUSH1 0x1 PUSH1 0x80 SHL SUB AND SWAP1 PUSH0 PUSH2 0xA15 DUP4 PUSH2 0xD61 JUMP JUMPDEST SWAP2 SWAP1 PUSH2 0x100 EXP DUP2 SLOAD DUP2 PUSH1 0x1 PUSH1 0x1 PUSH1 0x80 SHL SUB MUL NOT AND SWAP1 DUP4 PUSH1 0x1 PUSH1 0x1 PUSH1 0x80 SHL SUB AND MUL OR SWAP1 SSTORE POP POP DUP1 SWAP2 POP POP SWAP1 JUMP JUMPDEST PUSH0 SLOAD PUSH1 0x1 PUSH1 0x1 PUSH1 0xA0 SHL SUB AND CALLER EQ PUSH2 0x3FF JUMPI PUSH1 0x40 MLOAD PUSH4 0x118CDAA7 PUSH1 0xE0 SHL DUP2 MSTORE CALLER PUSH1 0x4 DUP3 ADD MSTORE PUSH1 0x24 ADD PUSH2 0x2E3 JUMP JUMPDEST PUSH0 DUP1 SLOAD PUSH1 0x1 PUSH1 0x1 PUSH1 0xA0 SHL SUB DUP4 DUP2 AND PUSH1 0x1 PUSH1 0x1 PUSH1 0xA0 SHL SUB NOT DUP4 AND DUP2 OR DUP5 SSTORE PUSH1 0x40 MLOAD SWAP2 SWAP1 SWAP3 AND SWAP3 DUP4 SWAP2 PUSH32 0x8BE0079C531659141344CD1FD0A4F28419497F9722A3DAAFE3B4186F6B6457E0 SWAP2 SWAP1 LOG3 POP POP JUMP JUMPDEST DUP1 SELFBALANCE LT ISZERO PUSH2 0xAE6 JUMPI PUSH1 0x40 MLOAD PUSH4 0xCF479181 PUSH1 0xE0 SHL DUP2 MSTORE SELFBALANCE PUSH1 0x4 DUP3 ADD MSTORE PUSH1 0x24 DUP2 ADD DUP3 SWAP1 MSTORE PUSH1 0x44 ADD PUSH2 0x2E3 JUMP JUMPDEST PUSH0 PUSH0 DUP4 PUSH1 0x1 PUSH1 0x1 PUSH1 0xA0 SHL SUB AND DUP4 PUSH1 0x40 MLOAD PUSH0 PUSH1 0x40 MLOAD DUP1 DUP4 SUB DUP2 DUP6 DUP8 GAS CALL SWAP3 POP POP POP RETURNDATASIZE DUP1 PUSH0 DUP2 EQ PUSH2 0xB30 JUMPI PUSH1 0x40 MLOAD SWAP2 POP PUSH1 0x1F NOT PUSH1 0x3F RETURNDATASIZE ADD AND DUP3 ADD PUSH1 0x40 MSTORE RETURNDATASIZE DUP3 MSTORE RETURNDATASIZE PUSH0 PUSH1 0x20 DUP5 ADD RETURNDATACOPY PUSH2 0xB35 JUMP JUMPDEST PUSH1 0x60 SWAP2 POP JUMPDEST POP SWAP2 POP SWAP2 POP DUP2 PUSH2 0xB48 JUMPI PUSH2 0xB48 DUP2 PUSH2 0xB4E JUMP JUMPDEST POP POP POP POP JUMP JUMPDEST DUP1 MLOAD ISZERO PUSH2 0xB5E JUMPI DUP1 MLOAD DUP1 DUP3 PUSH1 0x20 ADD REVERT JUMPDEST PUSH1 0x40 MLOAD PUSH4 0xD6BDA275 PUSH1 0xE0 SHL DUP2 MSTORE PUSH1 0x4 ADD PUSH1 0x40 MLOAD DUP1 SWAP2 SUB SWAP1 REVERT JUMPDEST DUP1 CALLDATALOAD PUSH1 0x1 PUSH1 0x1 PUSH1 0xA0 SHL SUB DUP2 AND DUP2 EQ PUSH2 0xB8D JUMPI PUSH0 PUSH0 REVERT JUMPDEST SWAP2 SWAP1 POP JUMP JUMPDEST PUSH0 PUSH0 PUSH1 0x40 DUP4 DUP6 SUB SLT ISZERO PUSH2 0xBA3 JUMPI PUSH0 PUSH0 REVERT JUMPDEST PUSH2 0xBAC DUP4 PUSH2 0xB77 JUMP JUMPDEST SWAP2 POP PUSH1 0x20 DUP4 ADD CALLDATALOAD PUSH1 0x3 DUP2 LT PUSH2 0xBBF JUMPI PUSH0 PUSH0 REVERT JUMPDEST DUP1 SWAP2 POP POP SWAP3 POP SWAP3 SWAP1 POP JUMP JUMPDEST PUSH0 PUSH1 0x20 DUP3 DUP5 SUB SLT ISZERO PUSH2 0xBDA JUMPI PUSH0 PUSH0 REVERT JUMPDEST PUSH2 0xBE3 DUP3 PUSH2 0xB77 JUMP JUMPDEST SWAP4 SWAP3 POP POP POP JUMP JUMPDEST PUSH4 0x4E487B71 PUSH1 0xE0 SHL PUSH0 MSTORE PUSH1 0x21 PUSH1 0x4 MSTORE PUSH1 0x24 PUSH0 REVERT JUMPDEST PUSH1 0x3 DUP2 LT PUSH2 0xC1A JUMPI PUSH4 0x4E487B71 PUSH1 0xE0 SHL PUSH0 MSTORE PUSH1 0x21 PUSH1 0x4 MSTORE PUSH1 0x24 PUSH0 REVERT JUMPDEST SWAP1 MSTORE JUMP JUMPDEST PUSH1 0x20 DUP2 ADD PUSH2 0xC2C DUP3 DUP5 PUSH2 0xBFE JUMP JUMPDEST SWAP3 SWAP2 POP POP JUMP JUMPDEST DUP1 CALLDATALOAD PUSH1 0x1 PUSH1 0x1 PUSH1 0x80 SHL SUB DUP2 AND DUP2 EQ PUSH2 0xB8D JUMPI PUSH0 PUSH0 REVERT JUMPDEST PUSH0 PUSH0 PUSH1 0x40 DUP4 DUP6 SUB SLT ISZERO PUSH2 0xC59 JUMPI PUSH0 PUSH0 REVERT JUMPDEST PUSH2 0xC62 DUP4 PUSH2 0xB77 JUMP JUMPDEST SWAP2 POP PUSH2 0xC70 PUSH1 0x20 DUP5 ADD PUSH2 0xC32 JUMP JUMPDEST SWAP1 POP SWAP3 POP SWAP3 SWAP1 POP JUMP JUMPDEST PUSH0 PUSH1 0x20 DUP3 DUP5 SUB SLT ISZERO PUSH2 0xC89 JUMPI PUSH0 PUSH0 REVERT JUMPDEST PUSH2 0xBE3 DUP3 PUSH2 0xC32 JUMP JUMPDEST PUSH0 PUSH0 PUSH1 0x40 DUP4 DUP6 SUB SLT ISZERO PUSH2 0xCA3 JUMPI PUSH0 PUSH0 REVERT JUMPDEST PUSH2 0xCAC DUP4 PUSH2 0xB77 JUMP JUMPDEST SWAP5 PUSH1 0x20 SWAP4 SWAP1 SWAP4 ADD CALLDATALOAD SWAP4 POP POP POP JUMP JUMPDEST PUSH0 PUSH1 0x20 DUP3 DUP5 SUB SLT ISZERO PUSH2 0xCCA JUMPI PUSH0 PUSH0 REVERT JUMPDEST DUP2 CALLDATALOAD PUSH1 0xFF DUP2 AND DUP2 EQ PUSH2 0xBE3 JUMPI PUSH0 PUSH0 REVERT JUMPDEST PUSH1 0x20 DUP1 DUP3 MSTORE PUSH1 0x18 SWAP1 DUP3 ADD MSTORE PUSH32 0x556E617574686F72697A65643A2041646D696E206F6E6C790000000000000000 PUSH1 0x40 DUP3 ADD MSTORE PUSH1 0x60 ADD SWAP1 JUMP JUMPDEST PUSH1 0x1 PUSH1 0x1 PUSH1 0xA0 SHL SUB DUP4 AND DUP2 MSTORE PUSH1 0x40 DUP2 ADD PUSH2 0xBE3 PUSH1 0x20 DUP4 ADD DUP5 PUSH2 0xBFE JUMP JUMPDEST PUSH4 0x4E487B71 PUSH1 0xE0 SHL PUSH0 MSTORE PUSH1 0x11 PUSH1 0x4 MSTORE PUSH1 0x24 PUSH0 REVERT JUMPDEST PUSH1 0x1 PUSH1 0x1 PUSH1 0x80 SHL SUB DUP2 DUP2 AND DUP4 DUP3 AND ADD SWAP1 DUP2 GT ISZERO PUSH2 0xC2C JUMPI PUSH2 0xC2C PUSH2 0xD2E JUMP JUMPDEST PUSH0 PUSH1 0x1 PUSH1 0x1 PUSH1 0x80 SHL SUB DUP3 AND PUSH1 0x1 PUSH1 0x1 PUSH1 0x80 SHL SUB DUP2 SUB PUSH2 0xD82 JUMPI PUSH2 0xD82 PUSH2 0xD2E JUMP JUMPDEST PUSH1 0x1 ADD SWAP3 SWAP2 POP POP JUMP INVALID LOG2 PUSH5 0x6970667358 0x22 SLT KECCAK256 SGT 0xA7 REVERT 0xA9 MSTORE8 0x4C NOT PUSH21 0xA615D7B81ADE2632C397A89D9409DC994E977ACEEC DUP15 BLOBBASEFEE SHR PUSH5 0x736F6C6343 STOP ADDMOD 0x1E STOP CALLER "
				},
				"gasEstimates": {
					"creation": {
						"codeDepositCost": "704200",
						"executionCost": "75140",
						"totalCost": "779340"
					},
					"external": {
						"MAX_SERVICE_FEE()": "216",
						"addPendingWithdrawal(address,uint128)": "infinite",
						"assignRole(address,uint8)": "52876",
						"assignStaff(address,uint128)": "infinite",
						"owner()": "2341",
						"ownerRestaurants(address,uint256)": "6504",
						"pendingWithdrawals(address)": "2599",
						"registerRestaurant()": "104858",
						"renounceOwnership()": "infinite",
						"restaurantOwners(uint128)": "2644",
						"roles(address)": "2648",
						"serviceFeePercentage()": "2364",
						"setServiceFeePercentage(uint8)": "27918",
						"staffRestaurant(address)": "2644",
						"transferOwnership(address)": "28351",
						"withdrawServiceFees()": "infinite"
					}
				},
				"methodIdentifiers": {
					"MAX_SERVICE_FEE()": "14d90e1b",
					"addPendingWithdrawal(address,uint128)": "a0e31ec4",
					"assignRole(address,uint8)": "630a195b",
					"assignStaff(address,uint128)": "ae9a4655",
					"owner()": "8da5cb5b",
					"ownerRestaurants(address,uint256)": "d76d571a",
					"pendingWithdrawals(address)": "f3f43703",
					"registerRestaurant()": "fa20fca7",
					"renounceOwnership()": "715018a6",
					"restaurantOwners(uint128)": "abca88f0",
					"roles(address)": "99374642",
					"serviceFeePercentage()": "603ef649",
					"setServiceFeePercentage(uint8)": "f7937282",
					"staffRestaurant(address)": "e28d7a18",
					"transferOwnership(address)": "f2fde38b",
					"withdrawServiceFees()": "d72e481d"
				}
			},
			"storageLayout": {
				"storage": [
					{
						"astId": 8,
						"contract": "contracts/RestaurantManager.sol:RestaurantManager",
						"label": "_owner",
						"offset": 0,
						"slot": "0",
						"type": "t_address"
					},
					{
						"astId": 475,
						"contract": "contracts/RestaurantManager.sol:RestaurantManager",
						"label": "nextRestaurantId",
						"offset": 0,
						"slot": "1",
						"type": "t_uint128"
					},
					{
						"astId": 478,
						"contract": "contracts/RestaurantManager.sol:RestaurantManager",
						"label": "serviceFeePercentage",
						"offset": 16,
						"slot": "1",
						"type": "t_uint8"
					},
					{
						"astId": 486,
						"contract": "contracts/RestaurantManager.sol:RestaurantManager",
						"label": "roles",
						"offset": 0,
						"slot": "2",
						"type": "t_mapping(t_address,t_enum(Role)472)"
					},
					{
						"astId": 490,
						"contract": "contracts/RestaurantManager.sol:RestaurantManager",
						"label": "pendingWithdrawals",
						"offset": 0,
						"slot": "3",
						"type": "t_mapping(t_address,t_uint128)"
					},
					{
						"astId": 495,
						"contract": "contracts/RestaurantManager.sol:RestaurantManager",
						"label": "ownerRestaurants",
						"offset": 0,
						"slot": "4",
						"type": "t_mapping(t_address,t_array(t_uint128)dyn_storage)"
					},
					{
						"astId": 499,
						"contract": "contracts/RestaurantManager.sol:RestaurantManager",
						"label": "restaurantOwners",
						"offset": 0,
						"slot": "5",
						"type": "t_mapping(t_uint128,t_address)"
					},
					{
						"astId": 503,
						"contract": "contracts/RestaurantManager.sol:RestaurantManager",
						"label": "staffRestaurant",
						"offset": 0,
						"slot": "6",
						"type": "t_mapping(t_address,t_uint128)"
					}
				],
				"types": {
					"t_address": {
						"encoding": "inplace",
						"label": "address",
						"numberOfBytes": "20"
					},
					"t_array(t_uint128)dyn_storage": {
						"base": "t_uint128",
						"encoding": "dynamic_array",
						"label": "uint128[]",
						"numberOfBytes": "32"
					},
					"t_enum(Role)472": {
						"encoding": "inplace",
						"label": "enum RestaurantManager.Role",
						"numberOfBytes": "1"
					},
					"t_mapping(t_address,t_array(t_uint128)dyn_storage)": {
						"encoding": "mapping",
						"key": "t_address",
						"label": "mapping(address => uint128[])",
						"numberOfBytes": "32",
						"value": "t_array(t_uint128)dyn_storage"
					},
					"t_mapping(t_address,t_enum(Role)472)": {
						"encoding": "mapping",
						"key": "t_address",
						"label": "mapping(address => enum RestaurantManager.Role)",
						"numberOfBytes": "32",
						"value": "t_enum(Role)472"
					},
					"t_mapping(t_address,t_uint128)": {
						"encoding": "mapping",
						"key": "t_address",
						"label": "mapping(address => uint128)",
						"numberOfBytes": "32",
						"value": "t_uint128"
					},
					"t_mapping(t_uint128,t_address)": {
						"encoding": "mapping",
						"key": "t_uint128",
						"label": "mapping(uint128 => address)",
						"numberOfBytes": "32",
						"value": "t_address"
					},
					"t_uint128": {
						"encoding": "inplace",
						"label": "uint128",
						"numberOfBytes": "16"
					},
					"t_uint8": {
						"encoding": "inplace",
						"label": "uint8",
						"numberOfBytes": "1"
					}
				}
			},
			"userdoc": {
				"kind": "user",
				"methods": {},
				"version": 1
			}
		}
	}
}