{
	"contracts/MenuManager.sol": {
		"MenuManager": {
			"abi": [
				{
					"inputs": [],
					"name": "InvalidInitialization",
					"type": "error"
				},
				{
					"inputs": [],
					"name": "NotInitializing",
					"type": "error"
				},
				{
					"inputs": [
						{
							"internalType": "address",
							"name": "owner",
							"type": "address"
						}
					],
					"name": "OwnableInvalidOwner",
					"type": "error"
				},
				{
					"inputs": [
						{
							"internalType": "address",
							"name": "account",
							"type": "address"
						}
					],
					"name": "OwnableUnauthorizedAccount",
					"type": "error"
				},
				{
					"anonymous": false,
					"inputs": [
						{
							"indexed": false,
							"internalType": "uint64",
							"name": "version",
							"type": "uint64"
						}
					],
					"name": "Initialized",
					"type": "event"
				},
				{
					"anonymous": false,
					"inputs": [
						{
							"indexed": true,
							"internalType": "uint128",
							"name": "menuId",
							"type": "uint128"
						},
						{
							"indexed": true,
							"internalType": "uint128",
							"name": "restaurantId",
							"type": "uint128"
						},
						{
							"indexed": false,
							"internalType": "string",
							"name": "name",
							"type": "string"
						}
					],
					"name": "MenuItemAdded",
					"type": "event"
				},
				{
					"anonymous": false,
					"inputs": [
						{
							"indexed": true,
							"internalType": "address",
							"name": "previousOwner",
							"type": "address"
						},
						{
							"indexed": true,
							"internalType": "address",
							"name": "newOwner",
							"type": "address"
						}
					],
					"name": "OwnershipTransferred",
					"type": "event"
				},
				{
					"inputs": [
						{
							"internalType": "uint128",
							"name": "restaurantId",
							"type": "uint128"
						},
						{
							"internalType": "string",
							"name": "name",
							"type": "string"
						},
						{
							"internalType": "uint128",
							"name": "price",
							"type": "uint128"
						},
						{
							"internalType": "string",
							"name": "description",
							"type": "string"
						},
						{
							"internalType": "string",
							"name": "category",
							"type": "string"
						},
						{
							"internalType": "uint128",
							"name": "preparationTime",
							"type": "uint128"
						}
					],
					"name": "addMenuItem",
					"outputs": [],
					"stateMutability": "nonpayable",
					"type": "function"
				},
				{
					"inputs": [
						{
							"internalType": "address",
							"name": "staff",
							"type": "address"
						},
						{
							"internalType": "uint128",
							"name": "restaurantId",
							"type": "uint128"
						}
					],
					"name": "assignStaff",
					"outputs": [],
					"stateMutability": "nonpayable",
					"type": "function"
				},
				{
					"inputs": [
						{
							"internalType": "uint128",
							"name": "restaurantId",
							"type": "uint128"
						},
						{
							"internalType": "uint128",
							"name": "menuId",
							"type": "uint128"
						}
					],
					"name": "getMenuItem",
					"outputs": [
						{
							"components": [
								{
									"internalType": "uint128",
									"name": "id",
									"type": "uint128"
								},
								{
									"internalType": "uint128",
									"name": "restaurantId",
									"type": "uint128"
								},
								{
									"internalType": "string",
									"name": "name",
									"type": "string"
								},
								{
									"internalType": "uint128",
									"name": "price",
									"type": "uint128"
								},
								{
									"internalType": "bool",
									"name": "available",
									"type": "bool"
								},
								{
									"internalType": "string",
									"name": "description",
									"type": "string"
								},
								{
									"internalType": "string",
									"name": "category",
									"type": "string"
								},
								{
									"internalType": "uint128",
									"name": "totalRating",
									"type": "uint128"
								},
								{
									"internalType": "uint128",
									"name": "ratingCount",
									"type": "uint128"
								},
								{
									"internalType": "uint128",
									"name": "preparationTime",
									"type": "uint128"
								}
							],
							"internalType": "struct MenuItem",
							"name": "",
							"type": "tuple"
						}
					],
					"stateMutability": "view",
					"type": "function"
				},
				{
					"inputs": [
						{
							"internalType": "address",
							"name": "admin",
							"type": "address"
						}
					],
					"name": "initialize",
					"outputs": [],
					"stateMutability": "nonpayable",
					"type": "function"
				},
				{
					"inputs": [
						{
							"internalType": "uint128",
							"name": "",
							"type": "uint128"
						},
						{
							"internalType": "uint128",
							"name": "",
							"type": "uint128"
						}
					],
					"name": "menuByRestaurant",
					"outputs": [
						{
							"internalType": "uint128",
							"name": "id",
							"type": "uint128"
						},
						{
							"internalType": "uint128",
							"name": "restaurantId",
							"type": "uint128"
						},
						{
							"internalType": "string",
							"name": "name",
							"type": "string"
						},
						{
							"internalType": "uint128",
							"name": "price",
							"type": "uint128"
						},
						{
							"internalType": "bool",
							"name": "available",
							"type": "bool"
						},
						{
							"internalType": "string",
							"name": "description",
							"type": "string"
						},
						{
							"internalType": "string",
							"name": "category",
							"type": "string"
						},
						{
							"internalType": "uint128",
							"name": "totalRating",
							"type": "uint128"
						},
						{
							"internalType": "uint128",
							"name": "ratingCount",
							"type": "uint128"
						},
						{
							"internalType": "uint128",
							"name": "preparationTime",
							"type": "uint128"
						}
					],
					"stateMutability": "view",
					"type": "function"
				},
				{
					"inputs": [],
					"name": "nextMenuId",
					"outputs": [
						{
							"internalType": "uint128",
							"name": "",
							"type": "uint128"
						}
					],
					"stateMutability": "view",
					"type": "function"
				},
				{
					"inputs": [],
					"name": "owner",
					"outputs": [
						{
							"internalType": "address",
							"name": "",
							"type": "address"
						}
					],
					"stateMutability": "view",
					"type": "function"
				},
				{
					"inputs": [
						{
							"internalType": "uint128",
							"name": "restaurantId",
							"type": "uint128"
						},
						{
							"internalType": "uint128",
							"name": "menuId",
							"type": "uint128"
						}
					],
					"name": "removeMenuItem",
					"outputs": [],
					"stateMutability": "nonpayable",
					"type": "function"
				},
				{
					"inputs": [
						{
							"internalType": "address",
							"name": "staff",
							"type": "address"
						}
					],
					"name": "removeStaff",
					"outputs": [],
					"stateMutability": "nonpayable",
					"type": "function"
				},
				{
					"inputs": [],
					"name": "renounceOwnership",
					"outputs": [],
					"stateMutability": "nonpayable",
					"type": "function"
				},
				{
					"inputs": [
						{
							"internalType": "address",
							"name": "",
							"type": "address"
						}
					],
					"name": "roles",
					"outputs": [
						{
							"internalType": "enum Role",
							"name": "",
							"type": "uint8"
						}
					],
					"stateMutability": "view",
					"type": "function"
				},
				{
					"inputs": [
						{
							"internalType": "address",
							"name": "",
							"type": "address"
						}
					],
					"name": "staffRestaurants",
					"outputs": [
						{
							"internalType": "uint128",
							"name": "",
							"type": "uint128"
						}
					],
					"stateMutability": "view",
					"type": "function"
				},
				{
					"inputs": [
						{
							"internalType": "address",
							"name": "newOwner",
							"type": "address"
						}
					],
					"name": "transferOwnership",
					"outputs": [],
					"stateMutability": "nonpayable",
					"type": "function"
				},
				{
					"inputs": [
						{
							"internalType": "uint128",
							"name": "restaurantId",
							"type": "uint128"
						},
						{
							"internalType": "uint128",
							"name": "menuId",
							"type": "uint128"
						},
						{
							"internalType": "string",
							"name": "name",
							"type": "string"
						},
						{
							"internalType": "uint128",
							"name": "price",
							"type": "uint128"
						},
						{
							"internalType": "bool",
							"name": "available",
							"type": "bool"
						},
						{
							"internalType": "string",
							"name": "description",
							"type": "string"
						},
						{
							"internalType": "string",
							"name": "category",
							"type": "string"
						}
					],
					"name": "updateMenuItem",
					"outputs": [],
					"stateMutability": "nonpayable",
					"type": "function"
				}
			],
			"devdoc": {
				"errors": {
					"InvalidInitialization()": [
						{
							"details": "The contract is already initialized."
						}
					],
					"NotInitializing()": [
						{
							"details": "The contract is not initializing."
						}
					],
					"OwnableInvalidOwner(address)": [
						{
							"details": "The owner is not a valid owner account. (eg. `address(0)`)"
						}
					],
					"OwnableUnauthorizedAccount(address)": [
						{
							"details": "The caller account is not authorized to perform an operation."
						}
					]
				},
				"events": {
					"Initialized(uint64)": {
						"details": "Triggered when the contract has been initialized or reinitialized."
					}
				},
				"kind": "dev",
				"methods": {
					"owner()": {
						"details": "Returns the address of the current owner."
					},
					"renounceOwnership()": {
						"details": "Leaves the contract without owner. It will not be possible to call `onlyOwner` functions. Can only be called by the current owner. NOTE: Renouncing ownership will leave the contract without an owner, thereby disabling any functionality that is only available to the owner."
					},
					"transferOwnership(address)": {
						"details": "Transfers ownership of the contract to a new account (`newOwner`). Can only be called by the current owner."
					}
				},
				"version": 1
			},
			"evm": {
				"assembly": "    /* \"contracts/MenuManager.sol\":254:2524  contract MenuManager is OwnableUpgradeable, RoleAccess, IMenuManager {... */\n  mstore(0x40, 0x80)\n  callvalue\n  dup1\n  iszero\n  tag_1\n  jumpi\n  revert(0x00, 0x00)\ntag_1:\n  pop\n  dataSize(sub_0)\n  dup1\n  dataOffset(sub_0)\n  0x00\n  codecopy\n  0x00\n  return\nstop\n\nsub_0: assembly {\n        /* \"contracts/MenuManager.sol\":254:2524  contract MenuManager is OwnableUpgradeable, RoleAccess, IMenuManager {... */\n      mstore(0x40, 0x80)\n      callvalue\n      dup1\n      iszero\n      tag_1\n      jumpi\n      revert(0x00, 0x00)\n    tag_1:\n      pop\n      jumpi(tag_2, lt(calldatasize, 0x04))\n      shr(0xe0, calldataload(0x00))\n      dup1\n      0xae9a4655\n      gt\n      tag_17\n      jumpi\n      dup1\n      0xd9a85e63\n      gt\n      tag_18\n      jumpi\n      dup1\n      0xd9a85e63\n      eq\n      tag_13\n      jumpi\n      dup1\n      0xe180ae75\n      eq\n      tag_14\n      jumpi\n      dup1\n      0xf2fde38b\n      eq\n      tag_15\n      jumpi\n      dup1\n      0xfb727088\n      eq\n      tag_16\n      jumpi\n      revert(0x00, 0x00)\n    tag_18:\n      dup1\n      0xae9a4655\n      eq\n      tag_10\n      jumpi\n      dup1\n      0xc4522c92\n      eq\n      tag_11\n      jumpi\n      dup1\n      0xc4d66de8\n      eq\n      tag_12\n      jumpi\n      revert(0x00, 0x00)\n    tag_17:\n      dup1\n      0x5b94ea5d\n      gt\n      tag_19\n      jumpi\n      dup1\n      0x5b94ea5d\n      eq\n      tag_6\n      jumpi\n      dup1\n      0x715018a6\n      eq\n      tag_7\n      jumpi\n      dup1\n      0x8da5cb5b\n      eq\n      tag_8\n      jumpi\n      dup1\n      0x99374642\n      eq\n      tag_9\n      jumpi\n      revert(0x00, 0x00)\n    tag_19:\n      dup1\n      0x0c528968\n      eq\n      tag_3\n      jumpi\n      dup1\n      0x2d3238fe\n      eq\n      tag_4\n      jumpi\n      dup1\n      0x41af8b6f\n      eq\n      tag_5\n      jumpi\n    tag_2:\n      revert(0x00, 0x00)\n        /* \"contracts/MenuManager.sol\":2349:2521  function getMenuItem(uint128 restaurantId, uint128 menuId) external view override returns (MenuItem memory) {... */\n    tag_3:\n      tag_20\n      tag_21\n      calldatasize\n      0x04\n      tag_22\n      jump\t// in\n    tag_21:\n      tag_23\n      jump\t// in\n    tag_20:\n      mload(0x40)\n      tag_24\n      swap2\n      swap1\n      tag_25\n      jump\t// in\n    tag_24:\n      mload(0x40)\n      dup1\n      swap2\n      sub\n      swap1\n      return\n        /* \"access/RoleAccess.sol\":170:221  mapping(address => uint128) public staffRestaurants */\n    tag_4:\n      tag_26\n      tag_27\n      calldatasize\n      0x04\n      tag_28\n      jump\t// in\n    tag_27:\n      mstore(0x20, 0x01)\n      0x00\n      swap1\n      dup2\n      mstore\n      0x40\n      swap1\n      keccak256\n      sload\n      sub(shl(0x80, 0x01), 0x01)\n      and\n      dup2\n      jump\n    tag_26:\n      mload(0x40)\n      sub(shl(0x80, 0x01), 0x01)\n        /* \"#utility.yul\":3057:3104   */\n      swap1\n      swap2\n      and\n        /* \"#utility.yul\":3039:3105   */\n      dup2\n      mstore\n        /* \"#utility.yul\":3027:3029   */\n      0x20\n        /* \"#utility.yul\":3012:3030   */\n      add\n        /* \"access/RoleAccess.sol\":170:221  mapping(address => uint128) public staffRestaurants */\n      tag_24\n        /* \"#utility.yul\":2893:3111   */\n      jump\n        /* \"contracts/MenuManager.sol\":1479:2085  function updateMenuItem(... */\n    tag_5:\n      tag_32\n      tag_33\n      calldatasize\n      0x04\n      tag_34\n      jump\t// in\n    tag_33:\n      tag_35\n      jump\t// in\n    tag_32:\n      stop\n        /* \"contracts/MenuManager.sol\":2093:2341  function removeMenuItem(uint128 restaurantId, uint128 menuId) external override onlyAdmin {... */\n    tag_6:\n      tag_32\n      tag_37\n      calldatasize\n      0x04\n      tag_22\n      jump\t// in\n    tag_37:\n      tag_38\n      jump\t// in\n        /* \"@openzeppelin/contracts-upgradeable/access/OwnableUpgradeable.sol\":3155:3256  function renounceOwnership() public virtual onlyOwner {... */\n    tag_7:\n      tag_32\n      tag_40\n      jump\t// in\n        /* \"@openzeppelin/contracts-upgradeable/access/OwnableUpgradeable.sol\":2441:2585  function owner() public view virtual returns (address) {... */\n    tag_8:\n        /* \"@openzeppelin/contracts-upgradeable/access/OwnableUpgradeable.sol\":1313:1335  OwnableStorageLocation */\n      0x9016d09d72d40fdae2fd8ceac6b6234c7706214fd39c1cd1e609a0528c199300\n        /* \"@openzeppelin/contracts-upgradeable/access/OwnableUpgradeable.sol\":2570:2578  $._owner */\n      sload\n        /* \"@openzeppelin/contracts-upgradeable/access/OwnableUpgradeable.sol\":2441:2585  function owner() public view virtual returns (address) {... */\n      mload(0x40)\n      sub(shl(0xa0, 0x01), 0x01)\n        /* \"@openzeppelin/contracts-upgradeable/access/OwnableUpgradeable.sol\":2570:2578  $._owner */\n      swap1\n      swap2\n      and\n        /* \"#utility.yul\":5271:5322   */\n      dup2\n      mstore\n        /* \"#utility.yul\":5259:5261   */\n      0x20\n        /* \"#utility.yul\":5244:5262   */\n      add\n        /* \"@openzeppelin/contracts-upgradeable/access/OwnableUpgradeable.sol\":2441:2585  function owner() public view virtual returns (address) {... */\n      tag_24\n        /* \"#utility.yul\":5125:5328   */\n      jump\n        /* \"access/RoleAccess.sol\":126:163  mapping(address => Role) public roles */\n    tag_9:\n      tag_45\n      tag_46\n      calldatasize\n      0x04\n      tag_28\n      jump\t// in\n    tag_46:\n      0x00\n      0x20\n      dup2\n      swap1\n      mstore\n      swap1\n      dup2\n      mstore\n      0x40\n      swap1\n      keccak256\n      sload\n      0xff\n      and\n      dup2\n      jump\n    tag_45:\n      mload(0x40)\n      tag_24\n      swap2\n      swap1\n      tag_49\n      jump\t// in\n        /* \"access/RoleAccess.sol\":769:939  function assignStaff(address staff, uint128 restaurantId) external onlyAdmin {... */\n    tag_10:\n      tag_32\n      tag_51\n      calldatasize\n      0x04\n      tag_52\n      jump\t// in\n    tag_51:\n      tag_53\n      jump\t// in\n        /* \"access/RoleAccess.sol\":947:1090  function removeStaff(address staff) external onlyAdmin {... */\n    tag_11:\n      tag_32\n      tag_55\n      calldatasize\n      0x04\n      tag_28\n      jump\t// in\n    tag_55:\n      tag_56\n      jump\t// in\n        /* \"contracts/MenuManager.sol\":443:595  function initialize(address admin) public initializer {... */\n    tag_12:\n      tag_32\n      tag_58\n      calldatasize\n      0x04\n      tag_28\n      jump\t// in\n    tag_58:\n      tag_59\n      jump\t// in\n        /* \"contracts/MenuManager.sol\":362:434  mapping(uint128 => mapping(uint128 => MenuItem)) public menuByRestaurant */\n    tag_13:\n      tag_60\n      tag_61\n      calldatasize\n      0x04\n      tag_22\n      jump\t// in\n    tag_61:\n      tag_62\n      jump\t// in\n    tag_60:\n      mload(0x40)\n      tag_24\n      swap11\n      swap10\n      swap9\n      swap8\n      swap7\n      swap6\n      swap5\n      swap4\n      swap3\n      swap2\n      swap1\n      tag_64\n      jump\t// in\n        /* \"contracts/MenuManager.sol\":603:1471  function addMenuItem(... */\n    tag_14:\n      tag_32\n      tag_66\n      calldatasize\n      0x04\n      tag_67\n      jump\t// in\n    tag_66:\n      tag_68\n      jump\t// in\n        /* \"@openzeppelin/contracts-upgradeable/access/OwnableUpgradeable.sol\":3405:3620  function transferOwnership(address newOwner) public virtual onlyOwner {... */\n    tag_15:\n      tag_32\n      tag_70\n      calldatasize\n      0x04\n      tag_28\n      jump\t// in\n    tag_70:\n      tag_71\n      jump\t// in\n        /* \"contracts/MenuManager.sol\":330:355  uint128 public nextMenuId */\n    tag_16:\n      sload(0x02)\n      tag_26\n      swap1\n      sub(shl(0x80, 0x01), 0x01)\n      and\n      dup2\n      jump\n        /* \"contracts/MenuManager.sol\":2349:2521  function getMenuItem(uint128 restaurantId, uint128 menuId) external view override returns (MenuItem memory) {... */\n    tag_23:\n      0x40\n      dup1\n      mload\n      0x0140\n      dup1\n      dup3\n      add\n      dup4\n      mstore\n      0x00\n      dup1\n      dup4\n      mstore\n      0x20\n      dup1\n      dup5\n      add\n      dup3\n      swap1\n      mstore\n      0x60\n      dup5\n      dup7\n      add\n      dup2\n      swap1\n      mstore\n      dup1\n      dup6\n      add\n      dup4\n      swap1\n      mstore\n      0x80\n      dup6\n      add\n      dup4\n      swap1\n      mstore\n      0xa0\n      dup6\n      add\n      dup2\n      swap1\n      mstore\n      0xc0\n      dup6\n      add\n      mstore\n      0xe0\n      dup5\n      add\n      dup3\n      swap1\n      mstore\n      0x0100\n      dup5\n      add\n      dup3\n      swap1\n      mstore\n      0x0120\n      dup5\n      add\n      dup3\n      swap1\n      mstore\n      sub(shl(0x80, 0x01), 0x01)\n        /* \"contracts/MenuManager.sol\":2475:2505  menuByRestaurant[restaurantId] */\n      dup8\n      dup2\n      and\n      dup4\n      mstore\n        /* \"contracts/MenuManager.sol\":2475:2491  menuByRestaurant */\n      0x03\n        /* \"contracts/MenuManager.sol\":2475:2505  menuByRestaurant[restaurantId] */\n      dup3\n      mstore\n      dup6\n      dup4\n      keccak256\n        /* \"contracts/MenuManager.sol\":2475:2513  menuByRestaurant[restaurantId][menuId] */\n      dup8\n      dup3\n      and\n      dup5\n      mstore\n      dup3\n      mstore\n      swap2\n      dup6\n      swap1\n      keccak256\n        /* \"contracts/MenuManager.sol\":2468:2513  return menuByRestaurant[restaurantId][menuId] */\n      dup6\n      mload\n      swap4\n      dup5\n      add\n      dup7\n      mstore\n      dup1\n      sload\n      dup1\n      dup5\n      and\n      dup6\n      mstore\n      shl(0x80, 0x01)\n      swap1\n      div\n      swap1\n      swap3\n      and\n      swap1\n      dup4\n      add\n      mstore\n      0x01\n      dup2\n      add\n      dup1\n      sload\n      swap4\n      swap5\n      swap3\n      swap4\n        /* \"contracts/MenuManager.sol\":2475:2513  menuByRestaurant[restaurantId][menuId] */\n      swap2\n      swap3\n        /* \"contracts/MenuManager.sol\":2468:2513  return menuByRestaurant[restaurantId][menuId] */\n      dup5\n      add\n      swap2\n      tag_78\n      swap1\n      tag_79\n      jump\t// in\n    tag_78:\n      dup1\n      0x1f\n      add\n      0x20\n      dup1\n      swap2\n      div\n      mul\n      0x20\n      add\n      mload(0x40)\n      swap1\n      dup2\n      add\n      0x40\n      mstore\n      dup1\n      swap3\n      swap2\n      swap1\n      dup2\n      dup2\n      mstore\n      0x20\n      add\n      dup3\n      dup1\n      sload\n      tag_80\n      swap1\n      tag_79\n      jump\t// in\n    tag_80:\n      dup1\n      iszero\n      tag_81\n      jumpi\n      dup1\n      0x1f\n      lt\n      tag_82\n      jumpi\n      0x0100\n      dup1\n      dup4\n      sload\n      div\n      mul\n      dup4\n      mstore\n      swap2\n      0x20\n      add\n      swap2\n      jump(tag_81)\n    tag_82:\n      dup3\n      add\n      swap2\n      swap1\n      0x00\n      mstore\n      keccak256(0x00, 0x20)\n      swap1\n    tag_83:\n      dup2\n      sload\n      dup2\n      mstore\n      swap1\n      0x01\n      add\n      swap1\n      0x20\n      add\n      dup1\n      dup4\n      gt\n      tag_83\n      jumpi\n      dup3\n      swap1\n      sub\n      0x1f\n      and\n      dup3\n      add\n      swap2\n    tag_81:\n      pop\n      pop\n      pop\n      swap2\n      dup4\n      mstore\n      pop\n      pop\n      0x02\n      dup3\n      add\n      sload\n      sub(shl(0x80, 0x01), 0x01)\n      dup2\n      and\n      0x20\n      dup4\n      add\n      mstore\n      shl(0x80, 0x01)\n      swap1\n      div\n      0xff\n      and\n      iszero\n      iszero\n      0x40\n      dup3\n      add\n      mstore\n      0x03\n      dup3\n      add\n      dup1\n      sload\n      0x60\n      swap1\n      swap3\n      add\n      swap2\n      tag_84\n      swap1\n      tag_79\n      jump\t// in\n    tag_84:\n      dup1\n      0x1f\n      add\n      0x20\n      dup1\n      swap2\n      div\n      mul\n      0x20\n      add\n      mload(0x40)\n      swap1\n      dup2\n      add\n      0x40\n      mstore\n      dup1\n      swap3\n      swap2\n      swap1\n      dup2\n      dup2\n      mstore\n      0x20\n      add\n      dup3\n      dup1\n      sload\n      tag_85\n      swap1\n      tag_79\n      jump\t// in\n    tag_85:\n      dup1\n      iszero\n      tag_86\n      jumpi\n      dup1\n      0x1f\n      lt\n      tag_87\n      jumpi\n      0x0100\n      dup1\n      dup4\n      sload\n      div\n      mul\n      dup4\n      mstore\n      swap2\n      0x20\n      add\n      swap2\n      jump(tag_86)\n    tag_87:\n      dup3\n      add\n      swap2\n      swap1\n      0x00\n      mstore\n      keccak256(0x00, 0x20)\n      swap1\n    tag_88:\n      dup2\n      sload\n      dup2\n      mstore\n      swap1\n      0x01\n      add\n      swap1\n      0x20\n      add\n      dup1\n      dup4\n      gt\n      tag_88\n      jumpi\n      dup3\n      swap1\n      sub\n      0x1f\n      and\n      dup3\n      add\n      swap2\n    tag_86:\n      pop\n      pop\n      pop\n      pop\n      pop\n      dup2\n      mstore\n      0x20\n      add\n      0x04\n      dup3\n      add\n      dup1\n      sload\n      tag_89\n      swap1\n      tag_79\n      jump\t// in\n    tag_89:\n      dup1\n      0x1f\n      add\n      0x20\n      dup1\n      swap2\n      div\n      mul\n      0x20\n      add\n      mload(0x40)\n      swap1\n      dup2\n      add\n      0x40\n      mstore\n      dup1\n      swap3\n      swap2\n      swap1\n      dup2\n      dup2\n      mstore\n      0x20\n      add\n      dup3\n      dup1\n      sload\n      tag_90\n      swap1\n      tag_79\n      jump\t// in\n    tag_90:\n      dup1\n      iszero\n      tag_91\n      jumpi\n      dup1\n      0x1f\n      lt\n      tag_92\n      jumpi\n      0x0100\n      dup1\n      dup4\n      sload\n      div\n      mul\n      dup4\n      mstore\n      swap2\n      0x20\n      add\n      swap2\n      jump(tag_91)\n    tag_92:\n      dup3\n      add\n      swap2\n      swap1\n      0x00\n      mstore\n      keccak256(0x00, 0x20)\n      swap1\n    tag_93:\n      dup2\n      sload\n      dup2\n      mstore\n      swap1\n      0x01\n      add\n      swap1\n      0x20\n      add\n      dup1\n      dup4\n      gt\n      tag_93\n      jumpi\n      dup3\n      swap1\n      sub\n      0x1f\n      and\n      dup3\n      add\n      swap2\n    tag_91:\n      pop\n      pop\n      pop\n      swap2\n      dup4\n      mstore\n      pop\n      pop\n      0x05\n      dup3\n      add\n      sload\n      sub(shl(0x80, 0x01), 0x01)\n      dup1\n      dup3\n      and\n      0x20\n      dup5\n      add\n      mstore\n      shl(0x80, 0x01)\n      swap1\n      swap2\n      div\n      dup2\n      and\n      0x40\n      dup4\n      add\n      mstore\n      0x06\n      swap1\n      swap3\n      add\n      sload\n      swap1\n      swap2\n      and\n      0x60\n      swap1\n      swap2\n      add\n      mstore\n      swap4\n        /* \"contracts/MenuManager.sol\":2349:2521  function getMenuItem(uint128 restaurantId, uint128 menuId) external view override returns (MenuItem memory) {... */\n      swap3\n      pop\n      pop\n      pop\n      jump\t// out\n        /* \"contracts/MenuManager.sol\":1479:2085  function updateMenuItem(... */\n    tag_35:\n        /* \"access/RoleAccess.sol\":276:286  msg.sender */\n      caller\n        /* \"access/RoleAccess.sol\":291:301  Role.Admin */\n      0x00\n        /* \"access/RoleAccess.sol\":270:287  roles[msg.sender] */\n      swap1\n      dup2\n      mstore\n      0x20\n      dup2\n      swap1\n      mstore\n      0x40\n      dup2\n      keccak256\n      sload\n      0xff\n      and\n        /* \"access/RoleAccess.sol\":270:301  roles[msg.sender] == Role.Admin */\n      0x02\n      dup2\n      gt\n      iszero\n      tag_99\n      jumpi\n      tag_99\n      tag_97\n      jump\t// in\n    tag_99:\n      eq\n        /* \"access/RoleAccess.sol\":262:316  require(roles[msg.sender] == Role.Admin, \"Only admin\") */\n      tag_100\n      jumpi\n      mload(0x40)\n      shl(0xe5, 0x461bcd)\n      dup2\n      mstore\n      0x04\n      add\n      tag_101\n      swap1\n      tag_102\n      jump\t// in\n    tag_101:\n      mload(0x40)\n      dup1\n      swap2\n      sub\n      swap1\n      revert\n    tag_100:\n      sub(shl(0x80, 0x01), 0x01)\n        /* \"contracts/MenuManager.sol\":1760:1790  menuByRestaurant[restaurantId] */\n      dup1\n      dup9\n      and\n      0x00\n      swap1\n      dup2\n      mstore\n        /* \"contracts/MenuManager.sol\":1760:1776  menuByRestaurant */\n      0x03\n        /* \"contracts/MenuManager.sol\":1760:1790  menuByRestaurant[restaurantId] */\n      0x20\n      swap1\n      dup2\n      mstore\n      0x40\n      dup1\n      dup4\n      keccak256\n        /* \"contracts/MenuManager.sol\":1760:1798  menuByRestaurant[restaurantId][menuId] */\n      dup11\n      dup6\n      and\n      dup5\n      mstore\n      swap1\n      swap2\n      mstore\n      dup2\n      keccak256\n        /* \"contracts/MenuManager.sol\":1760:1801  menuByRestaurant[restaurantId][menuId].id */\n      sload\n      swap1\n      swap2\n      and\n        /* \"contracts/MenuManager.sol\":1760:1806  menuByRestaurant[restaurantId][menuId].id != 0 */\n      swap1\n      sub\n        /* \"contracts/MenuManager.sol\":1752:1835  require(menuByRestaurant[restaurantId][menuId].id != 0, \"Menu item does not exist\") */\n      tag_104\n      jumpi\n      mload(0x40)\n      shl(0xe5, 0x461bcd)\n      dup2\n      mstore\n        /* \"#utility.yul\":9236:9238   */\n      0x20\n        /* \"contracts/MenuManager.sol\":1752:1835  require(menuByRestaurant[restaurantId][menuId].id != 0, \"Menu item does not exist\") */\n      0x04\n      dup3\n      add\n        /* \"#utility.yul\":9218:9239   */\n      mstore\n        /* \"#utility.yul\":9275:9277   */\n      0x18\n        /* \"#utility.yul\":9255:9273   */\n      0x24\n      dup3\n      add\n        /* \"#utility.yul\":9248:9278   */\n      mstore\n      shl(0x42, 0x13595b9d481a5d195b48191bd95cc81b9bdd08195e1a5cdd)\n        /* \"#utility.yul\":9294:9312   */\n      0x44\n      dup3\n      add\n        /* \"#utility.yul\":9287:9341   */\n      mstore\n        /* \"#utility.yul\":9358:9376   */\n      0x64\n      add\n        /* \"contracts/MenuManager.sol\":1752:1835  require(menuByRestaurant[restaurantId][menuId].id != 0, \"Menu item does not exist\") */\n      tag_101\n        /* \"#utility.yul\":9034:9382   */\n      jump\n        /* \"contracts/MenuManager.sol\":1752:1835  require(menuByRestaurant[restaurantId][menuId].id != 0, \"Menu item does not exist\") */\n    tag_104:\n      sub(shl(0x80, 0x01), 0x01)\n        /* \"contracts/MenuManager.sol\":1870:1900  menuByRestaurant[restaurantId] */\n      dup1\n      dup9\n      and\n        /* \"contracts/MenuManager.sol\":1846:1867  MenuItem storage item */\n      0x00\n        /* \"contracts/MenuManager.sol\":1870:1900  menuByRestaurant[restaurantId] */\n      swap1\n      dup2\n      mstore\n        /* \"contracts/MenuManager.sol\":1870:1886  menuByRestaurant */\n      0x03\n        /* \"contracts/MenuManager.sol\":1870:1900  menuByRestaurant[restaurantId] */\n      0x20\n      swap1\n      dup2\n      mstore\n      0x40\n      dup1\n      dup4\n      keccak256\n        /* \"contracts/MenuManager.sol\":1870:1908  menuByRestaurant[restaurantId][menuId] */\n      swap4\n      dup11\n      and\n      dup4\n      mstore\n      swap3\n      swap1\n      mstore\n      keccak256\n        /* \"contracts/MenuManager.sol\":1919:1928  item.name */\n      0x01\n      dup2\n      add\n        /* \"contracts/MenuManager.sol\":1919:1935  item.name = name */\n      tag_107\n        /* \"contracts/MenuManager.sol\":1931:1935  name */\n      dup8\n        /* \"contracts/MenuManager.sol\":1919:1928  item.name */\n      dup3\n        /* \"contracts/MenuManager.sol\":1919:1935  item.name = name */\n      tag_108\n      jump\t// in\n    tag_107:\n      pop\n        /* \"contracts/MenuManager.sol\":1946:1956  item.price */\n      0x02\n      dup2\n      add\n        /* \"contracts/MenuManager.sol\":1946:1964  item.price = price */\n      dup1\n      sload\n        /* \"contracts/MenuManager.sol\":1975:2001  item.available = available */\n      dup6\n      iszero\n      iszero\n      shl(0x80, 0x01)\n      mul\n      not(sub(shl(0x88, 0x01), 0x01))\n      swap1\n      swap2\n      and\n      sub(shl(0x80, 0x01), 0x01)\n        /* \"contracts/MenuManager.sol\":1946:1964  item.price = price */\n      dup9\n      and\n        /* \"contracts/MenuManager.sol\":1975:2001  item.available = available */\n      or\n      or\n      swap1\n      sstore\n        /* \"contracts/MenuManager.sol\":2012:2028  item.description */\n      0x03\n      dup2\n      add\n        /* \"contracts/MenuManager.sol\":2012:2042  item.description = description */\n      tag_109\n        /* \"contracts/MenuManager.sol\":2031:2042  description */\n      dup5\n        /* \"contracts/MenuManager.sol\":2012:2028  item.description */\n      dup3\n        /* \"contracts/MenuManager.sol\":2012:2042  item.description = description */\n      tag_108\n      jump\t// in\n    tag_109:\n      pop\n        /* \"contracts/MenuManager.sol\":2053:2066  item.category */\n      0x04\n      dup2\n      add\n        /* \"contracts/MenuManager.sol\":2053:2077  item.category = category */\n      tag_110\n        /* \"contracts/MenuManager.sol\":2069:2077  category */\n      dup4\n        /* \"contracts/MenuManager.sol\":2053:2066  item.category */\n      dup3\n        /* \"contracts/MenuManager.sol\":2053:2077  item.category = category */\n      tag_108\n      jump\t// in\n    tag_110:\n      pop\n        /* \"contracts/MenuManager.sol\":1741:2085  {... */\n      pop\n        /* \"contracts/MenuManager.sol\":1479:2085  function updateMenuItem(... */\n      pop\n      pop\n      pop\n      pop\n      pop\n      pop\n      pop\n      jump\t// out\n        /* \"contracts/MenuManager.sol\":2093:2341  function removeMenuItem(uint128 restaurantId, uint128 menuId) external override onlyAdmin {... */\n    tag_38:\n        /* \"access/RoleAccess.sol\":276:286  msg.sender */\n      caller\n        /* \"access/RoleAccess.sol\":291:301  Role.Admin */\n      0x00\n        /* \"access/RoleAccess.sol\":270:287  roles[msg.sender] */\n      swap1\n      dup2\n      mstore\n      0x20\n      dup2\n      swap1\n      mstore\n      0x40\n      dup2\n      keccak256\n      sload\n      0xff\n      and\n        /* \"access/RoleAccess.sol\":270:301  roles[msg.sender] == Role.Admin */\n      0x02\n      dup2\n      gt\n      iszero\n      tag_115\n      jumpi\n      tag_115\n      tag_97\n      jump\t// in\n    tag_115:\n      eq\n        /* \"access/RoleAccess.sol\":262:316  require(roles[msg.sender] == Role.Admin, \"Only admin\") */\n      tag_116\n      jumpi\n      mload(0x40)\n      shl(0xe5, 0x461bcd)\n      dup2\n      mstore\n      0x04\n      add\n      tag_101\n      swap1\n      tag_102\n      jump\t// in\n    tag_116:\n      sub(shl(0x80, 0x01), 0x01)\n        /* \"contracts/MenuManager.sol\":2202:2232  menuByRestaurant[restaurantId] */\n      dup1\n      dup4\n      and\n      0x00\n      swap1\n      dup2\n      mstore\n        /* \"contracts/MenuManager.sol\":2202:2218  menuByRestaurant */\n      0x03\n        /* \"contracts/MenuManager.sol\":2202:2232  menuByRestaurant[restaurantId] */\n      0x20\n      swap1\n      dup2\n      mstore\n      0x40\n      dup1\n      dup4\n      keccak256\n        /* \"contracts/MenuManager.sol\":2202:2240  menuByRestaurant[restaurantId][menuId] */\n      dup6\n      dup6\n      and\n      dup5\n      mstore\n      swap1\n      swap2\n      mstore\n      dup2\n      keccak256\n        /* \"contracts/MenuManager.sol\":2202:2243  menuByRestaurant[restaurantId][menuId].id */\n      sload\n      swap1\n      swap2\n      and\n        /* \"contracts/MenuManager.sol\":2202:2248  menuByRestaurant[restaurantId][menuId].id != 0 */\n      swap1\n      sub\n        /* \"contracts/MenuManager.sol\":2194:2277  require(menuByRestaurant[restaurantId][menuId].id != 0, \"Menu item does not exist\") */\n      tag_119\n      jumpi\n      mload(0x40)\n      shl(0xe5, 0x461bcd)\n      dup2\n      mstore\n        /* \"#utility.yul\":9236:9238   */\n      0x20\n        /* \"contracts/MenuManager.sol\":2194:2277  require(menuByRestaurant[restaurantId][menuId].id != 0, \"Menu item does not exist\") */\n      0x04\n      dup3\n      add\n        /* \"#utility.yul\":9218:9239   */\n      mstore\n        /* \"#utility.yul\":9275:9277   */\n      0x18\n        /* \"#utility.yul\":9255:9273   */\n      0x24\n      dup3\n      add\n        /* \"#utility.yul\":9248:9278   */\n      mstore\n      shl(0x42, 0x13595b9d481a5d195b48191bd95cc81b9bdd08195e1a5cdd)\n        /* \"#utility.yul\":9294:9312   */\n      0x44\n      dup3\n      add\n        /* \"#utility.yul\":9287:9341   */\n      mstore\n        /* \"#utility.yul\":9358:9376   */\n      0x64\n      add\n        /* \"contracts/MenuManager.sol\":2194:2277  require(menuByRestaurant[restaurantId][menuId].id != 0, \"Menu item does not exist\") */\n      tag_101\n        /* \"#utility.yul\":9034:9382   */\n      jump\n        /* \"contracts/MenuManager.sol\":2194:2277  require(menuByRestaurant[restaurantId][menuId].id != 0, \"Menu item does not exist\") */\n    tag_119:\n      sub(shl(0x80, 0x01), 0x01)\n        /* \"contracts/MenuManager.sol\":2295:2325  menuByRestaurant[restaurantId] */\n      dup1\n      dup4\n      and\n      0x00\n      swap1\n      dup2\n      mstore\n        /* \"contracts/MenuManager.sol\":2295:2311  menuByRestaurant */\n      0x03\n        /* \"contracts/MenuManager.sol\":2295:2325  menuByRestaurant[restaurantId] */\n      0x20\n      swap1\n      dup2\n      mstore\n      0x40\n      dup1\n      dup4\n      keccak256\n        /* \"contracts/MenuManager.sol\":2295:2333  menuByRestaurant[restaurantId][menuId] */\n      swap4\n      dup6\n      and\n      dup4\n      mstore\n      swap3\n      swap1\n      mstore\n      swap1\n      dup2\n      keccak256\n        /* \"contracts/MenuManager.sol\":2288:2333  delete menuByRestaurant[restaurantId][menuId] */\n      dup2\n      dup2\n      sstore\n        /* \"contracts/MenuManager.sol\":2295:2333  menuByRestaurant[restaurantId][menuId] */\n      swap1\n        /* \"contracts/MenuManager.sol\":2288:2333  delete menuByRestaurant[restaurantId][menuId] */\n      tag_121\n      0x01\n      dup4\n      add\n        /* \"contracts/MenuManager.sol\":2295:2325  menuByRestaurant[restaurantId] */\n      dup3\n        /* \"contracts/MenuManager.sol\":2288:2333  delete menuByRestaurant[restaurantId][menuId] */\n      tag_122\n      jump\t// in\n    tag_121:\n      0x02\n      dup3\n      add\n      dup1\n      sload\n      not(sub(shl(0x88, 0x01), 0x01))\n      and\n      swap1\n      sstore\n      tag_123\n      0x03\n      dup4\n      add\n      0x00\n      tag_122\n      jump\t// in\n    tag_123:\n      tag_124\n      0x04\n      dup4\n      add\n      0x00\n      tag_122\n      jump\t// in\n    tag_124:\n      pop\n      0x00\n      0x05\n      dup3\n      add\n      sstore\n      0x06\n      add\n      dup1\n      sload\n      not(sub(shl(0x80, 0x01), 0x01))\n      and\n      swap1\n      sstore\n      pop\n      pop\n        /* \"contracts/MenuManager.sol\":2093:2341  function removeMenuItem(uint128 restaurantId, uint128 menuId) external override onlyAdmin {... */\n      jump\t// out\n        /* \"@openzeppelin/contracts-upgradeable/access/OwnableUpgradeable.sol\":3155:3256  function renounceOwnership() public virtual onlyOwner {... */\n    tag_40:\n        /* \"@openzeppelin/contracts-upgradeable/access/OwnableUpgradeable.sol\":2334:2347  _checkOwner() */\n      tag_126\n        /* \"@openzeppelin/contracts-upgradeable/access/OwnableUpgradeable.sol\":2334:2345  _checkOwner */\n      tag_127\n        /* \"@openzeppelin/contracts-upgradeable/access/OwnableUpgradeable.sol\":2334:2347  _checkOwner() */\n      jump\t// in\n    tag_126:\n        /* \"@openzeppelin/contracts-upgradeable/access/OwnableUpgradeable.sol\":3219:3249  _transferOwnership(address(0)) */\n      tag_129\n        /* \"@openzeppelin/contracts-upgradeable/access/OwnableUpgradeable.sol\":3246:3247  0 */\n      0x00\n        /* \"@openzeppelin/contracts-upgradeable/access/OwnableUpgradeable.sol\":3219:3237  _transferOwnership */\n      tag_130\n        /* \"@openzeppelin/contracts-upgradeable/access/OwnableUpgradeable.sol\":3219:3249  _transferOwnership(address(0)) */\n      jump\t// in\n    tag_129:\n        /* \"@openzeppelin/contracts-upgradeable/access/OwnableUpgradeable.sol\":3155:3256  function renounceOwnership() public virtual onlyOwner {... */\n      jump\t// out\n        /* \"access/RoleAccess.sol\":769:939  function assignStaff(address staff, uint128 restaurantId) external onlyAdmin {... */\n    tag_53:\n        /* \"access/RoleAccess.sol\":276:286  msg.sender */\n      caller\n        /* \"access/RoleAccess.sol\":291:301  Role.Admin */\n      0x00\n        /* \"access/RoleAccess.sol\":270:287  roles[msg.sender] */\n      swap1\n      dup2\n      mstore\n      0x20\n      dup2\n      swap1\n      mstore\n      0x40\n      dup2\n      keccak256\n      sload\n      0xff\n      and\n        /* \"access/RoleAccess.sol\":270:301  roles[msg.sender] == Role.Admin */\n      0x02\n      dup2\n      gt\n      iszero\n      tag_138\n      jumpi\n      tag_138\n      tag_97\n      jump\t// in\n    tag_138:\n      eq\n        /* \"access/RoleAccess.sol\":262:316  require(roles[msg.sender] == Role.Admin, \"Only admin\") */\n      tag_139\n      jumpi\n      mload(0x40)\n      shl(0xe5, 0x461bcd)\n      dup2\n      mstore\n      0x04\n      add\n      tag_101\n      swap1\n      tag_102\n      jump\t// in\n    tag_139:\n      sub(shl(0xa0, 0x01), 0x01)\n        /* \"access/RoleAccess.sol\":857:869  roles[staff] */\n      swap2\n      swap1\n      swap2\n      and\n        /* \"access/RoleAccess.sol\":857:862  roles */\n      0x00\n        /* \"access/RoleAccess.sol\":857:869  roles[staff] */\n      swap1\n      dup2\n      mstore\n      0x20\n      dup2\n      dup2\n      mstore\n      0x40\n      dup1\n      dup4\n      keccak256\n        /* \"access/RoleAccess.sol\":857:882  roles[staff] = Role.Staff */\n      dup1\n      sload\n        /* \"access/RoleAccess.sol\":872:882  Role.Staff */\n      0x01\n      not(0xff)\n        /* \"access/RoleAccess.sol\":857:882  roles[staff] = Role.Staff */\n      swap1\n      swap2\n      and\n      dup2\n      or\n      swap1\n      swap2\n      sstore\n        /* \"access/RoleAccess.sol\":893:916  staffRestaurants[staff] */\n      swap1\n      swap2\n      mstore\n      swap1\n      keccak256\n        /* \"access/RoleAccess.sol\":893:931  staffRestaurants[staff] = restaurantId */\n      dup1\n      sload\n      not(sub(shl(0x80, 0x01), 0x01))\n      and\n      sub(shl(0x80, 0x01), 0x01)\n      swap1\n      swap3\n      and\n      swap2\n      swap1\n      swap2\n      or\n      swap1\n      sstore\n        /* \"access/RoleAccess.sol\":769:939  function assignStaff(address staff, uint128 restaurantId) external onlyAdmin {... */\n      jump\t// out\n        /* \"access/RoleAccess.sol\":947:1090  function removeStaff(address staff) external onlyAdmin {... */\n    tag_56:\n        /* \"access/RoleAccess.sol\":276:286  msg.sender */\n      caller\n        /* \"access/RoleAccess.sol\":291:301  Role.Admin */\n      0x00\n        /* \"access/RoleAccess.sol\":270:287  roles[msg.sender] */\n      swap1\n      dup2\n      mstore\n      0x20\n      dup2\n      swap1\n      mstore\n      0x40\n      dup2\n      keccak256\n      sload\n      0xff\n      and\n        /* \"access/RoleAccess.sol\":270:301  roles[msg.sender] == Role.Admin */\n      0x02\n      dup2\n      gt\n      iszero\n      tag_148\n      jumpi\n      tag_148\n      tag_97\n      jump\t// in\n    tag_148:\n      eq\n        /* \"access/RoleAccess.sol\":262:316  require(roles[msg.sender] == Role.Admin, \"Only admin\") */\n      tag_149\n      jumpi\n      mload(0x40)\n      shl(0xe5, 0x461bcd)\n      dup2\n      mstore\n      0x04\n      add\n      tag_101\n      swap1\n      tag_102\n      jump\t// in\n    tag_149:\n      sub(shl(0xa0, 0x01), 0x01)\n        /* \"access/RoleAccess.sol\":1020:1043  staffRestaurants[staff] */\n      dup2\n      and\n      0x00\n      swap1\n      dup2\n      mstore\n        /* \"access/RoleAccess.sol\":1020:1036  staffRestaurants */\n      0x01\n        /* \"access/RoleAccess.sol\":1020:1043  staffRestaurants[staff] */\n      0x20\n      dup2\n      dup2\n      mstore\n      0x40\n      dup1\n      dup5\n      keccak256\n        /* \"access/RoleAccess.sol\":1013:1043  delete staffRestaurants[staff] */\n      dup1\n      sload\n      not(sub(shl(0x80, 0x01), 0x01))\n      and\n      swap1\n      sstore\n        /* \"access/RoleAccess.sol\":1054:1066  roles[staff] */\n      swap1\n      dup4\n      swap1\n      mstore\n      swap1\n      swap2\n      keccak256\n        /* \"access/RoleAccess.sol\":1054:1082  roles[staff] = Role.Customer */\n      dup1\n      sload\n        /* \"access/RoleAccess.sol\":1069:1082  Role.Customer */\n      0x02\n      swap3\n      not(0xff)\n        /* \"access/RoleAccess.sol\":1054:1082  roles[staff] = Role.Customer */\n      swap1\n      swap2\n      and\n      swap1\n        /* \"access/RoleAccess.sol\":1069:1082  Role.Customer */\n      dup4\n        /* \"access/RoleAccess.sol\":1054:1082  roles[staff] = Role.Customer */\n    tag_153:\n      mul\n      or\n      swap1\n      sstore\n      pop\n        /* \"access/RoleAccess.sol\":947:1090  function removeStaff(address staff) external onlyAdmin {... */\n      pop\n      jump\t// out\n        /* \"contracts/MenuManager.sol\":443:595  function initialize(address admin) public initializer {... */\n    tag_59:\n        /* \"@openzeppelin/contracts-upgradeable/proxy/utils/Initializable.sol\":3147:3213  0xf0c57e16840df040f15088dc2f81fe391c3923bec73e23a9662efc9c229c6a00 */\n      0xf0c57e16840df040f15088dc2f81fe391c3923bec73e23a9662efc9c229c6a00\n        /* \"@openzeppelin/contracts-upgradeable/proxy/utils/Initializable.sol\":4302:4317  $._initializing */\n      dup1\n      sload\n      shl(0x40, 0x01)\n      dup2\n      div\n      0xff\n      and\n        /* \"@openzeppelin/contracts-upgradeable/proxy/utils/Initializable.sol\":4301:4317  !$._initializing */\n      iszero\n      swap1\n        /* \"@openzeppelin/contracts-upgradeable/proxy/utils/Initializable.sol\":4348:4362  $._initialized */\n      0xffffffffffffffff\n      and\n        /* \"@openzeppelin/contracts-upgradeable/proxy/utils/Initializable.sol\":4158:4188  InitializableStorage storage $ */\n      0x00\n        /* \"@openzeppelin/contracts-upgradeable/proxy/utils/Initializable.sol\":4724:4740  initialized == 0 */\n      dup2\n      iszero\n        /* \"@openzeppelin/contracts-upgradeable/proxy/utils/Initializable.sol\":4724:4758  initialized == 0 && isTopLevelCall */\n      dup1\n      iszero\n      tag_157\n      jumpi\n      pop\n        /* \"@openzeppelin/contracts-upgradeable/proxy/utils/Initializable.sol\":4744:4758  isTopLevelCall */\n      dup3\n        /* \"@openzeppelin/contracts-upgradeable/proxy/utils/Initializable.sol\":4724:4758  initialized == 0 && isTopLevelCall */\n    tag_157:\n        /* \"@openzeppelin/contracts-upgradeable/proxy/utils/Initializable.sol\":4704:4758  bool initialSetup = initialized == 0 && isTopLevelCall */\n      swap1\n      pop\n        /* \"@openzeppelin/contracts-upgradeable/proxy/utils/Initializable.sol\":4768:4785  bool construction */\n      0x00\n        /* \"@openzeppelin/contracts-upgradeable/proxy/utils/Initializable.sol\":4788:4799  initialized */\n      dup3\n        /* \"@openzeppelin/contracts-upgradeable/proxy/utils/Initializable.sol\":4788:4804  initialized == 1 */\n      0xffffffffffffffff\n      and\n        /* \"@openzeppelin/contracts-upgradeable/proxy/utils/Initializable.sol\":4803:4804  1 */\n      0x01\n        /* \"@openzeppelin/contracts-upgradeable/proxy/utils/Initializable.sol\":4788:4804  initialized == 1 */\n      eq\n        /* \"@openzeppelin/contracts-upgradeable/proxy/utils/Initializable.sol\":4788:4838  initialized == 1 && address(this).code.length == 0 */\n      dup1\n      iszero\n      tag_158\n      jumpi\n      pop\n        /* \"@openzeppelin/contracts-upgradeable/proxy/utils/Initializable.sol\":4816:4820  this */\n      address\n        /* \"@openzeppelin/contracts-upgradeable/proxy/utils/Initializable.sol\":4808:4833  address(this).code.length */\n      extcodesize\n        /* \"@openzeppelin/contracts-upgradeable/proxy/utils/Initializable.sol\":4808:4838  address(this).code.length == 0 */\n      iszero\n        /* \"@openzeppelin/contracts-upgradeable/proxy/utils/Initializable.sol\":4788:4838  initialized == 1 && address(this).code.length == 0 */\n    tag_158:\n        /* \"@openzeppelin/contracts-upgradeable/proxy/utils/Initializable.sol\":4768:4838  bool construction = initialized == 1 && address(this).code.length == 0 */\n      swap1\n      pop\n        /* \"@openzeppelin/contracts-upgradeable/proxy/utils/Initializable.sol\":4854:4866  initialSetup */\n      dup2\n        /* \"@openzeppelin/contracts-upgradeable/proxy/utils/Initializable.sol\":4853:4866  !initialSetup */\n      iszero\n        /* \"@openzeppelin/contracts-upgradeable/proxy/utils/Initializable.sol\":4853:4883  !initialSetup && !construction */\n      dup1\n      iszero\n      tag_159\n      jumpi\n      pop\n        /* \"@openzeppelin/contracts-upgradeable/proxy/utils/Initializable.sol\":4871:4883  construction */\n      dup1\n        /* \"@openzeppelin/contracts-upgradeable/proxy/utils/Initializable.sol\":4870:4883  !construction */\n      iszero\n        /* \"@openzeppelin/contracts-upgradeable/proxy/utils/Initializable.sol\":4853:4883  !initialSetup && !construction */\n    tag_159:\n        /* \"@openzeppelin/contracts-upgradeable/proxy/utils/Initializable.sol\":4849:4940  if (!initialSetup && !construction) {... */\n      iszero\n      tag_160\n      jumpi\n        /* \"@openzeppelin/contracts-upgradeable/proxy/utils/Initializable.sol\":4906:4929  InvalidInitialization() */\n      mload(0x40)\n      shl(0xe0, 0xf92ee8a9)\n      dup2\n      mstore\n      0x04\n      add\n      mload(0x40)\n      dup1\n      swap2\n      sub\n      swap1\n      revert\n        /* \"@openzeppelin/contracts-upgradeable/proxy/utils/Initializable.sol\":4849:4940  if (!initialSetup && !construction) {... */\n    tag_160:\n        /* \"@openzeppelin/contracts-upgradeable/proxy/utils/Initializable.sol\":4949:4967  $._initialized = 1 */\n      dup5\n      sload\n      not(0xffffffffffffffff)\n      and\n        /* \"@openzeppelin/contracts-upgradeable/proxy/utils/Initializable.sol\":4966:4967  1 */\n      0x01\n        /* \"@openzeppelin/contracts-upgradeable/proxy/utils/Initializable.sol\":4949:4967  $._initialized = 1 */\n      or\n      dup6\n      sstore\n        /* \"@openzeppelin/contracts-upgradeable/proxy/utils/Initializable.sol\":4977:5044  if (isTopLevelCall) {... */\n      dup4\n      iszero\n      tag_161\n      jumpi\n        /* \"@openzeppelin/contracts-upgradeable/proxy/utils/Initializable.sol\":5011:5033  $._initializing = true */\n      dup5\n      sload\n      not(shl(0x40, 0xff))\n      and\n      shl(0x40, 0x01)\n      or\n      dup6\n      sstore\n        /* \"@openzeppelin/contracts-upgradeable/proxy/utils/Initializable.sol\":4977:5044  if (isTopLevelCall) {... */\n    tag_161:\n        /* \"contracts/MenuManager.sol\":508:529  __Ownable_init(admin) */\n      tag_163\n        /* \"contracts/MenuManager.sol\":523:528  admin */\n      dup7\n        /* \"contracts/MenuManager.sol\":508:522  __Ownable_init */\n      tag_164\n        /* \"contracts/MenuManager.sol\":508:529  __Ownable_init(admin) */\n      jump\t// in\n    tag_163:\n        /* \"contracts/MenuManager.sol\":540:562  initializeRoles(admin) */\n      tag_165\n        /* \"contracts/MenuManager.sol\":556:561  admin */\n      dup7\n        /* \"contracts/MenuManager.sol\":540:555  initializeRoles */\n      tag_166\n        /* \"contracts/MenuManager.sol\":540:562  initializeRoles(admin) */\n      jump\t// in\n    tag_165:\n        /* \"contracts/MenuManager.sol\":573:583  nextMenuId */\n      0x02\n        /* \"contracts/MenuManager.sol\":573:587  nextMenuId = 1 */\n      dup1\n      sload\n      not(sub(shl(0x80, 0x01), 0x01))\n      and\n        /* \"contracts/MenuManager.sol\":586:587  1 */\n      0x01\n        /* \"contracts/MenuManager.sol\":573:587  nextMenuId = 1 */\n      or\n      swap1\n      sstore\n        /* \"@openzeppelin/contracts-upgradeable/proxy/utils/Initializable.sol\":5064:5165  if (isTopLevelCall) {... */\n      dup4\n      iszero\n      tag_167\n      jumpi\n        /* \"@openzeppelin/contracts-upgradeable/proxy/utils/Initializable.sol\":5098:5121  $._initializing = false */\n      dup5\n      sload\n      not(shl(0x40, 0xff))\n      and\n      dup6\n      sstore\n        /* \"@openzeppelin/contracts-upgradeable/proxy/utils/Initializable.sol\":5140:5154  Initialized(1) */\n      mload(0x40)\n      0x01\n        /* \"#utility.yul\":11664:11714   */\n      dup2\n      mstore\n        /* \"@openzeppelin/contracts-upgradeable/proxy/utils/Initializable.sol\":5140:5154  Initialized(1) */\n      0xc7f505b2f371ae2175ee4913f4499e1f2633a7b5936321eed1cdaeb6115181d2\n      swap1\n        /* \"#utility.yul\":11652:11654   */\n      0x20\n        /* \"#utility.yul\":11637:11655   */\n      add\n        /* \"@openzeppelin/contracts-upgradeable/proxy/utils/Initializable.sol\":5140:5154  Initialized(1) */\n      mload(0x40)\n      dup1\n      swap2\n      sub\n      swap1\n      log1\n        /* \"@openzeppelin/contracts-upgradeable/proxy/utils/Initializable.sol\":5064:5165  if (isTopLevelCall) {... */\n    tag_167:\n        /* \"@openzeppelin/contracts-upgradeable/proxy/utils/Initializable.sol\":4092:5171  {... */\n      pop\n      pop\n      pop\n      pop\n      pop\n        /* \"contracts/MenuManager.sol\":443:595  function initialize(address admin) public initializer {... */\n      pop\n      jump\t// out\n        /* \"contracts/MenuManager.sol\":362:434  mapping(uint128 => mapping(uint128 => MenuItem)) public menuByRestaurant */\n    tag_62:\n      0x03\n      0x20\n      swap1\n      dup2\n      mstore\n      0x00\n      swap3\n      dup4\n      mstore\n      0x40\n      dup1\n      dup5\n      keccak256\n      swap1\n      swap2\n      mstore\n      swap1\n      dup3\n      mstore\n      swap1\n      keccak256\n      dup1\n      sload\n      0x01\n      dup3\n      add\n      dup1\n      sload\n      sub(shl(0x80, 0x01), 0x01)\n      dup1\n      dup5\n      and\n      swap5\n      shl(0x80, 0x01)\n      swap1\n      swap5\n      div\n      and\n      swap3\n      swap2\n      swap1\n      tag_170\n      swap1\n      tag_79\n      jump\t// in\n    tag_170:\n      dup1\n      0x1f\n      add\n      0x20\n      dup1\n      swap2\n      div\n      mul\n      0x20\n      add\n      mload(0x40)\n      swap1\n      dup2\n      add\n      0x40\n      mstore\n      dup1\n      swap3\n      swap2\n      swap1\n      dup2\n      dup2\n      mstore\n      0x20\n      add\n      dup3\n      dup1\n      sload\n      tag_171\n      swap1\n      tag_79\n      jump\t// in\n    tag_171:\n      dup1\n      iszero\n      tag_172\n      jumpi\n      dup1\n      0x1f\n      lt\n      tag_173\n      jumpi\n      0x0100\n      dup1\n      dup4\n      sload\n      div\n      mul\n      dup4\n      mstore\n      swap2\n      0x20\n      add\n      swap2\n      jump(tag_172)\n    tag_173:\n      dup3\n      add\n      swap2\n      swap1\n      0x00\n      mstore\n      keccak256(0x00, 0x20)\n      swap1\n    tag_174:\n      dup2\n      sload\n      dup2\n      mstore\n      swap1\n      0x01\n      add\n      swap1\n      0x20\n      add\n      dup1\n      dup4\n      gt\n      tag_174\n      jumpi\n      dup3\n      swap1\n      sub\n      0x1f\n      and\n      dup3\n      add\n      swap2\n    tag_172:\n      pop\n      pop\n      pop\n      pop\n      0x02\n      dup4\n      add\n      sload\n      0x03\n      dup5\n      add\n      dup1\n      sload\n      swap4\n      swap5\n      sub(shl(0x80, 0x01), 0x01)\n      dup4\n      and\n      swap5\n      shl(0x80, 0x01)\n      swap1\n      swap4\n      div\n      0xff\n      and\n      swap4\n      pop\n      swap2\n      tag_175\n      swap1\n      tag_79\n      jump\t// in\n    tag_175:\n      dup1\n      0x1f\n      add\n      0x20\n      dup1\n      swap2\n      div\n      mul\n      0x20\n      add\n      mload(0x40)\n      swap1\n      dup2\n      add\n      0x40\n      mstore\n      dup1\n      swap3\n      swap2\n      swap1\n      dup2\n      dup2\n      mstore\n      0x20\n      add\n      dup3\n      dup1\n      sload\n      tag_176\n      swap1\n      tag_79\n      jump\t// in\n    tag_176:\n      dup1\n      iszero\n      tag_177\n      jumpi\n      dup1\n      0x1f\n      lt\n      tag_178\n      jumpi\n      0x0100\n      dup1\n      dup4\n      sload\n      div\n      mul\n      dup4\n      mstore\n      swap2\n      0x20\n      add\n      swap2\n      jump(tag_177)\n    tag_178:\n      dup3\n      add\n      swap2\n      swap1\n      0x00\n      mstore\n      keccak256(0x00, 0x20)\n      swap1\n    tag_179:\n      dup2\n      sload\n      dup2\n      mstore\n      swap1\n      0x01\n      add\n      swap1\n      0x20\n      add\n      dup1\n      dup4\n      gt\n      tag_179\n      jumpi\n      dup3\n      swap1\n      sub\n      0x1f\n      and\n      dup3\n      add\n      swap2\n    tag_177:\n      pop\n      pop\n      pop\n      pop\n      pop\n      swap1\n      dup1\n      0x04\n      add\n      dup1\n      sload\n      tag_180\n      swap1\n      tag_79\n      jump\t// in\n    tag_180:\n      dup1\n      0x1f\n      add\n      0x20\n      dup1\n      swap2\n      div\n      mul\n      0x20\n      add\n      mload(0x40)\n      swap1\n      dup2\n      add\n      0x40\n      mstore\n      dup1\n      swap3\n      swap2\n      swap1\n      dup2\n      dup2\n      mstore\n      0x20\n      add\n      dup3\n      dup1\n      sload\n      tag_181\n      swap1\n      tag_79\n      jump\t// in\n    tag_181:\n      dup1\n      iszero\n      tag_182\n      jumpi\n      dup1\n      0x1f\n      lt\n      tag_183\n      jumpi\n      0x0100\n      dup1\n      dup4\n      sload\n      div\n      mul\n      dup4\n      mstore\n      swap2\n      0x20\n      add\n      swap2\n      jump(tag_182)\n    tag_183:\n      dup3\n      add\n      swap2\n      swap1\n      0x00\n      mstore\n      keccak256(0x00, 0x20)\n      swap1\n    tag_184:\n      dup2\n      sload\n      dup2\n      mstore\n      swap1\n      0x01\n      add\n      swap1\n      0x20\n      add\n      dup1\n      dup4\n      gt\n      tag_184\n      jumpi\n      dup3\n      swap1\n      sub\n      0x1f\n      and\n      dup3\n      add\n      swap2\n    tag_182:\n      pop\n      pop\n      pop\n      pop\n      0x05\n      dup4\n      add\n      sload\n      0x06\n      swap1\n      swap4\n      add\n      sload\n      swap2\n      swap3\n      sub(shl(0x80, 0x01), 0x01)\n      dup1\n      dup3\n      and\n      swap4\n      shl(0x80, 0x01)\n      swap1\n      swap3\n      div\n      dup2\n      and\n      swap3\n      pop\n      and\n      dup11\n      jump\t// out\n        /* \"contracts/MenuManager.sol\":603:1471  function addMenuItem(... */\n    tag_68:\n        /* \"access/RoleAccess.sol\":276:286  msg.sender */\n      caller\n        /* \"access/RoleAccess.sol\":291:301  Role.Admin */\n      0x00\n        /* \"access/RoleAccess.sol\":270:287  roles[msg.sender] */\n      swap1\n      dup2\n      mstore\n      0x20\n      dup2\n      swap1\n      mstore\n      0x40\n      dup2\n      keccak256\n      sload\n      0xff\n      and\n        /* \"access/RoleAccess.sol\":270:301  roles[msg.sender] == Role.Admin */\n      0x02\n      dup2\n      gt\n      iszero\n      tag_189\n      jumpi\n      tag_189\n      tag_97\n      jump\t// in\n    tag_189:\n      eq\n        /* \"access/RoleAccess.sol\":262:316  require(roles[msg.sender] == Role.Admin, \"Only admin\") */\n      tag_190\n      jumpi\n      mload(0x40)\n      shl(0xe5, 0x461bcd)\n      dup2\n      mstore\n      0x04\n      add\n      tag_101\n      swap1\n      tag_102\n      jump\t// in\n    tag_190:\n        /* \"contracts/MenuManager.sol\":880:881  0 */\n      0x00\n        /* \"contracts/MenuManager.sol\":865:877  restaurantId */\n      dup7\n      sub(shl(0x80, 0x01), 0x01)\n        /* \"contracts/MenuManager.sol\":865:881  restaurantId > 0 */\n      and\n      gt\n        /* \"contracts/MenuManager.sol\":857:906  require(restaurantId > 0, \"Invalid restaurantId\") */\n      tag_193\n      jumpi\n      mload(0x40)\n      shl(0xe5, 0x461bcd)\n      dup2\n      mstore\n        /* \"#utility.yul\":11927:11929   */\n      0x20\n        /* \"contracts/MenuManager.sol\":857:906  require(restaurantId > 0, \"Invalid restaurantId\") */\n      0x04\n      dup3\n      add\n        /* \"#utility.yul\":11909:11930   */\n      mstore\n        /* \"#utility.yul\":11966:11968   */\n      0x14\n        /* \"#utility.yul\":11946:11964   */\n      0x24\n      dup3\n      add\n        /* \"#utility.yul\":11939:11969   */\n      mstore\n      shl(0x62, 0x125b9d985b1a59081c995cdd185d5c985b9d1259)\n        /* \"#utility.yul\":11985:12003   */\n      0x44\n      dup3\n      add\n        /* \"#utility.yul\":11978:12028   */\n      mstore\n        /* \"#utility.yul\":12045:12063   */\n      0x64\n      add\n        /* \"contracts/MenuManager.sol\":857:906  require(restaurantId > 0, \"Invalid restaurantId\") */\n      tag_101\n        /* \"#utility.yul\":11725:12069   */\n      jump\n        /* \"contracts/MenuManager.sol\":857:906  require(restaurantId > 0, \"Invalid restaurantId\") */\n    tag_193:\n        /* \"contracts/MenuManager.sol\":943:944  0 */\n      0x00\n        /* \"contracts/MenuManager.sol\":925:940  preparationTime */\n      dup2\n      sub(shl(0x80, 0x01), 0x01)\n        /* \"contracts/MenuManager.sol\":925:944  preparationTime > 0 */\n      and\n      gt\n        /* \"contracts/MenuManager.sol\":917:973  require(preparationTime > 0, \"Invalid preparation time\") */\n      tag_196\n      jumpi\n      mload(0x40)\n      shl(0xe5, 0x461bcd)\n      dup2\n      mstore\n        /* \"#utility.yul\":12276:12278   */\n      0x20\n        /* \"contracts/MenuManager.sol\":917:973  require(preparationTime > 0, \"Invalid preparation time\") */\n      0x04\n      dup3\n      add\n        /* \"#utility.yul\":12258:12279   */\n      mstore\n        /* \"#utility.yul\":12315:12317   */\n      0x18\n        /* \"#utility.yul\":12295:12313   */\n      0x24\n      dup3\n      add\n        /* \"#utility.yul\":12288:12318   */\n      mstore\n        /* \"#utility.yul\":12354:12380   */\n      0x496e76616c6964207072657061726174696f6e2074696d650000000000000000\n        /* \"#utility.yul\":12334:12352   */\n      0x44\n      dup3\n      add\n        /* \"#utility.yul\":12327:12381   */\n      mstore\n        /* \"#utility.yul\":12398:12416   */\n      0x64\n      add\n        /* \"contracts/MenuManager.sol\":917:973  require(preparationTime > 0, \"Invalid preparation time\") */\n      tag_101\n        /* \"#utility.yul\":12074:12422   */\n      jump\n        /* \"contracts/MenuManager.sol\":917:973  require(preparationTime > 0, \"Invalid preparation time\") */\n    tag_196:\n        /* \"contracts/MenuManager.sol\":1029:1379  MenuItem({... */\n      0x40\n      dup1\n      mload\n      0x0140\n      dup2\n      add\n      dup3\n      mstore\n        /* \"contracts/MenuManager.sol\":1057:1067  nextMenuId */\n      sload(0x02)\n      sub(shl(0x80, 0x01), 0x01)\n      swap1\n      dup2\n      and\n        /* \"contracts/MenuManager.sol\":1029:1379  MenuItem({... */\n      dup1\n      dup4\n      mstore\n      dup10\n      dup3\n      and\n      0x20\n      dup1\n      dup6\n      add\n      dup3\n      dup2\n      mstore\n      dup6\n      dup8\n      add\n      dup13\n      dup2\n      mstore\n      dup12\n      dup7\n      and\n      0x60\n      dup9\n      add\n      mstore\n        /* \"contracts/MenuManager.sol\":1057:1067  nextMenuId */\n      0x01\n        /* \"contracts/MenuManager.sol\":1029:1379  MenuItem({... */\n      0x80\n      dup9\n      add\n      dup2\n      swap1\n      mstore\n      0xa0\n      dup9\n      add\n      dup13\n      swap1\n      mstore\n      0xc0\n      dup9\n      add\n      dup12\n      swap1\n      mstore\n      0x00\n      0xe0\n      dup10\n      add\n      dup2\n      swap1\n      mstore\n        /* \"contracts/MenuManager.sol\":1057:1067  nextMenuId */\n      0x0100\n        /* \"contracts/MenuManager.sol\":1029:1379  MenuItem({... */\n      dup10\n      add\n      dup2\n      swap1\n      mstore\n      dup11\n      dup9\n      and\n      0x0120\n      dup11\n      add\n      mstore\n        /* \"contracts/MenuManager.sol\":984:1014  menuByRestaurant[restaurantId] */\n      swap5\n      dup6\n      mstore\n        /* \"contracts/MenuManager.sol\":984:1000  menuByRestaurant */\n      0x03\n        /* \"contracts/MenuManager.sol\":984:1014  menuByRestaurant[restaurantId] */\n      dup5\n      mstore\n      dup9\n      dup6\n      keccak256\n        /* \"contracts/MenuManager.sol\":984:1026  menuByRestaurant[restaurantId][nextMenuId] */\n      swap6\n      dup6\n      mstore\n      swap5\n      swap1\n      swap3\n      mstore\n      swap6\n      swap1\n      swap2\n      keccak256\n        /* \"contracts/MenuManager.sol\":984:1379  menuByRestaurant[restaurantId][nextMenuId] = MenuItem({... */\n      dup5\n      mload\n      swap6\n      mload\n      dup5\n      and\n      shl(0x80, 0x01)\n      mul\n      swap6\n      swap1\n      swap4\n      and\n      swap5\n      swap1\n      swap5\n      or\n      dup3\n      sstore\n      swap3\n      mload\n        /* \"contracts/MenuManager.sol\":1029:1379  MenuItem({... */\n      swap2\n      swap3\n        /* \"contracts/MenuManager.sol\":984:1026  menuByRestaurant[restaurantId][nextMenuId] */\n      swap1\n      swap2\n        /* \"contracts/MenuManager.sol\":984:1379  menuByRestaurant[restaurantId][nextMenuId] = MenuItem({... */\n      swap1\n      dup3\n      add\n      swap1\n      tag_199\n      swap1\n      dup3\n      tag_108\n      jump\t// in\n    tag_199:\n      pop\n      0x60\n      dup3\n      add\n      mload\n      0x02\n      dup3\n      add\n      dup1\n      sload\n      0x80\n      dup6\n      add\n      mload\n      iszero\n      iszero\n      shl(0x80, 0x01)\n      mul\n      not(sub(shl(0x88, 0x01), 0x01))\n      swap1\n      swap2\n      and\n      sub(shl(0x80, 0x01), 0x01)\n      swap1\n      swap4\n      and\n      swap3\n      swap1\n      swap3\n      or\n      swap2\n      swap1\n      swap2\n      or\n      swap1\n      sstore\n      0xa0\n      dup3\n      add\n      mload\n      0x03\n      dup3\n      add\n      swap1\n      tag_200\n      swap1\n      dup3\n      tag_108\n      jump\t// in\n    tag_200:\n      pop\n      0xc0\n      dup3\n      add\n      mload\n      0x04\n      dup3\n      add\n      swap1\n      tag_201\n      swap1\n      dup3\n      tag_108\n      jump\t// in\n    tag_201:\n      pop\n      0xe0\n      dup3\n      add\n      mload\n      0x0100\n      dup4\n      add\n      mload\n      sub(shl(0x80, 0x01), 0x01)\n      swap2\n      dup3\n      and\n      shl(0x80, 0x01)\n      swap2\n      dup4\n      and\n      swap2\n      swap1\n      swap2\n      mul\n      or\n      0x05\n      dup4\n      add\n      sstore\n      0x0120\n      swap1\n      swap3\n      add\n      mload\n      0x06\n      swap1\n      swap2\n      add\n      dup1\n      sload\n      not(sub(shl(0x80, 0x01), 0x01))\n      and\n      swap2\n      dup4\n      and\n      swap2\n      swap1\n      swap2\n      or\n      swap1\n      sstore\n        /* \"contracts/MenuManager.sol\":1409:1419  nextMenuId */\n      sload(0x02)\n        /* \"contracts/MenuManager.sol\":1395:1440  MenuItemAdded(nextMenuId, restaurantId, name) */\n      mload(0x40)\n      dup9\n      dup4\n      and\n      swap3\n        /* \"contracts/MenuManager.sol\":1409:1419  nextMenuId */\n      swap2\n      swap1\n      swap2\n      and\n      swap1\n        /* \"contracts/MenuManager.sol\":1395:1440  MenuItemAdded(nextMenuId, restaurantId, name) */\n      0x16c3bb758075933856ebc4132418c1e40e2757b27275fa2fd2de8c38e4e54b8e\n      swap1\n      tag_202\n      swap1\n        /* \"contracts/MenuManager.sol\":1435:1439  name */\n      dup10\n      swap1\n        /* \"contracts/MenuManager.sol\":1395:1440  MenuItemAdded(nextMenuId, restaurantId, name) */\n      tag_203\n      jump\t// in\n    tag_202:\n      mload(0x40)\n      dup1\n      swap2\n      sub\n      swap1\n      log3\n        /* \"contracts/MenuManager.sol\":1451:1461  nextMenuId */\n      0x02\n        /* \"contracts/MenuManager.sol\":1451:1463  nextMenuId++ */\n      dup1\n      sload\n      sub(shl(0x80, 0x01), 0x01)\n      and\n      swap1\n        /* \"contracts/MenuManager.sol\":1451:1461  nextMenuId */\n      0x00\n        /* \"contracts/MenuManager.sol\":1451:1463  nextMenuId++ */\n      tag_204\n      dup4\n      tag_205\n      jump\t// in\n    tag_204:\n      swap2\n      swap1\n      0x0100\n      exp\n      dup2\n      sload\n      dup2\n      sub(shl(0x80, 0x01), 0x01)\n      mul\n      not\n      and\n      swap1\n      dup4\n      sub(shl(0x80, 0x01), 0x01)\n      and\n      mul\n      or\n      swap1\n      sstore\n      pop\n      pop\n        /* \"contracts/MenuManager.sol\":603:1471  function addMenuItem(... */\n      pop\n      pop\n      pop\n      pop\n      pop\n      pop\n      jump\t// out\n        /* \"@openzeppelin/contracts-upgradeable/access/OwnableUpgradeable.sol\":3405:3620  function transferOwnership(address newOwner) public virtual onlyOwner {... */\n    tag_71:\n        /* \"@openzeppelin/contracts-upgradeable/access/OwnableUpgradeable.sol\":2334:2347  _checkOwner() */\n      tag_207\n        /* \"@openzeppelin/contracts-upgradeable/access/OwnableUpgradeable.sol\":2334:2345  _checkOwner */\n      tag_127\n        /* \"@openzeppelin/contracts-upgradeable/access/OwnableUpgradeable.sol\":2334:2347  _checkOwner() */\n      jump\t// in\n    tag_207:\n      sub(shl(0xa0, 0x01), 0x01)\n        /* \"@openzeppelin/contracts-upgradeable/access/OwnableUpgradeable.sol\":3489:3511  newOwner == address(0) */\n      dup2\n      and\n        /* \"@openzeppelin/contracts-upgradeable/access/OwnableUpgradeable.sol\":3485:3576  if (newOwner == address(0)) {... */\n      tag_209\n      jumpi\n        /* \"@openzeppelin/contracts-upgradeable/access/OwnableUpgradeable.sol\":3534:3565  OwnableInvalidOwner(address(0)) */\n      mload(0x40)\n      shl(0xe0, 0x1e4fbdf7)\n      dup2\n      mstore\n        /* \"@openzeppelin/contracts-upgradeable/access/OwnableUpgradeable.sol\":3562:3563  0 */\n      0x00\n        /* \"@openzeppelin/contracts-upgradeable/access/OwnableUpgradeable.sol\":3534:3565  OwnableInvalidOwner(address(0)) */\n      0x04\n      dup3\n      add\n        /* \"#utility.yul\":5271:5322   */\n      mstore\n        /* \"#utility.yul\":5244:5262   */\n      0x24\n      add\n        /* \"@openzeppelin/contracts-upgradeable/access/OwnableUpgradeable.sol\":3534:3565  OwnableInvalidOwner(address(0)) */\n      tag_101\n        /* \"#utility.yul\":5125:5328   */\n      jump\n        /* \"@openzeppelin/contracts-upgradeable/access/OwnableUpgradeable.sol\":3485:3576  if (newOwner == address(0)) {... */\n    tag_209:\n        /* \"@openzeppelin/contracts-upgradeable/access/OwnableUpgradeable.sol\":3585:3613  _transferOwnership(newOwner) */\n      tag_211\n        /* \"@openzeppelin/contracts-upgradeable/access/OwnableUpgradeable.sol\":3604:3612  newOwner */\n      dup2\n        /* \"@openzeppelin/contracts-upgradeable/access/OwnableUpgradeable.sol\":3585:3603  _transferOwnership */\n      tag_130\n        /* \"@openzeppelin/contracts-upgradeable/access/OwnableUpgradeable.sol\":3585:3613  _transferOwnership(newOwner) */\n      jump\t// in\n    tag_211:\n        /* \"@openzeppelin/contracts-upgradeable/access/OwnableUpgradeable.sol\":3405:3620  function transferOwnership(address newOwner) public virtual onlyOwner {... */\n      pop\n      jump\t// out\n        /* \"@openzeppelin/contracts-upgradeable/access/OwnableUpgradeable.sol\":2658:2820  function _checkOwner() internal view virtual {... */\n    tag_127:\n        /* \"@openzeppelin/contracts-upgradeable/utils/ContextUpgradeable.sol\":966:976  msg.sender */\n      caller\n        /* \"@openzeppelin/contracts-upgradeable/access/OwnableUpgradeable.sol\":2717:2724  owner() */\n      tag_215\n        /* \"@openzeppelin/contracts-upgradeable/access/OwnableUpgradeable.sol\":1313:1335  OwnableStorageLocation */\n      0x9016d09d72d40fdae2fd8ceac6b6234c7706214fd39c1cd1e609a0528c199300\n        /* \"@openzeppelin/contracts-upgradeable/access/OwnableUpgradeable.sol\":2570:2578  $._owner */\n      sload\n      sub(shl(0xa0, 0x01), 0x01)\n      and\n      swap1\n        /* \"@openzeppelin/contracts-upgradeable/access/OwnableUpgradeable.sol\":2441:2585  function owner() public view virtual returns (address) {... */\n      jump\n        /* \"@openzeppelin/contracts-upgradeable/access/OwnableUpgradeable.sol\":2717:2724  owner() */\n    tag_215:\n      sub(shl(0xa0, 0x01), 0x01)\n        /* \"@openzeppelin/contracts-upgradeable/access/OwnableUpgradeable.sol\":2717:2740  owner() != _msgSender() */\n      and\n      eq\n        /* \"@openzeppelin/contracts-upgradeable/access/OwnableUpgradeable.sol\":2713:2814  if (owner() != _msgSender()) {... */\n      tag_129\n      jumpi\n        /* \"@openzeppelin/contracts-upgradeable/access/OwnableUpgradeable.sol\":2763:2803  OwnableUnauthorizedAccount(_msgSender()) */\n      mload(0x40)\n      shl(0xe0, 0x118cdaa7)\n      dup2\n      mstore\n        /* \"@openzeppelin/contracts-upgradeable/utils/ContextUpgradeable.sol\":966:976  msg.sender */\n      caller\n        /* \"@openzeppelin/contracts-upgradeable/access/OwnableUpgradeable.sol\":2763:2803  OwnableUnauthorizedAccount(_msgSender()) */\n      0x04\n      dup3\n      add\n        /* \"#utility.yul\":5271:5322   */\n      mstore\n        /* \"#utility.yul\":5244:5262   */\n      0x24\n      add\n        /* \"@openzeppelin/contracts-upgradeable/access/OwnableUpgradeable.sol\":2763:2803  OwnableUnauthorizedAccount(_msgSender()) */\n      tag_101\n        /* \"#utility.yul\":5125:5328   */\n      jump\n        /* \"@openzeppelin/contracts-upgradeable/access/OwnableUpgradeable.sol\":3774:4022  function _transferOwnership(address newOwner) internal virtual {... */\n    tag_130:\n        /* \"@openzeppelin/contracts-upgradeable/access/OwnableUpgradeable.sol\":1313:1335  OwnableStorageLocation */\n      0x9016d09d72d40fdae2fd8ceac6b6234c7706214fd39c1cd1e609a0528c199300\n        /* \"@openzeppelin/contracts-upgradeable/access/OwnableUpgradeable.sol\":3923:3931  $._owner */\n      dup1\n      sload\n      not(sub(shl(0xa0, 0x01), 0x01))\n        /* \"@openzeppelin/contracts-upgradeable/access/OwnableUpgradeable.sol\":3941:3960  $._owner = newOwner */\n      dup2\n      and\n      sub(shl(0xa0, 0x01), 0x01)\n      dup5\n      dup2\n      and\n      swap2\n      dup3\n      or\n      dup5\n      sstore\n        /* \"@openzeppelin/contracts-upgradeable/access/OwnableUpgradeable.sol\":3975:4015  OwnershipTransferred(oldOwner, newOwner) */\n      mload(0x40)\n        /* \"@openzeppelin/contracts-upgradeable/access/OwnableUpgradeable.sol\":3923:3931  $._owner */\n      swap3\n      and\n      swap2\n      dup3\n      swap1\n        /* \"@openzeppelin/contracts-upgradeable/access/OwnableUpgradeable.sol\":3975:4015  OwnershipTransferred(oldOwner, newOwner) */\n      0x8be0079c531659141344cd1fd0a4f28419497f9722a3daafe3b4186f6b6457e0\n      swap1\n        /* \"@openzeppelin/contracts-upgradeable/access/OwnableUpgradeable.sol\":3847:3871  OwnableStorage storage $ */\n      0x00\n      swap1\n        /* \"@openzeppelin/contracts-upgradeable/access/OwnableUpgradeable.sol\":3975:4015  OwnershipTransferred(oldOwner, newOwner) */\n      log3\n        /* \"@openzeppelin/contracts-upgradeable/access/OwnableUpgradeable.sol\":3837:4022  {... */\n      pop\n      pop\n        /* \"@openzeppelin/contracts-upgradeable/access/OwnableUpgradeable.sol\":3774:4022  function _transferOwnership(address newOwner) internal virtual {... */\n      pop\n      jump\t// out\n        /* \"@openzeppelin/contracts-upgradeable/access/OwnableUpgradeable.sol\":1847:1974  function __Ownable_init(address initialOwner) internal onlyInitializing {... */\n    tag_164:\n        /* \"@openzeppelin/contracts-upgradeable/proxy/utils/Initializable.sol\":6929:6949  _checkInitializing() */\n      tag_226\n        /* \"@openzeppelin/contracts-upgradeable/proxy/utils/Initializable.sol\":6929:6947  _checkInitializing */\n      tag_227\n        /* \"@openzeppelin/contracts-upgradeable/proxy/utils/Initializable.sol\":6929:6949  _checkInitializing() */\n      jump\t// in\n    tag_226:\n        /* \"@openzeppelin/contracts-upgradeable/access/OwnableUpgradeable.sol\":1929:1967  __Ownable_init_unchained(initialOwner) */\n      tag_211\n        /* \"@openzeppelin/contracts-upgradeable/access/OwnableUpgradeable.sol\":1954:1966  initialOwner */\n      dup2\n        /* \"@openzeppelin/contracts-upgradeable/access/OwnableUpgradeable.sol\":1929:1953  __Ownable_init_unchained */\n      tag_230\n        /* \"@openzeppelin/contracts-upgradeable/access/OwnableUpgradeable.sol\":1929:1967  __Ownable_init_unchained(initialOwner) */\n      jump\t// in\n        /* \"access/RoleAccess.sol\":668:761  function initializeRoles(address admin) internal {... */\n    tag_166:\n      sub(shl(0xa0, 0x01), 0x01)\n        /* \"access/RoleAccess.sol\":728:740  roles[admin] */\n      dup2\n      and\n        /* \"access/RoleAccess.sol\":743:753  Role.Admin */\n      0x00\n        /* \"access/RoleAccess.sol\":728:740  roles[admin] */\n      swap1\n      dup2\n      mstore\n      0x20\n      dup2\n      swap1\n      mstore\n      0x40\n      dup2\n      keccak256\n        /* \"access/RoleAccess.sol\":728:753  roles[admin] = Role.Admin */\n      dup1\n      sload\n      not(0xff)\n      and\n      0x01\n        /* \"access/RoleAccess.sol\":743:753  Role.Admin */\n      dup4\n        /* \"access/RoleAccess.sol\":728:753  roles[admin] = Role.Admin */\n      jump(tag_153)\n        /* \"@openzeppelin/contracts-upgradeable/proxy/utils/Initializable.sol\":7082:7223  function _checkInitializing() internal view virtual {... */\n    tag_227:\n        /* \"@openzeppelin/contracts-upgradeable/proxy/utils/Initializable.sol\":3147:3213  0xf0c57e16840df040f15088dc2f81fe391c3923bec73e23a9662efc9c229c6a00 */\n      0xf0c57e16840df040f15088dc2f81fe391c3923bec73e23a9662efc9c229c6a00\n        /* \"@openzeppelin/contracts-upgradeable/proxy/utils/Initializable.sol\":8558:8598  _getInitializableStorage()._initializing */\n      sload\n      shl(0x40, 0x01)\n      swap1\n      div\n      0xff\n      and\n        /* \"@openzeppelin/contracts-upgradeable/proxy/utils/Initializable.sol\":7144:7217  if (!_isInitializing()) {... */\n      tag_129\n      jumpi\n        /* \"@openzeppelin/contracts-upgradeable/proxy/utils/Initializable.sol\":7189:7206  NotInitializing() */\n      mload(0x40)\n      shl(0xe3, 0x1afcd79f)\n      dup2\n      mstore\n      0x04\n      add\n      mload(0x40)\n      dup1\n      swap2\n      sub\n      swap1\n      revert\n        /* \"@openzeppelin/contracts-upgradeable/access/OwnableUpgradeable.sol\":1980:2215  function __Ownable_init_unchained(address initialOwner) internal onlyInitializing {... */\n    tag_230:\n        /* \"@openzeppelin/contracts-upgradeable/proxy/utils/Initializable.sol\":6929:6949  _checkInitializing() */\n      tag_207\n        /* \"@openzeppelin/contracts-upgradeable/proxy/utils/Initializable.sol\":6929:6947  _checkInitializing */\n      tag_227\n        /* \"@openzeppelin/contracts-upgradeable/proxy/utils/Initializable.sol\":6929:6949  _checkInitializing() */\n      jump\t// in\n    tag_122:\n      pop\n      dup1\n      sload\n      tag_248\n      swap1\n      tag_79\n      jump\t// in\n    tag_248:\n      0x00\n      dup3\n      sstore\n      dup1\n      0x1f\n      lt\n      tag_250\n      jumpi\n      pop\n      pop\n      jump\t// out\n    tag_250:\n      0x1f\n      add\n      0x20\n      swap1\n      div\n      swap1\n      0x00\n      mstore\n      keccak256(0x00, 0x20)\n      swap1\n      dup2\n      add\n      swap1\n      tag_211\n      swap2\n      swap1\n    tag_253:\n      dup1\n      dup3\n      gt\n      iszero\n      tag_254\n      jumpi\n      0x00\n      dup2\n      sstore\n      0x01\n      add\n      jump(tag_253)\n    tag_254:\n      pop\n      swap1\n      jump\t// out\n        /* \"#utility.yul\":14:202   */\n    tag_255:\n        /* \"#utility.yul\":82:102   */\n      dup1\n      calldataload\n      sub(shl(0x80, 0x01), 0x01)\n        /* \"#utility.yul\":131:177   */\n      dup2\n      and\n        /* \"#utility.yul\":121:178   */\n      dup2\n      eq\n        /* \"#utility.yul\":111:196   */\n      tag_267\n      jumpi\n        /* \"#utility.yul\":192:193   */\n      0x00\n        /* \"#utility.yul\":189:190   */\n      0x00\n        /* \"#utility.yul\":182:194   */\n      revert\n        /* \"#utility.yul\":111:196   */\n    tag_267:\n        /* \"#utility.yul\":14:202   */\n      swap2\n      swap1\n      pop\n      jump\t// out\n        /* \"#utility.yul\":207:467   */\n    tag_22:\n        /* \"#utility.yul\":275:281   */\n      0x00\n        /* \"#utility.yul\":283:289   */\n      0x00\n        /* \"#utility.yul\":336:338   */\n      0x40\n        /* \"#utility.yul\":324:333   */\n      dup4\n        /* \"#utility.yul\":315:322   */\n      dup6\n        /* \"#utility.yul\":311:334   */\n      sub\n        /* \"#utility.yul\":307:339   */\n      slt\n        /* \"#utility.yul\":304:356   */\n      iszero\n      tag_269\n      jumpi\n        /* \"#utility.yul\":352:353   */\n      0x00\n        /* \"#utility.yul\":349:350   */\n      0x00\n        /* \"#utility.yul\":342:354   */\n      revert\n        /* \"#utility.yul\":304:356   */\n    tag_269:\n        /* \"#utility.yul\":375:404   */\n      tag_270\n        /* \"#utility.yul\":394:403   */\n      dup4\n        /* \"#utility.yul\":375:404   */\n      tag_255\n      jump\t// in\n    tag_270:\n        /* \"#utility.yul\":365:404   */\n      swap2\n      pop\n        /* \"#utility.yul\":423:461   */\n      tag_271\n        /* \"#utility.yul\":457:459   */\n      0x20\n        /* \"#utility.yul\":446:455   */\n      dup5\n        /* \"#utility.yul\":442:460   */\n      add\n        /* \"#utility.yul\":423:461   */\n      tag_255\n      jump\t// in\n    tag_271:\n        /* \"#utility.yul\":413:461   */\n      swap1\n      pop\n        /* \"#utility.yul\":207:467   */\n      swap3\n      pop\n      swap3\n      swap1\n      pop\n      jump\t// out\n        /* \"#utility.yul\":596:885   */\n    tag_257:\n        /* \"#utility.yul\":638:641   */\n      0x00\n        /* \"#utility.yul\":676:681   */\n      dup2\n        /* \"#utility.yul\":670:682   */\n      mload\n        /* \"#utility.yul\":703:709   */\n      dup1\n        /* \"#utility.yul\":698:701   */\n      dup5\n        /* \"#utility.yul\":691:710   */\n      mstore\n        /* \"#utility.yul\":759:765   */\n      dup1\n        /* \"#utility.yul\":752:756   */\n      0x20\n        /* \"#utility.yul\":745:750   */\n      dup5\n        /* \"#utility.yul\":741:757   */\n      add\n        /* \"#utility.yul\":734:738   */\n      0x20\n        /* \"#utility.yul\":729:732   */\n      dup7\n        /* \"#utility.yul\":725:739   */\n      add\n        /* \"#utility.yul\":719:766   */\n      mcopy\n        /* \"#utility.yul\":811:812   */\n      0x00\n        /* \"#utility.yul\":804:808   */\n      0x20\n        /* \"#utility.yul\":795:801   */\n      dup3\n        /* \"#utility.yul\":790:793   */\n      dup7\n        /* \"#utility.yul\":786:802   */\n      add\n        /* \"#utility.yul\":782:809   */\n      add\n        /* \"#utility.yul\":775:813   */\n      mstore\n        /* \"#utility.yul\":874:878   */\n      0x20\n        /* \"#utility.yul\":867:869   */\n      0x1f\n        /* \"#utility.yul\":863:870   */\n      not\n        /* \"#utility.yul\":858:860   */\n      0x1f\n        /* \"#utility.yul\":850:856   */\n      dup4\n        /* \"#utility.yul\":846:861   */\n      add\n        /* \"#utility.yul\":842:871   */\n      and\n        /* \"#utility.yul\":837:840   */\n      dup6\n        /* \"#utility.yul\":833:872   */\n      add\n        /* \"#utility.yul\":829:879   */\n      add\n        /* \"#utility.yul\":822:879   */\n      swap2\n      pop\n      pop\n        /* \"#utility.yul\":596:885   */\n      swap3\n      swap2\n      pop\n      pop\n      jump\t// out\n        /* \"#utility.yul\":986:2519   */\n    tag_25:\n        /* \"#utility.yul\":1167:1169   */\n      0x20\n        /* \"#utility.yul\":1156:1165   */\n      dup2\n        /* \"#utility.yul\":1149:1170   */\n      mstore\n        /* \"#utility.yul\":1179:1232   */\n      tag_276\n        /* \"#utility.yul\":1228:1230   */\n      0x20\n        /* \"#utility.yul\":1217:1226   */\n      dup3\n        /* \"#utility.yul\":1213:1231   */\n      add\n        /* \"#utility.yul\":1204:1210   */\n      dup4\n        /* \"#utility.yul\":1198:1211   */\n      mload\n      sub(shl(0x80, 0x01), 0x01)\n        /* \"#utility.yul\":538:584   */\n      and\n        /* \"#utility.yul\":526:585   */\n      swap1\n      mstore\n        /* \"#utility.yul\":472:591   */\n      jump\n        /* \"#utility.yul\":1179:1232   */\n    tag_276:\n        /* \"#utility.yul\":1130:1134   */\n      0x00\n        /* \"#utility.yul\":1279:1281   */\n      0x20\n        /* \"#utility.yul\":1271:1277   */\n      dup4\n        /* \"#utility.yul\":1267:1282   */\n      add\n        /* \"#utility.yul\":1261:1283   */\n      mload\n        /* \"#utility.yul\":1292:1344   */\n      tag_277\n        /* \"#utility.yul\":1340:1342   */\n      0x40\n        /* \"#utility.yul\":1329:1338   */\n      dup5\n        /* \"#utility.yul\":1325:1343   */\n      add\n        /* \"#utility.yul\":1311:1323   */\n      dup3\n      sub(shl(0x80, 0x01), 0x01)\n        /* \"#utility.yul\":538:584   */\n      and\n        /* \"#utility.yul\":526:585   */\n      swap1\n      mstore\n        /* \"#utility.yul\":472:591   */\n      jump\n        /* \"#utility.yul\":1292:1344   */\n    tag_277:\n      pop\n        /* \"#utility.yul\":1393:1395   */\n      0x40\n        /* \"#utility.yul\":1385:1391   */\n      dup4\n        /* \"#utility.yul\":1381:1396   */\n      add\n        /* \"#utility.yul\":1375:1397   */\n      mload\n        /* \"#utility.yul\":1433:1439   */\n      0x0140\n        /* \"#utility.yul\":1428:1430   */\n      0x60\n        /* \"#utility.yul\":1417:1426   */\n      dup5\n        /* \"#utility.yul\":1413:1431   */\n      add\n        /* \"#utility.yul\":1406:1440   */\n      mstore\n        /* \"#utility.yul\":1463:1517   */\n      tag_278\n        /* \"#utility.yul\":1512:1515   */\n      0x0160\n        /* \"#utility.yul\":1501:1510   */\n      dup5\n        /* \"#utility.yul\":1497:1516   */\n      add\n        /* \"#utility.yul\":1481:1495   */\n      dup3\n        /* \"#utility.yul\":1463:1517   */\n      tag_257\n      jump\t// in\n    tag_278:\n        /* \"#utility.yul\":1449:1517   */\n      swap1\n      pop\n        /* \"#utility.yul\":1566:1568   */\n      0x60\n        /* \"#utility.yul\":1558:1564   */\n      dup5\n        /* \"#utility.yul\":1554:1569   */\n      add\n        /* \"#utility.yul\":1548:1570   */\n      mload\n        /* \"#utility.yul\":1579:1634   */\n      tag_279\n        /* \"#utility.yul\":1629:1632   */\n      0x80\n        /* \"#utility.yul\":1618:1627   */\n      dup6\n        /* \"#utility.yul\":1614:1633   */\n      add\n        /* \"#utility.yul\":1598:1612   */\n      dup3\n      sub(shl(0x80, 0x01), 0x01)\n        /* \"#utility.yul\":538:584   */\n      and\n        /* \"#utility.yul\":526:585   */\n      swap1\n      mstore\n        /* \"#utility.yul\":472:591   */\n      jump\n        /* \"#utility.yul\":1579:1634   */\n    tag_279:\n      pop\n        /* \"#utility.yul\":1683:1686   */\n      0x80\n        /* \"#utility.yul\":1671:1687   */\n      dup5\n      add\n        /* \"#utility.yul\":1665:1688   */\n      mload\n        /* \"#utility.yul\":960:973   */\n      dup1\n      iszero\n        /* \"#utility.yul\":953:974   */\n      iszero\n        /* \"#utility.yul\":1744:1747   */\n      0xa0\n        /* \"#utility.yul\":1729:1748   */\n      dup6\n      add\n        /* \"#utility.yul\":941:975   */\n      mstore\n      pop\n        /* \"#utility.yul\":1798:1801   */\n      0xa0\n        /* \"#utility.yul\":1786:1802   */\n      dup5\n      add\n        /* \"#utility.yul\":1780:1803   */\n      mload\n        /* \"#utility.yul\":1844:1866   */\n      dup4\n      dup3\n      sub\n      not(0x1f)\n        /* \"#utility.yul\":1840:1876   */\n      add\n        /* \"#utility.yul\":1834:1837   */\n      0xc0\n        /* \"#utility.yul\":1819:1838   */\n      dup6\n      add\n        /* \"#utility.yul\":1812:1877   */\n      mstore\n        /* \"#utility.yul\":1900:1941   */\n      tag_281\n        /* \"#utility.yul\":1848:1854   */\n      dup3\n        /* \"#utility.yul\":1780:1803   */\n      dup3\n        /* \"#utility.yul\":1900:1941   */\n      tag_257\n      jump\t// in\n    tag_281:\n        /* \"#utility.yul\":1886:1941   */\n      swap2\n      pop\n      pop\n        /* \"#utility.yul\":1990:1993   */\n      0xc0\n        /* \"#utility.yul\":1982:1988   */\n      dup5\n        /* \"#utility.yul\":1978:1994   */\n      add\n        /* \"#utility.yul\":1972:1995   */\n      mload\n        /* \"#utility.yul\":2064:2066   */\n      0x1f\n        /* \"#utility.yul\":2060:2067   */\n      not\n        /* \"#utility.yul\":2048:2057   */\n      dup5\n        /* \"#utility.yul\":2040:2046   */\n      dup4\n        /* \"#utility.yul\":2036:2058   */\n      sub\n        /* \"#utility.yul\":2032:2068   */\n      add\n        /* \"#utility.yul\":2026:2029   */\n      0xe0\n        /* \"#utility.yul\":2015:2024   */\n      dup6\n        /* \"#utility.yul\":2011:2030   */\n      add\n        /* \"#utility.yul\":2004:2069   */\n      mstore\n        /* \"#utility.yul\":2092:2133   */\n      tag_282\n        /* \"#utility.yul\":2126:2132   */\n      dup3\n        /* \"#utility.yul\":2110:2124   */\n      dup3\n        /* \"#utility.yul\":2092:2133   */\n      tag_257\n      jump\t// in\n    tag_282:\n        /* \"#utility.yul\":2078:2133   */\n      swap2\n      pop\n      pop\n        /* \"#utility.yul\":2182:2185   */\n      0xe0\n        /* \"#utility.yul\":2174:2180   */\n      dup5\n        /* \"#utility.yul\":2170:2186   */\n      add\n        /* \"#utility.yul\":2164:2187   */\n      mload\n        /* \"#utility.yul\":2196:2251   */\n      tag_283\n        /* \"#utility.yul\":2246:2249   */\n      0x0100\n        /* \"#utility.yul\":2235:2244   */\n      dup6\n        /* \"#utility.yul\":2231:2250   */\n      add\n        /* \"#utility.yul\":2215:2229   */\n      dup3\n      sub(shl(0x80, 0x01), 0x01)\n        /* \"#utility.yul\":538:584   */\n      and\n        /* \"#utility.yul\":526:585   */\n      swap1\n      mstore\n        /* \"#utility.yul\":472:591   */\n      jump\n        /* \"#utility.yul\":2196:2251   */\n    tag_283:\n      pop\n        /* \"#utility.yul\":2300:2303   */\n      0x0100\n        /* \"#utility.yul\":2288:2304   */\n      dup5\n      add\n        /* \"#utility.yul\":2282:2305   */\n      mload\n      sub(shl(0x80, 0x01), 0x01)\n        /* \"#utility.yul\":538:584   */\n      dup2\n      and\n        /* \"#utility.yul\":2364:2367   */\n      0x0120\n        /* \"#utility.yul\":2349:2368   */\n      dup6\n      add\n        /* \"#utility.yul\":526:585   */\n      mstore\n      pop\n        /* \"#utility.yul\":2418:2421   */\n      0x0120\n        /* \"#utility.yul\":2406:2422   */\n      dup5\n      add\n        /* \"#utility.yul\":2400:2423   */\n      mload\n      sub(shl(0x80, 0x01), 0x01)\n        /* \"#utility.yul\":538:584   */\n      dup2\n      and\n        /* \"#utility.yul\":2482:2488   */\n      0x0140\n        /* \"#utility.yul\":2467:2489   */\n      dup6\n      add\n        /* \"#utility.yul\":526:585   */\n      mstore\n      pop\n        /* \"#utility.yul\":2507:2513   */\n      swap4\n        /* \"#utility.yul\":986:2519   */\n      swap3\n      pop\n      pop\n      pop\n      jump\t// out\n        /* \"#utility.yul\":2524:2697   */\n    tag_259:\n        /* \"#utility.yul\":2592:2612   */\n      dup1\n      calldataload\n      sub(shl(0xa0, 0x01), 0x01)\n        /* \"#utility.yul\":2641:2672   */\n      dup2\n      and\n        /* \"#utility.yul\":2631:2673   */\n      dup2\n      eq\n        /* \"#utility.yul\":2621:2691   */\n      tag_267\n      jumpi\n        /* \"#utility.yul\":2687:2688   */\n      0x00\n        /* \"#utility.yul\":2684:2685   */\n      0x00\n        /* \"#utility.yul\":2677:2689   */\n      revert\n        /* \"#utility.yul\":2702:2888   */\n    tag_28:\n        /* \"#utility.yul\":2761:2767   */\n      0x00\n        /* \"#utility.yul\":2814:2816   */\n      0x20\n        /* \"#utility.yul\":2802:2811   */\n      dup3\n        /* \"#utility.yul\":2793:2800   */\n      dup5\n        /* \"#utility.yul\":2789:2812   */\n      sub\n        /* \"#utility.yul\":2785:2817   */\n      slt\n        /* \"#utility.yul\":2782:2834   */\n      iszero\n      tag_289\n      jumpi\n        /* \"#utility.yul\":2830:2831   */\n      0x00\n        /* \"#utility.yul\":2827:2828   */\n      0x00\n        /* \"#utility.yul\":2820:2832   */\n      revert\n        /* \"#utility.yul\":2782:2834   */\n    tag_289:\n        /* \"#utility.yul\":2853:2882   */\n      tag_290\n        /* \"#utility.yul\":2872:2881   */\n      dup3\n        /* \"#utility.yul\":2853:2882   */\n      tag_259\n      jump\t// in\n    tag_290:\n        /* \"#utility.yul\":2843:2882   */\n      swap4\n        /* \"#utility.yul\":2702:2888   */\n      swap3\n      pop\n      pop\n      pop\n      jump\t// out\n        /* \"#utility.yul\":3116:3243   */\n    tag_260:\n        /* \"#utility.yul\":3177:3187   */\n      0x4e487b71\n        /* \"#utility.yul\":3172:3175   */\n      0xe0\n        /* \"#utility.yul\":3168:3188   */\n      shl\n        /* \"#utility.yul\":3165:3166   */\n      0x00\n        /* \"#utility.yul\":3158:3189   */\n      mstore\n        /* \"#utility.yul\":3208:3212   */\n      0x41\n        /* \"#utility.yul\":3205:3206   */\n      0x04\n        /* \"#utility.yul\":3198:3213   */\n      mstore\n        /* \"#utility.yul\":3232:3236   */\n      0x24\n        /* \"#utility.yul\":3229:3230   */\n      0x00\n        /* \"#utility.yul\":3222:3237   */\n      revert\n        /* \"#utility.yul\":3248:3974   */\n    tag_261:\n        /* \"#utility.yul\":3291:3296   */\n      0x00\n        /* \"#utility.yul\":3344:3347   */\n      dup3\n        /* \"#utility.yul\":3337:3341   */\n      0x1f\n        /* \"#utility.yul\":3329:3335   */\n      dup4\n        /* \"#utility.yul\":3325:3342   */\n      add\n        /* \"#utility.yul\":3321:3348   */\n      slt\n        /* \"#utility.yul\":3311:3366   */\n      tag_294\n      jumpi\n        /* \"#utility.yul\":3362:3363   */\n      0x00\n        /* \"#utility.yul\":3359:3360   */\n      0x00\n        /* \"#utility.yul\":3352:3364   */\n      revert\n        /* \"#utility.yul\":3311:3366   */\n    tag_294:\n        /* \"#utility.yul\":3402:3408   */\n      dup2\n        /* \"#utility.yul\":3389:3409   */\n      calldataload\n        /* \"#utility.yul\":3432:3450   */\n      0xffffffffffffffff\n        /* \"#utility.yul\":3424:3430   */\n      dup2\n        /* \"#utility.yul\":3421:3451   */\n      gt\n        /* \"#utility.yul\":3418:3474   */\n      iszero\n      tag_296\n      jumpi\n        /* \"#utility.yul\":3454:3472   */\n      tag_296\n      tag_260\n      jump\t// in\n    tag_296:\n        /* \"#utility.yul\":3503:3505   */\n      0x40\n        /* \"#utility.yul\":3497:3506   */\n      mload\n        /* \"#utility.yul\":3595:3597   */\n      0x1f\n        /* \"#utility.yul\":3557:3574   */\n      dup3\n      add\n      not(0x1f)\n        /* \"#utility.yul\":3553:3584   */\n      swap1\n      dup2\n      and\n        /* \"#utility.yul\":3586:3588   */\n      0x3f\n        /* \"#utility.yul\":3549:3589   */\n      add\n        /* \"#utility.yul\":3545:3599   */\n      and\n        /* \"#utility.yul\":3533:3600   */\n      dup2\n      add\n        /* \"#utility.yul\":3630:3648   */\n      0xffffffffffffffff\n        /* \"#utility.yul\":3615:3649   */\n      dup2\n      gt\n        /* \"#utility.yul\":3651:3673   */\n      dup3\n      dup3\n      lt\n        /* \"#utility.yul\":3612:3674   */\n      or\n        /* \"#utility.yul\":3609:3697   */\n      iszero\n      tag_298\n      jumpi\n        /* \"#utility.yul\":3677:3695   */\n      tag_298\n      tag_260\n      jump\t// in\n    tag_298:\n        /* \"#utility.yul\":3713:3715   */\n      0x40\n        /* \"#utility.yul\":3706:3728   */\n      mstore\n        /* \"#utility.yul\":3737:3759   */\n      dup2\n      dup2\n      mstore\n        /* \"#utility.yul\":3778:3797   */\n      dup4\n      dup3\n      add\n        /* \"#utility.yul\":3799:3803   */\n      0x20\n        /* \"#utility.yul\":3774:3804   */\n      add\n        /* \"#utility.yul\":3771:3810   */\n      dup6\n      lt\n        /* \"#utility.yul\":3768:3827   */\n      iszero\n      tag_299\n      jumpi\n        /* \"#utility.yul\":3823:3824   */\n      0x00\n        /* \"#utility.yul\":3820:3821   */\n      0x00\n        /* \"#utility.yul\":3813:3825   */\n      revert\n        /* \"#utility.yul\":3768:3827   */\n    tag_299:\n        /* \"#utility.yul\":3887:3893   */\n      dup2\n        /* \"#utility.yul\":3880:3884   */\n      0x20\n        /* \"#utility.yul\":3872:3878   */\n      dup6\n        /* \"#utility.yul\":3868:3885   */\n      add\n        /* \"#utility.yul\":3861:3865   */\n      0x20\n        /* \"#utility.yul\":3853:3859   */\n      dup4\n        /* \"#utility.yul\":3849:3866   */\n      add\n        /* \"#utility.yul\":3836:3894   */\n      calldatacopy\n        /* \"#utility.yul\":3942:3943   */\n      0x00\n        /* \"#utility.yul\":3914:3933   */\n      swap2\n      dup2\n      add\n        /* \"#utility.yul\":3935:3939   */\n      0x20\n        /* \"#utility.yul\":3910:3940   */\n      add\n        /* \"#utility.yul\":3903:3944   */\n      swap2\n      swap1\n      swap2\n      mstore\n        /* \"#utility.yul\":3918:3924   */\n      swap4\n        /* \"#utility.yul\":3248:3974   */\n      swap3\n      pop\n      pop\n      pop\n      jump\t// out\n        /* \"#utility.yul\":3979:5120   */\n    tag_34:\n        /* \"#utility.yul\":4119:4125   */\n      0x00\n        /* \"#utility.yul\":4127:4133   */\n      0x00\n        /* \"#utility.yul\":4135:4141   */\n      0x00\n        /* \"#utility.yul\":4143:4149   */\n      0x00\n        /* \"#utility.yul\":4151:4157   */\n      0x00\n        /* \"#utility.yul\":4159:4165   */\n      0x00\n        /* \"#utility.yul\":4167:4173   */\n      0x00\n        /* \"#utility.yul\":4220:4223   */\n      0xe0\n        /* \"#utility.yul\":4208:4217   */\n      dup9\n        /* \"#utility.yul\":4199:4206   */\n      dup11\n        /* \"#utility.yul\":4195:4218   */\n      sub\n        /* \"#utility.yul\":4191:4224   */\n      slt\n        /* \"#utility.yul\":4188:4241   */\n      iszero\n      tag_301\n      jumpi\n        /* \"#utility.yul\":4237:4238   */\n      0x00\n        /* \"#utility.yul\":4234:4235   */\n      0x00\n        /* \"#utility.yul\":4227:4239   */\n      revert\n        /* \"#utility.yul\":4188:4241   */\n    tag_301:\n        /* \"#utility.yul\":4260:4289   */\n      tag_302\n        /* \"#utility.yul\":4279:4288   */\n      dup9\n        /* \"#utility.yul\":4260:4289   */\n      tag_255\n      jump\t// in\n    tag_302:\n        /* \"#utility.yul\":4250:4289   */\n      swap7\n      pop\n        /* \"#utility.yul\":4308:4346   */\n      tag_303\n        /* \"#utility.yul\":4342:4344   */\n      0x20\n        /* \"#utility.yul\":4331:4340   */\n      dup10\n        /* \"#utility.yul\":4327:4345   */\n      add\n        /* \"#utility.yul\":4308:4346   */\n      tag_255\n      jump\t// in\n    tag_303:\n        /* \"#utility.yul\":4298:4346   */\n      swap6\n      pop\n        /* \"#utility.yul\":4397:4399   */\n      0x40\n        /* \"#utility.yul\":4386:4395   */\n      dup9\n        /* \"#utility.yul\":4382:4400   */\n      add\n        /* \"#utility.yul\":4369:4401   */\n      calldataload\n        /* \"#utility.yul\":4424:4442   */\n      0xffffffffffffffff\n        /* \"#utility.yul\":4416:4422   */\n      dup2\n        /* \"#utility.yul\":4413:4443   */\n      gt\n        /* \"#utility.yul\":4410:4460   */\n      iszero\n      tag_304\n      jumpi\n        /* \"#utility.yul\":4456:4457   */\n      0x00\n        /* \"#utility.yul\":4453:4454   */\n      0x00\n        /* \"#utility.yul\":4446:4458   */\n      revert\n        /* \"#utility.yul\":4410:4460   */\n    tag_304:\n        /* \"#utility.yul\":4479:4529   */\n      tag_305\n        /* \"#utility.yul\":4521:4528   */\n      dup11\n        /* \"#utility.yul\":4512:4518   */\n      dup3\n        /* \"#utility.yul\":4501:4510   */\n      dup12\n        /* \"#utility.yul\":4497:4519   */\n      add\n        /* \"#utility.yul\":4479:4529   */\n      tag_261\n      jump\t// in\n    tag_305:\n        /* \"#utility.yul\":4469:4529   */\n      swap6\n      pop\n      pop\n        /* \"#utility.yul\":4548:4586   */\n      tag_306\n        /* \"#utility.yul\":4582:4584   */\n      0x60\n        /* \"#utility.yul\":4571:4580   */\n      dup10\n        /* \"#utility.yul\":4567:4585   */\n      add\n        /* \"#utility.yul\":4548:4586   */\n      tag_255\n      jump\t// in\n    tag_306:\n        /* \"#utility.yul\":4538:4586   */\n      swap4\n      pop\n        /* \"#utility.yul\":4636:4639   */\n      0x80\n        /* \"#utility.yul\":4625:4634   */\n      dup9\n        /* \"#utility.yul\":4621:4640   */\n      add\n        /* \"#utility.yul\":4608:4641   */\n      calldataload\n        /* \"#utility.yul\":4684:4689   */\n      dup1\n        /* \"#utility.yul\":4677:4690   */\n      iszero\n        /* \"#utility.yul\":4670:4691   */\n      iszero\n        /* \"#utility.yul\":4663:4668   */\n      dup2\n        /* \"#utility.yul\":4660:4692   */\n      eq\n        /* \"#utility.yul\":4650:4710   */\n      tag_307\n      jumpi\n        /* \"#utility.yul\":4706:4707   */\n      0x00\n        /* \"#utility.yul\":4703:4704   */\n      0x00\n        /* \"#utility.yul\":4696:4708   */\n      revert\n        /* \"#utility.yul\":4650:4710   */\n    tag_307:\n        /* \"#utility.yul\":4729:4734   */\n      swap3\n      pop\n        /* \"#utility.yul\":4787:4790   */\n      0xa0\n        /* \"#utility.yul\":4772:4791   */\n      dup9\n      add\n        /* \"#utility.yul\":4759:4792   */\n      calldataload\n        /* \"#utility.yul\":4817:4835   */\n      0xffffffffffffffff\n        /* \"#utility.yul\":4804:4836   */\n      dup2\n      gt\n        /* \"#utility.yul\":4801:4853   */\n      iszero\n      tag_308\n      jumpi\n        /* \"#utility.yul\":4849:4850   */\n      0x00\n        /* \"#utility.yul\":4846:4847   */\n      0x00\n        /* \"#utility.yul\":4839:4851   */\n      revert\n        /* \"#utility.yul\":4801:4853   */\n    tag_308:\n        /* \"#utility.yul\":4872:4924   */\n      tag_309\n        /* \"#utility.yul\":4916:4923   */\n      dup11\n        /* \"#utility.yul\":4905:4913   */\n      dup3\n        /* \"#utility.yul\":4894:4903   */\n      dup12\n        /* \"#utility.yul\":4890:4914   */\n      add\n        /* \"#utility.yul\":4872:4924   */\n      tag_261\n      jump\t// in\n    tag_309:\n        /* \"#utility.yul\":4862:4924   */\n      swap3\n      pop\n      pop\n        /* \"#utility.yul\":4977:4980   */\n      0xc0\n        /* \"#utility.yul\":4966:4975   */\n      dup9\n        /* \"#utility.yul\":4962:4981   */\n      add\n        /* \"#utility.yul\":4949:4982   */\n      calldataload\n        /* \"#utility.yul\":5007:5025   */\n      0xffffffffffffffff\n        /* \"#utility.yul\":4997:5005   */\n      dup2\n        /* \"#utility.yul\":4994:5026   */\n      gt\n        /* \"#utility.yul\":4991:5043   */\n      iszero\n      tag_310\n      jumpi\n        /* \"#utility.yul\":5039:5040   */\n      0x00\n        /* \"#utility.yul\":5036:5037   */\n      0x00\n        /* \"#utility.yul\":5029:5041   */\n      revert\n        /* \"#utility.yul\":4991:5043   */\n    tag_310:\n        /* \"#utility.yul\":5062:5114   */\n      tag_311\n        /* \"#utility.yul\":5106:5113   */\n      dup11\n        /* \"#utility.yul\":5095:5103   */\n      dup3\n        /* \"#utility.yul\":5084:5093   */\n      dup12\n        /* \"#utility.yul\":5080:5104   */\n      add\n        /* \"#utility.yul\":5062:5114   */\n      tag_261\n      jump\t// in\n    tag_311:\n        /* \"#utility.yul\":5052:5114   */\n      swap2\n      pop\n      pop\n        /* \"#utility.yul\":3979:5120   */\n      swap3\n      swap6\n      swap9\n      swap2\n      swap5\n      swap8\n      pop\n      swap3\n      swap6\n      pop\n      jump\t// out\n        /* \"#utility.yul\":5333:5460   */\n    tag_97:\n        /* \"#utility.yul\":5394:5404   */\n      0x4e487b71\n        /* \"#utility.yul\":5389:5392   */\n      0xe0\n        /* \"#utility.yul\":5385:5405   */\n      shl\n        /* \"#utility.yul\":5382:5383   */\n      0x00\n        /* \"#utility.yul\":5375:5406   */\n      mstore\n        /* \"#utility.yul\":5425:5429   */\n      0x21\n        /* \"#utility.yul\":5422:5423   */\n      0x04\n        /* \"#utility.yul\":5415:5430   */\n      mstore\n        /* \"#utility.yul\":5449:5453   */\n      0x24\n        /* \"#utility.yul\":5446:5447   */\n      0x00\n        /* \"#utility.yul\":5439:5454   */\n      revert\n        /* \"#utility.yul\":5465:5802   */\n    tag_49:\n        /* \"#utility.yul\":5606:5608   */\n      0x20\n        /* \"#utility.yul\":5591:5609   */\n      dup2\n      add\n        /* \"#utility.yul\":5639:5640   */\n      0x03\n        /* \"#utility.yul\":5628:5641   */\n      dup4\n      lt\n        /* \"#utility.yul\":5618:5762   */\n      tag_315\n      jumpi\n        /* \"#utility.yul\":5684:5694   */\n      0x4e487b71\n        /* \"#utility.yul\":5679:5682   */\n      0xe0\n        /* \"#utility.yul\":5675:5695   */\n      shl\n        /* \"#utility.yul\":5672:5673   */\n      0x00\n        /* \"#utility.yul\":5665:5696   */\n      mstore\n        /* \"#utility.yul\":5719:5723   */\n      0x21\n        /* \"#utility.yul\":5716:5717   */\n      0x04\n        /* \"#utility.yul\":5709:5724   */\n      mstore\n        /* \"#utility.yul\":5747:5751   */\n      0x24\n        /* \"#utility.yul\":5744:5745   */\n      0x00\n        /* \"#utility.yul\":5737:5752   */\n      revert\n        /* \"#utility.yul\":5618:5762   */\n    tag_315:\n        /* \"#utility.yul\":5771:5796   */\n      swap2\n      swap1\n      mstore\n        /* \"#utility.yul\":5465:5802   */\n      swap1\n      jump\t// out\n        /* \"#utility.yul\":5807:6067   */\n    tag_52:\n        /* \"#utility.yul\":5875:5881   */\n      0x00\n        /* \"#utility.yul\":5883:5889   */\n      0x00\n        /* \"#utility.yul\":5936:5938   */\n      0x40\n        /* \"#utility.yul\":5924:5933   */\n      dup4\n        /* \"#utility.yul\":5915:5922   */\n      dup6\n        /* \"#utility.yul\":5911:5934   */\n      sub\n        /* \"#utility.yul\":5907:5939   */\n      slt\n        /* \"#utility.yul\":5904:5956   */\n      iszero\n      tag_317\n      jumpi\n        /* \"#utility.yul\":5952:5953   */\n      0x00\n        /* \"#utility.yul\":5949:5950   */\n      0x00\n        /* \"#utility.yul\":5942:5954   */\n      revert\n        /* \"#utility.yul\":5904:5956   */\n    tag_317:\n        /* \"#utility.yul\":5975:6004   */\n      tag_270\n        /* \"#utility.yul\":5994:6003   */\n      dup4\n        /* \"#utility.yul\":5975:6004   */\n      tag_259\n      jump\t// in\n        /* \"#utility.yul\":6072:7321   */\n    tag_64:\n      sub(shl(0x80, 0x01), 0x01)\n        /* \"#utility.yul\":6511:6517   */\n      dup12\n        /* \"#utility.yul\":6507:6554   */\n      and\n        /* \"#utility.yul\":6496:6505   */\n      dup2\n        /* \"#utility.yul\":6489:6555   */\n      mstore\n      sub(shl(0x80, 0x01), 0x01)\n        /* \"#utility.yul\":6595:6601   */\n      dup11\n        /* \"#utility.yul\":6591:6638   */\n      and\n        /* \"#utility.yul\":6586:6588   */\n      0x20\n        /* \"#utility.yul\":6575:6584   */\n      dup3\n        /* \"#utility.yul\":6571:6589   */\n      add\n        /* \"#utility.yul\":6564:6639   */\n      mstore\n        /* \"#utility.yul\":6675:6678   */\n      0x0140\n        /* \"#utility.yul\":6670:6672   */\n      0x40\n        /* \"#utility.yul\":6659:6668   */\n      dup3\n        /* \"#utility.yul\":6655:6673   */\n      add\n        /* \"#utility.yul\":6648:6679   */\n      mstore\n        /* \"#utility.yul\":6470:6474   */\n      0x00\n        /* \"#utility.yul\":6702:6748   */\n      tag_321\n        /* \"#utility.yul\":6743:6746   */\n      0x0140\n        /* \"#utility.yul\":6732:6741   */\n      dup4\n        /* \"#utility.yul\":6728:6747   */\n      add\n        /* \"#utility.yul\":6720:6726   */\n      dup12\n        /* \"#utility.yul\":6702:6748   */\n      tag_257\n      jump\t// in\n    tag_321:\n      sub(shl(0x80, 0x01), 0x01)\n        /* \"#utility.yul\":6788:6794   */\n      dup11\n        /* \"#utility.yul\":6784:6831   */\n      and\n        /* \"#utility.yul\":6779:6781   */\n      0x60\n        /* \"#utility.yul\":6768:6777   */\n      dup5\n        /* \"#utility.yul\":6764:6782   */\n      add\n        /* \"#utility.yul\":6757:6832   */\n      mstore\n        /* \"#utility.yul\":6883:6889   */\n      dup9\n        /* \"#utility.yul\":6876:6890   */\n      iszero\n        /* \"#utility.yul\":6869:6891   */\n      iszero\n        /* \"#utility.yul\":6863:6866   */\n      0x80\n        /* \"#utility.yul\":6852:6861   */\n      dup5\n        /* \"#utility.yul\":6848:6867   */\n      add\n        /* \"#utility.yul\":6841:6892   */\n      mstore\n        /* \"#utility.yul\":6941:6950   */\n      dup3\n        /* \"#utility.yul\":6933:6939   */\n      dup2\n        /* \"#utility.yul\":6929:6951   */\n      sub\n        /* \"#utility.yul\":6923:6926   */\n      0xa0\n        /* \"#utility.yul\":6912:6921   */\n      dup5\n        /* \"#utility.yul\":6908:6927   */\n      add\n        /* \"#utility.yul\":6901:6952   */\n      mstore\n        /* \"#utility.yul\":6975:7008   */\n      tag_322\n        /* \"#utility.yul\":7001:7007   */\n      dup2\n        /* \"#utility.yul\":6993:6999   */\n      dup10\n        /* \"#utility.yul\":6975:7008   */\n      tag_257\n      jump\t// in\n    tag_322:\n        /* \"#utility.yul\":6961:7008   */\n      swap1\n      pop\n        /* \"#utility.yul\":7057:7066   */\n      dup3\n        /* \"#utility.yul\":7049:7055   */\n      dup2\n        /* \"#utility.yul\":7045:7067   */\n      sub\n        /* \"#utility.yul\":7039:7042   */\n      0xc0\n        /* \"#utility.yul\":7028:7037   */\n      dup5\n        /* \"#utility.yul\":7024:7043   */\n      add\n        /* \"#utility.yul\":7017:7068   */\n      mstore\n        /* \"#utility.yul\":7085:7118   */\n      tag_323\n        /* \"#utility.yul\":7111:7117   */\n      dup2\n        /* \"#utility.yul\":7103:7109   */\n      dup9\n        /* \"#utility.yul\":7085:7118   */\n      tag_257\n      jump\t// in\n    tag_323:\n        /* \"#utility.yul\":7077:7118   */\n      swap2\n      pop\n      pop\n      sub(shl(0x80, 0x01), 0x01)\n        /* \"#utility.yul\":7159:7165   */\n      dup6\n        /* \"#utility.yul\":7155:7202   */\n      and\n        /* \"#utility.yul\":7149:7152   */\n      0xe0\n        /* \"#utility.yul\":7138:7147   */\n      dup4\n        /* \"#utility.yul\":7134:7153   */\n      add\n        /* \"#utility.yul\":7127:7203   */\n      mstore\n        /* \"#utility.yul\":7212:7259   */\n      tag_324\n        /* \"#utility.yul\":7254:7257   */\n      0x0100\n        /* \"#utility.yul\":7243:7252   */\n      dup4\n        /* \"#utility.yul\":7239:7258   */\n      add\n        /* \"#utility.yul\":7231:7237   */\n      dup6\n      sub(shl(0x80, 0x01), 0x01)\n        /* \"#utility.yul\":538:584   */\n      and\n        /* \"#utility.yul\":526:585   */\n      swap1\n      mstore\n        /* \"#utility.yul\":472:591   */\n      jump\n        /* \"#utility.yul\":7212:7259   */\n    tag_324:\n      sub(shl(0x80, 0x01), 0x01)\n        /* \"#utility.yul\":538:584   */\n      dup4\n      and\n        /* \"#utility.yul\":7310:7313   */\n      0x0120\n        /* \"#utility.yul\":7295:7314   */\n      dup4\n      add\n        /* \"#utility.yul\":526:585   */\n      mstore\n        /* \"#utility.yul\":6072:7321   */\n      swap12\n      swap11\n      pop\n      pop\n      pop\n      pop\n      pop\n      pop\n      pop\n      pop\n      pop\n      pop\n      pop\n      jump\t// out\n        /* \"#utility.yul\":7326:8305   */\n    tag_67:\n        /* \"#utility.yul\":7460:7466   */\n      0x00\n        /* \"#utility.yul\":7468:7474   */\n      0x00\n        /* \"#utility.yul\":7476:7482   */\n      0x00\n        /* \"#utility.yul\":7484:7490   */\n      0x00\n        /* \"#utility.yul\":7492:7498   */\n      0x00\n        /* \"#utility.yul\":7500:7506   */\n      0x00\n        /* \"#utility.yul\":7553:7556   */\n      0xc0\n        /* \"#utility.yul\":7541:7550   */\n      dup8\n        /* \"#utility.yul\":7532:7539   */\n      dup10\n        /* \"#utility.yul\":7528:7551   */\n      sub\n        /* \"#utility.yul\":7524:7557   */\n      slt\n        /* \"#utility.yul\":7521:7574   */\n      iszero\n      tag_327\n      jumpi\n        /* \"#utility.yul\":7570:7571   */\n      0x00\n        /* \"#utility.yul\":7567:7568   */\n      0x00\n        /* \"#utility.yul\":7560:7572   */\n      revert\n        /* \"#utility.yul\":7521:7574   */\n    tag_327:\n        /* \"#utility.yul\":7593:7622   */\n      tag_328\n        /* \"#utility.yul\":7612:7621   */\n      dup8\n        /* \"#utility.yul\":7593:7622   */\n      tag_255\n      jump\t// in\n    tag_328:\n        /* \"#utility.yul\":7583:7622   */\n      swap6\n      pop\n        /* \"#utility.yul\":7673:7675   */\n      0x20\n        /* \"#utility.yul\":7662:7671   */\n      dup8\n        /* \"#utility.yul\":7658:7676   */\n      add\n        /* \"#utility.yul\":7645:7677   */\n      calldataload\n        /* \"#utility.yul\":7700:7718   */\n      0xffffffffffffffff\n        /* \"#utility.yul\":7692:7698   */\n      dup2\n        /* \"#utility.yul\":7689:7719   */\n      gt\n        /* \"#utility.yul\":7686:7736   */\n      iszero\n      tag_329\n      jumpi\n        /* \"#utility.yul\":7732:7733   */\n      0x00\n        /* \"#utility.yul\":7729:7730   */\n      0x00\n        /* \"#utility.yul\":7722:7734   */\n      revert\n        /* \"#utility.yul\":7686:7736   */\n    tag_329:\n        /* \"#utility.yul\":7755:7805   */\n      tag_330\n        /* \"#utility.yul\":7797:7804   */\n      dup10\n        /* \"#utility.yul\":7788:7794   */\n      dup3\n        /* \"#utility.yul\":7777:7786   */\n      dup11\n        /* \"#utility.yul\":7773:7795   */\n      add\n        /* \"#utility.yul\":7755:7805   */\n      tag_261\n      jump\t// in\n    tag_330:\n        /* \"#utility.yul\":7745:7805   */\n      swap6\n      pop\n      pop\n        /* \"#utility.yul\":7824:7862   */\n      tag_331\n        /* \"#utility.yul\":7858:7860   */\n      0x40\n        /* \"#utility.yul\":7847:7856   */\n      dup9\n        /* \"#utility.yul\":7843:7861   */\n      add\n        /* \"#utility.yul\":7824:7862   */\n      tag_255\n      jump\t// in\n    tag_331:\n        /* \"#utility.yul\":7814:7862   */\n      swap4\n      pop\n        /* \"#utility.yul\":7915:7917   */\n      0x60\n        /* \"#utility.yul\":7904:7913   */\n      dup8\n        /* \"#utility.yul\":7900:7918   */\n      add\n        /* \"#utility.yul\":7887:7919   */\n      calldataload\n        /* \"#utility.yul\":7944:7962   */\n      0xffffffffffffffff\n        /* \"#utility.yul\":7934:7942   */\n      dup2\n        /* \"#utility.yul\":7931:7963   */\n      gt\n        /* \"#utility.yul\":7928:7980   */\n      iszero\n      tag_332\n      jumpi\n        /* \"#utility.yul\":7976:7977   */\n      0x00\n        /* \"#utility.yul\":7973:7974   */\n      0x00\n        /* \"#utility.yul\":7966:7978   */\n      revert\n        /* \"#utility.yul\":7928:7980   */\n    tag_332:\n        /* \"#utility.yul\":7999:8051   */\n      tag_333\n        /* \"#utility.yul\":8043:8050   */\n      dup10\n        /* \"#utility.yul\":8032:8040   */\n      dup3\n        /* \"#utility.yul\":8021:8030   */\n      dup11\n        /* \"#utility.yul\":8017:8041   */\n      add\n        /* \"#utility.yul\":7999:8051   */\n      tag_261\n      jump\t// in\n    tag_333:\n        /* \"#utility.yul\":7989:8051   */\n      swap4\n      pop\n      pop\n        /* \"#utility.yul\":8104:8107   */\n      0x80\n        /* \"#utility.yul\":8093:8102   */\n      dup8\n        /* \"#utility.yul\":8089:8108   */\n      add\n        /* \"#utility.yul\":8076:8109   */\n      calldataload\n        /* \"#utility.yul\":8134:8152   */\n      0xffffffffffffffff\n        /* \"#utility.yul\":8124:8132   */\n      dup2\n        /* \"#utility.yul\":8121:8153   */\n      gt\n        /* \"#utility.yul\":8118:8170   */\n      iszero\n      tag_334\n      jumpi\n        /* \"#utility.yul\":8166:8167   */\n      0x00\n        /* \"#utility.yul\":8163:8164   */\n      0x00\n        /* \"#utility.yul\":8156:8168   */\n      revert\n        /* \"#utility.yul\":8118:8170   */\n    tag_334:\n        /* \"#utility.yul\":8189:8241   */\n      tag_335\n        /* \"#utility.yul\":8233:8240   */\n      dup10\n        /* \"#utility.yul\":8222:8230   */\n      dup3\n        /* \"#utility.yul\":8211:8220   */\n      dup11\n        /* \"#utility.yul\":8207:8231   */\n      add\n        /* \"#utility.yul\":8189:8241   */\n      tag_261\n      jump\t// in\n    tag_335:\n        /* \"#utility.yul\":8179:8241   */\n      swap3\n      pop\n      pop\n        /* \"#utility.yul\":8260:8299   */\n      tag_336\n        /* \"#utility.yul\":8294:8297   */\n      0xa0\n        /* \"#utility.yul\":8283:8292   */\n      dup9\n        /* \"#utility.yul\":8279:8298   */\n      add\n        /* \"#utility.yul\":8260:8299   */\n      tag_255\n      jump\t// in\n    tag_336:\n        /* \"#utility.yul\":8250:8299   */\n      swap1\n      pop\n        /* \"#utility.yul\":7326:8305   */\n      swap3\n      swap6\n      pop\n      swap3\n      swap6\n      pop\n      swap3\n      swap6\n      jump\t// out\n        /* \"#utility.yul\":8310:8690   */\n    tag_79:\n        /* \"#utility.yul\":8389:8390   */\n      0x01\n        /* \"#utility.yul\":8385:8397   */\n      dup2\n      dup2\n      shr\n      swap1\n        /* \"#utility.yul\":8432:8444   */\n      dup3\n      and\n      dup1\n        /* \"#utility.yul\":8453:8514   */\n      tag_338\n      jumpi\n        /* \"#utility.yul\":8507:8511   */\n      0x7f\n        /* \"#utility.yul\":8499:8505   */\n      dup3\n        /* \"#utility.yul\":8495:8512   */\n      and\n        /* \"#utility.yul\":8485:8512   */\n      swap2\n      pop\n        /* \"#utility.yul\":8453:8514   */\n    tag_338:\n        /* \"#utility.yul\":8560:8562   */\n      0x20\n        /* \"#utility.yul\":8552:8558   */\n      dup3\n        /* \"#utility.yul\":8549:8563   */\n      lt\n        /* \"#utility.yul\":8529:8547   */\n      dup2\n        /* \"#utility.yul\":8526:8564   */\n      sub\n        /* \"#utility.yul\":8523:8684   */\n      tag_339\n      jumpi\n        /* \"#utility.yul\":8606:8616   */\n      0x4e487b71\n        /* \"#utility.yul\":8601:8604   */\n      0xe0\n        /* \"#utility.yul\":8597:8617   */\n      shl\n        /* \"#utility.yul\":8594:8595   */\n      0x00\n        /* \"#utility.yul\":8587:8618   */\n      mstore\n        /* \"#utility.yul\":8641:8645   */\n      0x22\n        /* \"#utility.yul\":8638:8639   */\n      0x04\n        /* \"#utility.yul\":8631:8646   */\n      mstore\n        /* \"#utility.yul\":8669:8673   */\n      0x24\n        /* \"#utility.yul\":8666:8667   */\n      0x00\n        /* \"#utility.yul\":8659:8674   */\n      revert\n        /* \"#utility.yul\":8523:8684   */\n    tag_339:\n      pop\n        /* \"#utility.yul\":8310:8690   */\n      swap2\n      swap1\n      pop\n      jump\t// out\n        /* \"#utility.yul\":8695:9029   */\n    tag_102:\n        /* \"#utility.yul\":8897:8899   */\n      0x20\n        /* \"#utility.yul\":8879:8900   */\n      dup1\n      dup3\n      mstore\n        /* \"#utility.yul\":8936:8938   */\n      0x0a\n        /* \"#utility.yul\":8916:8934   */\n      swap1\n      dup3\n      add\n        /* \"#utility.yul\":8909:8939   */\n      mstore\n      shl(0xb1, 0x27b7363c9030b236b4b7)\n        /* \"#utility.yul\":8970:8972   */\n      0x40\n        /* \"#utility.yul\":8955:8973   */\n      dup3\n      add\n        /* \"#utility.yul\":8948:8988   */\n      mstore\n        /* \"#utility.yul\":9020:9022   */\n      0x60\n        /* \"#utility.yul\":9005:9023   */\n      add\n      swap1\n        /* \"#utility.yul\":8695:9029   */\n      jump\t// out\n        /* \"#utility.yul\":9513:10031   */\n    tag_263:\n        /* \"#utility.yul\":9615:9617   */\n      0x1f\n        /* \"#utility.yul\":9610:9613   */\n      dup3\n        /* \"#utility.yul\":9607:9618   */\n      gt\n        /* \"#utility.yul\":9604:10025   */\n      iszero\n      tag_344\n      jumpi\n        /* \"#utility.yul\":9651:9656   */\n      dup1\n        /* \"#utility.yul\":9648:9649   */\n      0x00\n        /* \"#utility.yul\":9641:9657   */\n      mstore\n        /* \"#utility.yul\":9695:9699   */\n      0x20\n        /* \"#utility.yul\":9692:9693   */\n      0x00\n        /* \"#utility.yul\":9682:9700   */\n      keccak256\n        /* \"#utility.yul\":9765:9767   */\n      0x1f\n        /* \"#utility.yul\":9753:9763   */\n      dup5\n        /* \"#utility.yul\":9749:9768   */\n      add\n        /* \"#utility.yul\":9746:9747   */\n      0x05\n        /* \"#utility.yul\":9742:9769   */\n      shr\n        /* \"#utility.yul\":9736:9740   */\n      dup2\n        /* \"#utility.yul\":9732:9770   */\n      add\n        /* \"#utility.yul\":9801:9805   */\n      0x20\n        /* \"#utility.yul\":9789:9799   */\n      dup6\n        /* \"#utility.yul\":9786:9806   */\n      lt\n        /* \"#utility.yul\":9783:9830   */\n      iszero\n      tag_345\n      jumpi\n      pop\n        /* \"#utility.yul\":9824:9828   */\n      dup1\n        /* \"#utility.yul\":9783:9830   */\n    tag_345:\n        /* \"#utility.yul\":9879:9881   */\n      0x1f\n        /* \"#utility.yul\":9874:9877   */\n      dup5\n        /* \"#utility.yul\":9870:9882   */\n      add\n        /* \"#utility.yul\":9867:9868   */\n      0x05\n        /* \"#utility.yul\":9863:9883   */\n      shr\n        /* \"#utility.yul\":9857:9861   */\n      dup3\n        /* \"#utility.yul\":9853:9884   */\n      add\n        /* \"#utility.yul\":9843:9884   */\n      swap2\n      pop\n        /* \"#utility.yul\":9934:10015   */\n    tag_346:\n        /* \"#utility.yul\":9952:9954   */\n      dup2\n        /* \"#utility.yul\":9945:9950   */\n      dup2\n        /* \"#utility.yul\":9942:9955   */\n      lt\n        /* \"#utility.yul\":9934:10015   */\n      iszero\n      tag_348\n      jumpi\n        /* \"#utility.yul\":10011:10012   */\n      0x00\n        /* \"#utility.yul\":9997:10013   */\n      dup2\n      sstore\n        /* \"#utility.yul\":9978:9979   */\n      0x01\n        /* \"#utility.yul\":9967:9980   */\n      add\n        /* \"#utility.yul\":9934:10015   */\n      jump(tag_346)\n    tag_348:\n        /* \"#utility.yul\":9938:9941   */\n      pop\n      pop\n        /* \"#utility.yul\":9604:10025   */\n    tag_344:\n        /* \"#utility.yul\":9513:10031   */\n      pop\n      pop\n      pop\n      jump\t// out\n        /* \"#utility.yul\":10207:11506   */\n    tag_108:\n        /* \"#utility.yul\":10333:10336   */\n      dup2\n        /* \"#utility.yul\":10327:10337   */\n      mload\n        /* \"#utility.yul\":10360:10378   */\n      0xffffffffffffffff\n        /* \"#utility.yul\":10352:10358   */\n      dup2\n        /* \"#utility.yul\":10349:10379   */\n      gt\n        /* \"#utility.yul\":10346:10402   */\n      iszero\n      tag_352\n      jumpi\n        /* \"#utility.yul\":10382:10400   */\n      tag_352\n      tag_260\n      jump\t// in\n    tag_352:\n        /* \"#utility.yul\":10411:10508   */\n      tag_353\n        /* \"#utility.yul\":10501:10507   */\n      dup2\n        /* \"#utility.yul\":10461:10499   */\n      tag_354\n        /* \"#utility.yul\":10493:10497   */\n      dup5\n        /* \"#utility.yul\":10487:10498   */\n      sload\n        /* \"#utility.yul\":10461:10499   */\n      tag_79\n      jump\t// in\n    tag_354:\n        /* \"#utility.yul\":10455:10459   */\n      dup5\n        /* \"#utility.yul\":10411:10508   */\n      tag_263\n      jump\t// in\n    tag_353:\n        /* \"#utility.yul\":10557:10561   */\n      0x20\n        /* \"#utility.yul\":10588:10590   */\n      0x1f\n        /* \"#utility.yul\":10577:10591   */\n      dup3\n      gt\n        /* \"#utility.yul\":10605:10606   */\n      0x01\n        /* \"#utility.yul\":10600:11249   */\n      dup2\n      eq\n      tag_356\n      jumpi\n        /* \"#utility.yul\":11293:11294   */\n      0x00\n        /* \"#utility.yul\":11310:11316   */\n      dup4\n        /* \"#utility.yul\":11307:11396   */\n      iszero\n      tag_357\n      jumpi\n      pop\n        /* \"#utility.yul\":11362:11381   */\n      dup5\n      dup3\n      add\n        /* \"#utility.yul\":11356:11382   */\n      mload\n        /* \"#utility.yul\":11307:11396   */\n    tag_357:\n      not(0x00)\n        /* \"#utility.yul\":10164:10165   */\n      0x03\n        /* \"#utility.yul\":10160:10171   */\n      dup6\n      swap1\n      shl\n        /* \"#utility.yul\":10156:10180   */\n      shr\n        /* \"#utility.yul\":10152:10181   */\n      not\n        /* \"#utility.yul\":10142:10182   */\n      and\n        /* \"#utility.yul\":10188:10189   */\n      0x01\n        /* \"#utility.yul\":10184:10195   */\n      dup5\n      swap1\n      shl\n        /* \"#utility.yul\":10139:10196   */\n      or\n        /* \"#utility.yul\":11409:11490   */\n      dup5\n      sstore\n        /* \"#utility.yul\":10570:11500   */\n      jump(tag_348)\n        /* \"#utility.yul\":10600:11249   */\n    tag_356:\n        /* \"#utility.yul\":9460:9461   */\n      0x00\n        /* \"#utility.yul\":9453:9467   */\n      dup5\n      dup2\n      mstore\n        /* \"#utility.yul\":9497:9501   */\n      0x20\n        /* \"#utility.yul\":9484:9502   */\n      dup2\n      keccak256\n      not(0x1f)\n        /* \"#utility.yul\":10636:10656   */\n      dup6\n      and\n      swap2\n        /* \"#utility.yul\":10754:10976   */\n    tag_360:\n        /* \"#utility.yul\":10768:10775   */\n      dup3\n        /* \"#utility.yul\":10765:10766   */\n      dup2\n        /* \"#utility.yul\":10762:10776   */\n      lt\n        /* \"#utility.yul\":10754:10976   */\n      iszero\n      tag_362\n      jumpi\n        /* \"#utility.yul\":10850:10869   */\n      dup8\n      dup6\n      add\n        /* \"#utility.yul\":10844:10870   */\n      mload\n        /* \"#utility.yul\":10829:10871   */\n      dup3\n      sstore\n        /* \"#utility.yul\":10957:10961   */\n      0x20\n        /* \"#utility.yul\":10942:10962   */\n      swap5\n      dup6\n      add\n      swap5\n        /* \"#utility.yul\":10910:10911   */\n      0x01\n        /* \"#utility.yul\":10898:10912   */\n      swap1\n      swap3\n      add\n      swap2\n        /* \"#utility.yul\":10784:10796   */\n      add\n        /* \"#utility.yul\":10754:10976   */\n      jump(tag_360)\n    tag_362:\n        /* \"#utility.yul\":10758:10761   */\n      pop\n        /* \"#utility.yul\":11004:11010   */\n      dup5\n        /* \"#utility.yul\":10995:11002   */\n      dup3\n        /* \"#utility.yul\":10992:11011   */\n      lt\n        /* \"#utility.yul\":10989:11190   */\n      iszero\n      tag_363\n      jumpi\n        /* \"#utility.yul\":11065:11084   */\n      dup7\n      dup5\n      add\n        /* \"#utility.yul\":11059:11085   */\n      mload\n      not(0x00)\n        /* \"#utility.yul\":11148:11149   */\n      0x03\n        /* \"#utility.yul\":11144:11158   */\n      dup8\n      swap1\n      shl\n        /* \"#utility.yul\":11160:11163   */\n      0xf8\n        /* \"#utility.yul\":11140:11164   */\n      and\n        /* \"#utility.yul\":11136:11173   */\n      shr\n        /* \"#utility.yul\":11132:11174   */\n      not\n        /* \"#utility.yul\":11117:11175   */\n      and\n        /* \"#utility.yul\":11102:11176   */\n      dup2\n      sstore\n        /* \"#utility.yul\":10989:11190   */\n    tag_363:\n      pop\n      pop\n      pop\n      pop\n        /* \"#utility.yul\":11236:11237   */\n      0x01\n        /* \"#utility.yul\":11220:11234   */\n      swap1\n      dup2\n      shl\n        /* \"#utility.yul\":11216:11238   */\n      add\n        /* \"#utility.yul\":11203:11239   */\n      swap1\n      sstore\n      pop\n        /* \"#utility.yul\":10207:11506   */\n      jump\t// out\n        /* \"#utility.yul\":12427:12647   */\n    tag_203:\n        /* \"#utility.yul\":12576:12578   */\n      0x20\n        /* \"#utility.yul\":12565:12574   */\n      dup2\n        /* \"#utility.yul\":12558:12579   */\n      mstore\n        /* \"#utility.yul\":12539:12543   */\n      0x00\n        /* \"#utility.yul\":12596:12641   */\n      tag_290\n        /* \"#utility.yul\":12637:12639   */\n      0x20\n        /* \"#utility.yul\":12626:12635   */\n      dup4\n        /* \"#utility.yul\":12622:12640   */\n      add\n        /* \"#utility.yul\":12614:12620   */\n      dup5\n        /* \"#utility.yul\":12596:12641   */\n      tag_257\n      jump\t// in\n        /* \"#utility.yul\":12652:12986   */\n    tag_205:\n        /* \"#utility.yul\":12691:12694   */\n      0x00\n      sub(shl(0x80, 0x01), 0x01)\n        /* \"#utility.yul\":12728:12733   */\n      dup3\n        /* \"#utility.yul\":12724:12770   */\n      and\n      sub(shl(0x80, 0x01), 0x01)\n        /* \"#utility.yul\":12785:12792   */\n      dup2\n        /* \"#utility.yul\":12782:12829   */\n      sub\n        /* \"#utility.yul\":12779:12949   */\n      tag_370\n      jumpi\n        /* \"#utility.yul\":12871:12881   */\n      0x4e487b71\n        /* \"#utility.yul\":12866:12869   */\n      0xe0\n        /* \"#utility.yul\":12862:12882   */\n      shl\n        /* \"#utility.yul\":12859:12860   */\n      0x00\n        /* \"#utility.yul\":12852:12883   */\n      mstore\n        /* \"#utility.yul\":12906:12910   */\n      0x11\n        /* \"#utility.yul\":12903:12904   */\n      0x04\n        /* \"#utility.yul\":12896:12911   */\n      mstore\n        /* \"#utility.yul\":12934:12938   */\n      0x24\n        /* \"#utility.yul\":12931:12932   */\n      0x00\n        /* \"#utility.yul\":12924:12939   */\n      revert\n        /* \"#utility.yul\":12779:12949   */\n    tag_370:\n        /* \"#utility.yul\":12978:12979   */\n      0x01\n        /* \"#utility.yul\":12965:12980   */\n      add\n      swap3\n        /* \"#utility.yul\":12652:12986   */\n      swap2\n      pop\n      pop\n      jump\t// out\n\n    auxdata: 0xa2646970667358221220961e098ef7b8d38cb54c582e578efc036683efa882f81fecf91428c2c39f2e0264736f6c634300081e0033\n}\n",
				"bytecode": {
					"linkReferences": {},
					"object": "6080604052348015600e575f5ffd5b506117758061001c5f395ff3fe608060405234801561000f575f5ffd5b50600436106100e5575f3560e01c8063ae9a465511610088578063d9a85e6311610063578063d9a85e6314610224578063e180ae751461024d578063f2fde38b14610260578063fb72708814610273575f5ffd5b8063ae9a4655146101eb578063c4522c92146101fe578063c4d66de814610211575f5ffd5b80635b94ea5d116100c35780635b94ea5d14610167578063715018a61461017a5780638da5cb5b1461018257806399374642146101bc575f5ffd5b80630c528968146100e95780632d3238fe1461011257806341af8b6f14610152575b5f5ffd5b6100fc6100f73660046110ba565b610286565b6040516101099190611119565b60405180910390f35b61013a610120366004611238565b60016020525f90815260409020546001600160801b031681565b6040516001600160801b039091168152602001610109565b6101656101603660046112f7565b61052b565b005b6101656101753660046110ba565b61066a565b61016561079b565b7f9016d09d72d40fdae2fd8ceac6b6234c7706214fd39c1cd1e609a0528c199300546040516001600160a01b039091168152602001610109565b6101de6101ca366004611238565b5f6020819052908152604090205460ff1681565b60405161010991906113e0565b6101656101f9366004611406565b6107ae565b61016561020c366004611238565b61083b565b61016561021f366004611238565b6108c0565b6102376102323660046110ba565b6109ea565b6040516101099a99989796959493929190611420565b61016561025b3660046114d6565b610c05565b61016561026e366004611238565b610ec6565b60025461013a906001600160801b031681565b6040805161014080820183525f808352602080840182905260608486018190528085018390526080850183905260a0850181905260c085015260e08401829052610100840182905261012084018290526001600160801b0387811683526003825285832087821684528252918590208551938401865280548084168552600160801b90049092169083015260018101805493949293919284019161032990611594565b80601f016020809104026020016040519081016040528092919081815260200182805461035590611594565b80156103a05780601f10610377576101008083540402835291602001916103a0565b820191905f5260205f20905b81548152906001019060200180831161038357829003601f168201915b505050918352505060028201546001600160801b0381166020830152600160801b900460ff16151560408201526003820180546060909201916103e290611594565b80601f016020809104026020016040519081016040528092919081815260200182805461040e90611594565b80156104595780601f1061043057610100808354040283529160200191610459565b820191905f5260205f20905b81548152906001019060200180831161043c57829003601f168201915b5050505050815260200160048201805461047290611594565b80601f016020809104026020016040519081016040528092919081815260200182805461049e90611594565b80156104e95780601f106104c0576101008083540402835291602001916104e9565b820191905f5260205f20905b8154815290600101906020018083116104cc57829003601f168201915b505050918352505060058201546001600160801b038082166020840152600160801b909104811660408301526006909201549091166060909101529392505050565b335f9081526020819052604081205460ff16600281111561054e5761054e6113cc565b146105745760405162461bcd60e51b815260040161056b906115cc565b60405180910390fd5b6001600160801b038088165f9081526003602090815260408083208a8516845290915281205490911690036105e65760405162461bcd60e51b815260206004820152601860248201527713595b9d481a5d195b48191bd95cc81b9bdd08195e1a5cdd60421b604482015260640161056b565b6001600160801b038088165f908152600360209081526040808320938a1683529290522060018101610618878261163c565b50600281018054851515600160801b026001600160881b03199091166001600160801b0388161717905560038101610650848261163c565b506004810161065f838261163c565b505050505050505050565b335f9081526020819052604081205460ff16600281111561068d5761068d6113cc565b146106aa5760405162461bcd60e51b815260040161056b906115cc565b6001600160801b038083165f9081526003602090815260408083208585168452909152812054909116900361071c5760405162461bcd60e51b815260206004820152601860248201527713595b9d481a5d195b48191bd95cc81b9bdd08195e1a5cdd60421b604482015260640161056b565b6001600160801b038083165f9081526003602090815260408083209385168352929052908120818155906107536001830182611055565b6002820180546001600160881b0319169055610772600383015f611055565b61077f600483015f611055565b505f600582015560060180546001600160801b03191690555050565b6107a3610f03565b6107ac5f610f5e565b565b335f9081526020819052604081205460ff1660028111156107d1576107d16113cc565b146107ee5760405162461bcd60e51b815260040161056b906115cc565b6001600160a01b03919091165f908152602081815260408083208054600160ff199091168117909155909152902080546001600160801b0319166001600160801b03909216919091179055565b335f9081526020819052604081205460ff16600281111561085e5761085e6113cc565b1461087b5760405162461bcd60e51b815260040161056b906115cc565b6001600160a01b0381165f90815260016020818152604080842080546001600160801b031916905590839052909120805460029260ff1990911690835b021790555050565b7ff0c57e16840df040f15088dc2f81fe391c3923bec73e23a9662efc9c229c6a008054600160401b810460ff16159067ffffffffffffffff165f811580156109055750825b90505f8267ffffffffffffffff1660011480156109215750303b155b90508115801561092f575080155b1561094d5760405163f92ee8a960e01b815260040160405180910390fd5b845467ffffffffffffffff19166001178555831561097757845460ff60401b1916600160401b1785555b61098086610fce565b61098986610fdf565b600280546001600160801b031916600117905583156109e257845460ff60401b19168555604051600181527fc7f505b2f371ae2175ee4913f4499e1f2633a7b5936321eed1cdaeb6115181d29060200160405180910390a15b505050505050565b600360209081525f9283526040808420909152908252902080546001820180546001600160801b0380841694600160801b90940416929190610a2b90611594565b80601f0160208091040260200160405190810160405280929190818152602001828054610a5790611594565b8015610aa25780601f10610a7957610100808354040283529160200191610aa2565b820191905f5260205f20905b815481529060010190602001808311610a8557829003601f168201915b50505050600283015460038401805493946001600160801b03831694600160801b90930460ff16935091610ad590611594565b80601f0160208091040260200160405190810160405280929190818152602001828054610b0190611594565b8015610b4c5780601f10610b2357610100808354040283529160200191610b4c565b820191905f5260205f20905b815481529060010190602001808311610b2f57829003601f168201915b505050505090806004018054610b6190611594565b80601f0160208091040260200160405190810160405280929190818152602001828054610b8d90611594565b8015610bd85780601f10610baf57610100808354040283529160200191610bd8565b820191905f5260205f20905b815481529060010190602001808311610bbb57829003601f168201915b50505050600583015460069093015491926001600160801b0380821693600160801b90920481169250168a565b335f9081526020819052604081205460ff166002811115610c2857610c286113cc565b14610c455760405162461bcd60e51b815260040161056b906115cc565b5f866001600160801b031611610c945760405162461bcd60e51b8152602060048201526014602482015273125b9d985b1a59081c995cdd185d5c985b9d125960621b604482015260640161056b565b5f816001600160801b031611610cec5760405162461bcd60e51b815260206004820152601860248201527f496e76616c6964207072657061726174696f6e2074696d650000000000000000604482015260640161056b565b60408051610140810182526002546001600160801b0390811680835289821660208085018281528587018c81528b8616606088015260016080880181905260a088018c905260c088018b90525f60e0890181905261010089018190528a88166101208a0152948552600384528885209585529490925295909120845195518416600160801b029590931694909417825592519192909190820190610d90908261163c565b50606082015160028201805460808501511515600160801b026001600160881b03199091166001600160801b039093169290921791909117905560a08201516003820190610dde908261163c565b5060c08201516004820190610df3908261163c565b5060e08201516101008301516001600160801b03918216600160801b9183169190910217600583015561012090920151600690910180546001600160801b0319169183169190911790556002546040518883169291909116907f16c3bb758075933856ebc4132418c1e40e2757b27275fa2fd2de8c38e4e54b8e90610e799089906116f7565b60405180910390a3600280546001600160801b0316905f610e9983611709565b91906101000a8154816001600160801b0302191690836001600160801b0316021790555050505050505050565b610ece610f03565b6001600160a01b038116610ef757604051631e4fbdf760e01b81525f600482015260240161056b565b610f0081610f5e565b50565b33610f357f9016d09d72d40fdae2fd8ceac6b6234c7706214fd39c1cd1e609a0528c199300546001600160a01b031690565b6001600160a01b0316146107ac5760405163118cdaa760e01b815233600482015260240161056b565b7f9016d09d72d40fdae2fd8ceac6b6234c7706214fd39c1cd1e609a0528c19930080546001600160a01b031981166001600160a01b03848116918217845560405192169182907f8be0079c531659141344cd1fd0a4f28419497f9722a3daafe3b4186f6b6457e0905f90a3505050565b610fd6611004565b610f008161104d565b6001600160a01b0381165f908152602081905260408120805460ff19166001836108b8565b7ff0c57e16840df040f15088dc2f81fe391c3923bec73e23a9662efc9c229c6a0054600160401b900460ff166107ac57604051631afcd79f60e31b815260040160405180910390fd5b610ece611004565b50805461106190611594565b5f825580601f10611070575050565b601f0160209004905f5260205f2090810190610f0091905b8082111561109b575f8155600101611088565b5090565b80356001600160801b03811681146110b5575f5ffd5b919050565b5f5f604083850312156110cb575f5ffd5b6110d48361109f565b91506110e26020840161109f565b90509250929050565b5f81518084528060208401602086015e5f602082860101526020601f19601f83011685010191505092915050565b602081526111336020820183516001600160801b03169052565b5f602083015161114e60408401826001600160801b03169052565b506040830151610140606084015261116a6101608401826110eb565b9050606084015161118660808501826001600160801b03169052565b50608084015180151560a08501525060a0840151838203601f190160c08501526111b082826110eb565b91505060c0840151601f198483030160e08501526111ce82826110eb565b91505060e08401516111ec6101008501826001600160801b03169052565b506101008401516001600160801b038116610120850152506101208401516001600160801b038116610140850152509392505050565b80356001600160a01b03811681146110b5575f5ffd5b5f60208284031215611248575f5ffd5b61125182611222565b9392505050565b634e487b7160e01b5f52604160045260245ffd5b5f82601f83011261127b575f5ffd5b813567ffffffffffffffff81111561129557611295611258565b604051601f8201601f19908116603f0116810167ffffffffffffffff811182821017156112c4576112c4611258565b6040528181528382016020018510156112db575f5ffd5b816020850160208301375f918101602001919091529392505050565b5f5f5f5f5f5f5f60e0888a03121561130d575f5ffd5b6113168861109f565b96506113246020890161109f565b9550604088013567ffffffffffffffff81111561133f575f5ffd5b61134b8a828b0161126c565b95505061135a6060890161109f565b93506080880135801515811461136e575f5ffd5b925060a088013567ffffffffffffffff811115611389575f5ffd5b6113958a828b0161126c565b92505060c088013567ffffffffffffffff8111156113b1575f5ffd5b6113bd8a828b0161126c565b91505092959891949750929550565b634e487b7160e01b5f52602160045260245ffd5b602081016003831061140057634e487b7160e01b5f52602160045260245ffd5b91905290565b5f5f60408385031215611417575f5ffd5b6110d483611222565b6001600160801b038b1681526001600160801b038a16602082015261014060408201525f61145261014083018b6110eb565b6001600160801b038a166060840152881515608084015282810360a084015261147b81896110eb565b905082810360c084015261148f81886110eb565b9150506001600160801b03851660e08301526114b76101008301856001600160801b03169052565b6001600160801b0383166101208301529b9a5050505050505050505050565b5f5f5f5f5f5f60c087890312156114eb575f5ffd5b6114f48761109f565b9550602087013567ffffffffffffffff81111561150f575f5ffd5b61151b89828a0161126c565b95505061152a6040880161109f565b9350606087013567ffffffffffffffff811115611545575f5ffd5b61155189828a0161126c565b935050608087013567ffffffffffffffff81111561156d575f5ffd5b61157989828a0161126c565b92505061158860a0880161109f565b90509295509295509295565b600181811c908216806115a857607f821691505b6020821081036115c657634e487b7160e01b5f52602260045260245ffd5b50919050565b6020808252600a908201526927b7363c9030b236b4b760b11b604082015260600190565b601f82111561163757805f5260205f20601f840160051c810160208510156116155750805b601f840160051c820191505b81811015611634575f8155600101611621565b50505b505050565b815167ffffffffffffffff81111561165657611656611258565b61166a816116648454611594565b846115f0565b6020601f82116001811461169c575f83156116855750848201515b5f19600385901b1c1916600184901b178455611634565b5f84815260208120601f198516915b828110156116cb57878501518255602094850194600190920191016116ab565b50848210156116e857868401515f19600387901b60f8161c191681555b50505050600190811b01905550565b602081525f61125160208301846110eb565b5f6001600160801b0382166001600160801b03810361173657634e487b7160e01b5f52601160045260245ffd5b6001019291505056fea2646970667358221220961e098ef7b8d38cb54c582e578efc036683efa882f81fecf91428c2c39f2e0264736f6c634300081e0033",
					"opcodes": "PUSH1 0x80 PUSH1 0x40 MSTORE CALLVALUE DUP1 ISZERO PUSH1 0xE JUMPI PUSH0 PUSH0 REVERT JUMPDEST POP PUSH2 0x1775 DUP1 PUSH2 0x1C PUSH0 CODECOPY PUSH0 RETURN INVALID PUSH1 0x80 PUSH1 0x40 MSTORE CALLVALUE DUP1 ISZERO PUSH2 0xF JUMPI PUSH0 PUSH0 REVERT JUMPDEST POP PUSH1 0x4 CALLDATASIZE LT PUSH2 0xE5 JUMPI PUSH0 CALLDATALOAD PUSH1 0xE0 SHR DUP1 PUSH4 0xAE9A4655 GT PUSH2 0x88 JUMPI DUP1 PUSH4 0xD9A85E63 GT PUSH2 0x63 JUMPI DUP1 PUSH4 0xD9A85E63 EQ PUSH2 0x224 JUMPI DUP1 PUSH4 0xE180AE75 EQ PUSH2 0x24D JUMPI DUP1 PUSH4 0xF2FDE38B EQ PUSH2 0x260 JUMPI DUP1 PUSH4 0xFB727088 EQ PUSH2 0x273 JUMPI PUSH0 PUSH0 REVERT JUMPDEST DUP1 PUSH4 0xAE9A4655 EQ PUSH2 0x1EB JUMPI DUP1 PUSH4 0xC4522C92 EQ PUSH2 0x1FE JUMPI DUP1 PUSH4 0xC4D66DE8 EQ PUSH2 0x211 JUMPI PUSH0 PUSH0 REVERT JUMPDEST DUP1 PUSH4 0x5B94EA5D GT PUSH2 0xC3 JUMPI DUP1 PUSH4 0x5B94EA5D EQ PUSH2 0x167 JUMPI DUP1 PUSH4 0x715018A6 EQ PUSH2 0x17A JUMPI DUP1 PUSH4 0x8DA5CB5B EQ PUSH2 0x182 JUMPI DUP1 PUSH4 0x99374642 EQ PUSH2 0x1BC JUMPI PUSH0 PUSH0 REVERT JUMPDEST DUP1 PUSH4 0xC528968 EQ PUSH2 0xE9 JUMPI DUP1 PUSH4 0x2D3238FE EQ PUSH2 0x112 JUMPI DUP1 PUSH4 0x41AF8B6F EQ PUSH2 0x152 JUMPI JUMPDEST PUSH0 PUSH0 REVERT JUMPDEST PUSH2 0xFC PUSH2 0xF7 CALLDATASIZE PUSH1 0x4 PUSH2 0x10BA JUMP JUMPDEST PUSH2 0x286 JUMP JUMPDEST PUSH1 0x40 MLOAD PUSH2 0x109 SWAP2 SWAP1 PUSH2 0x1119 JUMP JUMPDEST PUSH1 0x40 MLOAD DUP1 SWAP2 SUB SWAP1 RETURN JUMPDEST PUSH2 0x13A PUSH2 0x120 CALLDATASIZE PUSH1 0x4 PUSH2 0x1238 JUMP JUMPDEST PUSH1 0x1 PUSH1 0x20 MSTORE PUSH0 SWAP1 DUP2 MSTORE PUSH1 0x40 SWAP1 KECCAK256 SLOAD PUSH1 0x1 PUSH1 0x1 PUSH1 0x80 SHL SUB AND DUP2 JUMP JUMPDEST PUSH1 0x40 MLOAD PUSH1 0x1 PUSH1 0x1 PUSH1 0x80 SHL SUB SWAP1 SWAP2 AND DUP2 MSTORE PUSH1 0x20 ADD PUSH2 0x109 JUMP JUMPDEST PUSH2 0x165 PUSH2 0x160 CALLDATASIZE PUSH1 0x4 PUSH2 0x12F7 JUMP JUMPDEST PUSH2 0x52B JUMP JUMPDEST STOP JUMPDEST PUSH2 0x165 PUSH2 0x175 CALLDATASIZE PUSH1 0x4 PUSH2 0x10BA JUMP JUMPDEST PUSH2 0x66A JUMP JUMPDEST PUSH2 0x165 PUSH2 0x79B JUMP JUMPDEST PUSH32 0x9016D09D72D40FDAE2FD8CEAC6B6234C7706214FD39C1CD1E609A0528C199300 SLOAD PUSH1 0x40 MLOAD PUSH1 0x1 PUSH1 0x1 PUSH1 0xA0 SHL SUB SWAP1 SWAP2 AND DUP2 MSTORE PUSH1 0x20 ADD PUSH2 0x109 JUMP JUMPDEST PUSH2 0x1DE PUSH2 0x1CA CALLDATASIZE PUSH1 0x4 PUSH2 0x1238 JUMP JUMPDEST PUSH0 PUSH1 0x20 DUP2 SWAP1 MSTORE SWAP1 DUP2 MSTORE PUSH1 0x40 SWAP1 KECCAK256 SLOAD PUSH1 0xFF AND DUP2 JUMP JUMPDEST PUSH1 0x40 MLOAD PUSH2 0x109 SWAP2 SWAP1 PUSH2 0x13E0 JUMP JUMPDEST PUSH2 0x165 PUSH2 0x1F9 CALLDATASIZE PUSH1 0x4 PUSH2 0x1406 JUMP JUMPDEST PUSH2 0x7AE JUMP JUMPDEST PUSH2 0x165 PUSH2 0x20C CALLDATASIZE PUSH1 0x4 PUSH2 0x1238 JUMP JUMPDEST PUSH2 0x83B JUMP JUMPDEST PUSH2 0x165 PUSH2 0x21F CALLDATASIZE PUSH1 0x4 PUSH2 0x1238 JUMP JUMPDEST PUSH2 0x8C0 JUMP JUMPDEST PUSH2 0x237 PUSH2 0x232 CALLDATASIZE PUSH1 0x4 PUSH2 0x10BA JUMP JUMPDEST PUSH2 0x9EA JUMP JUMPDEST PUSH1 0x40 MLOAD PUSH2 0x109 SWAP11 SWAP10 SWAP9 SWAP8 SWAP7 SWAP6 SWAP5 SWAP4 SWAP3 SWAP2 SWAP1 PUSH2 0x1420 JUMP JUMPDEST PUSH2 0x165 PUSH2 0x25B CALLDATASIZE PUSH1 0x4 PUSH2 0x14D6 JUMP JUMPDEST PUSH2 0xC05 JUMP JUMPDEST PUSH2 0x165 PUSH2 0x26E CALLDATASIZE PUSH1 0x4 PUSH2 0x1238 JUMP JUMPDEST PUSH2 0xEC6 JUMP JUMPDEST PUSH1 0x2 SLOAD PUSH2 0x13A SWAP1 PUSH1 0x1 PUSH1 0x1 PUSH1 0x80 SHL SUB AND DUP2 JUMP JUMPDEST PUSH1 0x40 DUP1 MLOAD PUSH2 0x140 DUP1 DUP3 ADD DUP4 MSTORE PUSH0 DUP1 DUP4 MSTORE PUSH1 0x20 DUP1 DUP5 ADD DUP3 SWAP1 MSTORE PUSH1 0x60 DUP5 DUP7 ADD DUP2 SWAP1 MSTORE DUP1 DUP6 ADD DUP4 SWAP1 MSTORE PUSH1 0x80 DUP6 ADD DUP4 SWAP1 MSTORE PUSH1 0xA0 DUP6 ADD DUP2 SWAP1 MSTORE PUSH1 0xC0 DUP6 ADD MSTORE PUSH1 0xE0 DUP5 ADD DUP3 SWAP1 MSTORE PUSH2 0x100 DUP5 ADD DUP3 SWAP1 MSTORE PUSH2 0x120 DUP5 ADD DUP3 SWAP1 MSTORE PUSH1 0x1 PUSH1 0x1 PUSH1 0x80 SHL SUB DUP8 DUP2 AND DUP4 MSTORE PUSH1 0x3 DUP3 MSTORE DUP6 DUP4 KECCAK256 DUP8 DUP3 AND DUP5 MSTORE DUP3 MSTORE SWAP2 DUP6 SWAP1 KECCAK256 DUP6 MLOAD SWAP4 DUP5 ADD DUP7 MSTORE DUP1 SLOAD DUP1 DUP5 AND DUP6 MSTORE PUSH1 0x1 PUSH1 0x80 SHL SWAP1 DIV SWAP1 SWAP3 AND SWAP1 DUP4 ADD MSTORE PUSH1 0x1 DUP2 ADD DUP1 SLOAD SWAP4 SWAP5 SWAP3 SWAP4 SWAP2 SWAP3 DUP5 ADD SWAP2 PUSH2 0x329 SWAP1 PUSH2 0x1594 JUMP JUMPDEST DUP1 PUSH1 0x1F ADD PUSH1 0x20 DUP1 SWAP2 DIV MUL PUSH1 0x20 ADD PUSH1 0x40 MLOAD SWAP1 DUP2 ADD PUSH1 0x40 MSTORE DUP1 SWAP3 SWAP2 SWAP1 DUP2 DUP2 MSTORE PUSH1 0x20 ADD DUP3 DUP1 SLOAD PUSH2 0x355 SWAP1 PUSH2 0x1594 JUMP JUMPDEST DUP1 ISZERO PUSH2 0x3A0 JUMPI DUP1 PUSH1 0x1F LT PUSH2 0x377 JUMPI PUSH2 0x100 DUP1 DUP4 SLOAD DIV MUL DUP4 MSTORE SWAP2 PUSH1 0x20 ADD SWAP2 PUSH2 0x3A0 JUMP JUMPDEST DUP3 ADD SWAP2 SWAP1 PUSH0 MSTORE PUSH1 0x20 PUSH0 KECCAK256 SWAP1 JUMPDEST DUP2 SLOAD DUP2 MSTORE SWAP1 PUSH1 0x1 ADD SWAP1 PUSH1 0x20 ADD DUP1 DUP4 GT PUSH2 0x383 JUMPI DUP3 SWAP1 SUB PUSH1 0x1F AND DUP3 ADD SWAP2 JUMPDEST POP POP POP SWAP2 DUP4 MSTORE POP POP PUSH1 0x2 DUP3 ADD SLOAD PUSH1 0x1 PUSH1 0x1 PUSH1 0x80 SHL SUB DUP2 AND PUSH1 0x20 DUP4 ADD MSTORE PUSH1 0x1 PUSH1 0x80 SHL SWAP1 DIV PUSH1 0xFF AND ISZERO ISZERO PUSH1 0x40 DUP3 ADD MSTORE PUSH1 0x3 DUP3 ADD DUP1 SLOAD PUSH1 0x60 SWAP1 SWAP3 ADD SWAP2 PUSH2 0x3E2 SWAP1 PUSH2 0x1594 JUMP JUMPDEST DUP1 PUSH1 0x1F ADD PUSH1 0x20 DUP1 SWAP2 DIV MUL PUSH1 0x20 ADD PUSH1 0x40 MLOAD SWAP1 DUP2 ADD PUSH1 0x40 MSTORE DUP1 SWAP3 SWAP2 SWAP1 DUP2 DUP2 MSTORE PUSH1 0x20 ADD DUP3 DUP1 SLOAD PUSH2 0x40E SWAP1 PUSH2 0x1594 JUMP JUMPDEST DUP1 ISZERO PUSH2 0x459 JUMPI DUP1 PUSH1 0x1F LT PUSH2 0x430 JUMPI PUSH2 0x100 DUP1 DUP4 SLOAD DIV MUL DUP4 MSTORE SWAP2 PUSH1 0x20 ADD SWAP2 PUSH2 0x459 JUMP JUMPDEST DUP3 ADD SWAP2 SWAP1 PUSH0 MSTORE PUSH1 0x20 PUSH0 KECCAK256 SWAP1 JUMPDEST DUP2 SLOAD DUP2 MSTORE SWAP1 PUSH1 0x1 ADD SWAP1 PUSH1 0x20 ADD DUP1 DUP4 GT PUSH2 0x43C JUMPI DUP3 SWAP1 SUB PUSH1 0x1F AND DUP3 ADD SWAP2 JUMPDEST POP POP POP POP POP DUP2 MSTORE PUSH1 0x20 ADD PUSH1 0x4 DUP3 ADD DUP1 SLOAD PUSH2 0x472 SWAP1 PUSH2 0x1594 JUMP JUMPDEST DUP1 PUSH1 0x1F ADD PUSH1 0x20 DUP1 SWAP2 DIV MUL PUSH1 0x20 ADD PUSH1 0x40 MLOAD SWAP1 DUP2 ADD PUSH1 0x40 MSTORE DUP1 SWAP3 SWAP2 SWAP1 DUP2 DUP2 MSTORE PUSH1 0x20 ADD DUP3 DUP1 SLOAD PUSH2 0x49E SWAP1 PUSH2 0x1594 JUMP JUMPDEST DUP1 ISZERO PUSH2 0x4E9 JUMPI DUP1 PUSH1 0x1F LT PUSH2 0x4C0 JUMPI PUSH2 0x100 DUP1 DUP4 SLOAD DIV MUL DUP4 MSTORE SWAP2 PUSH1 0x20 ADD SWAP2 PUSH2 0x4E9 JUMP JUMPDEST DUP3 ADD SWAP2 SWAP1 PUSH0 MSTORE PUSH1 0x20 PUSH0 KECCAK256 SWAP1 JUMPDEST DUP2 SLOAD DUP2 MSTORE SWAP1 PUSH1 0x1 ADD SWAP1 PUSH1 0x20 ADD DUP1 DUP4 GT PUSH2 0x4CC JUMPI DUP3 SWAP1 SUB PUSH1 0x1F AND DUP3 ADD SWAP2 JUMPDEST POP POP POP SWAP2 DUP4 MSTORE POP POP PUSH1 0x5 DUP3 ADD SLOAD PUSH1 0x1 PUSH1 0x1 PUSH1 0x80 SHL SUB DUP1 DUP3 AND PUSH1 0x20 DUP5 ADD MSTORE PUSH1 0x1 PUSH1 0x80 SHL SWAP1 SWAP2 DIV DUP2 AND PUSH1 0x40 DUP4 ADD MSTORE PUSH1 0x6 SWAP1 SWAP3 ADD SLOAD SWAP1 SWAP2 AND PUSH1 0x60 SWAP1 SWAP2 ADD MSTORE SWAP4 SWAP3 POP POP POP JUMP JUMPDEST CALLER PUSH0 SWAP1 DUP2 MSTORE PUSH1 0x20 DUP2 SWAP1 MSTORE PUSH1 0x40 DUP2 KECCAK256 SLOAD PUSH1 0xFF AND PUSH1 0x2 DUP2 GT ISZERO PUSH2 0x54E JUMPI PUSH2 0x54E PUSH2 0x13CC JUMP JUMPDEST EQ PUSH2 0x574 JUMPI PUSH1 0x40 MLOAD PUSH3 0x461BCD PUSH1 0xE5 SHL DUP2 MSTORE PUSH1 0x4 ADD PUSH2 0x56B SWAP1 PUSH2 0x15CC JUMP JUMPDEST PUSH1 0x40 MLOAD DUP1 SWAP2 SUB SWAP1 REVERT JUMPDEST PUSH1 0x1 PUSH1 0x1 PUSH1 0x80 SHL SUB DUP1 DUP9 AND PUSH0 SWAP1 DUP2 MSTORE PUSH1 0x3 PUSH1 0x20 SWAP1 DUP2 MSTORE PUSH1 0x40 DUP1 DUP4 KECCAK256 DUP11 DUP6 AND DUP5 MSTORE SWAP1 SWAP2 MSTORE DUP2 KECCAK256 SLOAD SWAP1 SWAP2 AND SWAP1 SUB PUSH2 0x5E6 JUMPI PUSH1 0x40 MLOAD PUSH3 0x461BCD PUSH1 0xE5 SHL DUP2 MSTORE PUSH1 0x20 PUSH1 0x4 DUP3 ADD MSTORE PUSH1 0x18 PUSH1 0x24 DUP3 ADD MSTORE PUSH24 0x13595B9D481A5D195B48191BD95CC81B9BDD08195E1A5CDD PUSH1 0x42 SHL PUSH1 0x44 DUP3 ADD MSTORE PUSH1 0x64 ADD PUSH2 0x56B JUMP JUMPDEST PUSH1 0x1 PUSH1 0x1 PUSH1 0x80 SHL SUB DUP1 DUP9 AND PUSH0 SWAP1 DUP2 MSTORE PUSH1 0x3 PUSH1 0x20 SWAP1 DUP2 MSTORE PUSH1 0x40 DUP1 DUP4 KECCAK256 SWAP4 DUP11 AND DUP4 MSTORE SWAP3 SWAP1 MSTORE KECCAK256 PUSH1 0x1 DUP2 ADD PUSH2 0x618 DUP8 DUP3 PUSH2 0x163C JUMP JUMPDEST POP PUSH1 0x2 DUP2 ADD DUP1 SLOAD DUP6 ISZERO ISZERO PUSH1 0x1 PUSH1 0x80 SHL MUL PUSH1 0x1 PUSH1 0x1 PUSH1 0x88 SHL SUB NOT SWAP1 SWAP2 AND PUSH1 0x1 PUSH1 0x1 PUSH1 0x80 SHL SUB DUP9 AND OR OR SWAP1 SSTORE PUSH1 0x3 DUP2 ADD PUSH2 0x650 DUP5 DUP3 PUSH2 0x163C JUMP JUMPDEST POP PUSH1 0x4 DUP2 ADD PUSH2 0x65F DUP4 DUP3 PUSH2 0x163C JUMP JUMPDEST POP POP POP POP POP POP POP POP POP JUMP JUMPDEST CALLER PUSH0 SWAP1 DUP2 MSTORE PUSH1 0x20 DUP2 SWAP1 MSTORE PUSH1 0x40 DUP2 KECCAK256 SLOAD PUSH1 0xFF AND PUSH1 0x2 DUP2 GT ISZERO PUSH2 0x68D JUMPI PUSH2 0x68D PUSH2 0x13CC JUMP JUMPDEST EQ PUSH2 0x6AA JUMPI PUSH1 0x40 MLOAD PUSH3 0x461BCD PUSH1 0xE5 SHL DUP2 MSTORE PUSH1 0x4 ADD PUSH2 0x56B SWAP1 PUSH2 0x15CC JUMP JUMPDEST PUSH1 0x1 PUSH1 0x1 PUSH1 0x80 SHL SUB DUP1 DUP4 AND PUSH0 SWAP1 DUP2 MSTORE PUSH1 0x3 PUSH1 0x20 SWAP1 DUP2 MSTORE PUSH1 0x40 DUP1 DUP4 KECCAK256 DUP6 DUP6 AND DUP5 MSTORE SWAP1 SWAP2 MSTORE DUP2 KECCAK256 SLOAD SWAP1 SWAP2 AND SWAP1 SUB PUSH2 0x71C JUMPI PUSH1 0x40 MLOAD PUSH3 0x461BCD PUSH1 0xE5 SHL DUP2 MSTORE PUSH1 0x20 PUSH1 0x4 DUP3 ADD MSTORE PUSH1 0x18 PUSH1 0x24 DUP3 ADD MSTORE PUSH24 0x13595B9D481A5D195B48191BD95CC81B9BDD08195E1A5CDD PUSH1 0x42 SHL PUSH1 0x44 DUP3 ADD MSTORE PUSH1 0x64 ADD PUSH2 0x56B JUMP JUMPDEST PUSH1 0x1 PUSH1 0x1 PUSH1 0x80 SHL SUB DUP1 DUP4 AND PUSH0 SWAP1 DUP2 MSTORE PUSH1 0x3 PUSH1 0x20 SWAP1 DUP2 MSTORE PUSH1 0x40 DUP1 DUP4 KECCAK256 SWAP4 DUP6 AND DUP4 MSTORE SWAP3 SWAP1 MSTORE SWAP1 DUP2 KECCAK256 DUP2 DUP2 SSTORE SWAP1 PUSH2 0x753 PUSH1 0x1 DUP4 ADD DUP3 PUSH2 0x1055 JUMP JUMPDEST PUSH1 0x2 DUP3 ADD DUP1 SLOAD PUSH1 0x1 PUSH1 0x1 PUSH1 0x88 SHL SUB NOT AND SWAP1 SSTORE PUSH2 0x772 PUSH1 0x3 DUP4 ADD PUSH0 PUSH2 0x1055 JUMP JUMPDEST PUSH2 0x77F PUSH1 0x4 DUP4 ADD PUSH0 PUSH2 0x1055 JUMP JUMPDEST POP PUSH0 PUSH1 0x5 DUP3 ADD SSTORE PUSH1 0x6 ADD DUP1 SLOAD PUSH1 0x1 PUSH1 0x1 PUSH1 0x80 SHL SUB NOT AND SWAP1 SSTORE POP POP JUMP JUMPDEST PUSH2 0x7A3 PUSH2 0xF03 JUMP JUMPDEST PUSH2 0x7AC PUSH0 PUSH2 0xF5E JUMP JUMPDEST JUMP JUMPDEST CALLER PUSH0 SWAP1 DUP2 MSTORE PUSH1 0x20 DUP2 SWAP1 MSTORE PUSH1 0x40 DUP2 KECCAK256 SLOAD PUSH1 0xFF AND PUSH1 0x2 DUP2 GT ISZERO PUSH2 0x7D1 JUMPI PUSH2 0x7D1 PUSH2 0x13CC JUMP JUMPDEST EQ PUSH2 0x7EE JUMPI PUSH1 0x40 MLOAD PUSH3 0x461BCD PUSH1 0xE5 SHL DUP2 MSTORE PUSH1 0x4 ADD PUSH2 0x56B SWAP1 PUSH2 0x15CC JUMP JUMPDEST PUSH1 0x1 PUSH1 0x1 PUSH1 0xA0 SHL SUB SWAP2 SWAP1 SWAP2 AND PUSH0 SWAP1 DUP2 MSTORE PUSH1 0x20 DUP2 DUP2 MSTORE PUSH1 0x40 DUP1 DUP4 KECCAK256 DUP1 SLOAD PUSH1 0x1 PUSH1 0xFF NOT SWAP1 SWAP2 AND DUP2 OR SWAP1 SWAP2 SSTORE SWAP1 SWAP2 MSTORE SWAP1 KECCAK256 DUP1 SLOAD PUSH1 0x1 PUSH1 0x1 PUSH1 0x80 SHL SUB NOT AND PUSH1 0x1 PUSH1 0x1 PUSH1 0x80 SHL SUB SWAP1 SWAP3 AND SWAP2 SWAP1 SWAP2 OR SWAP1 SSTORE JUMP JUMPDEST CALLER PUSH0 SWAP1 DUP2 MSTORE PUSH1 0x20 DUP2 SWAP1 MSTORE PUSH1 0x40 DUP2 KECCAK256 SLOAD PUSH1 0xFF AND PUSH1 0x2 DUP2 GT ISZERO PUSH2 0x85E JUMPI PUSH2 0x85E PUSH2 0x13CC JUMP JUMPDEST EQ PUSH2 0x87B JUMPI PUSH1 0x40 MLOAD PUSH3 0x461BCD PUSH1 0xE5 SHL DUP2 MSTORE PUSH1 0x4 ADD PUSH2 0x56B SWAP1 PUSH2 0x15CC JUMP JUMPDEST PUSH1 0x1 PUSH1 0x1 PUSH1 0xA0 SHL SUB DUP2 AND PUSH0 SWAP1 DUP2 MSTORE PUSH1 0x1 PUSH1 0x20 DUP2 DUP2 MSTORE PUSH1 0x40 DUP1 DUP5 KECCAK256 DUP1 SLOAD PUSH1 0x1 PUSH1 0x1 PUSH1 0x80 SHL SUB NOT AND SWAP1 SSTORE SWAP1 DUP4 SWAP1 MSTORE SWAP1 SWAP2 KECCAK256 DUP1 SLOAD PUSH1 0x2 SWAP3 PUSH1 0xFF NOT SWAP1 SWAP2 AND SWAP1 DUP4 JUMPDEST MUL OR SWAP1 SSTORE POP POP JUMP JUMPDEST PUSH32 0xF0C57E16840DF040F15088DC2F81FE391C3923BEC73E23A9662EFC9C229C6A00 DUP1 SLOAD PUSH1 0x1 PUSH1 0x40 SHL DUP2 DIV PUSH1 0xFF AND ISZERO SWAP1 PUSH8 0xFFFFFFFFFFFFFFFF AND PUSH0 DUP2 ISZERO DUP1 ISZERO PUSH2 0x905 JUMPI POP DUP3 JUMPDEST SWAP1 POP PUSH0 DUP3 PUSH8 0xFFFFFFFFFFFFFFFF AND PUSH1 0x1 EQ DUP1 ISZERO PUSH2 0x921 JUMPI POP ADDRESS EXTCODESIZE ISZERO JUMPDEST SWAP1 POP DUP2 ISZERO DUP1 ISZERO PUSH2 0x92F JUMPI POP DUP1 ISZERO JUMPDEST ISZERO PUSH2 0x94D JUMPI PUSH1 0x40 MLOAD PUSH4 0xF92EE8A9 PUSH1 0xE0 SHL DUP2 MSTORE PUSH1 0x4 ADD PUSH1 0x40 MLOAD DUP1 SWAP2 SUB SWAP1 REVERT JUMPDEST DUP5 SLOAD PUSH8 0xFFFFFFFFFFFFFFFF NOT AND PUSH1 0x1 OR DUP6 SSTORE DUP4 ISZERO PUSH2 0x977 JUMPI DUP5 SLOAD PUSH1 0xFF PUSH1 0x40 SHL NOT AND PUSH1 0x1 PUSH1 0x40 SHL OR DUP6 SSTORE JUMPDEST PUSH2 0x980 DUP7 PUSH2 0xFCE JUMP JUMPDEST PUSH2 0x989 DUP7 PUSH2 0xFDF JUMP JUMPDEST PUSH1 0x2 DUP1 SLOAD PUSH1 0x1 PUSH1 0x1 PUSH1 0x80 SHL SUB NOT AND PUSH1 0x1 OR SWAP1 SSTORE DUP4 ISZERO PUSH2 0x9E2 JUMPI DUP5 SLOAD PUSH1 0xFF PUSH1 0x40 SHL NOT AND DUP6 SSTORE PUSH1 0x40 MLOAD PUSH1 0x1 DUP2 MSTORE PUSH32 0xC7F505B2F371AE2175EE4913F4499E1F2633A7B5936321EED1CDAEB6115181D2 SWAP1 PUSH1 0x20 ADD PUSH1 0x40 MLOAD DUP1 SWAP2 SUB SWAP1 LOG1 JUMPDEST POP POP POP POP POP POP JUMP JUMPDEST PUSH1 0x3 PUSH1 0x20 SWAP1 DUP2 MSTORE PUSH0 SWAP3 DUP4 MSTORE PUSH1 0x40 DUP1 DUP5 KECCAK256 SWAP1 SWAP2 MSTORE SWAP1 DUP3 MSTORE SWAP1 KECCAK256 DUP1 SLOAD PUSH1 0x1 DUP3 ADD DUP1 SLOAD PUSH1 0x1 PUSH1 0x1 PUSH1 0x80 SHL SUB DUP1 DUP5 AND SWAP5 PUSH1 0x1 PUSH1 0x80 SHL SWAP1 SWAP5 DIV AND SWAP3 SWAP2 SWAP1 PUSH2 0xA2B SWAP1 PUSH2 0x1594 JUMP JUMPDEST DUP1 PUSH1 0x1F ADD PUSH1 0x20 DUP1 SWAP2 DIV MUL PUSH1 0x20 ADD PUSH1 0x40 MLOAD SWAP1 DUP2 ADD PUSH1 0x40 MSTORE DUP1 SWAP3 SWAP2 SWAP1 DUP2 DUP2 MSTORE PUSH1 0x20 ADD DUP3 DUP1 SLOAD PUSH2 0xA57 SWAP1 PUSH2 0x1594 JUMP JUMPDEST DUP1 ISZERO PUSH2 0xAA2 JUMPI DUP1 PUSH1 0x1F LT PUSH2 0xA79 JUMPI PUSH2 0x100 DUP1 DUP4 SLOAD DIV MUL DUP4 MSTORE SWAP2 PUSH1 0x20 ADD SWAP2 PUSH2 0xAA2 JUMP JUMPDEST DUP3 ADD SWAP2 SWAP1 PUSH0 MSTORE PUSH1 0x20 PUSH0 KECCAK256 SWAP1 JUMPDEST DUP2 SLOAD DUP2 MSTORE SWAP1 PUSH1 0x1 ADD SWAP1 PUSH1 0x20 ADD DUP1 DUP4 GT PUSH2 0xA85 JUMPI DUP3 SWAP1 SUB PUSH1 0x1F AND DUP3 ADD SWAP2 JUMPDEST POP POP POP POP PUSH1 0x2 DUP4 ADD SLOAD PUSH1 0x3 DUP5 ADD DUP1 SLOAD SWAP4 SWAP5 PUSH1 0x1 PUSH1 0x1 PUSH1 0x80 SHL SUB DUP4 AND SWAP5 PUSH1 0x1 PUSH1 0x80 SHL SWAP1 SWAP4 DIV PUSH1 0xFF AND SWAP4 POP SWAP2 PUSH2 0xAD5 SWAP1 PUSH2 0x1594 JUMP JUMPDEST DUP1 PUSH1 0x1F ADD PUSH1 0x20 DUP1 SWAP2 DIV MUL PUSH1 0x20 ADD PUSH1 0x40 MLOAD SWAP1 DUP2 ADD PUSH1 0x40 MSTORE DUP1 SWAP3 SWAP2 SWAP1 DUP2 DUP2 MSTORE PUSH1 0x20 ADD DUP3 DUP1 SLOAD PUSH2 0xB01 SWAP1 PUSH2 0x1594 JUMP JUMPDEST DUP1 ISZERO PUSH2 0xB4C JUMPI DUP1 PUSH1 0x1F LT PUSH2 0xB23 JUMPI PUSH2 0x100 DUP1 DUP4 SLOAD DIV MUL DUP4 MSTORE SWAP2 PUSH1 0x20 ADD SWAP2 PUSH2 0xB4C JUMP JUMPDEST DUP3 ADD SWAP2 SWAP1 PUSH0 MSTORE PUSH1 0x20 PUSH0 KECCAK256 SWAP1 JUMPDEST DUP2 SLOAD DUP2 MSTORE SWAP1 PUSH1 0x1 ADD SWAP1 PUSH1 0x20 ADD DUP1 DUP4 GT PUSH2 0xB2F JUMPI DUP3 SWAP1 SUB PUSH1 0x1F AND DUP3 ADD SWAP2 JUMPDEST POP POP POP POP POP SWAP1 DUP1 PUSH1 0x4 ADD DUP1 SLOAD PUSH2 0xB61 SWAP1 PUSH2 0x1594 JUMP JUMPDEST DUP1 PUSH1 0x1F ADD PUSH1 0x20 DUP1 SWAP2 DIV MUL PUSH1 0x20 ADD PUSH1 0x40 MLOAD SWAP1 DUP2 ADD PUSH1 0x40 MSTORE DUP1 SWAP3 SWAP2 SWAP1 DUP2 DUP2 MSTORE PUSH1 0x20 ADD DUP3 DUP1 SLOAD PUSH2 0xB8D SWAP1 PUSH2 0x1594 JUMP JUMPDEST DUP1 ISZERO PUSH2 0xBD8 JUMPI DUP1 PUSH1 0x1F LT PUSH2 0xBAF JUMPI PUSH2 0x100 DUP1 DUP4 SLOAD DIV MUL DUP4 MSTORE SWAP2 PUSH1 0x20 ADD SWAP2 PUSH2 0xBD8 JUMP JUMPDEST DUP3 ADD SWAP2 SWAP1 PUSH0 MSTORE PUSH1 0x20 PUSH0 KECCAK256 SWAP1 JUMPDEST DUP2 SLOAD DUP2 MSTORE SWAP1 PUSH1 0x1 ADD SWAP1 PUSH1 0x20 ADD DUP1 DUP4 GT PUSH2 0xBBB JUMPI DUP3 SWAP1 SUB PUSH1 0x1F AND DUP3 ADD SWAP2 JUMPDEST POP POP POP POP PUSH1 0x5 DUP4 ADD SLOAD PUSH1 0x6 SWAP1 SWAP4 ADD SLOAD SWAP2 SWAP3 PUSH1 0x1 PUSH1 0x1 PUSH1 0x80 SHL SUB DUP1 DUP3 AND SWAP4 PUSH1 0x1 PUSH1 0x80 SHL SWAP1 SWAP3 DIV DUP2 AND SWAP3 POP AND DUP11 JUMP JUMPDEST CALLER PUSH0 SWAP1 DUP2 MSTORE PUSH1 0x20 DUP2 SWAP1 MSTORE PUSH1 0x40 DUP2 KECCAK256 SLOAD PUSH1 0xFF AND PUSH1 0x2 DUP2 GT ISZERO PUSH2 0xC28 JUMPI PUSH2 0xC28 PUSH2 0x13CC JUMP JUMPDEST EQ PUSH2 0xC45 JUMPI PUSH1 0x40 MLOAD PUSH3 0x461BCD PUSH1 0xE5 SHL DUP2 MSTORE PUSH1 0x4 ADD PUSH2 0x56B SWAP1 PUSH2 0x15CC JUMP JUMPDEST PUSH0 DUP7 PUSH1 0x1 PUSH1 0x1 PUSH1 0x80 SHL SUB AND GT PUSH2 0xC94 JUMPI PUSH1 0x40 MLOAD PUSH3 0x461BCD PUSH1 0xE5 SHL DUP2 MSTORE PUSH1 0x20 PUSH1 0x4 DUP3 ADD MSTORE PUSH1 0x14 PUSH1 0x24 DUP3 ADD MSTORE PUSH20 0x125B9D985B1A59081C995CDD185D5C985B9D1259 PUSH1 0x62 SHL PUSH1 0x44 DUP3 ADD MSTORE PUSH1 0x64 ADD PUSH2 0x56B JUMP JUMPDEST PUSH0 DUP2 PUSH1 0x1 PUSH1 0x1 PUSH1 0x80 SHL SUB AND GT PUSH2 0xCEC JUMPI PUSH1 0x40 MLOAD PUSH3 0x461BCD PUSH1 0xE5 SHL DUP2 MSTORE PUSH1 0x20 PUSH1 0x4 DUP3 ADD MSTORE PUSH1 0x18 PUSH1 0x24 DUP3 ADD MSTORE PUSH32 0x496E76616C6964207072657061726174696F6E2074696D650000000000000000 PUSH1 0x44 DUP3 ADD MSTORE PUSH1 0x64 ADD PUSH2 0x56B JUMP JUMPDEST PUSH1 0x40 DUP1 MLOAD PUSH2 0x140 DUP2 ADD DUP3 MSTORE PUSH1 0x2 SLOAD PUSH1 0x1 PUSH1 0x1 PUSH1 0x80 SHL SUB SWAP1 DUP2 AND DUP1 DUP4 MSTORE DUP10 DUP3 AND PUSH1 0x20 DUP1 DUP6 ADD DUP3 DUP2 MSTORE DUP6 DUP8 ADD DUP13 DUP2 MSTORE DUP12 DUP7 AND PUSH1 0x60 DUP9 ADD MSTORE PUSH1 0x1 PUSH1 0x80 DUP9 ADD DUP2 SWAP1 MSTORE PUSH1 0xA0 DUP9 ADD DUP13 SWAP1 MSTORE PUSH1 0xC0 DUP9 ADD DUP12 SWAP1 MSTORE PUSH0 PUSH1 0xE0 DUP10 ADD DUP2 SWAP1 MSTORE PUSH2 0x100 DUP10 ADD DUP2 SWAP1 MSTORE DUP11 DUP9 AND PUSH2 0x120 DUP11 ADD MSTORE SWAP5 DUP6 MSTORE PUSH1 0x3 DUP5 MSTORE DUP9 DUP6 KECCAK256 SWAP6 DUP6 MSTORE SWAP5 SWAP1 SWAP3 MSTORE SWAP6 SWAP1 SWAP2 KECCAK256 DUP5 MLOAD SWAP6 MLOAD DUP5 AND PUSH1 0x1 PUSH1 0x80 SHL MUL SWAP6 SWAP1 SWAP4 AND SWAP5 SWAP1 SWAP5 OR DUP3 SSTORE SWAP3 MLOAD SWAP2 SWAP3 SWAP1 SWAP2 SWAP1 DUP3 ADD SWAP1 PUSH2 0xD90 SWAP1 DUP3 PUSH2 0x163C JUMP JUMPDEST POP PUSH1 0x60 DUP3 ADD MLOAD PUSH1 0x2 DUP3 ADD DUP1 SLOAD PUSH1 0x80 DUP6 ADD MLOAD ISZERO ISZERO PUSH1 0x1 PUSH1 0x80 SHL MUL PUSH1 0x1 PUSH1 0x1 PUSH1 0x88 SHL SUB NOT SWAP1 SWAP2 AND PUSH1 0x1 PUSH1 0x1 PUSH1 0x80 SHL SUB SWAP1 SWAP4 AND SWAP3 SWAP1 SWAP3 OR SWAP2 SWAP1 SWAP2 OR SWAP1 SSTORE PUSH1 0xA0 DUP3 ADD MLOAD PUSH1 0x3 DUP3 ADD SWAP1 PUSH2 0xDDE SWAP1 DUP3 PUSH2 0x163C JUMP JUMPDEST POP PUSH1 0xC0 DUP3 ADD MLOAD PUSH1 0x4 DUP3 ADD SWAP1 PUSH2 0xDF3 SWAP1 DUP3 PUSH2 0x163C JUMP JUMPDEST POP PUSH1 0xE0 DUP3 ADD MLOAD PUSH2 0x100 DUP4 ADD MLOAD PUSH1 0x1 PUSH1 0x1 PUSH1 0x80 SHL SUB SWAP2 DUP3 AND PUSH1 0x1 PUSH1 0x80 SHL SWAP2 DUP4 AND SWAP2 SWAP1 SWAP2 MUL OR PUSH1 0x5 DUP4 ADD SSTORE PUSH2 0x120 SWAP1 SWAP3 ADD MLOAD PUSH1 0x6 SWAP1 SWAP2 ADD DUP1 SLOAD PUSH1 0x1 PUSH1 0x1 PUSH1 0x80 SHL SUB NOT AND SWAP2 DUP4 AND SWAP2 SWAP1 SWAP2 OR SWAP1 SSTORE PUSH1 0x2 SLOAD PUSH1 0x40 MLOAD DUP9 DUP4 AND SWAP3 SWAP2 SWAP1 SWAP2 AND SWAP1 PUSH32 0x16C3BB758075933856EBC4132418C1E40E2757B27275FA2FD2DE8C38E4E54B8E SWAP1 PUSH2 0xE79 SWAP1 DUP10 SWAP1 PUSH2 0x16F7 JUMP JUMPDEST PUSH1 0x40 MLOAD DUP1 SWAP2 SUB SWAP1 LOG3 PUSH1 0x2 DUP1 SLOAD PUSH1 0x1 PUSH1 0x1 PUSH1 0x80 SHL SUB AND SWAP1 PUSH0 PUSH2 0xE99 DUP4 PUSH2 0x1709 JUMP JUMPDEST SWAP2 SWAP1 PUSH2 0x100 EXP DUP2 SLOAD DUP2 PUSH1 0x1 PUSH1 0x1 PUSH1 0x80 SHL SUB MUL NOT AND SWAP1 DUP4 PUSH1 0x1 PUSH1 0x1 PUSH1 0x80 SHL SUB AND MUL OR SWAP1 SSTORE POP POP POP POP POP POP POP POP JUMP JUMPDEST PUSH2 0xECE PUSH2 0xF03 JUMP JUMPDEST PUSH1 0x1 PUSH1 0x1 PUSH1 0xA0 SHL SUB DUP2 AND PUSH2 0xEF7 JUMPI PUSH1 0x40 MLOAD PUSH4 0x1E4FBDF7 PUSH1 0xE0 SHL DUP2 MSTORE PUSH0 PUSH1 0x4 DUP3 ADD MSTORE PUSH1 0x24 ADD PUSH2 0x56B JUMP JUMPDEST PUSH2 0xF00 DUP2 PUSH2 0xF5E JUMP JUMPDEST POP JUMP JUMPDEST CALLER PUSH2 0xF35 PUSH32 0x9016D09D72D40FDAE2FD8CEAC6B6234C7706214FD39C1CD1E609A0528C199300 SLOAD PUSH1 0x1 PUSH1 0x1 PUSH1 0xA0 SHL SUB AND SWAP1 JUMP JUMPDEST PUSH1 0x1 PUSH1 0x1 PUSH1 0xA0 SHL SUB AND EQ PUSH2 0x7AC JUMPI PUSH1 0x40 MLOAD PUSH4 0x118CDAA7 PUSH1 0xE0 SHL DUP2 MSTORE CALLER PUSH1 0x4 DUP3 ADD MSTORE PUSH1 0x24 ADD PUSH2 0x56B JUMP JUMPDEST PUSH32 0x9016D09D72D40FDAE2FD8CEAC6B6234C7706214FD39C1CD1E609A0528C199300 DUP1 SLOAD PUSH1 0x1 PUSH1 0x1 PUSH1 0xA0 SHL SUB NOT DUP2 AND PUSH1 0x1 PUSH1 0x1 PUSH1 0xA0 SHL SUB DUP5 DUP2 AND SWAP2 DUP3 OR DUP5 SSTORE PUSH1 0x40 MLOAD SWAP3 AND SWAP2 DUP3 SWAP1 PUSH32 0x8BE0079C531659141344CD1FD0A4F28419497F9722A3DAAFE3B4186F6B6457E0 SWAP1 PUSH0 SWAP1 LOG3 POP POP POP JUMP JUMPDEST PUSH2 0xFD6 PUSH2 0x1004 JUMP JUMPDEST PUSH2 0xF00 DUP2 PUSH2 0x104D JUMP JUMPDEST PUSH1 0x1 PUSH1 0x1 PUSH1 0xA0 SHL SUB DUP2 AND PUSH0 SWAP1 DUP2 MSTORE PUSH1 0x20 DUP2 SWAP1 MSTORE PUSH1 0x40 DUP2 KECCAK256 DUP1 SLOAD PUSH1 0xFF NOT AND PUSH1 0x1 DUP4 PUSH2 0x8B8 JUMP JUMPDEST PUSH32 0xF0C57E16840DF040F15088DC2F81FE391C3923BEC73E23A9662EFC9C229C6A00 SLOAD PUSH1 0x1 PUSH1 0x40 SHL SWAP1 DIV PUSH1 0xFF AND PUSH2 0x7AC JUMPI PUSH1 0x40 MLOAD PUSH4 0x1AFCD79F PUSH1 0xE3 SHL DUP2 MSTORE PUSH1 0x4 ADD PUSH1 0x40 MLOAD DUP1 SWAP2 SUB SWAP1 REVERT JUMPDEST PUSH2 0xECE PUSH2 0x1004 JUMP JUMPDEST POP DUP1 SLOAD PUSH2 0x1061 SWAP1 PUSH2 0x1594 JUMP JUMPDEST PUSH0 DUP3 SSTORE DUP1 PUSH1 0x1F LT PUSH2 0x1070 JUMPI POP POP JUMP JUMPDEST PUSH1 0x1F ADD PUSH1 0x20 SWAP1 DIV SWAP1 PUSH0 MSTORE PUSH1 0x20 PUSH0 KECCAK256 SWAP1 DUP2 ADD SWAP1 PUSH2 0xF00 SWAP2 SWAP1 JUMPDEST DUP1 DUP3 GT ISZERO PUSH2 0x109B JUMPI PUSH0 DUP2 SSTORE PUSH1 0x1 ADD PUSH2 0x1088 JUMP JUMPDEST POP SWAP1 JUMP JUMPDEST DUP1 CALLDATALOAD PUSH1 0x1 PUSH1 0x1 PUSH1 0x80 SHL SUB DUP2 AND DUP2 EQ PUSH2 0x10B5 JUMPI PUSH0 PUSH0 REVERT JUMPDEST SWAP2 SWAP1 POP JUMP JUMPDEST PUSH0 PUSH0 PUSH1 0x40 DUP4 DUP6 SUB SLT ISZERO PUSH2 0x10CB JUMPI PUSH0 PUSH0 REVERT JUMPDEST PUSH2 0x10D4 DUP4 PUSH2 0x109F JUMP JUMPDEST SWAP2 POP PUSH2 0x10E2 PUSH1 0x20 DUP5 ADD PUSH2 0x109F JUMP JUMPDEST SWAP1 POP SWAP3 POP SWAP3 SWAP1 POP JUMP JUMPDEST PUSH0 DUP2 MLOAD DUP1 DUP5 MSTORE DUP1 PUSH1 0x20 DUP5 ADD PUSH1 0x20 DUP7 ADD MCOPY PUSH0 PUSH1 0x20 DUP3 DUP7 ADD ADD MSTORE PUSH1 0x20 PUSH1 0x1F NOT PUSH1 0x1F DUP4 ADD AND DUP6 ADD ADD SWAP2 POP POP SWAP3 SWAP2 POP POP JUMP JUMPDEST PUSH1 0x20 DUP2 MSTORE PUSH2 0x1133 PUSH1 0x20 DUP3 ADD DUP4 MLOAD PUSH1 0x1 PUSH1 0x1 PUSH1 0x80 SHL SUB AND SWAP1 MSTORE JUMP JUMPDEST PUSH0 PUSH1 0x20 DUP4 ADD MLOAD PUSH2 0x114E PUSH1 0x40 DUP5 ADD DUP3 PUSH1 0x1 PUSH1 0x1 PUSH1 0x80 SHL SUB AND SWAP1 MSTORE JUMP JUMPDEST POP PUSH1 0x40 DUP4 ADD MLOAD PUSH2 0x140 PUSH1 0x60 DUP5 ADD MSTORE PUSH2 0x116A PUSH2 0x160 DUP5 ADD DUP3 PUSH2 0x10EB JUMP JUMPDEST SWAP1 POP PUSH1 0x60 DUP5 ADD MLOAD PUSH2 0x1186 PUSH1 0x80 DUP6 ADD DUP3 PUSH1 0x1 PUSH1 0x1 PUSH1 0x80 SHL SUB AND SWAP1 MSTORE JUMP JUMPDEST POP PUSH1 0x80 DUP5 ADD MLOAD DUP1 ISZERO ISZERO PUSH1 0xA0 DUP6 ADD MSTORE POP PUSH1 0xA0 DUP5 ADD MLOAD DUP4 DUP3 SUB PUSH1 0x1F NOT ADD PUSH1 0xC0 DUP6 ADD MSTORE PUSH2 0x11B0 DUP3 DUP3 PUSH2 0x10EB JUMP JUMPDEST SWAP2 POP POP PUSH1 0xC0 DUP5 ADD MLOAD PUSH1 0x1F NOT DUP5 DUP4 SUB ADD PUSH1 0xE0 DUP6 ADD MSTORE PUSH2 0x11CE DUP3 DUP3 PUSH2 0x10EB JUMP JUMPDEST SWAP2 POP POP PUSH1 0xE0 DUP5 ADD MLOAD PUSH2 0x11EC PUSH2 0x100 DUP6 ADD DUP3 PUSH1 0x1 PUSH1 0x1 PUSH1 0x80 SHL SUB AND SWAP1 MSTORE JUMP JUMPDEST POP PUSH2 0x100 DUP5 ADD MLOAD PUSH1 0x1 PUSH1 0x1 PUSH1 0x80 SHL SUB DUP2 AND PUSH2 0x120 DUP6 ADD MSTORE POP PUSH2 0x120 DUP5 ADD MLOAD PUSH1 0x1 PUSH1 0x1 PUSH1 0x80 SHL SUB DUP2 AND PUSH2 0x140 DUP6 ADD MSTORE POP SWAP4 SWAP3 POP POP POP JUMP JUMPDEST DUP1 CALLDATALOAD PUSH1 0x1 PUSH1 0x1 PUSH1 0xA0 SHL SUB DUP2 AND DUP2 EQ PUSH2 0x10B5 JUMPI PUSH0 PUSH0 REVERT JUMPDEST PUSH0 PUSH1 0x20 DUP3 DUP5 SUB SLT ISZERO PUSH2 0x1248 JUMPI PUSH0 PUSH0 REVERT JUMPDEST PUSH2 0x1251 DUP3 PUSH2 0x1222 JUMP JUMPDEST SWAP4 SWAP3 POP POP POP JUMP JUMPDEST PUSH4 0x4E487B71 PUSH1 0xE0 SHL PUSH0 MSTORE PUSH1 0x41 PUSH1 0x4 MSTORE PUSH1 0x24 PUSH0 REVERT JUMPDEST PUSH0 DUP3 PUSH1 0x1F DUP4 ADD SLT PUSH2 0x127B JUMPI PUSH0 PUSH0 REVERT JUMPDEST DUP2 CALLDATALOAD PUSH8 0xFFFFFFFFFFFFFFFF DUP2 GT ISZERO PUSH2 0x1295 JUMPI PUSH2 0x1295 PUSH2 0x1258 JUMP JUMPDEST PUSH1 0x40 MLOAD PUSH1 0x1F DUP3 ADD PUSH1 0x1F NOT SWAP1 DUP2 AND PUSH1 0x3F ADD AND DUP2 ADD PUSH8 0xFFFFFFFFFFFFFFFF DUP2 GT DUP3 DUP3 LT OR ISZERO PUSH2 0x12C4 JUMPI PUSH2 0x12C4 PUSH2 0x1258 JUMP JUMPDEST PUSH1 0x40 MSTORE DUP2 DUP2 MSTORE DUP4 DUP3 ADD PUSH1 0x20 ADD DUP6 LT ISZERO PUSH2 0x12DB JUMPI PUSH0 PUSH0 REVERT JUMPDEST DUP2 PUSH1 0x20 DUP6 ADD PUSH1 0x20 DUP4 ADD CALLDATACOPY PUSH0 SWAP2 DUP2 ADD PUSH1 0x20 ADD SWAP2 SWAP1 SWAP2 MSTORE SWAP4 SWAP3 POP POP POP JUMP JUMPDEST PUSH0 PUSH0 PUSH0 PUSH0 PUSH0 PUSH0 PUSH0 PUSH1 0xE0 DUP9 DUP11 SUB SLT ISZERO PUSH2 0x130D JUMPI PUSH0 PUSH0 REVERT JUMPDEST PUSH2 0x1316 DUP9 PUSH2 0x109F JUMP JUMPDEST SWAP7 POP PUSH2 0x1324 PUSH1 0x20 DUP10 ADD PUSH2 0x109F JUMP JUMPDEST SWAP6 POP PUSH1 0x40 DUP9 ADD CALLDATALOAD PUSH8 0xFFFFFFFFFFFFFFFF DUP2 GT ISZERO PUSH2 0x133F JUMPI PUSH0 PUSH0 REVERT JUMPDEST PUSH2 0x134B DUP11 DUP3 DUP12 ADD PUSH2 0x126C JUMP JUMPDEST SWAP6 POP POP PUSH2 0x135A PUSH1 0x60 DUP10 ADD PUSH2 0x109F JUMP JUMPDEST SWAP4 POP PUSH1 0x80 DUP9 ADD CALLDATALOAD DUP1 ISZERO ISZERO DUP2 EQ PUSH2 0x136E JUMPI PUSH0 PUSH0 REVERT JUMPDEST SWAP3 POP PUSH1 0xA0 DUP9 ADD CALLDATALOAD PUSH8 0xFFFFFFFFFFFFFFFF DUP2 GT ISZERO PUSH2 0x1389 JUMPI PUSH0 PUSH0 REVERT JUMPDEST PUSH2 0x1395 DUP11 DUP3 DUP12 ADD PUSH2 0x126C JUMP JUMPDEST SWAP3 POP POP PUSH1 0xC0 DUP9 ADD CALLDATALOAD PUSH8 0xFFFFFFFFFFFFFFFF DUP2 GT ISZERO PUSH2 0x13B1 JUMPI PUSH0 PUSH0 REVERT JUMPDEST PUSH2 0x13BD DUP11 DUP3 DUP12 ADD PUSH2 0x126C JUMP JUMPDEST SWAP2 POP POP SWAP3 SWAP6 SWAP9 SWAP2 SWAP5 SWAP8 POP SWAP3 SWAP6 POP JUMP JUMPDEST PUSH4 0x4E487B71 PUSH1 0xE0 SHL PUSH0 MSTORE PUSH1 0x21 PUSH1 0x4 MSTORE PUSH1 0x24 PUSH0 REVERT JUMPDEST PUSH1 0x20 DUP2 ADD PUSH1 0x3 DUP4 LT PUSH2 0x1400 JUMPI PUSH4 0x4E487B71 PUSH1 0xE0 SHL PUSH0 MSTORE PUSH1 0x21 PUSH1 0x4 MSTORE PUSH1 0x24 PUSH0 REVERT JUMPDEST SWAP2 SWAP1 MSTORE SWAP1 JUMP JUMPDEST PUSH0 PUSH0 PUSH1 0x40 DUP4 DUP6 SUB SLT ISZERO PUSH2 0x1417 JUMPI PUSH0 PUSH0 REVERT JUMPDEST PUSH2 0x10D4 DUP4 PUSH2 0x1222 JUMP JUMPDEST PUSH1 0x1 PUSH1 0x1 PUSH1 0x80 SHL SUB DUP12 AND DUP2 MSTORE PUSH1 0x1 PUSH1 0x1 PUSH1 0x80 SHL SUB DUP11 AND PUSH1 0x20 DUP3 ADD MSTORE PUSH2 0x140 PUSH1 0x40 DUP3 ADD MSTORE PUSH0 PUSH2 0x1452 PUSH2 0x140 DUP4 ADD DUP12 PUSH2 0x10EB JUMP JUMPDEST PUSH1 0x1 PUSH1 0x1 PUSH1 0x80 SHL SUB DUP11 AND PUSH1 0x60 DUP5 ADD MSTORE DUP9 ISZERO ISZERO PUSH1 0x80 DUP5 ADD MSTORE DUP3 DUP2 SUB PUSH1 0xA0 DUP5 ADD MSTORE PUSH2 0x147B DUP2 DUP10 PUSH2 0x10EB JUMP JUMPDEST SWAP1 POP DUP3 DUP2 SUB PUSH1 0xC0 DUP5 ADD MSTORE PUSH2 0x148F DUP2 DUP9 PUSH2 0x10EB JUMP JUMPDEST SWAP2 POP POP PUSH1 0x1 PUSH1 0x1 PUSH1 0x80 SHL SUB DUP6 AND PUSH1 0xE0 DUP4 ADD MSTORE PUSH2 0x14B7 PUSH2 0x100 DUP4 ADD DUP6 PUSH1 0x1 PUSH1 0x1 PUSH1 0x80 SHL SUB AND SWAP1 MSTORE JUMP JUMPDEST PUSH1 0x1 PUSH1 0x1 PUSH1 0x80 SHL SUB DUP4 AND PUSH2 0x120 DUP4 ADD MSTORE SWAP12 SWAP11 POP POP POP POP POP POP POP POP POP POP POP JUMP JUMPDEST PUSH0 PUSH0 PUSH0 PUSH0 PUSH0 PUSH0 PUSH1 0xC0 DUP8 DUP10 SUB SLT ISZERO PUSH2 0x14EB JUMPI PUSH0 PUSH0 REVERT JUMPDEST PUSH2 0x14F4 DUP8 PUSH2 0x109F JUMP JUMPDEST SWAP6 POP PUSH1 0x20 DUP8 ADD CALLDATALOAD PUSH8 0xFFFFFFFFFFFFFFFF DUP2 GT ISZERO PUSH2 0x150F JUMPI PUSH0 PUSH0 REVERT JUMPDEST PUSH2 0x151B DUP10 DUP3 DUP11 ADD PUSH2 0x126C JUMP JUMPDEST SWAP6 POP POP PUSH2 0x152A PUSH1 0x40 DUP9 ADD PUSH2 0x109F JUMP JUMPDEST SWAP4 POP PUSH1 0x60 DUP8 ADD CALLDATALOAD PUSH8 0xFFFFFFFFFFFFFFFF DUP2 GT ISZERO PUSH2 0x1545 JUMPI PUSH0 PUSH0 REVERT JUMPDEST PUSH2 0x1551 DUP10 DUP3 DUP11 ADD PUSH2 0x126C JUMP JUMPDEST SWAP4 POP POP PUSH1 0x80 DUP8 ADD CALLDATALOAD PUSH8 0xFFFFFFFFFFFFFFFF DUP2 GT ISZERO PUSH2 0x156D JUMPI PUSH0 PUSH0 REVERT JUMPDEST PUSH2 0x1579 DUP10 DUP3 DUP11 ADD PUSH2 0x126C JUMP JUMPDEST SWAP3 POP POP PUSH2 0x1588 PUSH1 0xA0 DUP9 ADD PUSH2 0x109F JUMP JUMPDEST SWAP1 POP SWAP3 SWAP6 POP SWAP3 SWAP6 POP SWAP3 SWAP6 JUMP JUMPDEST PUSH1 0x1 DUP2 DUP2 SHR SWAP1 DUP3 AND DUP1 PUSH2 0x15A8 JUMPI PUSH1 0x7F DUP3 AND SWAP2 POP JUMPDEST PUSH1 0x20 DUP3 LT DUP2 SUB PUSH2 0x15C6 JUMPI PUSH4 0x4E487B71 PUSH1 0xE0 SHL PUSH0 MSTORE PUSH1 0x22 PUSH1 0x4 MSTORE PUSH1 0x24 PUSH0 REVERT JUMPDEST POP SWAP2 SWAP1 POP JUMP JUMPDEST PUSH1 0x20 DUP1 DUP3 MSTORE PUSH1 0xA SWAP1 DUP3 ADD MSTORE PUSH10 0x27B7363C9030B236B4B7 PUSH1 0xB1 SHL PUSH1 0x40 DUP3 ADD MSTORE PUSH1 0x60 ADD SWAP1 JUMP JUMPDEST PUSH1 0x1F DUP3 GT ISZERO PUSH2 0x1637 JUMPI DUP1 PUSH0 MSTORE PUSH1 0x20 PUSH0 KECCAK256 PUSH1 0x1F DUP5 ADD PUSH1 0x5 SHR DUP2 ADD PUSH1 0x20 DUP6 LT ISZERO PUSH2 0x1615 JUMPI POP DUP1 JUMPDEST PUSH1 0x1F DUP5 ADD PUSH1 0x5 SHR DUP3 ADD SWAP2 POP JUMPDEST DUP2 DUP2 LT ISZERO PUSH2 0x1634 JUMPI PUSH0 DUP2 SSTORE PUSH1 0x1 ADD PUSH2 0x1621 JUMP JUMPDEST POP POP JUMPDEST POP POP POP JUMP JUMPDEST DUP2 MLOAD PUSH8 0xFFFFFFFFFFFFFFFF DUP2 GT ISZERO PUSH2 0x1656 JUMPI PUSH2 0x1656 PUSH2 0x1258 JUMP JUMPDEST PUSH2 0x166A DUP2 PUSH2 0x1664 DUP5 SLOAD PUSH2 0x1594 JUMP JUMPDEST DUP5 PUSH2 0x15F0 JUMP JUMPDEST PUSH1 0x20 PUSH1 0x1F DUP3 GT PUSH1 0x1 DUP2 EQ PUSH2 0x169C JUMPI PUSH0 DUP4 ISZERO PUSH2 0x1685 JUMPI POP DUP5 DUP3 ADD MLOAD JUMPDEST PUSH0 NOT PUSH1 0x3 DUP6 SWAP1 SHL SHR NOT AND PUSH1 0x1 DUP5 SWAP1 SHL OR DUP5 SSTORE PUSH2 0x1634 JUMP JUMPDEST PUSH0 DUP5 DUP2 MSTORE PUSH1 0x20 DUP2 KECCAK256 PUSH1 0x1F NOT DUP6 AND SWAP2 JUMPDEST DUP3 DUP2 LT ISZERO PUSH2 0x16CB JUMPI DUP8 DUP6 ADD MLOAD DUP3 SSTORE PUSH1 0x20 SWAP5 DUP6 ADD SWAP5 PUSH1 0x1 SWAP1 SWAP3 ADD SWAP2 ADD PUSH2 0x16AB JUMP JUMPDEST POP DUP5 DUP3 LT ISZERO PUSH2 0x16E8 JUMPI DUP7 DUP5 ADD MLOAD PUSH0 NOT PUSH1 0x3 DUP8 SWAP1 SHL PUSH1 0xF8 AND SHR NOT AND DUP2 SSTORE JUMPDEST POP POP POP POP PUSH1 0x1 SWAP1 DUP2 SHL ADD SWAP1 SSTORE POP JUMP JUMPDEST PUSH1 0x20 DUP2 MSTORE PUSH0 PUSH2 0x1251 PUSH1 0x20 DUP4 ADD DUP5 PUSH2 0x10EB JUMP JUMPDEST PUSH0 PUSH1 0x1 PUSH1 0x1 PUSH1 0x80 SHL SUB DUP3 AND PUSH1 0x1 PUSH1 0x1 PUSH1 0x80 SHL SUB DUP2 SUB PUSH2 0x1736 JUMPI PUSH4 0x4E487B71 PUSH1 0xE0 SHL PUSH0 MSTORE PUSH1 0x11 PUSH1 0x4 MSTORE PUSH1 0x24 PUSH0 REVERT JUMPDEST PUSH1 0x1 ADD SWAP3 SWAP2 POP POP JUMP INVALID LOG2 PUSH5 0x6970667358 0x22 SLT KECCAK256 SWAP7 0x1E MULMOD DUP15 0xF7 0xB8 0xD3 DUP13 0xB5 0x4C PC 0x2E JUMPI DUP15 0xFC SUB PUSH7 0x83EFA882F81FEC EXTDELEGATECALL EQ 0x28 0xC2 0xC3 SWAP16 0x2E MUL PUSH5 0x736F6C6343 STOP ADDMOD 0x1E STOP CALLER "
				},
				"gasEstimates": {
					"creation": {
						"codeDepositCost": "1201000",
						"executionCost": "1246",
						"totalCost": "1202246"
					},
					"external": {
						"addMenuItem(uint128,string,uint128,string,string,uint128)": "infinite",
						"assignStaff(address,uint128)": "infinite",
						"getMenuItem(uint128,uint128)": "infinite",
						"initialize(address)": "infinite",
						"menuByRestaurant(uint128,uint128)": "infinite",
						"nextMenuId()": "2424",
						"owner()": "2367",
						"removeMenuItem(uint128,uint128)": "infinite",
						"removeStaff(address)": "51198",
						"renounceOwnership()": "infinite",
						"roles(address)": "2661",
						"staffRestaurants(address)": "2601",
						"transferOwnership(address)": "28431",
						"updateMenuItem(uint128,uint128,string,uint128,bool,string,string)": "infinite"
					}
				},
				"methodIdentifiers": {
					"addMenuItem(uint128,string,uint128,string,string,uint128)": "e180ae75",
					"assignStaff(address,uint128)": "ae9a4655",
					"getMenuItem(uint128,uint128)": "0c528968",
					"initialize(address)": "c4d66de8",
					"menuByRestaurant(uint128,uint128)": "d9a85e63",
					"nextMenuId()": "fb727088",
					"owner()": "8da5cb5b",
					"removeMenuItem(uint128,uint128)": "5b94ea5d",
					"removeStaff(address)": "c4522c92",
					"renounceOwnership()": "715018a6",
					"roles(address)": "99374642",
					"staffRestaurants(address)": "2d3238fe",
					"transferOwnership(address)": "f2fde38b",
					"updateMenuItem(uint128,uint128,string,uint128,bool,string,string)": "41af8b6f"
				}
			},
			"storageLayout": {
				"storage": [
					{
						"astId": 516,
						"contract": "contracts/MenuManager.sol:MenuManager",
						"label": "roles",
						"offset": 0,
						"slot": "0",
						"type": "t_mapping(t_address,t_enum(Role)1286)"
					},
					{
						"astId": 520,
						"contract": "contracts/MenuManager.sol:MenuManager",
						"label": "staffRestaurants",
						"offset": 0,
						"slot": "1",
						"type": "t_mapping(t_address,t_uint128)"
					},
					{
						"astId": 645,
						"contract": "contracts/MenuManager.sol:MenuManager",
						"label": "nextMenuId",
						"offset": 0,
						"slot": "2",
						"type": "t_uint128"
					},
					{
						"astId": 652,
						"contract": "contracts/MenuManager.sol:MenuManager",
						"label": "menuByRestaurant",
						"offset": 0,
						"slot": "3",
						"type": "t_mapping(t_uint128,t_mapping(t_uint128,t_struct(MenuItem)1314_storage))"
					}
				],
				"types": {
					"t_address": {
						"encoding": "inplace",
						"label": "address",
						"numberOfBytes": "20"
					},
					"t_bool": {
						"encoding": "inplace",
						"label": "bool",
						"numberOfBytes": "1"
					},
					"t_enum(Role)1286": {
						"encoding": "inplace",
						"label": "enum Role",
						"numberOfBytes": "1"
					},
					"t_mapping(t_address,t_enum(Role)1286)": {
						"encoding": "mapping",
						"key": "t_address",
						"label": "mapping(address => enum Role)",
						"numberOfBytes": "32",
						"value": "t_enum(Role)1286"
					},
					"t_mapping(t_address,t_uint128)": {
						"encoding": "mapping",
						"key": "t_address",
						"label": "mapping(address => uint128)",
						"numberOfBytes": "32",
						"value": "t_uint128"
					},
					"t_mapping(t_uint128,t_mapping(t_uint128,t_struct(MenuItem)1314_storage))": {
						"encoding": "mapping",
						"key": "t_uint128",
						"label": "mapping(uint128 => mapping(uint128 => struct MenuItem))",
						"numberOfBytes": "32",
						"value": "t_mapping(t_uint128,t_struct(MenuItem)1314_storage)"
					},
					"t_mapping(t_uint128,t_struct(MenuItem)1314_storage)": {
						"encoding": "mapping",
						"key": "t_uint128",
						"label": "mapping(uint128 => struct MenuItem)",
						"numberOfBytes": "32",
						"value": "t_struct(MenuItem)1314_storage"
					},
					"t_string_storage": {
						"encoding": "bytes",
						"label": "string",
						"numberOfBytes": "32"
					},
					"t_struct(MenuItem)1314_storage": {
						"encoding": "inplace",
						"label": "struct MenuItem",
						"members": [
							{
								"astId": 1295,
								"contract": "contracts/MenuManager.sol:MenuManager",
								"label": "id",
								"offset": 0,
								"slot": "0",
								"type": "t_uint128"
							},
							{
								"astId": 1297,
								"contract": "contracts/MenuManager.sol:MenuManager",
								"label": "restaurantId",
								"offset": 16,
								"slot": "0",
								"type": "t_uint128"
							},
							{
								"astId": 1299,
								"contract": "contracts/MenuManager.sol:MenuManager",
								"label": "name",
								"offset": 0,
								"slot": "1",
								"type": "t_string_storage"
							},
							{
								"astId": 1301,
								"contract": "contracts/MenuManager.sol:MenuManager",
								"label": "price",
								"offset": 0,
								"slot": "2",
								"type": "t_uint128"
							},
							{
								"astId": 1303,
								"contract": "contracts/MenuManager.sol:MenuManager",
								"label": "available",
								"offset": 16,
								"slot": "2",
								"type": "t_bool"
							},
							{
								"astId": 1305,
								"contract": "contracts/MenuManager.sol:MenuManager",
								"label": "description",
								"offset": 0,
								"slot": "3",
								"type": "t_string_storage"
							},
							{
								"astId": 1307,
								"contract": "contracts/MenuManager.sol:MenuManager",
								"label": "category",
								"offset": 0,
								"slot": "4",
								"type": "t_string_storage"
							},
							{
								"astId": 1309,
								"contract": "contracts/MenuManager.sol:MenuManager",
								"label": "totalRating",
								"offset": 0,
								"slot": "5",
								"type": "t_uint128"
							},
							{
								"astId": 1311,
								"contract": "contracts/MenuManager.sol:MenuManager",
								"label": "ratingCount",
								"offset": 16,
								"slot": "5",
								"type": "t_uint128"
							},
							{
								"astId": 1313,
								"contract": "contracts/MenuManager.sol:MenuManager",
								"label": "preparationTime",
								"offset": 0,
								"slot": "6",
								"type": "t_uint128"
							}
						],
						"numberOfBytes": "224"
					},
					"t_uint128": {
						"encoding": "inplace",
						"label": "uint128",
						"numberOfBytes": "16"
					}
				}
			},
			"userdoc": {
				"kind": "user",
				"methods": {},
				"version": 1
			}
		}
	}
}