{
	"contracts/OrderManager.sol": {
		"OrderManager": {
			"abi": [
				{
					"inputs": [],
					"name": "InvalidInitialization",
					"type": "error"
				},
				{
					"inputs": [],
					"name": "NotInitializing",
					"type": "error"
				},
				{
					"inputs": [
						{
							"internalType": "address",
							"name": "owner",
							"type": "address"
						}
					],
					"name": "OwnableInvalidOwner",
					"type": "error"
				},
				{
					"inputs": [
						{
							"internalType": "address",
							"name": "account",
							"type": "address"
						}
					],
					"name": "OwnableUnauthorizedAccount",
					"type": "error"
				},
				{
					"anonymous": false,
					"inputs": [
						{
							"indexed": false,
							"internalType": "uint64",
							"name": "version",
							"type": "uint64"
						}
					],
					"name": "Initialized",
					"type": "event"
				},
				{
					"anonymous": false,
					"inputs": [
						{
							"indexed": true,
							"internalType": "uint128",
							"name": "orderId",
							"type": "uint128"
						},
						{
							"indexed": true,
							"internalType": "address",
							"name": "customer",
							"type": "address"
						},
						{
							"indexed": false,
							"internalType": "uint128",
							"name": "totalPrice",
							"type": "uint128"
						},
						{
							"indexed": false,
							"internalType": "uint128",
							"name": "preparationTime",
							"type": "uint128"
						}
					],
					"name": "OrderPlaced",
					"type": "event"
				},
				{
					"anonymous": false,
					"inputs": [
						{
							"indexed": true,
							"internalType": "address",
							"name": "previousOwner",
							"type": "address"
						},
						{
							"indexed": true,
							"internalType": "address",
							"name": "newOwner",
							"type": "address"
						}
					],
					"name": "OwnershipTransferred",
					"type": "event"
				},
				{
					"inputs": [
						{
							"internalType": "address",
							"name": "staff",
							"type": "address"
						},
						{
							"internalType": "uint128",
							"name": "restaurantId",
							"type": "uint128"
						}
					],
					"name": "assignStaff",
					"outputs": [],
					"stateMutability": "nonpayable",
					"type": "function"
				},
				{
					"inputs": [
						{
							"internalType": "uint128",
							"name": "orderId",
							"type": "uint128"
						}
					],
					"name": "cancelOrder",
					"outputs": [],
					"stateMutability": "nonpayable",
					"type": "function"
				},
				{
					"inputs": [
						{
							"internalType": "uint128",
							"name": "orderId",
							"type": "uint128"
						}
					],
					"name": "completeOrder",
					"outputs": [],
					"stateMutability": "nonpayable",
					"type": "function"
				},
				{
					"inputs": [
						{
							"internalType": "address",
							"name": "",
							"type": "address"
						},
						{
							"internalType": "uint256",
							"name": "",
							"type": "uint256"
						}
					],
					"name": "customerOrders",
					"outputs": [
						{
							"internalType": "uint128",
							"name": "",
							"type": "uint128"
						}
					],
					"stateMutability": "view",
					"type": "function"
				},
				{
					"inputs": [
						{
							"internalType": "uint128",
							"name": "orderId",
							"type": "uint128"
						}
					],
					"name": "getOrder",
					"outputs": [
						{
							"components": [
								{
									"internalType": "uint128",
									"name": "id",
									"type": "uint128"
								},
								{
									"internalType": "address",
									"name": "customer",
									"type": "address"
								},
								{
									"internalType": "uint128",
									"name": "restaurantId",
									"type": "uint128"
								},
								{
									"internalType": "uint128[]",
									"name": "itemIds",
									"type": "uint128[]"
								},
								{
									"internalType": "uint128[]",
									"name": "quantities",
									"type": "uint128[]"
								},
								{
									"internalType": "uint128",
									"name": "totalPrice",
									"type": "uint128"
								},
								{
									"internalType": "enum OrderStatus",
									"name": "status",
									"type": "uint8"
								},
								{
									"internalType": "uint128",
									"name": "timestamp",
									"type": "uint128"
								},
								{
									"internalType": "uint128",
									"name": "preparationTime",
									"type": "uint128"
								}
							],
							"internalType": "struct Order",
							"name": "",
							"type": "tuple"
						}
					],
					"stateMutability": "view",
					"type": "function"
				},
				{
					"inputs": [
						{
							"internalType": "address",
							"name": "admin",
							"type": "address"
						},
						{
							"internalType": "address",
							"name": "_menuManager",
							"type": "address"
						}
					],
					"name": "initialize",
					"outputs": [],
					"stateMutability": "nonpayable",
					"type": "function"
				},
				{
					"inputs": [],
					"name": "menuManager",
					"outputs": [
						{
							"internalType": "contract MenuManager",
							"name": "",
							"type": "address"
						}
					],
					"stateMutability": "view",
					"type": "function"
				},
				{
					"inputs": [],
					"name": "nextOrderId",
					"outputs": [
						{
							"internalType": "uint128",
							"name": "",
							"type": "uint128"
						}
					],
					"stateMutability": "view",
					"type": "function"
				},
				{
					"inputs": [
						{
							"internalType": "uint128",
							"name": "",
							"type": "uint128"
						}
					],
					"name": "orders",
					"outputs": [
						{
							"internalType": "uint128",
							"name": "id",
							"type": "uint128"
						},
						{
							"internalType": "address",
							"name": "customer",
							"type": "address"
						},
						{
							"internalType": "uint128",
							"name": "restaurantId",
							"type": "uint128"
						},
						{
							"internalType": "uint128",
							"name": "totalPrice",
							"type": "uint128"
						},
						{
							"internalType": "enum OrderStatus",
							"name": "status",
							"type": "uint8"
						},
						{
							"internalType": "uint128",
							"name": "timestamp",
							"type": "uint128"
						},
						{
							"internalType": "uint128",
							"name": "preparationTime",
							"type": "uint128"
						}
					],
					"stateMutability": "view",
					"type": "function"
				},
				{
					"inputs": [],
					"name": "owner",
					"outputs": [
						{
							"internalType": "address",
							"name": "",
							"type": "address"
						}
					],
					"stateMutability": "view",
					"type": "function"
				},
				{
					"inputs": [
						{
							"internalType": "uint128",
							"name": "restaurantId",
							"type": "uint128"
						},
						{
							"internalType": "uint128[]",
							"name": "itemIds",
							"type": "uint128[]"
						},
						{
							"internalType": "uint128[]",
							"name": "quantities",
							"type": "uint128[]"
						}
					],
					"name": "placeOrder",
					"outputs": [],
					"stateMutability": "payable",
					"type": "function"
				},
				{
					"inputs": [
						{
							"internalType": "address",
							"name": "staff",
							"type": "address"
						}
					],
					"name": "removeStaff",
					"outputs": [],
					"stateMutability": "nonpayable",
					"type": "function"
				},
				{
					"inputs": [],
					"name": "renounceOwnership",
					"outputs": [],
					"stateMutability": "nonpayable",
					"type": "function"
				},
				{
					"inputs": [
						{
							"internalType": "address",
							"name": "",
							"type": "address"
						}
					],
					"name": "roles",
					"outputs": [
						{
							"internalType": "enum Role",
							"name": "",
							"type": "uint8"
						}
					],
					"stateMutability": "view",
					"type": "function"
				},
				{
					"inputs": [
						{
							"internalType": "address",
							"name": "",
							"type": "address"
						}
					],
					"name": "staffRestaurants",
					"outputs": [
						{
							"internalType": "uint128",
							"name": "",
							"type": "uint128"
						}
					],
					"stateMutability": "view",
					"type": "function"
				},
				{
					"inputs": [
						{
							"internalType": "address",
							"name": "newOwner",
							"type": "address"
						}
					],
					"name": "transferOwnership",
					"outputs": [],
					"stateMutability": "nonpayable",
					"type": "function"
				},
				{
					"inputs": [
						{
							"internalType": "uint128",
							"name": "orderId",
							"type": "uint128"
						},
						{
							"internalType": "enum OrderStatus",
							"name": "status",
							"type": "uint8"
						}
					],
					"name": "updateOrderStatus",
					"outputs": [],
					"stateMutability": "nonpayable",
					"type": "function"
				}
			],
			"devdoc": {
				"errors": {
					"InvalidInitialization()": [
						{
							"details": "The contract is already initialized."
						}
					],
					"NotInitializing()": [
						{
							"details": "The contract is not initializing."
						}
					],
					"OwnableInvalidOwner(address)": [
						{
							"details": "The owner is not a valid owner account. (eg. `address(0)`)"
						}
					],
					"OwnableUnauthorizedAccount(address)": [
						{
							"details": "The caller account is not authorized to perform an operation."
						}
					]
				},
				"events": {
					"Initialized(uint64)": {
						"details": "Triggered when the contract has been initialized or reinitialized."
					}
				},
				"kind": "dev",
				"methods": {
					"owner()": {
						"details": "Returns the address of the current owner."
					},
					"renounceOwnership()": {
						"details": "Leaves the contract without owner. It will not be possible to call `onlyOwner` functions. Can only be called by the current owner. NOTE: Renouncing ownership will leave the contract without an owner, thereby disabling any functionality that is only available to the owner."
					},
					"transferOwnership(address)": {
						"details": "Transfers ownership of the contract to a new account (`newOwner`). Can only be called by the current owner."
					}
				},
				"version": 1
			},
			"evm": {
				"assembly": "    /* \"contracts/OrderManager.sol\":284:3120  contract OrderManager is OwnableUpgradeable, RoleAccess, IOrderManager {... */\n  mstore(0x40, 0x80)\n  callvalue\n  dup1\n  iszero\n  tag_1\n  jumpi\n  revert(0x00, 0x00)\ntag_1:\n  pop\n  dataSize(sub_0)\n  dup1\n  dataOffset(sub_0)\n  0x00\n  codecopy\n  0x00\n  return\nstop\n\nsub_0: assembly {\n        /* \"contracts/OrderManager.sol\":284:3120  contract OrderManager is OwnableUpgradeable, RoleAccess, IOrderManager {... */\n      mstore(0x40, 0x80)\n      jumpi(tag_1, lt(calldatasize, 0x04))\n      shr(0xe0, calldataload(0x00))\n      dup1\n      0x8da5cb5b\n      gt\n      tag_19\n      jumpi\n      dup1\n      0xc4522c92\n      gt\n      tag_20\n      jumpi\n      dup1\n      0xc4522c92\n      eq\n      tag_14\n      jumpi\n      dup1\n      0xdbc91396\n      eq\n      tag_15\n      jumpi\n      dup1\n      0xddb0c22f\n      eq\n      tag_16\n      jumpi\n      dup1\n      0xf2fde38b\n      eq\n      tag_17\n      jumpi\n      dup1\n      0xff8ddee3\n      eq\n      tag_18\n      jumpi\n      revert(0x00, 0x00)\n    tag_20:\n      dup1\n      0x8da5cb5b\n      eq\n      tag_10\n      jumpi\n      dup1\n      0x98d88075\n      eq\n      tag_11\n      jumpi\n      dup1\n      0x99374642\n      eq\n      tag_12\n      jumpi\n      dup1\n      0xae9a4655\n      eq\n      tag_13\n      jumpi\n      revert(0x00, 0x00)\n    tag_19:\n      dup1\n      0x388f20a8\n      gt\n      tag_21\n      jumpi\n      dup1\n      0x388f20a8\n      eq\n      tag_6\n      jumpi\n      dup1\n      0x485cc955\n      eq\n      tag_7\n      jumpi\n      dup1\n      0x5059e95b\n      eq\n      tag_8\n      jumpi\n      dup1\n      0x715018a6\n      eq\n      tag_9\n      jumpi\n      revert(0x00, 0x00)\n    tag_21:\n      dup1\n      0x117d4128\n      eq\n      tag_2\n      jumpi\n      dup1\n      0x1600c6cd\n      eq\n      tag_3\n      jumpi\n      dup1\n      0x2a58b330\n      eq\n      tag_4\n      jumpi\n      dup1\n      0x2d3238fe\n      eq\n      tag_5\n      jumpi\n    tag_1:\n      revert(0x00, 0x00)\n        /* \"contracts/OrderManager.sol\":2995:3117  function getOrder(uint128 orderId) external view override returns (Order memory) {... */\n    tag_2:\n      callvalue\n      dup1\n      iszero\n      tag_22\n      jumpi\n      revert(0x00, 0x00)\n    tag_22:\n      pop\n      tag_23\n      tag_24\n      calldatasize\n      0x04\n      tag_25\n      jump\t// in\n    tag_24:\n      tag_26\n      jump\t// in\n    tag_23:\n      mload(0x40)\n      tag_27\n      swap2\n      swap1\n      tag_28\n      jump\t// in\n    tag_27:\n      mload(0x40)\n      dup1\n      swap2\n      sub\n      swap1\n      return\n        /* \"contracts/OrderManager.sol\":441:492  mapping(address => uint128[]) public customerOrders */\n    tag_3:\n      callvalue\n      dup1\n      iszero\n      tag_29\n      jumpi\n      revert(0x00, 0x00)\n    tag_29:\n      pop\n      tag_30\n      tag_31\n      calldatasize\n      0x04\n      tag_32\n      jump\t// in\n    tag_31:\n      tag_33\n      jump\t// in\n    tag_30:\n      mload(0x40)\n      sub(shl(0x80, 0x01), 0x01)\n        /* \"#utility.yul\":3370:3417   */\n      swap1\n      swap2\n      and\n        /* \"#utility.yul\":3352:3418   */\n      dup2\n      mstore\n        /* \"#utility.yul\":3340:3342   */\n      0x20\n        /* \"#utility.yul\":3325:3343   */\n      add\n        /* \"contracts/OrderManager.sol\":441:492  mapping(address => uint128[]) public customerOrders */\n      tag_27\n        /* \"#utility.yul\":3206:3424   */\n      jump\n        /* \"contracts/OrderManager.sol\":362:388  uint128 public nextOrderId */\n    tag_4:\n      callvalue\n      dup1\n      iszero\n      tag_36\n      jumpi\n      revert(0x00, 0x00)\n    tag_36:\n      pop\n      sload(0x02)\n      tag_30\n      swap1\n      sub(shl(0x80, 0x01), 0x01)\n      and\n      dup2\n      jump\n        /* \"access/RoleAccess.sol\":170:221  mapping(address => uint128) public staffRestaurants */\n    tag_5:\n      callvalue\n      dup1\n      iszero\n      tag_40\n      jumpi\n      revert(0x00, 0x00)\n    tag_40:\n      pop\n      tag_30\n      tag_42\n      calldatasize\n      0x04\n      tag_43\n      jump\t// in\n    tag_42:\n      mstore(0x20, 0x01)\n      0x00\n      swap1\n      dup2\n      mstore\n      0x40\n      swap1\n      keccak256\n      sload\n      sub(shl(0x80, 0x01), 0x01)\n      and\n      dup2\n      jump\n        /* \"contracts/OrderManager.sol\":2525:2807  function completeOrder(uint128 orderId) external override onlyStaff(orders[orderId].restaurantId) {... */\n    tag_6:\n      callvalue\n      dup1\n      iszero\n      tag_46\n      jumpi\n      revert(0x00, 0x00)\n    tag_46:\n      pop\n      tag_47\n      tag_48\n      calldatasize\n      0x04\n      tag_25\n      jump\t// in\n    tag_48:\n      tag_49\n      jump\t// in\n    tag_47:\n      stop\n        /* \"contracts/OrderManager.sol\":538:763  function initialize(address admin, address _menuManager) public initializer {... */\n    tag_7:\n      callvalue\n      dup1\n      iszero\n      tag_50\n      jumpi\n      revert(0x00, 0x00)\n    tag_50:\n      pop\n      tag_47\n      tag_52\n      calldatasize\n      0x04\n      tag_53\n      jump\t// in\n    tag_52:\n      tag_54\n      jump\t// in\n        /* \"contracts/OrderManager.sol\":499:529  MenuManager public menuManager */\n    tag_8:\n      callvalue\n      dup1\n      iszero\n      tag_55\n      jumpi\n      revert(0x00, 0x00)\n    tag_55:\n      pop\n      sload(0x05)\n      tag_56\n      swap1\n      sub(shl(0xa0, 0x01), 0x01)\n      and\n      dup2\n      jump\n    tag_56:\n      mload(0x40)\n      sub(shl(0xa0, 0x01), 0x01)\n        /* \"#utility.yul\":4068:4100   */\n      swap1\n      swap2\n      and\n        /* \"#utility.yul\":4050:4101   */\n      dup2\n      mstore\n        /* \"#utility.yul\":4038:4040   */\n      0x20\n        /* \"#utility.yul\":4023:4041   */\n      add\n        /* \"contracts/OrderManager.sol\":499:529  MenuManager public menuManager */\n      tag_27\n        /* \"#utility.yul\":3885:4107   */\n      jump\n        /* \"@openzeppelin/contracts-upgradeable/access/OwnableUpgradeable.sol\":3155:3256  function renounceOwnership() public virtual onlyOwner {... */\n    tag_9:\n      callvalue\n      dup1\n      iszero\n      tag_60\n      jumpi\n      revert(0x00, 0x00)\n    tag_60:\n      pop\n      tag_47\n      tag_62\n      jump\t// in\n        /* \"@openzeppelin/contracts-upgradeable/access/OwnableUpgradeable.sol\":2441:2585  function owner() public view virtual returns (address) {... */\n    tag_10:\n      callvalue\n      dup1\n      iszero\n      tag_63\n      jumpi\n      revert(0x00, 0x00)\n    tag_63:\n      pop\n        /* \"@openzeppelin/contracts-upgradeable/access/OwnableUpgradeable.sol\":1313:1335  OwnableStorageLocation */\n      0x9016d09d72d40fdae2fd8ceac6b6234c7706214fd39c1cd1e609a0528c199300\n        /* \"@openzeppelin/contracts-upgradeable/access/OwnableUpgradeable.sol\":2570:2578  $._owner */\n      sload\n      sub(shl(0xa0, 0x01), 0x01)\n      and\n        /* \"@openzeppelin/contracts-upgradeable/access/OwnableUpgradeable.sol\":2441:2585  function owner() public view virtual returns (address) {... */\n      jump(tag_56)\n        /* \"contracts/OrderManager.sol\":771:2191  function placeOrder(... */\n    tag_11:\n      tag_47\n      tag_69\n      calldatasize\n      0x04\n      tag_70\n      jump\t// in\n    tag_69:\n      tag_71\n      jump\t// in\n        /* \"access/RoleAccess.sol\":126:163  mapping(address => Role) public roles */\n    tag_12:\n      callvalue\n      dup1\n      iszero\n      tag_72\n      jumpi\n      revert(0x00, 0x00)\n    tag_72:\n      pop\n      tag_73\n      tag_74\n      calldatasize\n      0x04\n      tag_43\n      jump\t// in\n    tag_74:\n      0x00\n      0x20\n      dup2\n      swap1\n      mstore\n      swap1\n      dup2\n      mstore\n      0x40\n      swap1\n      keccak256\n      sload\n      0xff\n      and\n      dup2\n      jump\n    tag_73:\n      mload(0x40)\n      tag_27\n      swap2\n      swap1\n      tag_77\n      jump\t// in\n        /* \"access/RoleAccess.sol\":769:939  function assignStaff(address staff, uint128 restaurantId) external onlyAdmin {... */\n    tag_13:\n      callvalue\n      dup1\n      iszero\n      tag_78\n      jumpi\n      revert(0x00, 0x00)\n    tag_78:\n      pop\n      tag_47\n      tag_80\n      calldatasize\n      0x04\n      tag_81\n      jump\t// in\n    tag_80:\n      tag_82\n      jump\t// in\n        /* \"access/RoleAccess.sol\":947:1090  function removeStaff(address staff) external onlyAdmin {... */\n    tag_14:\n      callvalue\n      dup1\n      iszero\n      tag_83\n      jumpi\n      revert(0x00, 0x00)\n    tag_83:\n      pop\n      tag_47\n      tag_85\n      calldatasize\n      0x04\n      tag_43\n      jump\t// in\n    tag_85:\n      tag_86\n      jump\t// in\n        /* \"contracts/OrderManager.sol\":2199:2517  function cancelOrder(uint128 orderId) external override onlyCustomer {... */\n    tag_15:\n      callvalue\n      dup1\n      iszero\n      tag_87\n      jumpi\n      revert(0x00, 0x00)\n    tag_87:\n      pop\n      tag_47\n      tag_89\n      calldatasize\n      0x04\n      tag_25\n      jump\t// in\n    tag_89:\n      tag_90\n      jump\t// in\n        /* \"contracts/OrderManager.sol\":2815:2987  function updateOrderStatus(uint128 orderId, OrderStatus status) external override onlyStaff(orders[orderId].restaurantId) {... */\n    tag_16:\n      callvalue\n      dup1\n      iszero\n      tag_91\n      jumpi\n      revert(0x00, 0x00)\n    tag_91:\n      pop\n      tag_47\n      tag_93\n      calldatasize\n      0x04\n      tag_94\n      jump\t// in\n    tag_93:\n      tag_95\n      jump\t// in\n        /* \"@openzeppelin/contracts-upgradeable/access/OwnableUpgradeable.sol\":3405:3620  function transferOwnership(address newOwner) public virtual onlyOwner {... */\n    tag_17:\n      callvalue\n      dup1\n      iszero\n      tag_96\n      jumpi\n      revert(0x00, 0x00)\n    tag_96:\n      pop\n      tag_47\n      tag_98\n      calldatasize\n      0x04\n      tag_43\n      jump\t// in\n    tag_98:\n      tag_99\n      jump\t// in\n        /* \"contracts/OrderManager.sol\":395:434  mapping(uint128 => Order) public orders */\n    tag_18:\n      callvalue\n      dup1\n      iszero\n      tag_100\n      jumpi\n      revert(0x00, 0x00)\n    tag_100:\n      pop\n      tag_101\n      tag_102\n      calldatasize\n      0x04\n      tag_25\n      jump\t// in\n    tag_102:\n      mstore(0x20, 0x03)\n      0x00\n      swap1\n      dup2\n      mstore\n      0x40\n      swap1\n      keccak256\n      dup1\n      sload\n      0x01\n      dup3\n      add\n      sload\n      0x02\n      dup4\n      add\n      sload\n      0x05\n      dup5\n      add\n      sload\n      0x06\n      swap1\n      swap5\n      add\n      sload\n      sub(shl(0x80, 0x01), 0x01)\n      swap4\n      dup5\n      and\n      swap5\n      sub(shl(0xa0, 0x01), 0x01)\n      swap1\n      swap4\n      and\n      swap4\n      swap2\n      dup3\n      and\n      swap3\n      dup1\n      dup4\n      and\n      swap3\n      0xff\n      shl(0x80, 0x01)\n      swap3\n      dup4\n      swap1\n      div\n      and\n      swap3\n      dup1\n      dup3\n      and\n      swap3\n      swap1\n      div\n      and\n      dup8\n      jump\n    tag_101:\n      mload(0x40)\n      tag_27\n      swap8\n      swap7\n      swap6\n      swap5\n      swap4\n      swap3\n      swap2\n      swap1\n      tag_105\n      jump\t// in\n        /* \"contracts/OrderManager.sol\":2995:3117  function getOrder(uint128 orderId) external view override returns (Order memory) {... */\n    tag_26:\n      0x40\n      dup1\n      mload\n      0x0120\n      dup2\n      add\n      dup3\n      mstore\n      0x00\n      dup1\n      dup3\n      mstore\n      0x20\n      dup3\n      add\n      dup2\n      swap1\n      mstore\n      swap2\n      dup2\n      add\n      dup3\n      swap1\n      mstore\n      0x60\n      dup1\n      dup3\n      add\n      dup2\n      swap1\n      mstore\n      0x80\n      dup3\n      add\n      mstore\n      0xa0\n      dup2\n      add\n      dup3\n      swap1\n      mstore\n      0xc0\n      dup2\n      add\n      dup3\n      swap1\n      mstore\n      0xe0\n      dup2\n      add\n      dup3\n      swap1\n      mstore\n      0x0100\n      dup2\n      add\n      swap2\n      swap1\n      swap2\n      mstore\n      sub(shl(0x80, 0x01), 0x01)\n        /* \"contracts/OrderManager.sol\":3094:3109  orders[orderId] */\n      dup1\n      dup4\n      and\n      0x00\n      swap1\n      dup2\n      mstore\n        /* \"contracts/OrderManager.sol\":3094:3100  orders */\n      0x03\n        /* \"contracts/OrderManager.sol\":3094:3109  orders[orderId] */\n      0x20\n      dup2\n      dup2\n      mstore\n      0x40\n      swap3\n      dup4\n      swap1\n      keccak256\n        /* \"contracts/OrderManager.sol\":3087:3109  return orders[orderId] */\n      dup4\n      mload\n      0x0120\n      dup2\n      add\n      dup6\n      mstore\n      dup2\n      sload\n      dup7\n      and\n      dup2\n      mstore\n      0x01\n      dup3\n      add\n      sload\n      sub(shl(0xa0, 0x01), 0x01)\n      and\n      dup2\n      dup5\n      add\n      mstore\n      0x02\n      dup3\n      add\n      sload\n      swap1\n      swap6\n      and\n      dup6\n      dup6\n      add\n      mstore\n      swap2\n      dup3\n      add\n      dup1\n      sload\n      dup5\n      mload\n      dup2\n      dup5\n      mul\n      dup2\n      add\n      dup5\n      add\n      swap1\n      swap6\n      mstore\n      dup1\n      dup6\n      mstore\n        /* \"contracts/OrderManager.sol\":3094:3109  orders[orderId] */\n      swap3\n      swap4\n        /* \"contracts/OrderManager.sol\":3087:3109  return orders[orderId] */\n      0x60\n      dup7\n      add\n      swap4\n      swap1\n      swap3\n      dup4\n      add\n      dup3\n      dup3\n      dup1\n      iszero\n      tag_109\n      jumpi\n      0x20\n      mul\n      dup3\n      add\n      swap2\n      swap1\n      0x00\n      mstore\n      keccak256(0x00, 0x20)\n      swap1\n      0x00\n      swap1\n    tag_110:\n      dup3\n      dup3\n      swap1\n      sload\n      swap1\n      0x0100\n      exp\n      swap1\n      div\n      sub(shl(0x80, 0x01), 0x01)\n      and\n      sub(shl(0x80, 0x01), 0x01)\n      and\n      dup2\n      mstore\n      0x20\n      add\n      swap1\n      0x10\n      add\n      swap1\n      0x20\n      dup3\n      0x0f\n      add\n      div\n      swap3\n      dup4\n      add\n      swap3\n      0x01\n      sub\n      dup3\n      mul\n      swap2\n      pop\n      dup1\n      dup5\n      gt\n      tag_110\n      jumpi\n      swap1\n      pop\n    tag_109:\n      pop\n      pop\n      pop\n      pop\n      pop\n      dup2\n      mstore\n      0x20\n      add\n      0x04\n      dup3\n      add\n      dup1\n      sload\n      dup1\n      0x20\n      mul\n      0x20\n      add\n      mload(0x40)\n      swap1\n      dup2\n      add\n      0x40\n      mstore\n      dup1\n      swap3\n      swap2\n      swap1\n      dup2\n      dup2\n      mstore\n      0x20\n      add\n      dup3\n      dup1\n      sload\n      dup1\n      iszero\n      tag_111\n      jumpi\n      0x20\n      mul\n      dup3\n      add\n      swap2\n      swap1\n      0x00\n      mstore\n      keccak256(0x00, 0x20)\n      swap1\n      0x00\n      swap1\n    tag_112:\n      dup3\n      dup3\n      swap1\n      sload\n      swap1\n      0x0100\n      exp\n      swap1\n      div\n      sub(shl(0x80, 0x01), 0x01)\n      and\n      sub(shl(0x80, 0x01), 0x01)\n      and\n      dup2\n      mstore\n      0x20\n      add\n      swap1\n      0x10\n      add\n      swap1\n      0x20\n      dup3\n      0x0f\n      add\n      div\n      swap3\n      dup4\n      add\n      swap3\n      0x01\n      sub\n      dup3\n      mul\n      swap2\n      pop\n      dup1\n      dup5\n      gt\n      tag_112\n      jumpi\n      swap1\n      pop\n    tag_111:\n      pop\n      pop\n      pop\n      swap2\n      dup4\n      mstore\n      pop\n      pop\n      0x05\n      dup3\n      dup2\n      add\n      sload\n      sub(shl(0x80, 0x01), 0x01)\n      dup2\n      and\n      0x20\n      dup5\n      add\n      mstore\n      0x40\n      swap1\n      swap3\n      add\n      swap2\n      shl(0x80, 0x01)\n      swap1\n      div\n      0xff\n      and\n      swap1\n      dup2\n      gt\n      iszero\n      tag_114\n      jumpi\n      tag_114\n      tag_115\n      jump\t// in\n    tag_114:\n      0x05\n      dup2\n      gt\n      iszero\n      tag_117\n      jumpi\n      tag_117\n      tag_115\n      jump\t// in\n    tag_117:\n      dup2\n      mstore\n      0x06\n      swap2\n      swap1\n      swap2\n      add\n      sload\n      sub(shl(0x80, 0x01), 0x01)\n      dup1\n      dup3\n      and\n      0x20\n      dup5\n      add\n      mstore\n      shl(0x80, 0x01)\n      swap1\n      swap2\n      div\n      and\n      0x40\n      swap1\n      swap2\n      add\n      mstore\n      swap3\n        /* \"contracts/OrderManager.sol\":2995:3117  function getOrder(uint128 orderId) external view override returns (Order memory) {... */\n      swap2\n      pop\n      pop\n      jump\t// out\n        /* \"contracts/OrderManager.sol\":441:492  mapping(address => uint128[]) public customerOrders */\n    tag_33:\n      mstore(0x20, 0x04)\n      dup2\n      0x00\n      mstore\n      keccak256(0x00, 0x40)\n      dup2\n      dup2\n      sload\n      dup2\n      lt\n      tag_118\n      jumpi\n      0x00\n      dup1\n      revert\n    tag_118:\n      swap1\n      0x00\n      mstore\n      keccak256(0x00, 0x20)\n      swap1\n      0x02\n      swap2\n      dup3\n      dup3\n      div\n      add\n      swap2\n      swap1\n      mod\n      0x10\n      mul\n      swap2\n      pop\n      swap2\n      pop\n      swap1\n      sload\n      swap1\n      0x0100\n      exp\n      swap1\n      div\n      sub(shl(0x80, 0x01), 0x01)\n      and\n      dup2\n      jump\t// out\n        /* \"contracts/OrderManager.sol\":2525:2807  function completeOrder(uint128 orderId) external override onlyStaff(orders[orderId].restaurantId) {... */\n    tag_49:\n      sub(shl(0x80, 0x01), 0x01)\n        /* \"contracts/OrderManager.sol\":2593:2608  orders[orderId] */\n      dup1\n      dup3\n      and\n      0x00\n      swap1\n      dup2\n      mstore\n        /* \"contracts/OrderManager.sol\":2593:2599  orders */\n      0x03\n        /* \"contracts/OrderManager.sol\":2593:2608  orders[orderId] */\n      0x20\n      swap1\n      dup2\n      mstore\n      0x40\n      dup1\n      dup4\n      keccak256\n        /* \"contracts/OrderManager.sol\":2593:2621  orders[orderId].restaurantId */\n      0x02\n      add\n      sload\n        /* \"access/RoleAccess.sol\":421:431  msg.sender */\n      caller\n        /* \"access/RoleAccess.sol\":404:432  staffRestaurants[msg.sender] */\n      dup5\n      mstore\n        /* \"contracts/OrderManager.sol\":2593:2621  orders[orderId].restaurantId */\n      0x01\n        /* \"access/RoleAccess.sol\":404:432  staffRestaurants[msg.sender] */\n      swap1\n      swap3\n      mstore\n      swap1\n      swap2\n      keccak256\n      sload\n        /* \"contracts/OrderManager.sol\":2593:2621  orders[orderId].restaurantId */\n      swap1\n      dup3\n      and\n      swap2\n        /* \"access/RoleAccess.sol\":404:432  staffRestaurants[msg.sender] */\n      and\n        /* \"access/RoleAccess.sol\":404:448  staffRestaurants[msg.sender] == restaurantId */\n      dup2\n      eq\n        /* \"access/RoleAccess.sol\":396:482  require(staffRestaurants[msg.sender] == restaurantId, \"Only staff of this restaurant\") */\n      tag_121\n      jumpi\n      mload(0x40)\n      shl(0xe5, 0x461bcd)\n      dup2\n      mstore\n        /* \"#utility.yul\":8592:8594   */\n      0x20\n        /* \"access/RoleAccess.sol\":396:482  require(staffRestaurants[msg.sender] == restaurantId, \"Only staff of this restaurant\") */\n      0x04\n      dup3\n      add\n        /* \"#utility.yul\":8574:8595   */\n      mstore\n        /* \"#utility.yul\":8631:8633   */\n      0x1d\n        /* \"#utility.yul\":8611:8629   */\n      0x24\n      dup3\n      add\n        /* \"#utility.yul\":8604:8634   */\n      mstore\n        /* \"#utility.yul\":8670:8701   */\n      0x4f6e6c79207374616666206f6620746869732072657374617572616e74000000\n        /* \"#utility.yul\":8650:8668   */\n      0x44\n      dup3\n      add\n        /* \"#utility.yul\":8643:8702   */\n      mstore\n        /* \"#utility.yul\":8719:8737   */\n      0x64\n      add\n        /* \"access/RoleAccess.sol\":396:482  require(staffRestaurants[msg.sender] == restaurantId, \"Only staff of this restaurant\") */\n    tag_122:\n      mload(0x40)\n      dup1\n      swap2\n      sub\n      swap1\n      revert\n    tag_121:\n      sub(shl(0x80, 0x01), 0x01)\n        /* \"contracts/OrderManager.sol\":2655:2670  orders[orderId] */\n      dup1\n      dup4\n      and\n        /* \"contracts/OrderManager.sol\":2634:2652  Order memory order */\n      0x00\n        /* \"contracts/OrderManager.sol\":2655:2670  orders[orderId] */\n      swap1\n      dup2\n      mstore\n        /* \"contracts/OrderManager.sol\":2655:2661  orders */\n      0x03\n        /* \"contracts/OrderManager.sol\":2655:2670  orders[orderId] */\n      0x20\n      dup2\n      dup2\n      mstore\n      0x40\n      dup1\n      dup5\n      keccak256\n        /* \"contracts/OrderManager.sol\":2634:2670  Order memory order = orders[orderId] */\n      dup2\n      mload\n      0x0120\n      dup2\n      add\n      dup4\n      mstore\n      dup2\n      sload\n      dup8\n      and\n      dup2\n      mstore\n      0x01\n      dup3\n      add\n      sload\n      sub(shl(0xa0, 0x01), 0x01)\n      and\n      dup2\n      dup6\n      add\n      mstore\n      0x02\n      dup3\n      add\n      sload\n      swap1\n      swap7\n      and\n      dup7\n      dup4\n      add\n      mstore\n      swap3\n      dup4\n      add\n      dup1\n      sload\n      dup3\n      mload\n      dup2\n      dup6\n      mul\n      dup2\n      add\n      dup6\n      add\n      swap1\n      swap4\n      mstore\n      dup1\n      dup4\n      mstore\n        /* \"contracts/OrderManager.sol\":2634:2652  Order memory order */\n      swap5\n      swap6\n        /* \"contracts/OrderManager.sol\":2634:2670  Order memory order = orders[orderId] */\n      swap5\n      0x60\n      dup7\n      add\n      swap4\n      dup4\n      add\n      dup3\n      dup3\n      dup1\n      iszero\n      tag_125\n      jumpi\n      0x20\n      mul\n      dup3\n      add\n      swap2\n      swap1\n      0x00\n      mstore\n      keccak256(0x00, 0x20)\n      swap1\n      0x00\n      swap1\n    tag_126:\n      dup3\n      dup3\n      swap1\n      sload\n      swap1\n      0x0100\n      exp\n      swap1\n      div\n      sub(shl(0x80, 0x01), 0x01)\n      and\n      sub(shl(0x80, 0x01), 0x01)\n      and\n      dup2\n      mstore\n      0x20\n      add\n      swap1\n      0x10\n      add\n      swap1\n      0x20\n      dup3\n      0x0f\n      add\n      div\n      swap3\n      dup4\n      add\n      swap3\n      0x01\n      sub\n      dup3\n      mul\n      swap2\n      pop\n      dup1\n      dup5\n      gt\n      tag_126\n      jumpi\n      swap1\n      pop\n    tag_125:\n      pop\n      pop\n      pop\n      pop\n      pop\n      dup2\n      mstore\n      0x20\n      add\n      0x04\n      dup3\n      add\n      dup1\n      sload\n      dup1\n      0x20\n      mul\n      0x20\n      add\n      mload(0x40)\n      swap1\n      dup2\n      add\n      0x40\n      mstore\n      dup1\n      swap3\n      swap2\n      swap1\n      dup2\n      dup2\n      mstore\n      0x20\n      add\n      dup3\n      dup1\n      sload\n      dup1\n      iszero\n      tag_127\n      jumpi\n      0x20\n      mul\n      dup3\n      add\n      swap2\n      swap1\n      0x00\n      mstore\n      keccak256(0x00, 0x20)\n      swap1\n      0x00\n      swap1\n    tag_128:\n      dup3\n      dup3\n      swap1\n      sload\n      swap1\n      0x0100\n      exp\n      swap1\n      div\n      sub(shl(0x80, 0x01), 0x01)\n      and\n      sub(shl(0x80, 0x01), 0x01)\n      and\n      dup2\n      mstore\n      0x20\n      add\n      swap1\n      0x10\n      add\n      swap1\n      0x20\n      dup3\n      0x0f\n      add\n      div\n      swap3\n      dup4\n      add\n      swap3\n      0x01\n      sub\n      dup3\n      mul\n      swap2\n      pop\n      dup1\n      dup5\n      gt\n      tag_128\n      jumpi\n      swap1\n      pop\n    tag_127:\n      pop\n      pop\n      pop\n      swap2\n      dup4\n      mstore\n      pop\n      pop\n      0x05\n      dup3\n      dup2\n      add\n      sload\n      sub(shl(0x80, 0x01), 0x01)\n      dup2\n      and\n      0x20\n      dup5\n      add\n      mstore\n      0x40\n      swap1\n      swap3\n      add\n      swap2\n      shl(0x80, 0x01)\n      swap1\n      div\n      0xff\n      and\n      swap1\n      dup2\n      gt\n      iszero\n      tag_130\n      jumpi\n      tag_130\n      tag_115\n      jump\t// in\n    tag_130:\n      0x05\n      dup2\n      gt\n      iszero\n      tag_132\n      jumpi\n      tag_132\n      tag_115\n      jump\t// in\n    tag_132:\n      dup2\n      mstore\n      0x06\n      swap2\n      swap1\n      swap2\n      add\n      sload\n      sub(shl(0x80, 0x01), 0x01)\n      dup1\n      dup3\n      and\n      0x20\n      dup5\n      add\n      mstore\n      shl(0x80, 0x01)\n      swap1\n      swap2\n      div\n      and\n      0x40\n      swap1\n      swap2\n      add\n      mstore\n      swap1\n      pop\n        /* \"contracts/OrderManager.sol\":2705:2722  OrderStatus.Ready */\n      0x03\n        /* \"contracts/OrderManager.sol\":2689:2694  order */\n      dup2\n        /* \"contracts/OrderManager.sol\":2689:2701  order.status */\n      0xc0\n      add\n      mload\n        /* \"contracts/OrderManager.sol\":2689:2722  order.status == OrderStatus.Ready */\n      0x05\n      dup2\n      gt\n      iszero\n      tag_136\n      jumpi\n      tag_136\n      tag_115\n      jump\t// in\n    tag_136:\n      eq\n        /* \"contracts/OrderManager.sol\":2681:2742  require(order.status == OrderStatus.Ready, \"Order not ready\") */\n      tag_137\n      jumpi\n      mload(0x40)\n      shl(0xe5, 0x461bcd)\n      dup2\n      mstore\n        /* \"#utility.yul\":8950:8952   */\n      0x20\n        /* \"contracts/OrderManager.sol\":2681:2742  require(order.status == OrderStatus.Ready, \"Order not ready\") */\n      0x04\n      dup3\n      add\n        /* \"#utility.yul\":8932:8953   */\n      mstore\n        /* \"#utility.yul\":8989:8991   */\n      0x0f\n        /* \"#utility.yul\":8969:8987   */\n      0x24\n      dup3\n      add\n        /* \"#utility.yul\":8962:8992   */\n      mstore\n      shl(0x88, 0x4f72646572206e6f74207265616479)\n        /* \"#utility.yul\":9008:9026   */\n      0x44\n      dup3\n      add\n        /* \"#utility.yul\":9001:9046   */\n      mstore\n        /* \"#utility.yul\":9063:9081   */\n      0x64\n      add\n        /* \"contracts/OrderManager.sol\":2681:2742  require(order.status == OrderStatus.Ready, \"Order not ready\") */\n      tag_122\n        /* \"#utility.yul\":8748:9087   */\n      jump\n        /* \"contracts/OrderManager.sol\":2681:2742  require(order.status == OrderStatus.Ready, \"Order not ready\") */\n    tag_137:\n      sub(shl(0x80, 0x01), 0x01)\n        /* \"contracts/OrderManager.sol\":2753:2768  orders[orderId] */\n      dup4\n      and\n      0x00\n      swap1\n      dup2\n      mstore\n        /* \"contracts/OrderManager.sol\":2753:2759  orders */\n      0x03\n        /* \"contracts/OrderManager.sol\":2753:2768  orders[orderId] */\n      0x20\n      mstore\n      0x40\n      swap1\n      keccak256\n        /* \"contracts/OrderManager.sol\":2778:2799  OrderStatus.Completed */\n      0x05\n        /* \"contracts/OrderManager.sol\":2753:2775  orders[orderId].status */\n      swap1\n      dup2\n      add\n        /* \"contracts/OrderManager.sol\":2753:2799  orders[orderId].status = OrderStatus.Completed */\n      dup1\n      sload\n      not(shl(0x80, 0xff))\n      and\n      shl(0x80, 0x01)\n        /* \"contracts/OrderManager.sol\":2778:2799  OrderStatus.Completed */\n      dup4\n        /* \"contracts/OrderManager.sol\":2753:2799  orders[orderId].status = OrderStatus.Completed */\n    tag_141:\n      mul\n      or\n      swap1\n      sstore\n      pop\n        /* \"contracts/OrderManager.sol\":2623:2807  {... */\n      pop\n        /* \"contracts/OrderManager.sol\":2525:2807  function completeOrder(uint128 orderId) external override onlyStaff(orders[orderId].restaurantId) {... */\n      pop\n      pop\n      jump\t// out\n        /* \"contracts/OrderManager.sol\":538:763  function initialize(address admin, address _menuManager) public initializer {... */\n    tag_54:\n        /* \"@openzeppelin/contracts-upgradeable/proxy/utils/Initializable.sol\":4158:4188  InitializableStorage storage $ */\n      0x00\n        /* \"@openzeppelin/contracts-upgradeable/proxy/utils/Initializable.sol\":4191:4217  _getInitializableStorage() */\n      tag_143\n        /* \"@openzeppelin/contracts-upgradeable/proxy/utils/Initializable.sol\":4191:4215  _getInitializableStorage */\n      tag_144\n        /* \"@openzeppelin/contracts-upgradeable/proxy/utils/Initializable.sol\":4191:4217  _getInitializableStorage() */\n      jump\t// in\n    tag_143:\n        /* \"@openzeppelin/contracts-upgradeable/proxy/utils/Initializable.sol\":4302:4317  $._initializing */\n      dup1\n      sload\n        /* \"@openzeppelin/contracts-upgradeable/proxy/utils/Initializable.sol\":4158:4217  InitializableStorage storage $ = _getInitializableStorage() */\n      swap1\n      swap2\n      pop\n        /* \"@openzeppelin/contracts-upgradeable/proxy/utils/Initializable.sol\":4302:4317  $._initializing */\n      0xff\n      shl(0x40, 0x01)\n      dup3\n      div\n      and\n        /* \"@openzeppelin/contracts-upgradeable/proxy/utils/Initializable.sol\":4301:4317  !$._initializing */\n      iszero\n      swap1\n        /* \"@openzeppelin/contracts-upgradeable/proxy/utils/Initializable.sol\":4348:4362  $._initialized */\n      0xffffffffffffffff\n      and\n        /* \"@openzeppelin/contracts-upgradeable/proxy/utils/Initializable.sol\":4279:4298  bool isTopLevelCall */\n      0x00\n        /* \"@openzeppelin/contracts-upgradeable/proxy/utils/Initializable.sol\":4724:4740  initialized == 0 */\n      dup2\n      iszero\n        /* \"@openzeppelin/contracts-upgradeable/proxy/utils/Initializable.sol\":4724:4758  initialized == 0 && isTopLevelCall */\n      dup1\n      iszero\n      tag_145\n      jumpi\n      pop\n        /* \"@openzeppelin/contracts-upgradeable/proxy/utils/Initializable.sol\":4744:4758  isTopLevelCall */\n      dup3\n        /* \"@openzeppelin/contracts-upgradeable/proxy/utils/Initializable.sol\":4724:4758  initialized == 0 && isTopLevelCall */\n    tag_145:\n        /* \"@openzeppelin/contracts-upgradeable/proxy/utils/Initializable.sol\":4704:4758  bool initialSetup = initialized == 0 && isTopLevelCall */\n      swap1\n      pop\n        /* \"@openzeppelin/contracts-upgradeable/proxy/utils/Initializable.sol\":4768:4785  bool construction */\n      0x00\n        /* \"@openzeppelin/contracts-upgradeable/proxy/utils/Initializable.sol\":4788:4799  initialized */\n      dup3\n        /* \"@openzeppelin/contracts-upgradeable/proxy/utils/Initializable.sol\":4788:4804  initialized == 1 */\n      0xffffffffffffffff\n      and\n        /* \"@openzeppelin/contracts-upgradeable/proxy/utils/Initializable.sol\":4803:4804  1 */\n      0x01\n        /* \"@openzeppelin/contracts-upgradeable/proxy/utils/Initializable.sol\":4788:4804  initialized == 1 */\n      eq\n        /* \"@openzeppelin/contracts-upgradeable/proxy/utils/Initializable.sol\":4788:4838  initialized == 1 && address(this).code.length == 0 */\n      dup1\n      iszero\n      tag_146\n      jumpi\n      pop\n        /* \"@openzeppelin/contracts-upgradeable/proxy/utils/Initializable.sol\":4816:4820  this */\n      address\n        /* \"@openzeppelin/contracts-upgradeable/proxy/utils/Initializable.sol\":4808:4833  address(this).code.length */\n      extcodesize\n        /* \"@openzeppelin/contracts-upgradeable/proxy/utils/Initializable.sol\":4808:4838  address(this).code.length == 0 */\n      iszero\n        /* \"@openzeppelin/contracts-upgradeable/proxy/utils/Initializable.sol\":4788:4838  initialized == 1 && address(this).code.length == 0 */\n    tag_146:\n        /* \"@openzeppelin/contracts-upgradeable/proxy/utils/Initializable.sol\":4768:4838  bool construction = initialized == 1 && address(this).code.length == 0 */\n      swap1\n      pop\n        /* \"@openzeppelin/contracts-upgradeable/proxy/utils/Initializable.sol\":4854:4866  initialSetup */\n      dup2\n        /* \"@openzeppelin/contracts-upgradeable/proxy/utils/Initializable.sol\":4853:4866  !initialSetup */\n      iszero\n        /* \"@openzeppelin/contracts-upgradeable/proxy/utils/Initializable.sol\":4853:4883  !initialSetup && !construction */\n      dup1\n      iszero\n      tag_147\n      jumpi\n      pop\n        /* \"@openzeppelin/contracts-upgradeable/proxy/utils/Initializable.sol\":4871:4883  construction */\n      dup1\n        /* \"@openzeppelin/contracts-upgradeable/proxy/utils/Initializable.sol\":4870:4883  !construction */\n      iszero\n        /* \"@openzeppelin/contracts-upgradeable/proxy/utils/Initializable.sol\":4853:4883  !initialSetup && !construction */\n    tag_147:\n        /* \"@openzeppelin/contracts-upgradeable/proxy/utils/Initializable.sol\":4849:4940  if (!initialSetup && !construction) {... */\n      iszero\n      tag_148\n      jumpi\n        /* \"@openzeppelin/contracts-upgradeable/proxy/utils/Initializable.sol\":4906:4929  InvalidInitialization() */\n      mload(0x40)\n      shl(0xe0, 0xf92ee8a9)\n      dup2\n      mstore\n      0x04\n      add\n      mload(0x40)\n      dup1\n      swap2\n      sub\n      swap1\n      revert\n        /* \"@openzeppelin/contracts-upgradeable/proxy/utils/Initializable.sol\":4849:4940  if (!initialSetup && !construction) {... */\n    tag_148:\n        /* \"@openzeppelin/contracts-upgradeable/proxy/utils/Initializable.sol\":4949:4967  $._initialized = 1 */\n      dup5\n      sload\n      not(0xffffffffffffffff)\n      and\n        /* \"@openzeppelin/contracts-upgradeable/proxy/utils/Initializable.sol\":4966:4967  1 */\n      0x01\n        /* \"@openzeppelin/contracts-upgradeable/proxy/utils/Initializable.sol\":4949:4967  $._initialized = 1 */\n      or\n      dup6\n      sstore\n        /* \"@openzeppelin/contracts-upgradeable/proxy/utils/Initializable.sol\":4977:5044  if (isTopLevelCall) {... */\n      dup4\n      iszero\n      tag_149\n      jumpi\n        /* \"@openzeppelin/contracts-upgradeable/proxy/utils/Initializable.sol\":5011:5033  $._initializing = true */\n      dup5\n      sload\n      not(shl(0x40, 0xff))\n      and\n      shl(0x40, 0x01)\n      or\n      dup6\n      sstore\n        /* \"@openzeppelin/contracts-upgradeable/proxy/utils/Initializable.sol\":4977:5044  if (isTopLevelCall) {... */\n    tag_149:\n        /* \"contracts/OrderManager.sol\":625:646  __Ownable_init(admin) */\n      tag_151\n        /* \"contracts/OrderManager.sol\":640:645  admin */\n      dup8\n        /* \"contracts/OrderManager.sol\":625:639  __Ownable_init */\n      tag_152\n        /* \"contracts/OrderManager.sol\":625:646  __Ownable_init(admin) */\n      jump\t// in\n    tag_151:\n        /* \"contracts/OrderManager.sol\":657:679  initializeRoles(admin) */\n      tag_153\n        /* \"contracts/OrderManager.sol\":673:678  admin */\n      dup8\n        /* \"contracts/OrderManager.sol\":657:672  initializeRoles */\n      tag_154\n        /* \"contracts/OrderManager.sol\":657:679  initializeRoles(admin) */\n      jump\t// in\n    tag_153:\n        /* \"contracts/OrderManager.sol\":690:701  menuManager */\n      0x05\n        /* \"contracts/OrderManager.sol\":690:729  menuManager = MenuManager(_menuManager) */\n      dup1\n      sload\n      not(sub(shl(0xa0, 0x01), 0x01))\n      and\n      sub(shl(0xa0, 0x01), 0x01)\n      dup9\n      and\n      or\n      swap1\n      sstore\n        /* \"contracts/OrderManager.sol\":740:751  nextOrderId */\n      0x02\n        /* \"contracts/OrderManager.sol\":740:755  nextOrderId = 1 */\n      dup1\n      sload\n      not(sub(shl(0x80, 0x01), 0x01))\n      and\n      0x01\n      or\n      swap1\n      sstore\n        /* \"@openzeppelin/contracts-upgradeable/proxy/utils/Initializable.sol\":5064:5165  if (isTopLevelCall) {... */\n      dup4\n      iszero\n      tag_155\n      jumpi\n        /* \"@openzeppelin/contracts-upgradeable/proxy/utils/Initializable.sol\":5098:5121  $._initializing = false */\n      dup5\n      sload\n      not(shl(0x40, 0xff))\n      and\n      dup6\n      sstore\n        /* \"@openzeppelin/contracts-upgradeable/proxy/utils/Initializable.sol\":5140:5154  Initialized(1) */\n      mload(0x40)\n      0x01\n        /* \"#utility.yul\":9245:9295   */\n      dup2\n      mstore\n        /* \"@openzeppelin/contracts-upgradeable/proxy/utils/Initializable.sol\":5140:5154  Initialized(1) */\n      0xc7f505b2f371ae2175ee4913f4499e1f2633a7b5936321eed1cdaeb6115181d2\n      swap1\n        /* \"#utility.yul\":9233:9235   */\n      0x20\n        /* \"#utility.yul\":9218:9236   */\n      add\n        /* \"@openzeppelin/contracts-upgradeable/proxy/utils/Initializable.sol\":5140:5154  Initialized(1) */\n      mload(0x40)\n      dup1\n      swap2\n      sub\n      swap1\n      log1\n        /* \"@openzeppelin/contracts-upgradeable/proxy/utils/Initializable.sol\":5064:5165  if (isTopLevelCall) {... */\n    tag_155:\n        /* \"@openzeppelin/contracts-upgradeable/proxy/utils/Initializable.sol\":4092:5171  {... */\n      pop\n      pop\n      pop\n      pop\n      pop\n        /* \"contracts/OrderManager.sol\":538:763  function initialize(address admin, address _menuManager) public initializer {... */\n      pop\n      pop\n      jump\t// out\n        /* \"@openzeppelin/contracts-upgradeable/access/OwnableUpgradeable.sol\":3155:3256  function renounceOwnership() public virtual onlyOwner {... */\n    tag_62:\n        /* \"@openzeppelin/contracts-upgradeable/access/OwnableUpgradeable.sol\":2334:2347  _checkOwner() */\n      tag_159\n        /* \"@openzeppelin/contracts-upgradeable/access/OwnableUpgradeable.sol\":2334:2345  _checkOwner */\n      tag_160\n        /* \"@openzeppelin/contracts-upgradeable/access/OwnableUpgradeable.sol\":2334:2347  _checkOwner() */\n      jump\t// in\n    tag_159:\n        /* \"@openzeppelin/contracts-upgradeable/access/OwnableUpgradeable.sol\":3219:3249  _transferOwnership(address(0)) */\n      tag_162\n        /* \"@openzeppelin/contracts-upgradeable/access/OwnableUpgradeable.sol\":3246:3247  0 */\n      0x00\n        /* \"@openzeppelin/contracts-upgradeable/access/OwnableUpgradeable.sol\":3219:3237  _transferOwnership */\n      tag_163\n        /* \"@openzeppelin/contracts-upgradeable/access/OwnableUpgradeable.sol\":3219:3249  _transferOwnership(address(0)) */\n      jump\t// in\n    tag_162:\n        /* \"@openzeppelin/contracts-upgradeable/access/OwnableUpgradeable.sol\":3155:3256  function renounceOwnership() public virtual onlyOwner {... */\n      jump\t// out\n        /* \"contracts/OrderManager.sol\":771:2191  function placeOrder(... */\n    tag_71:\n        /* \"access/RoleAccess.sol\":574:587  Role.Customer */\n      0x02\n        /* \"access/RoleAccess.sol\":559:569  msg.sender */\n      caller\n        /* \"access/RoleAccess.sol\":553:558  roles */\n      0x00\n        /* \"access/RoleAccess.sol\":553:570  roles[msg.sender] */\n      swap1\n      dup2\n      mstore\n      0x20\n      dup2\n      swap1\n      mstore\n      0x40\n      swap1\n      keccak256\n      sload\n      0xff\n      and\n        /* \"access/RoleAccess.sol\":553:587  roles[msg.sender] == Role.Customer */\n      0x02\n      dup2\n      gt\n      iszero\n      tag_171\n      jumpi\n      tag_171\n      tag_115\n      jump\t// in\n    tag_171:\n      eq\n        /* \"access/RoleAccess.sol\":553:622  roles[msg.sender] == Role.Customer || roles[msg.sender] == Role.Staff */\n      dup1\n      tag_172\n      jumpi\n      pop\n        /* \"access/RoleAccess.sol\":612:622  Role.Staff */\n      0x01\n        /* \"access/RoleAccess.sol\":597:607  msg.sender */\n      caller\n        /* \"access/RoleAccess.sol\":591:596  roles */\n      0x00\n        /* \"access/RoleAccess.sol\":591:608  roles[msg.sender] */\n      swap1\n      dup2\n      mstore\n      0x20\n      dup2\n      swap1\n      mstore\n      0x40\n      swap1\n      keccak256\n      sload\n      0xff\n      and\n        /* \"access/RoleAccess.sol\":591:622  roles[msg.sender] == Role.Staff */\n      0x02\n      dup2\n      gt\n      iszero\n      tag_176\n      jumpi\n      tag_176\n      tag_115\n      jump\t// in\n    tag_176:\n      eq\n        /* \"access/RoleAccess.sol\":553:622  roles[msg.sender] == Role.Customer || roles[msg.sender] == Role.Staff */\n    tag_172:\n        /* \"access/RoleAccess.sol\":545:640  require(roles[msg.sender] == Role.Customer || roles[msg.sender] == Role.Staff, \"Only customer\") */\n      tag_177\n      jumpi\n      mload(0x40)\n      shl(0xe5, 0x461bcd)\n      dup2\n      mstore\n        /* \"#utility.yul\":9508:9510   */\n      0x20\n        /* \"access/RoleAccess.sol\":545:640  require(roles[msg.sender] == Role.Customer || roles[msg.sender] == Role.Staff, \"Only customer\") */\n      0x04\n      dup3\n      add\n        /* \"#utility.yul\":9490:9511   */\n      mstore\n        /* \"#utility.yul\":9547:9549   */\n      0x0d\n        /* \"#utility.yul\":9527:9545   */\n      0x24\n      dup3\n      add\n        /* \"#utility.yul\":9520:9550   */\n      mstore\n      shl(0x99, 0x27b7363c9031bab9ba37b6b2b9)\n        /* \"#utility.yul\":9566:9584   */\n      0x44\n      dup3\n      add\n        /* \"#utility.yul\":9559:9602   */\n      mstore\n        /* \"#utility.yul\":9619:9637   */\n      0x64\n      add\n        /* \"access/RoleAccess.sol\":545:640  require(roles[msg.sender] == Role.Customer || roles[msg.sender] == Role.Staff, \"Only customer\") */\n      tag_122\n        /* \"#utility.yul\":9306:9643   */\n      jump\n        /* \"access/RoleAccess.sol\":545:640  require(roles[msg.sender] == Role.Customer || roles[msg.sender] == Role.Staff, \"Only customer\") */\n    tag_177:\n        /* \"contracts/OrderManager.sol\":978:988  quantities */\n      dup1\n        /* \"contracts/OrderManager.sol\":978:995  quantities.length */\n      mload\n        /* \"contracts/OrderManager.sol\":960:967  itemIds */\n      dup3\n        /* \"contracts/OrderManager.sol\":960:974  itemIds.length */\n      mload\n        /* \"contracts/OrderManager.sol\":960:995  itemIds.length == quantities.length */\n      eq\n        /* \"contracts/OrderManager.sol\":960:1017  itemIds.length == quantities.length && itemIds.length > 0 */\n      dup1\n      iszero\n      tag_181\n      jumpi\n      pop\n        /* \"contracts/OrderManager.sol\":1016:1017  0 */\n      0x00\n        /* \"contracts/OrderManager.sol\":999:1006  itemIds */\n      dup3\n        /* \"contracts/OrderManager.sol\":999:1013  itemIds.length */\n      mload\n        /* \"contracts/OrderManager.sol\":999:1017  itemIds.length > 0 */\n      gt\n        /* \"contracts/OrderManager.sol\":960:1017  itemIds.length == quantities.length && itemIds.length > 0 */\n    tag_181:\n        /* \"contracts/OrderManager.sol\":952:1040  require(itemIds.length == quantities.length && itemIds.length > 0, \"Invalid order data\") */\n      tag_182\n      jumpi\n      mload(0x40)\n      shl(0xe5, 0x461bcd)\n      dup2\n      mstore\n        /* \"#utility.yul\":9850:9852   */\n      0x20\n        /* \"contracts/OrderManager.sol\":952:1040  require(itemIds.length == quantities.length && itemIds.length > 0, \"Invalid order data\") */\n      0x04\n      dup3\n      add\n        /* \"#utility.yul\":9832:9853   */\n      mstore\n        /* \"#utility.yul\":9889:9891   */\n      0x12\n        /* \"#utility.yul\":9869:9887   */\n      0x24\n      dup3\n      add\n        /* \"#utility.yul\":9862:9892   */\n      mstore\n      shl(0x70, 0x496e76616c6964206f726465722064617461)\n        /* \"#utility.yul\":9908:9926   */\n      0x44\n      dup3\n      add\n        /* \"#utility.yul\":9901:9949   */\n      mstore\n        /* \"#utility.yul\":9966:9984   */\n      0x64\n      add\n        /* \"contracts/OrderManager.sol\":952:1040  require(itemIds.length == quantities.length && itemIds.length > 0, \"Invalid order data\") */\n      tag_122\n        /* \"#utility.yul\":9648:9990   */\n      jump\n        /* \"contracts/OrderManager.sol\":952:1040  require(itemIds.length == quantities.length && itemIds.length > 0, \"Invalid order data\") */\n    tag_182:\n        /* \"contracts/OrderManager.sol\":1053:1071  uint128 totalPrice */\n      0x00\n      dup1\n      dup1\n        /* \"contracts/OrderManager.sol\":1129:1545  for (uint128 i = 0; i < itemIds.length; i++) {... */\n    tag_185:\n        /* \"contracts/OrderManager.sol\":1153:1160  itemIds */\n      dup5\n        /* \"contracts/OrderManager.sol\":1153:1167  itemIds.length */\n      mload\n        /* \"contracts/OrderManager.sol\":1149:1150  i */\n      dup2\n      sub(shl(0x80, 0x01), 0x01)\n        /* \"contracts/OrderManager.sol\":1149:1167  i < itemIds.length */\n      and\n      lt\n        /* \"contracts/OrderManager.sol\":1129:1545  for (uint128 i = 0; i < itemIds.length; i++) {... */\n      iszero\n      tag_186\n      jumpi\n        /* \"contracts/OrderManager.sol\":1212:1223  menuManager */\n      sload(0x05)\n        /* \"contracts/OrderManager.sol\":1250:1260  itemIds[i] */\n      dup6\n      mload\n        /* \"contracts/OrderManager.sol\":1189:1209  MenuItem memory item */\n      0x00\n      swap2\n      sub(shl(0xa0, 0x01), 0x01)\n        /* \"contracts/OrderManager.sol\":1212:1223  menuManager */\n      and\n      swap1\n        /* \"contracts/OrderManager.sol\":1212:1235  menuManager.getMenuItem */\n      0x0c528968\n      swap1\n        /* \"contracts/OrderManager.sol\":1236:1248  restaurantId */\n      dup10\n      swap1\n        /* \"contracts/OrderManager.sol\":1250:1257  itemIds */\n      dup10\n      swap1\n      sub(shl(0x80, 0x01), 0x01)\n        /* \"contracts/OrderManager.sol\":1250:1260  itemIds[i] */\n      dup8\n      and\n      swap1\n      dup2\n      lt\n      tag_189\n      jumpi\n      tag_189\n      tag_190\n      jump\t// in\n    tag_189:\n      0x20\n      mul\n      0x20\n      add\n      add\n      mload\n        /* \"contracts/OrderManager.sol\":1212:1261  menuManager.getMenuItem(restaurantId, itemIds[i]) */\n      mload(0x40)\n      dup4\n      0xffffffff\n      and\n      0xe0\n      shl\n      dup2\n      mstore\n      0x04\n      add\n      tag_191\n      swap3\n      swap2\n      swap1\n      sub(shl(0x80, 0x01), 0x01)\n        /* \"#utility.yul\":10319:10366   */\n      swap3\n      dup4\n      and\n        /* \"#utility.yul\":10301:10367   */\n      dup2\n      mstore\n        /* \"#utility.yul\":10403:10450   */\n      swap2\n      and\n        /* \"#utility.yul\":10398:10400   */\n      0x20\n        /* \"#utility.yul\":10383:10401   */\n      dup3\n      add\n        /* \"#utility.yul\":10376:10451   */\n      mstore\n        /* \"#utility.yul\":10289:10291   */\n      0x40\n        /* \"#utility.yul\":10274:10292   */\n      add\n      swap1\n        /* \"#utility.yul\":10127:10457   */\n      jump\n        /* \"contracts/OrderManager.sol\":1212:1261  menuManager.getMenuItem(restaurantId, itemIds[i]) */\n    tag_191:\n      0x00\n      mload(0x40)\n      dup1\n      dup4\n      sub\n      dup2\n      dup7\n      gas\n      staticcall\n      iszero\n      dup1\n      iszero\n      tag_194\n      jumpi\n      returndatacopy(0x00, 0x00, returndatasize)\n      revert(0x00, returndatasize)\n    tag_194:\n      pop\n      pop\n      pop\n      pop\n      mload(0x40)\n      returndatasize\n      0x00\n      dup3\n      returndatacopy\n      0x1f\n      returndatasize\n      swap1\n      dup2\n      add\n      not(0x1f)\n      and\n      dup3\n      add\n      0x40\n      mstore\n      tag_195\n      swap2\n      swap1\n      dup2\n      add\n      swap1\n      tag_196\n      jump\t// in\n    tag_195:\n        /* \"contracts/OrderManager.sol\":1284:1291  item.id */\n      dup1\n      mload\n        /* \"contracts/OrderManager.sol\":1189:1261  MenuItem memory item = menuManager.getMenuItem(restaurantId, itemIds[i]) */\n      swap1\n      swap2\n      pop\n      sub(shl(0x80, 0x01), 0x01)\n        /* \"contracts/OrderManager.sol\":1284:1296  item.id != 0 */\n      and\n      iszero\n      dup1\n      iszero\n      swap1\n        /* \"contracts/OrderManager.sol\":1284:1314  item.id != 0 && item.available */\n      tag_197\n      jumpi\n      pop\n        /* \"contracts/OrderManager.sol\":1300:1304  item */\n      dup1\n        /* \"contracts/OrderManager.sol\":1300:1314  item.available */\n      0x80\n      add\n      mload\n        /* \"contracts/OrderManager.sol\":1284:1314  item.id != 0 && item.available */\n    tag_197:\n        /* \"contracts/OrderManager.sol\":1276:1351  require(item.id != 0 && item.available, \"Invalid or unavailable menu item\") */\n      tag_198\n      jumpi\n      mload(0x40)\n      shl(0xe5, 0x461bcd)\n      dup2\n      mstore\n        /* \"#utility.yul\":13077:13079   */\n      0x20\n        /* \"contracts/OrderManager.sol\":1276:1351  require(item.id != 0 && item.available, \"Invalid or unavailable menu item\") */\n      0x04\n      dup3\n      add\n        /* \"#utility.yul\":13059:13080   */\n      dup2\n      swap1\n      mstore\n        /* \"#utility.yul\":13096:13114   */\n      0x24\n      dup3\n      add\n        /* \"#utility.yul\":13089:13119   */\n      mstore\n        /* \"#utility.yul\":13155:13189   */\n      0x496e76616c6964206f7220756e617661696c61626c65206d656e75206974656d\n        /* \"#utility.yul\":13135:13153   */\n      0x44\n      dup3\n      add\n        /* \"#utility.yul\":13128:13190   */\n      mstore\n        /* \"#utility.yul\":13207:13225   */\n      0x64\n      add\n        /* \"contracts/OrderManager.sol\":1276:1351  require(item.id != 0 && item.available, \"Invalid or unavailable menu item\") */\n      tag_122\n        /* \"#utility.yul\":12875:13231   */\n      jump\n        /* \"contracts/OrderManager.sol\":1276:1351  require(item.id != 0 && item.available, \"Invalid or unavailable menu item\") */\n    tag_198:\n        /* \"contracts/OrderManager.sol\":1393:1403  quantities */\n      dup5\n        /* \"contracts/OrderManager.sol\":1404:1405  i */\n      dup3\n      sub(shl(0x80, 0x01), 0x01)\n        /* \"contracts/OrderManager.sol\":1393:1406  quantities[i] */\n      and\n      dup2\n      mload\n      dup2\n      lt\n      tag_202\n      jumpi\n      tag_202\n      tag_190\n      jump\t// in\n    tag_202:\n      0x20\n      mul\n      0x20\n      add\n      add\n      mload\n        /* \"contracts/OrderManager.sol\":1380:1384  item */\n      dup2\n        /* \"contracts/OrderManager.sol\":1380:1390  item.price */\n      0x60\n      add\n      mload\n        /* \"contracts/OrderManager.sol\":1380:1406  item.price * quantities[i] */\n      tag_203\n      swap2\n      swap1\n      tag_204\n      jump\t// in\n    tag_203:\n        /* \"contracts/OrderManager.sol\":1366:1406  totalPrice += item.price * quantities[i] */\n      tag_205\n      swap1\n      dup6\n      tag_206\n      jump\t// in\n    tag_205:\n      swap4\n      pop\n        /* \"contracts/OrderManager.sol\":1467:1471  item */\n      dup1\n        /* \"contracts/OrderManager.sol\":1467:1487  item.preparationTime */\n      0x0120\n      add\n      mload\n      sub(shl(0x80, 0x01), 0x01)\n        /* \"contracts/OrderManager.sol\":1444:1487  totalPreparationTime > item.preparationTime */\n      and\n        /* \"contracts/OrderManager.sol\":1444:1464  totalPreparationTime */\n      dup4\n      sub(shl(0x80, 0x01), 0x01)\n        /* \"contracts/OrderManager.sol\":1444:1487  totalPreparationTime > item.preparationTime */\n      and\n      gt\n        /* \"contracts/OrderManager.sol\":1444:1533  totalPreparationTime > item.preparationTime ? totalPreparationTime : item.preparationTime */\n      tag_207\n      jumpi\n        /* \"contracts/OrderManager.sol\":1513:1517  item */\n      dup1\n        /* \"contracts/OrderManager.sol\":1513:1533  item.preparationTime */\n      0x0120\n      add\n      mload\n        /* \"contracts/OrderManager.sol\":1444:1533  totalPreparationTime > item.preparationTime ? totalPreparationTime : item.preparationTime */\n      jump(tag_208)\n    tag_207:\n        /* \"contracts/OrderManager.sol\":1490:1510  totalPreparationTime */\n      dup3\n        /* \"contracts/OrderManager.sol\":1444:1533  totalPreparationTime > item.preparationTime ? totalPreparationTime : item.preparationTime */\n    tag_208:\n        /* \"contracts/OrderManager.sol\":1421:1533  totalPreparationTime = totalPreparationTime > item.preparationTime ? totalPreparationTime : item.preparationTime */\n      swap3\n      pop\n        /* \"contracts/OrderManager.sol\":1174:1545  {... */\n      pop\n        /* \"contracts/OrderManager.sol\":1169:1172  i++ */\n      dup1\n      dup1\n      tag_209\n      swap1\n      tag_210\n      jump\t// in\n    tag_209:\n      swap2\n      pop\n      pop\n        /* \"contracts/OrderManager.sol\":1129:1545  for (uint128 i = 0; i < itemIds.length; i++) {... */\n      jump(tag_185)\n    tag_186:\n      pop\n        /* \"contracts/OrderManager.sol\":1576:1586  totalPrice */\n      dup2\n      sub(shl(0x80, 0x01), 0x01)\n        /* \"contracts/OrderManager.sol\":1563:1586  msg.value >= totalPrice */\n      and\n        /* \"contracts/OrderManager.sol\":1563:1572  msg.value */\n      callvalue\n        /* \"contracts/OrderManager.sol\":1563:1586  msg.value >= totalPrice */\n      lt\n      iszero\n        /* \"contracts/OrderManager.sol\":1555:1611  require(msg.value >= totalPrice, \"Insufficient payment\") */\n      tag_211\n      jumpi\n      mload(0x40)\n      shl(0xe5, 0x461bcd)\n      dup2\n      mstore\n        /* \"#utility.yul\":14379:14381   */\n      0x20\n        /* \"contracts/OrderManager.sol\":1555:1611  require(msg.value >= totalPrice, \"Insufficient payment\") */\n      0x04\n      dup3\n      add\n        /* \"#utility.yul\":14361:14382   */\n      mstore\n        /* \"#utility.yul\":14418:14420   */\n      0x14\n        /* \"#utility.yul\":14398:14416   */\n      0x24\n      dup3\n      add\n        /* \"#utility.yul\":14391:14421   */\n      mstore\n      shl(0x62, 0x125b9cdd59999a58da595b9d081c185e5b595b9d)\n        /* \"#utility.yul\":14437:14455   */\n      0x44\n      dup3\n      add\n        /* \"#utility.yul\":14430:14480   */\n      mstore\n        /* \"#utility.yul\":14497:14515   */\n      0x64\n      add\n        /* \"contracts/OrderManager.sol\":1555:1611  require(msg.value >= totalPrice, \"Insufficient payment\") */\n      tag_122\n        /* \"#utility.yul\":14177:14521   */\n      jump\n        /* \"contracts/OrderManager.sol\":1555:1611  require(msg.value >= totalPrice, \"Insufficient payment\") */\n    tag_211:\n        /* \"contracts/OrderManager.sol\":1646:2018  Order({... */\n      0x40\n      dup1\n      mload\n      0x0120\n      dup2\n      add\n      dup3\n      mstore\n        /* \"contracts/OrderManager.sol\":1671:1682  nextOrderId */\n      0x02\n      dup1\n      sload\n      sub(shl(0x80, 0x01), 0x01)\n      swap1\n      dup2\n      and\n        /* \"contracts/OrderManager.sol\":1646:2018  Order({... */\n      dup1\n      dup5\n      mstore\n        /* \"contracts/OrderManager.sol\":1707:1717  msg.sender */\n      caller\n        /* \"contracts/OrderManager.sol\":1646:2018  Order({... */\n      0x20\n      dup1\n      dup7\n      add\n      swap2\n      dup3\n      mstore\n      dup12\n      dup5\n      and\n      dup7\n      dup9\n      add\n      swap1\n      dup2\n      mstore\n      0x60\n      dup8\n      add\n      dup13\n      dup2\n      mstore\n      0x80\n      dup9\n      add\n      dup13\n      swap1\n      mstore\n      dup11\n      dup7\n      and\n      0xa0\n      dup10\n      add\n      mstore\n      0x00\n      0xc0\n      dup10\n      add\n      dup2\n      swap1\n      mstore\n        /* \"contracts/OrderManager.sol\":1938:1953  block.timestamp */\n      timestamp\n        /* \"contracts/OrderManager.sol\":1646:2018  Order({... */\n      dup8\n      and\n      0xe0\n      dup11\n      add\n      mstore\n      dup11\n      dup8\n      and\n      0x0100\n      dup11\n      add\n      mstore\n        /* \"contracts/OrderManager.sol\":1624:1643  orders[nextOrderId] */\n      swap5\n      dup6\n      mstore\n        /* \"contracts/OrderManager.sol\":1624:1630  orders */\n      0x03\n        /* \"contracts/OrderManager.sol\":1624:1643  orders[nextOrderId] */\n      dup1\n      dup5\n      mstore\n      swap9\n      swap1\n      swap5\n      keccak256\n        /* \"contracts/OrderManager.sol\":1624:2018  orders[nextOrderId] = Order({... */\n      dup8\n      mload\n      dup2\n      sload\n      not(sub(shl(0x80, 0x01), 0x01))\n      swap1\n      dup2\n      and\n      swap2\n      dup9\n      and\n      swap2\n      swap1\n      swap2\n      or\n      dup3\n      sstore\n      swap4\n      mload\n      0x01\n      dup3\n      add\n      dup1\n      sload\n      not(sub(shl(0xa0, 0x01), 0x01))\n      and\n      sub(shl(0xa0, 0x01), 0x01)\n      swap1\n      swap3\n      and\n      swap2\n      swap1\n      swap2\n      or\n      swap1\n      sstore\n      swap1\n      mload\n      swap6\n      dup2\n      add\n      dup1\n      sload\n      swap1\n      swap4\n      and\n      swap6\n      swap1\n      swap5\n      and\n      swap5\n      swap1\n      swap5\n      or\n      swap1\n      sstore\n      mload\n      dup1\n      mload\n        /* \"contracts/OrderManager.sol\":1646:2018  Order({... */\n      swap4\n      swap5\n        /* \"contracts/OrderManager.sol\":1624:1643  orders[nextOrderId] */\n      swap2\n      swap4\n        /* \"contracts/OrderManager.sol\":1624:2018  orders[nextOrderId] = Order({... */\n      tag_216\n      swap4\n      swap3\n      dup6\n      add\n      swap3\n      swap2\n      swap1\n      swap2\n      add\n      swap1\n      tag_217\n      jump\t// in\n    tag_216:\n      pop\n      0x80\n      dup3\n      add\n      mload\n      dup1\n      mload\n      tag_218\n      swap2\n      0x04\n      dup5\n      add\n      swap2\n      0x20\n      swap1\n      swap2\n      add\n      swap1\n      tag_217\n      jump\t// in\n    tag_218:\n      pop\n      0xa0\n      dup3\n      add\n      mload\n      0x05\n      dup1\n      dup4\n      add\n      dup1\n      sload\n      sub(shl(0x80, 0x01), 0x01)\n      swap1\n      swap4\n      and\n      not(sub(shl(0x80, 0x01), 0x01))\n      dup5\n      and\n      dup2\n      or\n      dup3\n      sstore\n      0xc0\n      dup7\n      add\n      mload\n      swap4\n      swap2\n      swap3\n      not(0xffffffffffffffffffffffffffffffffff)\n      swap1\n      swap3\n      and\n      or\n      swap1\n      shl(0x80, 0x01)\n      swap1\n      dup5\n      swap1\n      dup2\n      gt\n      iszero\n      tag_220\n      jumpi\n      tag_220\n      tag_115\n      jump\t// in\n    tag_220:\n      mul\n      or\n      swap1\n      sstore\n      pop\n      0xe0\n      dup3\n      add\n      mload\n      0x0100\n      swap3\n      dup4\n      add\n      mload\n      sub(shl(0x80, 0x01), 0x01)\n      swap1\n      dup2\n      and\n      shl(0x80, 0x01)\n      mul\n      swap2\n      dup2\n      and\n      swap2\n      swap1\n      swap2\n      or\n      0x06\n      swap1\n      swap3\n      add\n      swap2\n      swap1\n      swap2\n      sstore\n        /* \"contracts/OrderManager.sol\":2044:2054  msg.sender */\n      caller\n        /* \"contracts/OrderManager.sol\":1624:2018  orders[nextOrderId] = Order({... */\n      0x00\n        /* \"contracts/OrderManager.sol\":2029:2055  customerOrders[msg.sender] */\n      dup2\n      dup2\n      mstore\n        /* \"contracts/OrderManager.sol\":2029:2043  customerOrders */\n      0x04\n        /* \"contracts/OrderManager.sol\":2029:2055  customerOrders[msg.sender] */\n      0x20\n      swap1\n      dup2\n      mstore\n      0x40\n      dup1\n      dup4\n      keccak256\n        /* \"contracts/OrderManager.sol\":2061:2072  nextOrderId */\n      0x02\n      dup1\n      sload\n        /* \"contracts/OrderManager.sol\":2029:2073  customerOrders[msg.sender].push(nextOrderId) */\n      dup3\n      sload\n        /* \"contracts/OrderManager.sol\":1624:2018  orders[nextOrderId] = Order({... */\n      0x01\n        /* \"contracts/OrderManager.sol\":2029:2073  customerOrders[msg.sender].push(nextOrderId) */\n      dup2\n      dup2\n      add\n      dup6\n      sstore\n      swap4\n      dup8\n      mstore\n      swap5\n      swap1\n      swap6\n      keccak256\n      dup2\n      dup6\n      div\n      add\n      dup1\n      sload\n      swap5\n      swap1\n      swap3\n      and\n        /* \"contracts/OrderManager.sol\":1624:2018  orders[nextOrderId] = Order({... */\n      0x10\n        /* \"contracts/OrderManager.sol\":2029:2073  customerOrders[msg.sender].push(nextOrderId) */\n      mul\n      swap1\n      swap8\n      exp\n        /* \"contracts/OrderManager.sol\":2061:2072  nextOrderId */\n      swap4\n      dup7\n      and\n        /* \"contracts/OrderManager.sol\":2029:2073  customerOrders[msg.sender].push(nextOrderId) */\n      dup5\n      mul\n      swap4\n      dup7\n      mul\n      not\n      swap1\n      swap3\n      and\n      swap3\n      swap1\n      swap3\n      or\n      swap1\n      sstore\n        /* \"contracts/OrderManager.sol\":2101:2112  nextOrderId */\n      swap3\n      sload\n        /* \"contracts/OrderManager.sol\":2089:2159  OrderPlaced(nextOrderId, msg.sender, totalPrice, totalPreparationTime) */\n      swap3\n      mload\n        /* \"contracts/OrderManager.sol\":2044:2054  msg.sender */\n      swap1\n      swap3\n        /* \"contracts/OrderManager.sol\":2101:2112  nextOrderId */\n      swap1\n      swap2\n      and\n      swap1\n        /* \"contracts/OrderManager.sol\":2089:2159  OrderPlaced(nextOrderId, msg.sender, totalPrice, totalPreparationTime) */\n      0xc6cb12d0b66e0df5e922cb9d0ba47bed97edbfb3044631d430d1f6c3f4876c2c\n      swap1\n      tag_222\n      swap1\n        /* \"contracts/OrderManager.sol\":2126:2136  totalPrice */\n      dup7\n      swap1\n        /* \"contracts/OrderManager.sol\":2138:2158  totalPreparationTime */\n      dup7\n      swap1\n      sub(shl(0x80, 0x01), 0x01)\n        /* \"#utility.yul\":10319:10366   */\n      swap3\n      dup4\n      and\n        /* \"#utility.yul\":10301:10367   */\n      dup2\n      mstore\n        /* \"#utility.yul\":10403:10450   */\n      swap2\n      and\n        /* \"#utility.yul\":10398:10400   */\n      0x20\n        /* \"#utility.yul\":10383:10401   */\n      dup3\n      add\n        /* \"#utility.yul\":10376:10451   */\n      mstore\n        /* \"#utility.yul\":10289:10291   */\n      0x40\n        /* \"#utility.yul\":10274:10292   */\n      add\n      swap1\n        /* \"#utility.yul\":10127:10457   */\n      jump\n        /* \"contracts/OrderManager.sol\":2089:2159  OrderPlaced(nextOrderId, msg.sender, totalPrice, totalPreparationTime) */\n    tag_222:\n      mload(0x40)\n      dup1\n      swap2\n      sub\n      swap1\n      log3\n        /* \"contracts/OrderManager.sol\":2170:2181  nextOrderId */\n      0x02\n        /* \"contracts/OrderManager.sol\":2170:2183  nextOrderId++ */\n      dup1\n      sload\n      sub(shl(0x80, 0x01), 0x01)\n      and\n      swap1\n        /* \"contracts/OrderManager.sol\":2170:2181  nextOrderId */\n      0x00\n        /* \"contracts/OrderManager.sol\":2170:2183  nextOrderId++ */\n      tag_223\n      dup4\n      tag_210\n      jump\t// in\n    tag_223:\n      swap2\n      swap1\n      0x0100\n      exp\n      dup2\n      sload\n      dup2\n      sub(shl(0x80, 0x01), 0x01)\n      mul\n      not\n      and\n      swap1\n      dup4\n      sub(shl(0x80, 0x01), 0x01)\n      and\n      mul\n      or\n      swap1\n      sstore\n      pop\n      pop\n        /* \"contracts/OrderManager.sol\":941:2191  {... */\n      pop\n      pop\n        /* \"contracts/OrderManager.sol\":771:2191  function placeOrder(... */\n      pop\n      pop\n      pop\n      jump\t// out\n        /* \"access/RoleAccess.sol\":769:939  function assignStaff(address staff, uint128 restaurantId) external onlyAdmin {... */\n    tag_82:\n        /* \"access/RoleAccess.sol\":276:286  msg.sender */\n      caller\n        /* \"access/RoleAccess.sol\":291:301  Role.Admin */\n      0x00\n        /* \"access/RoleAccess.sol\":270:287  roles[msg.sender] */\n      swap1\n      dup2\n      mstore\n      0x20\n      dup2\n      swap1\n      mstore\n      0x40\n      dup2\n      keccak256\n      sload\n      0xff\n      and\n        /* \"access/RoleAccess.sol\":270:301  roles[msg.sender] == Role.Admin */\n      0x02\n      dup2\n      gt\n      iszero\n      tag_228\n      jumpi\n      tag_228\n      tag_115\n      jump\t// in\n    tag_228:\n      eq\n        /* \"access/RoleAccess.sol\":262:316  require(roles[msg.sender] == Role.Admin, \"Only admin\") */\n      tag_229\n      jumpi\n      mload(0x40)\n      shl(0xe5, 0x461bcd)\n      dup2\n      mstore\n        /* \"#utility.yul\":14728:14730   */\n      0x20\n        /* \"access/RoleAccess.sol\":262:316  require(roles[msg.sender] == Role.Admin, \"Only admin\") */\n      0x04\n      dup3\n      add\n        /* \"#utility.yul\":14710:14731   */\n      mstore\n        /* \"#utility.yul\":14767:14769   */\n      0x0a\n        /* \"#utility.yul\":14747:14765   */\n      0x24\n      dup3\n      add\n        /* \"#utility.yul\":14740:14770   */\n      mstore\n      shl(0xb1, 0x27b7363c9030b236b4b7)\n        /* \"#utility.yul\":14786:14804   */\n      0x44\n      dup3\n      add\n        /* \"#utility.yul\":14779:14819   */\n      mstore\n        /* \"#utility.yul\":14836:14854   */\n      0x64\n      add\n        /* \"access/RoleAccess.sol\":262:316  require(roles[msg.sender] == Role.Admin, \"Only admin\") */\n      tag_122\n        /* \"#utility.yul\":14526:14860   */\n      jump\n        /* \"access/RoleAccess.sol\":262:316  require(roles[msg.sender] == Role.Admin, \"Only admin\") */\n    tag_229:\n      sub(shl(0xa0, 0x01), 0x01)\n        /* \"access/RoleAccess.sol\":857:869  roles[staff] */\n      swap2\n      swap1\n      swap2\n      and\n        /* \"access/RoleAccess.sol\":857:862  roles */\n      0x00\n        /* \"access/RoleAccess.sol\":857:869  roles[staff] */\n      swap1\n      dup2\n      mstore\n      0x20\n      dup2\n      dup2\n      mstore\n      0x40\n      dup1\n      dup4\n      keccak256\n        /* \"access/RoleAccess.sol\":857:882  roles[staff] = Role.Staff */\n      dup1\n      sload\n        /* \"access/RoleAccess.sol\":872:882  Role.Staff */\n      0x01\n      not(0xff)\n        /* \"access/RoleAccess.sol\":857:882  roles[staff] = Role.Staff */\n      swap1\n      swap2\n      and\n      dup2\n      or\n      swap1\n      swap2\n      sstore\n        /* \"access/RoleAccess.sol\":893:916  staffRestaurants[staff] */\n      swap1\n      swap2\n      mstore\n      swap1\n      keccak256\n        /* \"access/RoleAccess.sol\":893:931  staffRestaurants[staff] = restaurantId */\n      dup1\n      sload\n      not(sub(shl(0x80, 0x01), 0x01))\n      and\n      sub(shl(0x80, 0x01), 0x01)\n      swap1\n      swap3\n      and\n      swap2\n      swap1\n      swap2\n      or\n      swap1\n      sstore\n        /* \"access/RoleAccess.sol\":769:939  function assignStaff(address staff, uint128 restaurantId) external onlyAdmin {... */\n      jump\t// out\n        /* \"access/RoleAccess.sol\":947:1090  function removeStaff(address staff) external onlyAdmin {... */\n    tag_86:\n        /* \"access/RoleAccess.sol\":276:286  msg.sender */\n      caller\n        /* \"access/RoleAccess.sol\":291:301  Role.Admin */\n      0x00\n        /* \"access/RoleAccess.sol\":270:287  roles[msg.sender] */\n      swap1\n      dup2\n      mstore\n      0x20\n      dup2\n      swap1\n      mstore\n      0x40\n      dup2\n      keccak256\n      sload\n      0xff\n      and\n        /* \"access/RoleAccess.sol\":270:301  roles[msg.sender] == Role.Admin */\n      0x02\n      dup2\n      gt\n      iszero\n      tag_239\n      jumpi\n      tag_239\n      tag_115\n      jump\t// in\n    tag_239:\n      eq\n        /* \"access/RoleAccess.sol\":262:316  require(roles[msg.sender] == Role.Admin, \"Only admin\") */\n      tag_240\n      jumpi\n      mload(0x40)\n      shl(0xe5, 0x461bcd)\n      dup2\n      mstore\n        /* \"#utility.yul\":14728:14730   */\n      0x20\n        /* \"access/RoleAccess.sol\":262:316  require(roles[msg.sender] == Role.Admin, \"Only admin\") */\n      0x04\n      dup3\n      add\n        /* \"#utility.yul\":14710:14731   */\n      mstore\n        /* \"#utility.yul\":14767:14769   */\n      0x0a\n        /* \"#utility.yul\":14747:14765   */\n      0x24\n      dup3\n      add\n        /* \"#utility.yul\":14740:14770   */\n      mstore\n      shl(0xb1, 0x27b7363c9030b236b4b7)\n        /* \"#utility.yul\":14786:14804   */\n      0x44\n      dup3\n      add\n        /* \"#utility.yul\":14779:14819   */\n      mstore\n        /* \"#utility.yul\":14836:14854   */\n      0x64\n      add\n        /* \"access/RoleAccess.sol\":262:316  require(roles[msg.sender] == Role.Admin, \"Only admin\") */\n      tag_122\n        /* \"#utility.yul\":14526:14860   */\n      jump\n        /* \"access/RoleAccess.sol\":262:316  require(roles[msg.sender] == Role.Admin, \"Only admin\") */\n    tag_240:\n      sub(shl(0xa0, 0x01), 0x01)\n        /* \"access/RoleAccess.sol\":1020:1043  staffRestaurants[staff] */\n      dup2\n      and\n      0x00\n      swap1\n      dup2\n      mstore\n        /* \"access/RoleAccess.sol\":1020:1036  staffRestaurants */\n      0x01\n        /* \"access/RoleAccess.sol\":1020:1043  staffRestaurants[staff] */\n      0x20\n      dup2\n      dup2\n      mstore\n      0x40\n      dup1\n      dup5\n      keccak256\n        /* \"access/RoleAccess.sol\":1013:1043  delete staffRestaurants[staff] */\n      dup1\n      sload\n      not(sub(shl(0x80, 0x01), 0x01))\n      and\n      swap1\n      sstore\n        /* \"access/RoleAccess.sol\":1054:1066  roles[staff] */\n      swap1\n      dup4\n      swap1\n      mstore\n      swap1\n      swap2\n      keccak256\n        /* \"access/RoleAccess.sol\":1054:1082  roles[staff] = Role.Customer */\n      dup1\n      sload\n        /* \"access/RoleAccess.sol\":1069:1082  Role.Customer */\n      0x02\n      swap3\n      not(0xff)\n        /* \"access/RoleAccess.sol\":1054:1082  roles[staff] = Role.Customer */\n      swap1\n      swap2\n      and\n      swap1\n        /* \"access/RoleAccess.sol\":1069:1082  Role.Customer */\n      dup4\n        /* \"access/RoleAccess.sol\":1054:1082  roles[staff] = Role.Customer */\n    tag_244:\n      mul\n      or\n      swap1\n      sstore\n      pop\n        /* \"access/RoleAccess.sol\":947:1090  function removeStaff(address staff) external onlyAdmin {... */\n      pop\n      jump\t// out\n        /* \"contracts/OrderManager.sol\":2199:2517  function cancelOrder(uint128 orderId) external override onlyCustomer {... */\n    tag_90:\n        /* \"access/RoleAccess.sol\":574:587  Role.Customer */\n      0x02\n        /* \"access/RoleAccess.sol\":559:569  msg.sender */\n      caller\n        /* \"access/RoleAccess.sol\":553:558  roles */\n      0x00\n        /* \"access/RoleAccess.sol\":553:570  roles[msg.sender] */\n      swap1\n      dup2\n      mstore\n      0x20\n      dup2\n      swap1\n      mstore\n      0x40\n      swap1\n      keccak256\n      sload\n      0xff\n      and\n        /* \"access/RoleAccess.sol\":553:587  roles[msg.sender] == Role.Customer */\n      0x02\n      dup2\n      gt\n      iszero\n      tag_249\n      jumpi\n      tag_249\n      tag_115\n      jump\t// in\n    tag_249:\n      eq\n        /* \"access/RoleAccess.sol\":553:622  roles[msg.sender] == Role.Customer || roles[msg.sender] == Role.Staff */\n      dup1\n      tag_250\n      jumpi\n      pop\n        /* \"access/RoleAccess.sol\":612:622  Role.Staff */\n      0x01\n        /* \"access/RoleAccess.sol\":597:607  msg.sender */\n      caller\n        /* \"access/RoleAccess.sol\":591:596  roles */\n      0x00\n        /* \"access/RoleAccess.sol\":591:608  roles[msg.sender] */\n      swap1\n      dup2\n      mstore\n      0x20\n      dup2\n      swap1\n      mstore\n      0x40\n      swap1\n      keccak256\n      sload\n      0xff\n      and\n        /* \"access/RoleAccess.sol\":591:622  roles[msg.sender] == Role.Staff */\n      0x02\n      dup2\n      gt\n      iszero\n      tag_254\n      jumpi\n      tag_254\n      tag_115\n      jump\t// in\n    tag_254:\n      eq\n        /* \"access/RoleAccess.sol\":553:622  roles[msg.sender] == Role.Customer || roles[msg.sender] == Role.Staff */\n    tag_250:\n        /* \"access/RoleAccess.sol\":545:640  require(roles[msg.sender] == Role.Customer || roles[msg.sender] == Role.Staff, \"Only customer\") */\n      tag_255\n      jumpi\n      mload(0x40)\n      shl(0xe5, 0x461bcd)\n      dup2\n      mstore\n        /* \"#utility.yul\":9508:9510   */\n      0x20\n        /* \"access/RoleAccess.sol\":545:640  require(roles[msg.sender] == Role.Customer || roles[msg.sender] == Role.Staff, \"Only customer\") */\n      0x04\n      dup3\n      add\n        /* \"#utility.yul\":9490:9511   */\n      mstore\n        /* \"#utility.yul\":9547:9549   */\n      0x0d\n        /* \"#utility.yul\":9527:9545   */\n      0x24\n      dup3\n      add\n        /* \"#utility.yul\":9520:9550   */\n      mstore\n      shl(0x99, 0x27b7363c9031bab9ba37b6b2b9)\n        /* \"#utility.yul\":9566:9584   */\n      0x44\n      dup3\n      add\n        /* \"#utility.yul\":9559:9602   */\n      mstore\n        /* \"#utility.yul\":9619:9637   */\n      0x64\n      add\n        /* \"access/RoleAccess.sol\":545:640  require(roles[msg.sender] == Role.Customer || roles[msg.sender] == Role.Staff, \"Only customer\") */\n      tag_122\n        /* \"#utility.yul\":9306:9643   */\n      jump\n        /* \"access/RoleAccess.sol\":545:640  require(roles[msg.sender] == Role.Customer || roles[msg.sender] == Role.Staff, \"Only customer\") */\n    tag_255:\n      sub(shl(0x80, 0x01), 0x01)\n        /* \"contracts/OrderManager.sol\":2300:2315  orders[orderId] */\n      dup1\n      dup3\n      and\n        /* \"contracts/OrderManager.sol\":2279:2297  Order memory order */\n      0x00\n        /* \"contracts/OrderManager.sol\":2300:2315  orders[orderId] */\n      swap1\n      dup2\n      mstore\n        /* \"contracts/OrderManager.sol\":2300:2306  orders */\n      0x03\n        /* \"contracts/OrderManager.sol\":2300:2315  orders[orderId] */\n      0x20\n      dup2\n      dup2\n      mstore\n      0x40\n      dup1\n      dup5\n      keccak256\n        /* \"contracts/OrderManager.sol\":2279:2315  Order memory order = orders[orderId] */\n      dup2\n      mload\n      0x0120\n      dup2\n      add\n      dup4\n      mstore\n      dup2\n      sload\n      dup8\n      and\n      dup2\n      mstore\n      0x01\n      dup3\n      add\n      sload\n      sub(shl(0xa0, 0x01), 0x01)\n      and\n      dup2\n      dup6\n      add\n      mstore\n      0x02\n      dup3\n      add\n      sload\n      swap1\n      swap7\n      and\n      dup7\n      dup4\n      add\n      mstore\n      swap3\n      dup4\n      add\n      dup1\n      sload\n      dup3\n      mload\n      dup2\n      dup6\n      mul\n      dup2\n      add\n      dup6\n      add\n      swap1\n      swap4\n      mstore\n      dup1\n      dup4\n      mstore\n        /* \"contracts/OrderManager.sol\":2279:2297  Order memory order */\n      swap5\n      swap6\n        /* \"contracts/OrderManager.sol\":2279:2315  Order memory order = orders[orderId] */\n      swap5\n      0x60\n      dup7\n      add\n      swap4\n      dup4\n      add\n      dup3\n      dup3\n      dup1\n      iszero\n      tag_258\n      jumpi\n      0x20\n      mul\n      dup3\n      add\n      swap2\n      swap1\n      0x00\n      mstore\n      keccak256(0x00, 0x20)\n      swap1\n      0x00\n      swap1\n    tag_259:\n      dup3\n      dup3\n      swap1\n      sload\n      swap1\n      0x0100\n      exp\n      swap1\n      div\n      sub(shl(0x80, 0x01), 0x01)\n      and\n      sub(shl(0x80, 0x01), 0x01)\n      and\n      dup2\n      mstore\n      0x20\n      add\n      swap1\n      0x10\n      add\n      swap1\n      0x20\n      dup3\n      0x0f\n      add\n      div\n      swap3\n      dup4\n      add\n      swap3\n      0x01\n      sub\n      dup3\n      mul\n      swap2\n      pop\n      dup1\n      dup5\n      gt\n      tag_259\n      jumpi\n      swap1\n      pop\n    tag_258:\n      pop\n      pop\n      pop\n      pop\n      pop\n      dup2\n      mstore\n      0x20\n      add\n      0x04\n      dup3\n      add\n      dup1\n      sload\n      dup1\n      0x20\n      mul\n      0x20\n      add\n      mload(0x40)\n      swap1\n      dup2\n      add\n      0x40\n      mstore\n      dup1\n      swap3\n      swap2\n      swap1\n      dup2\n      dup2\n      mstore\n      0x20\n      add\n      dup3\n      dup1\n      sload\n      dup1\n      iszero\n      tag_260\n      jumpi\n      0x20\n      mul\n      dup3\n      add\n      swap2\n      swap1\n      0x00\n      mstore\n      keccak256(0x00, 0x20)\n      swap1\n      0x00\n      swap1\n    tag_261:\n      dup3\n      dup3\n      swap1\n      sload\n      swap1\n      0x0100\n      exp\n      swap1\n      div\n      sub(shl(0x80, 0x01), 0x01)\n      and\n      sub(shl(0x80, 0x01), 0x01)\n      and\n      dup2\n      mstore\n      0x20\n      add\n      swap1\n      0x10\n      add\n      swap1\n      0x20\n      dup3\n      0x0f\n      add\n      div\n      swap3\n      dup4\n      add\n      swap3\n      0x01\n      sub\n      dup3\n      mul\n      swap2\n      pop\n      dup1\n      dup5\n      gt\n      tag_261\n      jumpi\n      swap1\n      pop\n    tag_260:\n      pop\n      pop\n      pop\n      swap2\n      dup4\n      mstore\n      pop\n      pop\n      0x05\n      dup3\n      dup2\n      add\n      sload\n      sub(shl(0x80, 0x01), 0x01)\n      dup2\n      and\n      0x20\n      dup5\n      add\n      mstore\n      0x40\n      swap1\n      swap3\n      add\n      swap2\n      shl(0x80, 0x01)\n      swap1\n      div\n      0xff\n      and\n      swap1\n      dup2\n      gt\n      iszero\n      tag_263\n      jumpi\n      tag_263\n      tag_115\n      jump\t// in\n    tag_263:\n      0x05\n      dup2\n      gt\n      iszero\n      tag_265\n      jumpi\n      tag_265\n      tag_115\n      jump\t// in\n    tag_265:\n      dup2\n      mstore\n      0x06\n      swap2\n      swap1\n      swap2\n      add\n      sload\n      sub(shl(0x80, 0x01), 0x01)\n      dup1\n      dup3\n      and\n      0x20\n      dup1\n      dup6\n      add\n      swap2\n      swap1\n      swap2\n      mstore\n      shl(0x80, 0x01)\n      swap1\n      swap3\n      div\n      and\n      0x40\n      swap1\n      swap3\n      add\n      swap2\n      swap1\n      swap2\n      mstore\n        /* \"contracts/OrderManager.sol\":2334:2348  order.customer */\n      dup2\n      add\n      mload\n        /* \"contracts/OrderManager.sol\":2279:2315  Order memory order = orders[orderId] */\n      swap1\n      swap2\n      pop\n      sub(shl(0xa0, 0x01), 0x01)\n        /* \"contracts/OrderManager.sol\":2334:2362  order.customer == msg.sender */\n      and\n        /* \"contracts/OrderManager.sol\":2352:2362  msg.sender */\n      caller\n        /* \"contracts/OrderManager.sol\":2334:2362  order.customer == msg.sender */\n      eq\n        /* \"contracts/OrderManager.sol\":2326:2381  require(order.customer == msg.sender, \"Not your order\") */\n      tag_266\n      jumpi\n      mload(0x40)\n      shl(0xe5, 0x461bcd)\n      dup2\n      mstore\n        /* \"#utility.yul\":15067:15069   */\n      0x20\n        /* \"contracts/OrderManager.sol\":2326:2381  require(order.customer == msg.sender, \"Not your order\") */\n      0x04\n      dup3\n      add\n        /* \"#utility.yul\":15049:15070   */\n      mstore\n        /* \"#utility.yul\":15106:15108   */\n      0x0e\n        /* \"#utility.yul\":15086:15104   */\n      0x24\n      dup3\n      add\n        /* \"#utility.yul\":15079:15109   */\n      mstore\n      shl(0x91, 0x2737ba103cb7bab91037b93232b9)\n        /* \"#utility.yul\":15125:15143   */\n      0x44\n      dup3\n      add\n        /* \"#utility.yul\":15118:15162   */\n      mstore\n        /* \"#utility.yul\":15179:15197   */\n      0x64\n      add\n        /* \"contracts/OrderManager.sol\":2326:2381  require(order.customer == msg.sender, \"Not your order\") */\n      tag_122\n        /* \"#utility.yul\":14865:15203   */\n      jump\n        /* \"contracts/OrderManager.sol\":2326:2381  require(order.customer == msg.sender, \"Not your order\") */\n    tag_266:\n        /* \"contracts/OrderManager.sol\":2416:2434  OrderStatus.Placed */\n      0x00\n        /* \"contracts/OrderManager.sol\":2400:2405  order */\n      dup2\n        /* \"contracts/OrderManager.sol\":2400:2412  order.status */\n      0xc0\n      add\n      mload\n        /* \"contracts/OrderManager.sol\":2400:2434  order.status == OrderStatus.Placed */\n      0x05\n      dup2\n      gt\n      iszero\n      tag_272\n      jumpi\n      tag_272\n      tag_115\n      jump\t// in\n    tag_272:\n      eq\n        /* \"contracts/OrderManager.sol\":2392:2452  require(order.status == OrderStatus.Placed, \"Cannot cancel\") */\n      tag_273\n      jumpi\n      mload(0x40)\n      shl(0xe5, 0x461bcd)\n      dup2\n      mstore\n        /* \"#utility.yul\":15410:15412   */\n      0x20\n        /* \"contracts/OrderManager.sol\":2392:2452  require(order.status == OrderStatus.Placed, \"Cannot cancel\") */\n      0x04\n      dup3\n      add\n        /* \"#utility.yul\":15392:15413   */\n      mstore\n        /* \"#utility.yul\":15449:15451   */\n      0x0d\n        /* \"#utility.yul\":15429:15447   */\n      0x24\n      dup3\n      add\n        /* \"#utility.yul\":15422:15452   */\n      mstore\n      shl(0x9a, 0x10d85b9b9bdd0818d85b98d95b)\n        /* \"#utility.yul\":15468:15486   */\n      0x44\n      dup3\n      add\n        /* \"#utility.yul\":15461:15504   */\n      mstore\n        /* \"#utility.yul\":15521:15539   */\n      0x64\n      add\n        /* \"contracts/OrderManager.sol\":2392:2452  require(order.status == OrderStatus.Placed, \"Cannot cancel\") */\n      tag_122\n        /* \"#utility.yul\":15208:15545   */\n      jump\n        /* \"contracts/OrderManager.sol\":2392:2452  require(order.status == OrderStatus.Placed, \"Cannot cancel\") */\n    tag_273:\n      pop\n      sub(shl(0x80, 0x01), 0x01)\n        /* \"contracts/OrderManager.sol\":2463:2478  orders[orderId] */\n      and\n      0x00\n      swap1\n      dup2\n      mstore\n        /* \"contracts/OrderManager.sol\":2463:2469  orders */\n      0x03\n        /* \"contracts/OrderManager.sol\":2463:2478  orders[orderId] */\n      0x20\n      mstore\n      0x40\n      swap1\n      keccak256\n        /* \"contracts/OrderManager.sol\":2463:2485  orders[orderId].status */\n      0x05\n      add\n        /* \"contracts/OrderManager.sol\":2463:2509  orders[orderId].status = OrderStatus.Cancelled */\n      dup1\n      sload\n      not(shl(0x80, 0xff))\n      and\n      shl(0x82, 0x01)\n      or\n      swap1\n      sstore\n        /* \"contracts/OrderManager.sol\":2199:2517  function cancelOrder(uint128 orderId) external override onlyCustomer {... */\n      jump\t// out\n        /* \"contracts/OrderManager.sol\":2815:2987  function updateOrderStatus(uint128 orderId, OrderStatus status) external override onlyStaff(orders[orderId].restaurantId) {... */\n    tag_95:\n      sub(shl(0x80, 0x01), 0x01)\n        /* \"contracts/OrderManager.sol\":2907:2922  orders[orderId] */\n      dup1\n      dup4\n      and\n      0x00\n      swap1\n      dup2\n      mstore\n        /* \"contracts/OrderManager.sol\":2907:2913  orders */\n      0x03\n        /* \"contracts/OrderManager.sol\":2907:2922  orders[orderId] */\n      0x20\n      swap1\n      dup2\n      mstore\n      0x40\n      dup1\n      dup4\n      keccak256\n        /* \"contracts/OrderManager.sol\":2907:2935  orders[orderId].restaurantId */\n      0x02\n      add\n      sload\n        /* \"access/RoleAccess.sol\":421:431  msg.sender */\n      caller\n        /* \"access/RoleAccess.sol\":404:432  staffRestaurants[msg.sender] */\n      dup5\n      mstore\n        /* \"contracts/OrderManager.sol\":2907:2935  orders[orderId].restaurantId */\n      0x01\n        /* \"access/RoleAccess.sol\":404:432  staffRestaurants[msg.sender] */\n      swap1\n      swap3\n      mstore\n      swap1\n      swap2\n      keccak256\n      sload\n        /* \"contracts/OrderManager.sol\":2907:2935  orders[orderId].restaurantId */\n      swap1\n      dup3\n      and\n      swap2\n        /* \"access/RoleAccess.sol\":404:432  staffRestaurants[msg.sender] */\n      and\n        /* \"access/RoleAccess.sol\":404:448  staffRestaurants[msg.sender] == restaurantId */\n      dup2\n      eq\n        /* \"access/RoleAccess.sol\":396:482  require(staffRestaurants[msg.sender] == restaurantId, \"Only staff of this restaurant\") */\n      tag_279\n      jumpi\n      mload(0x40)\n      shl(0xe5, 0x461bcd)\n      dup2\n      mstore\n        /* \"#utility.yul\":8592:8594   */\n      0x20\n        /* \"access/RoleAccess.sol\":396:482  require(staffRestaurants[msg.sender] == restaurantId, \"Only staff of this restaurant\") */\n      0x04\n      dup3\n      add\n        /* \"#utility.yul\":8574:8595   */\n      mstore\n        /* \"#utility.yul\":8631:8633   */\n      0x1d\n        /* \"#utility.yul\":8611:8629   */\n      0x24\n      dup3\n      add\n        /* \"#utility.yul\":8604:8634   */\n      mstore\n        /* \"#utility.yul\":8670:8701   */\n      0x4f6e6c79207374616666206f6620746869732072657374617572616e74000000\n        /* \"#utility.yul\":8650:8668   */\n      0x44\n      dup3\n      add\n        /* \"#utility.yul\":8643:8702   */\n      mstore\n        /* \"#utility.yul\":8719:8737   */\n      0x64\n      add\n        /* \"access/RoleAccess.sol\":396:482  require(staffRestaurants[msg.sender] == restaurantId, \"Only staff of this restaurant\") */\n      tag_122\n        /* \"#utility.yul\":8390:8743   */\n      jump\n        /* \"access/RoleAccess.sol\":396:482  require(staffRestaurants[msg.sender] == restaurantId, \"Only staff of this restaurant\") */\n    tag_279:\n      sub(shl(0x80, 0x01), 0x01)\n        /* \"contracts/OrderManager.sol\":2948:2963  orders[orderId] */\n      dup4\n      and\n      0x00\n      swap1\n      dup2\n      mstore\n        /* \"contracts/OrderManager.sol\":2948:2954  orders */\n      0x03\n        /* \"contracts/OrderManager.sol\":2948:2963  orders[orderId] */\n      0x20\n      mstore\n      0x40\n      swap1\n      keccak256\n        /* \"contracts/OrderManager.sol\":2948:2970  orders[orderId].status */\n      0x05\n      swap1\n      dup2\n      add\n        /* \"contracts/OrderManager.sol\":2948:2979  orders[orderId].status = status */\n      dup1\n      sload\n        /* \"contracts/OrderManager.sol\":2973:2979  status */\n      dup5\n      swap3\n      not(shl(0x80, 0xff))\n        /* \"contracts/OrderManager.sol\":2948:2979  orders[orderId].status = status */\n      swap1\n      swap2\n      and\n      swap1\n      shl(0x80, 0x01)\n      swap1\n        /* \"contracts/OrderManager.sol\":2973:2979  status */\n      dup5\n      swap1\n        /* \"contracts/OrderManager.sol\":2948:2979  orders[orderId].status = status */\n      dup2\n      gt\n      iszero\n      tag_141\n      jumpi\n      tag_141\n      tag_115\n      jump\t// in\n        /* \"@openzeppelin/contracts-upgradeable/access/OwnableUpgradeable.sol\":3405:3620  function transferOwnership(address newOwner) public virtual onlyOwner {... */\n    tag_99:\n        /* \"@openzeppelin/contracts-upgradeable/access/OwnableUpgradeable.sol\":2334:2347  _checkOwner() */\n      tag_285\n        /* \"@openzeppelin/contracts-upgradeable/access/OwnableUpgradeable.sol\":2334:2345  _checkOwner */\n      tag_160\n        /* \"@openzeppelin/contracts-upgradeable/access/OwnableUpgradeable.sol\":2334:2347  _checkOwner() */\n      jump\t// in\n    tag_285:\n      sub(shl(0xa0, 0x01), 0x01)\n        /* \"@openzeppelin/contracts-upgradeable/access/OwnableUpgradeable.sol\":3489:3511  newOwner == address(0) */\n      dup2\n      and\n        /* \"@openzeppelin/contracts-upgradeable/access/OwnableUpgradeable.sol\":3485:3576  if (newOwner == address(0)) {... */\n      tag_287\n      jumpi\n        /* \"@openzeppelin/contracts-upgradeable/access/OwnableUpgradeable.sol\":3534:3565  OwnableInvalidOwner(address(0)) */\n      mload(0x40)\n      shl(0xe0, 0x1e4fbdf7)\n      dup2\n      mstore\n        /* \"@openzeppelin/contracts-upgradeable/access/OwnableUpgradeable.sol\":3562:3563  0 */\n      0x00\n        /* \"@openzeppelin/contracts-upgradeable/access/OwnableUpgradeable.sol\":3534:3565  OwnableInvalidOwner(address(0)) */\n      0x04\n      dup3\n      add\n        /* \"#utility.yul\":4050:4101   */\n      mstore\n        /* \"#utility.yul\":4023:4041   */\n      0x24\n      add\n        /* \"@openzeppelin/contracts-upgradeable/access/OwnableUpgradeable.sol\":3534:3565  OwnableInvalidOwner(address(0)) */\n      tag_122\n        /* \"#utility.yul\":3885:4107   */\n      jump\n        /* \"@openzeppelin/contracts-upgradeable/access/OwnableUpgradeable.sol\":3485:3576  if (newOwner == address(0)) {... */\n    tag_287:\n        /* \"@openzeppelin/contracts-upgradeable/access/OwnableUpgradeable.sol\":3585:3613  _transferOwnership(newOwner) */\n      tag_289\n        /* \"@openzeppelin/contracts-upgradeable/access/OwnableUpgradeable.sol\":3604:3612  newOwner */\n      dup2\n        /* \"@openzeppelin/contracts-upgradeable/access/OwnableUpgradeable.sol\":3585:3603  _transferOwnership */\n      tag_163\n        /* \"@openzeppelin/contracts-upgradeable/access/OwnableUpgradeable.sol\":3585:3613  _transferOwnership(newOwner) */\n      jump\t// in\n    tag_289:\n        /* \"@openzeppelin/contracts-upgradeable/access/OwnableUpgradeable.sol\":3405:3620  function transferOwnership(address newOwner) public virtual onlyOwner {... */\n      pop\n      jump\t// out\n        /* \"@openzeppelin/contracts-upgradeable/proxy/utils/Initializable.sol\":9071:9276  function _getInitializableStorage() private pure returns (InitializableStorage storage $) {... */\n    tag_144:\n        /* \"@openzeppelin/contracts-upgradeable/proxy/utils/Initializable.sol\":9129:9159  InitializableStorage storage $ */\n      0x00\n      dup1\n        /* \"@openzeppelin/contracts-upgradeable/proxy/utils/Initializable.sol\":3147:3213  0xf0c57e16840df040f15088dc2f81fe391c3923bec73e23a9662efc9c229c6a00 */\n      0xf0c57e16840df040f15088dc2f81fe391c3923bec73e23a9662efc9c229c6a00\n        /* \"@openzeppelin/contracts-upgradeable/proxy/utils/Initializable.sol\":9186:9213  _initializableStorageSlot() */\n    tag_291:\n        /* \"@openzeppelin/contracts-upgradeable/proxy/utils/Initializable.sol\":9171:9213  bytes32 slot = _initializableStorageSlot() */\n      swap3\n        /* \"@openzeppelin/contracts-upgradeable/proxy/utils/Initializable.sol\":9071:9276  function _getInitializableStorage() private pure returns (InitializableStorage storage $) {... */\n      swap2\n      pop\n      pop\n      jump\t// out\n        /* \"@openzeppelin/contracts-upgradeable/access/OwnableUpgradeable.sol\":1847:1974  function __Ownable_init(address initialOwner) internal onlyInitializing {... */\n    tag_152:\n        /* \"@openzeppelin/contracts-upgradeable/proxy/utils/Initializable.sol\":6929:6949  _checkInitializing() */\n      tag_294\n        /* \"@openzeppelin/contracts-upgradeable/proxy/utils/Initializable.sol\":6929:6947  _checkInitializing */\n      tag_295\n        /* \"@openzeppelin/contracts-upgradeable/proxy/utils/Initializable.sol\":6929:6949  _checkInitializing() */\n      jump\t// in\n    tag_294:\n        /* \"@openzeppelin/contracts-upgradeable/access/OwnableUpgradeable.sol\":1929:1967  __Ownable_init_unchained(initialOwner) */\n      tag_289\n        /* \"@openzeppelin/contracts-upgradeable/access/OwnableUpgradeable.sol\":1954:1966  initialOwner */\n      dup2\n        /* \"@openzeppelin/contracts-upgradeable/access/OwnableUpgradeable.sol\":1929:1953  __Ownable_init_unchained */\n      tag_298\n        /* \"@openzeppelin/contracts-upgradeable/access/OwnableUpgradeable.sol\":1929:1967  __Ownable_init_unchained(initialOwner) */\n      jump\t// in\n        /* \"access/RoleAccess.sol\":668:761  function initializeRoles(address admin) internal {... */\n    tag_154:\n      sub(shl(0xa0, 0x01), 0x01)\n        /* \"access/RoleAccess.sol\":728:740  roles[admin] */\n      dup2\n      and\n        /* \"access/RoleAccess.sol\":743:753  Role.Admin */\n      0x00\n        /* \"access/RoleAccess.sol\":728:740  roles[admin] */\n      swap1\n      dup2\n      mstore\n      0x20\n      dup2\n      swap1\n      mstore\n      0x40\n      dup2\n      keccak256\n        /* \"access/RoleAccess.sol\":728:753  roles[admin] = Role.Admin */\n      dup1\n      sload\n      not(0xff)\n      and\n      0x01\n        /* \"access/RoleAccess.sol\":743:753  Role.Admin */\n      dup4\n        /* \"access/RoleAccess.sol\":728:753  roles[admin] = Role.Admin */\n      jump(tag_244)\n        /* \"@openzeppelin/contracts-upgradeable/access/OwnableUpgradeable.sol\":2658:2820  function _checkOwner() internal view virtual {... */\n    tag_160:\n        /* \"@openzeppelin/contracts-upgradeable/utils/ContextUpgradeable.sol\":966:976  msg.sender */\n      caller\n        /* \"@openzeppelin/contracts-upgradeable/access/OwnableUpgradeable.sol\":2717:2724  owner() */\n      tag_305\n        /* \"@openzeppelin/contracts-upgradeable/access/OwnableUpgradeable.sol\":1313:1335  OwnableStorageLocation */\n      0x9016d09d72d40fdae2fd8ceac6b6234c7706214fd39c1cd1e609a0528c199300\n        /* \"@openzeppelin/contracts-upgradeable/access/OwnableUpgradeable.sol\":2570:2578  $._owner */\n      sload\n      sub(shl(0xa0, 0x01), 0x01)\n      and\n      swap1\n        /* \"@openzeppelin/contracts-upgradeable/access/OwnableUpgradeable.sol\":2441:2585  function owner() public view virtual returns (address) {... */\n      jump\n        /* \"@openzeppelin/contracts-upgradeable/access/OwnableUpgradeable.sol\":2717:2724  owner() */\n    tag_305:\n      sub(shl(0xa0, 0x01), 0x01)\n        /* \"@openzeppelin/contracts-upgradeable/access/OwnableUpgradeable.sol\":2717:2740  owner() != _msgSender() */\n      and\n      eq\n        /* \"@openzeppelin/contracts-upgradeable/access/OwnableUpgradeable.sol\":2713:2814  if (owner() != _msgSender()) {... */\n      tag_162\n      jumpi\n        /* \"@openzeppelin/contracts-upgradeable/access/OwnableUpgradeable.sol\":2763:2803  OwnableUnauthorizedAccount(_msgSender()) */\n      mload(0x40)\n      shl(0xe0, 0x118cdaa7)\n      dup2\n      mstore\n        /* \"@openzeppelin/contracts-upgradeable/utils/ContextUpgradeable.sol\":966:976  msg.sender */\n      caller\n        /* \"@openzeppelin/contracts-upgradeable/access/OwnableUpgradeable.sol\":2763:2803  OwnableUnauthorizedAccount(_msgSender()) */\n      0x04\n      dup3\n      add\n        /* \"#utility.yul\":4050:4101   */\n      mstore\n        /* \"#utility.yul\":4023:4041   */\n      0x24\n      add\n        /* \"@openzeppelin/contracts-upgradeable/access/OwnableUpgradeable.sol\":2763:2803  OwnableUnauthorizedAccount(_msgSender()) */\n      tag_122\n        /* \"#utility.yul\":3885:4107   */\n      jump\n        /* \"@openzeppelin/contracts-upgradeable/access/OwnableUpgradeable.sol\":3774:4022  function _transferOwnership(address newOwner) internal virtual {... */\n    tag_163:\n        /* \"@openzeppelin/contracts-upgradeable/access/OwnableUpgradeable.sol\":1313:1335  OwnableStorageLocation */\n      0x9016d09d72d40fdae2fd8ceac6b6234c7706214fd39c1cd1e609a0528c199300\n        /* \"@openzeppelin/contracts-upgradeable/access/OwnableUpgradeable.sol\":3923:3931  $._owner */\n      dup1\n      sload\n      not(sub(shl(0xa0, 0x01), 0x01))\n        /* \"@openzeppelin/contracts-upgradeable/access/OwnableUpgradeable.sol\":3941:3960  $._owner = newOwner */\n      dup2\n      and\n      sub(shl(0xa0, 0x01), 0x01)\n      dup5\n      dup2\n      and\n      swap2\n      dup3\n      or\n      dup5\n      sstore\n        /* \"@openzeppelin/contracts-upgradeable/access/OwnableUpgradeable.sol\":3975:4015  OwnershipTransferred(oldOwner, newOwner) */\n      mload(0x40)\n        /* \"@openzeppelin/contracts-upgradeable/access/OwnableUpgradeable.sol\":3923:3931  $._owner */\n      swap3\n      and\n      swap2\n      dup3\n      swap1\n        /* \"@openzeppelin/contracts-upgradeable/access/OwnableUpgradeable.sol\":3975:4015  OwnershipTransferred(oldOwner, newOwner) */\n      0x8be0079c531659141344cd1fd0a4f28419497f9722a3daafe3b4186f6b6457e0\n      swap1\n        /* \"@openzeppelin/contracts-upgradeable/access/OwnableUpgradeable.sol\":3847:3871  OwnableStorage storage $ */\n      0x00\n      swap1\n        /* \"@openzeppelin/contracts-upgradeable/access/OwnableUpgradeable.sol\":3975:4015  OwnershipTransferred(oldOwner, newOwner) */\n      log3\n        /* \"@openzeppelin/contracts-upgradeable/access/OwnableUpgradeable.sol\":3837:4022  {... */\n      pop\n      pop\n        /* \"@openzeppelin/contracts-upgradeable/access/OwnableUpgradeable.sol\":3774:4022  function _transferOwnership(address newOwner) internal virtual {... */\n      pop\n      jump\t// out\n        /* \"@openzeppelin/contracts-upgradeable/proxy/utils/Initializable.sol\":7082:7223  function _checkInitializing() internal view virtual {... */\n    tag_295:\n        /* \"@openzeppelin/contracts-upgradeable/proxy/utils/Initializable.sol\":7149:7166  _isInitializing() */\n      tag_314\n        /* \"@openzeppelin/contracts-upgradeable/proxy/utils/Initializable.sol\":7149:7164  _isInitializing */\n      tag_315\n        /* \"@openzeppelin/contracts-upgradeable/proxy/utils/Initializable.sol\":7149:7166  _isInitializing() */\n      jump\t// in\n    tag_314:\n        /* \"@openzeppelin/contracts-upgradeable/proxy/utils/Initializable.sol\":7144:7217  if (!_isInitializing()) {... */\n      tag_162\n      jumpi\n        /* \"@openzeppelin/contracts-upgradeable/proxy/utils/Initializable.sol\":7189:7206  NotInitializing() */\n      mload(0x40)\n      shl(0xe3, 0x1afcd79f)\n      dup2\n      mstore\n      0x04\n      add\n      mload(0x40)\n      dup1\n      swap2\n      sub\n      swap1\n      revert\n        /* \"@openzeppelin/contracts-upgradeable/access/OwnableUpgradeable.sol\":1980:2215  function __Ownable_init_unchained(address initialOwner) internal onlyInitializing {... */\n    tag_298:\n        /* \"@openzeppelin/contracts-upgradeable/proxy/utils/Initializable.sol\":6929:6949  _checkInitializing() */\n      tag_285\n        /* \"@openzeppelin/contracts-upgradeable/proxy/utils/Initializable.sol\":6929:6947  _checkInitializing */\n      tag_295\n        /* \"@openzeppelin/contracts-upgradeable/proxy/utils/Initializable.sol\":6929:6949  _checkInitializing() */\n      jump\t// in\n        /* \"@openzeppelin/contracts-upgradeable/proxy/utils/Initializable.sol\":8485:8605  function _isInitializing() internal view returns (bool) {... */\n    tag_315:\n        /* \"@openzeppelin/contracts-upgradeable/proxy/utils/Initializable.sol\":8535:8539  bool */\n      0x00\n        /* \"@openzeppelin/contracts-upgradeable/proxy/utils/Initializable.sol\":8558:8584  _getInitializableStorage() */\n      tag_325\n        /* \"@openzeppelin/contracts-upgradeable/proxy/utils/Initializable.sol\":8558:8582  _getInitializableStorage */\n      tag_144\n        /* \"@openzeppelin/contracts-upgradeable/proxy/utils/Initializable.sol\":8558:8584  _getInitializableStorage() */\n      jump\t// in\n    tag_325:\n        /* \"@openzeppelin/contracts-upgradeable/proxy/utils/Initializable.sol\":8558:8598  _getInitializableStorage()._initializing */\n      sload\n      shl(0x40, 0x01)\n      swap1\n      div\n      0xff\n      and\n      swap2\n      swap1\n      pop\n        /* \"@openzeppelin/contracts-upgradeable/proxy/utils/Initializable.sol\":8485:8605  function _isInitializing() internal view returns (bool) {... */\n      jump\t// out\n    tag_217:\n      dup3\n      dup1\n      sload\n      dup3\n      dup3\n      sstore\n      swap1\n      0x00\n      mstore\n      keccak256(0x00, 0x20)\n      swap1\n      0x01\n      add\n      0x02\n      swap1\n      div\n      dup2\n      add\n      swap3\n      dup3\n      iszero\n      tag_328\n      jumpi\n      swap2\n      0x20\n      mul\n      dup3\n      add\n      0x00\n    tag_329:\n      dup4\n      dup3\n      gt\n      iszero\n      tag_330\n      jumpi\n      dup4\n      mload\n      dup4\n      dup3\n      0x0100\n      exp\n      dup2\n      sload\n      dup2\n      sub(shl(0x80, 0x01), 0x01)\n      mul\n      not\n      and\n      swap1\n      dup4\n      sub(shl(0x80, 0x01), 0x01)\n      and\n      mul\n      or\n      swap1\n      sstore\n      pop\n      swap3\n      0x20\n      add\n      swap3\n      0x10\n      add\n      0x20\n      dup2\n      0x0f\n      add\n      div\n      swap3\n      dup4\n      add\n      swap3\n      0x01\n      sub\n      mul\n      jump(tag_329)\n    tag_330:\n      dup1\n      iszero\n      tag_331\n      jumpi\n      dup3\n      dup2\n      0x0100\n      exp\n      dup2\n      sload\n      swap1\n      sub(shl(0x80, 0x01), 0x01)\n      mul\n      not\n      and\n      swap1\n      sstore\n      0x10\n      add\n      0x20\n      dup2\n      0x0f\n      add\n      div\n      swap3\n      dup4\n      add\n      swap3\n      0x01\n      sub\n      mul\n      jump(tag_330)\n    tag_331:\n      pop\n    tag_328:\n      pop\n      tag_332\n      swap3\n      swap2\n      pop\n      tag_333\n      jump\t// in\n    tag_332:\n      pop\n      swap1\n      jump\t// out\n    tag_333:\n    tag_334:\n      dup1\n      dup3\n      gt\n      iszero\n      tag_332\n      jumpi\n      0x00\n      dup2\n      sstore\n      0x01\n      add\n      jump(tag_334)\n        /* \"#utility.yul\":14:160   */\n    tag_336:\n      sub(shl(0x80, 0x01), 0x01)\n        /* \"#utility.yul\":93:98   */\n      dup2\n        /* \"#utility.yul\":89:135   */\n      and\n        /* \"#utility.yul\":82:87   */\n      dup2\n        /* \"#utility.yul\":79:136   */\n      eq\n        /* \"#utility.yul\":69:154   */\n      tag_289\n      jumpi\n        /* \"#utility.yul\":150:151   */\n      0x00\n        /* \"#utility.yul\":147:148   */\n      0x00\n        /* \"#utility.yul\":140:152   */\n      revert\n        /* \"#utility.yul\":165:412   */\n    tag_25:\n        /* \"#utility.yul\":224:230   */\n      0x00\n        /* \"#utility.yul\":277:279   */\n      0x20\n        /* \"#utility.yul\":265:274   */\n      dup3\n        /* \"#utility.yul\":256:263   */\n      dup5\n        /* \"#utility.yul\":252:275   */\n      sub\n        /* \"#utility.yul\":248:280   */\n      slt\n        /* \"#utility.yul\":245:297   */\n      iszero\n      tag_354\n      jumpi\n        /* \"#utility.yul\":293:294   */\n      0x00\n        /* \"#utility.yul\":290:291   */\n      0x00\n        /* \"#utility.yul\":283:295   */\n      revert\n        /* \"#utility.yul\":245:297   */\n    tag_354:\n        /* \"#utility.yul\":332:341   */\n      dup2\n        /* \"#utility.yul\":319:342   */\n      calldataload\n        /* \"#utility.yul\":351:382   */\n      tag_355\n        /* \"#utility.yul\":376:381   */\n      dup2\n        /* \"#utility.yul\":351:382   */\n      tag_336\n      jump\t// in\n    tag_355:\n        /* \"#utility.yul\":401:406   */\n      swap4\n        /* \"#utility.yul\":165:412   */\n      swap3\n      pop\n      pop\n      pop\n      jump\t// out\n        /* \"#utility.yul\":650:1111   */\n    tag_339:\n        /* \"#utility.yul\":703:706   */\n      0x00\n        /* \"#utility.yul\":741:746   */\n      dup2\n        /* \"#utility.yul\":735:747   */\n      mload\n        /* \"#utility.yul\":768:774   */\n      dup1\n        /* \"#utility.yul\":763:766   */\n      dup5\n        /* \"#utility.yul\":756:775   */\n      mstore\n        /* \"#utility.yul\":800:804   */\n      0x20\n        /* \"#utility.yul\":795:798   */\n      dup5\n        /* \"#utility.yul\":791:805   */\n      add\n        /* \"#utility.yul\":784:805   */\n      swap4\n      pop\n        /* \"#utility.yul\":839:843   */\n      0x20\n        /* \"#utility.yul\":832:837   */\n      dup4\n        /* \"#utility.yul\":828:844   */\n      add\n        /* \"#utility.yul\":862:863   */\n      0x00\n        /* \"#utility.yul\":872:1086   */\n    tag_359:\n        /* \"#utility.yul\":886:892   */\n      dup3\n        /* \"#utility.yul\":883:884   */\n      dup2\n        /* \"#utility.yul\":880:893   */\n      lt\n        /* \"#utility.yul\":872:1086   */\n      iszero\n      tag_361\n      jumpi\n        /* \"#utility.yul\":951:964   */\n      dup2\n      mload\n      sub(shl(0x80, 0x01), 0x01)\n        /* \"#utility.yul\":947:1001   */\n      and\n        /* \"#utility.yul\":935:1002   */\n      dup7\n      mstore\n        /* \"#utility.yul\":1031:1035   */\n      0x20\n        /* \"#utility.yul\":1022:1036   */\n      swap6\n      dup7\n      add\n      swap6\n        /* \"#utility.yul\":1059:1076   */\n      swap1\n      swap2\n      add\n      swap1\n        /* \"#utility.yul\":908:909   */\n      0x01\n        /* \"#utility.yul\":901:910   */\n      add\n        /* \"#utility.yul\":872:1086   */\n      jump(tag_359)\n    tag_361:\n      pop\n        /* \"#utility.yul\":1102:1105   */\n      swap4\n      swap5\n        /* \"#utility.yul\":650:1111   */\n      swap4\n      pop\n      pop\n      pop\n      pop\n      jump\t// out\n        /* \"#utility.yul\":1116:1243   */\n    tag_115:\n        /* \"#utility.yul\":1177:1187   */\n      0x4e487b71\n        /* \"#utility.yul\":1172:1175   */\n      0xe0\n        /* \"#utility.yul\":1168:1188   */\n      shl\n        /* \"#utility.yul\":1165:1166   */\n      0x00\n        /* \"#utility.yul\":1158:1189   */\n      mstore\n        /* \"#utility.yul\":1208:1212   */\n      0x21\n        /* \"#utility.yul\":1205:1206   */\n      0x04\n        /* \"#utility.yul\":1198:1213   */\n      mstore\n        /* \"#utility.yul\":1232:1236   */\n      0x24\n        /* \"#utility.yul\":1229:1230   */\n      0x00\n        /* \"#utility.yul\":1222:1237   */\n      revert\n        /* \"#utility.yul\":1248:1390   */\n    tag_340:\n        /* \"#utility.yul\":1331:1332   */\n      0x06\n        /* \"#utility.yul\":1324:1329   */\n      dup2\n        /* \"#utility.yul\":1321:1333   */\n      lt\n        /* \"#utility.yul\":1311:1357   */\n      tag_365\n      jumpi\n        /* \"#utility.yul\":1337:1355   */\n      tag_365\n      tag_115\n      jump\t// in\n    tag_365:\n        /* \"#utility.yul\":1366:1384   */\n      swap1\n      mstore\n        /* \"#utility.yul\":1248:1390   */\n      jump\t// out\n        /* \"#utility.yul\":1395:2764   */\n    tag_28:\n        /* \"#utility.yul\":1570:1572   */\n      0x20\n        /* \"#utility.yul\":1559:1568   */\n      dup2\n        /* \"#utility.yul\":1552:1573   */\n      mstore\n        /* \"#utility.yul\":1582:1635   */\n      tag_367\n        /* \"#utility.yul\":1631:1633   */\n      0x20\n        /* \"#utility.yul\":1620:1629   */\n      dup3\n        /* \"#utility.yul\":1616:1634   */\n      add\n        /* \"#utility.yul\":1607:1613   */\n      dup4\n        /* \"#utility.yul\":1601:1614   */\n      mload\n      sub(shl(0x80, 0x01), 0x01)\n        /* \"#utility.yul\":483:529   */\n      and\n        /* \"#utility.yul\":471:530   */\n      swap1\n      mstore\n        /* \"#utility.yul\":417:536   */\n      jump\n        /* \"#utility.yul\":1582:1635   */\n    tag_367:\n        /* \"#utility.yul\":1533:1537   */\n      0x00\n        /* \"#utility.yul\":1682:1684   */\n      0x20\n        /* \"#utility.yul\":1674:1680   */\n      dup4\n        /* \"#utility.yul\":1670:1685   */\n      add\n        /* \"#utility.yul\":1664:1686   */\n      mload\n        /* \"#utility.yul\":1695:1747   */\n      tag_368\n        /* \"#utility.yul\":1743:1745   */\n      0x40\n        /* \"#utility.yul\":1732:1741   */\n      dup5\n        /* \"#utility.yul\":1728:1746   */\n      add\n        /* \"#utility.yul\":1714:1726   */\n      dup3\n      sub(shl(0xa0, 0x01), 0x01)\n        /* \"#utility.yul\":607:638   */\n      and\n        /* \"#utility.yul\":595:639   */\n      swap1\n      mstore\n        /* \"#utility.yul\":541:645   */\n      jump\n        /* \"#utility.yul\":1695:1747   */\n    tag_368:\n      pop\n        /* \"#utility.yul\":1796:1798   */\n      0x40\n        /* \"#utility.yul\":1784:1799   */\n      dup4\n      add\n        /* \"#utility.yul\":1778:1800   */\n      mload\n      sub(shl(0x80, 0x01), 0x01)\n        /* \"#utility.yul\":483:529   */\n      dup2\n      and\n        /* \"#utility.yul\":1859:1861   */\n      0x60\n        /* \"#utility.yul\":1844:1862   */\n      dup5\n      add\n        /* \"#utility.yul\":471:530   */\n      mstore\n        /* \"#utility.yul\":1809:1863   */\n      pop\n        /* \"#utility.yul\":1912:1914   */\n      0x60\n        /* \"#utility.yul\":1904:1910   */\n      dup4\n        /* \"#utility.yul\":1900:1915   */\n      add\n        /* \"#utility.yul\":1894:1916   */\n      mload\n        /* \"#utility.yul\":1953:1959   */\n      0x0120\n        /* \"#utility.yul\":1947:1950   */\n      0x80\n        /* \"#utility.yul\":1936:1945   */\n      dup5\n        /* \"#utility.yul\":1932:1951   */\n      add\n        /* \"#utility.yul\":1925:1960   */\n      mstore\n        /* \"#utility.yul\":1983:2048   */\n      tag_370\n        /* \"#utility.yul\":2043:2046   */\n      0x0140\n        /* \"#utility.yul\":2032:2041   */\n      dup5\n        /* \"#utility.yul\":2028:2047   */\n      add\n        /* \"#utility.yul\":2012:2026   */\n      dup3\n        /* \"#utility.yul\":1983:2048   */\n      tag_339\n      jump\t// in\n    tag_370:\n        /* \"#utility.yul\":1969:2048   */\n      swap1\n      pop\n        /* \"#utility.yul\":2097:2100   */\n      0x80\n        /* \"#utility.yul\":2089:2095   */\n      dup5\n        /* \"#utility.yul\":2085:2101   */\n      add\n        /* \"#utility.yul\":2079:2102   */\n      mload\n        /* \"#utility.yul\":2171:2173   */\n      0x1f\n        /* \"#utility.yul\":2167:2174   */\n      not\n        /* \"#utility.yul\":2155:2164   */\n      dup5\n        /* \"#utility.yul\":2147:2153   */\n      dup4\n        /* \"#utility.yul\":2143:2165   */\n      sub\n        /* \"#utility.yul\":2139:2175   */\n      add\n        /* \"#utility.yul\":2133:2136   */\n      0xa0\n        /* \"#utility.yul\":2122:2131   */\n      dup6\n        /* \"#utility.yul\":2118:2137   */\n      add\n        /* \"#utility.yul\":2111:2176   */\n      mstore\n        /* \"#utility.yul\":2199:2251   */\n      tag_371\n        /* \"#utility.yul\":2244:2250   */\n      dup3\n        /* \"#utility.yul\":2228:2242   */\n      dup3\n        /* \"#utility.yul\":2199:2251   */\n      tag_339\n      jump\t// in\n    tag_371:\n        /* \"#utility.yul\":2185:2251   */\n      swap2\n      pop\n      pop\n        /* \"#utility.yul\":2300:2303   */\n      0xa0\n        /* \"#utility.yul\":2292:2298   */\n      dup5\n        /* \"#utility.yul\":2288:2304   */\n      add\n        /* \"#utility.yul\":2282:2305   */\n      mload\n        /* \"#utility.yul\":2314:2369   */\n      tag_372\n        /* \"#utility.yul\":2364:2367   */\n      0xc0\n        /* \"#utility.yul\":2353:2362   */\n      dup6\n        /* \"#utility.yul\":2349:2368   */\n      add\n        /* \"#utility.yul\":2333:2347   */\n      dup3\n      sub(shl(0x80, 0x01), 0x01)\n        /* \"#utility.yul\":483:529   */\n      and\n        /* \"#utility.yul\":471:530   */\n      swap1\n      mstore\n        /* \"#utility.yul\":417:536   */\n      jump\n        /* \"#utility.yul\":2314:2369   */\n    tag_372:\n      pop\n        /* \"#utility.yul\":2418:2421   */\n      0xc0\n        /* \"#utility.yul\":2410:2416   */\n      dup5\n        /* \"#utility.yul\":2406:2422   */\n      add\n        /* \"#utility.yul\":2400:2423   */\n      mload\n        /* \"#utility.yul\":2432:2496   */\n      tag_373\n        /* \"#utility.yul\":2491:2494   */\n      0xe0\n        /* \"#utility.yul\":2480:2489   */\n      dup6\n        /* \"#utility.yul\":2476:2495   */\n      add\n        /* \"#utility.yul\":2460:2474   */\n      dup3\n        /* \"#utility.yul\":2432:2496   */\n      tag_340\n      jump\t// in\n    tag_373:\n      pop\n        /* \"#utility.yul\":2545:2548   */\n      0xe0\n        /* \"#utility.yul\":2533:2549   */\n      dup5\n      add\n        /* \"#utility.yul\":2527:2550   */\n      mload\n      sub(shl(0x80, 0x01), 0x01)\n        /* \"#utility.yul\":483:529   */\n      dup2\n      and\n        /* \"#utility.yul\":2609:2612   */\n      0x0100\n        /* \"#utility.yul\":2594:2613   */\n      dup6\n      add\n        /* \"#utility.yul\":471:530   */\n      mstore\n      pop\n        /* \"#utility.yul\":2663:2666   */\n      0x0100\n        /* \"#utility.yul\":2651:2667   */\n      dup5\n      add\n        /* \"#utility.yul\":2645:2668   */\n      mload\n      sub(shl(0x80, 0x01), 0x01)\n        /* \"#utility.yul\":483:529   */\n      dup2\n      and\n        /* \"#utility.yul\":2727:2733   */\n      0x0120\n        /* \"#utility.yul\":2712:2734   */\n      dup6\n      add\n        /* \"#utility.yul\":471:530   */\n      mstore\n      pop\n        /* \"#utility.yul\":2752:2758   */\n      swap4\n        /* \"#utility.yul\":1395:2764   */\n      swap3\n      pop\n      pop\n      pop\n      jump\t// out\n        /* \"#utility.yul\":2769:2942   */\n    tag_341:\n        /* \"#utility.yul\":2837:2857   */\n      dup1\n      calldataload\n      sub(shl(0xa0, 0x01), 0x01)\n        /* \"#utility.yul\":2886:2917   */\n      dup2\n      and\n        /* \"#utility.yul\":2876:2918   */\n      dup2\n      eq\n        /* \"#utility.yul\":2866:2936   */\n      tag_377\n      jumpi\n        /* \"#utility.yul\":2932:2933   */\n      0x00\n        /* \"#utility.yul\":2929:2930   */\n      0x00\n        /* \"#utility.yul\":2922:2934   */\n      revert\n        /* \"#utility.yul\":2866:2936   */\n    tag_377:\n        /* \"#utility.yul\":2769:2942   */\n      swap2\n      swap1\n      pop\n      jump\t// out\n        /* \"#utility.yul\":2947:3201   */\n    tag_32:\n        /* \"#utility.yul\":3015:3021   */\n      0x00\n        /* \"#utility.yul\":3023:3029   */\n      0x00\n        /* \"#utility.yul\":3076:3078   */\n      0x40\n        /* \"#utility.yul\":3064:3073   */\n      dup4\n        /* \"#utility.yul\":3055:3062   */\n      dup6\n        /* \"#utility.yul\":3051:3074   */\n      sub\n        /* \"#utility.yul\":3047:3079   */\n      slt\n        /* \"#utility.yul\":3044:3096   */\n      iszero\n      tag_379\n      jumpi\n        /* \"#utility.yul\":3092:3093   */\n      0x00\n        /* \"#utility.yul\":3089:3090   */\n      0x00\n        /* \"#utility.yul\":3082:3094   */\n      revert\n        /* \"#utility.yul\":3044:3096   */\n    tag_379:\n        /* \"#utility.yul\":3115:3144   */\n      tag_380\n        /* \"#utility.yul\":3134:3143   */\n      dup4\n        /* \"#utility.yul\":3115:3144   */\n      tag_341\n      jump\t// in\n    tag_380:\n        /* \"#utility.yul\":3105:3144   */\n      swap5\n        /* \"#utility.yul\":3191:3193   */\n      0x20\n        /* \"#utility.yul\":3176:3194   */\n      swap4\n      swap1\n      swap4\n      add\n        /* \"#utility.yul\":3163:3195   */\n      calldataload\n      swap4\n      pop\n      pop\n      pop\n        /* \"#utility.yul\":2947:3201   */\n      jump\t// out\n        /* \"#utility.yul\":3429:3615   */\n    tag_43:\n        /* \"#utility.yul\":3488:3494   */\n      0x00\n        /* \"#utility.yul\":3541:3543   */\n      0x20\n        /* \"#utility.yul\":3529:3538   */\n      dup3\n        /* \"#utility.yul\":3520:3527   */\n      dup5\n        /* \"#utility.yul\":3516:3539   */\n      sub\n        /* \"#utility.yul\":3512:3544   */\n      slt\n        /* \"#utility.yul\":3509:3561   */\n      iszero\n      tag_383\n      jumpi\n        /* \"#utility.yul\":3557:3558   */\n      0x00\n        /* \"#utility.yul\":3554:3555   */\n      0x00\n        /* \"#utility.yul\":3547:3559   */\n      revert\n        /* \"#utility.yul\":3509:3561   */\n    tag_383:\n        /* \"#utility.yul\":3580:3609   */\n      tag_355\n        /* \"#utility.yul\":3599:3608   */\n      dup3\n        /* \"#utility.yul\":3580:3609   */\n      tag_341\n      jump\t// in\n        /* \"#utility.yul\":3620:3880   */\n    tag_53:\n        /* \"#utility.yul\":3688:3694   */\n      0x00\n        /* \"#utility.yul\":3696:3702   */\n      0x00\n        /* \"#utility.yul\":3749:3751   */\n      0x40\n        /* \"#utility.yul\":3737:3746   */\n      dup4\n        /* \"#utility.yul\":3728:3735   */\n      dup6\n        /* \"#utility.yul\":3724:3747   */\n      sub\n        /* \"#utility.yul\":3720:3752   */\n      slt\n        /* \"#utility.yul\":3717:3769   */\n      iszero\n      tag_386\n      jumpi\n        /* \"#utility.yul\":3765:3766   */\n      0x00\n        /* \"#utility.yul\":3762:3763   */\n      0x00\n        /* \"#utility.yul\":3755:3767   */\n      revert\n        /* \"#utility.yul\":3717:3769   */\n    tag_386:\n        /* \"#utility.yul\":3788:3817   */\n      tag_387\n        /* \"#utility.yul\":3807:3816   */\n      dup4\n        /* \"#utility.yul\":3788:3817   */\n      tag_341\n      jump\t// in\n    tag_387:\n        /* \"#utility.yul\":3778:3817   */\n      swap2\n      pop\n        /* \"#utility.yul\":3836:3874   */\n      tag_388\n        /* \"#utility.yul\":3870:3872   */\n      0x20\n        /* \"#utility.yul\":3859:3868   */\n      dup5\n        /* \"#utility.yul\":3855:3873   */\n      add\n        /* \"#utility.yul\":3836:3874   */\n      tag_341\n      jump\t// in\n    tag_388:\n        /* \"#utility.yul\":3826:3874   */\n      swap1\n      pop\n        /* \"#utility.yul\":3620:3880   */\n      swap3\n      pop\n      swap3\n      swap1\n      pop\n      jump\t// out\n        /* \"#utility.yul\":4320:4447   */\n    tag_342:\n        /* \"#utility.yul\":4381:4391   */\n      0x4e487b71\n        /* \"#utility.yul\":4376:4379   */\n      0xe0\n        /* \"#utility.yul\":4372:4392   */\n      shl\n        /* \"#utility.yul\":4369:4370   */\n      0x00\n        /* \"#utility.yul\":4362:4393   */\n      mstore\n        /* \"#utility.yul\":4412:4416   */\n      0x41\n        /* \"#utility.yul\":4409:4410   */\n      0x04\n        /* \"#utility.yul\":4402:4417   */\n      mstore\n        /* \"#utility.yul\":4436:4440   */\n      0x24\n        /* \"#utility.yul\":4433:4434   */\n      0x00\n        /* \"#utility.yul\":4426:4441   */\n      revert\n        /* \"#utility.yul\":4452:4707   */\n    tag_343:\n        /* \"#utility.yul\":4524:4526   */\n      0x40\n        /* \"#utility.yul\":4518:4527   */\n      mload\n        /* \"#utility.yul\":4566:4572   */\n      0x0140\n        /* \"#utility.yul\":4554:4573   */\n      dup2\n      add\n        /* \"#utility.yul\":4603:4621   */\n      0xffffffffffffffff\n        /* \"#utility.yul\":4588:4622   */\n      dup2\n      gt\n        /* \"#utility.yul\":4624:4646   */\n      dup3\n      dup3\n      lt\n        /* \"#utility.yul\":4585:4647   */\n      or\n        /* \"#utility.yul\":4582:4670   */\n      iszero\n      tag_394\n      jumpi\n        /* \"#utility.yul\":4650:4668   */\n      tag_394\n      tag_342\n      jump\t// in\n    tag_394:\n        /* \"#utility.yul\":4686:4688   */\n      0x40\n        /* \"#utility.yul\":4679:4701   */\n      mstore\n        /* \"#utility.yul\":4452:4707   */\n      swap1\n      jump\t// out\n        /* \"#utility.yul\":4712:4987   */\n    tag_344:\n        /* \"#utility.yul\":4783:4785   */\n      0x40\n        /* \"#utility.yul\":4777:4786   */\n      mload\n        /* \"#utility.yul\":4848:4850   */\n      0x1f\n        /* \"#utility.yul\":4829:4842   */\n      dup3\n      add\n      not(0x1f)\n        /* \"#utility.yul\":4825:4852   */\n      and\n        /* \"#utility.yul\":4813:4853   */\n      dup2\n      add\n        /* \"#utility.yul\":4883:4901   */\n      0xffffffffffffffff\n        /* \"#utility.yul\":4868:4902   */\n      dup2\n      gt\n        /* \"#utility.yul\":4904:4926   */\n      dup3\n      dup3\n      lt\n        /* \"#utility.yul\":4865:4927   */\n      or\n        /* \"#utility.yul\":4862:4950   */\n      iszero\n      tag_397\n      jumpi\n        /* \"#utility.yul\":4930:4948   */\n      tag_397\n      tag_342\n      jump\t// in\n    tag_397:\n        /* \"#utility.yul\":4966:4968   */\n      0x40\n        /* \"#utility.yul\":4959:4981   */\n      mstore\n        /* \"#utility.yul\":4712:4987   */\n      swap2\n      swap1\n      pop\n      jump\t// out\n        /* \"#utility.yul\":4992:5788   */\n    tag_345:\n        /* \"#utility.yul\":5046:5051   */\n      0x00\n        /* \"#utility.yul\":5099:5102   */\n      dup3\n        /* \"#utility.yul\":5092:5096   */\n      0x1f\n        /* \"#utility.yul\":5084:5090   */\n      dup4\n        /* \"#utility.yul\":5080:5097   */\n      add\n        /* \"#utility.yul\":5076:5103   */\n      slt\n        /* \"#utility.yul\":5066:5121   */\n      tag_399\n      jumpi\n        /* \"#utility.yul\":5117:5118   */\n      0x00\n        /* \"#utility.yul\":5114:5115   */\n      0x00\n        /* \"#utility.yul\":5107:5119   */\n      revert\n        /* \"#utility.yul\":5066:5121   */\n    tag_399:\n        /* \"#utility.yul\":5157:5163   */\n      dup2\n        /* \"#utility.yul\":5144:5164   */\n      calldataload\n        /* \"#utility.yul\":5187:5205   */\n      0xffffffffffffffff\n        /* \"#utility.yul\":5179:5185   */\n      dup2\n        /* \"#utility.yul\":5176:5206   */\n      gt\n        /* \"#utility.yul\":5173:5229   */\n      iszero\n      tag_401\n      jumpi\n        /* \"#utility.yul\":5209:5227   */\n      tag_401\n      tag_342\n      jump\t// in\n    tag_401:\n        /* \"#utility.yul\":5255:5261   */\n      dup1\n        /* \"#utility.yul\":5252:5253   */\n      0x05\n        /* \"#utility.yul\":5248:5262   */\n      shl\n        /* \"#utility.yul\":5282:5312   */\n      tag_402\n        /* \"#utility.yul\":5306:5310   */\n      0x20\n        /* \"#utility.yul\":5302:5304   */\n      dup3\n        /* \"#utility.yul\":5298:5311   */\n      add\n        /* \"#utility.yul\":5282:5312   */\n      tag_344\n      jump\t// in\n    tag_402:\n        /* \"#utility.yul\":5348:5367   */\n      swap2\n      dup3\n      mstore\n        /* \"#utility.yul\":5392:5396   */\n      0x20\n        /* \"#utility.yul\":5424:5439   */\n      dup2\n      dup6\n      add\n        /* \"#utility.yul\":5420:5446   */\n      dup2\n      add\n      swap3\n        /* \"#utility.yul\":5383:5397   */\n      swap1\n      dup2\n      add\n      swap1\n        /* \"#utility.yul\":5458:5473   */\n      dup7\n      dup5\n      gt\n        /* \"#utility.yul\":5455:5490   */\n      iszero\n      tag_403\n      jumpi\n        /* \"#utility.yul\":5486:5487   */\n      0x00\n        /* \"#utility.yul\":5483:5484   */\n      0x00\n        /* \"#utility.yul\":5476:5488   */\n      revert\n        /* \"#utility.yul\":5455:5490   */\n    tag_403:\n        /* \"#utility.yul\":5522:5526   */\n      0x20\n        /* \"#utility.yul\":5514:5520   */\n      dup7\n        /* \"#utility.yul\":5510:5527   */\n      add\n        /* \"#utility.yul\":5499:5527   */\n      swap3\n      pop\n        /* \"#utility.yul\":5536:5757   */\n    tag_404:\n        /* \"#utility.yul\":5552:5558   */\n      dup4\n        /* \"#utility.yul\":5547:5550   */\n      dup4\n        /* \"#utility.yul\":5544:5559   */\n      lt\n        /* \"#utility.yul\":5536:5757   */\n      iszero\n      tag_406\n      jumpi\n        /* \"#utility.yul\":5634:5637   */\n      dup3\n        /* \"#utility.yul\":5621:5638   */\n      calldataload\n        /* \"#utility.yul\":5651:5682   */\n      tag_407\n        /* \"#utility.yul\":5676:5681   */\n      dup2\n        /* \"#utility.yul\":5651:5682   */\n      tag_336\n      jump\t// in\n    tag_407:\n        /* \"#utility.yul\":5695:5713   */\n      dup3\n      mstore\n        /* \"#utility.yul\":5742:5746   */\n      0x20\n        /* \"#utility.yul\":5569:5583   */\n      swap3\n      dup4\n      add\n      swap3\n        /* \"#utility.yul\":5733:5747   */\n      swap1\n      swap2\n      add\n      swap1\n        /* \"#utility.yul\":5536:5757   */\n      jump(tag_404)\n    tag_406:\n        /* \"#utility.yul\":5775:5782   */\n      swap7\n        /* \"#utility.yul\":4992:5788   */\n      swap6\n      pop\n      pop\n      pop\n      pop\n      pop\n      pop\n      jump\t// out\n        /* \"#utility.yul\":5793:6518   */\n    tag_70:\n        /* \"#utility.yul\":5920:5926   */\n      0x00\n        /* \"#utility.yul\":5928:5934   */\n      0x00\n        /* \"#utility.yul\":5936:5942   */\n      0x00\n        /* \"#utility.yul\":5989:5991   */\n      0x60\n        /* \"#utility.yul\":5977:5986   */\n      dup5\n        /* \"#utility.yul\":5968:5975   */\n      dup7\n        /* \"#utility.yul\":5964:5987   */\n      sub\n        /* \"#utility.yul\":5960:5992   */\n      slt\n        /* \"#utility.yul\":5957:6009   */\n      iszero\n      tag_409\n      jumpi\n        /* \"#utility.yul\":6005:6006   */\n      0x00\n        /* \"#utility.yul\":6002:6003   */\n      0x00\n        /* \"#utility.yul\":5995:6007   */\n      revert\n        /* \"#utility.yul\":5957:6009   */\n    tag_409:\n        /* \"#utility.yul\":6044:6053   */\n      dup4\n        /* \"#utility.yul\":6031:6054   */\n      calldataload\n        /* \"#utility.yul\":6063:6094   */\n      tag_410\n        /* \"#utility.yul\":6088:6093   */\n      dup2\n        /* \"#utility.yul\":6063:6094   */\n      tag_336\n      jump\t// in\n    tag_410:\n        /* \"#utility.yul\":6113:6118   */\n      swap3\n      pop\n        /* \"#utility.yul\":6169:6171   */\n      0x20\n        /* \"#utility.yul\":6154:6172   */\n      dup5\n      add\n        /* \"#utility.yul\":6141:6173   */\n      calldataload\n        /* \"#utility.yul\":6196:6214   */\n      0xffffffffffffffff\n        /* \"#utility.yul\":6185:6215   */\n      dup2\n      gt\n        /* \"#utility.yul\":6182:6232   */\n      iszero\n      tag_411\n      jumpi\n        /* \"#utility.yul\":6228:6229   */\n      0x00\n        /* \"#utility.yul\":6225:6226   */\n      0x00\n        /* \"#utility.yul\":6218:6230   */\n      revert\n        /* \"#utility.yul\":6182:6232   */\n    tag_411:\n        /* \"#utility.yul\":6251:6312   */\n      tag_412\n        /* \"#utility.yul\":6304:6311   */\n      dup7\n        /* \"#utility.yul\":6295:6301   */\n      dup3\n        /* \"#utility.yul\":6284:6293   */\n      dup8\n        /* \"#utility.yul\":6280:6302   */\n      add\n        /* \"#utility.yul\":6251:6312   */\n      tag_345\n      jump\t// in\n    tag_412:\n        /* \"#utility.yul\":6241:6312   */\n      swap3\n      pop\n      pop\n        /* \"#utility.yul\":6365:6367   */\n      0x40\n        /* \"#utility.yul\":6354:6363   */\n      dup5\n        /* \"#utility.yul\":6350:6368   */\n      add\n        /* \"#utility.yul\":6337:6369   */\n      calldataload\n        /* \"#utility.yul\":6394:6412   */\n      0xffffffffffffffff\n        /* \"#utility.yul\":6384:6392   */\n      dup2\n        /* \"#utility.yul\":6381:6413   */\n      gt\n        /* \"#utility.yul\":6378:6430   */\n      iszero\n      tag_413\n      jumpi\n        /* \"#utility.yul\":6426:6427   */\n      0x00\n        /* \"#utility.yul\":6423:6424   */\n      0x00\n        /* \"#utility.yul\":6416:6428   */\n      revert\n        /* \"#utility.yul\":6378:6430   */\n    tag_413:\n        /* \"#utility.yul\":6449:6512   */\n      tag_414\n        /* \"#utility.yul\":6504:6511   */\n      dup7\n        /* \"#utility.yul\":6493:6501   */\n      dup3\n        /* \"#utility.yul\":6482:6491   */\n      dup8\n        /* \"#utility.yul\":6478:6502   */\n      add\n        /* \"#utility.yul\":6449:6512   */\n      tag_345\n      jump\t// in\n    tag_414:\n        /* \"#utility.yul\":6439:6512   */\n      swap2\n      pop\n      pop\n        /* \"#utility.yul\":5793:6518   */\n      swap3\n      pop\n      swap3\n      pop\n      swap3\n      jump\t// out\n        /* \"#utility.yul\":6523:6763   */\n    tag_77:\n        /* \"#utility.yul\":6664:6666   */\n      0x20\n        /* \"#utility.yul\":6649:6667   */\n      dup2\n      add\n        /* \"#utility.yul\":6697:6698   */\n      0x03\n        /* \"#utility.yul\":6686:6699   */\n      dup4\n      lt\n        /* \"#utility.yul\":6676:6723   */\n      tag_417\n      jumpi\n        /* \"#utility.yul\":6703:6721   */\n      tag_417\n      tag_115\n      jump\t// in\n    tag_417:\n        /* \"#utility.yul\":6732:6757   */\n      swap2\n      swap1\n      mstore\n        /* \"#utility.yul\":6523:6763   */\n      swap1\n      jump\t// out\n        /* \"#utility.yul\":6768:7089   */\n    tag_81:\n        /* \"#utility.yul\":6836:6842   */\n      0x00\n        /* \"#utility.yul\":6844:6850   */\n      0x00\n        /* \"#utility.yul\":6897:6899   */\n      0x40\n        /* \"#utility.yul\":6885:6894   */\n      dup4\n        /* \"#utility.yul\":6876:6883   */\n      dup6\n        /* \"#utility.yul\":6872:6895   */\n      sub\n        /* \"#utility.yul\":6868:6900   */\n      slt\n        /* \"#utility.yul\":6865:6917   */\n      iszero\n      tag_419\n      jumpi\n        /* \"#utility.yul\":6913:6914   */\n      0x00\n        /* \"#utility.yul\":6910:6911   */\n      0x00\n        /* \"#utility.yul\":6903:6915   */\n      revert\n        /* \"#utility.yul\":6865:6917   */\n    tag_419:\n        /* \"#utility.yul\":6936:6965   */\n      tag_420\n        /* \"#utility.yul\":6955:6964   */\n      dup4\n        /* \"#utility.yul\":6936:6965   */\n      tag_341\n      jump\t// in\n    tag_420:\n        /* \"#utility.yul\":6926:6965   */\n      swap2\n      pop\n        /* \"#utility.yul\":7015:7017   */\n      0x20\n        /* \"#utility.yul\":7004:7013   */\n      dup4\n        /* \"#utility.yul\":7000:7018   */\n      add\n        /* \"#utility.yul\":6987:7019   */\n      calldataload\n        /* \"#utility.yul\":7028:7059   */\n      tag_421\n        /* \"#utility.yul\":7053:7058   */\n      dup2\n        /* \"#utility.yul\":7028:7059   */\n      tag_336\n      jump\t// in\n    tag_421:\n        /* \"#utility.yul\":7078:7083   */\n      dup1\n        /* \"#utility.yul\":7068:7083   */\n      swap2\n      pop\n      pop\n        /* \"#utility.yul\":6768:7089   */\n      swap3\n      pop\n      swap3\n      swap1\n      pop\n      jump\t// out\n        /* \"#utility.yul\":7094:7507   */\n    tag_94:\n        /* \"#utility.yul\":7178:7184   */\n      0x00\n        /* \"#utility.yul\":7186:7192   */\n      0x00\n        /* \"#utility.yul\":7239:7241   */\n      0x40\n        /* \"#utility.yul\":7227:7236   */\n      dup4\n        /* \"#utility.yul\":7218:7225   */\n      dup6\n        /* \"#utility.yul\":7214:7237   */\n      sub\n        /* \"#utility.yul\":7210:7242   */\n      slt\n        /* \"#utility.yul\":7207:7259   */\n      iszero\n      tag_423\n      jumpi\n        /* \"#utility.yul\":7255:7256   */\n      0x00\n        /* \"#utility.yul\":7252:7253   */\n      0x00\n        /* \"#utility.yul\":7245:7257   */\n      revert\n        /* \"#utility.yul\":7207:7259   */\n    tag_423:\n        /* \"#utility.yul\":7294:7303   */\n      dup3\n        /* \"#utility.yul\":7281:7304   */\n      calldataload\n        /* \"#utility.yul\":7313:7344   */\n      tag_424\n        /* \"#utility.yul\":7338:7343   */\n      dup2\n        /* \"#utility.yul\":7313:7344   */\n      tag_336\n      jump\t// in\n    tag_424:\n        /* \"#utility.yul\":7363:7368   */\n      swap2\n      pop\n        /* \"#utility.yul\":7420:7422   */\n      0x20\n        /* \"#utility.yul\":7405:7423   */\n      dup4\n      add\n        /* \"#utility.yul\":7392:7424   */\n      calldataload\n        /* \"#utility.yul\":7455:7456   */\n      0x06\n        /* \"#utility.yul\":7443:7457   */\n      dup2\n      lt\n        /* \"#utility.yul\":7433:7475   */\n      tag_421\n      jumpi\n        /* \"#utility.yul\":7471:7472   */\n      0x00\n        /* \"#utility.yul\":7468:7469   */\n      0x00\n        /* \"#utility.yul\":7461:7473   */\n      revert\n        /* \"#utility.yul\":7512:8385   */\n    tag_105:\n      sub(shl(0x80, 0x01), 0x01)\n        /* \"#utility.yul\":7859:7906   */\n      dup9\n      dup2\n      and\n        /* \"#utility.yul\":7841:7907   */\n      dup3\n      mstore\n      sub(shl(0xa0, 0x01), 0x01)\n        /* \"#utility.yul\":7943:7975   */\n      dup9\n      and\n        /* \"#utility.yul\":7938:7940   */\n      0x20\n        /* \"#utility.yul\":7923:7941   */\n      dup4\n      add\n        /* \"#utility.yul\":7916:7976   */\n      mstore\n        /* \"#utility.yul\":8012:8059   */\n      dup7\n      dup2\n      and\n        /* \"#utility.yul\":8007:8009   */\n      0x40\n        /* \"#utility.yul\":7992:8010   */\n      dup4\n      add\n        /* \"#utility.yul\":7985:8060   */\n      mstore\n        /* \"#utility.yul\":8096:8143   */\n      dup6\n      and\n        /* \"#utility.yul\":8091:8093   */\n      0x60\n        /* \"#utility.yul\":8076:8094   */\n      dup3\n      add\n        /* \"#utility.yul\":8069:8144   */\n      mstore\n        /* \"#utility.yul\":7828:7831   */\n      0xe0\n        /* \"#utility.yul\":7813:7832   */\n      dup2\n      add\n        /* \"#utility.yul\":8153:8209   */\n      tag_427\n        /* \"#utility.yul\":8204:8207   */\n      0x80\n        /* \"#utility.yul\":8189:8208   */\n      dup4\n      add\n        /* \"#utility.yul\":8181:8187   */\n      dup7\n        /* \"#utility.yul\":8153:8209   */\n      tag_340\n      jump\t// in\n    tag_427:\n      sub(shl(0x80, 0x01), 0x01)\n        /* \"#utility.yul\":8250:8256   */\n      dup5\n        /* \"#utility.yul\":8246:8293   */\n      and\n        /* \"#utility.yul\":8240:8243   */\n      0xa0\n        /* \"#utility.yul\":8229:8238   */\n      dup4\n        /* \"#utility.yul\":8225:8244   */\n      add\n        /* \"#utility.yul\":8218:8294   */\n      mstore\n      sub(shl(0x80, 0x01), 0x01)\n        /* \"#utility.yul\":8335:8341   */\n      dup4\n        /* \"#utility.yul\":8331:8378   */\n      and\n        /* \"#utility.yul\":8325:8328   */\n      0xc0\n        /* \"#utility.yul\":8314:8323   */\n      dup4\n        /* \"#utility.yul\":8310:8329   */\n      add\n        /* \"#utility.yul\":8303:8379   */\n      mstore\n        /* \"#utility.yul\":7512:8385   */\n      swap9\n      swap8\n      pop\n      pop\n      pop\n      pop\n      pop\n      pop\n      pop\n      pop\n      jump\t// out\n        /* \"#utility.yul\":9995:10122   */\n    tag_190:\n        /* \"#utility.yul\":10056:10066   */\n      0x4e487b71\n        /* \"#utility.yul\":10051:10054   */\n      0xe0\n        /* \"#utility.yul\":10047:10067   */\n      shl\n        /* \"#utility.yul\":10044:10045   */\n      0x00\n        /* \"#utility.yul\":10037:10068   */\n      mstore\n        /* \"#utility.yul\":10087:10091   */\n      0x32\n        /* \"#utility.yul\":10084:10085   */\n      0x04\n        /* \"#utility.yul\":10077:10092   */\n      mstore\n        /* \"#utility.yul\":10111:10115   */\n      0x24\n        /* \"#utility.yul\":10108:10109   */\n      0x00\n        /* \"#utility.yul\":10101:10116   */\n      revert\n        /* \"#utility.yul\":10462:10600   */\n    tag_346:\n        /* \"#utility.yul\":10541:10554   */\n      dup1\n      mload\n        /* \"#utility.yul\":10563:10594   */\n      tag_377\n        /* \"#utility.yul\":10541:10554   */\n      dup2\n        /* \"#utility.yul\":10563:10594   */\n      tag_336\n      jump\t// in\n        /* \"#utility.yul\":10605:11161   */\n    tag_347:\n        /* \"#utility.yul\":10659:10664   */\n      0x00\n        /* \"#utility.yul\":10712:10715   */\n      dup3\n        /* \"#utility.yul\":10705:10709   */\n      0x1f\n        /* \"#utility.yul\":10697:10703   */\n      dup4\n        /* \"#utility.yul\":10693:10710   */\n      add\n        /* \"#utility.yul\":10689:10716   */\n      slt\n        /* \"#utility.yul\":10679:10734   */\n      tag_438\n      jumpi\n        /* \"#utility.yul\":10730:10731   */\n      0x00\n        /* \"#utility.yul\":10727:10728   */\n      0x00\n        /* \"#utility.yul\":10720:10732   */\n      revert\n        /* \"#utility.yul\":10679:10734   */\n    tag_438:\n        /* \"#utility.yul\":10763:10769   */\n      dup2\n        /* \"#utility.yul\":10757:10770   */\n      mload\n        /* \"#utility.yul\":10793:10811   */\n      0xffffffffffffffff\n        /* \"#utility.yul\":10785:10791   */\n      dup2\n        /* \"#utility.yul\":10782:10812   */\n      gt\n        /* \"#utility.yul\":10779:10835   */\n      iszero\n      tag_440\n      jumpi\n        /* \"#utility.yul\":10815:10833   */\n      tag_440\n      tag_342\n      jump\t// in\n    tag_440:\n        /* \"#utility.yul\":10859:10918   */\n      tag_441\n        /* \"#utility.yul\":10906:10908   */\n      0x1f\n        /* \"#utility.yul\":10883:10900   */\n      dup3\n      add\n      not(0x1f)\n        /* \"#utility.yul\":10879:10910   */\n      and\n        /* \"#utility.yul\":10912:10916   */\n      0x20\n        /* \"#utility.yul\":10875:10917   */\n      add\n        /* \"#utility.yul\":10859:10918   */\n      tag_344\n      jump\t// in\n    tag_441:\n        /* \"#utility.yul\":10943:10949   */\n      dup2\n        /* \"#utility.yul\":10934:10941   */\n      dup2\n        /* \"#utility.yul\":10927:10950   */\n      mstore\n        /* \"#utility.yul\":10997:11000   */\n      dup5\n        /* \"#utility.yul\":10990:10994   */\n      0x20\n        /* \"#utility.yul\":10981:10987   */\n      dup4\n        /* \"#utility.yul\":10973:10979   */\n      dup7\n        /* \"#utility.yul\":10969:10988   */\n      add\n        /* \"#utility.yul\":10965:10995   */\n      add\n        /* \"#utility.yul\":10962:11001   */\n      gt\n        /* \"#utility.yul\":10959:11018   */\n      iszero\n      tag_442\n      jumpi\n        /* \"#utility.yul\":11014:11015   */\n      0x00\n        /* \"#utility.yul\":11011:11012   */\n      0x00\n        /* \"#utility.yul\":11004:11016   */\n      revert\n        /* \"#utility.yul\":10959:11018   */\n    tag_442:\n        /* \"#utility.yul\":11072:11078   */\n      dup2\n        /* \"#utility.yul\":11065:11069   */\n      0x20\n        /* \"#utility.yul\":11057:11063   */\n      dup6\n        /* \"#utility.yul\":11053:11070   */\n      add\n        /* \"#utility.yul\":11046:11050   */\n      0x20\n        /* \"#utility.yul\":11037:11044   */\n      dup4\n        /* \"#utility.yul\":11033:11051   */\n      add\n        /* \"#utility.yul\":11027:11079   */\n      mcopy\n        /* \"#utility.yul\":11128:11129   */\n      0x00\n        /* \"#utility.yul\":11099:11119   */\n      swap2\n      dup2\n      add\n        /* \"#utility.yul\":11121:11125   */\n      0x20\n        /* \"#utility.yul\":11095:11126   */\n      add\n        /* \"#utility.yul\":11088:11130   */\n      swap2\n      swap1\n      swap2\n      mstore\n        /* \"#utility.yul\":11103:11110   */\n      swap4\n        /* \"#utility.yul\":10605:11161   */\n      swap3\n      pop\n      pop\n      pop\n      jump\t// out\n        /* \"#utility.yul\":11166:11330   */\n    tag_348:\n        /* \"#utility.yul\":11242:11255   */\n      dup1\n      mload\n        /* \"#utility.yul\":11291:11304   */\n      dup1\n      iszero\n        /* \"#utility.yul\":11284:11305   */\n      iszero\n        /* \"#utility.yul\":11274:11306   */\n      dup2\n      eq\n        /* \"#utility.yul\":11264:11324   */\n      tag_377\n      jumpi\n        /* \"#utility.yul\":11320:11321   */\n      0x00\n        /* \"#utility.yul\":11317:11318   */\n      0x00\n        /* \"#utility.yul\":11310:11322   */\n      revert\n        /* \"#utility.yul\":11335:12870   */\n    tag_196:\n        /* \"#utility.yul\":11431:11437   */\n      0x00\n        /* \"#utility.yul\":11484:11486   */\n      0x20\n        /* \"#utility.yul\":11472:11481   */\n      dup3\n        /* \"#utility.yul\":11463:11470   */\n      dup5\n        /* \"#utility.yul\":11459:11482   */\n      sub\n        /* \"#utility.yul\":11455:11487   */\n      slt\n        /* \"#utility.yul\":11452:11504   */\n      iszero\n      tag_446\n      jumpi\n        /* \"#utility.yul\":11500:11501   */\n      0x00\n        /* \"#utility.yul\":11497:11498   */\n      0x00\n        /* \"#utility.yul\":11490:11502   */\n      revert\n        /* \"#utility.yul\":11452:11504   */\n    tag_446:\n        /* \"#utility.yul\":11533:11542   */\n      dup2\n        /* \"#utility.yul\":11527:11543   */\n      mload\n        /* \"#utility.yul\":11566:11584   */\n      0xffffffffffffffff\n        /* \"#utility.yul\":11558:11564   */\n      dup2\n        /* \"#utility.yul\":11555:11585   */\n      gt\n        /* \"#utility.yul\":11552:11602   */\n      iszero\n      tag_447\n      jumpi\n        /* \"#utility.yul\":11598:11599   */\n      0x00\n        /* \"#utility.yul\":11595:11596   */\n      0x00\n        /* \"#utility.yul\":11588:11600   */\n      revert\n        /* \"#utility.yul\":11552:11602   */\n    tag_447:\n        /* \"#utility.yul\":11621:11643   */\n      dup3\n      add\n        /* \"#utility.yul\":11677:11683   */\n      0x0140\n        /* \"#utility.yul\":11659:11675   */\n      dup2\n      dup6\n      sub\n        /* \"#utility.yul\":11655:11684   */\n      slt\n        /* \"#utility.yul\":11652:11701   */\n      iszero\n      tag_448\n      jumpi\n        /* \"#utility.yul\":11697:11698   */\n      0x00\n        /* \"#utility.yul\":11694:11695   */\n      0x00\n        /* \"#utility.yul\":11687:11699   */\n      revert\n        /* \"#utility.yul\":11652:11701   */\n    tag_448:\n        /* \"#utility.yul\":11723:11745   */\n      tag_449\n      tag_343\n      jump\t// in\n    tag_449:\n        /* \"#utility.yul\":11768:11801   */\n      tag_450\n        /* \"#utility.yul\":11798:11800   */\n      dup3\n        /* \"#utility.yul\":11768:11801   */\n      tag_346\n      jump\t// in\n    tag_450:\n        /* \"#utility.yul\":11761:11766   */\n      dup2\n        /* \"#utility.yul\":11754:11802   */\n      mstore\n        /* \"#utility.yul\":11834:11876   */\n      tag_451\n        /* \"#utility.yul\":11872:11874   */\n      0x20\n        /* \"#utility.yul\":11868:11870   */\n      dup4\n        /* \"#utility.yul\":11864:11875   */\n      add\n        /* \"#utility.yul\":11834:11876   */\n      tag_346\n      jump\t// in\n    tag_451:\n        /* \"#utility.yul\":11829:11831   */\n      0x20\n        /* \"#utility.yul\":11822:11827   */\n      dup3\n        /* \"#utility.yul\":11818:11832   */\n      add\n        /* \"#utility.yul\":11811:11877   */\n      mstore\n        /* \"#utility.yul\":11916:11918   */\n      0x40\n        /* \"#utility.yul\":11912:11914   */\n      dup3\n        /* \"#utility.yul\":11908:11919   */\n      add\n        /* \"#utility.yul\":11902:11920   */\n      mload\n        /* \"#utility.yul\":11945:11963   */\n      0xffffffffffffffff\n        /* \"#utility.yul\":11935:11943   */\n      dup2\n        /* \"#utility.yul\":11932:11964   */\n      gt\n        /* \"#utility.yul\":11929:11981   */\n      iszero\n      tag_452\n      jumpi\n        /* \"#utility.yul\":11977:11978   */\n      0x00\n        /* \"#utility.yul\":11974:11975   */\n      0x00\n        /* \"#utility.yul\":11967:11979   */\n      revert\n        /* \"#utility.yul\":11929:11981   */\n    tag_452:\n        /* \"#utility.yul\":12013:12069   */\n      tag_453\n        /* \"#utility.yul\":12061:12068   */\n      dup7\n        /* \"#utility.yul\":12050:12058   */\n      dup3\n        /* \"#utility.yul\":12046:12048   */\n      dup6\n        /* \"#utility.yul\":12042:12059   */\n      add\n        /* \"#utility.yul\":12013:12069   */\n      tag_347\n      jump\t// in\n    tag_453:\n        /* \"#utility.yul\":12008:12010   */\n      0x40\n        /* \"#utility.yul\":12001:12006   */\n      dup4\n        /* \"#utility.yul\":11997:12011   */\n      add\n        /* \"#utility.yul\":11990:12070   */\n      mstore\n      pop\n        /* \"#utility.yul\":12102:12144   */\n      tag_454\n        /* \"#utility.yul\":12140:12142   */\n      0x60\n        /* \"#utility.yul\":12136:12138   */\n      dup4\n        /* \"#utility.yul\":12132:12143   */\n      add\n        /* \"#utility.yul\":12102:12144   */\n      tag_346\n      jump\t// in\n    tag_454:\n        /* \"#utility.yul\":12097:12099   */\n      0x60\n        /* \"#utility.yul\":12090:12095   */\n      dup3\n        /* \"#utility.yul\":12086:12100   */\n      add\n        /* \"#utility.yul\":12079:12145   */\n      mstore\n        /* \"#utility.yul\":12178:12218   */\n      tag_455\n        /* \"#utility.yul\":12213:12216   */\n      0x80\n        /* \"#utility.yul\":12209:12211   */\n      dup4\n        /* \"#utility.yul\":12205:12217   */\n      add\n        /* \"#utility.yul\":12178:12218   */\n      tag_348\n      jump\t// in\n    tag_455:\n        /* \"#utility.yul\":12172:12175   */\n      0x80\n        /* \"#utility.yul\":12165:12170   */\n      dup3\n        /* \"#utility.yul\":12161:12176   */\n      add\n        /* \"#utility.yul\":12154:12219   */\n      mstore\n        /* \"#utility.yul\":12258:12261   */\n      0xa0\n        /* \"#utility.yul\":12254:12256   */\n      dup3\n        /* \"#utility.yul\":12250:12262   */\n      add\n        /* \"#utility.yul\":12244:12263   */\n      mload\n        /* \"#utility.yul\":12288:12306   */\n      0xffffffffffffffff\n        /* \"#utility.yul\":12278:12286   */\n      dup2\n        /* \"#utility.yul\":12275:12307   */\n      gt\n        /* \"#utility.yul\":12272:12324   */\n      iszero\n      tag_456\n      jumpi\n        /* \"#utility.yul\":12320:12321   */\n      0x00\n        /* \"#utility.yul\":12317:12318   */\n      0x00\n        /* \"#utility.yul\":12310:12322   */\n      revert\n        /* \"#utility.yul\":12272:12324   */\n    tag_456:\n        /* \"#utility.yul\":12357:12413   */\n      tag_457\n        /* \"#utility.yul\":12405:12412   */\n      dup7\n        /* \"#utility.yul\":12394:12402   */\n      dup3\n        /* \"#utility.yul\":12390:12392   */\n      dup6\n        /* \"#utility.yul\":12386:12403   */\n      add\n        /* \"#utility.yul\":12357:12413   */\n      tag_347\n      jump\t// in\n    tag_457:\n        /* \"#utility.yul\":12351:12354   */\n      0xa0\n        /* \"#utility.yul\":12344:12349   */\n      dup4\n        /* \"#utility.yul\":12340:12355   */\n      add\n        /* \"#utility.yul\":12333:12414   */\n      mstore\n      pop\n        /* \"#utility.yul\":12453:12456   */\n      0xc0\n        /* \"#utility.yul\":12449:12451   */\n      dup3\n        /* \"#utility.yul\":12445:12457   */\n      add\n        /* \"#utility.yul\":12439:12458   */\n      mload\n        /* \"#utility.yul\":12483:12501   */\n      0xffffffffffffffff\n        /* \"#utility.yul\":12473:12481   */\n      dup2\n        /* \"#utility.yul\":12470:12502   */\n      gt\n        /* \"#utility.yul\":12467:12519   */\n      iszero\n      tag_458\n      jumpi\n        /* \"#utility.yul\":12515:12516   */\n      0x00\n        /* \"#utility.yul\":12512:12513   */\n      0x00\n        /* \"#utility.yul\":12505:12517   */\n      revert\n        /* \"#utility.yul\":12467:12519   */\n    tag_458:\n        /* \"#utility.yul\":12552:12608   */\n      tag_459\n        /* \"#utility.yul\":12600:12607   */\n      dup7\n        /* \"#utility.yul\":12589:12597   */\n      dup3\n        /* \"#utility.yul\":12585:12587   */\n      dup6\n        /* \"#utility.yul\":12581:12598   */\n      add\n        /* \"#utility.yul\":12552:12608   */\n      tag_347\n      jump\t// in\n    tag_459:\n        /* \"#utility.yul\":12546:12549   */\n      0xc0\n        /* \"#utility.yul\":12539:12544   */\n      dup4\n        /* \"#utility.yul\":12535:12550   */\n      add\n        /* \"#utility.yul\":12528:12609   */\n      mstore\n      pop\n        /* \"#utility.yul\":12642:12685   */\n      tag_460\n        /* \"#utility.yul\":12680:12683   */\n      0xe0\n        /* \"#utility.yul\":12676:12678   */\n      dup4\n        /* \"#utility.yul\":12672:12684   */\n      add\n        /* \"#utility.yul\":12642:12685   */\n      tag_346\n      jump\t// in\n    tag_460:\n        /* \"#utility.yul\":12636:12639   */\n      0xe0\n        /* \"#utility.yul\":12629:12634   */\n      dup3\n        /* \"#utility.yul\":12625:12640   */\n      add\n        /* \"#utility.yul\":12618:12686   */\n      mstore\n        /* \"#utility.yul\":12719:12762   */\n      tag_461\n        /* \"#utility.yul\":12757:12760   */\n      0x0100\n        /* \"#utility.yul\":12753:12755   */\n      dup4\n        /* \"#utility.yul\":12749:12761   */\n      add\n        /* \"#utility.yul\":12719:12762   */\n      tag_346\n      jump\t// in\n    tag_461:\n        /* \"#utility.yul\":12713:12716   */\n      0x0100\n        /* \"#utility.yul\":12706:12711   */\n      dup3\n        /* \"#utility.yul\":12702:12717   */\n      add\n        /* \"#utility.yul\":12695:12763   */\n      mstore\n        /* \"#utility.yul\":12796:12839   */\n      tag_462\n        /* \"#utility.yul\":12834:12837   */\n      0x0120\n        /* \"#utility.yul\":12830:12832   */\n      dup4\n        /* \"#utility.yul\":12826:12838   */\n      add\n        /* \"#utility.yul\":12796:12839   */\n      tag_346\n      jump\t// in\n    tag_462:\n        /* \"#utility.yul\":12790:12793   */\n      0x0120\n        /* \"#utility.yul\":12779:12794   */\n      dup3\n      add\n        /* \"#utility.yul\":12772:12840   */\n      mstore\n        /* \"#utility.yul\":12783:12788   */\n      swap5\n        /* \"#utility.yul\":11335:12870   */\n      swap4\n      pop\n      pop\n      pop\n      pop\n      jump\t// out\n        /* \"#utility.yul\":13236:13363   */\n    tag_349:\n        /* \"#utility.yul\":13297:13307   */\n      0x4e487b71\n        /* \"#utility.yul\":13292:13295   */\n      0xe0\n        /* \"#utility.yul\":13288:13308   */\n      shl\n        /* \"#utility.yul\":13285:13286   */\n      0x00\n        /* \"#utility.yul\":13278:13309   */\n      mstore\n        /* \"#utility.yul\":13328:13332   */\n      0x11\n        /* \"#utility.yul\":13325:13326   */\n      0x04\n        /* \"#utility.yul\":13318:13333   */\n      mstore\n        /* \"#utility.yul\":13352:13356   */\n      0x24\n        /* \"#utility.yul\":13349:13350   */\n      0x00\n        /* \"#utility.yul\":13342:13357   */\n      revert\n        /* \"#utility.yul\":13368:13685   */\n    tag_204:\n      sub(shl(0x80, 0x01), 0x01)\n        /* \"#utility.yul\":13453:13495   */\n      dup2\n      dup2\n      and\n        /* \"#utility.yul\":13497:13539   */\n      dup4\n      dup3\n      and\n        /* \"#utility.yul\":13449:13540   */\n      mul\n        /* \"#utility.yul\":13560:13612   */\n      swap1\n      dup2\n      and\n      swap1\n        /* \"#utility.yul\":13631:13655   */\n      dup2\n      dup2\n      eq\n        /* \"#utility.yul\":13621:13679   */\n      tag_467\n      jumpi\n        /* \"#utility.yul\":13659:13677   */\n      tag_467\n      tag_349\n      jump\t// in\n    tag_467:\n        /* \"#utility.yul\":13621:13679   */\n      pop\n        /* \"#utility.yul\":13368:13685   */\n      swap3\n      swap2\n      pop\n      pop\n      jump\t// out\n        /* \"#utility.yul\":13690:13930   */\n    tag_206:\n      sub(shl(0x80, 0x01), 0x01)\n        /* \"#utility.yul\":13759:13801   */\n      dup2\n      dup2\n      and\n        /* \"#utility.yul\":13803:13845   */\n      dup4\n      dup3\n      and\n        /* \"#utility.yul\":13755:13846   */\n      add\n      swap1\n        /* \"#utility.yul\":13858:13901   */\n      dup2\n      gt\n        /* \"#utility.yul\":13855:13924   */\n      iszero\n      tag_291\n      jumpi\n        /* \"#utility.yul\":13904:13922   */\n      tag_291\n      tag_349\n      jump\t// in\n        /* \"#utility.yul\":13935:14172   */\n    tag_210:\n        /* \"#utility.yul\":13974:13977   */\n      0x00\n      sub(shl(0x80, 0x01), 0x01)\n        /* \"#utility.yul\":14011:14016   */\n      dup3\n        /* \"#utility.yul\":14007:14053   */\n      and\n      sub(shl(0x80, 0x01), 0x01)\n        /* \"#utility.yul\":14068:14075   */\n      dup2\n        /* \"#utility.yul\":14065:14112   */\n      sub\n        /* \"#utility.yul\":14062:14135   */\n      tag_473\n      jumpi\n        /* \"#utility.yul\":14115:14133   */\n      tag_473\n      tag_349\n      jump\t// in\n    tag_473:\n        /* \"#utility.yul\":14164:14165   */\n      0x01\n        /* \"#utility.yul\":14151:14166   */\n      add\n      swap3\n        /* \"#utility.yul\":13935:14172   */\n      swap2\n      pop\n      pop\n      jump\t// out\n\n    auxdata: 0xa264697066735822122024a45bcae26a3a84cfdef0909774873bcb1965c2d6ef6e94c45d876ce371bc8a64736f6c634300081e0033\n}\n",
				"bytecode": {
					"linkReferences": {},
					"object": "6080604052348015600e575f5ffd5b50611e408061001c5f395ff3fe6080604052600436106100fa575f3560e01c80638da5cb5b11610092578063c4522c9211610062578063c4522c92146102f1578063dbc9139614610310578063ddb0c22f1461032f578063f2fde38b1461034e578063ff8ddee31461036d575f5ffd5b80638da5cb5b1461024857806398d88075146102845780639937464214610297578063ae9a4655146102d2575f5ffd5b8063388f20a8116100cd578063388f20a8146101bd578063485cc955146101de5780635059e95b146101fd578063715018a614610234575f5ffd5b8063117d4128146100fe5780631600c6cd146101335780632a58b3301461016a5780632d3238fe14610189575b5f5ffd5b348015610109575f5ffd5b5061011d610118366004611758565b6103f5565b60405161012a91906117e5565b60405180910390f35b34801561013e575f5ffd5b5061015261014d3660046118e8565b610603565b6040516001600160801b03909116815260200161012a565b348015610175575f5ffd5b50600254610152906001600160801b031681565b348015610194575f5ffd5b506101526101a3366004611910565b60016020525f90815260409020546001600160801b031681565b3480156101c8575f5ffd5b506101dc6101d7366004611758565b61064a565b005b3480156101e9575f5ffd5b506101dc6101f8366004611929565b61091b565b348015610208575f5ffd5b5060055461021c906001600160a01b031681565b6040516001600160a01b03909116815260200161012a565b34801561023f575f5ffd5b506101dc610a4c565b348015610253575f5ffd5b507f9016d09d72d40fdae2fd8ceac6b6234c7706214fd39c1cd1e609a0528c199300546001600160a01b031661021c565b6101dc610292366004611a52565b610a5f565b3480156102a2575f5ffd5b506102c56102b1366004611910565b5f6020819052908152604090205460ff1681565b60405161012a9190611ac8565b3480156102dd575f5ffd5b506101dc6102ec366004611ae2565b610f9e565b3480156102fc575f5ffd5b506101dc61030b366004611910565b611048565b34801561031b575f5ffd5b506101dc61032a366004611758565b6110ea565b34801561033a575f5ffd5b506101dc610349366004611b17565b61140e565b348015610359575f5ffd5b506101dc610368366004611910565b6114cd565b348015610378575f5ffd5b506103e2610387366004611758565b60036020525f9081526040902080546001820154600283015460058401546006909401546001600160801b03938416946001600160a01b0390931693918216928083169260ff600160801b9283900416928082169290041687565b60405161012a9796959493929190611b46565b60408051610120810182525f808252602082018190529181018290526060808201819052608082015260a0810182905260c0810182905260e081018290526101008101919091526001600160801b038083165f9081526003602081815260409283902083516101208101855281548616815260018201546001600160a01b031681840152600282015490951685850152918201805484518184028101840190955280855292936060860193909283018282801561050057602002820191905f5260205f20905f905b82829054906101000a90046001600160801b03166001600160801b031681526020019060100190602082600f010492830192600103820291508084116104bd5790505b505050505081526020016004820180548060200260200160405190810160405280929190818152602001828054801561058757602002820191905f5260205f20905f905b82829054906101000a90046001600160801b03166001600160801b031681526020019060100190602082600f010492830192600103820291508084116105445790505b50505091835250506005828101546001600160801b0381166020840152604090920191600160801b900460ff16908111156105c4576105c46117bd565b60058111156105d5576105d56117bd565b8152600691909101546001600160801b038082166020840152600160801b9091041660409091015292915050565b6004602052815f5260405f20818154811061061c575f80fd5b905f5260205f209060029182820401919006601002915091509054906101000a90046001600160801b031681565b6001600160801b038082165f90815260036020908152604080832060020154338452600190925290912054908216911681146106cd5760405162461bcd60e51b815260206004820152601d60248201527f4f6e6c79207374616666206f6620746869732072657374617572616e7400000060448201526064015b60405180910390fd5b6001600160801b038083165f90815260036020818152604080842081516101208101835281548716815260018201546001600160a01b0316818501526002820154909616868301529283018054825181850281018501909352808352949594606086019383018282801561078f57602002820191905f5260205f20905f905b82829054906101000a90046001600160801b03166001600160801b031681526020019060100190602082600f0104928301926001038202915080841161074c5790505b505050505081526020016004820180548060200260200160405190810160405280929190818152602001828054801561081657602002820191905f5260205f20905f905b82829054906101000a90046001600160801b03166001600160801b031681526020019060100190602082600f010492830192600103820291508084116107d35790505b50505091835250506005828101546001600160801b0381166020840152604090920191600160801b900460ff1690811115610853576108536117bd565b6005811115610864576108646117bd565b8152600691909101546001600160801b038082166020840152600160801b90910416604090910152905060038160c0015160058111156108a6576108a66117bd565b146108e55760405162461bcd60e51b815260206004820152600f60248201526e4f72646572206e6f7420726561647960881b60448201526064016106c4565b6001600160801b0383165f9081526003602052604090206005908101805460ff60801b1916600160801b835b0217905550505050565b5f61092461150a565b805490915060ff600160401b820416159067ffffffffffffffff165f8115801561094b5750825b90505f8267ffffffffffffffff1660011480156109675750303b155b905081158015610975575080155b156109935760405163f92ee8a960e01b815260040160405180910390fd5b845467ffffffffffffffff1916600117855583156109bd57845460ff60401b1916600160401b1785555b6109c687611534565b6109cf87611545565b600580546001600160a01b0319166001600160a01b038816179055600280546001600160801b03191660011790558315610a4357845460ff60401b19168555604051600181527fc7f505b2f371ae2175ee4913f4499e1f2633a7b5936321eed1cdaeb6115181d29060200160405180910390a15b50505050505050565b610a5461156a565b610a5d5f6115c5565b565b6002335f9081526020819052604090205460ff166002811115610a8457610a846117bd565b1480610ab257506001335f9081526020819052604090205460ff166002811115610ab057610ab06117bd565b145b610aee5760405162461bcd60e51b815260206004820152600d60248201526c27b7363c9031bab9ba37b6b2b960991b60448201526064016106c4565b80518251148015610aff57505f8251115b610b405760405162461bcd60e51b8152602060048201526012602482015271496e76616c6964206f72646572206461746160701b60448201526064016106c4565b5f80805b8451816001600160801b03161015610ced5760055485515f916001600160a01b031690630c52896890899089906001600160801b038716908110610b8a57610b8a611bac565b60200260200101516040518363ffffffff1660e01b8152600401610bc49291906001600160801b0392831681529116602082015260400190565b5f60405180830381865afa158015610bde573d5f5f3e3d5ffd5b505050506040513d5f823e601f3d908101601f19168201604052610c059190810190611c46565b80519091506001600160801b031615801590610c22575080608001515b610c6e5760405162461bcd60e51b815260206004820181905260248201527f496e76616c6964206f7220756e617661696c61626c65206d656e75206974656d60448201526064016106c4565b84826001600160801b031681518110610c8957610c89611bac565b60200260200101518160600151610ca09190611d98565b610caa9085611dc1565b93508061012001516001600160801b0316836001600160801b031611610cd557806101200151610cd7565b825b9250508080610ce590611de0565b915050610b44565b50816001600160801b0316341015610d3e5760405162461bcd60e51b8152602060048201526014602482015273125b9cdd59999a58da595b9d081c185e5b595b9d60621b60448201526064016106c4565b6040805161012081018252600280546001600160801b039081168084523360208086019182528b8416868801908152606087018c8152608088018c90528a861660a08901525f60c0890181905242871660e08a01528a87166101008a0152948552600380845298909420875181546001600160801b031990811691881691909117825593516001820180546001600160a01b0319166001600160a01b03909216919091179055905195810180549093169590941694909417905551805193949193610e119392850192919091019061167b565b5060808201518051610e2d91600484019160209091019061167b565b5060a0820151600580830180546001600160801b039093166001600160801b031984168117825560c086015193919270ffffffffffffffffffffffffffffffffff199092161790600160801b908490811115610e8b57610e8b6117bd565b021790555060e0820151610100928301516001600160801b03908116600160801b0291811691909117600690920191909155335f81815260046020908152604080832060028054825460018181018555938752949095208185040180549490921660100290970a938616840293860219909216929092179055925492519092909116907fc6cb12d0b66e0df5e922cb9d0ba47bed97edbfb3044631d430d1f6c3f4876c2c90610f5290869086906001600160801b0392831681529116602082015260400190565b60405180910390a3600280546001600160801b0316905f610f7283611de0565b91906101000a8154816001600160801b0302191690836001600160801b03160217905550505050505050565b335f9081526020819052604081205460ff166002811115610fc157610fc16117bd565b14610ffb5760405162461bcd60e51b815260206004820152600a60248201526927b7363c9030b236b4b760b11b60448201526064016106c4565b6001600160a01b03919091165f908152602081815260408083208054600160ff199091168117909155909152902080546001600160801b0319166001600160801b03909216919091179055565b335f9081526020819052604081205460ff16600281111561106b5761106b6117bd565b146110a55760405162461bcd60e51b815260206004820152600a60248201526927b7363c9030b236b4b760b11b60448201526064016106c4565b6001600160a01b0381165f90815260016020818152604080842080546001600160801b031916905590839052909120805460029260ff1990911690835b021790555050565b6002335f9081526020819052604090205460ff16600281111561110f5761110f6117bd565b148061113d57506001335f9081526020819052604090205460ff16600281111561113b5761113b6117bd565b145b6111795760405162461bcd60e51b815260206004820152600d60248201526c27b7363c9031bab9ba37b6b2b960991b60448201526064016106c4565b6001600160801b038082165f90815260036020818152604080842081516101208101835281548716815260018201546001600160a01b0316818501526002820154909616868301529283018054825181850281018501909352808352949594606086019383018282801561123b57602002820191905f5260205f20905f905b82829054906101000a90046001600160801b03166001600160801b031681526020019060100190602082600f010492830192600103820291508084116111f85790505b50505050508152602001600482018054806020026020016040519081016040528092919081815260200182805480156112c257602002820191905f5260205f20905f905b82829054906101000a90046001600160801b03166001600160801b031681526020019060100190602082600f0104928301926001038202915080841161127f5790505b50505091835250506005828101546001600160801b0381166020840152604090920191600160801b900460ff16908111156112ff576112ff6117bd565b6005811115611310576113106117bd565b8152600691909101546001600160801b03808216602080850191909152600160801b909204166040909201919091528101519091506001600160a01b0316331461138d5760405162461bcd60e51b815260206004820152600e60248201526d2737ba103cb7bab91037b93232b960911b60448201526064016106c4565b5f8160c0015160058111156113a4576113a46117bd565b146113e15760405162461bcd60e51b815260206004820152600d60248201526c10d85b9b9bdd0818d85b98d95b609a1b60448201526064016106c4565b506001600160801b03165f908152600360205260409020600501805460ff60801b1916600160821b179055565b6001600160801b038083165f908152600360209081526040808320600201543384526001909252909120549082169116811461148c5760405162461bcd60e51b815260206004820152601d60248201527f4f6e6c79207374616666206f6620746869732072657374617572616e7400000060448201526064016106c4565b6001600160801b0383165f90815260036020526040902060059081018054849260ff60801b1990911690600160801b908490811115610911576109116117bd565b6114d561156a565b6001600160a01b0381166114fe57604051631e4fbdf760e01b81525f60048201526024016106c4565b611507816115c5565b50565b5f807ff0c57e16840df040f15088dc2f81fe391c3923bec73e23a9662efc9c229c6a005b92915050565b61153c611635565b6115078161165a565b6001600160a01b0381165f908152602081905260408120805460ff19166001836110e2565b3361159c7f9016d09d72d40fdae2fd8ceac6b6234c7706214fd39c1cd1e609a0528c199300546001600160a01b031690565b6001600160a01b031614610a5d5760405163118cdaa760e01b81523360048201526024016106c4565b7f9016d09d72d40fdae2fd8ceac6b6234c7706214fd39c1cd1e609a0528c19930080546001600160a01b031981166001600160a01b03848116918217845560405192169182907f8be0079c531659141344cd1fd0a4f28419497f9722a3daafe3b4186f6b6457e0905f90a3505050565b61163d611662565b610a5d57604051631afcd79f60e31b815260040160405180910390fd5b6114d5611635565b5f61166b61150a565b54600160401b900460ff16919050565b828054828255905f5260205f2090600101600290048101928215611720579160200282015f5b838211156116eb57835183826101000a8154816001600160801b0302191690836001600160801b031602179055509260200192601001602081600f010492830192600103026116a1565b801561171e5782816101000a8154906001600160801b030219169055601001602081600f010492830192600103026116eb565b505b5061172c929150611730565b5090565b5b8082111561172c575f8155600101611731565b6001600160801b0381168114611507575f5ffd5b5f60208284031215611768575f5ffd5b813561177381611744565b9392505050565b5f8151808452602084019350602083015f5b828110156117b35781516001600160801b031686526020958601959091019060010161178c565b5093949350505050565b634e487b7160e01b5f52602160045260245ffd5b600681106117e1576117e16117bd565b9052565b602081526117ff6020820183516001600160801b03169052565b5f602083015161181a60408401826001600160a01b03169052565b5060408301516001600160801b0381166060840152506060830151610120608084015261184b61014084018261177a565b90506080840151601f198483030160a0850152611868828261177a565b91505060a084015161188560c08501826001600160801b03169052565b5060c084015161189860e08501826117d1565b5060e08401516001600160801b038116610100850152506101008401516001600160801b038116610120850152509392505050565b80356001600160a01b03811681146118e3575f5ffd5b919050565b5f5f604083850312156118f9575f5ffd5b611902836118cd565b946020939093013593505050565b5f60208284031215611920575f5ffd5b611773826118cd565b5f5f6040838503121561193a575f5ffd5b611943836118cd565b9150611951602084016118cd565b90509250929050565b634e487b7160e01b5f52604160045260245ffd5b604051610140810167ffffffffffffffff811182821017156119925761199261195a565b60405290565b604051601f8201601f1916810167ffffffffffffffff811182821017156119c1576119c161195a565b604052919050565b5f82601f8301126119d8575f5ffd5b813567ffffffffffffffff8111156119f2576119f261195a565b8060051b611a0260208201611998565b91825260208185018101929081019086841115611a1d575f5ffd5b6020860192505b83831015611a48578235611a3781611744565b825260209283019290910190611a24565b9695505050505050565b5f5f5f60608486031215611a64575f5ffd5b8335611a6f81611744565b9250602084013567ffffffffffffffff811115611a8a575f5ffd5b611a96868287016119c9565b925050604084013567ffffffffffffffff811115611ab2575f5ffd5b611abe868287016119c9565b9150509250925092565b6020810160038310611adc57611adc6117bd565b91905290565b5f5f60408385031215611af3575f5ffd5b611afc836118cd565b91506020830135611b0c81611744565b809150509250929050565b5f5f60408385031215611b28575f5ffd5b8235611b3381611744565b9150602083013560068110611b0c575f5ffd5b6001600160801b0388811682526001600160a01b038816602083015286811660408301528516606082015260e08101611b8260808301866117d1565b6001600160801b03841660a08301526001600160801b03831660c083015298975050505050505050565b634e487b7160e01b5f52603260045260245ffd5b80516118e381611744565b5f82601f830112611bda575f5ffd5b815167ffffffffffffffff811115611bf457611bf461195a565b611c07601f8201601f1916602001611998565b818152846020838601011115611c1b575f5ffd5b8160208501602083015e5f918101602001919091529392505050565b805180151581146118e3575f5ffd5b5f60208284031215611c56575f5ffd5b815167ffffffffffffffff811115611c6c575f5ffd5b82016101408185031215611c7e575f5ffd5b611c8661196e565b611c8f82611bc0565b8152611c9d60208301611bc0565b6020820152604082015167ffffffffffffffff811115611cbb575f5ffd5b611cc786828501611bcb565b604083015250611cd960608301611bc0565b6060820152611cea60808301611c37565b608082015260a082015167ffffffffffffffff811115611d08575f5ffd5b611d1486828501611bcb565b60a08301525060c082015167ffffffffffffffff811115611d33575f5ffd5b611d3f86828501611bcb565b60c083015250611d5160e08301611bc0565b60e0820152611d636101008301611bc0565b610100820152611d766101208301611bc0565b610120820152949350505050565b634e487b7160e01b5f52601160045260245ffd5b6001600160801b038181168382160290811690818114611dba57611dba611d84565b5092915050565b6001600160801b03818116838216019081111561152e5761152e611d84565b5f6001600160801b0382166001600160801b038103611e0157611e01611d84565b6001019291505056fea264697066735822122024a45bcae26a3a84cfdef0909774873bcb1965c2d6ef6e94c45d876ce371bc8a64736f6c634300081e0033",
					"opcodes": "PUSH1 0x80 PUSH1 0x40 MSTORE CALLVALUE DUP1 ISZERO PUSH1 0xE JUMPI PUSH0 PUSH0 REVERT JUMPDEST POP PUSH2 0x1E40 DUP1 PUSH2 0x1C PUSH0 CODECOPY PUSH0 RETURN INVALID PUSH1 0x80 PUSH1 0x40 MSTORE PUSH1 0x4 CALLDATASIZE LT PUSH2 0xFA JUMPI PUSH0 CALLDATALOAD PUSH1 0xE0 SHR DUP1 PUSH4 0x8DA5CB5B GT PUSH2 0x92 JUMPI DUP1 PUSH4 0xC4522C92 GT PUSH2 0x62 JUMPI DUP1 PUSH4 0xC4522C92 EQ PUSH2 0x2F1 JUMPI DUP1 PUSH4 0xDBC91396 EQ PUSH2 0x310 JUMPI DUP1 PUSH4 0xDDB0C22F EQ PUSH2 0x32F JUMPI DUP1 PUSH4 0xF2FDE38B EQ PUSH2 0x34E JUMPI DUP1 PUSH4 0xFF8DDEE3 EQ PUSH2 0x36D JUMPI PUSH0 PUSH0 REVERT JUMPDEST DUP1 PUSH4 0x8DA5CB5B EQ PUSH2 0x248 JUMPI DUP1 PUSH4 0x98D88075 EQ PUSH2 0x284 JUMPI DUP1 PUSH4 0x99374642 EQ PUSH2 0x297 JUMPI DUP1 PUSH4 0xAE9A4655 EQ PUSH2 0x2D2 JUMPI PUSH0 PUSH0 REVERT JUMPDEST DUP1 PUSH4 0x388F20A8 GT PUSH2 0xCD JUMPI DUP1 PUSH4 0x388F20A8 EQ PUSH2 0x1BD JUMPI DUP1 PUSH4 0x485CC955 EQ PUSH2 0x1DE JUMPI DUP1 PUSH4 0x5059E95B EQ PUSH2 0x1FD JUMPI DUP1 PUSH4 0x715018A6 EQ PUSH2 0x234 JUMPI PUSH0 PUSH0 REVERT JUMPDEST DUP1 PUSH4 0x117D4128 EQ PUSH2 0xFE JUMPI DUP1 PUSH4 0x1600C6CD EQ PUSH2 0x133 JUMPI DUP1 PUSH4 0x2A58B330 EQ PUSH2 0x16A JUMPI DUP1 PUSH4 0x2D3238FE EQ PUSH2 0x189 JUMPI JUMPDEST PUSH0 PUSH0 REVERT JUMPDEST CALLVALUE DUP1 ISZERO PUSH2 0x109 JUMPI PUSH0 PUSH0 REVERT JUMPDEST POP PUSH2 0x11D PUSH2 0x118 CALLDATASIZE PUSH1 0x4 PUSH2 0x1758 JUMP JUMPDEST PUSH2 0x3F5 JUMP JUMPDEST PUSH1 0x40 MLOAD PUSH2 0x12A SWAP2 SWAP1 PUSH2 0x17E5 JUMP JUMPDEST PUSH1 0x40 MLOAD DUP1 SWAP2 SUB SWAP1 RETURN JUMPDEST CALLVALUE DUP1 ISZERO PUSH2 0x13E JUMPI PUSH0 PUSH0 REVERT JUMPDEST POP PUSH2 0x152 PUSH2 0x14D CALLDATASIZE PUSH1 0x4 PUSH2 0x18E8 JUMP JUMPDEST PUSH2 0x603 JUMP JUMPDEST PUSH1 0x40 MLOAD PUSH1 0x1 PUSH1 0x1 PUSH1 0x80 SHL SUB SWAP1 SWAP2 AND DUP2 MSTORE PUSH1 0x20 ADD PUSH2 0x12A JUMP JUMPDEST CALLVALUE DUP1 ISZERO PUSH2 0x175 JUMPI PUSH0 PUSH0 REVERT JUMPDEST POP PUSH1 0x2 SLOAD PUSH2 0x152 SWAP1 PUSH1 0x1 PUSH1 0x1 PUSH1 0x80 SHL SUB AND DUP2 JUMP JUMPDEST CALLVALUE DUP1 ISZERO PUSH2 0x194 JUMPI PUSH0 PUSH0 REVERT JUMPDEST POP PUSH2 0x152 PUSH2 0x1A3 CALLDATASIZE PUSH1 0x4 PUSH2 0x1910 JUMP JUMPDEST PUSH1 0x1 PUSH1 0x20 MSTORE PUSH0 SWAP1 DUP2 MSTORE PUSH1 0x40 SWAP1 KECCAK256 SLOAD PUSH1 0x1 PUSH1 0x1 PUSH1 0x80 SHL SUB AND DUP2 JUMP JUMPDEST CALLVALUE DUP1 ISZERO PUSH2 0x1C8 JUMPI PUSH0 PUSH0 REVERT JUMPDEST POP PUSH2 0x1DC PUSH2 0x1D7 CALLDATASIZE PUSH1 0x4 PUSH2 0x1758 JUMP JUMPDEST PUSH2 0x64A JUMP JUMPDEST STOP JUMPDEST CALLVALUE DUP1 ISZERO PUSH2 0x1E9 JUMPI PUSH0 PUSH0 REVERT JUMPDEST POP PUSH2 0x1DC PUSH2 0x1F8 CALLDATASIZE PUSH1 0x4 PUSH2 0x1929 JUMP JUMPDEST PUSH2 0x91B JUMP JUMPDEST CALLVALUE DUP1 ISZERO PUSH2 0x208 JUMPI PUSH0 PUSH0 REVERT JUMPDEST POP PUSH1 0x5 SLOAD PUSH2 0x21C SWAP1 PUSH1 0x1 PUSH1 0x1 PUSH1 0xA0 SHL SUB AND DUP2 JUMP JUMPDEST PUSH1 0x40 MLOAD PUSH1 0x1 PUSH1 0x1 PUSH1 0xA0 SHL SUB SWAP1 SWAP2 AND DUP2 MSTORE PUSH1 0x20 ADD PUSH2 0x12A JUMP JUMPDEST CALLVALUE DUP1 ISZERO PUSH2 0x23F JUMPI PUSH0 PUSH0 REVERT JUMPDEST POP PUSH2 0x1DC PUSH2 0xA4C JUMP JUMPDEST CALLVALUE DUP1 ISZERO PUSH2 0x253 JUMPI PUSH0 PUSH0 REVERT JUMPDEST POP PUSH32 0x9016D09D72D40FDAE2FD8CEAC6B6234C7706214FD39C1CD1E609A0528C199300 SLOAD PUSH1 0x1 PUSH1 0x1 PUSH1 0xA0 SHL SUB AND PUSH2 0x21C JUMP JUMPDEST PUSH2 0x1DC PUSH2 0x292 CALLDATASIZE PUSH1 0x4 PUSH2 0x1A52 JUMP JUMPDEST PUSH2 0xA5F JUMP JUMPDEST CALLVALUE DUP1 ISZERO PUSH2 0x2A2 JUMPI PUSH0 PUSH0 REVERT JUMPDEST POP PUSH2 0x2C5 PUSH2 0x2B1 CALLDATASIZE PUSH1 0x4 PUSH2 0x1910 JUMP JUMPDEST PUSH0 PUSH1 0x20 DUP2 SWAP1 MSTORE SWAP1 DUP2 MSTORE PUSH1 0x40 SWAP1 KECCAK256 SLOAD PUSH1 0xFF AND DUP2 JUMP JUMPDEST PUSH1 0x40 MLOAD PUSH2 0x12A SWAP2 SWAP1 PUSH2 0x1AC8 JUMP JUMPDEST CALLVALUE DUP1 ISZERO PUSH2 0x2DD JUMPI PUSH0 PUSH0 REVERT JUMPDEST POP PUSH2 0x1DC PUSH2 0x2EC CALLDATASIZE PUSH1 0x4 PUSH2 0x1AE2 JUMP JUMPDEST PUSH2 0xF9E JUMP JUMPDEST CALLVALUE DUP1 ISZERO PUSH2 0x2FC JUMPI PUSH0 PUSH0 REVERT JUMPDEST POP PUSH2 0x1DC PUSH2 0x30B CALLDATASIZE PUSH1 0x4 PUSH2 0x1910 JUMP JUMPDEST PUSH2 0x1048 JUMP JUMPDEST CALLVALUE DUP1 ISZERO PUSH2 0x31B JUMPI PUSH0 PUSH0 REVERT JUMPDEST POP PUSH2 0x1DC PUSH2 0x32A CALLDATASIZE PUSH1 0x4 PUSH2 0x1758 JUMP JUMPDEST PUSH2 0x10EA JUMP JUMPDEST CALLVALUE DUP1 ISZERO PUSH2 0x33A JUMPI PUSH0 PUSH0 REVERT JUMPDEST POP PUSH2 0x1DC PUSH2 0x349 CALLDATASIZE PUSH1 0x4 PUSH2 0x1B17 JUMP JUMPDEST PUSH2 0x140E JUMP JUMPDEST CALLVALUE DUP1 ISZERO PUSH2 0x359 JUMPI PUSH0 PUSH0 REVERT JUMPDEST POP PUSH2 0x1DC PUSH2 0x368 CALLDATASIZE PUSH1 0x4 PUSH2 0x1910 JUMP JUMPDEST PUSH2 0x14CD JUMP JUMPDEST CALLVALUE DUP1 ISZERO PUSH2 0x378 JUMPI PUSH0 PUSH0 REVERT JUMPDEST POP PUSH2 0x3E2 PUSH2 0x387 CALLDATASIZE PUSH1 0x4 PUSH2 0x1758 JUMP JUMPDEST PUSH1 0x3 PUSH1 0x20 MSTORE PUSH0 SWAP1 DUP2 MSTORE PUSH1 0x40 SWAP1 KECCAK256 DUP1 SLOAD PUSH1 0x1 DUP3 ADD SLOAD PUSH1 0x2 DUP4 ADD SLOAD PUSH1 0x5 DUP5 ADD SLOAD PUSH1 0x6 SWAP1 SWAP5 ADD SLOAD PUSH1 0x1 PUSH1 0x1 PUSH1 0x80 SHL SUB SWAP4 DUP5 AND SWAP5 PUSH1 0x1 PUSH1 0x1 PUSH1 0xA0 SHL SUB SWAP1 SWAP4 AND SWAP4 SWAP2 DUP3 AND SWAP3 DUP1 DUP4 AND SWAP3 PUSH1 0xFF PUSH1 0x1 PUSH1 0x80 SHL SWAP3 DUP4 SWAP1 DIV AND SWAP3 DUP1 DUP3 AND SWAP3 SWAP1 DIV AND DUP8 JUMP JUMPDEST PUSH1 0x40 MLOAD PUSH2 0x12A SWAP8 SWAP7 SWAP6 SWAP5 SWAP4 SWAP3 SWAP2 SWAP1 PUSH2 0x1B46 JUMP JUMPDEST PUSH1 0x40 DUP1 MLOAD PUSH2 0x120 DUP2 ADD DUP3 MSTORE PUSH0 DUP1 DUP3 MSTORE PUSH1 0x20 DUP3 ADD DUP2 SWAP1 MSTORE SWAP2 DUP2 ADD DUP3 SWAP1 MSTORE PUSH1 0x60 DUP1 DUP3 ADD DUP2 SWAP1 MSTORE PUSH1 0x80 DUP3 ADD MSTORE PUSH1 0xA0 DUP2 ADD DUP3 SWAP1 MSTORE PUSH1 0xC0 DUP2 ADD DUP3 SWAP1 MSTORE PUSH1 0xE0 DUP2 ADD DUP3 SWAP1 MSTORE PUSH2 0x100 DUP2 ADD SWAP2 SWAP1 SWAP2 MSTORE PUSH1 0x1 PUSH1 0x1 PUSH1 0x80 SHL SUB DUP1 DUP4 AND PUSH0 SWAP1 DUP2 MSTORE PUSH1 0x3 PUSH1 0x20 DUP2 DUP2 MSTORE PUSH1 0x40 SWAP3 DUP4 SWAP1 KECCAK256 DUP4 MLOAD PUSH2 0x120 DUP2 ADD DUP6 MSTORE DUP2 SLOAD DUP7 AND DUP2 MSTORE PUSH1 0x1 DUP3 ADD SLOAD PUSH1 0x1 PUSH1 0x1 PUSH1 0xA0 SHL SUB AND DUP2 DUP5 ADD MSTORE PUSH1 0x2 DUP3 ADD SLOAD SWAP1 SWAP6 AND DUP6 DUP6 ADD MSTORE SWAP2 DUP3 ADD DUP1 SLOAD DUP5 MLOAD DUP2 DUP5 MUL DUP2 ADD DUP5 ADD SWAP1 SWAP6 MSTORE DUP1 DUP6 MSTORE SWAP3 SWAP4 PUSH1 0x60 DUP7 ADD SWAP4 SWAP1 SWAP3 DUP4 ADD DUP3 DUP3 DUP1 ISZERO PUSH2 0x500 JUMPI PUSH1 0x20 MUL DUP3 ADD SWAP2 SWAP1 PUSH0 MSTORE PUSH1 0x20 PUSH0 KECCAK256 SWAP1 PUSH0 SWAP1 JUMPDEST DUP3 DUP3 SWAP1 SLOAD SWAP1 PUSH2 0x100 EXP SWAP1 DIV PUSH1 0x1 PUSH1 0x1 PUSH1 0x80 SHL SUB AND PUSH1 0x1 PUSH1 0x1 PUSH1 0x80 SHL SUB AND DUP2 MSTORE PUSH1 0x20 ADD SWAP1 PUSH1 0x10 ADD SWAP1 PUSH1 0x20 DUP3 PUSH1 0xF ADD DIV SWAP3 DUP4 ADD SWAP3 PUSH1 0x1 SUB DUP3 MUL SWAP2 POP DUP1 DUP5 GT PUSH2 0x4BD JUMPI SWAP1 POP JUMPDEST POP POP POP POP POP DUP2 MSTORE PUSH1 0x20 ADD PUSH1 0x4 DUP3 ADD DUP1 SLOAD DUP1 PUSH1 0x20 MUL PUSH1 0x20 ADD PUSH1 0x40 MLOAD SWAP1 DUP2 ADD PUSH1 0x40 MSTORE DUP1 SWAP3 SWAP2 SWAP1 DUP2 DUP2 MSTORE PUSH1 0x20 ADD DUP3 DUP1 SLOAD DUP1 ISZERO PUSH2 0x587 JUMPI PUSH1 0x20 MUL DUP3 ADD SWAP2 SWAP1 PUSH0 MSTORE PUSH1 0x20 PUSH0 KECCAK256 SWAP1 PUSH0 SWAP1 JUMPDEST DUP3 DUP3 SWAP1 SLOAD SWAP1 PUSH2 0x100 EXP SWAP1 DIV PUSH1 0x1 PUSH1 0x1 PUSH1 0x80 SHL SUB AND PUSH1 0x1 PUSH1 0x1 PUSH1 0x80 SHL SUB AND DUP2 MSTORE PUSH1 0x20 ADD SWAP1 PUSH1 0x10 ADD SWAP1 PUSH1 0x20 DUP3 PUSH1 0xF ADD DIV SWAP3 DUP4 ADD SWAP3 PUSH1 0x1 SUB DUP3 MUL SWAP2 POP DUP1 DUP5 GT PUSH2 0x544 JUMPI SWAP1 POP JUMPDEST POP POP POP SWAP2 DUP4 MSTORE POP POP PUSH1 0x5 DUP3 DUP2 ADD SLOAD PUSH1 0x1 PUSH1 0x1 PUSH1 0x80 SHL SUB DUP2 AND PUSH1 0x20 DUP5 ADD MSTORE PUSH1 0x40 SWAP1 SWAP3 ADD SWAP2 PUSH1 0x1 PUSH1 0x80 SHL SWAP1 DIV PUSH1 0xFF AND SWAP1 DUP2 GT ISZERO PUSH2 0x5C4 JUMPI PUSH2 0x5C4 PUSH2 0x17BD JUMP JUMPDEST PUSH1 0x5 DUP2 GT ISZERO PUSH2 0x5D5 JUMPI PUSH2 0x5D5 PUSH2 0x17BD JUMP JUMPDEST DUP2 MSTORE PUSH1 0x6 SWAP2 SWAP1 SWAP2 ADD SLOAD PUSH1 0x1 PUSH1 0x1 PUSH1 0x80 SHL SUB DUP1 DUP3 AND PUSH1 0x20 DUP5 ADD MSTORE PUSH1 0x1 PUSH1 0x80 SHL SWAP1 SWAP2 DIV AND PUSH1 0x40 SWAP1 SWAP2 ADD MSTORE SWAP3 SWAP2 POP POP JUMP JUMPDEST PUSH1 0x4 PUSH1 0x20 MSTORE DUP2 PUSH0 MSTORE PUSH1 0x40 PUSH0 KECCAK256 DUP2 DUP2 SLOAD DUP2 LT PUSH2 0x61C JUMPI PUSH0 DUP1 REVERT JUMPDEST SWAP1 PUSH0 MSTORE PUSH1 0x20 PUSH0 KECCAK256 SWAP1 PUSH1 0x2 SWAP2 DUP3 DUP3 DIV ADD SWAP2 SWAP1 MOD PUSH1 0x10 MUL SWAP2 POP SWAP2 POP SWAP1 SLOAD SWAP1 PUSH2 0x100 EXP SWAP1 DIV PUSH1 0x1 PUSH1 0x1 PUSH1 0x80 SHL SUB AND DUP2 JUMP JUMPDEST PUSH1 0x1 PUSH1 0x1 PUSH1 0x80 SHL SUB DUP1 DUP3 AND PUSH0 SWAP1 DUP2 MSTORE PUSH1 0x3 PUSH1 0x20 SWAP1 DUP2 MSTORE PUSH1 0x40 DUP1 DUP4 KECCAK256 PUSH1 0x2 ADD SLOAD CALLER DUP5 MSTORE PUSH1 0x1 SWAP1 SWAP3 MSTORE SWAP1 SWAP2 KECCAK256 SLOAD SWAP1 DUP3 AND SWAP2 AND DUP2 EQ PUSH2 0x6CD JUMPI PUSH1 0x40 MLOAD PUSH3 0x461BCD PUSH1 0xE5 SHL DUP2 MSTORE PUSH1 0x20 PUSH1 0x4 DUP3 ADD MSTORE PUSH1 0x1D PUSH1 0x24 DUP3 ADD MSTORE PUSH32 0x4F6E6C79207374616666206F6620746869732072657374617572616E74000000 PUSH1 0x44 DUP3 ADD MSTORE PUSH1 0x64 ADD JUMPDEST PUSH1 0x40 MLOAD DUP1 SWAP2 SUB SWAP1 REVERT JUMPDEST PUSH1 0x1 PUSH1 0x1 PUSH1 0x80 SHL SUB DUP1 DUP4 AND PUSH0 SWAP1 DUP2 MSTORE PUSH1 0x3 PUSH1 0x20 DUP2 DUP2 MSTORE PUSH1 0x40 DUP1 DUP5 KECCAK256 DUP2 MLOAD PUSH2 0x120 DUP2 ADD DUP4 MSTORE DUP2 SLOAD DUP8 AND DUP2 MSTORE PUSH1 0x1 DUP3 ADD SLOAD PUSH1 0x1 PUSH1 0x1 PUSH1 0xA0 SHL SUB AND DUP2 DUP6 ADD MSTORE PUSH1 0x2 DUP3 ADD SLOAD SWAP1 SWAP7 AND DUP7 DUP4 ADD MSTORE SWAP3 DUP4 ADD DUP1 SLOAD DUP3 MLOAD DUP2 DUP6 MUL DUP2 ADD DUP6 ADD SWAP1 SWAP4 MSTORE DUP1 DUP4 MSTORE SWAP5 SWAP6 SWAP5 PUSH1 0x60 DUP7 ADD SWAP4 DUP4 ADD DUP3 DUP3 DUP1 ISZERO PUSH2 0x78F JUMPI PUSH1 0x20 MUL DUP3 ADD SWAP2 SWAP1 PUSH0 MSTORE PUSH1 0x20 PUSH0 KECCAK256 SWAP1 PUSH0 SWAP1 JUMPDEST DUP3 DUP3 SWAP1 SLOAD SWAP1 PUSH2 0x100 EXP SWAP1 DIV PUSH1 0x1 PUSH1 0x1 PUSH1 0x80 SHL SUB AND PUSH1 0x1 PUSH1 0x1 PUSH1 0x80 SHL SUB AND DUP2 MSTORE PUSH1 0x20 ADD SWAP1 PUSH1 0x10 ADD SWAP1 PUSH1 0x20 DUP3 PUSH1 0xF ADD DIV SWAP3 DUP4 ADD SWAP3 PUSH1 0x1 SUB DUP3 MUL SWAP2 POP DUP1 DUP5 GT PUSH2 0x74C JUMPI SWAP1 POP JUMPDEST POP POP POP POP POP DUP2 MSTORE PUSH1 0x20 ADD PUSH1 0x4 DUP3 ADD DUP1 SLOAD DUP1 PUSH1 0x20 MUL PUSH1 0x20 ADD PUSH1 0x40 MLOAD SWAP1 DUP2 ADD PUSH1 0x40 MSTORE DUP1 SWAP3 SWAP2 SWAP1 DUP2 DUP2 MSTORE PUSH1 0x20 ADD DUP3 DUP1 SLOAD DUP1 ISZERO PUSH2 0x816 JUMPI PUSH1 0x20 MUL DUP3 ADD SWAP2 SWAP1 PUSH0 MSTORE PUSH1 0x20 PUSH0 KECCAK256 SWAP1 PUSH0 SWAP1 JUMPDEST DUP3 DUP3 SWAP1 SLOAD SWAP1 PUSH2 0x100 EXP SWAP1 DIV PUSH1 0x1 PUSH1 0x1 PUSH1 0x80 SHL SUB AND PUSH1 0x1 PUSH1 0x1 PUSH1 0x80 SHL SUB AND DUP2 MSTORE PUSH1 0x20 ADD SWAP1 PUSH1 0x10 ADD SWAP1 PUSH1 0x20 DUP3 PUSH1 0xF ADD DIV SWAP3 DUP4 ADD SWAP3 PUSH1 0x1 SUB DUP3 MUL SWAP2 POP DUP1 DUP5 GT PUSH2 0x7D3 JUMPI SWAP1 POP JUMPDEST POP POP POP SWAP2 DUP4 MSTORE POP POP PUSH1 0x5 DUP3 DUP2 ADD SLOAD PUSH1 0x1 PUSH1 0x1 PUSH1 0x80 SHL SUB DUP2 AND PUSH1 0x20 DUP5 ADD MSTORE PUSH1 0x40 SWAP1 SWAP3 ADD SWAP2 PUSH1 0x1 PUSH1 0x80 SHL SWAP1 DIV PUSH1 0xFF AND SWAP1 DUP2 GT ISZERO PUSH2 0x853 JUMPI PUSH2 0x853 PUSH2 0x17BD JUMP JUMPDEST PUSH1 0x5 DUP2 GT ISZERO PUSH2 0x864 JUMPI PUSH2 0x864 PUSH2 0x17BD JUMP JUMPDEST DUP2 MSTORE PUSH1 0x6 SWAP2 SWAP1 SWAP2 ADD SLOAD PUSH1 0x1 PUSH1 0x1 PUSH1 0x80 SHL SUB DUP1 DUP3 AND PUSH1 0x20 DUP5 ADD MSTORE PUSH1 0x1 PUSH1 0x80 SHL SWAP1 SWAP2 DIV AND PUSH1 0x40 SWAP1 SWAP2 ADD MSTORE SWAP1 POP PUSH1 0x3 DUP2 PUSH1 0xC0 ADD MLOAD PUSH1 0x5 DUP2 GT ISZERO PUSH2 0x8A6 JUMPI PUSH2 0x8A6 PUSH2 0x17BD JUMP JUMPDEST EQ PUSH2 0x8E5 JUMPI PUSH1 0x40 MLOAD PUSH3 0x461BCD PUSH1 0xE5 SHL DUP2 MSTORE PUSH1 0x20 PUSH1 0x4 DUP3 ADD MSTORE PUSH1 0xF PUSH1 0x24 DUP3 ADD MSTORE PUSH15 0x4F72646572206E6F74207265616479 PUSH1 0x88 SHL PUSH1 0x44 DUP3 ADD MSTORE PUSH1 0x64 ADD PUSH2 0x6C4 JUMP JUMPDEST PUSH1 0x1 PUSH1 0x1 PUSH1 0x80 SHL SUB DUP4 AND PUSH0 SWAP1 DUP2 MSTORE PUSH1 0x3 PUSH1 0x20 MSTORE PUSH1 0x40 SWAP1 KECCAK256 PUSH1 0x5 SWAP1 DUP2 ADD DUP1 SLOAD PUSH1 0xFF PUSH1 0x80 SHL NOT AND PUSH1 0x1 PUSH1 0x80 SHL DUP4 JUMPDEST MUL OR SWAP1 SSTORE POP POP POP POP JUMP JUMPDEST PUSH0 PUSH2 0x924 PUSH2 0x150A JUMP JUMPDEST DUP1 SLOAD SWAP1 SWAP2 POP PUSH1 0xFF PUSH1 0x1 PUSH1 0x40 SHL DUP3 DIV AND ISZERO SWAP1 PUSH8 0xFFFFFFFFFFFFFFFF AND PUSH0 DUP2 ISZERO DUP1 ISZERO PUSH2 0x94B JUMPI POP DUP3 JUMPDEST SWAP1 POP PUSH0 DUP3 PUSH8 0xFFFFFFFFFFFFFFFF AND PUSH1 0x1 EQ DUP1 ISZERO PUSH2 0x967 JUMPI POP ADDRESS EXTCODESIZE ISZERO JUMPDEST SWAP1 POP DUP2 ISZERO DUP1 ISZERO PUSH2 0x975 JUMPI POP DUP1 ISZERO JUMPDEST ISZERO PUSH2 0x993 JUMPI PUSH1 0x40 MLOAD PUSH4 0xF92EE8A9 PUSH1 0xE0 SHL DUP2 MSTORE PUSH1 0x4 ADD PUSH1 0x40 MLOAD DUP1 SWAP2 SUB SWAP1 REVERT JUMPDEST DUP5 SLOAD PUSH8 0xFFFFFFFFFFFFFFFF NOT AND PUSH1 0x1 OR DUP6 SSTORE DUP4 ISZERO PUSH2 0x9BD JUMPI DUP5 SLOAD PUSH1 0xFF PUSH1 0x40 SHL NOT AND PUSH1 0x1 PUSH1 0x40 SHL OR DUP6 SSTORE JUMPDEST PUSH2 0x9C6 DUP8 PUSH2 0x1534 JUMP JUMPDEST PUSH2 0x9CF DUP8 PUSH2 0x1545 JUMP JUMPDEST PUSH1 0x5 DUP1 SLOAD PUSH1 0x1 PUSH1 0x1 PUSH1 0xA0 SHL SUB NOT AND PUSH1 0x1 PUSH1 0x1 PUSH1 0xA0 SHL SUB DUP9 AND OR SWAP1 SSTORE PUSH1 0x2 DUP1 SLOAD PUSH1 0x1 PUSH1 0x1 PUSH1 0x80 SHL SUB NOT AND PUSH1 0x1 OR SWAP1 SSTORE DUP4 ISZERO PUSH2 0xA43 JUMPI DUP5 SLOAD PUSH1 0xFF PUSH1 0x40 SHL NOT AND DUP6 SSTORE PUSH1 0x40 MLOAD PUSH1 0x1 DUP2 MSTORE PUSH32 0xC7F505B2F371AE2175EE4913F4499E1F2633A7B5936321EED1CDAEB6115181D2 SWAP1 PUSH1 0x20 ADD PUSH1 0x40 MLOAD DUP1 SWAP2 SUB SWAP1 LOG1 JUMPDEST POP POP POP POP POP POP POP JUMP JUMPDEST PUSH2 0xA54 PUSH2 0x156A JUMP JUMPDEST PUSH2 0xA5D PUSH0 PUSH2 0x15C5 JUMP JUMPDEST JUMP JUMPDEST PUSH1 0x2 CALLER PUSH0 SWAP1 DUP2 MSTORE PUSH1 0x20 DUP2 SWAP1 MSTORE PUSH1 0x40 SWAP1 KECCAK256 SLOAD PUSH1 0xFF AND PUSH1 0x2 DUP2 GT ISZERO PUSH2 0xA84 JUMPI PUSH2 0xA84 PUSH2 0x17BD JUMP JUMPDEST EQ DUP1 PUSH2 0xAB2 JUMPI POP PUSH1 0x1 CALLER PUSH0 SWAP1 DUP2 MSTORE PUSH1 0x20 DUP2 SWAP1 MSTORE PUSH1 0x40 SWAP1 KECCAK256 SLOAD PUSH1 0xFF AND PUSH1 0x2 DUP2 GT ISZERO PUSH2 0xAB0 JUMPI PUSH2 0xAB0 PUSH2 0x17BD JUMP JUMPDEST EQ JUMPDEST PUSH2 0xAEE JUMPI PUSH1 0x40 MLOAD PUSH3 0x461BCD PUSH1 0xE5 SHL DUP2 MSTORE PUSH1 0x20 PUSH1 0x4 DUP3 ADD MSTORE PUSH1 0xD PUSH1 0x24 DUP3 ADD MSTORE PUSH13 0x27B7363C9031BAB9BA37B6B2B9 PUSH1 0x99 SHL PUSH1 0x44 DUP3 ADD MSTORE PUSH1 0x64 ADD PUSH2 0x6C4 JUMP JUMPDEST DUP1 MLOAD DUP3 MLOAD EQ DUP1 ISZERO PUSH2 0xAFF JUMPI POP PUSH0 DUP3 MLOAD GT JUMPDEST PUSH2 0xB40 JUMPI PUSH1 0x40 MLOAD PUSH3 0x461BCD PUSH1 0xE5 SHL DUP2 MSTORE PUSH1 0x20 PUSH1 0x4 DUP3 ADD MSTORE PUSH1 0x12 PUSH1 0x24 DUP3 ADD MSTORE PUSH18 0x496E76616C6964206F726465722064617461 PUSH1 0x70 SHL PUSH1 0x44 DUP3 ADD MSTORE PUSH1 0x64 ADD PUSH2 0x6C4 JUMP JUMPDEST PUSH0 DUP1 DUP1 JUMPDEST DUP5 MLOAD DUP2 PUSH1 0x1 PUSH1 0x1 PUSH1 0x80 SHL SUB AND LT ISZERO PUSH2 0xCED JUMPI PUSH1 0x5 SLOAD DUP6 MLOAD PUSH0 SWAP2 PUSH1 0x1 PUSH1 0x1 PUSH1 0xA0 SHL SUB AND SWAP1 PUSH4 0xC528968 SWAP1 DUP10 SWAP1 DUP10 SWAP1 PUSH1 0x1 PUSH1 0x1 PUSH1 0x80 SHL SUB DUP8 AND SWAP1 DUP2 LT PUSH2 0xB8A JUMPI PUSH2 0xB8A PUSH2 0x1BAC JUMP JUMPDEST PUSH1 0x20 MUL PUSH1 0x20 ADD ADD MLOAD PUSH1 0x40 MLOAD DUP4 PUSH4 0xFFFFFFFF AND PUSH1 0xE0 SHL DUP2 MSTORE PUSH1 0x4 ADD PUSH2 0xBC4 SWAP3 SWAP2 SWAP1 PUSH1 0x1 PUSH1 0x1 PUSH1 0x80 SHL SUB SWAP3 DUP4 AND DUP2 MSTORE SWAP2 AND PUSH1 0x20 DUP3 ADD MSTORE PUSH1 0x40 ADD SWAP1 JUMP JUMPDEST PUSH0 PUSH1 0x40 MLOAD DUP1 DUP4 SUB DUP2 DUP7 GAS STATICCALL ISZERO DUP1 ISZERO PUSH2 0xBDE JUMPI RETURNDATASIZE PUSH0 PUSH0 RETURNDATACOPY RETURNDATASIZE PUSH0 REVERT JUMPDEST POP POP POP POP PUSH1 0x40 MLOAD RETURNDATASIZE PUSH0 DUP3 RETURNDATACOPY PUSH1 0x1F RETURNDATASIZE SWAP1 DUP2 ADD PUSH1 0x1F NOT AND DUP3 ADD PUSH1 0x40 MSTORE PUSH2 0xC05 SWAP2 SWAP1 DUP2 ADD SWAP1 PUSH2 0x1C46 JUMP JUMPDEST DUP1 MLOAD SWAP1 SWAP2 POP PUSH1 0x1 PUSH1 0x1 PUSH1 0x80 SHL SUB AND ISZERO DUP1 ISZERO SWAP1 PUSH2 0xC22 JUMPI POP DUP1 PUSH1 0x80 ADD MLOAD JUMPDEST PUSH2 0xC6E JUMPI PUSH1 0x40 MLOAD PUSH3 0x461BCD PUSH1 0xE5 SHL DUP2 MSTORE PUSH1 0x20 PUSH1 0x4 DUP3 ADD DUP2 SWAP1 MSTORE PUSH1 0x24 DUP3 ADD MSTORE PUSH32 0x496E76616C6964206F7220756E617661696C61626C65206D656E75206974656D PUSH1 0x44 DUP3 ADD MSTORE PUSH1 0x64 ADD PUSH2 0x6C4 JUMP JUMPDEST DUP5 DUP3 PUSH1 0x1 PUSH1 0x1 PUSH1 0x80 SHL SUB AND DUP2 MLOAD DUP2 LT PUSH2 0xC89 JUMPI PUSH2 0xC89 PUSH2 0x1BAC JUMP JUMPDEST PUSH1 0x20 MUL PUSH1 0x20 ADD ADD MLOAD DUP2 PUSH1 0x60 ADD MLOAD PUSH2 0xCA0 SWAP2 SWAP1 PUSH2 0x1D98 JUMP JUMPDEST PUSH2 0xCAA SWAP1 DUP6 PUSH2 0x1DC1 JUMP JUMPDEST SWAP4 POP DUP1 PUSH2 0x120 ADD MLOAD PUSH1 0x1 PUSH1 0x1 PUSH1 0x80 SHL SUB AND DUP4 PUSH1 0x1 PUSH1 0x1 PUSH1 0x80 SHL SUB AND GT PUSH2 0xCD5 JUMPI DUP1 PUSH2 0x120 ADD MLOAD PUSH2 0xCD7 JUMP JUMPDEST DUP3 JUMPDEST SWAP3 POP POP DUP1 DUP1 PUSH2 0xCE5 SWAP1 PUSH2 0x1DE0 JUMP JUMPDEST SWAP2 POP POP PUSH2 0xB44 JUMP JUMPDEST POP DUP2 PUSH1 0x1 PUSH1 0x1 PUSH1 0x80 SHL SUB AND CALLVALUE LT ISZERO PUSH2 0xD3E JUMPI PUSH1 0x40 MLOAD PUSH3 0x461BCD PUSH1 0xE5 SHL DUP2 MSTORE PUSH1 0x20 PUSH1 0x4 DUP3 ADD MSTORE PUSH1 0x14 PUSH1 0x24 DUP3 ADD MSTORE PUSH20 0x125B9CDD59999A58DA595B9D081C185E5B595B9D PUSH1 0x62 SHL PUSH1 0x44 DUP3 ADD MSTORE PUSH1 0x64 ADD PUSH2 0x6C4 JUMP JUMPDEST PUSH1 0x40 DUP1 MLOAD PUSH2 0x120 DUP2 ADD DUP3 MSTORE PUSH1 0x2 DUP1 SLOAD PUSH1 0x1 PUSH1 0x1 PUSH1 0x80 SHL SUB SWAP1 DUP2 AND DUP1 DUP5 MSTORE CALLER PUSH1 0x20 DUP1 DUP7 ADD SWAP2 DUP3 MSTORE DUP12 DUP5 AND DUP7 DUP9 ADD SWAP1 DUP2 MSTORE PUSH1 0x60 DUP8 ADD DUP13 DUP2 MSTORE PUSH1 0x80 DUP9 ADD DUP13 SWAP1 MSTORE DUP11 DUP7 AND PUSH1 0xA0 DUP10 ADD MSTORE PUSH0 PUSH1 0xC0 DUP10 ADD DUP2 SWAP1 MSTORE TIMESTAMP DUP8 AND PUSH1 0xE0 DUP11 ADD MSTORE DUP11 DUP8 AND PUSH2 0x100 DUP11 ADD MSTORE SWAP5 DUP6 MSTORE PUSH1 0x3 DUP1 DUP5 MSTORE SWAP9 SWAP1 SWAP5 KECCAK256 DUP8 MLOAD DUP2 SLOAD PUSH1 0x1 PUSH1 0x1 PUSH1 0x80 SHL SUB NOT SWAP1 DUP2 AND SWAP2 DUP9 AND SWAP2 SWAP1 SWAP2 OR DUP3 SSTORE SWAP4 MLOAD PUSH1 0x1 DUP3 ADD DUP1 SLOAD PUSH1 0x1 PUSH1 0x1 PUSH1 0xA0 SHL SUB NOT AND PUSH1 0x1 PUSH1 0x1 PUSH1 0xA0 SHL SUB SWAP1 SWAP3 AND SWAP2 SWAP1 SWAP2 OR SWAP1 SSTORE SWAP1 MLOAD SWAP6 DUP2 ADD DUP1 SLOAD SWAP1 SWAP4 AND SWAP6 SWAP1 SWAP5 AND SWAP5 SWAP1 SWAP5 OR SWAP1 SSTORE MLOAD DUP1 MLOAD SWAP4 SWAP5 SWAP2 SWAP4 PUSH2 0xE11 SWAP4 SWAP3 DUP6 ADD SWAP3 SWAP2 SWAP1 SWAP2 ADD SWAP1 PUSH2 0x167B JUMP JUMPDEST POP PUSH1 0x80 DUP3 ADD MLOAD DUP1 MLOAD PUSH2 0xE2D SWAP2 PUSH1 0x4 DUP5 ADD SWAP2 PUSH1 0x20 SWAP1 SWAP2 ADD SWAP1 PUSH2 0x167B JUMP JUMPDEST POP PUSH1 0xA0 DUP3 ADD MLOAD PUSH1 0x5 DUP1 DUP4 ADD DUP1 SLOAD PUSH1 0x1 PUSH1 0x1 PUSH1 0x80 SHL SUB SWAP1 SWAP4 AND PUSH1 0x1 PUSH1 0x1 PUSH1 0x80 SHL SUB NOT DUP5 AND DUP2 OR DUP3 SSTORE PUSH1 0xC0 DUP7 ADD MLOAD SWAP4 SWAP2 SWAP3 PUSH17 0xFFFFFFFFFFFFFFFFFFFFFFFFFFFFFFFFFF NOT SWAP1 SWAP3 AND OR SWAP1 PUSH1 0x1 PUSH1 0x80 SHL SWAP1 DUP5 SWAP1 DUP2 GT ISZERO PUSH2 0xE8B JUMPI PUSH2 0xE8B PUSH2 0x17BD JUMP JUMPDEST MUL OR SWAP1 SSTORE POP PUSH1 0xE0 DUP3 ADD MLOAD PUSH2 0x100 SWAP3 DUP4 ADD MLOAD PUSH1 0x1 PUSH1 0x1 PUSH1 0x80 SHL SUB SWAP1 DUP2 AND PUSH1 0x1 PUSH1 0x80 SHL MUL SWAP2 DUP2 AND SWAP2 SWAP1 SWAP2 OR PUSH1 0x6 SWAP1 SWAP3 ADD SWAP2 SWAP1 SWAP2 SSTORE CALLER PUSH0 DUP2 DUP2 MSTORE PUSH1 0x4 PUSH1 0x20 SWAP1 DUP2 MSTORE PUSH1 0x40 DUP1 DUP4 KECCAK256 PUSH1 0x2 DUP1 SLOAD DUP3 SLOAD PUSH1 0x1 DUP2 DUP2 ADD DUP6 SSTORE SWAP4 DUP8 MSTORE SWAP5 SWAP1 SWAP6 KECCAK256 DUP2 DUP6 DIV ADD DUP1 SLOAD SWAP5 SWAP1 SWAP3 AND PUSH1 0x10 MUL SWAP1 SWAP8 EXP SWAP4 DUP7 AND DUP5 MUL SWAP4 DUP7 MUL NOT SWAP1 SWAP3 AND SWAP3 SWAP1 SWAP3 OR SWAP1 SSTORE SWAP3 SLOAD SWAP3 MLOAD SWAP1 SWAP3 SWAP1 SWAP2 AND SWAP1 PUSH32 0xC6CB12D0B66E0DF5E922CB9D0BA47BED97EDBFB3044631D430D1F6C3F4876C2C SWAP1 PUSH2 0xF52 SWAP1 DUP7 SWAP1 DUP7 SWAP1 PUSH1 0x1 PUSH1 0x1 PUSH1 0x80 SHL SUB SWAP3 DUP4 AND DUP2 MSTORE SWAP2 AND PUSH1 0x20 DUP3 ADD MSTORE PUSH1 0x40 ADD SWAP1 JUMP JUMPDEST PUSH1 0x40 MLOAD DUP1 SWAP2 SUB SWAP1 LOG3 PUSH1 0x2 DUP1 SLOAD PUSH1 0x1 PUSH1 0x1 PUSH1 0x80 SHL SUB AND SWAP1 PUSH0 PUSH2 0xF72 DUP4 PUSH2 0x1DE0 JUMP JUMPDEST SWAP2 SWAP1 PUSH2 0x100 EXP DUP2 SLOAD DUP2 PUSH1 0x1 PUSH1 0x1 PUSH1 0x80 SHL SUB MUL NOT AND SWAP1 DUP4 PUSH1 0x1 PUSH1 0x1 PUSH1 0x80 SHL SUB AND MUL OR SWAP1 SSTORE POP POP POP POP POP POP POP JUMP JUMPDEST CALLER PUSH0 SWAP1 DUP2 MSTORE PUSH1 0x20 DUP2 SWAP1 MSTORE PUSH1 0x40 DUP2 KECCAK256 SLOAD PUSH1 0xFF AND PUSH1 0x2 DUP2 GT ISZERO PUSH2 0xFC1 JUMPI PUSH2 0xFC1 PUSH2 0x17BD JUMP JUMPDEST EQ PUSH2 0xFFB JUMPI PUSH1 0x40 MLOAD PUSH3 0x461BCD PUSH1 0xE5 SHL DUP2 MSTORE PUSH1 0x20 PUSH1 0x4 DUP3 ADD MSTORE PUSH1 0xA PUSH1 0x24 DUP3 ADD MSTORE PUSH10 0x27B7363C9030B236B4B7 PUSH1 0xB1 SHL PUSH1 0x44 DUP3 ADD MSTORE PUSH1 0x64 ADD PUSH2 0x6C4 JUMP JUMPDEST PUSH1 0x1 PUSH1 0x1 PUSH1 0xA0 SHL SUB SWAP2 SWAP1 SWAP2 AND PUSH0 SWAP1 DUP2 MSTORE PUSH1 0x20 DUP2 DUP2 MSTORE PUSH1 0x40 DUP1 DUP4 KECCAK256 DUP1 SLOAD PUSH1 0x1 PUSH1 0xFF NOT SWAP1 SWAP2 AND DUP2 OR SWAP1 SWAP2 SSTORE SWAP1 SWAP2 MSTORE SWAP1 KECCAK256 DUP1 SLOAD PUSH1 0x1 PUSH1 0x1 PUSH1 0x80 SHL SUB NOT AND PUSH1 0x1 PUSH1 0x1 PUSH1 0x80 SHL SUB SWAP1 SWAP3 AND SWAP2 SWAP1 SWAP2 OR SWAP1 SSTORE JUMP JUMPDEST CALLER PUSH0 SWAP1 DUP2 MSTORE PUSH1 0x20 DUP2 SWAP1 MSTORE PUSH1 0x40 DUP2 KECCAK256 SLOAD PUSH1 0xFF AND PUSH1 0x2 DUP2 GT ISZERO PUSH2 0x106B JUMPI PUSH2 0x106B PUSH2 0x17BD JUMP JUMPDEST EQ PUSH2 0x10A5 JUMPI PUSH1 0x40 MLOAD PUSH3 0x461BCD PUSH1 0xE5 SHL DUP2 MSTORE PUSH1 0x20 PUSH1 0x4 DUP3 ADD MSTORE PUSH1 0xA PUSH1 0x24 DUP3 ADD MSTORE PUSH10 0x27B7363C9030B236B4B7 PUSH1 0xB1 SHL PUSH1 0x44 DUP3 ADD MSTORE PUSH1 0x64 ADD PUSH2 0x6C4 JUMP JUMPDEST PUSH1 0x1 PUSH1 0x1 PUSH1 0xA0 SHL SUB DUP2 AND PUSH0 SWAP1 DUP2 MSTORE PUSH1 0x1 PUSH1 0x20 DUP2 DUP2 MSTORE PUSH1 0x40 DUP1 DUP5 KECCAK256 DUP1 SLOAD PUSH1 0x1 PUSH1 0x1 PUSH1 0x80 SHL SUB NOT AND SWAP1 SSTORE SWAP1 DUP4 SWAP1 MSTORE SWAP1 SWAP2 KECCAK256 DUP1 SLOAD PUSH1 0x2 SWAP3 PUSH1 0xFF NOT SWAP1 SWAP2 AND SWAP1 DUP4 JUMPDEST MUL OR SWAP1 SSTORE POP POP JUMP JUMPDEST PUSH1 0x2 CALLER PUSH0 SWAP1 DUP2 MSTORE PUSH1 0x20 DUP2 SWAP1 MSTORE PUSH1 0x40 SWAP1 KECCAK256 SLOAD PUSH1 0xFF AND PUSH1 0x2 DUP2 GT ISZERO PUSH2 0x110F JUMPI PUSH2 0x110F PUSH2 0x17BD JUMP JUMPDEST EQ DUP1 PUSH2 0x113D JUMPI POP PUSH1 0x1 CALLER PUSH0 SWAP1 DUP2 MSTORE PUSH1 0x20 DUP2 SWAP1 MSTORE PUSH1 0x40 SWAP1 KECCAK256 SLOAD PUSH1 0xFF AND PUSH1 0x2 DUP2 GT ISZERO PUSH2 0x113B JUMPI PUSH2 0x113B PUSH2 0x17BD JUMP JUMPDEST EQ JUMPDEST PUSH2 0x1179 JUMPI PUSH1 0x40 MLOAD PUSH3 0x461BCD PUSH1 0xE5 SHL DUP2 MSTORE PUSH1 0x20 PUSH1 0x4 DUP3 ADD MSTORE PUSH1 0xD PUSH1 0x24 DUP3 ADD MSTORE PUSH13 0x27B7363C9031BAB9BA37B6B2B9 PUSH1 0x99 SHL PUSH1 0x44 DUP3 ADD MSTORE PUSH1 0x64 ADD PUSH2 0x6C4 JUMP JUMPDEST PUSH1 0x1 PUSH1 0x1 PUSH1 0x80 SHL SUB DUP1 DUP3 AND PUSH0 SWAP1 DUP2 MSTORE PUSH1 0x3 PUSH1 0x20 DUP2 DUP2 MSTORE PUSH1 0x40 DUP1 DUP5 KECCAK256 DUP2 MLOAD PUSH2 0x120 DUP2 ADD DUP4 MSTORE DUP2 SLOAD DUP8 AND DUP2 MSTORE PUSH1 0x1 DUP3 ADD SLOAD PUSH1 0x1 PUSH1 0x1 PUSH1 0xA0 SHL SUB AND DUP2 DUP6 ADD MSTORE PUSH1 0x2 DUP3 ADD SLOAD SWAP1 SWAP7 AND DUP7 DUP4 ADD MSTORE SWAP3 DUP4 ADD DUP1 SLOAD DUP3 MLOAD DUP2 DUP6 MUL DUP2 ADD DUP6 ADD SWAP1 SWAP4 MSTORE DUP1 DUP4 MSTORE SWAP5 SWAP6 SWAP5 PUSH1 0x60 DUP7 ADD SWAP4 DUP4 ADD DUP3 DUP3 DUP1 ISZERO PUSH2 0x123B JUMPI PUSH1 0x20 MUL DUP3 ADD SWAP2 SWAP1 PUSH0 MSTORE PUSH1 0x20 PUSH0 KECCAK256 SWAP1 PUSH0 SWAP1 JUMPDEST DUP3 DUP3 SWAP1 SLOAD SWAP1 PUSH2 0x100 EXP SWAP1 DIV PUSH1 0x1 PUSH1 0x1 PUSH1 0x80 SHL SUB AND PUSH1 0x1 PUSH1 0x1 PUSH1 0x80 SHL SUB AND DUP2 MSTORE PUSH1 0x20 ADD SWAP1 PUSH1 0x10 ADD SWAP1 PUSH1 0x20 DUP3 PUSH1 0xF ADD DIV SWAP3 DUP4 ADD SWAP3 PUSH1 0x1 SUB DUP3 MUL SWAP2 POP DUP1 DUP5 GT PUSH2 0x11F8 JUMPI SWAP1 POP JUMPDEST POP POP POP POP POP DUP2 MSTORE PUSH1 0x20 ADD PUSH1 0x4 DUP3 ADD DUP1 SLOAD DUP1 PUSH1 0x20 MUL PUSH1 0x20 ADD PUSH1 0x40 MLOAD SWAP1 DUP2 ADD PUSH1 0x40 MSTORE DUP1 SWAP3 SWAP2 SWAP1 DUP2 DUP2 MSTORE PUSH1 0x20 ADD DUP3 DUP1 SLOAD DUP1 ISZERO PUSH2 0x12C2 JUMPI PUSH1 0x20 MUL DUP3 ADD SWAP2 SWAP1 PUSH0 MSTORE PUSH1 0x20 PUSH0 KECCAK256 SWAP1 PUSH0 SWAP1 JUMPDEST DUP3 DUP3 SWAP1 SLOAD SWAP1 PUSH2 0x100 EXP SWAP1 DIV PUSH1 0x1 PUSH1 0x1 PUSH1 0x80 SHL SUB AND PUSH1 0x1 PUSH1 0x1 PUSH1 0x80 SHL SUB AND DUP2 MSTORE PUSH1 0x20 ADD SWAP1 PUSH1 0x10 ADD SWAP1 PUSH1 0x20 DUP3 PUSH1 0xF ADD DIV SWAP3 DUP4 ADD SWAP3 PUSH1 0x1 SUB DUP3 MUL SWAP2 POP DUP1 DUP5 GT PUSH2 0x127F JUMPI SWAP1 POP JUMPDEST POP POP POP SWAP2 DUP4 MSTORE POP POP PUSH1 0x5 DUP3 DUP2 ADD SLOAD PUSH1 0x1 PUSH1 0x1 PUSH1 0x80 SHL SUB DUP2 AND PUSH1 0x20 DUP5 ADD MSTORE PUSH1 0x40 SWAP1 SWAP3 ADD SWAP2 PUSH1 0x1 PUSH1 0x80 SHL SWAP1 DIV PUSH1 0xFF AND SWAP1 DUP2 GT ISZERO PUSH2 0x12FF JUMPI PUSH2 0x12FF PUSH2 0x17BD JUMP JUMPDEST PUSH1 0x5 DUP2 GT ISZERO PUSH2 0x1310 JUMPI PUSH2 0x1310 PUSH2 0x17BD JUMP JUMPDEST DUP2 MSTORE PUSH1 0x6 SWAP2 SWAP1 SWAP2 ADD SLOAD PUSH1 0x1 PUSH1 0x1 PUSH1 0x80 SHL SUB DUP1 DUP3 AND PUSH1 0x20 DUP1 DUP6 ADD SWAP2 SWAP1 SWAP2 MSTORE PUSH1 0x1 PUSH1 0x80 SHL SWAP1 SWAP3 DIV AND PUSH1 0x40 SWAP1 SWAP3 ADD SWAP2 SWAP1 SWAP2 MSTORE DUP2 ADD MLOAD SWAP1 SWAP2 POP PUSH1 0x1 PUSH1 0x1 PUSH1 0xA0 SHL SUB AND CALLER EQ PUSH2 0x138D JUMPI PUSH1 0x40 MLOAD PUSH3 0x461BCD PUSH1 0xE5 SHL DUP2 MSTORE PUSH1 0x20 PUSH1 0x4 DUP3 ADD MSTORE PUSH1 0xE PUSH1 0x24 DUP3 ADD MSTORE PUSH14 0x2737BA103CB7BAB91037B93232B9 PUSH1 0x91 SHL PUSH1 0x44 DUP3 ADD MSTORE PUSH1 0x64 ADD PUSH2 0x6C4 JUMP JUMPDEST PUSH0 DUP2 PUSH1 0xC0 ADD MLOAD PUSH1 0x5 DUP2 GT ISZERO PUSH2 0x13A4 JUMPI PUSH2 0x13A4 PUSH2 0x17BD JUMP JUMPDEST EQ PUSH2 0x13E1 JUMPI PUSH1 0x40 MLOAD PUSH3 0x461BCD PUSH1 0xE5 SHL DUP2 MSTORE PUSH1 0x20 PUSH1 0x4 DUP3 ADD MSTORE PUSH1 0xD PUSH1 0x24 DUP3 ADD MSTORE PUSH13 0x10D85B9B9BDD0818D85B98D95B PUSH1 0x9A SHL PUSH1 0x44 DUP3 ADD MSTORE PUSH1 0x64 ADD PUSH2 0x6C4 JUMP JUMPDEST POP PUSH1 0x1 PUSH1 0x1 PUSH1 0x80 SHL SUB AND PUSH0 SWAP1 DUP2 MSTORE PUSH1 0x3 PUSH1 0x20 MSTORE PUSH1 0x40 SWAP1 KECCAK256 PUSH1 0x5 ADD DUP1 SLOAD PUSH1 0xFF PUSH1 0x80 SHL NOT AND PUSH1 0x1 PUSH1 0x82 SHL OR SWAP1 SSTORE JUMP JUMPDEST PUSH1 0x1 PUSH1 0x1 PUSH1 0x80 SHL SUB DUP1 DUP4 AND PUSH0 SWAP1 DUP2 MSTORE PUSH1 0x3 PUSH1 0x20 SWAP1 DUP2 MSTORE PUSH1 0x40 DUP1 DUP4 KECCAK256 PUSH1 0x2 ADD SLOAD CALLER DUP5 MSTORE PUSH1 0x1 SWAP1 SWAP3 MSTORE SWAP1 SWAP2 KECCAK256 SLOAD SWAP1 DUP3 AND SWAP2 AND DUP2 EQ PUSH2 0x148C JUMPI PUSH1 0x40 MLOAD PUSH3 0x461BCD PUSH1 0xE5 SHL DUP2 MSTORE PUSH1 0x20 PUSH1 0x4 DUP3 ADD MSTORE PUSH1 0x1D PUSH1 0x24 DUP3 ADD MSTORE PUSH32 0x4F6E6C79207374616666206F6620746869732072657374617572616E74000000 PUSH1 0x44 DUP3 ADD MSTORE PUSH1 0x64 ADD PUSH2 0x6C4 JUMP JUMPDEST PUSH1 0x1 PUSH1 0x1 PUSH1 0x80 SHL SUB DUP4 AND PUSH0 SWAP1 DUP2 MSTORE PUSH1 0x3 PUSH1 0x20 MSTORE PUSH1 0x40 SWAP1 KECCAK256 PUSH1 0x5 SWAP1 DUP2 ADD DUP1 SLOAD DUP5 SWAP3 PUSH1 0xFF PUSH1 0x80 SHL NOT SWAP1 SWAP2 AND SWAP1 PUSH1 0x1 PUSH1 0x80 SHL SWAP1 DUP5 SWAP1 DUP2 GT ISZERO PUSH2 0x911 JUMPI PUSH2 0x911 PUSH2 0x17BD JUMP JUMPDEST PUSH2 0x14D5 PUSH2 0x156A JUMP JUMPDEST PUSH1 0x1 PUSH1 0x1 PUSH1 0xA0 SHL SUB DUP2 AND PUSH2 0x14FE JUMPI PUSH1 0x40 MLOAD PUSH4 0x1E4FBDF7 PUSH1 0xE0 SHL DUP2 MSTORE PUSH0 PUSH1 0x4 DUP3 ADD MSTORE PUSH1 0x24 ADD PUSH2 0x6C4 JUMP JUMPDEST PUSH2 0x1507 DUP2 PUSH2 0x15C5 JUMP JUMPDEST POP JUMP JUMPDEST PUSH0 DUP1 PUSH32 0xF0C57E16840DF040F15088DC2F81FE391C3923BEC73E23A9662EFC9C229C6A00 JUMPDEST SWAP3 SWAP2 POP POP JUMP JUMPDEST PUSH2 0x153C PUSH2 0x1635 JUMP JUMPDEST PUSH2 0x1507 DUP2 PUSH2 0x165A JUMP JUMPDEST PUSH1 0x1 PUSH1 0x1 PUSH1 0xA0 SHL SUB DUP2 AND PUSH0 SWAP1 DUP2 MSTORE PUSH1 0x20 DUP2 SWAP1 MSTORE PUSH1 0x40 DUP2 KECCAK256 DUP1 SLOAD PUSH1 0xFF NOT AND PUSH1 0x1 DUP4 PUSH2 0x10E2 JUMP JUMPDEST CALLER PUSH2 0x159C PUSH32 0x9016D09D72D40FDAE2FD8CEAC6B6234C7706214FD39C1CD1E609A0528C199300 SLOAD PUSH1 0x1 PUSH1 0x1 PUSH1 0xA0 SHL SUB AND SWAP1 JUMP JUMPDEST PUSH1 0x1 PUSH1 0x1 PUSH1 0xA0 SHL SUB AND EQ PUSH2 0xA5D JUMPI PUSH1 0x40 MLOAD PUSH4 0x118CDAA7 PUSH1 0xE0 SHL DUP2 MSTORE CALLER PUSH1 0x4 DUP3 ADD MSTORE PUSH1 0x24 ADD PUSH2 0x6C4 JUMP JUMPDEST PUSH32 0x9016D09D72D40FDAE2FD8CEAC6B6234C7706214FD39C1CD1E609A0528C199300 DUP1 SLOAD PUSH1 0x1 PUSH1 0x1 PUSH1 0xA0 SHL SUB NOT DUP2 AND PUSH1 0x1 PUSH1 0x1 PUSH1 0xA0 SHL SUB DUP5 DUP2 AND SWAP2 DUP3 OR DUP5 SSTORE PUSH1 0x40 MLOAD SWAP3 AND SWAP2 DUP3 SWAP1 PUSH32 0x8BE0079C531659141344CD1FD0A4F28419497F9722A3DAAFE3B4186F6B6457E0 SWAP1 PUSH0 SWAP1 LOG3 POP POP POP JUMP JUMPDEST PUSH2 0x163D PUSH2 0x1662 JUMP JUMPDEST PUSH2 0xA5D JUMPI PUSH1 0x40 MLOAD PUSH4 0x1AFCD79F PUSH1 0xE3 SHL DUP2 MSTORE PUSH1 0x4 ADD PUSH1 0x40 MLOAD DUP1 SWAP2 SUB SWAP1 REVERT JUMPDEST PUSH2 0x14D5 PUSH2 0x1635 JUMP JUMPDEST PUSH0 PUSH2 0x166B PUSH2 0x150A JUMP JUMPDEST SLOAD PUSH1 0x1 PUSH1 0x40 SHL SWAP1 DIV PUSH1 0xFF AND SWAP2 SWAP1 POP JUMP JUMPDEST DUP3 DUP1 SLOAD DUP3 DUP3 SSTORE SWAP1 PUSH0 MSTORE PUSH1 0x20 PUSH0 KECCAK256 SWAP1 PUSH1 0x1 ADD PUSH1 0x2 SWAP1 DIV DUP2 ADD SWAP3 DUP3 ISZERO PUSH2 0x1720 JUMPI SWAP2 PUSH1 0x20 MUL DUP3 ADD PUSH0 JUMPDEST DUP4 DUP3 GT ISZERO PUSH2 0x16EB JUMPI DUP4 MLOAD DUP4 DUP3 PUSH2 0x100 EXP DUP2 SLOAD DUP2 PUSH1 0x1 PUSH1 0x1 PUSH1 0x80 SHL SUB MUL NOT AND SWAP1 DUP4 PUSH1 0x1 PUSH1 0x1 PUSH1 0x80 SHL SUB AND MUL OR SWAP1 SSTORE POP SWAP3 PUSH1 0x20 ADD SWAP3 PUSH1 0x10 ADD PUSH1 0x20 DUP2 PUSH1 0xF ADD DIV SWAP3 DUP4 ADD SWAP3 PUSH1 0x1 SUB MUL PUSH2 0x16A1 JUMP JUMPDEST DUP1 ISZERO PUSH2 0x171E JUMPI DUP3 DUP2 PUSH2 0x100 EXP DUP2 SLOAD SWAP1 PUSH1 0x1 PUSH1 0x1 PUSH1 0x80 SHL SUB MUL NOT AND SWAP1 SSTORE PUSH1 0x10 ADD PUSH1 0x20 DUP2 PUSH1 0xF ADD DIV SWAP3 DUP4 ADD SWAP3 PUSH1 0x1 SUB MUL PUSH2 0x16EB JUMP JUMPDEST POP JUMPDEST POP PUSH2 0x172C SWAP3 SWAP2 POP PUSH2 0x1730 JUMP JUMPDEST POP SWAP1 JUMP JUMPDEST JUMPDEST DUP1 DUP3 GT ISZERO PUSH2 0x172C JUMPI PUSH0 DUP2 SSTORE PUSH1 0x1 ADD PUSH2 0x1731 JUMP JUMPDEST PUSH1 0x1 PUSH1 0x1 PUSH1 0x80 SHL SUB DUP2 AND DUP2 EQ PUSH2 0x1507 JUMPI PUSH0 PUSH0 REVERT JUMPDEST PUSH0 PUSH1 0x20 DUP3 DUP5 SUB SLT ISZERO PUSH2 0x1768 JUMPI PUSH0 PUSH0 REVERT JUMPDEST DUP2 CALLDATALOAD PUSH2 0x1773 DUP2 PUSH2 0x1744 JUMP JUMPDEST SWAP4 SWAP3 POP POP POP JUMP JUMPDEST PUSH0 DUP2 MLOAD DUP1 DUP5 MSTORE PUSH1 0x20 DUP5 ADD SWAP4 POP PUSH1 0x20 DUP4 ADD PUSH0 JUMPDEST DUP3 DUP2 LT ISZERO PUSH2 0x17B3 JUMPI DUP2 MLOAD PUSH1 0x1 PUSH1 0x1 PUSH1 0x80 SHL SUB AND DUP7 MSTORE PUSH1 0x20 SWAP6 DUP7 ADD SWAP6 SWAP1 SWAP2 ADD SWAP1 PUSH1 0x1 ADD PUSH2 0x178C JUMP JUMPDEST POP SWAP4 SWAP5 SWAP4 POP POP POP POP JUMP JUMPDEST PUSH4 0x4E487B71 PUSH1 0xE0 SHL PUSH0 MSTORE PUSH1 0x21 PUSH1 0x4 MSTORE PUSH1 0x24 PUSH0 REVERT JUMPDEST PUSH1 0x6 DUP2 LT PUSH2 0x17E1 JUMPI PUSH2 0x17E1 PUSH2 0x17BD JUMP JUMPDEST SWAP1 MSTORE JUMP JUMPDEST PUSH1 0x20 DUP2 MSTORE PUSH2 0x17FF PUSH1 0x20 DUP3 ADD DUP4 MLOAD PUSH1 0x1 PUSH1 0x1 PUSH1 0x80 SHL SUB AND SWAP1 MSTORE JUMP JUMPDEST PUSH0 PUSH1 0x20 DUP4 ADD MLOAD PUSH2 0x181A PUSH1 0x40 DUP5 ADD DUP3 PUSH1 0x1 PUSH1 0x1 PUSH1 0xA0 SHL SUB AND SWAP1 MSTORE JUMP JUMPDEST POP PUSH1 0x40 DUP4 ADD MLOAD PUSH1 0x1 PUSH1 0x1 PUSH1 0x80 SHL SUB DUP2 AND PUSH1 0x60 DUP5 ADD MSTORE POP PUSH1 0x60 DUP4 ADD MLOAD PUSH2 0x120 PUSH1 0x80 DUP5 ADD MSTORE PUSH2 0x184B PUSH2 0x140 DUP5 ADD DUP3 PUSH2 0x177A JUMP JUMPDEST SWAP1 POP PUSH1 0x80 DUP5 ADD MLOAD PUSH1 0x1F NOT DUP5 DUP4 SUB ADD PUSH1 0xA0 DUP6 ADD MSTORE PUSH2 0x1868 DUP3 DUP3 PUSH2 0x177A JUMP JUMPDEST SWAP2 POP POP PUSH1 0xA0 DUP5 ADD MLOAD PUSH2 0x1885 PUSH1 0xC0 DUP6 ADD DUP3 PUSH1 0x1 PUSH1 0x1 PUSH1 0x80 SHL SUB AND SWAP1 MSTORE JUMP JUMPDEST POP PUSH1 0xC0 DUP5 ADD MLOAD PUSH2 0x1898 PUSH1 0xE0 DUP6 ADD DUP3 PUSH2 0x17D1 JUMP JUMPDEST POP PUSH1 0xE0 DUP5 ADD MLOAD PUSH1 0x1 PUSH1 0x1 PUSH1 0x80 SHL SUB DUP2 AND PUSH2 0x100 DUP6 ADD MSTORE POP PUSH2 0x100 DUP5 ADD MLOAD PUSH1 0x1 PUSH1 0x1 PUSH1 0x80 SHL SUB DUP2 AND PUSH2 0x120 DUP6 ADD MSTORE POP SWAP4 SWAP3 POP POP POP JUMP JUMPDEST DUP1 CALLDATALOAD PUSH1 0x1 PUSH1 0x1 PUSH1 0xA0 SHL SUB DUP2 AND DUP2 EQ PUSH2 0x18E3 JUMPI PUSH0 PUSH0 REVERT JUMPDEST SWAP2 SWAP1 POP JUMP JUMPDEST PUSH0 PUSH0 PUSH1 0x40 DUP4 DUP6 SUB SLT ISZERO PUSH2 0x18F9 JUMPI PUSH0 PUSH0 REVERT JUMPDEST PUSH2 0x1902 DUP4 PUSH2 0x18CD JUMP JUMPDEST SWAP5 PUSH1 0x20 SWAP4 SWAP1 SWAP4 ADD CALLDATALOAD SWAP4 POP POP POP JUMP JUMPDEST PUSH0 PUSH1 0x20 DUP3 DUP5 SUB SLT ISZERO PUSH2 0x1920 JUMPI PUSH0 PUSH0 REVERT JUMPDEST PUSH2 0x1773 DUP3 PUSH2 0x18CD JUMP JUMPDEST PUSH0 PUSH0 PUSH1 0x40 DUP4 DUP6 SUB SLT ISZERO PUSH2 0x193A JUMPI PUSH0 PUSH0 REVERT JUMPDEST PUSH2 0x1943 DUP4 PUSH2 0x18CD JUMP JUMPDEST SWAP2 POP PUSH2 0x1951 PUSH1 0x20 DUP5 ADD PUSH2 0x18CD JUMP JUMPDEST SWAP1 POP SWAP3 POP SWAP3 SWAP1 POP JUMP JUMPDEST PUSH4 0x4E487B71 PUSH1 0xE0 SHL PUSH0 MSTORE PUSH1 0x41 PUSH1 0x4 MSTORE PUSH1 0x24 PUSH0 REVERT JUMPDEST PUSH1 0x40 MLOAD PUSH2 0x140 DUP2 ADD PUSH8 0xFFFFFFFFFFFFFFFF DUP2 GT DUP3 DUP3 LT OR ISZERO PUSH2 0x1992 JUMPI PUSH2 0x1992 PUSH2 0x195A JUMP JUMPDEST PUSH1 0x40 MSTORE SWAP1 JUMP JUMPDEST PUSH1 0x40 MLOAD PUSH1 0x1F DUP3 ADD PUSH1 0x1F NOT AND DUP2 ADD PUSH8 0xFFFFFFFFFFFFFFFF DUP2 GT DUP3 DUP3 LT OR ISZERO PUSH2 0x19C1 JUMPI PUSH2 0x19C1 PUSH2 0x195A JUMP JUMPDEST PUSH1 0x40 MSTORE SWAP2 SWAP1 POP JUMP JUMPDEST PUSH0 DUP3 PUSH1 0x1F DUP4 ADD SLT PUSH2 0x19D8 JUMPI PUSH0 PUSH0 REVERT JUMPDEST DUP2 CALLDATALOAD PUSH8 0xFFFFFFFFFFFFFFFF DUP2 GT ISZERO PUSH2 0x19F2 JUMPI PUSH2 0x19F2 PUSH2 0x195A JUMP JUMPDEST DUP1 PUSH1 0x5 SHL PUSH2 0x1A02 PUSH1 0x20 DUP3 ADD PUSH2 0x1998 JUMP JUMPDEST SWAP2 DUP3 MSTORE PUSH1 0x20 DUP2 DUP6 ADD DUP2 ADD SWAP3 SWAP1 DUP2 ADD SWAP1 DUP7 DUP5 GT ISZERO PUSH2 0x1A1D JUMPI PUSH0 PUSH0 REVERT JUMPDEST PUSH1 0x20 DUP7 ADD SWAP3 POP JUMPDEST DUP4 DUP4 LT ISZERO PUSH2 0x1A48 JUMPI DUP3 CALLDATALOAD PUSH2 0x1A37 DUP2 PUSH2 0x1744 JUMP JUMPDEST DUP3 MSTORE PUSH1 0x20 SWAP3 DUP4 ADD SWAP3 SWAP1 SWAP2 ADD SWAP1 PUSH2 0x1A24 JUMP JUMPDEST SWAP7 SWAP6 POP POP POP POP POP POP JUMP JUMPDEST PUSH0 PUSH0 PUSH0 PUSH1 0x60 DUP5 DUP7 SUB SLT ISZERO PUSH2 0x1A64 JUMPI PUSH0 PUSH0 REVERT JUMPDEST DUP4 CALLDATALOAD PUSH2 0x1A6F DUP2 PUSH2 0x1744 JUMP JUMPDEST SWAP3 POP PUSH1 0x20 DUP5 ADD CALLDATALOAD PUSH8 0xFFFFFFFFFFFFFFFF DUP2 GT ISZERO PUSH2 0x1A8A JUMPI PUSH0 PUSH0 REVERT JUMPDEST PUSH2 0x1A96 DUP7 DUP3 DUP8 ADD PUSH2 0x19C9 JUMP JUMPDEST SWAP3 POP POP PUSH1 0x40 DUP5 ADD CALLDATALOAD PUSH8 0xFFFFFFFFFFFFFFFF DUP2 GT ISZERO PUSH2 0x1AB2 JUMPI PUSH0 PUSH0 REVERT JUMPDEST PUSH2 0x1ABE DUP7 DUP3 DUP8 ADD PUSH2 0x19C9 JUMP JUMPDEST SWAP2 POP POP SWAP3 POP SWAP3 POP SWAP3 JUMP JUMPDEST PUSH1 0x20 DUP2 ADD PUSH1 0x3 DUP4 LT PUSH2 0x1ADC JUMPI PUSH2 0x1ADC PUSH2 0x17BD JUMP JUMPDEST SWAP2 SWAP1 MSTORE SWAP1 JUMP JUMPDEST PUSH0 PUSH0 PUSH1 0x40 DUP4 DUP6 SUB SLT ISZERO PUSH2 0x1AF3 JUMPI PUSH0 PUSH0 REVERT JUMPDEST PUSH2 0x1AFC DUP4 PUSH2 0x18CD JUMP JUMPDEST SWAP2 POP PUSH1 0x20 DUP4 ADD CALLDATALOAD PUSH2 0x1B0C DUP2 PUSH2 0x1744 JUMP JUMPDEST DUP1 SWAP2 POP POP SWAP3 POP SWAP3 SWAP1 POP JUMP JUMPDEST PUSH0 PUSH0 PUSH1 0x40 DUP4 DUP6 SUB SLT ISZERO PUSH2 0x1B28 JUMPI PUSH0 PUSH0 REVERT JUMPDEST DUP3 CALLDATALOAD PUSH2 0x1B33 DUP2 PUSH2 0x1744 JUMP JUMPDEST SWAP2 POP PUSH1 0x20 DUP4 ADD CALLDATALOAD PUSH1 0x6 DUP2 LT PUSH2 0x1B0C JUMPI PUSH0 PUSH0 REVERT JUMPDEST PUSH1 0x1 PUSH1 0x1 PUSH1 0x80 SHL SUB DUP9 DUP2 AND DUP3 MSTORE PUSH1 0x1 PUSH1 0x1 PUSH1 0xA0 SHL SUB DUP9 AND PUSH1 0x20 DUP4 ADD MSTORE DUP7 DUP2 AND PUSH1 0x40 DUP4 ADD MSTORE DUP6 AND PUSH1 0x60 DUP3 ADD MSTORE PUSH1 0xE0 DUP2 ADD PUSH2 0x1B82 PUSH1 0x80 DUP4 ADD DUP7 PUSH2 0x17D1 JUMP JUMPDEST PUSH1 0x1 PUSH1 0x1 PUSH1 0x80 SHL SUB DUP5 AND PUSH1 0xA0 DUP4 ADD MSTORE PUSH1 0x1 PUSH1 0x1 PUSH1 0x80 SHL SUB DUP4 AND PUSH1 0xC0 DUP4 ADD MSTORE SWAP9 SWAP8 POP POP POP POP POP POP POP POP JUMP JUMPDEST PUSH4 0x4E487B71 PUSH1 0xE0 SHL PUSH0 MSTORE PUSH1 0x32 PUSH1 0x4 MSTORE PUSH1 0x24 PUSH0 REVERT JUMPDEST DUP1 MLOAD PUSH2 0x18E3 DUP2 PUSH2 0x1744 JUMP JUMPDEST PUSH0 DUP3 PUSH1 0x1F DUP4 ADD SLT PUSH2 0x1BDA JUMPI PUSH0 PUSH0 REVERT JUMPDEST DUP2 MLOAD PUSH8 0xFFFFFFFFFFFFFFFF DUP2 GT ISZERO PUSH2 0x1BF4 JUMPI PUSH2 0x1BF4 PUSH2 0x195A JUMP JUMPDEST PUSH2 0x1C07 PUSH1 0x1F DUP3 ADD PUSH1 0x1F NOT AND PUSH1 0x20 ADD PUSH2 0x1998 JUMP JUMPDEST DUP2 DUP2 MSTORE DUP5 PUSH1 0x20 DUP4 DUP7 ADD ADD GT ISZERO PUSH2 0x1C1B JUMPI PUSH0 PUSH0 REVERT JUMPDEST DUP2 PUSH1 0x20 DUP6 ADD PUSH1 0x20 DUP4 ADD MCOPY PUSH0 SWAP2 DUP2 ADD PUSH1 0x20 ADD SWAP2 SWAP1 SWAP2 MSTORE SWAP4 SWAP3 POP POP POP JUMP JUMPDEST DUP1 MLOAD DUP1 ISZERO ISZERO DUP2 EQ PUSH2 0x18E3 JUMPI PUSH0 PUSH0 REVERT JUMPDEST PUSH0 PUSH1 0x20 DUP3 DUP5 SUB SLT ISZERO PUSH2 0x1C56 JUMPI PUSH0 PUSH0 REVERT JUMPDEST DUP2 MLOAD PUSH8 0xFFFFFFFFFFFFFFFF DUP2 GT ISZERO PUSH2 0x1C6C JUMPI PUSH0 PUSH0 REVERT JUMPDEST DUP3 ADD PUSH2 0x140 DUP2 DUP6 SUB SLT ISZERO PUSH2 0x1C7E JUMPI PUSH0 PUSH0 REVERT JUMPDEST PUSH2 0x1C86 PUSH2 0x196E JUMP JUMPDEST PUSH2 0x1C8F DUP3 PUSH2 0x1BC0 JUMP JUMPDEST DUP2 MSTORE PUSH2 0x1C9D PUSH1 0x20 DUP4 ADD PUSH2 0x1BC0 JUMP JUMPDEST PUSH1 0x20 DUP3 ADD MSTORE PUSH1 0x40 DUP3 ADD MLOAD PUSH8 0xFFFFFFFFFFFFFFFF DUP2 GT ISZERO PUSH2 0x1CBB JUMPI PUSH0 PUSH0 REVERT JUMPDEST PUSH2 0x1CC7 DUP7 DUP3 DUP6 ADD PUSH2 0x1BCB JUMP JUMPDEST PUSH1 0x40 DUP4 ADD MSTORE POP PUSH2 0x1CD9 PUSH1 0x60 DUP4 ADD PUSH2 0x1BC0 JUMP JUMPDEST PUSH1 0x60 DUP3 ADD MSTORE PUSH2 0x1CEA PUSH1 0x80 DUP4 ADD PUSH2 0x1C37 JUMP JUMPDEST PUSH1 0x80 DUP3 ADD MSTORE PUSH1 0xA0 DUP3 ADD MLOAD PUSH8 0xFFFFFFFFFFFFFFFF DUP2 GT ISZERO PUSH2 0x1D08 JUMPI PUSH0 PUSH0 REVERT JUMPDEST PUSH2 0x1D14 DUP7 DUP3 DUP6 ADD PUSH2 0x1BCB JUMP JUMPDEST PUSH1 0xA0 DUP4 ADD MSTORE POP PUSH1 0xC0 DUP3 ADD MLOAD PUSH8 0xFFFFFFFFFFFFFFFF DUP2 GT ISZERO PUSH2 0x1D33 JUMPI PUSH0 PUSH0 REVERT JUMPDEST PUSH2 0x1D3F DUP7 DUP3 DUP6 ADD PUSH2 0x1BCB JUMP JUMPDEST PUSH1 0xC0 DUP4 ADD MSTORE POP PUSH2 0x1D51 PUSH1 0xE0 DUP4 ADD PUSH2 0x1BC0 JUMP JUMPDEST PUSH1 0xE0 DUP3 ADD MSTORE PUSH2 0x1D63 PUSH2 0x100 DUP4 ADD PUSH2 0x1BC0 JUMP JUMPDEST PUSH2 0x100 DUP3 ADD MSTORE PUSH2 0x1D76 PUSH2 0x120 DUP4 ADD PUSH2 0x1BC0 JUMP JUMPDEST PUSH2 0x120 DUP3 ADD MSTORE SWAP5 SWAP4 POP POP POP POP JUMP JUMPDEST PUSH4 0x4E487B71 PUSH1 0xE0 SHL PUSH0 MSTORE PUSH1 0x11 PUSH1 0x4 MSTORE PUSH1 0x24 PUSH0 REVERT JUMPDEST PUSH1 0x1 PUSH1 0x1 PUSH1 0x80 SHL SUB DUP2 DUP2 AND DUP4 DUP3 AND MUL SWAP1 DUP2 AND SWAP1 DUP2 DUP2 EQ PUSH2 0x1DBA JUMPI PUSH2 0x1DBA PUSH2 0x1D84 JUMP JUMPDEST POP SWAP3 SWAP2 POP POP JUMP JUMPDEST PUSH1 0x1 PUSH1 0x1 PUSH1 0x80 SHL SUB DUP2 DUP2 AND DUP4 DUP3 AND ADD SWAP1 DUP2 GT ISZERO PUSH2 0x152E JUMPI PUSH2 0x152E PUSH2 0x1D84 JUMP JUMPDEST PUSH0 PUSH1 0x1 PUSH1 0x1 PUSH1 0x80 SHL SUB DUP3 AND PUSH1 0x1 PUSH1 0x1 PUSH1 0x80 SHL SUB DUP2 SUB PUSH2 0x1E01 JUMPI PUSH2 0x1E01 PUSH2 0x1D84 JUMP JUMPDEST PUSH1 0x1 ADD SWAP3 SWAP2 POP POP JUMP INVALID LOG2 PUSH5 0x6970667358 0x22 SLT KECCAK256 0x24 LOG4 JUMPDEST 0xCA 0xE2 PUSH11 0x3A84CFDEF0909774873BCB NOT PUSH6 0xC2D6EF6E94C4 TSTORE DUP8 PUSH13 0xE371BC8A64736F6C634300081E STOP CALLER "
				},
				"gasEstimates": {
					"creation": {
						"codeDepositCost": "1548800",
						"executionCost": "1615",
						"totalCost": "1550415"
					},
					"external": {
						"assignStaff(address,uint128)": "51362",
						"cancelOrder(uint128)": "infinite",
						"completeOrder(uint128)": "infinite",
						"customerOrders(address,uint256)": "6483",
						"getOrder(uint128)": "infinite",
						"initialize(address,address)": "infinite",
						"menuManager()": "2403",
						"nextOrderId()": "2404",
						"orders(uint128)": "11498",
						"owner()": "2353",
						"placeOrder(uint128,uint128[],uint128[])": "infinite",
						"removeStaff(address)": "51175",
						"renounceOwnership()": "infinite",
						"roles(address)": "2639",
						"staffRestaurants(address)": "2645",
						"transferOwnership(address)": "28453",
						"updateOrderStatus(uint128,uint8)": "29217"
					}
				},
				"methodIdentifiers": {
					"assignStaff(address,uint128)": "ae9a4655",
					"cancelOrder(uint128)": "dbc91396",
					"completeOrder(uint128)": "388f20a8",
					"customerOrders(address,uint256)": "1600c6cd",
					"getOrder(uint128)": "117d4128",
					"initialize(address,address)": "485cc955",
					"menuManager()": "5059e95b",
					"nextOrderId()": "2a58b330",
					"orders(uint128)": "ff8ddee3",
					"owner()": "8da5cb5b",
					"placeOrder(uint128,uint128[],uint128[])": "98d88075",
					"removeStaff(address)": "c4522c92",
					"renounceOwnership()": "715018a6",
					"roles(address)": "99374642",
					"staffRestaurants(address)": "2d3238fe",
					"transferOwnership(address)": "f2fde38b",
					"updateOrderStatus(uint128,uint8)": "ddb0c22f"
				}
			},
			"storageLayout": {
				"storage": [
					{
						"astId": 516,
						"contract": "contracts/OrderManager.sol:OrderManager",
						"label": "roles",
						"offset": 0,
						"slot": "0",
						"type": "t_mapping(t_address,t_enum(Role)1286)"
					},
					{
						"astId": 520,
						"contract": "contracts/OrderManager.sol:OrderManager",
						"label": "staffRestaurants",
						"offset": 0,
						"slot": "1",
						"type": "t_mapping(t_address,t_uint128)"
					},
					{
						"astId": 869,
						"contract": "contracts/OrderManager.sol:OrderManager",
						"label": "nextOrderId",
						"offset": 0,
						"slot": "2",
						"type": "t_uint128"
					},
					{
						"astId": 874,
						"contract": "contracts/OrderManager.sol:OrderManager",
						"label": "orders",
						"offset": 0,
						"slot": "3",
						"type": "t_mapping(t_uint128,t_struct(Order)1336_storage)"
					},
					{
						"astId": 879,
						"contract": "contracts/OrderManager.sol:OrderManager",
						"label": "customerOrders",
						"offset": 0,
						"slot": "4",
						"type": "t_mapping(t_address,t_array(t_uint128)dyn_storage)"
					},
					{
						"astId": 882,
						"contract": "contracts/OrderManager.sol:OrderManager",
						"label": "menuManager",
						"offset": 0,
						"slot": "5",
						"type": "t_contract(MenuManager)854"
					}
				],
				"types": {
					"t_address": {
						"encoding": "inplace",
						"label": "address",
						"numberOfBytes": "20"
					},
					"t_array(t_uint128)dyn_storage": {
						"base": "t_uint128",
						"encoding": "dynamic_array",
						"label": "uint128[]",
						"numberOfBytes": "32"
					},
					"t_contract(MenuManager)854": {
						"encoding": "inplace",
						"label": "contract MenuManager",
						"numberOfBytes": "20"
					},
					"t_enum(OrderStatus)1293": {
						"encoding": "inplace",
						"label": "enum OrderStatus",
						"numberOfBytes": "1"
					},
					"t_enum(Role)1286": {
						"encoding": "inplace",
						"label": "enum Role",
						"numberOfBytes": "1"
					},
					"t_mapping(t_address,t_array(t_uint128)dyn_storage)": {
						"encoding": "mapping",
						"key": "t_address",
						"label": "mapping(address => uint128[])",
						"numberOfBytes": "32",
						"value": "t_array(t_uint128)dyn_storage"
					},
					"t_mapping(t_address,t_enum(Role)1286)": {
						"encoding": "mapping",
						"key": "t_address",
						"label": "mapping(address => enum Role)",
						"numberOfBytes": "32",
						"value": "t_enum(Role)1286"
					},
					"t_mapping(t_address,t_uint128)": {
						"encoding": "mapping",
						"key": "t_address",
						"label": "mapping(address => uint128)",
						"numberOfBytes": "32",
						"value": "t_uint128"
					},
					"t_mapping(t_uint128,t_struct(Order)1336_storage)": {
						"encoding": "mapping",
						"key": "t_uint128",
						"label": "mapping(uint128 => struct Order)",
						"numberOfBytes": "32",
						"value": "t_struct(Order)1336_storage"
					},
					"t_struct(Order)1336_storage": {
						"encoding": "inplace",
						"label": "struct Order",
						"members": [
							{
								"astId": 1316,
								"contract": "contracts/OrderManager.sol:OrderManager",
								"label": "id",
								"offset": 0,
								"slot": "0",
								"type": "t_uint128"
							},
							{
								"astId": 1318,
								"contract": "contracts/OrderManager.sol:OrderManager",
								"label": "customer",
								"offset": 0,
								"slot": "1",
								"type": "t_address"
							},
							{
								"astId": 1320,
								"contract": "contracts/OrderManager.sol:OrderManager",
								"label": "restaurantId",
								"offset": 0,
								"slot": "2",
								"type": "t_uint128"
							},
							{
								"astId": 1323,
								"contract": "contracts/OrderManager.sol:OrderManager",
								"label": "itemIds",
								"offset": 0,
								"slot": "3",
								"type": "t_array(t_uint128)dyn_storage"
							},
							{
								"astId": 1326,
								"contract": "contracts/OrderManager.sol:OrderManager",
								"label": "quantities",
								"offset": 0,
								"slot": "4",
								"type": "t_array(t_uint128)dyn_storage"
							},
							{
								"astId": 1328,
								"contract": "contracts/OrderManager.sol:OrderManager",
								"label": "totalPrice",
								"offset": 0,
								"slot": "5",
								"type": "t_uint128"
							},
							{
								"astId": 1331,
								"contract": "contracts/OrderManager.sol:OrderManager",
								"label": "status",
								"offset": 16,
								"slot": "5",
								"type": "t_enum(OrderStatus)1293"
							},
							{
								"astId": 1333,
								"contract": "contracts/OrderManager.sol:OrderManager",
								"label": "timestamp",
								"offset": 0,
								"slot": "6",
								"type": "t_uint128"
							},
							{
								"astId": 1335,
								"contract": "contracts/OrderManager.sol:OrderManager",
								"label": "preparationTime",
								"offset": 16,
								"slot": "6",
								"type": "t_uint128"
							}
						],
						"numberOfBytes": "224"
					},
					"t_uint128": {
						"encoding": "inplace",
						"label": "uint128",
						"numberOfBytes": "16"
					}
				}
			},
			"userdoc": {
				"kind": "user",
				"methods": {},
				"version": 1
			}
		}
	}
}