{
	"contracts/ReviewManager.sol": {
		"ReviewManager": {
			"abi": [
				{
					"inputs": [],
					"name": "InvalidInitialization",
					"type": "error"
				},
				{
					"inputs": [],
					"name": "NotInitializing",
					"type": "error"
				},
				{
					"inputs": [
						{
							"internalType": "address",
							"name": "owner",
							"type": "address"
						}
					],
					"name": "OwnableInvalidOwner",
					"type": "error"
				},
				{
					"inputs": [
						{
							"internalType": "address",
							"name": "account",
							"type": "address"
						}
					],
					"name": "OwnableUnauthorizedAccount",
					"type": "error"
				},
				{
					"anonymous": false,
					"inputs": [
						{
							"indexed": false,
							"internalType": "uint64",
							"name": "version",
							"type": "uint64"
						}
					],
					"name": "Initialized",
					"type": "event"
				},
				{
					"anonymous": false,
					"inputs": [
						{
							"indexed": true,
							"internalType": "address",
							"name": "previousOwner",
							"type": "address"
						},
						{
							"indexed": true,
							"internalType": "address",
							"name": "newOwner",
							"type": "address"
						}
					],
					"name": "OwnershipTransferred",
					"type": "event"
				},
				{
					"anonymous": false,
					"inputs": [
						{
							"indexed": true,
							"internalType": "uint128",
							"name": "restaurantId",
							"type": "uint128"
						},
						{
							"indexed": true,
							"internalType": "address",
							"name": "customer",
							"type": "address"
						},
						{
							"indexed": false,
							"internalType": "uint8",
							"name": "rating",
							"type": "uint8"
						},
						{
							"indexed": false,
							"internalType": "string",
							"name": "comment",
							"type": "string"
						}
					],
					"name": "RestaurantRated",
					"type": "event"
				},
				{
					"inputs": [
						{
							"internalType": "address",
							"name": "staff",
							"type": "address"
						},
						{
							"internalType": "uint128",
							"name": "restaurantId",
							"type": "uint128"
						}
					],
					"name": "assignStaff",
					"outputs": [],
					"stateMutability": "nonpayable",
					"type": "function"
				},
				{
					"inputs": [
						{
							"internalType": "uint128",
							"name": "restaurantId",
							"type": "uint128"
						}
					],
					"name": "getReviews",
					"outputs": [
						{
							"components": [
								{
									"internalType": "address",
									"name": "customer",
									"type": "address"
								},
								{
									"internalType": "uint128",
									"name": "restaurantId",
									"type": "uint128"
								},
								{
									"internalType": "uint8",
									"name": "rating",
									"type": "uint8"
								},
								{
									"internalType": "string",
									"name": "comment",
									"type": "string"
								},
								{
									"internalType": "uint128",
									"name": "timestamp",
									"type": "uint128"
								}
							],
							"internalType": "struct Review[]",
							"name": "",
							"type": "tuple[]"
						}
					],
					"stateMutability": "view",
					"type": "function"
				},
				{
					"inputs": [
						{
							"internalType": "address",
							"name": "admin",
							"type": "address"
						}
					],
					"name": "initialize",
					"outputs": [],
					"stateMutability": "nonpayable",
					"type": "function"
				},
				{
					"inputs": [],
					"name": "owner",
					"outputs": [
						{
							"internalType": "address",
							"name": "",
							"type": "address"
						}
					],
					"stateMutability": "view",
					"type": "function"
				},
				{
					"inputs": [
						{
							"internalType": "uint128",
							"name": "restaurantId",
							"type": "uint128"
						},
						{
							"internalType": "uint8",
							"name": "rating",
							"type": "uint8"
						},
						{
							"internalType": "string",
							"name": "comment",
							"type": "string"
						}
					],
					"name": "rateRestaurant",
					"outputs": [],
					"stateMutability": "nonpayable",
					"type": "function"
				},
				{
					"inputs": [
						{
							"internalType": "address",
							"name": "staff",
							"type": "address"
						}
					],
					"name": "removeStaff",
					"outputs": [],
					"stateMutability": "nonpayable",
					"type": "function"
				},
				{
					"inputs": [],
					"name": "renounceOwnership",
					"outputs": [],
					"stateMutability": "nonpayable",
					"type": "function"
				},
				{
					"inputs": [
						{
							"internalType": "uint128",
							"name": "",
							"type": "uint128"
						},
						{
							"internalType": "uint256",
							"name": "",
							"type": "uint256"
						}
					],
					"name": "restaurantReviews",
					"outputs": [
						{
							"internalType": "address",
							"name": "customer",
							"type": "address"
						},
						{
							"internalType": "uint128",
							"name": "restaurantId",
							"type": "uint128"
						},
						{
							"internalType": "uint8",
							"name": "rating",
							"type": "uint8"
						},
						{
							"internalType": "string",
							"name": "comment",
							"type": "string"
						},
						{
							"internalType": "uint128",
							"name": "timestamp",
							"type": "uint128"
						}
					],
					"stateMutability": "view",
					"type": "function"
				},
				{
					"inputs": [
						{
							"internalType": "address",
							"name": "",
							"type": "address"
						}
					],
					"name": "roles",
					"outputs": [
						{
							"internalType": "enum Role",
							"name": "",
							"type": "uint8"
						}
					],
					"stateMutability": "view",
					"type": "function"
				},
				{
					"inputs": [
						{
							"internalType": "address",
							"name": "",
							"type": "address"
						}
					],
					"name": "staffRestaurants",
					"outputs": [
						{
							"internalType": "uint128",
							"name": "",
							"type": "uint128"
						}
					],
					"stateMutability": "view",
					"type": "function"
				},
				{
					"inputs": [
						{
							"internalType": "address",
							"name": "newOwner",
							"type": "address"
						}
					],
					"name": "transferOwnership",
					"outputs": [],
					"stateMutability": "nonpayable",
					"type": "function"
				}
			],
			"devdoc": {
				"errors": {
					"InvalidInitialization()": [
						{
							"details": "The contract is already initialized."
						}
					],
					"NotInitializing()": [
						{
							"details": "The contract is not initializing."
						}
					],
					"OwnableInvalidOwner(address)": [
						{
							"details": "The owner is not a valid owner account. (eg. `address(0)`)"
						}
					],
					"OwnableUnauthorizedAccount(address)": [
						{
							"details": "The caller account is not authorized to perform an operation."
						}
					]
				},
				"events": {
					"Initialized(uint64)": {
						"details": "Triggered when the contract has been initialized or reinitialized."
					}
				},
				"kind": "dev",
				"methods": {
					"owner()": {
						"details": "Returns the address of the current owner."
					},
					"renounceOwnership()": {
						"details": "Leaves the contract without owner. It will not be possible to call `onlyOwner` functions. Can only be called by the current owner. NOTE: Renouncing ownership will leave the contract without an owner, thereby disabling any functionality that is only available to the owner."
					},
					"transferOwnership(address)": {
						"details": "Transfers ownership of the contract to a new account (`newOwner`). Can only be called by the current owner."
					}
				},
				"version": 1
			},
			"evm": {
				"assembly": "    /* \"contracts/ReviewManager.sol\":256:1206  contract ReviewManager is OwnableUpgradeable, RoleAccess, IReviewManager {... */\n  mstore(0x40, 0x80)\n  callvalue\n  dup1\n  iszero\n  tag_1\n  jumpi\n  revert(0x00, 0x00)\ntag_1:\n  pop\n  dataSize(sub_0)\n  dup1\n  dataOffset(sub_0)\n  0x00\n  codecopy\n  0x00\n  return\nstop\n\nsub_0: assembly {\n        /* \"contracts/ReviewManager.sol\":256:1206  contract ReviewManager is OwnableUpgradeable, RoleAccess, IReviewManager {... */\n      mstore(0x40, 0x80)\n      callvalue\n      dup1\n      iszero\n      tag_1\n      jumpi\n      revert(0x00, 0x00)\n    tag_1:\n      pop\n      jumpi(tag_2, lt(calldatasize, 0x04))\n      shr(0xe0, calldataload(0x00))\n      dup1\n      0xae9a4655\n      gt\n      tag_14\n      jumpi\n      dup1\n      0xae9a4655\n      eq\n      tag_8\n      jumpi\n      dup1\n      0xbcc1367c\n      eq\n      tag_9\n      jumpi\n      dup1\n      0xc4522c92\n      eq\n      tag_10\n      jumpi\n      dup1\n      0xc4d66de8\n      eq\n      tag_11\n      jumpi\n      dup1\n      0xcf120a5b\n      eq\n      tag_12\n      jumpi\n      dup1\n      0xf2fde38b\n      eq\n      tag_13\n      jumpi\n      revert(0x00, 0x00)\n    tag_14:\n      dup1\n      0x2d3238fe\n      eq\n      tag_3\n      jumpi\n      dup1\n      0x515f72ce\n      eq\n      tag_4\n      jumpi\n      dup1\n      0x715018a6\n      eq\n      tag_5\n      jumpi\n      dup1\n      0x8da5cb5b\n      eq\n      tag_6\n      jumpi\n      dup1\n      0x99374642\n      eq\n      tag_7\n      jumpi\n    tag_2:\n      revert(0x00, 0x00)\n        /* \"access/RoleAccess.sol\":170:221  mapping(address => uint128) public staffRestaurants */\n    tag_3:\n      tag_15\n      tag_16\n      calldatasize\n      0x04\n      tag_17\n      jump\t// in\n    tag_16:\n      mstore(0x20, 0x01)\n      0x00\n      swap1\n      dup2\n      mstore\n      0x40\n      swap1\n      keccak256\n      sload\n      sub(shl(0x80, 0x01), 0x01)\n      and\n      dup2\n      jump\n    tag_15:\n      mload(0x40)\n      sub(shl(0x80, 0x01), 0x01)\n        /* \"#utility.yul\":547:594   */\n      swap1\n      swap2\n      and\n        /* \"#utility.yul\":529:595   */\n      dup2\n      mstore\n        /* \"#utility.yul\":517:519   */\n      0x20\n        /* \"#utility.yul\":502:520   */\n      add\n        /* \"access/RoleAccess.sol\":170:221  mapping(address => uint128) public staffRestaurants */\n    tag_19:\n      mload(0x40)\n      dup1\n      swap2\n      sub\n      swap1\n      return\n        /* \"contracts/ReviewManager.sol\":533:1047  function rateRestaurant(uint128 restaurantId, uint8 rating, string memory comment) external override onlyCustomer {... */\n    tag_4:\n      tag_21\n      tag_22\n      calldatasize\n      0x04\n      tag_23\n      jump\t// in\n    tag_22:\n      tag_24\n      jump\t// in\n    tag_21:\n      stop\n        /* \"@openzeppelin/contracts-upgradeable/access/OwnableUpgradeable.sol\":3155:3256  function renounceOwnership() public virtual onlyOwner {... */\n    tag_5:\n      tag_21\n      tag_26\n      jump\t// in\n        /* \"@openzeppelin/contracts-upgradeable/access/OwnableUpgradeable.sol\":2441:2585  function owner() public view virtual returns (address) {... */\n    tag_6:\n        /* \"@openzeppelin/contracts-upgradeable/access/OwnableUpgradeable.sol\":1313:1335  OwnableStorageLocation */\n      0x9016d09d72d40fdae2fd8ceac6b6234c7706214fd39c1cd1e609a0528c199300\n        /* \"@openzeppelin/contracts-upgradeable/access/OwnableUpgradeable.sol\":2570:2578  $._owner */\n      sload\n        /* \"@openzeppelin/contracts-upgradeable/access/OwnableUpgradeable.sol\":2441:2585  function owner() public view virtual returns (address) {... */\n      mload(0x40)\n      sub(shl(0xa0, 0x01), 0x01)\n        /* \"@openzeppelin/contracts-upgradeable/access/OwnableUpgradeable.sol\":2570:2578  $._owner */\n      swap1\n      swap2\n      and\n        /* \"#utility.yul\":2258:2309   */\n      dup2\n      mstore\n        /* \"#utility.yul\":2246:2248   */\n      0x20\n        /* \"#utility.yul\":2231:2249   */\n      add\n        /* \"@openzeppelin/contracts-upgradeable/access/OwnableUpgradeable.sol\":2441:2585  function owner() public view virtual returns (address) {... */\n      tag_19\n        /* \"#utility.yul\":2112:2315   */\n      jump\n        /* \"access/RoleAccess.sol\":126:163  mapping(address => Role) public roles */\n    tag_7:\n      tag_31\n      tag_32\n      calldatasize\n      0x04\n      tag_17\n      jump\t// in\n    tag_32:\n      0x00\n      0x20\n      dup2\n      swap1\n      mstore\n      swap1\n      dup2\n      mstore\n      0x40\n      swap1\n      keccak256\n      sload\n      0xff\n      and\n      dup2\n      jump\n    tag_31:\n      mload(0x40)\n      tag_19\n      swap2\n      swap1\n      tag_35\n      jump\t// in\n        /* \"access/RoleAccess.sol\":769:939  function assignStaff(address staff, uint128 restaurantId) external onlyAdmin {... */\n    tag_8:\n      tag_21\n      tag_37\n      calldatasize\n      0x04\n      tag_38\n      jump\t// in\n    tag_37:\n      tag_39\n      jump\t// in\n        /* \"contracts/ReviewManager.sol\":1055:1203  function getReviews(uint128 restaurantId) external view override returns (Review[] memory) {... */\n    tag_9:\n      tag_40\n      tag_41\n      calldatasize\n      0x04\n      tag_42\n      jump\t// in\n    tag_41:\n      tag_43\n      jump\t// in\n    tag_40:\n      mload(0x40)\n      tag_19\n      swap2\n      swap1\n      tag_45\n      jump\t// in\n        /* \"access/RoleAccess.sol\":947:1090  function removeStaff(address staff) external onlyAdmin {... */\n    tag_10:\n      tag_21\n      tag_47\n      calldatasize\n      0x04\n      tag_17\n      jump\t// in\n    tag_47:\n      tag_48\n      jump\t// in\n        /* \"contracts/ReviewManager.sol\":398:525  function initialize(address admin) public initializer {... */\n    tag_11:\n      tag_21\n      tag_50\n      calldatasize\n      0x04\n      tag_17\n      jump\t// in\n    tag_50:\n      tag_51\n      jump\t// in\n        /* \"contracts/ReviewManager.sol\":336:389  mapping(uint128 => Review[]) public restaurantReviews */\n    tag_12:\n      tag_52\n      tag_53\n      calldatasize\n      0x04\n      tag_54\n      jump\t// in\n    tag_53:\n      tag_55\n      jump\t// in\n    tag_52:\n      mload(0x40)\n      tag_19\n      swap6\n      swap5\n      swap4\n      swap3\n      swap2\n      swap1\n      tag_57\n      jump\t// in\n        /* \"@openzeppelin/contracts-upgradeable/access/OwnableUpgradeable.sol\":3405:3620  function transferOwnership(address newOwner) public virtual onlyOwner {... */\n    tag_13:\n      tag_21\n      tag_59\n      calldatasize\n      0x04\n      tag_17\n      jump\t// in\n    tag_59:\n      tag_60\n      jump\t// in\n        /* \"contracts/ReviewManager.sol\":533:1047  function rateRestaurant(uint128 restaurantId, uint8 rating, string memory comment) external override onlyCustomer {... */\n    tag_24:\n        /* \"access/RoleAccess.sol\":574:587  Role.Customer */\n      0x02\n        /* \"access/RoleAccess.sol\":559:569  msg.sender */\n      caller\n        /* \"access/RoleAccess.sol\":553:558  roles */\n      0x00\n        /* \"access/RoleAccess.sol\":553:570  roles[msg.sender] */\n      swap1\n      dup2\n      mstore\n      0x20\n      dup2\n      swap1\n      mstore\n      0x40\n      swap1\n      keccak256\n      sload\n      0xff\n      and\n        /* \"access/RoleAccess.sol\":553:587  roles[msg.sender] == Role.Customer */\n      0x02\n      dup2\n      gt\n      iszero\n      tag_66\n      jumpi\n      tag_66\n      tag_64\n      jump\t// in\n    tag_66:\n      eq\n        /* \"access/RoleAccess.sol\":553:622  roles[msg.sender] == Role.Customer || roles[msg.sender] == Role.Staff */\n      dup1\n      tag_67\n      jumpi\n      pop\n        /* \"access/RoleAccess.sol\":612:622  Role.Staff */\n      0x01\n        /* \"access/RoleAccess.sol\":597:607  msg.sender */\n      caller\n        /* \"access/RoleAccess.sol\":591:596  roles */\n      0x00\n        /* \"access/RoleAccess.sol\":591:608  roles[msg.sender] */\n      swap1\n      dup2\n      mstore\n      0x20\n      dup2\n      swap1\n      mstore\n      0x40\n      swap1\n      keccak256\n      sload\n      0xff\n      and\n        /* \"access/RoleAccess.sol\":591:622  roles[msg.sender] == Role.Staff */\n      0x02\n      dup2\n      gt\n      iszero\n      tag_71\n      jumpi\n      tag_71\n      tag_64\n      jump\t// in\n    tag_71:\n      eq\n        /* \"access/RoleAccess.sol\":553:622  roles[msg.sender] == Role.Customer || roles[msg.sender] == Role.Staff */\n    tag_67:\n        /* \"access/RoleAccess.sol\":545:640  require(roles[msg.sender] == Role.Customer || roles[msg.sender] == Role.Staff, \"Only customer\") */\n      tag_72\n      jumpi\n      mload(0x40)\n      shl(0xe5, 0x461bcd)\n      dup2\n      mstore\n        /* \"#utility.yul\":5949:5951   */\n      0x20\n        /* \"access/RoleAccess.sol\":545:640  require(roles[msg.sender] == Role.Customer || roles[msg.sender] == Role.Staff, \"Only customer\") */\n      0x04\n      dup3\n      add\n        /* \"#utility.yul\":5931:5952   */\n      mstore\n        /* \"#utility.yul\":5988:5990   */\n      0x0d\n        /* \"#utility.yul\":5968:5986   */\n      0x24\n      dup3\n      add\n        /* \"#utility.yul\":5961:5991   */\n      mstore\n      shl(0x99, 0x27b7363c9031bab9ba37b6b2b9)\n        /* \"#utility.yul\":6007:6025   */\n      0x44\n      dup3\n      add\n        /* \"#utility.yul\":6000:6043   */\n      mstore\n        /* \"#utility.yul\":6060:6078   */\n      0x64\n      add\n        /* \"access/RoleAccess.sol\":545:640  require(roles[msg.sender] == Role.Customer || roles[msg.sender] == Role.Staff, \"Only customer\") */\n    tag_73:\n      mload(0x40)\n      dup1\n      swap2\n      sub\n      swap1\n      revert\n    tag_72:\n        /* \"contracts/ReviewManager.sol\":676:677  1 */\n      0x01\n        /* \"contracts/ReviewManager.sol\":666:672  rating */\n      dup3\n        /* \"contracts/ReviewManager.sol\":666:677  rating >= 1 */\n      0xff\n      and\n      lt\n      iszero\n        /* \"contracts/ReviewManager.sol\":666:692  rating >= 1 && rating <= 5 */\n      dup1\n      iszero\n      tag_76\n      jumpi\n      pop\n        /* \"contracts/ReviewManager.sol\":691:692  5 */\n      0x05\n        /* \"contracts/ReviewManager.sol\":681:687  rating */\n      dup3\n        /* \"contracts/ReviewManager.sol\":681:692  rating <= 5 */\n      0xff\n      and\n      gt\n      iszero\n        /* \"contracts/ReviewManager.sol\":666:692  rating >= 1 && rating <= 5 */\n    tag_76:\n        /* \"contracts/ReviewManager.sol\":658:711  require(rating >= 1 && rating <= 5, \"Invalid rating\") */\n      tag_77\n      jumpi\n      mload(0x40)\n      shl(0xe5, 0x461bcd)\n      dup2\n      mstore\n        /* \"#utility.yul\":6291:6293   */\n      0x20\n        /* \"contracts/ReviewManager.sol\":658:711  require(rating >= 1 && rating <= 5, \"Invalid rating\") */\n      0x04\n      dup3\n      add\n        /* \"#utility.yul\":6273:6294   */\n      mstore\n        /* \"#utility.yul\":6330:6332   */\n      0x0e\n        /* \"#utility.yul\":6310:6328   */\n      0x24\n      dup3\n      add\n        /* \"#utility.yul\":6303:6333   */\n      mstore\n      shl(0x90, 0x496e76616c696420726174696e67)\n        /* \"#utility.yul\":6349:6367   */\n      0x44\n      dup3\n      add\n        /* \"#utility.yul\":6342:6386   */\n      mstore\n        /* \"#utility.yul\":6403:6421   */\n      0x64\n      add\n        /* \"contracts/ReviewManager.sol\":658:711  require(rating >= 1 && rating <= 5, \"Invalid rating\") */\n      tag_73\n        /* \"#utility.yul\":6089:6427   */\n      jump\n        /* \"contracts/ReviewManager.sol\":658:711  require(rating >= 1 && rating <= 5, \"Invalid rating\") */\n    tag_77:\n      sub(shl(0x80, 0x01), 0x01)\n        /* \"contracts/ReviewManager.sol\":722:753  restaurantReviews[restaurantId] */\n      dup1\n      dup5\n      and\n      0x00\n      dup2\n      dup2\n      mstore\n        /* \"contracts/ReviewManager.sol\":722:739  restaurantReviews */\n      0x02\n        /* \"contracts/ReviewManager.sol\":722:753  restaurantReviews[restaurantId] */\n      0x20\n      dup2\n      dup2\n      mstore\n      0x40\n      dup1\n      dup5\n      keccak256\n        /* \"contracts/ReviewManager.sol\":759:964  Review({... */\n      dup2\n      mload\n      0xa0\n      dup2\n      add\n      dup4\n      mstore\n        /* \"contracts/ReviewManager.sol\":791:801  msg.sender */\n      caller\n        /* \"contracts/ReviewManager.sol\":759:964  Review({... */\n      dup2\n      mstore\n      dup1\n      dup5\n      add\n      swap7\n      dup8\n      mstore\n      0xff\n      dup1\n      dup12\n      and\n      swap4\n      dup3\n      add\n      swap4\n      dup5\n      mstore\n      0x60\n      dup3\n      add\n      dup11\n      dup2\n      mstore\n        /* \"contracts/ReviewManager.sol\":936:951  block.timestamp */\n      timestamp\n        /* \"contracts/ReviewManager.sol\":759:964  Review({... */\n      dup11\n      and\n      0x80\n      dup5\n      add\n      mstore\n        /* \"contracts/ReviewManager.sol\":722:965  restaurantReviews[restaurantId].push(Review({... */\n      dup4\n      sload\n      0x01\n      dup2\n      dup2\n      add\n      dup7\n      sstore\n      swap5\n      dup10\n      mstore\n      swap6\n      swap1\n      swap8\n      keccak256\n      dup3\n      mload\n      0x04\n      swap1\n      swap7\n      mul\n      add\n      dup1\n      sload\n      sub(shl(0xa0, 0x01), 0x01)\n      swap7\n      swap1\n      swap7\n      and\n      not(sub(shl(0xa0, 0x01), 0x01))\n      swap1\n      swap7\n      and\n      swap6\n      swap1\n      swap6\n      or\n      dup6\n      sstore\n      swap7\n      mload\n      swap2\n      dup5\n      add\n      dup1\n      sload\n      swap4\n      mload\n      swap1\n      swap8\n      and\n      shl(0x80, 0x01)\n      mul\n      not(0xffffffffffffffffffffffffffffffffff)\n      swap1\n      swap4\n      and\n      swap2\n      swap1\n      swap8\n      and\n      or\n      or\n      swap1\n      swap4\n      sstore\n      swap1\n      mload\n      swap1\n      dup3\n      add\n      swap1\n      tag_81\n      swap1\n      dup3\n      tag_82\n      jump\t// in\n    tag_81:\n      pop\n      0x80\n      swap2\n      swap1\n      swap2\n      add\n      mload\n      0x03\n      swap1\n      swap2\n      add\n      dup1\n      sload\n      not(sub(shl(0x80, 0x01), 0x01))\n      and\n      sub(shl(0x80, 0x01), 0x01)\n      swap3\n      dup4\n      and\n      or\n      swap1\n      sstore\n        /* \"contracts/ReviewManager.sol\":981:1039  RestaurantRated(restaurantId, msg.sender, rating, comment) */\n      mload(0x40)\n        /* \"contracts/ReviewManager.sol\":1011:1021  msg.sender */\n      caller\n      swap2\n        /* \"contracts/ReviewManager.sol\":981:1039  RestaurantRated(restaurantId, msg.sender, rating, comment) */\n      dup6\n      and\n      swap1\n      0x8da348b329ec9cb5f933f377db6d8d5e57e2d8c1f3ba6f02ca2b1f147120da6a\n      swap1\n      tag_83\n      swap1\n        /* \"contracts/ReviewManager.sol\":1023:1029  rating */\n      dup7\n      swap1\n        /* \"contracts/ReviewManager.sol\":1031:1038  comment */\n      dup7\n      swap1\n        /* \"contracts/ReviewManager.sol\":981:1039  RestaurantRated(restaurantId, msg.sender, rating, comment) */\n      tag_84\n      jump\t// in\n    tag_83:\n      mload(0x40)\n      dup1\n      swap2\n      sub\n      swap1\n      log3\n        /* \"contracts/ReviewManager.sol\":533:1047  function rateRestaurant(uint128 restaurantId, uint8 rating, string memory comment) external override onlyCustomer {... */\n      pop\n      pop\n      pop\n      jump\t// out\n        /* \"@openzeppelin/contracts-upgradeable/access/OwnableUpgradeable.sol\":3155:3256  function renounceOwnership() public virtual onlyOwner {... */\n    tag_26:\n        /* \"@openzeppelin/contracts-upgradeable/access/OwnableUpgradeable.sol\":2334:2347  _checkOwner() */\n      tag_86\n        /* \"@openzeppelin/contracts-upgradeable/access/OwnableUpgradeable.sol\":2334:2345  _checkOwner */\n      tag_87\n        /* \"@openzeppelin/contracts-upgradeable/access/OwnableUpgradeable.sol\":2334:2347  _checkOwner() */\n      jump\t// in\n    tag_86:\n        /* \"@openzeppelin/contracts-upgradeable/access/OwnableUpgradeable.sol\":3219:3249  _transferOwnership(address(0)) */\n      tag_89\n        /* \"@openzeppelin/contracts-upgradeable/access/OwnableUpgradeable.sol\":3246:3247  0 */\n      0x00\n        /* \"@openzeppelin/contracts-upgradeable/access/OwnableUpgradeable.sol\":3219:3237  _transferOwnership */\n      tag_90\n        /* \"@openzeppelin/contracts-upgradeable/access/OwnableUpgradeable.sol\":3219:3249  _transferOwnership(address(0)) */\n      jump\t// in\n    tag_89:\n        /* \"@openzeppelin/contracts-upgradeable/access/OwnableUpgradeable.sol\":3155:3256  function renounceOwnership() public virtual onlyOwner {... */\n      jump\t// out\n        /* \"access/RoleAccess.sol\":769:939  function assignStaff(address staff, uint128 restaurantId) external onlyAdmin {... */\n    tag_39:\n        /* \"access/RoleAccess.sol\":276:286  msg.sender */\n      caller\n        /* \"access/RoleAccess.sol\":291:301  Role.Admin */\n      0x00\n        /* \"access/RoleAccess.sol\":270:287  roles[msg.sender] */\n      swap1\n      dup2\n      mstore\n      0x20\n      dup2\n      swap1\n      mstore\n      0x40\n      dup2\n      keccak256\n      sload\n      0xff\n      and\n        /* \"access/RoleAccess.sol\":270:301  roles[msg.sender] == Role.Admin */\n      0x02\n      dup2\n      gt\n      iszero\n      tag_98\n      jumpi\n      tag_98\n      tag_64\n      jump\t// in\n    tag_98:\n      eq\n        /* \"access/RoleAccess.sol\":262:316  require(roles[msg.sender] == Role.Admin, \"Only admin\") */\n      tag_99\n      jumpi\n      mload(0x40)\n      shl(0xe5, 0x461bcd)\n      dup2\n      mstore\n        /* \"#utility.yul\":9446:9448   */\n      0x20\n        /* \"access/RoleAccess.sol\":262:316  require(roles[msg.sender] == Role.Admin, \"Only admin\") */\n      0x04\n      dup3\n      add\n        /* \"#utility.yul\":9428:9449   */\n      mstore\n        /* \"#utility.yul\":9485:9487   */\n      0x0a\n        /* \"#utility.yul\":9465:9483   */\n      0x24\n      dup3\n      add\n        /* \"#utility.yul\":9458:9488   */\n      mstore\n      shl(0xb1, 0x27b7363c9030b236b4b7)\n        /* \"#utility.yul\":9504:9522   */\n      0x44\n      dup3\n      add\n        /* \"#utility.yul\":9497:9537   */\n      mstore\n        /* \"#utility.yul\":9554:9572   */\n      0x64\n      add\n        /* \"access/RoleAccess.sol\":262:316  require(roles[msg.sender] == Role.Admin, \"Only admin\") */\n      tag_73\n        /* \"#utility.yul\":9244:9578   */\n      jump\n        /* \"access/RoleAccess.sol\":262:316  require(roles[msg.sender] == Role.Admin, \"Only admin\") */\n    tag_99:\n      sub(shl(0xa0, 0x01), 0x01)\n        /* \"access/RoleAccess.sol\":857:869  roles[staff] */\n      swap2\n      swap1\n      swap2\n      and\n        /* \"access/RoleAccess.sol\":857:862  roles */\n      0x00\n        /* \"access/RoleAccess.sol\":857:869  roles[staff] */\n      swap1\n      dup2\n      mstore\n      0x20\n      dup2\n      dup2\n      mstore\n      0x40\n      dup1\n      dup4\n      keccak256\n        /* \"access/RoleAccess.sol\":857:882  roles[staff] = Role.Staff */\n      dup1\n      sload\n        /* \"access/RoleAccess.sol\":872:882  Role.Staff */\n      0x01\n      not(0xff)\n        /* \"access/RoleAccess.sol\":857:882  roles[staff] = Role.Staff */\n      swap1\n      swap2\n      and\n      dup2\n      or\n      swap1\n      swap2\n      sstore\n        /* \"access/RoleAccess.sol\":893:916  staffRestaurants[staff] */\n      swap1\n      swap2\n      mstore\n      swap1\n      keccak256\n        /* \"access/RoleAccess.sol\":893:931  staffRestaurants[staff] = restaurantId */\n      dup1\n      sload\n      not(sub(shl(0x80, 0x01), 0x01))\n      and\n      sub(shl(0x80, 0x01), 0x01)\n      swap1\n      swap3\n      and\n      swap2\n      swap1\n      swap2\n      or\n      swap1\n      sstore\n        /* \"access/RoleAccess.sol\":769:939  function assignStaff(address staff, uint128 restaurantId) external onlyAdmin {... */\n      jump\t// out\n        /* \"contracts/ReviewManager.sol\":1055:1203  function getReviews(uint128 restaurantId) external view override returns (Review[] memory) {... */\n    tag_43:\n      sub(shl(0x80, 0x01), 0x01)\n        /* \"contracts/ReviewManager.sol\":1164:1195  restaurantReviews[restaurantId] */\n      dup2\n      and\n      0x00\n      swap1\n      dup2\n      mstore\n        /* \"contracts/ReviewManager.sol\":1164:1181  restaurantReviews */\n      0x02\n        /* \"contracts/ReviewManager.sol\":1164:1195  restaurantReviews[restaurantId] */\n      0x20\n      swap1\n      dup2\n      mstore\n      0x40\n      dup1\n      dup4\n      keccak256\n        /* \"contracts/ReviewManager.sol\":1157:1195  return restaurantReviews[restaurantId] */\n      dup1\n      sload\n      dup3\n      mload\n      dup2\n      dup6\n      mul\n      dup2\n      add\n      dup6\n      add\n      swap1\n      swap4\n      mstore\n      dup1\n      dup4\n      mstore\n        /* \"contracts/ReviewManager.sol\":1129:1144  Review[] memory */\n      0x60\n      swap5\n        /* \"contracts/ReviewManager.sol\":1157:1195  return restaurantReviews[restaurantId] */\n      swap3\n      swap4\n        /* \"contracts/ReviewManager.sol\":1164:1195  restaurantReviews[restaurantId] */\n      swap2\n      swap3\n        /* \"contracts/ReviewManager.sol\":1157:1195  return restaurantReviews[restaurantId] */\n      swap1\n      swap2\n      dup5\n      add\n    tag_106:\n      dup3\n      dup3\n      lt\n      iszero\n      tag_107\n      jumpi\n      0x00\n      dup5\n      dup2\n      mstore\n      0x20\n      swap1\n      dup2\n      swap1\n      keccak256\n      0x40\n      dup1\n      mload\n      0xa0\n      dup2\n      add\n      dup3\n      mstore\n      0x04\n      dup7\n      mul\n      swap1\n      swap3\n      add\n      dup1\n      sload\n      sub(shl(0xa0, 0x01), 0x01)\n      and\n      dup4\n      mstore\n      0x01\n      dup2\n      add\n      sload\n      sub(shl(0x80, 0x01), 0x01)\n      dup2\n      and\n      swap5\n      dup5\n      add\n      swap5\n      swap1\n      swap5\n      mstore\n      shl(0x80, 0x01)\n      swap1\n      swap4\n      div\n      0xff\n      and\n      swap1\n      dup3\n      add\n      mstore\n      0x02\n      dup3\n      add\n      dup1\n      sload\n      swap2\n      swap3\n      swap2\n      0x60\n      dup5\n      add\n      swap2\n      swap1\n      tag_109\n      swap1\n      tag_110\n      jump\t// in\n    tag_109:\n      dup1\n      0x1f\n      add\n      0x20\n      dup1\n      swap2\n      div\n      mul\n      0x20\n      add\n      mload(0x40)\n      swap1\n      dup2\n      add\n      0x40\n      mstore\n      dup1\n      swap3\n      swap2\n      swap1\n      dup2\n      dup2\n      mstore\n      0x20\n      add\n      dup3\n      dup1\n      sload\n      tag_111\n      swap1\n      tag_110\n      jump\t// in\n    tag_111:\n      dup1\n      iszero\n      tag_112\n      jumpi\n      dup1\n      0x1f\n      lt\n      tag_113\n      jumpi\n      0x0100\n      dup1\n      dup4\n      sload\n      div\n      mul\n      dup4\n      mstore\n      swap2\n      0x20\n      add\n      swap2\n      jump(tag_112)\n    tag_113:\n      dup3\n      add\n      swap2\n      swap1\n      0x00\n      mstore\n      keccak256(0x00, 0x20)\n      swap1\n    tag_114:\n      dup2\n      sload\n      dup2\n      mstore\n      swap1\n      0x01\n      add\n      swap1\n      0x20\n      add\n      dup1\n      dup4\n      gt\n      tag_114\n      jumpi\n      dup3\n      swap1\n      sub\n      0x1f\n      and\n      dup3\n      add\n      swap2\n    tag_112:\n      pop\n      pop\n      pop\n      swap2\n      dup4\n      mstore\n      pop\n      pop\n      0x03\n      swap2\n      swap1\n      swap2\n      add\n      sload\n      sub(shl(0x80, 0x01), 0x01)\n      and\n      0x20\n      swap2\n      dup3\n      add\n      mstore\n      swap1\n      dup3\n      mstore\n      0x01\n      swap3\n      swap1\n      swap3\n      add\n      swap2\n      add\n      jump(tag_106)\n    tag_107:\n      pop\n      pop\n      pop\n      pop\n      swap1\n      pop\n        /* \"contracts/ReviewManager.sol\":1055:1203  function getReviews(uint128 restaurantId) external view override returns (Review[] memory) {... */\n      swap2\n      swap1\n      pop\n      jump\t// out\n        /* \"access/RoleAccess.sol\":947:1090  function removeStaff(address staff) external onlyAdmin {... */\n    tag_48:\n        /* \"access/RoleAccess.sol\":276:286  msg.sender */\n      caller\n        /* \"access/RoleAccess.sol\":291:301  Role.Admin */\n      0x00\n        /* \"access/RoleAccess.sol\":270:287  roles[msg.sender] */\n      swap1\n      dup2\n      mstore\n      0x20\n      dup2\n      swap1\n      mstore\n      0x40\n      dup2\n      keccak256\n      sload\n      0xff\n      and\n        /* \"access/RoleAccess.sol\":270:301  roles[msg.sender] == Role.Admin */\n      0x02\n      dup2\n      gt\n      iszero\n      tag_119\n      jumpi\n      tag_119\n      tag_64\n      jump\t// in\n    tag_119:\n      eq\n        /* \"access/RoleAccess.sol\":262:316  require(roles[msg.sender] == Role.Admin, \"Only admin\") */\n      tag_120\n      jumpi\n      mload(0x40)\n      shl(0xe5, 0x461bcd)\n      dup2\n      mstore\n        /* \"#utility.yul\":9446:9448   */\n      0x20\n        /* \"access/RoleAccess.sol\":262:316  require(roles[msg.sender] == Role.Admin, \"Only admin\") */\n      0x04\n      dup3\n      add\n        /* \"#utility.yul\":9428:9449   */\n      mstore\n        /* \"#utility.yul\":9485:9487   */\n      0x0a\n        /* \"#utility.yul\":9465:9483   */\n      0x24\n      dup3\n      add\n        /* \"#utility.yul\":9458:9488   */\n      mstore\n      shl(0xb1, 0x27b7363c9030b236b4b7)\n        /* \"#utility.yul\":9504:9522   */\n      0x44\n      dup3\n      add\n        /* \"#utility.yul\":9497:9537   */\n      mstore\n        /* \"#utility.yul\":9554:9572   */\n      0x64\n      add\n        /* \"access/RoleAccess.sol\":262:316  require(roles[msg.sender] == Role.Admin, \"Only admin\") */\n      tag_73\n        /* \"#utility.yul\":9244:9578   */\n      jump\n        /* \"access/RoleAccess.sol\":262:316  require(roles[msg.sender] == Role.Admin, \"Only admin\") */\n    tag_120:\n      sub(shl(0xa0, 0x01), 0x01)\n        /* \"access/RoleAccess.sol\":1020:1043  staffRestaurants[staff] */\n      dup2\n      and\n      0x00\n      swap1\n      dup2\n      mstore\n        /* \"access/RoleAccess.sol\":1020:1036  staffRestaurants */\n      0x01\n        /* \"access/RoleAccess.sol\":1020:1043  staffRestaurants[staff] */\n      0x20\n      dup2\n      dup2\n      mstore\n      0x40\n      dup1\n      dup5\n      keccak256\n        /* \"access/RoleAccess.sol\":1013:1043  delete staffRestaurants[staff] */\n      dup1\n      sload\n      not(sub(shl(0x80, 0x01), 0x01))\n      and\n      swap1\n      sstore\n        /* \"access/RoleAccess.sol\":1054:1066  roles[staff] */\n      swap1\n      dup4\n      swap1\n      mstore\n      swap1\n      swap2\n      keccak256\n        /* \"access/RoleAccess.sol\":1054:1082  roles[staff] = Role.Customer */\n      dup1\n      sload\n        /* \"access/RoleAccess.sol\":1069:1082  Role.Customer */\n      0x02\n      swap3\n      not(0xff)\n        /* \"access/RoleAccess.sol\":1054:1082  roles[staff] = Role.Customer */\n      swap1\n      swap2\n      and\n      swap1\n        /* \"access/RoleAccess.sol\":1069:1082  Role.Customer */\n      dup4\n        /* \"access/RoleAccess.sol\":1054:1082  roles[staff] = Role.Customer */\n    tag_124:\n      mul\n      or\n      swap1\n      sstore\n      pop\n        /* \"access/RoleAccess.sol\":947:1090  function removeStaff(address staff) external onlyAdmin {... */\n      pop\n      jump\t// out\n        /* \"contracts/ReviewManager.sol\":398:525  function initialize(address admin) public initializer {... */\n    tag_51:\n        /* \"@openzeppelin/contracts-upgradeable/proxy/utils/Initializable.sol\":3147:3213  0xf0c57e16840df040f15088dc2f81fe391c3923bec73e23a9662efc9c229c6a00 */\n      0xf0c57e16840df040f15088dc2f81fe391c3923bec73e23a9662efc9c229c6a00\n        /* \"@openzeppelin/contracts-upgradeable/proxy/utils/Initializable.sol\":4302:4317  $._initializing */\n      dup1\n      sload\n      shl(0x40, 0x01)\n      dup2\n      div\n      0xff\n      and\n        /* \"@openzeppelin/contracts-upgradeable/proxy/utils/Initializable.sol\":4301:4317  !$._initializing */\n      iszero\n      swap1\n        /* \"@openzeppelin/contracts-upgradeable/proxy/utils/Initializable.sol\":4348:4362  $._initialized */\n      0xffffffffffffffff\n      and\n        /* \"@openzeppelin/contracts-upgradeable/proxy/utils/Initializable.sol\":4158:4188  InitializableStorage storage $ */\n      0x00\n        /* \"@openzeppelin/contracts-upgradeable/proxy/utils/Initializable.sol\":4724:4740  initialized == 0 */\n      dup2\n      iszero\n        /* \"@openzeppelin/contracts-upgradeable/proxy/utils/Initializable.sol\":4724:4758  initialized == 0 && isTopLevelCall */\n      dup1\n      iszero\n      tag_128\n      jumpi\n      pop\n        /* \"@openzeppelin/contracts-upgradeable/proxy/utils/Initializable.sol\":4744:4758  isTopLevelCall */\n      dup3\n        /* \"@openzeppelin/contracts-upgradeable/proxy/utils/Initializable.sol\":4724:4758  initialized == 0 && isTopLevelCall */\n    tag_128:\n        /* \"@openzeppelin/contracts-upgradeable/proxy/utils/Initializable.sol\":4704:4758  bool initialSetup = initialized == 0 && isTopLevelCall */\n      swap1\n      pop\n        /* \"@openzeppelin/contracts-upgradeable/proxy/utils/Initializable.sol\":4768:4785  bool construction */\n      0x00\n        /* \"@openzeppelin/contracts-upgradeable/proxy/utils/Initializable.sol\":4788:4799  initialized */\n      dup3\n        /* \"@openzeppelin/contracts-upgradeable/proxy/utils/Initializable.sol\":4788:4804  initialized == 1 */\n      0xffffffffffffffff\n      and\n        /* \"@openzeppelin/contracts-upgradeable/proxy/utils/Initializable.sol\":4803:4804  1 */\n      0x01\n        /* \"@openzeppelin/contracts-upgradeable/proxy/utils/Initializable.sol\":4788:4804  initialized == 1 */\n      eq\n        /* \"@openzeppelin/contracts-upgradeable/proxy/utils/Initializable.sol\":4788:4838  initialized == 1 && address(this).code.length == 0 */\n      dup1\n      iszero\n      tag_129\n      jumpi\n      pop\n        /* \"@openzeppelin/contracts-upgradeable/proxy/utils/Initializable.sol\":4816:4820  this */\n      address\n        /* \"@openzeppelin/contracts-upgradeable/proxy/utils/Initializable.sol\":4808:4833  address(this).code.length */\n      extcodesize\n        /* \"@openzeppelin/contracts-upgradeable/proxy/utils/Initializable.sol\":4808:4838  address(this).code.length == 0 */\n      iszero\n        /* \"@openzeppelin/contracts-upgradeable/proxy/utils/Initializable.sol\":4788:4838  initialized == 1 && address(this).code.length == 0 */\n    tag_129:\n        /* \"@openzeppelin/contracts-upgradeable/proxy/utils/Initializable.sol\":4768:4838  bool construction = initialized == 1 && address(this).code.length == 0 */\n      swap1\n      pop\n        /* \"@openzeppelin/contracts-upgradeable/proxy/utils/Initializable.sol\":4854:4866  initialSetup */\n      dup2\n        /* \"@openzeppelin/contracts-upgradeable/proxy/utils/Initializable.sol\":4853:4866  !initialSetup */\n      iszero\n        /* \"@openzeppelin/contracts-upgradeable/proxy/utils/Initializable.sol\":4853:4883  !initialSetup && !construction */\n      dup1\n      iszero\n      tag_130\n      jumpi\n      pop\n        /* \"@openzeppelin/contracts-upgradeable/proxy/utils/Initializable.sol\":4871:4883  construction */\n      dup1\n        /* \"@openzeppelin/contracts-upgradeable/proxy/utils/Initializable.sol\":4870:4883  !construction */\n      iszero\n        /* \"@openzeppelin/contracts-upgradeable/proxy/utils/Initializable.sol\":4853:4883  !initialSetup && !construction */\n    tag_130:\n        /* \"@openzeppelin/contracts-upgradeable/proxy/utils/Initializable.sol\":4849:4940  if (!initialSetup && !construction) {... */\n      iszero\n      tag_131\n      jumpi\n        /* \"@openzeppelin/contracts-upgradeable/proxy/utils/Initializable.sol\":4906:4929  InvalidInitialization() */\n      mload(0x40)\n      shl(0xe0, 0xf92ee8a9)\n      dup2\n      mstore\n      0x04\n      add\n      mload(0x40)\n      dup1\n      swap2\n      sub\n      swap1\n      revert\n        /* \"@openzeppelin/contracts-upgradeable/proxy/utils/Initializable.sol\":4849:4940  if (!initialSetup && !construction) {... */\n    tag_131:\n        /* \"@openzeppelin/contracts-upgradeable/proxy/utils/Initializable.sol\":4949:4967  $._initialized = 1 */\n      dup5\n      sload\n      not(0xffffffffffffffff)\n      and\n        /* \"@openzeppelin/contracts-upgradeable/proxy/utils/Initializable.sol\":4966:4967  1 */\n      0x01\n        /* \"@openzeppelin/contracts-upgradeable/proxy/utils/Initializable.sol\":4949:4967  $._initialized = 1 */\n      or\n      dup6\n      sstore\n        /* \"@openzeppelin/contracts-upgradeable/proxy/utils/Initializable.sol\":4977:5044  if (isTopLevelCall) {... */\n      dup4\n      iszero\n      tag_132\n      jumpi\n        /* \"@openzeppelin/contracts-upgradeable/proxy/utils/Initializable.sol\":5011:5033  $._initializing = true */\n      dup5\n      sload\n      not(shl(0x40, 0xff))\n      and\n      shl(0x40, 0x01)\n      or\n      dup6\n      sstore\n        /* \"@openzeppelin/contracts-upgradeable/proxy/utils/Initializable.sol\":4977:5044  if (isTopLevelCall) {... */\n    tag_132:\n        /* \"contracts/ReviewManager.sol\":463:484  __Ownable_init(admin) */\n      tag_134\n        /* \"contracts/ReviewManager.sol\":478:483  admin */\n      dup7\n        /* \"contracts/ReviewManager.sol\":463:477  __Ownable_init */\n      tag_135\n        /* \"contracts/ReviewManager.sol\":463:484  __Ownable_init(admin) */\n      jump\t// in\n    tag_134:\n        /* \"contracts/ReviewManager.sol\":495:517  initializeRoles(admin) */\n      tag_136\n        /* \"contracts/ReviewManager.sol\":511:516  admin */\n      dup7\n        /* \"contracts/ReviewManager.sol\":495:510  initializeRoles */\n      tag_137\n        /* \"contracts/ReviewManager.sol\":495:517  initializeRoles(admin) */\n      jump\t// in\n    tag_136:\n        /* \"@openzeppelin/contracts-upgradeable/proxy/utils/Initializable.sol\":5068:5082  isTopLevelCall */\n      dup4\n        /* \"@openzeppelin/contracts-upgradeable/proxy/utils/Initializable.sol\":5064:5165  if (isTopLevelCall) {... */\n      iszero\n      tag_138\n      jumpi\n        /* \"@openzeppelin/contracts-upgradeable/proxy/utils/Initializable.sol\":5098:5121  $._initializing = false */\n      dup5\n      sload\n      not(shl(0x40, 0xff))\n      and\n      dup6\n      sstore\n        /* \"@openzeppelin/contracts-upgradeable/proxy/utils/Initializable.sol\":5140:5154  Initialized(1) */\n      mload(0x40)\n      0x01\n        /* \"#utility.yul\":9736:9786   */\n      dup2\n      mstore\n        /* \"@openzeppelin/contracts-upgradeable/proxy/utils/Initializable.sol\":5140:5154  Initialized(1) */\n      0xc7f505b2f371ae2175ee4913f4499e1f2633a7b5936321eed1cdaeb6115181d2\n      swap1\n        /* \"#utility.yul\":9724:9726   */\n      0x20\n        /* \"#utility.yul\":9709:9727   */\n      add\n        /* \"@openzeppelin/contracts-upgradeable/proxy/utils/Initializable.sol\":5140:5154  Initialized(1) */\n      mload(0x40)\n      dup1\n      swap2\n      sub\n      swap1\n      log1\n        /* \"@openzeppelin/contracts-upgradeable/proxy/utils/Initializable.sol\":5064:5165  if (isTopLevelCall) {... */\n    tag_138:\n        /* \"@openzeppelin/contracts-upgradeable/proxy/utils/Initializable.sol\":4092:5171  {... */\n      pop\n      pop\n      pop\n      pop\n      pop\n        /* \"contracts/ReviewManager.sol\":398:525  function initialize(address admin) public initializer {... */\n      pop\n      jump\t// out\n        /* \"contracts/ReviewManager.sol\":336:389  mapping(uint128 => Review[]) public restaurantReviews */\n    tag_55:\n      mstore(0x20, 0x02)\n      dup2\n      0x00\n      mstore\n      keccak256(0x00, 0x40)\n      dup2\n      dup2\n      sload\n      dup2\n      lt\n      tag_141\n      jumpi\n      0x00\n      dup1\n      revert\n    tag_141:\n      0x00\n      swap2\n      dup3\n      mstore\n      0x20\n      swap1\n      swap2\n      keccak256\n      0x04\n      swap1\n      swap2\n      mul\n      add\n      dup1\n      sload\n      0x01\n      dup3\n      add\n      sload\n      0x02\n      dup4\n      add\n      dup1\n      sload\n      sub(shl(0xa0, 0x01), 0x01)\n      swap1\n      swap4\n      and\n      swap6\n      pop\n      sub(shl(0x80, 0x01), 0x01)\n      dup3\n      and\n      swap5\n      pop\n      shl(0x80, 0x01)\n      swap1\n      swap2\n      div\n      0xff\n      and\n      swap3\n      swap2\n      tag_143\n      swap1\n      tag_110\n      jump\t// in\n    tag_143:\n      dup1\n      0x1f\n      add\n      0x20\n      dup1\n      swap2\n      div\n      mul\n      0x20\n      add\n      mload(0x40)\n      swap1\n      dup2\n      add\n      0x40\n      mstore\n      dup1\n      swap3\n      swap2\n      swap1\n      dup2\n      dup2\n      mstore\n      0x20\n      add\n      dup3\n      dup1\n      sload\n      tag_144\n      swap1\n      tag_110\n      jump\t// in\n    tag_144:\n      dup1\n      iszero\n      tag_145\n      jumpi\n      dup1\n      0x1f\n      lt\n      tag_146\n      jumpi\n      0x0100\n      dup1\n      dup4\n      sload\n      div\n      mul\n      dup4\n      mstore\n      swap2\n      0x20\n      add\n      swap2\n      jump(tag_145)\n    tag_146:\n      dup3\n      add\n      swap2\n      swap1\n      0x00\n      mstore\n      keccak256(0x00, 0x20)\n      swap1\n    tag_147:\n      dup2\n      sload\n      dup2\n      mstore\n      swap1\n      0x01\n      add\n      swap1\n      0x20\n      add\n      dup1\n      dup4\n      gt\n      tag_147\n      jumpi\n      dup3\n      swap1\n      sub\n      0x1f\n      and\n      dup3\n      add\n      swap2\n    tag_145:\n      pop\n      pop\n      pop\n      0x03\n      swap1\n      swap4\n      add\n      sload\n      swap2\n      swap3\n      pop\n      pop\n      sub(shl(0x80, 0x01), 0x01)\n      and\n      dup6\n      jump\t// out\n        /* \"@openzeppelin/contracts-upgradeable/access/OwnableUpgradeable.sol\":3405:3620  function transferOwnership(address newOwner) public virtual onlyOwner {... */\n    tag_60:\n        /* \"@openzeppelin/contracts-upgradeable/access/OwnableUpgradeable.sol\":2334:2347  _checkOwner() */\n      tag_149\n        /* \"@openzeppelin/contracts-upgradeable/access/OwnableUpgradeable.sol\":2334:2345  _checkOwner */\n      tag_87\n        /* \"@openzeppelin/contracts-upgradeable/access/OwnableUpgradeable.sol\":2334:2347  _checkOwner() */\n      jump\t// in\n    tag_149:\n      sub(shl(0xa0, 0x01), 0x01)\n        /* \"@openzeppelin/contracts-upgradeable/access/OwnableUpgradeable.sol\":3489:3511  newOwner == address(0) */\n      dup2\n      and\n        /* \"@openzeppelin/contracts-upgradeable/access/OwnableUpgradeable.sol\":3485:3576  if (newOwner == address(0)) {... */\n      tag_151\n      jumpi\n        /* \"@openzeppelin/contracts-upgradeable/access/OwnableUpgradeable.sol\":3534:3565  OwnableInvalidOwner(address(0)) */\n      mload(0x40)\n      shl(0xe0, 0x1e4fbdf7)\n      dup2\n      mstore\n        /* \"@openzeppelin/contracts-upgradeable/access/OwnableUpgradeable.sol\":3562:3563  0 */\n      0x00\n        /* \"@openzeppelin/contracts-upgradeable/access/OwnableUpgradeable.sol\":3534:3565  OwnableInvalidOwner(address(0)) */\n      0x04\n      dup3\n      add\n        /* \"#utility.yul\":2258:2309   */\n      mstore\n        /* \"#utility.yul\":2231:2249   */\n      0x24\n      add\n        /* \"@openzeppelin/contracts-upgradeable/access/OwnableUpgradeable.sol\":3534:3565  OwnableInvalidOwner(address(0)) */\n      tag_73\n        /* \"#utility.yul\":2112:2315   */\n      jump\n        /* \"@openzeppelin/contracts-upgradeable/access/OwnableUpgradeable.sol\":3485:3576  if (newOwner == address(0)) {... */\n    tag_151:\n        /* \"@openzeppelin/contracts-upgradeable/access/OwnableUpgradeable.sol\":3585:3613  _transferOwnership(newOwner) */\n      tag_153\n        /* \"@openzeppelin/contracts-upgradeable/access/OwnableUpgradeable.sol\":3604:3612  newOwner */\n      dup2\n        /* \"@openzeppelin/contracts-upgradeable/access/OwnableUpgradeable.sol\":3585:3603  _transferOwnership */\n      tag_90\n        /* \"@openzeppelin/contracts-upgradeable/access/OwnableUpgradeable.sol\":3585:3613  _transferOwnership(newOwner) */\n      jump\t// in\n    tag_153:\n        /* \"@openzeppelin/contracts-upgradeable/access/OwnableUpgradeable.sol\":3405:3620  function transferOwnership(address newOwner) public virtual onlyOwner {... */\n      pop\n      jump\t// out\n        /* \"@openzeppelin/contracts-upgradeable/access/OwnableUpgradeable.sol\":2658:2820  function _checkOwner() internal view virtual {... */\n    tag_87:\n        /* \"@openzeppelin/contracts-upgradeable/utils/ContextUpgradeable.sol\":966:976  msg.sender */\n      caller\n        /* \"@openzeppelin/contracts-upgradeable/access/OwnableUpgradeable.sol\":2717:2724  owner() */\n      tag_157\n        /* \"@openzeppelin/contracts-upgradeable/access/OwnableUpgradeable.sol\":1313:1335  OwnableStorageLocation */\n      0x9016d09d72d40fdae2fd8ceac6b6234c7706214fd39c1cd1e609a0528c199300\n        /* \"@openzeppelin/contracts-upgradeable/access/OwnableUpgradeable.sol\":2570:2578  $._owner */\n      sload\n      sub(shl(0xa0, 0x01), 0x01)\n      and\n      swap1\n        /* \"@openzeppelin/contracts-upgradeable/access/OwnableUpgradeable.sol\":2441:2585  function owner() public view virtual returns (address) {... */\n      jump\n        /* \"@openzeppelin/contracts-upgradeable/access/OwnableUpgradeable.sol\":2717:2724  owner() */\n    tag_157:\n      sub(shl(0xa0, 0x01), 0x01)\n        /* \"@openzeppelin/contracts-upgradeable/access/OwnableUpgradeable.sol\":2717:2740  owner() != _msgSender() */\n      and\n      eq\n        /* \"@openzeppelin/contracts-upgradeable/access/OwnableUpgradeable.sol\":2713:2814  if (owner() != _msgSender()) {... */\n      tag_89\n      jumpi\n        /* \"@openzeppelin/contracts-upgradeable/access/OwnableUpgradeable.sol\":2763:2803  OwnableUnauthorizedAccount(_msgSender()) */\n      mload(0x40)\n      shl(0xe0, 0x118cdaa7)\n      dup2\n      mstore\n        /* \"@openzeppelin/contracts-upgradeable/utils/ContextUpgradeable.sol\":966:976  msg.sender */\n      caller\n        /* \"@openzeppelin/contracts-upgradeable/access/OwnableUpgradeable.sol\":2763:2803  OwnableUnauthorizedAccount(_msgSender()) */\n      0x04\n      dup3\n      add\n        /* \"#utility.yul\":2258:2309   */\n      mstore\n        /* \"#utility.yul\":2231:2249   */\n      0x24\n      add\n        /* \"@openzeppelin/contracts-upgradeable/access/OwnableUpgradeable.sol\":2763:2803  OwnableUnauthorizedAccount(_msgSender()) */\n      tag_73\n        /* \"#utility.yul\":2112:2315   */\n      jump\n        /* \"@openzeppelin/contracts-upgradeable/access/OwnableUpgradeable.sol\":3774:4022  function _transferOwnership(address newOwner) internal virtual {... */\n    tag_90:\n        /* \"@openzeppelin/contracts-upgradeable/access/OwnableUpgradeable.sol\":1313:1335  OwnableStorageLocation */\n      0x9016d09d72d40fdae2fd8ceac6b6234c7706214fd39c1cd1e609a0528c199300\n        /* \"@openzeppelin/contracts-upgradeable/access/OwnableUpgradeable.sol\":3923:3931  $._owner */\n      dup1\n      sload\n      not(sub(shl(0xa0, 0x01), 0x01))\n        /* \"@openzeppelin/contracts-upgradeable/access/OwnableUpgradeable.sol\":3941:3960  $._owner = newOwner */\n      dup2\n      and\n      sub(shl(0xa0, 0x01), 0x01)\n      dup5\n      dup2\n      and\n      swap2\n      dup3\n      or\n      dup5\n      sstore\n        /* \"@openzeppelin/contracts-upgradeable/access/OwnableUpgradeable.sol\":3975:4015  OwnershipTransferred(oldOwner, newOwner) */\n      mload(0x40)\n        /* \"@openzeppelin/contracts-upgradeable/access/OwnableUpgradeable.sol\":3923:3931  $._owner */\n      swap3\n      and\n      swap2\n      dup3\n      swap1\n        /* \"@openzeppelin/contracts-upgradeable/access/OwnableUpgradeable.sol\":3975:4015  OwnershipTransferred(oldOwner, newOwner) */\n      0x8be0079c531659141344cd1fd0a4f28419497f9722a3daafe3b4186f6b6457e0\n      swap1\n        /* \"@openzeppelin/contracts-upgradeable/access/OwnableUpgradeable.sol\":3847:3871  OwnableStorage storage $ */\n      0x00\n      swap1\n        /* \"@openzeppelin/contracts-upgradeable/access/OwnableUpgradeable.sol\":3975:4015  OwnershipTransferred(oldOwner, newOwner) */\n      log3\n        /* \"@openzeppelin/contracts-upgradeable/access/OwnableUpgradeable.sol\":3837:4022  {... */\n      pop\n      pop\n        /* \"@openzeppelin/contracts-upgradeable/access/OwnableUpgradeable.sol\":3774:4022  function _transferOwnership(address newOwner) internal virtual {... */\n      pop\n      jump\t// out\n        /* \"@openzeppelin/contracts-upgradeable/access/OwnableUpgradeable.sol\":1847:1974  function __Ownable_init(address initialOwner) internal onlyInitializing {... */\n    tag_135:\n        /* \"@openzeppelin/contracts-upgradeable/proxy/utils/Initializable.sol\":6929:6949  _checkInitializing() */\n      tag_168\n        /* \"@openzeppelin/contracts-upgradeable/proxy/utils/Initializable.sol\":6929:6947  _checkInitializing */\n      tag_169\n        /* \"@openzeppelin/contracts-upgradeable/proxy/utils/Initializable.sol\":6929:6949  _checkInitializing() */\n      jump\t// in\n    tag_168:\n        /* \"@openzeppelin/contracts-upgradeable/access/OwnableUpgradeable.sol\":1929:1967  __Ownable_init_unchained(initialOwner) */\n      tag_153\n        /* \"@openzeppelin/contracts-upgradeable/access/OwnableUpgradeable.sol\":1954:1966  initialOwner */\n      dup2\n        /* \"@openzeppelin/contracts-upgradeable/access/OwnableUpgradeable.sol\":1929:1953  __Ownable_init_unchained */\n      tag_172\n        /* \"@openzeppelin/contracts-upgradeable/access/OwnableUpgradeable.sol\":1929:1967  __Ownable_init_unchained(initialOwner) */\n      jump\t// in\n        /* \"access/RoleAccess.sol\":668:761  function initializeRoles(address admin) internal {... */\n    tag_137:\n      sub(shl(0xa0, 0x01), 0x01)\n        /* \"access/RoleAccess.sol\":728:740  roles[admin] */\n      dup2\n      and\n        /* \"access/RoleAccess.sol\":743:753  Role.Admin */\n      0x00\n        /* \"access/RoleAccess.sol\":728:740  roles[admin] */\n      swap1\n      dup2\n      mstore\n      0x20\n      dup2\n      swap1\n      mstore\n      0x40\n      dup2\n      keccak256\n        /* \"access/RoleAccess.sol\":728:753  roles[admin] = Role.Admin */\n      dup1\n      sload\n      not(0xff)\n      and\n      0x01\n        /* \"access/RoleAccess.sol\":743:753  Role.Admin */\n      dup4\n        /* \"access/RoleAccess.sol\":728:753  roles[admin] = Role.Admin */\n      jump(tag_124)\n        /* \"@openzeppelin/contracts-upgradeable/proxy/utils/Initializable.sol\":7082:7223  function _checkInitializing() internal view virtual {... */\n    tag_169:\n        /* \"@openzeppelin/contracts-upgradeable/proxy/utils/Initializable.sol\":3147:3213  0xf0c57e16840df040f15088dc2f81fe391c3923bec73e23a9662efc9c229c6a00 */\n      0xf0c57e16840df040f15088dc2f81fe391c3923bec73e23a9662efc9c229c6a00\n        /* \"@openzeppelin/contracts-upgradeable/proxy/utils/Initializable.sol\":8558:8598  _getInitializableStorage()._initializing */\n      sload\n      shl(0x40, 0x01)\n      swap1\n      div\n      0xff\n      and\n        /* \"@openzeppelin/contracts-upgradeable/proxy/utils/Initializable.sol\":7144:7217  if (!_isInitializing()) {... */\n      tag_89\n      jumpi\n        /* \"@openzeppelin/contracts-upgradeable/proxy/utils/Initializable.sol\":7189:7206  NotInitializing() */\n      mload(0x40)\n      shl(0xe3, 0x1afcd79f)\n      dup2\n      mstore\n      0x04\n      add\n      mload(0x40)\n      dup1\n      swap2\n      sub\n      swap1\n      revert\n        /* \"@openzeppelin/contracts-upgradeable/access/OwnableUpgradeable.sol\":1980:2215  function __Ownable_init_unchained(address initialOwner) internal onlyInitializing {... */\n    tag_172:\n        /* \"@openzeppelin/contracts-upgradeable/proxy/utils/Initializable.sol\":6929:6949  _checkInitializing() */\n      tag_149\n        /* \"@openzeppelin/contracts-upgradeable/proxy/utils/Initializable.sol\":6929:6947  _checkInitializing */\n      tag_169\n        /* \"@openzeppelin/contracts-upgradeable/proxy/utils/Initializable.sol\":6929:6949  _checkInitializing() */\n      jump\t// in\n        /* \"#utility.yul\":14:187   */\n    tag_190:\n        /* \"#utility.yul\":82:102   */\n      dup1\n      calldataload\n      sub(shl(0xa0, 0x01), 0x01)\n        /* \"#utility.yul\":131:162   */\n      dup2\n      and\n        /* \"#utility.yul\":121:163   */\n      dup2\n      eq\n        /* \"#utility.yul\":111:181   */\n      tag_199\n      jumpi\n        /* \"#utility.yul\":177:178   */\n      0x00\n        /* \"#utility.yul\":174:175   */\n      0x00\n        /* \"#utility.yul\":167:179   */\n      revert\n        /* \"#utility.yul\":111:181   */\n    tag_199:\n        /* \"#utility.yul\":14:187   */\n      swap2\n      swap1\n      pop\n      jump\t// out\n        /* \"#utility.yul\":192:378   */\n    tag_17:\n        /* \"#utility.yul\":251:257   */\n      0x00\n        /* \"#utility.yul\":304:306   */\n      0x20\n        /* \"#utility.yul\":292:301   */\n      dup3\n        /* \"#utility.yul\":283:290   */\n      dup5\n        /* \"#utility.yul\":279:302   */\n      sub\n        /* \"#utility.yul\":275:307   */\n      slt\n        /* \"#utility.yul\":272:324   */\n      iszero\n      tag_201\n      jumpi\n        /* \"#utility.yul\":320:321   */\n      0x00\n        /* \"#utility.yul\":317:318   */\n      0x00\n        /* \"#utility.yul\":310:322   */\n      revert\n        /* \"#utility.yul\":272:324   */\n    tag_201:\n        /* \"#utility.yul\":343:372   */\n      tag_202\n        /* \"#utility.yul\":362:371   */\n      dup3\n        /* \"#utility.yul\":343:372   */\n      tag_190\n      jump\t// in\n    tag_202:\n        /* \"#utility.yul\":333:372   */\n      swap4\n        /* \"#utility.yul\":192:378   */\n      swap3\n      pop\n      pop\n      pop\n      jump\t// out\n        /* \"#utility.yul\":606:794   */\n    tag_191:\n        /* \"#utility.yul\":674:694   */\n      dup1\n      calldataload\n      sub(shl(0x80, 0x01), 0x01)\n        /* \"#utility.yul\":723:769   */\n      dup2\n      and\n        /* \"#utility.yul\":713:770   */\n      dup2\n      eq\n        /* \"#utility.yul\":703:788   */\n      tag_199\n      jumpi\n        /* \"#utility.yul\":784:785   */\n      0x00\n        /* \"#utility.yul\":781:782   */\n      0x00\n        /* \"#utility.yul\":774:786   */\n      revert\n        /* \"#utility.yul\":799:926   */\n    tag_192:\n        /* \"#utility.yul\":860:870   */\n      0x4e487b71\n        /* \"#utility.yul\":855:858   */\n      0xe0\n        /* \"#utility.yul\":851:871   */\n      shl\n        /* \"#utility.yul\":848:849   */\n      0x00\n        /* \"#utility.yul\":841:872   */\n      mstore\n        /* \"#utility.yul\":891:895   */\n      0x41\n        /* \"#utility.yul\":888:889   */\n      0x04\n        /* \"#utility.yul\":881:896   */\n      mstore\n        /* \"#utility.yul\":915:919   */\n      0x24\n        /* \"#utility.yul\":912:913   */\n      0x00\n        /* \"#utility.yul\":905:920   */\n      revert\n        /* \"#utility.yul\":931:2107   */\n    tag_23:\n        /* \"#utility.yul\":1016:1022   */\n      0x00\n        /* \"#utility.yul\":1024:1030   */\n      0x00\n        /* \"#utility.yul\":1032:1038   */\n      0x00\n        /* \"#utility.yul\":1085:1087   */\n      0x60\n        /* \"#utility.yul\":1073:1082   */\n      dup5\n        /* \"#utility.yul\":1064:1071   */\n      dup7\n        /* \"#utility.yul\":1060:1083   */\n      sub\n        /* \"#utility.yul\":1056:1088   */\n      slt\n        /* \"#utility.yul\":1053:1105   */\n      iszero\n      tag_208\n      jumpi\n        /* \"#utility.yul\":1101:1102   */\n      0x00\n        /* \"#utility.yul\":1098:1099   */\n      0x00\n        /* \"#utility.yul\":1091:1103   */\n      revert\n        /* \"#utility.yul\":1053:1105   */\n    tag_208:\n        /* \"#utility.yul\":1124:1153   */\n      tag_209\n        /* \"#utility.yul\":1143:1152   */\n      dup5\n        /* \"#utility.yul\":1124:1153   */\n      tag_191\n      jump\t// in\n    tag_209:\n        /* \"#utility.yul\":1114:1153   */\n      swap3\n      pop\n        /* \"#utility.yul\":1203:1205   */\n      0x20\n        /* \"#utility.yul\":1192:1201   */\n      dup5\n        /* \"#utility.yul\":1188:1206   */\n      add\n        /* \"#utility.yul\":1175:1207   */\n      calldataload\n        /* \"#utility.yul\":1247:1251   */\n      0xff\n        /* \"#utility.yul\":1240:1245   */\n      dup2\n        /* \"#utility.yul\":1236:1252   */\n      and\n        /* \"#utility.yul\":1229:1234   */\n      dup2\n        /* \"#utility.yul\":1226:1253   */\n      eq\n        /* \"#utility.yul\":1216:1271   */\n      tag_210\n      jumpi\n        /* \"#utility.yul\":1267:1268   */\n      0x00\n        /* \"#utility.yul\":1264:1265   */\n      0x00\n        /* \"#utility.yul\":1257:1269   */\n      revert\n        /* \"#utility.yul\":1216:1271   */\n    tag_210:\n        /* \"#utility.yul\":1290:1295   */\n      swap2\n      pop\n        /* \"#utility.yul\":1346:1348   */\n      0x40\n        /* \"#utility.yul\":1331:1349   */\n      dup5\n      add\n        /* \"#utility.yul\":1318:1350   */\n      calldataload\n        /* \"#utility.yul\":1373:1391   */\n      0xffffffffffffffff\n        /* \"#utility.yul\":1362:1392   */\n      dup2\n      gt\n        /* \"#utility.yul\":1359:1409   */\n      iszero\n      tag_211\n      jumpi\n        /* \"#utility.yul\":1405:1406   */\n      0x00\n        /* \"#utility.yul\":1402:1403   */\n      0x00\n        /* \"#utility.yul\":1395:1407   */\n      revert\n        /* \"#utility.yul\":1359:1409   */\n    tag_211:\n        /* \"#utility.yul\":1428:1450   */\n      dup5\n      add\n        /* \"#utility.yul\":1481:1485   */\n      0x1f\n        /* \"#utility.yul\":1473:1486   */\n      dup2\n      add\n        /* \"#utility.yul\":1469:1496   */\n      dup7\n      sgt\n        /* \"#utility.yul\":1459:1514   */\n      tag_212\n      jumpi\n        /* \"#utility.yul\":1510:1511   */\n      0x00\n        /* \"#utility.yul\":1507:1508   */\n      0x00\n        /* \"#utility.yul\":1500:1512   */\n      revert\n        /* \"#utility.yul\":1459:1514   */\n    tag_212:\n        /* \"#utility.yul\":1550:1552   */\n      dup1\n        /* \"#utility.yul\":1537:1553   */\n      calldataload\n        /* \"#utility.yul\":1576:1594   */\n      0xffffffffffffffff\n        /* \"#utility.yul\":1568:1574   */\n      dup2\n        /* \"#utility.yul\":1565:1595   */\n      gt\n        /* \"#utility.yul\":1562:1618   */\n      iszero\n      tag_214\n      jumpi\n        /* \"#utility.yul\":1598:1616   */\n      tag_214\n      tag_192\n      jump\t// in\n    tag_214:\n        /* \"#utility.yul\":1647:1649   */\n      0x40\n        /* \"#utility.yul\":1641:1650   */\n      mload\n        /* \"#utility.yul\":1739:1741   */\n      0x1f\n        /* \"#utility.yul\":1701:1718   */\n      dup3\n      add\n      not(0x1f)\n        /* \"#utility.yul\":1697:1728   */\n      swap1\n      dup2\n      and\n        /* \"#utility.yul\":1730:1732   */\n      0x3f\n        /* \"#utility.yul\":1693:1733   */\n      add\n        /* \"#utility.yul\":1689:1743   */\n      and\n        /* \"#utility.yul\":1677:1744   */\n      dup2\n      add\n        /* \"#utility.yul\":1774:1792   */\n      0xffffffffffffffff\n        /* \"#utility.yul\":1759:1793   */\n      dup2\n      gt\n        /* \"#utility.yul\":1795:1817   */\n      dup3\n      dup3\n      lt\n        /* \"#utility.yul\":1756:1818   */\n      or\n        /* \"#utility.yul\":1753:1841   */\n      iszero\n      tag_216\n      jumpi\n        /* \"#utility.yul\":1821:1839   */\n      tag_216\n      tag_192\n      jump\t// in\n    tag_216:\n        /* \"#utility.yul\":1857:1859   */\n      0x40\n        /* \"#utility.yul\":1850:1872   */\n      mstore\n        /* \"#utility.yul\":1881:1903   */\n      dup2\n      dup2\n      mstore\n        /* \"#utility.yul\":1922:1937   */\n      dup3\n      dup3\n      add\n        /* \"#utility.yul\":1939:1941   */\n      0x20\n        /* \"#utility.yul\":1918:1942   */\n      add\n        /* \"#utility.yul\":1915:1952   */\n      dup9\n      lt\n        /* \"#utility.yul\":1912:1969   */\n      iszero\n      tag_217\n      jumpi\n        /* \"#utility.yul\":1965:1966   */\n      0x00\n        /* \"#utility.yul\":1962:1963   */\n      0x00\n        /* \"#utility.yul\":1955:1967   */\n      revert\n        /* \"#utility.yul\":1912:1969   */\n    tag_217:\n        /* \"#utility.yul\":2021:2027   */\n      dup2\n        /* \"#utility.yul\":2016:2018   */\n      0x20\n        /* \"#utility.yul\":2012:2014   */\n      dup5\n        /* \"#utility.yul\":2008:2019   */\n      add\n        /* \"#utility.yul\":2003:2005   */\n      0x20\n        /* \"#utility.yul\":1995:2001   */\n      dup4\n        /* \"#utility.yul\":1991:2006   */\n      add\n        /* \"#utility.yul\":1978:2028   */\n      calldatacopy\n        /* \"#utility.yul\":2074:2075   */\n      0x00\n        /* \"#utility.yul\":2069:2071   */\n      0x20\n        /* \"#utility.yul\":2060:2066   */\n      dup4\n        /* \"#utility.yul\":2052:2058   */\n      dup4\n        /* \"#utility.yul\":2048:2067   */\n      add\n        /* \"#utility.yul\":2044:2072   */\n      add\n        /* \"#utility.yul\":2037:2076   */\n      mstore\n        /* \"#utility.yul\":2095:2101   */\n      dup1\n        /* \"#utility.yul\":2085:2101   */\n      swap4\n      pop\n      pop\n      pop\n      pop\n        /* \"#utility.yul\":931:2107   */\n      swap3\n      pop\n      swap3\n      pop\n      swap3\n      jump\t// out\n        /* \"#utility.yul\":2320:2447   */\n    tag_64:\n        /* \"#utility.yul\":2381:2391   */\n      0x4e487b71\n        /* \"#utility.yul\":2376:2379   */\n      0xe0\n        /* \"#utility.yul\":2372:2392   */\n      shl\n        /* \"#utility.yul\":2369:2370   */\n      0x00\n        /* \"#utility.yul\":2362:2393   */\n      mstore\n        /* \"#utility.yul\":2412:2416   */\n      0x21\n        /* \"#utility.yul\":2409:2410   */\n      0x04\n        /* \"#utility.yul\":2402:2417   */\n      mstore\n        /* \"#utility.yul\":2436:2440   */\n      0x24\n        /* \"#utility.yul\":2433:2434   */\n      0x00\n        /* \"#utility.yul\":2426:2441   */\n      revert\n        /* \"#utility.yul\":2452:2788   */\n    tag_35:\n        /* \"#utility.yul\":2592:2594   */\n      0x20\n        /* \"#utility.yul\":2577:2595   */\n      dup2\n      add\n        /* \"#utility.yul\":2625:2626   */\n      0x03\n        /* \"#utility.yul\":2614:2627   */\n      dup4\n      lt\n        /* \"#utility.yul\":2604:2748   */\n      tag_221\n      jumpi\n        /* \"#utility.yul\":2670:2680   */\n      0x4e487b71\n        /* \"#utility.yul\":2665:2668   */\n      0xe0\n        /* \"#utility.yul\":2661:2681   */\n      shl\n        /* \"#utility.yul\":2658:2659   */\n      0x00\n        /* \"#utility.yul\":2651:2682   */\n      mstore\n        /* \"#utility.yul\":2705:2709   */\n      0x21\n        /* \"#utility.yul\":2702:2703   */\n      0x04\n        /* \"#utility.yul\":2695:2710   */\n      mstore\n        /* \"#utility.yul\":2733:2737   */\n      0x24\n        /* \"#utility.yul\":2730:2731   */\n      0x00\n        /* \"#utility.yul\":2723:2738   */\n      revert\n        /* \"#utility.yul\":2604:2748   */\n    tag_221:\n        /* \"#utility.yul\":2757:2782   */\n      swap2\n      swap1\n      mstore\n        /* \"#utility.yul\":2452:2788   */\n      swap1\n      jump\t// out\n        /* \"#utility.yul\":2793:3053   */\n    tag_38:\n        /* \"#utility.yul\":2861:2867   */\n      0x00\n        /* \"#utility.yul\":2869:2875   */\n      0x00\n        /* \"#utility.yul\":2922:2924   */\n      0x40\n        /* \"#utility.yul\":2910:2919   */\n      dup4\n        /* \"#utility.yul\":2901:2908   */\n      dup6\n        /* \"#utility.yul\":2897:2920   */\n      sub\n        /* \"#utility.yul\":2893:2925   */\n      slt\n        /* \"#utility.yul\":2890:2942   */\n      iszero\n      tag_223\n      jumpi\n        /* \"#utility.yul\":2938:2939   */\n      0x00\n        /* \"#utility.yul\":2935:2936   */\n      0x00\n        /* \"#utility.yul\":2928:2940   */\n      revert\n        /* \"#utility.yul\":2890:2942   */\n    tag_223:\n        /* \"#utility.yul\":2961:2990   */\n      tag_224\n        /* \"#utility.yul\":2980:2989   */\n      dup4\n        /* \"#utility.yul\":2961:2990   */\n      tag_190\n      jump\t// in\n    tag_224:\n        /* \"#utility.yul\":2951:2990   */\n      swap2\n      pop\n        /* \"#utility.yul\":3009:3047   */\n      tag_225\n        /* \"#utility.yul\":3043:3045   */\n      0x20\n        /* \"#utility.yul\":3032:3041   */\n      dup5\n        /* \"#utility.yul\":3028:3046   */\n      add\n        /* \"#utility.yul\":3009:3047   */\n      tag_191\n      jump\t// in\n    tag_225:\n        /* \"#utility.yul\":2999:3047   */\n      swap1\n      pop\n        /* \"#utility.yul\":2793:3053   */\n      swap3\n      pop\n      swap3\n      swap1\n      pop\n      jump\t// out\n        /* \"#utility.yul\":3058:3244   */\n    tag_42:\n        /* \"#utility.yul\":3117:3123   */\n      0x00\n        /* \"#utility.yul\":3170:3172   */\n      0x20\n        /* \"#utility.yul\":3158:3167   */\n      dup3\n        /* \"#utility.yul\":3149:3156   */\n      dup5\n        /* \"#utility.yul\":3145:3168   */\n      sub\n        /* \"#utility.yul\":3141:3173   */\n      slt\n        /* \"#utility.yul\":3138:3190   */\n      iszero\n      tag_227\n      jumpi\n        /* \"#utility.yul\":3186:3187   */\n      0x00\n        /* \"#utility.yul\":3183:3184   */\n      0x00\n        /* \"#utility.yul\":3176:3188   */\n      revert\n        /* \"#utility.yul\":3138:3190   */\n    tag_227:\n        /* \"#utility.yul\":3209:3238   */\n      tag_202\n        /* \"#utility.yul\":3228:3237   */\n      dup3\n        /* \"#utility.yul\":3209:3238   */\n      tag_191\n      jump\t// in\n        /* \"#utility.yul\":3249:3538   */\n    tag_193:\n        /* \"#utility.yul\":3291:3294   */\n      0x00\n        /* \"#utility.yul\":3329:3334   */\n      dup2\n        /* \"#utility.yul\":3323:3335   */\n      mload\n        /* \"#utility.yul\":3356:3362   */\n      dup1\n        /* \"#utility.yul\":3351:3354   */\n      dup5\n        /* \"#utility.yul\":3344:3363   */\n      mstore\n        /* \"#utility.yul\":3412:3418   */\n      dup1\n        /* \"#utility.yul\":3405:3409   */\n      0x20\n        /* \"#utility.yul\":3398:3403   */\n      dup5\n        /* \"#utility.yul\":3394:3410   */\n      add\n        /* \"#utility.yul\":3387:3391   */\n      0x20\n        /* \"#utility.yul\":3382:3385   */\n      dup7\n        /* \"#utility.yul\":3378:3392   */\n      add\n        /* \"#utility.yul\":3372:3419   */\n      mcopy\n        /* \"#utility.yul\":3464:3465   */\n      0x00\n        /* \"#utility.yul\":3457:3461   */\n      0x20\n        /* \"#utility.yul\":3448:3454   */\n      dup3\n        /* \"#utility.yul\":3443:3446   */\n      dup7\n        /* \"#utility.yul\":3439:3455   */\n      add\n        /* \"#utility.yul\":3435:3462   */\n      add\n        /* \"#utility.yul\":3428:3466   */\n      mstore\n        /* \"#utility.yul\":3527:3531   */\n      0x20\n        /* \"#utility.yul\":3520:3522   */\n      0x1f\n        /* \"#utility.yul\":3516:3523   */\n      not\n        /* \"#utility.yul\":3511:3513   */\n      0x1f\n        /* \"#utility.yul\":3503:3509   */\n      dup4\n        /* \"#utility.yul\":3499:3514   */\n      add\n        /* \"#utility.yul\":3495:3524   */\n      and\n        /* \"#utility.yul\":3490:3493   */\n      dup6\n        /* \"#utility.yul\":3486:3525   */\n      add\n        /* \"#utility.yul\":3482:3532   */\n      add\n        /* \"#utility.yul\":3475:3532   */\n      swap2\n      pop\n      pop\n        /* \"#utility.yul\":3249:3538   */\n      swap3\n      swap2\n      pop\n      pop\n      jump\t// out\n        /* \"#utility.yul\":3543:4856   */\n    tag_45:\n        /* \"#utility.yul\":3731:3735   */\n      0x00\n        /* \"#utility.yul\":3779:3781   */\n      0x20\n        /* \"#utility.yul\":3768:3777   */\n      dup3\n        /* \"#utility.yul\":3764:3782   */\n      add\n        /* \"#utility.yul\":3809:3811   */\n      0x20\n        /* \"#utility.yul\":3798:3807   */\n      dup4\n        /* \"#utility.yul\":3791:3812   */\n      mstore\n        /* \"#utility.yul\":3832:3838   */\n      dup1\n        /* \"#utility.yul\":3867:3873   */\n      dup5\n        /* \"#utility.yul\":3861:3874   */\n      mload\n        /* \"#utility.yul\":3898:3904   */\n      dup1\n        /* \"#utility.yul\":3890:3896   */\n      dup4\n        /* \"#utility.yul\":3883:3905   */\n      mstore\n        /* \"#utility.yul\":3936:3938   */\n      0x40\n        /* \"#utility.yul\":3925:3934   */\n      dup6\n        /* \"#utility.yul\":3921:3939   */\n      add\n        /* \"#utility.yul\":3914:3939   */\n      swap2\n      pop\n        /* \"#utility.yul\":3998:4000   */\n      0x40\n        /* \"#utility.yul\":3988:3994   */\n      dup2\n        /* \"#utility.yul\":3985:3986   */\n      0x05\n        /* \"#utility.yul\":3981:3995   */\n      shl\n        /* \"#utility.yul\":3970:3979   */\n      dup7\n        /* \"#utility.yul\":3966:3996   */\n      add\n        /* \"#utility.yul\":3962:4001   */\n      add\n        /* \"#utility.yul\":3948:4001   */\n      swap3\n      pop\n        /* \"#utility.yul\":4036:4038   */\n      0x20\n        /* \"#utility.yul\":4028:4034   */\n      dup7\n        /* \"#utility.yul\":4024:4039   */\n      add\n        /* \"#utility.yul\":4057:4058   */\n      0x00\n        /* \"#utility.yul\":4067:4827   */\n    tag_231:\n        /* \"#utility.yul\":4081:4087   */\n      dup3\n        /* \"#utility.yul\":4078:4079   */\n      dup2\n        /* \"#utility.yul\":4075:4088   */\n      lt\n        /* \"#utility.yul\":4067:4827   */\n      iszero\n      tag_233\n      jumpi\n        /* \"#utility.yul\":4174:4176   */\n      0x3f\n        /* \"#utility.yul\":4170:4177   */\n      not\n        /* \"#utility.yul\":4158:4167   */\n      dup8\n        /* \"#utility.yul\":4150:4156   */\n      dup7\n        /* \"#utility.yul\":4146:4168   */\n      sub\n        /* \"#utility.yul\":4142:4178   */\n      add\n        /* \"#utility.yul\":4137:4140   */\n      dup5\n        /* \"#utility.yul\":4130:4179   */\n      mstore\n        /* \"#utility.yul\":4208:4214   */\n      dup2\n        /* \"#utility.yul\":4202:4215   */\n      mload\n        /* \"#utility.yul\":4275:4276   */\n      0x01\n        /* \"#utility.yul\":4271:4272   */\n      dup1\n        /* \"#utility.yul\":4266:4269   */\n      0xa0\n        /* \"#utility.yul\":4262:4273   */\n      shl\n        /* \"#utility.yul\":4258:4277   */\n      sub\n        /* \"#utility.yul\":4253:4255   */\n      dup2\n        /* \"#utility.yul\":4247:4256   */\n      mload\n        /* \"#utility.yul\":4243:4278   */\n      and\n        /* \"#utility.yul\":4235:4241   */\n      dup7\n        /* \"#utility.yul\":4228:4279   */\n      mstore\n      sub(shl(0x80, 0x01), 0x01)\n        /* \"#utility.yul\":4334:4336   */\n      0x20\n        /* \"#utility.yul\":4330:4332   */\n      dup3\n        /* \"#utility.yul\":4326:4337   */\n      add\n        /* \"#utility.yul\":4320:4338   */\n      mload\n        /* \"#utility.yul\":4316:4375   */\n      and\n        /* \"#utility.yul\":4311:4313   */\n      0x20\n        /* \"#utility.yul\":4303:4309   */\n      dup8\n        /* \"#utility.yul\":4299:4314   */\n      add\n        /* \"#utility.yul\":4292:4376   */\n      mstore\n        /* \"#utility.yul\":4437:4441   */\n      0xff\n        /* \"#utility.yul\":4431:4433   */\n      0x40\n        /* \"#utility.yul\":4427:4429   */\n      dup3\n        /* \"#utility.yul\":4423:4434   */\n      add\n        /* \"#utility.yul\":4417:4435   */\n      mload\n        /* \"#utility.yul\":4413:4442   */\n      and\n        /* \"#utility.yul\":4408:4410   */\n      0x40\n        /* \"#utility.yul\":4400:4406   */\n      dup8\n        /* \"#utility.yul\":4396:4411   */\n      add\n        /* \"#utility.yul\":4389:4443   */\n      mstore\n        /* \"#utility.yul\":4490:4494   */\n      0x60\n        /* \"#utility.yul\":4486:4488   */\n      dup2\n        /* \"#utility.yul\":4482:4495   */\n      add\n        /* \"#utility.yul\":4476:4496   */\n      mload\n        /* \"#utility.yul\":4535:4539   */\n      0xa0\n        /* \"#utility.yul\":4528:4532   */\n      0x60\n        /* \"#utility.yul\":4520:4526   */\n      dup9\n        /* \"#utility.yul\":4516:4533   */\n      add\n        /* \"#utility.yul\":4509:4540   */\n      mstore\n        /* \"#utility.yul\":4567:4617   */\n      tag_234\n        /* \"#utility.yul\":4611:4615   */\n      0xa0\n        /* \"#utility.yul\":4603:4609   */\n      dup9\n        /* \"#utility.yul\":4599:4616   */\n      add\n        /* \"#utility.yul\":4585:4597   */\n      dup3\n        /* \"#utility.yul\":4567:4617   */\n      tag_193\n      jump\t// in\n    tag_234:\n        /* \"#utility.yul\":4674:4678   */\n      0x80\n        /* \"#utility.yul\":4666:4679   */\n      swap3\n      dup4\n      add\n        /* \"#utility.yul\":4660:4680   */\n      mload\n      sub(shl(0x80, 0x01), 0x01)\n        /* \"#utility.yul\":4656:4717   */\n      and\n        /* \"#utility.yul\":4637:4654   */\n      swap8\n      swap1\n      swap3\n      add\n        /* \"#utility.yul\":4630:4718   */\n      swap7\n      swap1\n      swap7\n      mstore\n        /* \"#utility.yul\":4553:4617   */\n      swap5\n      pop\n        /* \"#utility.yul\":4782:4784   */\n      0x20\n        /* \"#utility.yul\":4805:4817   */\n      swap4\n      dup5\n      add\n      swap4\n        /* \"#utility.yul\":4770:4785   */\n      swap2\n      swap1\n      swap2\n      add\n      swap1\n        /* \"#utility.yul\":4103:4104   */\n      0x01\n        /* \"#utility.yul\":4096:4105   */\n      add\n        /* \"#utility.yul\":4067:4827   */\n      jump(tag_231)\n    tag_233:\n      pop\n        /* \"#utility.yul\":4844:4850   */\n      swap3\n      swap7\n        /* \"#utility.yul\":3543:4856   */\n      swap6\n      pop\n      pop\n      pop\n      pop\n      pop\n      pop\n      jump\t// out\n        /* \"#utility.yul\":4861:5115   */\n    tag_54:\n        /* \"#utility.yul\":4929:4935   */\n      0x00\n        /* \"#utility.yul\":4937:4943   */\n      0x00\n        /* \"#utility.yul\":4990:4992   */\n      0x40\n        /* \"#utility.yul\":4978:4987   */\n      dup4\n        /* \"#utility.yul\":4969:4976   */\n      dup6\n        /* \"#utility.yul\":4965:4988   */\n      sub\n        /* \"#utility.yul\":4961:4993   */\n      slt\n        /* \"#utility.yul\":4958:5010   */\n      iszero\n      tag_236\n      jumpi\n        /* \"#utility.yul\":5006:5007   */\n      0x00\n        /* \"#utility.yul\":5003:5004   */\n      0x00\n        /* \"#utility.yul\":4996:5008   */\n      revert\n        /* \"#utility.yul\":4958:5010   */\n    tag_236:\n        /* \"#utility.yul\":5029:5058   */\n      tag_237\n        /* \"#utility.yul\":5048:5057   */\n      dup4\n        /* \"#utility.yul\":5029:5058   */\n      tag_191\n      jump\t// in\n    tag_237:\n        /* \"#utility.yul\":5019:5058   */\n      swap5\n        /* \"#utility.yul\":5105:5107   */\n      0x20\n        /* \"#utility.yul\":5090:5108   */\n      swap4\n      swap1\n      swap4\n      add\n        /* \"#utility.yul\":5077:5109   */\n      calldataload\n      swap4\n      pop\n      pop\n      pop\n        /* \"#utility.yul\":4861:5115   */\n      jump\t// out\n        /* \"#utility.yul\":5120:5742   */\n    tag_57:\n      sub(shl(0xa0, 0x01), 0x01)\n        /* \"#utility.yul\":5377:5409   */\n      dup7\n      and\n        /* \"#utility.yul\":5359:5410   */\n      dup2\n      mstore\n      sub(shl(0x80, 0x01), 0x01)\n        /* \"#utility.yul\":5446:5493   */\n      dup6\n      and\n        /* \"#utility.yul\":5441:5443   */\n      0x20\n        /* \"#utility.yul\":5426:5444   */\n      dup3\n      add\n        /* \"#utility.yul\":5419:5494   */\n      mstore\n        /* \"#utility.yul\":5542:5546   */\n      0xff\n        /* \"#utility.yul\":5530:5547   */\n      dup5\n      and\n        /* \"#utility.yul\":5525:5527   */\n      0x40\n        /* \"#utility.yul\":5510:5528   */\n      dup3\n      add\n        /* \"#utility.yul\":5503:5548   */\n      mstore\n        /* \"#utility.yul\":5397:5400   */\n      0xa0\n        /* \"#utility.yul\":5579:5581   */\n      0x60\n        /* \"#utility.yul\":5564:5582   */\n      dup3\n      add\n        /* \"#utility.yul\":5557:5588   */\n      dup2\n      swap1\n      mstore\n      0x00\n      swap1\n        /* \"#utility.yul\":5605:5651   */\n      tag_239\n      swap1\n        /* \"#utility.yul\":5631:5650   */\n      dup4\n      add\n        /* \"#utility.yul\":5623:5629   */\n      dup6\n        /* \"#utility.yul\":5605:5651   */\n      tag_193\n      jump\t// in\n    tag_239:\n        /* \"#utility.yul\":5597:5651   */\n      swap1\n      pop\n      sub(shl(0x80, 0x01), 0x01)\n        /* \"#utility.yul\":5692:5698   */\n      dup4\n        /* \"#utility.yul\":5688:5735   */\n      and\n        /* \"#utility.yul\":5682:5685   */\n      0x80\n        /* \"#utility.yul\":5671:5680   */\n      dup4\n        /* \"#utility.yul\":5667:5686   */\n      add\n        /* \"#utility.yul\":5660:5736   */\n      mstore\n        /* \"#utility.yul\":5120:5742   */\n      swap7\n      swap6\n      pop\n      pop\n      pop\n      pop\n      pop\n      pop\n      jump\t// out\n        /* \"#utility.yul\":6432:6812   */\n    tag_110:\n        /* \"#utility.yul\":6511:6512   */\n      0x01\n        /* \"#utility.yul\":6507:6519   */\n      dup2\n      dup2\n      shr\n      swap1\n        /* \"#utility.yul\":6554:6566   */\n      dup3\n      and\n      dup1\n        /* \"#utility.yul\":6575:6636   */\n      tag_243\n      jumpi\n        /* \"#utility.yul\":6629:6633   */\n      0x7f\n        /* \"#utility.yul\":6621:6627   */\n      dup3\n        /* \"#utility.yul\":6617:6634   */\n      and\n        /* \"#utility.yul\":6607:6634   */\n      swap2\n      pop\n        /* \"#utility.yul\":6575:6636   */\n    tag_243:\n        /* \"#utility.yul\":6682:6684   */\n      0x20\n        /* \"#utility.yul\":6674:6680   */\n      dup3\n        /* \"#utility.yul\":6671:6685   */\n      lt\n        /* \"#utility.yul\":6651:6669   */\n      dup2\n        /* \"#utility.yul\":6648:6686   */\n      sub\n        /* \"#utility.yul\":6645:6806   */\n      tag_244\n      jumpi\n        /* \"#utility.yul\":6728:6738   */\n      0x4e487b71\n        /* \"#utility.yul\":6723:6726   */\n      0xe0\n        /* \"#utility.yul\":6719:6739   */\n      shl\n        /* \"#utility.yul\":6716:6717   */\n      0x00\n        /* \"#utility.yul\":6709:6740   */\n      mstore\n        /* \"#utility.yul\":6763:6767   */\n      0x22\n        /* \"#utility.yul\":6760:6761   */\n      0x04\n        /* \"#utility.yul\":6753:6768   */\n      mstore\n        /* \"#utility.yul\":6791:6795   */\n      0x24\n        /* \"#utility.yul\":6788:6789   */\n      0x00\n        /* \"#utility.yul\":6781:6796   */\n      revert\n        /* \"#utility.yul\":6645:6806   */\n    tag_244:\n      pop\n        /* \"#utility.yul\":6432:6812   */\n      swap2\n      swap1\n      pop\n      jump\t// out\n        /* \"#utility.yul\":6943:7461   */\n    tag_195:\n        /* \"#utility.yul\":7045:7047   */\n      0x1f\n        /* \"#utility.yul\":7040:7043   */\n      dup3\n        /* \"#utility.yul\":7037:7048   */\n      gt\n        /* \"#utility.yul\":7034:7455   */\n      iszero\n      tag_247\n      jumpi\n        /* \"#utility.yul\":7081:7086   */\n      dup1\n        /* \"#utility.yul\":7078:7079   */\n      0x00\n        /* \"#utility.yul\":7071:7087   */\n      mstore\n        /* \"#utility.yul\":7125:7129   */\n      0x20\n        /* \"#utility.yul\":7122:7123   */\n      0x00\n        /* \"#utility.yul\":7112:7130   */\n      keccak256\n        /* \"#utility.yul\":7195:7197   */\n      0x1f\n        /* \"#utility.yul\":7183:7193   */\n      dup5\n        /* \"#utility.yul\":7179:7198   */\n      add\n        /* \"#utility.yul\":7176:7177   */\n      0x05\n        /* \"#utility.yul\":7172:7199   */\n      shr\n        /* \"#utility.yul\":7166:7170   */\n      dup2\n        /* \"#utility.yul\":7162:7200   */\n      add\n        /* \"#utility.yul\":7231:7235   */\n      0x20\n        /* \"#utility.yul\":7219:7229   */\n      dup6\n        /* \"#utility.yul\":7216:7236   */\n      lt\n        /* \"#utility.yul\":7213:7260   */\n      iszero\n      tag_248\n      jumpi\n      pop\n        /* \"#utility.yul\":7254:7258   */\n      dup1\n        /* \"#utility.yul\":7213:7260   */\n    tag_248:\n        /* \"#utility.yul\":7309:7311   */\n      0x1f\n        /* \"#utility.yul\":7304:7307   */\n      dup5\n        /* \"#utility.yul\":7300:7312   */\n      add\n        /* \"#utility.yul\":7297:7298   */\n      0x05\n        /* \"#utility.yul\":7293:7313   */\n      shr\n        /* \"#utility.yul\":7287:7291   */\n      dup3\n        /* \"#utility.yul\":7283:7314   */\n      add\n        /* \"#utility.yul\":7273:7314   */\n      swap2\n      pop\n        /* \"#utility.yul\":7364:7445   */\n    tag_249:\n        /* \"#utility.yul\":7382:7384   */\n      dup2\n        /* \"#utility.yul\":7375:7380   */\n      dup2\n        /* \"#utility.yul\":7372:7385   */\n      lt\n        /* \"#utility.yul\":7364:7445   */\n      iszero\n      tag_251\n      jumpi\n        /* \"#utility.yul\":7441:7442   */\n      0x00\n        /* \"#utility.yul\":7427:7443   */\n      dup2\n      sstore\n        /* \"#utility.yul\":7408:7409   */\n      0x01\n        /* \"#utility.yul\":7397:7410   */\n      add\n        /* \"#utility.yul\":7364:7445   */\n      jump(tag_249)\n    tag_251:\n        /* \"#utility.yul\":7368:7371   */\n      pop\n      pop\n        /* \"#utility.yul\":7034:7455   */\n    tag_247:\n        /* \"#utility.yul\":6943:7461   */\n      pop\n      pop\n      pop\n      jump\t// out\n        /* \"#utility.yul\":7637:8936   */\n    tag_82:\n        /* \"#utility.yul\":7763:7766   */\n      dup2\n        /* \"#utility.yul\":7757:7767   */\n      mload\n        /* \"#utility.yul\":7790:7808   */\n      0xffffffffffffffff\n        /* \"#utility.yul\":7782:7788   */\n      dup2\n        /* \"#utility.yul\":7779:7809   */\n      gt\n        /* \"#utility.yul\":7776:7832   */\n      iszero\n      tag_255\n      jumpi\n        /* \"#utility.yul\":7812:7830   */\n      tag_255\n      tag_192\n      jump\t// in\n    tag_255:\n        /* \"#utility.yul\":7841:7938   */\n      tag_256\n        /* \"#utility.yul\":7931:7937   */\n      dup2\n        /* \"#utility.yul\":7891:7929   */\n      tag_257\n        /* \"#utility.yul\":7923:7927   */\n      dup5\n        /* \"#utility.yul\":7917:7928   */\n      sload\n        /* \"#utility.yul\":7891:7929   */\n      tag_110\n      jump\t// in\n    tag_257:\n        /* \"#utility.yul\":7885:7889   */\n      dup5\n        /* \"#utility.yul\":7841:7938   */\n      tag_195\n      jump\t// in\n    tag_256:\n        /* \"#utility.yul\":7987:7991   */\n      0x20\n        /* \"#utility.yul\":8018:8020   */\n      0x1f\n        /* \"#utility.yul\":8007:8021   */\n      dup3\n      gt\n        /* \"#utility.yul\":8035:8036   */\n      0x01\n        /* \"#utility.yul\":8030:8679   */\n      dup2\n      eq\n      tag_259\n      jumpi\n        /* \"#utility.yul\":8723:8724   */\n      0x00\n        /* \"#utility.yul\":8740:8746   */\n      dup4\n        /* \"#utility.yul\":8737:8826   */\n      iszero\n      tag_260\n      jumpi\n      pop\n        /* \"#utility.yul\":8792:8811   */\n      dup5\n      dup3\n      add\n        /* \"#utility.yul\":8786:8812   */\n      mload\n        /* \"#utility.yul\":8737:8826   */\n    tag_260:\n      not(0x00)\n        /* \"#utility.yul\":7594:7595   */\n      0x03\n        /* \"#utility.yul\":7590:7601   */\n      dup6\n      swap1\n      shl\n        /* \"#utility.yul\":7586:7610   */\n      shr\n        /* \"#utility.yul\":7582:7611   */\n      not\n        /* \"#utility.yul\":7572:7612   */\n      and\n        /* \"#utility.yul\":7618:7619   */\n      0x01\n        /* \"#utility.yul\":7614:7625   */\n      dup5\n      swap1\n      shl\n        /* \"#utility.yul\":7569:7626   */\n      or\n        /* \"#utility.yul\":8839:8920   */\n      dup5\n      sstore\n        /* \"#utility.yul\":8000:8930   */\n      jump(tag_251)\n        /* \"#utility.yul\":8030:8679   */\n    tag_259:\n        /* \"#utility.yul\":6890:6891   */\n      0x00\n        /* \"#utility.yul\":6883:6897   */\n      dup5\n      dup2\n      mstore\n        /* \"#utility.yul\":6927:6931   */\n      0x20\n        /* \"#utility.yul\":6914:6932   */\n      dup2\n      keccak256\n      not(0x1f)\n        /* \"#utility.yul\":8066:8086   */\n      dup6\n      and\n      swap2\n        /* \"#utility.yul\":8184:8406   */\n    tag_263:\n        /* \"#utility.yul\":8198:8205   */\n      dup3\n        /* \"#utility.yul\":8195:8196   */\n      dup2\n        /* \"#utility.yul\":8192:8206   */\n      lt\n        /* \"#utility.yul\":8184:8406   */\n      iszero\n      tag_265\n      jumpi\n        /* \"#utility.yul\":8280:8299   */\n      dup8\n      dup6\n      add\n        /* \"#utility.yul\":8274:8300   */\n      mload\n        /* \"#utility.yul\":8259:8301   */\n      dup3\n      sstore\n        /* \"#utility.yul\":8387:8391   */\n      0x20\n        /* \"#utility.yul\":8372:8392   */\n      swap5\n      dup6\n      add\n      swap5\n        /* \"#utility.yul\":8340:8341   */\n      0x01\n        /* \"#utility.yul\":8328:8342   */\n      swap1\n      swap3\n      add\n      swap2\n        /* \"#utility.yul\":8214:8226   */\n      add\n        /* \"#utility.yul\":8184:8406   */\n      jump(tag_263)\n    tag_265:\n        /* \"#utility.yul\":8188:8191   */\n      pop\n        /* \"#utility.yul\":8434:8440   */\n      dup5\n        /* \"#utility.yul\":8425:8432   */\n      dup3\n        /* \"#utility.yul\":8422:8441   */\n      lt\n        /* \"#utility.yul\":8419:8620   */\n      iszero\n      tag_266\n      jumpi\n        /* \"#utility.yul\":8495:8514   */\n      dup7\n      dup5\n      add\n        /* \"#utility.yul\":8489:8515   */\n      mload\n      not(0x00)\n        /* \"#utility.yul\":8578:8579   */\n      0x03\n        /* \"#utility.yul\":8574:8588   */\n      dup8\n      swap1\n      shl\n        /* \"#utility.yul\":8590:8593   */\n      0xf8\n        /* \"#utility.yul\":8570:8594   */\n      and\n        /* \"#utility.yul\":8566:8603   */\n      shr\n        /* \"#utility.yul\":8562:8604   */\n      not\n        /* \"#utility.yul\":8547:8605   */\n      and\n        /* \"#utility.yul\":8532:8606   */\n      dup2\n      sstore\n        /* \"#utility.yul\":8419:8620   */\n    tag_266:\n      pop\n      pop\n      pop\n      pop\n        /* \"#utility.yul\":8666:8667   */\n      0x01\n        /* \"#utility.yul\":8650:8664   */\n      swap1\n      dup2\n      shl\n        /* \"#utility.yul\":8646:8668   */\n      add\n        /* \"#utility.yul\":8633:8669   */\n      swap1\n      sstore\n      pop\n        /* \"#utility.yul\":7637:8936   */\n      jump\t// out\n        /* \"#utility.yul\":8941:9239   */\n    tag_84:\n        /* \"#utility.yul\":9126:9130   */\n      0xff\n        /* \"#utility.yul\":9118:9124   */\n      dup4\n        /* \"#utility.yul\":9114:9131   */\n      and\n        /* \"#utility.yul\":9103:9112   */\n      dup2\n        /* \"#utility.yul\":9096:9132   */\n      mstore\n        /* \"#utility.yul\":9168:9170   */\n      0x40\n        /* \"#utility.yul\":9163:9165   */\n      0x20\n        /* \"#utility.yul\":9152:9161   */\n      dup3\n        /* \"#utility.yul\":9148:9166   */\n      add\n        /* \"#utility.yul\":9141:9171   */\n      mstore\n        /* \"#utility.yul\":9077:9081   */\n      0x00\n        /* \"#utility.yul\":9188:9233   */\n      tag_268\n        /* \"#utility.yul\":9229:9231   */\n      0x40\n        /* \"#utility.yul\":9218:9227   */\n      dup4\n        /* \"#utility.yul\":9214:9232   */\n      add\n        /* \"#utility.yul\":9206:9212   */\n      dup5\n        /* \"#utility.yul\":9188:9233   */\n      tag_193\n      jump\t// in\n    tag_268:\n        /* \"#utility.yul\":9180:9233   */\n      swap5\n        /* \"#utility.yul\":8941:9239   */\n      swap4\n      pop\n      pop\n      pop\n      pop\n      jump\t// out\n\n    auxdata: 0xa26469706673582212200d8728b11ca9fbd32e3dd242ae48ac7e6c579510b038101ee8fc761890c3779364736f6c634300081e0033\n}\n",
				"bytecode": {
					"linkReferences": {},
					"object": "6080604052348015600e575f5ffd5b50610f228061001c5f395ff3fe608060405234801561000f575f5ffd5b50600436106100a6575f3560e01c8063ae9a46551161006e578063ae9a465514610175578063bcc1367c14610188578063c4522c92146101a8578063c4d66de8146101bb578063cf120a5b146101ce578063f2fde38b146101f2575f5ffd5b80632d3238fe146100aa578063515f72ce146100ef578063715018a6146101045780638da5cb5b1461010c5780639937464214610146575b5f5ffd5b6100d26100b8366004610a80565b60016020525f90815260409020546001600160801b031681565b6040516001600160801b0390911681526020015b60405180910390f35b6101026100fd366004610aca565b610205565b005b610102610418565b7f9016d09d72d40fdae2fd8ceac6b6234c7706214fd39c1cd1e609a0528c199300546040516001600160a01b0390911681526020016100e6565b610168610154366004610a80565b5f6020819052908152604090205460ff1681565b6040516100e69190610bb8565b610102610183366004610bde565b61042b565b61019b610196366004610c0f565b6104d5565b6040516100e69190610c56565b6101026101b6366004610a80565b610629565b6101026101c9366004610a80565b6106cb565b6101e16101dc366004610d0c565b6107e2565b6040516100e6959493929190610d34565b610102610200366004610a80565b6108d6565b6002335f9081526020819052604090205460ff16600281111561022a5761022a610ba4565b148061025857506001335f9081526020819052604090205460ff16600281111561025657610256610ba4565b145b6102995760405162461bcd60e51b815260206004820152600d60248201526c27b7363c9031bab9ba37b6b2b960991b60448201526064015b60405180910390fd5b60018260ff16101580156102b1575060058260ff1611155b6102ee5760405162461bcd60e51b815260206004820152600e60248201526d496e76616c696420726174696e6760901b6044820152606401610290565b6001600160801b038084165f818152600260208181526040808420815160a08101835233815280840196875260ff808b16938201938452606082018a8152428a16608084015283546001818101865594895295909720825160049096020180546001600160a01b03969096166001600160a01b0319909616959095178555965191840180549351909716600160801b0270ffffffffffffffffffffffffffffffffff199093169190971617179093559051908201906103ad9082610e0e565b5060809190910151600390910180546001600160801b0319166001600160801b0392831617905560405133918516907f8da348b329ec9cb5f933f377db6d8d5e57e2d8c1f3ba6f02ca2b1f147120da6a9061040b9086908690610ec9565b60405180910390a3505050565b610420610913565b6104295f61096e565b565b335f9081526020819052604081205460ff16600281111561044e5761044e610ba4565b146104885760405162461bcd60e51b815260206004820152600a60248201526927b7363c9030b236b4b760b11b6044820152606401610290565b6001600160a01b03919091165f908152602081815260408083208054600160ff199091168117909155909152902080546001600160801b0319166001600160801b03909216919091179055565b6001600160801b0381165f908152600260209081526040808320805482518185028101850190935280835260609492939192909184015b8282101561061e575f8481526020908190206040805160a0810182526004860290920180546001600160a01b0316835260018101546001600160801b03811694840194909452600160801b90930460ff169082015260028201805491929160608401919061057990610d8a565b80601f01602080910402602001604051908101604052809291908181526020018280546105a590610d8a565b80156105f05780601f106105c7576101008083540402835291602001916105f0565b820191905f5260205f20905b8154815290600101906020018083116105d357829003601f168201915b5050509183525050600391909101546001600160801b0316602091820152908252600192909201910161050c565b505050509050919050565b335f9081526020819052604081205460ff16600281111561064c5761064c610ba4565b146106865760405162461bcd60e51b815260206004820152600a60248201526927b7363c9030b236b4b760b11b6044820152606401610290565b6001600160a01b0381165f90815260016020818152604080842080546001600160801b031916905590839052909120805460029260ff1990911690835b021790555050565b7ff0c57e16840df040f15088dc2f81fe391c3923bec73e23a9662efc9c229c6a008054600160401b810460ff16159067ffffffffffffffff165f811580156107105750825b90505f8267ffffffffffffffff16600114801561072c5750303b155b90508115801561073a575080155b156107585760405163f92ee8a960e01b815260040160405180910390fd5b845467ffffffffffffffff19166001178555831561078257845460ff60401b1916600160401b1785555b61078b866109de565b610794866109ef565b83156107da57845460ff60401b19168555604051600181527fc7f505b2f371ae2175ee4913f4499e1f2633a7b5936321eed1cdaeb6115181d29060200160405180910390a15b505050505050565b6002602052815f5260405f2081815481106107fb575f80fd5b5f9182526020909120600490910201805460018201546002830180546001600160a01b0390931695506001600160801b0382169450600160801b90910460ff16929161084690610d8a565b80601f016020809104026020016040519081016040528092919081815260200182805461087290610d8a565b80156108bd5780601f10610894576101008083540402835291602001916108bd565b820191905f5260205f20905b8154815290600101906020018083116108a057829003601f168201915b505050600390930154919250506001600160801b031685565b6108de610913565b6001600160a01b03811661090757604051631e4fbdf760e01b81525f6004820152602401610290565b6109108161096e565b50565b336109457f9016d09d72d40fdae2fd8ceac6b6234c7706214fd39c1cd1e609a0528c199300546001600160a01b031690565b6001600160a01b0316146104295760405163118cdaa760e01b8152336004820152602401610290565b7f9016d09d72d40fdae2fd8ceac6b6234c7706214fd39c1cd1e609a0528c19930080546001600160a01b031981166001600160a01b03848116918217845560405192169182907f8be0079c531659141344cd1fd0a4f28419497f9722a3daafe3b4186f6b6457e0905f90a3505050565b6109e6610a14565b61091081610a5d565b6001600160a01b0381165f908152602081905260408120805460ff19166001836106c3565b7ff0c57e16840df040f15088dc2f81fe391c3923bec73e23a9662efc9c229c6a0054600160401b900460ff1661042957604051631afcd79f60e31b815260040160405180910390fd5b6108de610a14565b80356001600160a01b0381168114610a7b575f5ffd5b919050565b5f60208284031215610a90575f5ffd5b610a9982610a65565b9392505050565b80356001600160801b0381168114610a7b575f5ffd5b634e487b7160e01b5f52604160045260245ffd5b5f5f5f60608486031215610adc575f5ffd5b610ae584610aa0565b9250602084013560ff81168114610afa575f5ffd5b9150604084013567ffffffffffffffff811115610b15575f5ffd5b8401601f81018613610b25575f5ffd5b803567ffffffffffffffff811115610b3f57610b3f610ab6565b604051601f8201601f19908116603f0116810167ffffffffffffffff81118282101715610b6e57610b6e610ab6565b604052818152828201602001881015610b85575f5ffd5b816020840160208301375f602083830101528093505050509250925092565b634e487b7160e01b5f52602160045260245ffd5b6020810160038310610bd857634e487b7160e01b5f52602160045260245ffd5b91905290565b5f5f60408385031215610bef575f5ffd5b610bf883610a65565b9150610c0660208401610aa0565b90509250929050565b5f60208284031215610c1f575f5ffd5b610a9982610aa0565b5f81518084528060208401602086015e5f602082860101526020601f19601f83011685010191505092915050565b5f602082016020835280845180835260408501915060408160051b8601019250602086015f5b82811015610d0057603f19878603018452815160018060a01b0381511686526001600160801b03602082015116602087015260ff6040820151166040870152606081015160a06060880152610cd460a0880182610c28565b6080928301516001600160801b0316979092019690965294506020938401939190910190600101610c7c565b50929695505050505050565b5f5f60408385031215610d1d575f5ffd5b610d2683610aa0565b946020939093013593505050565b6001600160a01b03861681526001600160801b038516602082015260ff8416604082015260a0606082018190525f90610d6f90830185610c28565b90506001600160801b03831660808301529695505050505050565b600181811c90821680610d9e57607f821691505b602082108103610dbc57634e487b7160e01b5f52602260045260245ffd5b50919050565b601f821115610e0957805f5260205f20601f840160051c81016020851015610de75750805b601f840160051c820191505b81811015610e06575f8155600101610df3565b50505b505050565b815167ffffffffffffffff811115610e2857610e28610ab6565b610e3c81610e368454610d8a565b84610dc2565b6020601f821160018114610e6e575f8315610e575750848201515b5f19600385901b1c1916600184901b178455610e06565b5f84815260208120601f198516915b82811015610e9d5787850151825560209485019460019092019101610e7d565b5084821015610eba57868401515f19600387901b60f8161c191681555b50505050600190811b01905550565b60ff83168152604060208201525f610ee46040830184610c28565b94935050505056fea26469706673582212200d8728b11ca9fbd32e3dd242ae48ac7e6c579510b038101ee8fc761890c3779364736f6c634300081e0033",
					"opcodes": "PUSH1 0x80 PUSH1 0x40 MSTORE CALLVALUE DUP1 ISZERO PUSH1 0xE JUMPI PUSH0 PUSH0 REVERT JUMPDEST POP PUSH2 0xF22 DUP1 PUSH2 0x1C PUSH0 CODECOPY PUSH0 RETURN INVALID PUSH1 0x80 PUSH1 0x40 MSTORE CALLVALUE DUP1 ISZERO PUSH2 0xF JUMPI PUSH0 PUSH0 REVERT JUMPDEST POP PUSH1 0x4 CALLDATASIZE LT PUSH2 0xA6 JUMPI PUSH0 CALLDATALOAD PUSH1 0xE0 SHR DUP1 PUSH4 0xAE9A4655 GT PUSH2 0x6E JUMPI DUP1 PUSH4 0xAE9A4655 EQ PUSH2 0x175 JUMPI DUP1 PUSH4 0xBCC1367C EQ PUSH2 0x188 JUMPI DUP1 PUSH4 0xC4522C92 EQ PUSH2 0x1A8 JUMPI DUP1 PUSH4 0xC4D66DE8 EQ PUSH2 0x1BB JUMPI DUP1 PUSH4 0xCF120A5B EQ PUSH2 0x1CE JUMPI DUP1 PUSH4 0xF2FDE38B EQ PUSH2 0x1F2 JUMPI PUSH0 PUSH0 REVERT JUMPDEST DUP1 PUSH4 0x2D3238FE EQ PUSH2 0xAA JUMPI DUP1 PUSH4 0x515F72CE EQ PUSH2 0xEF JUMPI DUP1 PUSH4 0x715018A6 EQ PUSH2 0x104 JUMPI DUP1 PUSH4 0x8DA5CB5B EQ PUSH2 0x10C JUMPI DUP1 PUSH4 0x99374642 EQ PUSH2 0x146 JUMPI JUMPDEST PUSH0 PUSH0 REVERT JUMPDEST PUSH2 0xD2 PUSH2 0xB8 CALLDATASIZE PUSH1 0x4 PUSH2 0xA80 JUMP JUMPDEST PUSH1 0x1 PUSH1 0x20 MSTORE PUSH0 SWAP1 DUP2 MSTORE PUSH1 0x40 SWAP1 KECCAK256 SLOAD PUSH1 0x1 PUSH1 0x1 PUSH1 0x80 SHL SUB AND DUP2 JUMP JUMPDEST PUSH1 0x40 MLOAD PUSH1 0x1 PUSH1 0x1 PUSH1 0x80 SHL SUB SWAP1 SWAP2 AND DUP2 MSTORE PUSH1 0x20 ADD JUMPDEST PUSH1 0x40 MLOAD DUP1 SWAP2 SUB SWAP1 RETURN JUMPDEST PUSH2 0x102 PUSH2 0xFD CALLDATASIZE PUSH1 0x4 PUSH2 0xACA JUMP JUMPDEST PUSH2 0x205 JUMP JUMPDEST STOP JUMPDEST PUSH2 0x102 PUSH2 0x418 JUMP JUMPDEST PUSH32 0x9016D09D72D40FDAE2FD8CEAC6B6234C7706214FD39C1CD1E609A0528C199300 SLOAD PUSH1 0x40 MLOAD PUSH1 0x1 PUSH1 0x1 PUSH1 0xA0 SHL SUB SWAP1 SWAP2 AND DUP2 MSTORE PUSH1 0x20 ADD PUSH2 0xE6 JUMP JUMPDEST PUSH2 0x168 PUSH2 0x154 CALLDATASIZE PUSH1 0x4 PUSH2 0xA80 JUMP JUMPDEST PUSH0 PUSH1 0x20 DUP2 SWAP1 MSTORE SWAP1 DUP2 MSTORE PUSH1 0x40 SWAP1 KECCAK256 SLOAD PUSH1 0xFF AND DUP2 JUMP JUMPDEST PUSH1 0x40 MLOAD PUSH2 0xE6 SWAP2 SWAP1 PUSH2 0xBB8 JUMP JUMPDEST PUSH2 0x102 PUSH2 0x183 CALLDATASIZE PUSH1 0x4 PUSH2 0xBDE JUMP JUMPDEST PUSH2 0x42B JUMP JUMPDEST PUSH2 0x19B PUSH2 0x196 CALLDATASIZE PUSH1 0x4 PUSH2 0xC0F JUMP JUMPDEST PUSH2 0x4D5 JUMP JUMPDEST PUSH1 0x40 MLOAD PUSH2 0xE6 SWAP2 SWAP1 PUSH2 0xC56 JUMP JUMPDEST PUSH2 0x102 PUSH2 0x1B6 CALLDATASIZE PUSH1 0x4 PUSH2 0xA80 JUMP JUMPDEST PUSH2 0x629 JUMP JUMPDEST PUSH2 0x102 PUSH2 0x1C9 CALLDATASIZE PUSH1 0x4 PUSH2 0xA80 JUMP JUMPDEST PUSH2 0x6CB JUMP JUMPDEST PUSH2 0x1E1 PUSH2 0x1DC CALLDATASIZE PUSH1 0x4 PUSH2 0xD0C JUMP JUMPDEST PUSH2 0x7E2 JUMP JUMPDEST PUSH1 0x40 MLOAD PUSH2 0xE6 SWAP6 SWAP5 SWAP4 SWAP3 SWAP2 SWAP1 PUSH2 0xD34 JUMP JUMPDEST PUSH2 0x102 PUSH2 0x200 CALLDATASIZE PUSH1 0x4 PUSH2 0xA80 JUMP JUMPDEST PUSH2 0x8D6 JUMP JUMPDEST PUSH1 0x2 CALLER PUSH0 SWAP1 DUP2 MSTORE PUSH1 0x20 DUP2 SWAP1 MSTORE PUSH1 0x40 SWAP1 KECCAK256 SLOAD PUSH1 0xFF AND PUSH1 0x2 DUP2 GT ISZERO PUSH2 0x22A JUMPI PUSH2 0x22A PUSH2 0xBA4 JUMP JUMPDEST EQ DUP1 PUSH2 0x258 JUMPI POP PUSH1 0x1 CALLER PUSH0 SWAP1 DUP2 MSTORE PUSH1 0x20 DUP2 SWAP1 MSTORE PUSH1 0x40 SWAP1 KECCAK256 SLOAD PUSH1 0xFF AND PUSH1 0x2 DUP2 GT ISZERO PUSH2 0x256 JUMPI PUSH2 0x256 PUSH2 0xBA4 JUMP JUMPDEST EQ JUMPDEST PUSH2 0x299 JUMPI PUSH1 0x40 MLOAD PUSH3 0x461BCD PUSH1 0xE5 SHL DUP2 MSTORE PUSH1 0x20 PUSH1 0x4 DUP3 ADD MSTORE PUSH1 0xD PUSH1 0x24 DUP3 ADD MSTORE PUSH13 0x27B7363C9031BAB9BA37B6B2B9 PUSH1 0x99 SHL PUSH1 0x44 DUP3 ADD MSTORE PUSH1 0x64 ADD JUMPDEST PUSH1 0x40 MLOAD DUP1 SWAP2 SUB SWAP1 REVERT JUMPDEST PUSH1 0x1 DUP3 PUSH1 0xFF AND LT ISZERO DUP1 ISZERO PUSH2 0x2B1 JUMPI POP PUSH1 0x5 DUP3 PUSH1 0xFF AND GT ISZERO JUMPDEST PUSH2 0x2EE JUMPI PUSH1 0x40 MLOAD PUSH3 0x461BCD PUSH1 0xE5 SHL DUP2 MSTORE PUSH1 0x20 PUSH1 0x4 DUP3 ADD MSTORE PUSH1 0xE PUSH1 0x24 DUP3 ADD MSTORE PUSH14 0x496E76616C696420726174696E67 PUSH1 0x90 SHL PUSH1 0x44 DUP3 ADD MSTORE PUSH1 0x64 ADD PUSH2 0x290 JUMP JUMPDEST PUSH1 0x1 PUSH1 0x1 PUSH1 0x80 SHL SUB DUP1 DUP5 AND PUSH0 DUP2 DUP2 MSTORE PUSH1 0x2 PUSH1 0x20 DUP2 DUP2 MSTORE PUSH1 0x40 DUP1 DUP5 KECCAK256 DUP2 MLOAD PUSH1 0xA0 DUP2 ADD DUP4 MSTORE CALLER DUP2 MSTORE DUP1 DUP5 ADD SWAP7 DUP8 MSTORE PUSH1 0xFF DUP1 DUP12 AND SWAP4 DUP3 ADD SWAP4 DUP5 MSTORE PUSH1 0x60 DUP3 ADD DUP11 DUP2 MSTORE TIMESTAMP DUP11 AND PUSH1 0x80 DUP5 ADD MSTORE DUP4 SLOAD PUSH1 0x1 DUP2 DUP2 ADD DUP7 SSTORE SWAP5 DUP10 MSTORE SWAP6 SWAP1 SWAP8 KECCAK256 DUP3 MLOAD PUSH1 0x4 SWAP1 SWAP7 MUL ADD DUP1 SLOAD PUSH1 0x1 PUSH1 0x1 PUSH1 0xA0 SHL SUB SWAP7 SWAP1 SWAP7 AND PUSH1 0x1 PUSH1 0x1 PUSH1 0xA0 SHL SUB NOT SWAP1 SWAP7 AND SWAP6 SWAP1 SWAP6 OR DUP6 SSTORE SWAP7 MLOAD SWAP2 DUP5 ADD DUP1 SLOAD SWAP4 MLOAD SWAP1 SWAP8 AND PUSH1 0x1 PUSH1 0x80 SHL MUL PUSH17 0xFFFFFFFFFFFFFFFFFFFFFFFFFFFFFFFFFF NOT SWAP1 SWAP4 AND SWAP2 SWAP1 SWAP8 AND OR OR SWAP1 SWAP4 SSTORE SWAP1 MLOAD SWAP1 DUP3 ADD SWAP1 PUSH2 0x3AD SWAP1 DUP3 PUSH2 0xE0E JUMP JUMPDEST POP PUSH1 0x80 SWAP2 SWAP1 SWAP2 ADD MLOAD PUSH1 0x3 SWAP1 SWAP2 ADD DUP1 SLOAD PUSH1 0x1 PUSH1 0x1 PUSH1 0x80 SHL SUB NOT AND PUSH1 0x1 PUSH1 0x1 PUSH1 0x80 SHL SUB SWAP3 DUP4 AND OR SWAP1 SSTORE PUSH1 0x40 MLOAD CALLER SWAP2 DUP6 AND SWAP1 PUSH32 0x8DA348B329EC9CB5F933F377DB6D8D5E57E2D8C1F3BA6F02CA2B1F147120DA6A SWAP1 PUSH2 0x40B SWAP1 DUP7 SWAP1 DUP7 SWAP1 PUSH2 0xEC9 JUMP JUMPDEST PUSH1 0x40 MLOAD DUP1 SWAP2 SUB SWAP1 LOG3 POP POP POP JUMP JUMPDEST PUSH2 0x420 PUSH2 0x913 JUMP JUMPDEST PUSH2 0x429 PUSH0 PUSH2 0x96E JUMP JUMPDEST JUMP JUMPDEST CALLER PUSH0 SWAP1 DUP2 MSTORE PUSH1 0x20 DUP2 SWAP1 MSTORE PUSH1 0x40 DUP2 KECCAK256 SLOAD PUSH1 0xFF AND PUSH1 0x2 DUP2 GT ISZERO PUSH2 0x44E JUMPI PUSH2 0x44E PUSH2 0xBA4 JUMP JUMPDEST EQ PUSH2 0x488 JUMPI PUSH1 0x40 MLOAD PUSH3 0x461BCD PUSH1 0xE5 SHL DUP2 MSTORE PUSH1 0x20 PUSH1 0x4 DUP3 ADD MSTORE PUSH1 0xA PUSH1 0x24 DUP3 ADD MSTORE PUSH10 0x27B7363C9030B236B4B7 PUSH1 0xB1 SHL PUSH1 0x44 DUP3 ADD MSTORE PUSH1 0x64 ADD PUSH2 0x290 JUMP JUMPDEST PUSH1 0x1 PUSH1 0x1 PUSH1 0xA0 SHL SUB SWAP2 SWAP1 SWAP2 AND PUSH0 SWAP1 DUP2 MSTORE PUSH1 0x20 DUP2 DUP2 MSTORE PUSH1 0x40 DUP1 DUP4 KECCAK256 DUP1 SLOAD PUSH1 0x1 PUSH1 0xFF NOT SWAP1 SWAP2 AND DUP2 OR SWAP1 SWAP2 SSTORE SWAP1 SWAP2 MSTORE SWAP1 KECCAK256 DUP1 SLOAD PUSH1 0x1 PUSH1 0x1 PUSH1 0x80 SHL SUB NOT AND PUSH1 0x1 PUSH1 0x1 PUSH1 0x80 SHL SUB SWAP1 SWAP3 AND SWAP2 SWAP1 SWAP2 OR SWAP1 SSTORE JUMP JUMPDEST PUSH1 0x1 PUSH1 0x1 PUSH1 0x80 SHL SUB DUP2 AND PUSH0 SWAP1 DUP2 MSTORE PUSH1 0x2 PUSH1 0x20 SWAP1 DUP2 MSTORE PUSH1 0x40 DUP1 DUP4 KECCAK256 DUP1 SLOAD DUP3 MLOAD DUP2 DUP6 MUL DUP2 ADD DUP6 ADD SWAP1 SWAP4 MSTORE DUP1 DUP4 MSTORE PUSH1 0x60 SWAP5 SWAP3 SWAP4 SWAP2 SWAP3 SWAP1 SWAP2 DUP5 ADD JUMPDEST DUP3 DUP3 LT ISZERO PUSH2 0x61E JUMPI PUSH0 DUP5 DUP2 MSTORE PUSH1 0x20 SWAP1 DUP2 SWAP1 KECCAK256 PUSH1 0x40 DUP1 MLOAD PUSH1 0xA0 DUP2 ADD DUP3 MSTORE PUSH1 0x4 DUP7 MUL SWAP1 SWAP3 ADD DUP1 SLOAD PUSH1 0x1 PUSH1 0x1 PUSH1 0xA0 SHL SUB AND DUP4 MSTORE PUSH1 0x1 DUP2 ADD SLOAD PUSH1 0x1 PUSH1 0x1 PUSH1 0x80 SHL SUB DUP2 AND SWAP5 DUP5 ADD SWAP5 SWAP1 SWAP5 MSTORE PUSH1 0x1 PUSH1 0x80 SHL SWAP1 SWAP4 DIV PUSH1 0xFF AND SWAP1 DUP3 ADD MSTORE PUSH1 0x2 DUP3 ADD DUP1 SLOAD SWAP2 SWAP3 SWAP2 PUSH1 0x60 DUP5 ADD SWAP2 SWAP1 PUSH2 0x579 SWAP1 PUSH2 0xD8A JUMP JUMPDEST DUP1 PUSH1 0x1F ADD PUSH1 0x20 DUP1 SWAP2 DIV MUL PUSH1 0x20 ADD PUSH1 0x40 MLOAD SWAP1 DUP2 ADD PUSH1 0x40 MSTORE DUP1 SWAP3 SWAP2 SWAP1 DUP2 DUP2 MSTORE PUSH1 0x20 ADD DUP3 DUP1 SLOAD PUSH2 0x5A5 SWAP1 PUSH2 0xD8A JUMP JUMPDEST DUP1 ISZERO PUSH2 0x5F0 JUMPI DUP1 PUSH1 0x1F LT PUSH2 0x5C7 JUMPI PUSH2 0x100 DUP1 DUP4 SLOAD DIV MUL DUP4 MSTORE SWAP2 PUSH1 0x20 ADD SWAP2 PUSH2 0x5F0 JUMP JUMPDEST DUP3 ADD SWAP2 SWAP1 PUSH0 MSTORE PUSH1 0x20 PUSH0 KECCAK256 SWAP1 JUMPDEST DUP2 SLOAD DUP2 MSTORE SWAP1 PUSH1 0x1 ADD SWAP1 PUSH1 0x20 ADD DUP1 DUP4 GT PUSH2 0x5D3 JUMPI DUP3 SWAP1 SUB PUSH1 0x1F AND DUP3 ADD SWAP2 JUMPDEST POP POP POP SWAP2 DUP4 MSTORE POP POP PUSH1 0x3 SWAP2 SWAP1 SWAP2 ADD SLOAD PUSH1 0x1 PUSH1 0x1 PUSH1 0x80 SHL SUB AND PUSH1 0x20 SWAP2 DUP3 ADD MSTORE SWAP1 DUP3 MSTORE PUSH1 0x1 SWAP3 SWAP1 SWAP3 ADD SWAP2 ADD PUSH2 0x50C JUMP JUMPDEST POP POP POP POP SWAP1 POP SWAP2 SWAP1 POP JUMP JUMPDEST CALLER PUSH0 SWAP1 DUP2 MSTORE PUSH1 0x20 DUP2 SWAP1 MSTORE PUSH1 0x40 DUP2 KECCAK256 SLOAD PUSH1 0xFF AND PUSH1 0x2 DUP2 GT ISZERO PUSH2 0x64C JUMPI PUSH2 0x64C PUSH2 0xBA4 JUMP JUMPDEST EQ PUSH2 0x686 JUMPI PUSH1 0x40 MLOAD PUSH3 0x461BCD PUSH1 0xE5 SHL DUP2 MSTORE PUSH1 0x20 PUSH1 0x4 DUP3 ADD MSTORE PUSH1 0xA PUSH1 0x24 DUP3 ADD MSTORE PUSH10 0x27B7363C9030B236B4B7 PUSH1 0xB1 SHL PUSH1 0x44 DUP3 ADD MSTORE PUSH1 0x64 ADD PUSH2 0x290 JUMP JUMPDEST PUSH1 0x1 PUSH1 0x1 PUSH1 0xA0 SHL SUB DUP2 AND PUSH0 SWAP1 DUP2 MSTORE PUSH1 0x1 PUSH1 0x20 DUP2 DUP2 MSTORE PUSH1 0x40 DUP1 DUP5 KECCAK256 DUP1 SLOAD PUSH1 0x1 PUSH1 0x1 PUSH1 0x80 SHL SUB NOT AND SWAP1 SSTORE SWAP1 DUP4 SWAP1 MSTORE SWAP1 SWAP2 KECCAK256 DUP1 SLOAD PUSH1 0x2 SWAP3 PUSH1 0xFF NOT SWAP1 SWAP2 AND SWAP1 DUP4 JUMPDEST MUL OR SWAP1 SSTORE POP POP JUMP JUMPDEST PUSH32 0xF0C57E16840DF040F15088DC2F81FE391C3923BEC73E23A9662EFC9C229C6A00 DUP1 SLOAD PUSH1 0x1 PUSH1 0x40 SHL DUP2 DIV PUSH1 0xFF AND ISZERO SWAP1 PUSH8 0xFFFFFFFFFFFFFFFF AND PUSH0 DUP2 ISZERO DUP1 ISZERO PUSH2 0x710 JUMPI POP DUP3 JUMPDEST SWAP1 POP PUSH0 DUP3 PUSH8 0xFFFFFFFFFFFFFFFF AND PUSH1 0x1 EQ DUP1 ISZERO PUSH2 0x72C JUMPI POP ADDRESS EXTCODESIZE ISZERO JUMPDEST SWAP1 POP DUP2 ISZERO DUP1 ISZERO PUSH2 0x73A JUMPI POP DUP1 ISZERO JUMPDEST ISZERO PUSH2 0x758 JUMPI PUSH1 0x40 MLOAD PUSH4 0xF92EE8A9 PUSH1 0xE0 SHL DUP2 MSTORE PUSH1 0x4 ADD PUSH1 0x40 MLOAD DUP1 SWAP2 SUB SWAP1 REVERT JUMPDEST DUP5 SLOAD PUSH8 0xFFFFFFFFFFFFFFFF NOT AND PUSH1 0x1 OR DUP6 SSTORE DUP4 ISZERO PUSH2 0x782 JUMPI DUP5 SLOAD PUSH1 0xFF PUSH1 0x40 SHL NOT AND PUSH1 0x1 PUSH1 0x40 SHL OR DUP6 SSTORE JUMPDEST PUSH2 0x78B DUP7 PUSH2 0x9DE JUMP JUMPDEST PUSH2 0x794 DUP7 PUSH2 0x9EF JUMP JUMPDEST DUP4 ISZERO PUSH2 0x7DA JUMPI DUP5 SLOAD PUSH1 0xFF PUSH1 0x40 SHL NOT AND DUP6 SSTORE PUSH1 0x40 MLOAD PUSH1 0x1 DUP2 MSTORE PUSH32 0xC7F505B2F371AE2175EE4913F4499E1F2633A7B5936321EED1CDAEB6115181D2 SWAP1 PUSH1 0x20 ADD PUSH1 0x40 MLOAD DUP1 SWAP2 SUB SWAP1 LOG1 JUMPDEST POP POP POP POP POP POP JUMP JUMPDEST PUSH1 0x2 PUSH1 0x20 MSTORE DUP2 PUSH0 MSTORE PUSH1 0x40 PUSH0 KECCAK256 DUP2 DUP2 SLOAD DUP2 LT PUSH2 0x7FB JUMPI PUSH0 DUP1 REVERT JUMPDEST PUSH0 SWAP2 DUP3 MSTORE PUSH1 0x20 SWAP1 SWAP2 KECCAK256 PUSH1 0x4 SWAP1 SWAP2 MUL ADD DUP1 SLOAD PUSH1 0x1 DUP3 ADD SLOAD PUSH1 0x2 DUP4 ADD DUP1 SLOAD PUSH1 0x1 PUSH1 0x1 PUSH1 0xA0 SHL SUB SWAP1 SWAP4 AND SWAP6 POP PUSH1 0x1 PUSH1 0x1 PUSH1 0x80 SHL SUB DUP3 AND SWAP5 POP PUSH1 0x1 PUSH1 0x80 SHL SWAP1 SWAP2 DIV PUSH1 0xFF AND SWAP3 SWAP2 PUSH2 0x846 SWAP1 PUSH2 0xD8A JUMP JUMPDEST DUP1 PUSH1 0x1F ADD PUSH1 0x20 DUP1 SWAP2 DIV MUL PUSH1 0x20 ADD PUSH1 0x40 MLOAD SWAP1 DUP2 ADD PUSH1 0x40 MSTORE DUP1 SWAP3 SWAP2 SWAP1 DUP2 DUP2 MSTORE PUSH1 0x20 ADD DUP3 DUP1 SLOAD PUSH2 0x872 SWAP1 PUSH2 0xD8A JUMP JUMPDEST DUP1 ISZERO PUSH2 0x8BD JUMPI DUP1 PUSH1 0x1F LT PUSH2 0x894 JUMPI PUSH2 0x100 DUP1 DUP4 SLOAD DIV MUL DUP4 MSTORE SWAP2 PUSH1 0x20 ADD SWAP2 PUSH2 0x8BD JUMP JUMPDEST DUP3 ADD SWAP2 SWAP1 PUSH0 MSTORE PUSH1 0x20 PUSH0 KECCAK256 SWAP1 JUMPDEST DUP2 SLOAD DUP2 MSTORE SWAP1 PUSH1 0x1 ADD SWAP1 PUSH1 0x20 ADD DUP1 DUP4 GT PUSH2 0x8A0 JUMPI DUP3 SWAP1 SUB PUSH1 0x1F AND DUP3 ADD SWAP2 JUMPDEST POP POP POP PUSH1 0x3 SWAP1 SWAP4 ADD SLOAD SWAP2 SWAP3 POP POP PUSH1 0x1 PUSH1 0x1 PUSH1 0x80 SHL SUB AND DUP6 JUMP JUMPDEST PUSH2 0x8DE PUSH2 0x913 JUMP JUMPDEST PUSH1 0x1 PUSH1 0x1 PUSH1 0xA0 SHL SUB DUP2 AND PUSH2 0x907 JUMPI PUSH1 0x40 MLOAD PUSH4 0x1E4FBDF7 PUSH1 0xE0 SHL DUP2 MSTORE PUSH0 PUSH1 0x4 DUP3 ADD MSTORE PUSH1 0x24 ADD PUSH2 0x290 JUMP JUMPDEST PUSH2 0x910 DUP2 PUSH2 0x96E JUMP JUMPDEST POP JUMP JUMPDEST CALLER PUSH2 0x945 PUSH32 0x9016D09D72D40FDAE2FD8CEAC6B6234C7706214FD39C1CD1E609A0528C199300 SLOAD PUSH1 0x1 PUSH1 0x1 PUSH1 0xA0 SHL SUB AND SWAP1 JUMP JUMPDEST PUSH1 0x1 PUSH1 0x1 PUSH1 0xA0 SHL SUB AND EQ PUSH2 0x429 JUMPI PUSH1 0x40 MLOAD PUSH4 0x118CDAA7 PUSH1 0xE0 SHL DUP2 MSTORE CALLER PUSH1 0x4 DUP3 ADD MSTORE PUSH1 0x24 ADD PUSH2 0x290 JUMP JUMPDEST PUSH32 0x9016D09D72D40FDAE2FD8CEAC6B6234C7706214FD39C1CD1E609A0528C199300 DUP1 SLOAD PUSH1 0x1 PUSH1 0x1 PUSH1 0xA0 SHL SUB NOT DUP2 AND PUSH1 0x1 PUSH1 0x1 PUSH1 0xA0 SHL SUB DUP5 DUP2 AND SWAP2 DUP3 OR DUP5 SSTORE PUSH1 0x40 MLOAD SWAP3 AND SWAP2 DUP3 SWAP1 PUSH32 0x8BE0079C531659141344CD1FD0A4F28419497F9722A3DAAFE3B4186F6B6457E0 SWAP1 PUSH0 SWAP1 LOG3 POP POP POP JUMP JUMPDEST PUSH2 0x9E6 PUSH2 0xA14 JUMP JUMPDEST PUSH2 0x910 DUP2 PUSH2 0xA5D JUMP JUMPDEST PUSH1 0x1 PUSH1 0x1 PUSH1 0xA0 SHL SUB DUP2 AND PUSH0 SWAP1 DUP2 MSTORE PUSH1 0x20 DUP2 SWAP1 MSTORE PUSH1 0x40 DUP2 KECCAK256 DUP1 SLOAD PUSH1 0xFF NOT AND PUSH1 0x1 DUP4 PUSH2 0x6C3 JUMP JUMPDEST PUSH32 0xF0C57E16840DF040F15088DC2F81FE391C3923BEC73E23A9662EFC9C229C6A00 SLOAD PUSH1 0x1 PUSH1 0x40 SHL SWAP1 DIV PUSH1 0xFF AND PUSH2 0x429 JUMPI PUSH1 0x40 MLOAD PUSH4 0x1AFCD79F PUSH1 0xE3 SHL DUP2 MSTORE PUSH1 0x4 ADD PUSH1 0x40 MLOAD DUP1 SWAP2 SUB SWAP1 REVERT JUMPDEST PUSH2 0x8DE PUSH2 0xA14 JUMP JUMPDEST DUP1 CALLDATALOAD PUSH1 0x1 PUSH1 0x1 PUSH1 0xA0 SHL SUB DUP2 AND DUP2 EQ PUSH2 0xA7B JUMPI PUSH0 PUSH0 REVERT JUMPDEST SWAP2 SWAP1 POP JUMP JUMPDEST PUSH0 PUSH1 0x20 DUP3 DUP5 SUB SLT ISZERO PUSH2 0xA90 JUMPI PUSH0 PUSH0 REVERT JUMPDEST PUSH2 0xA99 DUP3 PUSH2 0xA65 JUMP JUMPDEST SWAP4 SWAP3 POP POP POP JUMP JUMPDEST DUP1 CALLDATALOAD PUSH1 0x1 PUSH1 0x1 PUSH1 0x80 SHL SUB DUP2 AND DUP2 EQ PUSH2 0xA7B JUMPI PUSH0 PUSH0 REVERT JUMPDEST PUSH4 0x4E487B71 PUSH1 0xE0 SHL PUSH0 MSTORE PUSH1 0x41 PUSH1 0x4 MSTORE PUSH1 0x24 PUSH0 REVERT JUMPDEST PUSH0 PUSH0 PUSH0 PUSH1 0x60 DUP5 DUP7 SUB SLT ISZERO PUSH2 0xADC JUMPI PUSH0 PUSH0 REVERT JUMPDEST PUSH2 0xAE5 DUP5 PUSH2 0xAA0 JUMP JUMPDEST SWAP3 POP PUSH1 0x20 DUP5 ADD CALLDATALOAD PUSH1 0xFF DUP2 AND DUP2 EQ PUSH2 0xAFA JUMPI PUSH0 PUSH0 REVERT JUMPDEST SWAP2 POP PUSH1 0x40 DUP5 ADD CALLDATALOAD PUSH8 0xFFFFFFFFFFFFFFFF DUP2 GT ISZERO PUSH2 0xB15 JUMPI PUSH0 PUSH0 REVERT JUMPDEST DUP5 ADD PUSH1 0x1F DUP2 ADD DUP7 SGT PUSH2 0xB25 JUMPI PUSH0 PUSH0 REVERT JUMPDEST DUP1 CALLDATALOAD PUSH8 0xFFFFFFFFFFFFFFFF DUP2 GT ISZERO PUSH2 0xB3F JUMPI PUSH2 0xB3F PUSH2 0xAB6 JUMP JUMPDEST PUSH1 0x40 MLOAD PUSH1 0x1F DUP3 ADD PUSH1 0x1F NOT SWAP1 DUP2 AND PUSH1 0x3F ADD AND DUP2 ADD PUSH8 0xFFFFFFFFFFFFFFFF DUP2 GT DUP3 DUP3 LT OR ISZERO PUSH2 0xB6E JUMPI PUSH2 0xB6E PUSH2 0xAB6 JUMP JUMPDEST PUSH1 0x40 MSTORE DUP2 DUP2 MSTORE DUP3 DUP3 ADD PUSH1 0x20 ADD DUP9 LT ISZERO PUSH2 0xB85 JUMPI PUSH0 PUSH0 REVERT JUMPDEST DUP2 PUSH1 0x20 DUP5 ADD PUSH1 0x20 DUP4 ADD CALLDATACOPY PUSH0 PUSH1 0x20 DUP4 DUP4 ADD ADD MSTORE DUP1 SWAP4 POP POP POP POP SWAP3 POP SWAP3 POP SWAP3 JUMP JUMPDEST PUSH4 0x4E487B71 PUSH1 0xE0 SHL PUSH0 MSTORE PUSH1 0x21 PUSH1 0x4 MSTORE PUSH1 0x24 PUSH0 REVERT JUMPDEST PUSH1 0x20 DUP2 ADD PUSH1 0x3 DUP4 LT PUSH2 0xBD8 JUMPI PUSH4 0x4E487B71 PUSH1 0xE0 SHL PUSH0 MSTORE PUSH1 0x21 PUSH1 0x4 MSTORE PUSH1 0x24 PUSH0 REVERT JUMPDEST SWAP2 SWAP1 MSTORE SWAP1 JUMP JUMPDEST PUSH0 PUSH0 PUSH1 0x40 DUP4 DUP6 SUB SLT ISZERO PUSH2 0xBEF JUMPI PUSH0 PUSH0 REVERT JUMPDEST PUSH2 0xBF8 DUP4 PUSH2 0xA65 JUMP JUMPDEST SWAP2 POP PUSH2 0xC06 PUSH1 0x20 DUP5 ADD PUSH2 0xAA0 JUMP JUMPDEST SWAP1 POP SWAP3 POP SWAP3 SWAP1 POP JUMP JUMPDEST PUSH0 PUSH1 0x20 DUP3 DUP5 SUB SLT ISZERO PUSH2 0xC1F JUMPI PUSH0 PUSH0 REVERT JUMPDEST PUSH2 0xA99 DUP3 PUSH2 0xAA0 JUMP JUMPDEST PUSH0 DUP2 MLOAD DUP1 DUP5 MSTORE DUP1 PUSH1 0x20 DUP5 ADD PUSH1 0x20 DUP7 ADD MCOPY PUSH0 PUSH1 0x20 DUP3 DUP7 ADD ADD MSTORE PUSH1 0x20 PUSH1 0x1F NOT PUSH1 0x1F DUP4 ADD AND DUP6 ADD ADD SWAP2 POP POP SWAP3 SWAP2 POP POP JUMP JUMPDEST PUSH0 PUSH1 0x20 DUP3 ADD PUSH1 0x20 DUP4 MSTORE DUP1 DUP5 MLOAD DUP1 DUP4 MSTORE PUSH1 0x40 DUP6 ADD SWAP2 POP PUSH1 0x40 DUP2 PUSH1 0x5 SHL DUP7 ADD ADD SWAP3 POP PUSH1 0x20 DUP7 ADD PUSH0 JUMPDEST DUP3 DUP2 LT ISZERO PUSH2 0xD00 JUMPI PUSH1 0x3F NOT DUP8 DUP7 SUB ADD DUP5 MSTORE DUP2 MLOAD PUSH1 0x1 DUP1 PUSH1 0xA0 SHL SUB DUP2 MLOAD AND DUP7 MSTORE PUSH1 0x1 PUSH1 0x1 PUSH1 0x80 SHL SUB PUSH1 0x20 DUP3 ADD MLOAD AND PUSH1 0x20 DUP8 ADD MSTORE PUSH1 0xFF PUSH1 0x40 DUP3 ADD MLOAD AND PUSH1 0x40 DUP8 ADD MSTORE PUSH1 0x60 DUP2 ADD MLOAD PUSH1 0xA0 PUSH1 0x60 DUP9 ADD MSTORE PUSH2 0xCD4 PUSH1 0xA0 DUP9 ADD DUP3 PUSH2 0xC28 JUMP JUMPDEST PUSH1 0x80 SWAP3 DUP4 ADD MLOAD PUSH1 0x1 PUSH1 0x1 PUSH1 0x80 SHL SUB AND SWAP8 SWAP1 SWAP3 ADD SWAP7 SWAP1 SWAP7 MSTORE SWAP5 POP PUSH1 0x20 SWAP4 DUP5 ADD SWAP4 SWAP2 SWAP1 SWAP2 ADD SWAP1 PUSH1 0x1 ADD PUSH2 0xC7C JUMP JUMPDEST POP SWAP3 SWAP7 SWAP6 POP POP POP POP POP POP JUMP JUMPDEST PUSH0 PUSH0 PUSH1 0x40 DUP4 DUP6 SUB SLT ISZERO PUSH2 0xD1D JUMPI PUSH0 PUSH0 REVERT JUMPDEST PUSH2 0xD26 DUP4 PUSH2 0xAA0 JUMP JUMPDEST SWAP5 PUSH1 0x20 SWAP4 SWAP1 SWAP4 ADD CALLDATALOAD SWAP4 POP POP POP JUMP JUMPDEST PUSH1 0x1 PUSH1 0x1 PUSH1 0xA0 SHL SUB DUP7 AND DUP2 MSTORE PUSH1 0x1 PUSH1 0x1 PUSH1 0x80 SHL SUB DUP6 AND PUSH1 0x20 DUP3 ADD MSTORE PUSH1 0xFF DUP5 AND PUSH1 0x40 DUP3 ADD MSTORE PUSH1 0xA0 PUSH1 0x60 DUP3 ADD DUP2 SWAP1 MSTORE PUSH0 SWAP1 PUSH2 0xD6F SWAP1 DUP4 ADD DUP6 PUSH2 0xC28 JUMP JUMPDEST SWAP1 POP PUSH1 0x1 PUSH1 0x1 PUSH1 0x80 SHL SUB DUP4 AND PUSH1 0x80 DUP4 ADD MSTORE SWAP7 SWAP6 POP POP POP POP POP POP JUMP JUMPDEST PUSH1 0x1 DUP2 DUP2 SHR SWAP1 DUP3 AND DUP1 PUSH2 0xD9E JUMPI PUSH1 0x7F DUP3 AND SWAP2 POP JUMPDEST PUSH1 0x20 DUP3 LT DUP2 SUB PUSH2 0xDBC JUMPI PUSH4 0x4E487B71 PUSH1 0xE0 SHL PUSH0 MSTORE PUSH1 0x22 PUSH1 0x4 MSTORE PUSH1 0x24 PUSH0 REVERT JUMPDEST POP SWAP2 SWAP1 POP JUMP JUMPDEST PUSH1 0x1F DUP3 GT ISZERO PUSH2 0xE09 JUMPI DUP1 PUSH0 MSTORE PUSH1 0x20 PUSH0 KECCAK256 PUSH1 0x1F DUP5 ADD PUSH1 0x5 SHR DUP2 ADD PUSH1 0x20 DUP6 LT ISZERO PUSH2 0xDE7 JUMPI POP DUP1 JUMPDEST PUSH1 0x1F DUP5 ADD PUSH1 0x5 SHR DUP3 ADD SWAP2 POP JUMPDEST DUP2 DUP2 LT ISZERO PUSH2 0xE06 JUMPI PUSH0 DUP2 SSTORE PUSH1 0x1 ADD PUSH2 0xDF3 JUMP JUMPDEST POP POP JUMPDEST POP POP POP JUMP JUMPDEST DUP2 MLOAD PUSH8 0xFFFFFFFFFFFFFFFF DUP2 GT ISZERO PUSH2 0xE28 JUMPI PUSH2 0xE28 PUSH2 0xAB6 JUMP JUMPDEST PUSH2 0xE3C DUP2 PUSH2 0xE36 DUP5 SLOAD PUSH2 0xD8A JUMP JUMPDEST DUP5 PUSH2 0xDC2 JUMP JUMPDEST PUSH1 0x20 PUSH1 0x1F DUP3 GT PUSH1 0x1 DUP2 EQ PUSH2 0xE6E JUMPI PUSH0 DUP4 ISZERO PUSH2 0xE57 JUMPI POP DUP5 DUP3 ADD MLOAD JUMPDEST PUSH0 NOT PUSH1 0x3 DUP6 SWAP1 SHL SHR NOT AND PUSH1 0x1 DUP5 SWAP1 SHL OR DUP5 SSTORE PUSH2 0xE06 JUMP JUMPDEST PUSH0 DUP5 DUP2 MSTORE PUSH1 0x20 DUP2 KECCAK256 PUSH1 0x1F NOT DUP6 AND SWAP2 JUMPDEST DUP3 DUP2 LT ISZERO PUSH2 0xE9D JUMPI DUP8 DUP6 ADD MLOAD DUP3 SSTORE PUSH1 0x20 SWAP5 DUP6 ADD SWAP5 PUSH1 0x1 SWAP1 SWAP3 ADD SWAP2 ADD PUSH2 0xE7D JUMP JUMPDEST POP DUP5 DUP3 LT ISZERO PUSH2 0xEBA JUMPI DUP7 DUP5 ADD MLOAD PUSH0 NOT PUSH1 0x3 DUP8 SWAP1 SHL PUSH1 0xF8 AND SHR NOT AND DUP2 SSTORE JUMPDEST POP POP POP POP PUSH1 0x1 SWAP1 DUP2 SHL ADD SWAP1 SSTORE POP JUMP JUMPDEST PUSH1 0xFF DUP4 AND DUP2 MSTORE PUSH1 0x40 PUSH1 0x20 DUP3 ADD MSTORE PUSH0 PUSH2 0xEE4 PUSH1 0x40 DUP4 ADD DUP5 PUSH2 0xC28 JUMP JUMPDEST SWAP5 SWAP4 POP POP POP POP JUMP INVALID LOG2 PUSH5 0x6970667358 0x22 SLT KECCAK256 0xD DUP8 0x28 0xB1 SHR 0xA9 EXTSTATICCALL 0xD3 0x2E RETURNDATASIZE 0xD2 TIMESTAMP 0xAE BASEFEE 0xAC PUSH31 0x6C579510B038101EE8FC761890C3779364736F6C634300081E003300000000 "
				},
				"gasEstimates": {
					"creation": {
						"codeDepositCost": "774800",
						"executionCost": "810",
						"totalCost": "775610"
					},
					"external": {
						"assignStaff(address,uint128)": "infinite",
						"getReviews(uint128)": "infinite",
						"initialize(address)": "infinite",
						"owner()": "2367",
						"rateRestaurant(uint128,uint8,string)": "infinite",
						"removeStaff(address)": "51197",
						"renounceOwnership()": "infinite",
						"restaurantReviews(uint128,uint256)": "infinite",
						"roles(address)": "2661",
						"staffRestaurants(address)": "2545",
						"transferOwnership(address)": "28475"
					}
				},
				"methodIdentifiers": {
					"assignStaff(address,uint128)": "ae9a4655",
					"getReviews(uint128)": "bcc1367c",
					"initialize(address)": "c4d66de8",
					"owner()": "8da5cb5b",
					"rateRestaurant(uint128,uint8,string)": "515f72ce",
					"removeStaff(address)": "c4522c92",
					"renounceOwnership()": "715018a6",
					"restaurantReviews(uint128,uint256)": "cf120a5b",
					"roles(address)": "99374642",
					"staffRestaurants(address)": "2d3238fe",
					"transferOwnership(address)": "f2fde38b"
				}
			},
			"storageLayout": {
				"storage": [
					{
						"astId": 516,
						"contract": "contracts/ReviewManager.sol:ReviewManager",
						"label": "roles",
						"offset": 0,
						"slot": "0",
						"type": "t_mapping(t_address,t_enum(Role)769)"
					},
					{
						"astId": 520,
						"contract": "contracts/ReviewManager.sol:ReviewManager",
						"label": "staffRestaurants",
						"offset": 0,
						"slot": "1",
						"type": "t_mapping(t_address,t_uint128)"
					},
					{
						"astId": 649,
						"contract": "contracts/ReviewManager.sol:ReviewManager",
						"label": "restaurantReviews",
						"offset": 0,
						"slot": "2",
						"type": "t_mapping(t_uint128,t_array(t_struct(Review)830_storage)dyn_storage)"
					}
				],
				"types": {
					"t_address": {
						"encoding": "inplace",
						"label": "address",
						"numberOfBytes": "20"
					},
					"t_array(t_struct(Review)830_storage)dyn_storage": {
						"base": "t_struct(Review)830_storage",
						"encoding": "dynamic_array",
						"label": "struct Review[]",
						"numberOfBytes": "32"
					},
					"t_enum(Role)769": {
						"encoding": "inplace",
						"label": "enum Role",
						"numberOfBytes": "1"
					},
					"t_mapping(t_address,t_enum(Role)769)": {
						"encoding": "mapping",
						"key": "t_address",
						"label": "mapping(address => enum Role)",
						"numberOfBytes": "32",
						"value": "t_enum(Role)769"
					},
					"t_mapping(t_address,t_uint128)": {
						"encoding": "mapping",
						"key": "t_address",
						"label": "mapping(address => uint128)",
						"numberOfBytes": "32",
						"value": "t_uint128"
					},
					"t_mapping(t_uint128,t_array(t_struct(Review)830_storage)dyn_storage)": {
						"encoding": "mapping",
						"key": "t_uint128",
						"label": "mapping(uint128 => struct Review[])",
						"numberOfBytes": "32",
						"value": "t_array(t_struct(Review)830_storage)dyn_storage"
					},
					"t_string_storage": {
						"encoding": "bytes",
						"label": "string",
						"numberOfBytes": "32"
					},
					"t_struct(Review)830_storage": {
						"encoding": "inplace",
						"label": "struct Review",
						"members": [
							{
								"astId": 821,
								"contract": "contracts/ReviewManager.sol:ReviewManager",
								"label": "customer",
								"offset": 0,
								"slot": "0",
								"type": "t_address"
							},
							{
								"astId": 823,
								"contract": "contracts/ReviewManager.sol:ReviewManager",
								"label": "restaurantId",
								"offset": 0,
								"slot": "1",
								"type": "t_uint128"
							},
							{
								"astId": 825,
								"contract": "contracts/ReviewManager.sol:ReviewManager",
								"label": "rating",
								"offset": 16,
								"slot": "1",
								"type": "t_uint8"
							},
							{
								"astId": 827,
								"contract": "contracts/ReviewManager.sol:ReviewManager",
								"label": "comment",
								"offset": 0,
								"slot": "2",
								"type": "t_string_storage"
							},
							{
								"astId": 829,
								"contract": "contracts/ReviewManager.sol:ReviewManager",
								"label": "timestamp",
								"offset": 0,
								"slot": "3",
								"type": "t_uint128"
							}
						],
						"numberOfBytes": "128"
					},
					"t_uint128": {
						"encoding": "inplace",
						"label": "uint128",
						"numberOfBytes": "16"
					},
					"t_uint8": {
						"encoding": "inplace",
						"label": "uint8",
						"numberOfBytes": "1"
					}
				}
			},
			"userdoc": {
				"kind": "user",
				"methods": {},
				"version": 1
			}
		}
	}
}