{
	"contracts/RestaurantManager.sol": {
		"RestaurantManager": {
			"abi": [
				{
					"inputs": [],
					"name": "InvalidInitialization",
					"type": "error"
				},
				{
					"inputs": [],
					"name": "NotInitializing",
					"type": "error"
				},
				{
					"inputs": [
						{
							"internalType": "address",
							"name": "owner",
							"type": "address"
						}
					],
					"name": "OwnableInvalidOwner",
					"type": "error"
				},
				{
					"inputs": [
						{
							"internalType": "address",
							"name": "account",
							"type": "address"
						}
					],
					"name": "OwnableUnauthorizedAccount",
					"type": "error"
				},
				{
					"anonymous": false,
					"inputs": [
						{
							"indexed": false,
							"internalType": "uint64",
							"name": "version",
							"type": "uint64"
						}
					],
					"name": "Initialized",
					"type": "event"
				},
				{
					"anonymous": false,
					"inputs": [
						{
							"indexed": true,
							"internalType": "address",
							"name": "previousOwner",
							"type": "address"
						},
						{
							"indexed": true,
							"internalType": "address",
							"name": "newOwner",
							"type": "address"
						}
					],
					"name": "OwnershipTransferred",
					"type": "event"
				},
				{
					"anonymous": false,
					"inputs": [
						{
							"indexed": true,
							"internalType": "uint128",
							"name": "restaurantId",
							"type": "uint128"
						},
						{
							"indexed": true,
							"internalType": "address",
							"name": "owner",
							"type": "address"
						}
					],
					"name": "RestaurantRegistered",
					"type": "event"
				},
				{
					"inputs": [
						{
							"internalType": "address",
							"name": "staff",
							"type": "address"
						},
						{
							"internalType": "uint128",
							"name": "restaurantId",
							"type": "uint128"
						}
					],
					"name": "assignStaff",
					"outputs": [],
					"stateMutability": "nonpayable",
					"type": "function"
				},
				{
					"inputs": [
						{
							"internalType": "uint128",
							"name": "restaurantId",
							"type": "uint128"
						}
					],
					"name": "getRestaurantOwner",
					"outputs": [
						{
							"internalType": "address",
							"name": "",
							"type": "address"
						}
					],
					"stateMutability": "view",
					"type": "function"
				},
				{
					"inputs": [
						{
							"internalType": "address",
							"name": "_owner",
							"type": "address"
						}
					],
					"name": "initialize",
					"outputs": [],
					"stateMutability": "nonpayable",
					"type": "function"
				},
				{
					"inputs": [],
					"name": "nextRestaurantId",
					"outputs": [
						{
							"internalType": "uint128",
							"name": "",
							"type": "uint128"
						}
					],
					"stateMutability": "view",
					"type": "function"
				},
				{
					"inputs": [],
					"name": "owner",
					"outputs": [
						{
							"internalType": "address",
							"name": "",
							"type": "address"
						}
					],
					"stateMutability": "view",
					"type": "function"
				},
				{
					"inputs": [],
					"name": "registerRestaurant",
					"outputs": [
						{
							"internalType": "uint128",
							"name": "",
							"type": "uint128"
						}
					],
					"stateMutability": "nonpayable",
					"type": "function"
				},
				{
					"inputs": [
						{
							"internalType": "address",
							"name": "staff",
							"type": "address"
						}
					],
					"name": "removeStaff",
					"outputs": [],
					"stateMutability": "nonpayable",
					"type": "function"
				},
				{
					"inputs": [],
					"name": "renounceOwnership",
					"outputs": [],
					"stateMutability": "nonpayable",
					"type": "function"
				},
				{
					"inputs": [
						{
							"internalType": "uint128",
							"name": "",
							"type": "uint128"
						}
					],
					"name": "restaurantOwners",
					"outputs": [
						{
							"internalType": "address",
							"name": "",
							"type": "address"
						}
					],
					"stateMutability": "view",
					"type": "function"
				},
				{
					"inputs": [
						{
							"internalType": "address",
							"name": "",
							"type": "address"
						}
					],
					"name": "roles",
					"outputs": [
						{
							"internalType": "enum Role",
							"name": "",
							"type": "uint8"
						}
					],
					"stateMutability": "view",
					"type": "function"
				},
				{
					"inputs": [
						{
							"internalType": "address",
							"name": "",
							"type": "address"
						}
					],
					"name": "staffRestaurants",
					"outputs": [
						{
							"internalType": "uint128",
							"name": "",
							"type": "uint128"
						}
					],
					"stateMutability": "view",
					"type": "function"
				},
				{
					"inputs": [
						{
							"internalType": "address",
							"name": "newOwner",
							"type": "address"
						}
					],
					"name": "transferOwnership",
					"outputs": [],
					"stateMutability": "nonpayable",
					"type": "function"
				}
			],
			"devdoc": {
				"errors": {
					"InvalidInitialization()": [
						{
							"details": "The contract is already initialized."
						}
					],
					"NotInitializing()": [
						{
							"details": "The contract is not initializing."
						}
					],
					"OwnableInvalidOwner(address)": [
						{
							"details": "The owner is not a valid owner account. (eg. `address(0)`)"
						}
					],
					"OwnableUnauthorizedAccount(address)": [
						{
							"details": "The caller account is not authorized to perform an operation."
						}
					]
				},
				"events": {
					"Initialized(uint64)": {
						"details": "Triggered when the contract has been initialized or reinitialized."
					}
				},
				"kind": "dev",
				"methods": {
					"owner()": {
						"details": "Returns the address of the current owner."
					},
					"renounceOwnership()": {
						"details": "Leaves the contract without owner. It will not be possible to call `onlyOwner` functions. Can only be called by the current owner. NOTE: Renouncing ownership will leave the contract without an owner, thereby disabling any functionality that is only available to the owner."
					},
					"transferOwnership(address)": {
						"details": "Transfers ownership of the contract to a new account (`newOwner`). Can only be called by the current owner."
					}
				},
				"version": 1
			},
			"evm": {
				"assembly": "    /* \"contracts/RestaurantManager.sol\":260:1073  contract RestaurantManager is OwnableUpgradeable, RoleAccess, IRestaurantManager {... */\n  mstore(0x40, 0x80)\n  callvalue\n  dup1\n  iszero\n  tag_1\n  jumpi\n  revert(0x00, 0x00)\ntag_1:\n  pop\n  dataSize(sub_0)\n  dup1\n  dataOffset(sub_0)\n  0x00\n  codecopy\n  0x00\n  return\nstop\n\nsub_0: assembly {\n        /* \"contracts/RestaurantManager.sol\":260:1073  contract RestaurantManager is OwnableUpgradeable, RoleAccess, IRestaurantManager {... */\n      mstore(0x40, 0x80)\n      callvalue\n      dup1\n      iszero\n      tag_1\n      jumpi\n      revert(0x00, 0x00)\n    tag_1:\n      pop\n      jumpi(tag_2, lt(calldatasize, 0x04))\n      shr(0xe0, calldataload(0x00))\n      dup1\n      0xae9a4655\n      gt\n      tag_15\n      jumpi\n      dup1\n      0xae9a4655\n      eq\n      tag_9\n      jumpi\n      dup1\n      0xb9588327\n      eq\n      tag_10\n      jumpi\n      dup1\n      0xc4522c92\n      eq\n      tag_11\n      jumpi\n      dup1\n      0xc4d66de8\n      eq\n      tag_12\n      jumpi\n      dup1\n      0xf2fde38b\n      eq\n      tag_13\n      jumpi\n      dup1\n      0xfa20fca7\n      eq\n      tag_14\n      jumpi\n      revert(0x00, 0x00)\n    tag_15:\n      dup1\n      0x2d3238fe\n      eq\n      tag_3\n      jumpi\n      dup1\n      0x46bd8077\n      eq\n      tag_4\n      jumpi\n      dup1\n      0x715018a6\n      eq\n      tag_5\n      jumpi\n      dup1\n      0x8da5cb5b\n      eq\n      tag_6\n      jumpi\n      dup1\n      0x99374642\n      eq\n      tag_7\n      jumpi\n      dup1\n      0xabca88f0\n      eq\n      tag_8\n      jumpi\n    tag_2:\n      revert(0x00, 0x00)\n        /* \"access/RoleAccess.sol\":170:221  mapping(address => uint128) public staffRestaurants */\n    tag_3:\n      tag_16\n      tag_17\n      calldatasize\n      0x04\n      tag_18\n      jump\t// in\n    tag_17:\n      mstore(0x20, 0x01)\n      0x00\n      swap1\n      dup2\n      mstore\n      0x40\n      swap1\n      keccak256\n      sload\n      sub(shl(0x80, 0x01), 0x01)\n      and\n      dup2\n      jump\n    tag_16:\n      mload(0x40)\n      sub(shl(0x80, 0x01), 0x01)\n        /* \"#utility.yul\":547:594   */\n      swap1\n      swap2\n      and\n        /* \"#utility.yul\":529:595   */\n      dup2\n      mstore\n        /* \"#utility.yul\":517:519   */\n      0x20\n        /* \"#utility.yul\":502:520   */\n      add\n        /* \"access/RoleAccess.sol\":170:221  mapping(address => uint128) public staffRestaurants */\n    tag_20:\n      mload(0x40)\n      dup1\n      swap2\n      sub\n      swap1\n      return\n        /* \"contracts/RestaurantManager.sol\":348:379  uint128 public nextRestaurantId */\n    tag_4:\n      sload(0x02)\n      tag_16\n      swap1\n      sub(shl(0x80, 0x01), 0x01)\n      and\n      dup2\n      jump\n        /* \"@openzeppelin/contracts-upgradeable/access/OwnableUpgradeable.sol\":3155:3256  function renounceOwnership() public virtual onlyOwner {... */\n    tag_5:\n      tag_25\n      tag_26\n      jump\t// in\n    tag_25:\n      stop\n        /* \"@openzeppelin/contracts-upgradeable/access/OwnableUpgradeable.sol\":2441:2585  function owner() public view virtual returns (address) {... */\n    tag_6:\n        /* \"@openzeppelin/contracts-upgradeable/access/OwnableUpgradeable.sol\":1313:1335  OwnableStorageLocation */\n      0x9016d09d72d40fdae2fd8ceac6b6234c7706214fd39c1cd1e609a0528c199300\n        /* \"@openzeppelin/contracts-upgradeable/access/OwnableUpgradeable.sol\":2570:2578  $._owner */\n      sload\n      sub(shl(0xa0, 0x01), 0x01)\n      and\n        /* \"@openzeppelin/contracts-upgradeable/access/OwnableUpgradeable.sol\":2441:2585  function owner() public view virtual returns (address) {... */\n    tag_27:\n      mload(0x40)\n      sub(shl(0xa0, 0x01), 0x01)\n        /* \"#utility.yul\":770:802   */\n      swap1\n      swap2\n      and\n        /* \"#utility.yul\":752:803   */\n      dup2\n      mstore\n        /* \"#utility.yul\":740:742   */\n      0x20\n        /* \"#utility.yul\":725:743   */\n      add\n        /* \"@openzeppelin/contracts-upgradeable/access/OwnableUpgradeable.sol\":2441:2585  function owner() public view virtual returns (address) {... */\n      tag_20\n        /* \"#utility.yul\":606:809   */\n      jump\n        /* \"access/RoleAccess.sol\":126:163  mapping(address => Role) public roles */\n    tag_7:\n      tag_31\n      tag_32\n      calldatasize\n      0x04\n      tag_18\n      jump\t// in\n    tag_32:\n      0x00\n      0x20\n      dup2\n      swap1\n      mstore\n      swap1\n      dup2\n      mstore\n      0x40\n      swap1\n      keccak256\n      sload\n      0xff\n      and\n      dup2\n      jump\n    tag_31:\n      mload(0x40)\n      tag_20\n      swap2\n      swap1\n      tag_35\n      jump\t// in\n        /* \"contracts/RestaurantManager.sol\":386:437  mapping(uint128 => address) public restaurantOwners */\n    tag_8:\n      tag_27\n      tag_37\n      calldatasize\n      0x04\n      tag_38\n      jump\t// in\n    tag_37:\n      mstore(0x20, 0x03)\n      0x00\n      swap1\n      dup2\n      mstore\n      0x40\n      swap1\n      keccak256\n      sload\n      sub(shl(0xa0, 0x01), 0x01)\n      and\n      dup2\n      jump\n        /* \"access/RoleAccess.sol\":769:939  function assignStaff(address staff, uint128 restaurantId) external onlyAdmin {... */\n    tag_9:\n      tag_25\n      tag_42\n      calldatasize\n      0x04\n      tag_43\n      jump\t// in\n    tag_42:\n      tag_44\n      jump\t// in\n        /* \"contracts/RestaurantManager.sol\":923:1070  function getRestaurantOwner(uint128 restaurantId) external view override returns (address) {... */\n    tag_10:\n      tag_27\n      tag_46\n      calldatasize\n      0x04\n      tag_38\n      jump\t// in\n    tag_46:\n      sub(shl(0x80, 0x01), 0x01)\n        /* \"contracts/RestaurantManager.sol\":1032:1062  restaurantOwners[restaurantId] */\n      and\n        /* \"contracts/RestaurantManager.sol\":1005:1012  address */\n      0x00\n        /* \"contracts/RestaurantManager.sol\":1032:1062  restaurantOwners[restaurantId] */\n      swap1\n      dup2\n      mstore\n        /* \"contracts/RestaurantManager.sol\":1032:1048  restaurantOwners */\n      0x03\n        /* \"contracts/RestaurantManager.sol\":1032:1062  restaurantOwners[restaurantId] */\n      0x20\n      mstore\n      0x40\n      swap1\n      keccak256\n      sload\n      sub(shl(0xa0, 0x01), 0x01)\n      and\n      swap1\n        /* \"contracts/RestaurantManager.sol\":923:1070  function getRestaurantOwner(uint128 restaurantId) external view override returns (address) {... */\n      jump\n        /* \"access/RoleAccess.sol\":947:1090  function removeStaff(address staff) external onlyAdmin {... */\n    tag_11:\n      tag_25\n      tag_50\n      calldatasize\n      0x04\n      tag_18\n      jump\t// in\n    tag_50:\n      tag_51\n      jump\t// in\n        /* \"contracts/RestaurantManager.sol\":446:607  function initialize(address _owner) public initializer {... */\n    tag_12:\n      tag_25\n      tag_53\n      calldatasize\n      0x04\n      tag_18\n      jump\t// in\n    tag_53:\n      tag_54\n      jump\t// in\n        /* \"@openzeppelin/contracts-upgradeable/access/OwnableUpgradeable.sol\":3405:3620  function transferOwnership(address newOwner) public virtual onlyOwner {... */\n    tag_13:\n      tag_25\n      tag_56\n      calldatasize\n      0x04\n      tag_18\n      jump\t// in\n    tag_56:\n      tag_57\n      jump\t// in\n        /* \"contracts/RestaurantManager.sol\":615:915  function registerRestaurant() external onlyAdmin returns (uint128) {... */\n    tag_14:\n      tag_16\n      tag_59\n      jump\t// in\n        /* \"@openzeppelin/contracts-upgradeable/access/OwnableUpgradeable.sol\":3155:3256  function renounceOwnership() public virtual onlyOwner {... */\n    tag_26:\n        /* \"@openzeppelin/contracts-upgradeable/access/OwnableUpgradeable.sol\":2334:2347  _checkOwner() */\n      tag_62\n        /* \"@openzeppelin/contracts-upgradeable/access/OwnableUpgradeable.sol\":2334:2345  _checkOwner */\n      tag_63\n        /* \"@openzeppelin/contracts-upgradeable/access/OwnableUpgradeable.sol\":2334:2347  _checkOwner() */\n      jump\t// in\n    tag_62:\n        /* \"@openzeppelin/contracts-upgradeable/access/OwnableUpgradeable.sol\":3219:3249  _transferOwnership(address(0)) */\n      tag_65\n        /* \"@openzeppelin/contracts-upgradeable/access/OwnableUpgradeable.sol\":3246:3247  0 */\n      0x00\n        /* \"@openzeppelin/contracts-upgradeable/access/OwnableUpgradeable.sol\":3219:3237  _transferOwnership */\n      tag_66\n        /* \"@openzeppelin/contracts-upgradeable/access/OwnableUpgradeable.sol\":3219:3249  _transferOwnership(address(0)) */\n      jump\t// in\n    tag_65:\n        /* \"@openzeppelin/contracts-upgradeable/access/OwnableUpgradeable.sol\":3155:3256  function renounceOwnership() public virtual onlyOwner {... */\n      jump\t// out\n        /* \"access/RoleAccess.sol\":769:939  function assignStaff(address staff, uint128 restaurantId) external onlyAdmin {... */\n    tag_44:\n        /* \"access/RoleAccess.sol\":276:286  msg.sender */\n      caller\n        /* \"access/RoleAccess.sol\":291:301  Role.Admin */\n      0x00\n        /* \"access/RoleAccess.sol\":270:287  roles[msg.sender] */\n      swap1\n      dup2\n      mstore\n      0x20\n      dup2\n      swap1\n      mstore\n      0x40\n      dup2\n      keccak256\n      sload\n      0xff\n      and\n        /* \"access/RoleAccess.sol\":270:301  roles[msg.sender] == Role.Admin */\n      0x02\n      dup2\n      gt\n      iszero\n      tag_75\n      jumpi\n      tag_75\n      tag_73\n      jump\t// in\n    tag_75:\n      eq\n        /* \"access/RoleAccess.sol\":262:316  require(roles[msg.sender] == Role.Admin, \"Only admin\") */\n      tag_76\n      jumpi\n      mload(0x40)\n      shl(0xe5, 0x461bcd)\n      dup2\n      mstore\n      0x04\n      add\n      tag_77\n      swap1\n      tag_78\n      jump\t// in\n    tag_77:\n      mload(0x40)\n      dup1\n      swap2\n      sub\n      swap1\n      revert\n    tag_76:\n      sub(shl(0xa0, 0x01), 0x01)\n        /* \"access/RoleAccess.sol\":857:869  roles[staff] */\n      swap2\n      swap1\n      swap2\n      and\n        /* \"access/RoleAccess.sol\":857:862  roles */\n      0x00\n        /* \"access/RoleAccess.sol\":857:869  roles[staff] */\n      swap1\n      dup2\n      mstore\n      0x20\n      dup2\n      dup2\n      mstore\n      0x40\n      dup1\n      dup4\n      keccak256\n        /* \"access/RoleAccess.sol\":857:882  roles[staff] = Role.Staff */\n      dup1\n      sload\n        /* \"access/RoleAccess.sol\":872:882  Role.Staff */\n      0x01\n      not(0xff)\n        /* \"access/RoleAccess.sol\":857:882  roles[staff] = Role.Staff */\n      swap1\n      swap2\n      and\n      dup2\n      or\n      swap1\n      swap2\n      sstore\n        /* \"access/RoleAccess.sol\":893:916  staffRestaurants[staff] */\n      swap1\n      swap2\n      mstore\n      swap1\n      keccak256\n        /* \"access/RoleAccess.sol\":893:931  staffRestaurants[staff] = restaurantId */\n      dup1\n      sload\n      not(sub(shl(0x80, 0x01), 0x01))\n      and\n      sub(shl(0x80, 0x01), 0x01)\n      swap1\n      swap3\n      and\n      swap2\n      swap1\n      swap2\n      or\n      swap1\n      sstore\n        /* \"access/RoleAccess.sol\":769:939  function assignStaff(address staff, uint128 restaurantId) external onlyAdmin {... */\n      jump\t// out\n        /* \"access/RoleAccess.sol\":947:1090  function removeStaff(address staff) external onlyAdmin {... */\n    tag_51:\n        /* \"access/RoleAccess.sol\":276:286  msg.sender */\n      caller\n        /* \"access/RoleAccess.sol\":291:301  Role.Admin */\n      0x00\n        /* \"access/RoleAccess.sol\":270:287  roles[msg.sender] */\n      swap1\n      dup2\n      mstore\n      0x20\n      dup2\n      swap1\n      mstore\n      0x40\n      dup2\n      keccak256\n      sload\n      0xff\n      and\n        /* \"access/RoleAccess.sol\":270:301  roles[msg.sender] == Role.Admin */\n      0x02\n      dup2\n      gt\n      iszero\n      tag_87\n      jumpi\n      tag_87\n      tag_73\n      jump\t// in\n    tag_87:\n      eq\n        /* \"access/RoleAccess.sol\":262:316  require(roles[msg.sender] == Role.Admin, \"Only admin\") */\n      tag_88\n      jumpi\n      mload(0x40)\n      shl(0xe5, 0x461bcd)\n      dup2\n      mstore\n      0x04\n      add\n      tag_77\n      swap1\n      tag_78\n      jump\t// in\n    tag_88:\n      sub(shl(0xa0, 0x01), 0x01)\n        /* \"access/RoleAccess.sol\":1020:1043  staffRestaurants[staff] */\n      dup2\n      and\n      0x00\n      swap1\n      dup2\n      mstore\n        /* \"access/RoleAccess.sol\":1020:1036  staffRestaurants */\n      0x01\n        /* \"access/RoleAccess.sol\":1020:1043  staffRestaurants[staff] */\n      0x20\n      dup2\n      dup2\n      mstore\n      0x40\n      dup1\n      dup5\n      keccak256\n        /* \"access/RoleAccess.sol\":1013:1043  delete staffRestaurants[staff] */\n      dup1\n      sload\n      not(sub(shl(0x80, 0x01), 0x01))\n      and\n      swap1\n      sstore\n        /* \"access/RoleAccess.sol\":1054:1066  roles[staff] */\n      swap1\n      dup4\n      swap1\n      mstore\n      swap1\n      swap2\n      keccak256\n        /* \"access/RoleAccess.sol\":1054:1082  roles[staff] = Role.Customer */\n      dup1\n      sload\n        /* \"access/RoleAccess.sol\":1069:1082  Role.Customer */\n      0x02\n      swap3\n      not(0xff)\n        /* \"access/RoleAccess.sol\":1054:1082  roles[staff] = Role.Customer */\n      swap1\n      swap2\n      and\n      swap1\n        /* \"access/RoleAccess.sol\":1069:1082  Role.Customer */\n      dup4\n        /* \"access/RoleAccess.sol\":1054:1082  roles[staff] = Role.Customer */\n    tag_92:\n      mul\n      or\n      swap1\n      sstore\n      pop\n        /* \"access/RoleAccess.sol\":947:1090  function removeStaff(address staff) external onlyAdmin {... */\n      pop\n      jump\t// out\n        /* \"contracts/RestaurantManager.sol\":446:607  function initialize(address _owner) public initializer {... */\n    tag_54:\n        /* \"@openzeppelin/contracts-upgradeable/proxy/utils/Initializable.sol\":3147:3213  0xf0c57e16840df040f15088dc2f81fe391c3923bec73e23a9662efc9c229c6a00 */\n      0xf0c57e16840df040f15088dc2f81fe391c3923bec73e23a9662efc9c229c6a00\n        /* \"@openzeppelin/contracts-upgradeable/proxy/utils/Initializable.sol\":4302:4317  $._initializing */\n      dup1\n      sload\n      shl(0x40, 0x01)\n      dup2\n      div\n      0xff\n      and\n        /* \"@openzeppelin/contracts-upgradeable/proxy/utils/Initializable.sol\":4301:4317  !$._initializing */\n      iszero\n      swap1\n        /* \"@openzeppelin/contracts-upgradeable/proxy/utils/Initializable.sol\":4348:4362  $._initialized */\n      0xffffffffffffffff\n      and\n        /* \"@openzeppelin/contracts-upgradeable/proxy/utils/Initializable.sol\":4158:4188  InitializableStorage storage $ */\n      0x00\n        /* \"@openzeppelin/contracts-upgradeable/proxy/utils/Initializable.sol\":4724:4740  initialized == 0 */\n      dup2\n      iszero\n        /* \"@openzeppelin/contracts-upgradeable/proxy/utils/Initializable.sol\":4724:4758  initialized == 0 && isTopLevelCall */\n      dup1\n      iszero\n      tag_96\n      jumpi\n      pop\n        /* \"@openzeppelin/contracts-upgradeable/proxy/utils/Initializable.sol\":4744:4758  isTopLevelCall */\n      dup3\n        /* \"@openzeppelin/contracts-upgradeable/proxy/utils/Initializable.sol\":4724:4758  initialized == 0 && isTopLevelCall */\n    tag_96:\n        /* \"@openzeppelin/contracts-upgradeable/proxy/utils/Initializable.sol\":4704:4758  bool initialSetup = initialized == 0 && isTopLevelCall */\n      swap1\n      pop\n        /* \"@openzeppelin/contracts-upgradeable/proxy/utils/Initializable.sol\":4768:4785  bool construction */\n      0x00\n        /* \"@openzeppelin/contracts-upgradeable/proxy/utils/Initializable.sol\":4788:4799  initialized */\n      dup3\n        /* \"@openzeppelin/contracts-upgradeable/proxy/utils/Initializable.sol\":4788:4804  initialized == 1 */\n      0xffffffffffffffff\n      and\n        /* \"@openzeppelin/contracts-upgradeable/proxy/utils/Initializable.sol\":4803:4804  1 */\n      0x01\n        /* \"@openzeppelin/contracts-upgradeable/proxy/utils/Initializable.sol\":4788:4804  initialized == 1 */\n      eq\n        /* \"@openzeppelin/contracts-upgradeable/proxy/utils/Initializable.sol\":4788:4838  initialized == 1 && address(this).code.length == 0 */\n      dup1\n      iszero\n      tag_97\n      jumpi\n      pop\n        /* \"@openzeppelin/contracts-upgradeable/proxy/utils/Initializable.sol\":4816:4820  this */\n      address\n        /* \"@openzeppelin/contracts-upgradeable/proxy/utils/Initializable.sol\":4808:4833  address(this).code.length */\n      extcodesize\n        /* \"@openzeppelin/contracts-upgradeable/proxy/utils/Initializable.sol\":4808:4838  address(this).code.length == 0 */\n      iszero\n        /* \"@openzeppelin/contracts-upgradeable/proxy/utils/Initializable.sol\":4788:4838  initialized == 1 && address(this).code.length == 0 */\n    tag_97:\n        /* \"@openzeppelin/contracts-upgradeable/proxy/utils/Initializable.sol\":4768:4838  bool construction = initialized == 1 && address(this).code.length == 0 */\n      swap1\n      pop\n        /* \"@openzeppelin/contracts-upgradeable/proxy/utils/Initializable.sol\":4854:4866  initialSetup */\n      dup2\n        /* \"@openzeppelin/contracts-upgradeable/proxy/utils/Initializable.sol\":4853:4866  !initialSetup */\n      iszero\n        /* \"@openzeppelin/contracts-upgradeable/proxy/utils/Initializable.sol\":4853:4883  !initialSetup && !construction */\n      dup1\n      iszero\n      tag_98\n      jumpi\n      pop\n        /* \"@openzeppelin/contracts-upgradeable/proxy/utils/Initializable.sol\":4871:4883  construction */\n      dup1\n        /* \"@openzeppelin/contracts-upgradeable/proxy/utils/Initializable.sol\":4870:4883  !construction */\n      iszero\n        /* \"@openzeppelin/contracts-upgradeable/proxy/utils/Initializable.sol\":4853:4883  !initialSetup && !construction */\n    tag_98:\n        /* \"@openzeppelin/contracts-upgradeable/proxy/utils/Initializable.sol\":4849:4940  if (!initialSetup && !construction) {... */\n      iszero\n      tag_99\n      jumpi\n        /* \"@openzeppelin/contracts-upgradeable/proxy/utils/Initializable.sol\":4906:4929  InvalidInitialization() */\n      mload(0x40)\n      shl(0xe0, 0xf92ee8a9)\n      dup2\n      mstore\n      0x04\n      add\n      mload(0x40)\n      dup1\n      swap2\n      sub\n      swap1\n      revert\n        /* \"@openzeppelin/contracts-upgradeable/proxy/utils/Initializable.sol\":4849:4940  if (!initialSetup && !construction) {... */\n    tag_99:\n        /* \"@openzeppelin/contracts-upgradeable/proxy/utils/Initializable.sol\":4949:4967  $._initialized = 1 */\n      dup5\n      sload\n      not(0xffffffffffffffff)\n      and\n        /* \"@openzeppelin/contracts-upgradeable/proxy/utils/Initializable.sol\":4966:4967  1 */\n      0x01\n        /* \"@openzeppelin/contracts-upgradeable/proxy/utils/Initializable.sol\":4949:4967  $._initialized = 1 */\n      or\n      dup6\n      sstore\n        /* \"@openzeppelin/contracts-upgradeable/proxy/utils/Initializable.sol\":4977:5044  if (isTopLevelCall) {... */\n      dup4\n      iszero\n      tag_100\n      jumpi\n        /* \"@openzeppelin/contracts-upgradeable/proxy/utils/Initializable.sol\":5011:5033  $._initializing = true */\n      dup5\n      sload\n      not(shl(0x40, 0xff))\n      and\n      shl(0x40, 0x01)\n      or\n      dup6\n      sstore\n        /* \"@openzeppelin/contracts-upgradeable/proxy/utils/Initializable.sol\":4977:5044  if (isTopLevelCall) {... */\n    tag_100:\n        /* \"contracts/RestaurantManager.sol\":512:534  __Ownable_init(_owner) */\n      tag_102\n        /* \"contracts/RestaurantManager.sol\":527:533  _owner */\n      dup7\n        /* \"contracts/RestaurantManager.sol\":512:526  __Ownable_init */\n      tag_103\n        /* \"contracts/RestaurantManager.sol\":512:534  __Ownable_init(_owner) */\n      jump\t// in\n    tag_102:\n        /* \"contracts/RestaurantManager.sol\":545:568  initializeRoles(_owner) */\n      tag_104\n        /* \"contracts/RestaurantManager.sol\":561:567  _owner */\n      dup7\n        /* \"contracts/RestaurantManager.sol\":545:560  initializeRoles */\n      tag_105\n        /* \"contracts/RestaurantManager.sol\":545:568  initializeRoles(_owner) */\n      jump\t// in\n    tag_104:\n        /* \"contracts/RestaurantManager.sol\":579:595  nextRestaurantId */\n      0x02\n        /* \"contracts/RestaurantManager.sol\":579:599  nextRestaurantId = 1 */\n      dup1\n      sload\n      not(sub(shl(0x80, 0x01), 0x01))\n      and\n        /* \"contracts/RestaurantManager.sol\":598:599  1 */\n      0x01\n        /* \"contracts/RestaurantManager.sol\":579:599  nextRestaurantId = 1 */\n      or\n      swap1\n      sstore\n        /* \"@openzeppelin/contracts-upgradeable/proxy/utils/Initializable.sol\":5064:5165  if (isTopLevelCall) {... */\n      dup4\n      iszero\n      tag_106\n      jumpi\n        /* \"@openzeppelin/contracts-upgradeable/proxy/utils/Initializable.sol\":5098:5121  $._initializing = false */\n      dup5\n      sload\n      not(shl(0x40, 0xff))\n      and\n      dup6\n      sstore\n        /* \"@openzeppelin/contracts-upgradeable/proxy/utils/Initializable.sol\":5140:5154  Initialized(1) */\n      mload(0x40)\n      0x01\n        /* \"#utility.yul\":2428:2478   */\n      dup2\n      mstore\n        /* \"@openzeppelin/contracts-upgradeable/proxy/utils/Initializable.sol\":5140:5154  Initialized(1) */\n      0xc7f505b2f371ae2175ee4913f4499e1f2633a7b5936321eed1cdaeb6115181d2\n      swap1\n        /* \"#utility.yul\":2416:2418   */\n      0x20\n        /* \"#utility.yul\":2401:2419   */\n      add\n        /* \"@openzeppelin/contracts-upgradeable/proxy/utils/Initializable.sol\":5140:5154  Initialized(1) */\n      mload(0x40)\n      dup1\n      swap2\n      sub\n      swap1\n      log1\n        /* \"@openzeppelin/contracts-upgradeable/proxy/utils/Initializable.sol\":5064:5165  if (isTopLevelCall) {... */\n    tag_106:\n        /* \"@openzeppelin/contracts-upgradeable/proxy/utils/Initializable.sol\":4092:5171  {... */\n      pop\n      pop\n      pop\n      pop\n      pop\n        /* \"contracts/RestaurantManager.sol\":446:607  function initialize(address _owner) public initializer {... */\n      pop\n      jump\t// out\n        /* \"@openzeppelin/contracts-upgradeable/access/OwnableUpgradeable.sol\":3405:3620  function transferOwnership(address newOwner) public virtual onlyOwner {... */\n    tag_57:\n        /* \"@openzeppelin/contracts-upgradeable/access/OwnableUpgradeable.sol\":2334:2347  _checkOwner() */\n      tag_110\n        /* \"@openzeppelin/contracts-upgradeable/access/OwnableUpgradeable.sol\":2334:2345  _checkOwner */\n      tag_63\n        /* \"@openzeppelin/contracts-upgradeable/access/OwnableUpgradeable.sol\":2334:2347  _checkOwner() */\n      jump\t// in\n    tag_110:\n      sub(shl(0xa0, 0x01), 0x01)\n        /* \"@openzeppelin/contracts-upgradeable/access/OwnableUpgradeable.sol\":3489:3511  newOwner == address(0) */\n      dup2\n      and\n        /* \"@openzeppelin/contracts-upgradeable/access/OwnableUpgradeable.sol\":3485:3576  if (newOwner == address(0)) {... */\n      tag_112\n      jumpi\n        /* \"@openzeppelin/contracts-upgradeable/access/OwnableUpgradeable.sol\":3534:3565  OwnableInvalidOwner(address(0)) */\n      mload(0x40)\n      shl(0xe0, 0x1e4fbdf7)\n      dup2\n      mstore\n        /* \"@openzeppelin/contracts-upgradeable/access/OwnableUpgradeable.sol\":3562:3563  0 */\n      0x00\n        /* \"@openzeppelin/contracts-upgradeable/access/OwnableUpgradeable.sol\":3534:3565  OwnableInvalidOwner(address(0)) */\n      0x04\n      dup3\n      add\n        /* \"#utility.yul\":752:803   */\n      mstore\n        /* \"#utility.yul\":725:743   */\n      0x24\n      add\n        /* \"@openzeppelin/contracts-upgradeable/access/OwnableUpgradeable.sol\":3534:3565  OwnableInvalidOwner(address(0)) */\n      tag_77\n        /* \"#utility.yul\":606:809   */\n      jump\n        /* \"@openzeppelin/contracts-upgradeable/access/OwnableUpgradeable.sol\":3485:3576  if (newOwner == address(0)) {... */\n    tag_112:\n        /* \"@openzeppelin/contracts-upgradeable/access/OwnableUpgradeable.sol\":3585:3613  _transferOwnership(newOwner) */\n      tag_114\n        /* \"@openzeppelin/contracts-upgradeable/access/OwnableUpgradeable.sol\":3604:3612  newOwner */\n      dup2\n        /* \"@openzeppelin/contracts-upgradeable/access/OwnableUpgradeable.sol\":3585:3603  _transferOwnership */\n      tag_66\n        /* \"@openzeppelin/contracts-upgradeable/access/OwnableUpgradeable.sol\":3585:3613  _transferOwnership(newOwner) */\n      jump\t// in\n    tag_114:\n        /* \"@openzeppelin/contracts-upgradeable/access/OwnableUpgradeable.sol\":3405:3620  function transferOwnership(address newOwner) public virtual onlyOwner {... */\n      pop\n      jump\t// out\n        /* \"contracts/RestaurantManager.sol\":615:915  function registerRestaurant() external onlyAdmin returns (uint128) {... */\n    tag_59:\n        /* \"contracts/RestaurantManager.sol\":673:680  uint128 */\n      0x00\n      dup1\n        /* \"access/RoleAccess.sol\":276:286  msg.sender */\n      caller\n        /* \"access/RoleAccess.sol\":270:275  roles */\n      0x00\n        /* \"access/RoleAccess.sol\":270:287  roles[msg.sender] */\n      swap1\n      dup2\n      mstore\n      0x20\n      dup2\n      swap1\n      mstore\n      0x40\n      swap1\n      keccak256\n      sload\n      0xff\n      and\n        /* \"access/RoleAccess.sol\":270:301  roles[msg.sender] == Role.Admin */\n      0x02\n      dup2\n      gt\n      iszero\n      tag_119\n      jumpi\n      tag_119\n      tag_73\n      jump\t// in\n    tag_119:\n      eq\n        /* \"access/RoleAccess.sol\":262:316  require(roles[msg.sender] == Role.Admin, \"Only admin\") */\n      tag_120\n      jumpi\n      mload(0x40)\n      shl(0xe5, 0x461bcd)\n      dup2\n      mstore\n      0x04\n      add\n      tag_77\n      swap1\n      tag_78\n      jump\t// in\n    tag_120:\n        /* \"contracts/RestaurantManager.sol\":716:732  nextRestaurantId */\n      and(sub(shl(0x80, 0x01), 0x01), sload(0x02))\n        /* \"contracts/RestaurantManager.sol\":693:713  uint128 restaurantId */\n      0x00\n        /* \"contracts/RestaurantManager.sol\":743:773  restaurantOwners[restaurantId] */\n      dup2\n      dup2\n      mstore\n        /* \"contracts/RestaurantManager.sol\":743:759  restaurantOwners */\n      0x03\n        /* \"contracts/RestaurantManager.sol\":743:773  restaurantOwners[restaurantId] */\n      0x20\n      mstore\n      0x40\n      dup1\n      dup3\n      keccak256\n        /* \"contracts/RestaurantManager.sol\":743:786  restaurantOwners[restaurantId] = msg.sender */\n      dup1\n      sload\n      not(sub(shl(0xa0, 0x01), 0x01))\n      and\n        /* \"contracts/RestaurantManager.sol\":776:786  msg.sender */\n      caller\n        /* \"contracts/RestaurantManager.sol\":743:786  restaurantOwners[restaurantId] = msg.sender */\n      swap1\n      dup2\n      or\n      swap1\n      swap2\n      sstore\n        /* \"contracts/RestaurantManager.sol\":802:848  RestaurantRegistered(restaurantId, msg.sender) */\n      swap1\n      mload\n        /* \"contracts/RestaurantManager.sol\":776:786  msg.sender */\n      swap1\n      swap2\n        /* \"contracts/RestaurantManager.sol\":716:732  nextRestaurantId */\n      dup4\n      swap2\n        /* \"contracts/RestaurantManager.sol\":802:848  RestaurantRegistered(restaurantId, msg.sender) */\n      0xbafbc0bfd4afd8a222b8cd09b01ce310b06b0beb42503ea91a76135e6a532e92\n      swap2\n        /* \"contracts/RestaurantManager.sol\":693:713  uint128 restaurantId */\n      swap1\n        /* \"contracts/RestaurantManager.sol\":802:848  RestaurantRegistered(restaurantId, msg.sender) */\n      log3\n        /* \"contracts/RestaurantManager.sol\":859:875  nextRestaurantId */\n      0x02\n        /* \"contracts/RestaurantManager.sol\":859:877  nextRestaurantId++ */\n      dup1\n      sload\n      sub(shl(0x80, 0x01), 0x01)\n      and\n      swap1\n        /* \"contracts/RestaurantManager.sol\":859:875  nextRestaurantId */\n      0x00\n        /* \"contracts/RestaurantManager.sol\":859:877  nextRestaurantId++ */\n      tag_123\n      dup4\n      tag_124\n      jump\t// in\n    tag_123:\n      swap2\n      swap1\n      0x0100\n      exp\n      dup2\n      sload\n      dup2\n      sub(shl(0x80, 0x01), 0x01)\n      mul\n      not\n      and\n      swap1\n      dup4\n      sub(shl(0x80, 0x01), 0x01)\n      and\n      mul\n      or\n      swap1\n      sstore\n      pop\n      pop\n        /* \"contracts/RestaurantManager.sol\":895:907  restaurantId */\n      dup1\n        /* \"contracts/RestaurantManager.sol\":888:907  return restaurantId */\n      swap2\n      pop\n      pop\n        /* \"contracts/RestaurantManager.sol\":615:915  function registerRestaurant() external onlyAdmin returns (uint128) {... */\n      swap1\n      jump\t// out\n        /* \"@openzeppelin/contracts-upgradeable/access/OwnableUpgradeable.sol\":2658:2820  function _checkOwner() internal view virtual {... */\n    tag_63:\n        /* \"@openzeppelin/contracts-upgradeable/utils/ContextUpgradeable.sol\":966:976  msg.sender */\n      caller\n        /* \"@openzeppelin/contracts-upgradeable/access/OwnableUpgradeable.sol\":2717:2724  owner() */\n      tag_128\n        /* \"@openzeppelin/contracts-upgradeable/access/OwnableUpgradeable.sol\":1313:1335  OwnableStorageLocation */\n      0x9016d09d72d40fdae2fd8ceac6b6234c7706214fd39c1cd1e609a0528c199300\n        /* \"@openzeppelin/contracts-upgradeable/access/OwnableUpgradeable.sol\":2570:2578  $._owner */\n      sload\n      sub(shl(0xa0, 0x01), 0x01)\n      and\n      swap1\n        /* \"@openzeppelin/contracts-upgradeable/access/OwnableUpgradeable.sol\":2441:2585  function owner() public view virtual returns (address) {... */\n      jump\n        /* \"@openzeppelin/contracts-upgradeable/access/OwnableUpgradeable.sol\":2717:2724  owner() */\n    tag_128:\n      sub(shl(0xa0, 0x01), 0x01)\n        /* \"@openzeppelin/contracts-upgradeable/access/OwnableUpgradeable.sol\":2717:2740  owner() != _msgSender() */\n      and\n      eq\n        /* \"@openzeppelin/contracts-upgradeable/access/OwnableUpgradeable.sol\":2713:2814  if (owner() != _msgSender()) {... */\n      tag_65\n      jumpi\n        /* \"@openzeppelin/contracts-upgradeable/access/OwnableUpgradeable.sol\":2763:2803  OwnableUnauthorizedAccount(_msgSender()) */\n      mload(0x40)\n      shl(0xe0, 0x118cdaa7)\n      dup2\n      mstore\n        /* \"@openzeppelin/contracts-upgradeable/utils/ContextUpgradeable.sol\":966:976  msg.sender */\n      caller\n        /* \"@openzeppelin/contracts-upgradeable/access/OwnableUpgradeable.sol\":2763:2803  OwnableUnauthorizedAccount(_msgSender()) */\n      0x04\n      dup3\n      add\n        /* \"#utility.yul\":752:803   */\n      mstore\n        /* \"#utility.yul\":725:743   */\n      0x24\n      add\n        /* \"@openzeppelin/contracts-upgradeable/access/OwnableUpgradeable.sol\":2763:2803  OwnableUnauthorizedAccount(_msgSender()) */\n      tag_77\n        /* \"#utility.yul\":606:809   */\n      jump\n        /* \"@openzeppelin/contracts-upgradeable/access/OwnableUpgradeable.sol\":3774:4022  function _transferOwnership(address newOwner) internal virtual {... */\n    tag_66:\n        /* \"@openzeppelin/contracts-upgradeable/access/OwnableUpgradeable.sol\":1313:1335  OwnableStorageLocation */\n      0x9016d09d72d40fdae2fd8ceac6b6234c7706214fd39c1cd1e609a0528c199300\n        /* \"@openzeppelin/contracts-upgradeable/access/OwnableUpgradeable.sol\":3923:3931  $._owner */\n      dup1\n      sload\n      not(sub(shl(0xa0, 0x01), 0x01))\n        /* \"@openzeppelin/contracts-upgradeable/access/OwnableUpgradeable.sol\":3941:3960  $._owner = newOwner */\n      dup2\n      and\n      sub(shl(0xa0, 0x01), 0x01)\n      dup5\n      dup2\n      and\n      swap2\n      dup3\n      or\n      dup5\n      sstore\n        /* \"@openzeppelin/contracts-upgradeable/access/OwnableUpgradeable.sol\":3975:4015  OwnershipTransferred(oldOwner, newOwner) */\n      mload(0x40)\n        /* \"@openzeppelin/contracts-upgradeable/access/OwnableUpgradeable.sol\":3923:3931  $._owner */\n      swap3\n      and\n      swap2\n      dup3\n      swap1\n        /* \"@openzeppelin/contracts-upgradeable/access/OwnableUpgradeable.sol\":3975:4015  OwnershipTransferred(oldOwner, newOwner) */\n      0x8be0079c531659141344cd1fd0a4f28419497f9722a3daafe3b4186f6b6457e0\n      swap1\n        /* \"@openzeppelin/contracts-upgradeable/access/OwnableUpgradeable.sol\":3847:3871  OwnableStorage storage $ */\n      0x00\n      swap1\n        /* \"@openzeppelin/contracts-upgradeable/access/OwnableUpgradeable.sol\":3975:4015  OwnershipTransferred(oldOwner, newOwner) */\n      log3\n        /* \"@openzeppelin/contracts-upgradeable/access/OwnableUpgradeable.sol\":3837:4022  {... */\n      pop\n      pop\n        /* \"@openzeppelin/contracts-upgradeable/access/OwnableUpgradeable.sol\":3774:4022  function _transferOwnership(address newOwner) internal virtual {... */\n      pop\n      jump\t// out\n        /* \"@openzeppelin/contracts-upgradeable/access/OwnableUpgradeable.sol\":1847:1974  function __Ownable_init(address initialOwner) internal onlyInitializing {... */\n    tag_103:\n        /* \"@openzeppelin/contracts-upgradeable/proxy/utils/Initializable.sol\":6929:6949  _checkInitializing() */\n      tag_139\n        /* \"@openzeppelin/contracts-upgradeable/proxy/utils/Initializable.sol\":6929:6947  _checkInitializing */\n      tag_140\n        /* \"@openzeppelin/contracts-upgradeable/proxy/utils/Initializable.sol\":6929:6949  _checkInitializing() */\n      jump\t// in\n    tag_139:\n        /* \"@openzeppelin/contracts-upgradeable/access/OwnableUpgradeable.sol\":1929:1967  __Ownable_init_unchained(initialOwner) */\n      tag_114\n        /* \"@openzeppelin/contracts-upgradeable/access/OwnableUpgradeable.sol\":1954:1966  initialOwner */\n      dup2\n        /* \"@openzeppelin/contracts-upgradeable/access/OwnableUpgradeable.sol\":1929:1953  __Ownable_init_unchained */\n      tag_143\n        /* \"@openzeppelin/contracts-upgradeable/access/OwnableUpgradeable.sol\":1929:1967  __Ownable_init_unchained(initialOwner) */\n      jump\t// in\n        /* \"access/RoleAccess.sol\":668:761  function initializeRoles(address admin) internal {... */\n    tag_105:\n      sub(shl(0xa0, 0x01), 0x01)\n        /* \"access/RoleAccess.sol\":728:740  roles[admin] */\n      dup2\n      and\n        /* \"access/RoleAccess.sol\":743:753  Role.Admin */\n      0x00\n        /* \"access/RoleAccess.sol\":728:740  roles[admin] */\n      swap1\n      dup2\n      mstore\n      0x20\n      dup2\n      swap1\n      mstore\n      0x40\n      dup2\n      keccak256\n        /* \"access/RoleAccess.sol\":728:753  roles[admin] = Role.Admin */\n      dup1\n      sload\n      not(0xff)\n      and\n      0x01\n        /* \"access/RoleAccess.sol\":743:753  Role.Admin */\n      dup4\n        /* \"access/RoleAccess.sol\":728:753  roles[admin] = Role.Admin */\n      jump(tag_92)\n        /* \"@openzeppelin/contracts-upgradeable/proxy/utils/Initializable.sol\":7082:7223  function _checkInitializing() internal view virtual {... */\n    tag_140:\n        /* \"@openzeppelin/contracts-upgradeable/proxy/utils/Initializable.sol\":3147:3213  0xf0c57e16840df040f15088dc2f81fe391c3923bec73e23a9662efc9c229c6a00 */\n      0xf0c57e16840df040f15088dc2f81fe391c3923bec73e23a9662efc9c229c6a00\n        /* \"@openzeppelin/contracts-upgradeable/proxy/utils/Initializable.sol\":8558:8598  _getInitializableStorage()._initializing */\n      sload\n      shl(0x40, 0x01)\n      swap1\n      div\n      0xff\n      and\n        /* \"@openzeppelin/contracts-upgradeable/proxy/utils/Initializable.sol\":7144:7217  if (!_isInitializing()) {... */\n      tag_65\n      jumpi\n        /* \"@openzeppelin/contracts-upgradeable/proxy/utils/Initializable.sol\":7189:7206  NotInitializing() */\n      mload(0x40)\n      shl(0xe3, 0x1afcd79f)\n      dup2\n      mstore\n      0x04\n      add\n      mload(0x40)\n      dup1\n      swap2\n      sub\n      swap1\n      revert\n        /* \"@openzeppelin/contracts-upgradeable/access/OwnableUpgradeable.sol\":1980:2215  function __Ownable_init_unchained(address initialOwner) internal onlyInitializing {... */\n    tag_143:\n        /* \"@openzeppelin/contracts-upgradeable/proxy/utils/Initializable.sol\":6929:6949  _checkInitializing() */\n      tag_110\n        /* \"@openzeppelin/contracts-upgradeable/proxy/utils/Initializable.sol\":6929:6947  _checkInitializing */\n      tag_140\n        /* \"@openzeppelin/contracts-upgradeable/proxy/utils/Initializable.sol\":6929:6949  _checkInitializing() */\n      jump\t// in\n        /* \"#utility.yul\":14:187   */\n    tag_161:\n        /* \"#utility.yul\":82:102   */\n      dup1\n      calldataload\n      sub(shl(0xa0, 0x01), 0x01)\n        /* \"#utility.yul\":131:162   */\n      dup2\n      and\n        /* \"#utility.yul\":121:163   */\n      dup2\n      eq\n        /* \"#utility.yul\":111:181   */\n      tag_165\n      jumpi\n        /* \"#utility.yul\":177:178   */\n      0x00\n        /* \"#utility.yul\":174:175   */\n      0x00\n        /* \"#utility.yul\":167:179   */\n      revert\n        /* \"#utility.yul\":111:181   */\n    tag_165:\n        /* \"#utility.yul\":14:187   */\n      swap2\n      swap1\n      pop\n      jump\t// out\n        /* \"#utility.yul\":192:378   */\n    tag_18:\n        /* \"#utility.yul\":251:257   */\n      0x00\n        /* \"#utility.yul\":304:306   */\n      0x20\n        /* \"#utility.yul\":292:301   */\n      dup3\n        /* \"#utility.yul\":283:290   */\n      dup5\n        /* \"#utility.yul\":279:302   */\n      sub\n        /* \"#utility.yul\":275:307   */\n      slt\n        /* \"#utility.yul\":272:324   */\n      iszero\n      tag_167\n      jumpi\n        /* \"#utility.yul\":320:321   */\n      0x00\n        /* \"#utility.yul\":317:318   */\n      0x00\n        /* \"#utility.yul\":310:322   */\n      revert\n        /* \"#utility.yul\":272:324   */\n    tag_167:\n        /* \"#utility.yul\":343:372   */\n      tag_168\n        /* \"#utility.yul\":362:371   */\n      dup3\n        /* \"#utility.yul\":343:372   */\n      tag_161\n      jump\t// in\n    tag_168:\n        /* \"#utility.yul\":333:372   */\n      swap4\n        /* \"#utility.yul\":192:378   */\n      swap3\n      pop\n      pop\n      pop\n      jump\t// out\n        /* \"#utility.yul\":814:941   */\n    tag_73:\n        /* \"#utility.yul\":875:885   */\n      0x4e487b71\n        /* \"#utility.yul\":870:873   */\n      0xe0\n        /* \"#utility.yul\":866:886   */\n      shl\n        /* \"#utility.yul\":863:864   */\n      0x00\n        /* \"#utility.yul\":856:887   */\n      mstore\n        /* \"#utility.yul\":906:910   */\n      0x21\n        /* \"#utility.yul\":903:904   */\n      0x04\n        /* \"#utility.yul\":896:911   */\n      mstore\n        /* \"#utility.yul\":930:934   */\n      0x24\n        /* \"#utility.yul\":927:928   */\n      0x00\n        /* \"#utility.yul\":920:935   */\n      revert\n        /* \"#utility.yul\":946:1282   */\n    tag_35:\n        /* \"#utility.yul\":1086:1088   */\n      0x20\n        /* \"#utility.yul\":1071:1089   */\n      dup2\n      add\n        /* \"#utility.yul\":1119:1120   */\n      0x03\n        /* \"#utility.yul\":1108:1121   */\n      dup4\n      lt\n        /* \"#utility.yul\":1098:1242   */\n      tag_173\n      jumpi\n        /* \"#utility.yul\":1164:1174   */\n      0x4e487b71\n        /* \"#utility.yul\":1159:1162   */\n      0xe0\n        /* \"#utility.yul\":1155:1175   */\n      shl\n        /* \"#utility.yul\":1152:1153   */\n      0x00\n        /* \"#utility.yul\":1145:1176   */\n      mstore\n        /* \"#utility.yul\":1199:1203   */\n      0x21\n        /* \"#utility.yul\":1196:1197   */\n      0x04\n        /* \"#utility.yul\":1189:1204   */\n      mstore\n        /* \"#utility.yul\":1227:1231   */\n      0x24\n        /* \"#utility.yul\":1224:1225   */\n      0x00\n        /* \"#utility.yul\":1217:1232   */\n      revert\n        /* \"#utility.yul\":1098:1242   */\n    tag_173:\n        /* \"#utility.yul\":1251:1276   */\n      swap2\n      swap1\n      mstore\n        /* \"#utility.yul\":946:1282   */\n      swap1\n      jump\t// out\n        /* \"#utility.yul\":1287:1475   */\n    tag_162:\n        /* \"#utility.yul\":1355:1375   */\n      dup1\n      calldataload\n      sub(shl(0x80, 0x01), 0x01)\n        /* \"#utility.yul\":1404:1450   */\n      dup2\n      and\n        /* \"#utility.yul\":1394:1451   */\n      dup2\n      eq\n        /* \"#utility.yul\":1384:1469   */\n      tag_165\n      jumpi\n        /* \"#utility.yul\":1465:1466   */\n      0x00\n        /* \"#utility.yul\":1462:1463   */\n      0x00\n        /* \"#utility.yul\":1455:1467   */\n      revert\n        /* \"#utility.yul\":1480:1666   */\n    tag_38:\n        /* \"#utility.yul\":1539:1545   */\n      0x00\n        /* \"#utility.yul\":1592:1594   */\n      0x20\n        /* \"#utility.yul\":1580:1589   */\n      dup3\n        /* \"#utility.yul\":1571:1578   */\n      dup5\n        /* \"#utility.yul\":1567:1590   */\n      sub\n        /* \"#utility.yul\":1563:1595   */\n      slt\n        /* \"#utility.yul\":1560:1612   */\n      iszero\n      tag_177\n      jumpi\n        /* \"#utility.yul\":1608:1609   */\n      0x00\n        /* \"#utility.yul\":1605:1606   */\n      0x00\n        /* \"#utility.yul\":1598:1610   */\n      revert\n        /* \"#utility.yul\":1560:1612   */\n    tag_177:\n        /* \"#utility.yul\":1631:1660   */\n      tag_168\n        /* \"#utility.yul\":1650:1659   */\n      dup3\n        /* \"#utility.yul\":1631:1660   */\n      tag_162\n      jump\t// in\n        /* \"#utility.yul\":1671:1931   */\n    tag_43:\n        /* \"#utility.yul\":1739:1745   */\n      0x00\n        /* \"#utility.yul\":1747:1753   */\n      0x00\n        /* \"#utility.yul\":1800:1802   */\n      0x40\n        /* \"#utility.yul\":1788:1797   */\n      dup4\n        /* \"#utility.yul\":1779:1786   */\n      dup6\n        /* \"#utility.yul\":1775:1798   */\n      sub\n        /* \"#utility.yul\":1771:1803   */\n      slt\n        /* \"#utility.yul\":1768:1820   */\n      iszero\n      tag_180\n      jumpi\n        /* \"#utility.yul\":1816:1817   */\n      0x00\n        /* \"#utility.yul\":1813:1814   */\n      0x00\n        /* \"#utility.yul\":1806:1818   */\n      revert\n        /* \"#utility.yul\":1768:1820   */\n    tag_180:\n        /* \"#utility.yul\":1839:1868   */\n      tag_181\n        /* \"#utility.yul\":1858:1867   */\n      dup4\n        /* \"#utility.yul\":1839:1868   */\n      tag_161\n      jump\t// in\n    tag_181:\n        /* \"#utility.yul\":1829:1868   */\n      swap2\n      pop\n        /* \"#utility.yul\":1887:1925   */\n      tag_182\n        /* \"#utility.yul\":1921:1923   */\n      0x20\n        /* \"#utility.yul\":1910:1919   */\n      dup5\n        /* \"#utility.yul\":1906:1924   */\n      add\n        /* \"#utility.yul\":1887:1925   */\n      tag_162\n      jump\t// in\n    tag_182:\n        /* \"#utility.yul\":1877:1925   */\n      swap1\n      pop\n        /* \"#utility.yul\":1671:1931   */\n      swap3\n      pop\n      swap3\n      swap1\n      pop\n      jump\t// out\n        /* \"#utility.yul\":1936:2270   */\n    tag_78:\n        /* \"#utility.yul\":2138:2140   */\n      0x20\n        /* \"#utility.yul\":2120:2141   */\n      dup1\n      dup3\n      mstore\n        /* \"#utility.yul\":2177:2179   */\n      0x0a\n        /* \"#utility.yul\":2157:2175   */\n      swap1\n      dup3\n      add\n        /* \"#utility.yul\":2150:2180   */\n      mstore\n      shl(0xb1, 0x27b7363c9030b236b4b7)\n        /* \"#utility.yul\":2211:2213   */\n      0x40\n        /* \"#utility.yul\":2196:2214   */\n      dup3\n      add\n        /* \"#utility.yul\":2189:2229   */\n      mstore\n        /* \"#utility.yul\":2261:2263   */\n      0x60\n        /* \"#utility.yul\":2246:2264   */\n      add\n      swap1\n        /* \"#utility.yul\":1936:2270   */\n      jump\t// out\n        /* \"#utility.yul\":2489:2823   */\n    tag_124:\n        /* \"#utility.yul\":2528:2531   */\n      0x00\n      sub(shl(0x80, 0x01), 0x01)\n        /* \"#utility.yul\":2565:2570   */\n      dup3\n        /* \"#utility.yul\":2561:2607   */\n      and\n      sub(shl(0x80, 0x01), 0x01)\n        /* \"#utility.yul\":2622:2629   */\n      dup2\n        /* \"#utility.yul\":2619:2666   */\n      sub\n        /* \"#utility.yul\":2616:2786   */\n      tag_186\n      jumpi\n        /* \"#utility.yul\":2708:2718   */\n      0x4e487b71\n        /* \"#utility.yul\":2703:2706   */\n      0xe0\n        /* \"#utility.yul\":2699:2719   */\n      shl\n        /* \"#utility.yul\":2696:2697   */\n      0x00\n        /* \"#utility.yul\":2689:2720   */\n      mstore\n        /* \"#utility.yul\":2743:2747   */\n      0x11\n        /* \"#utility.yul\":2740:2741   */\n      0x04\n        /* \"#utility.yul\":2733:2748   */\n      mstore\n        /* \"#utility.yul\":2771:2775   */\n      0x24\n        /* \"#utility.yul\":2768:2769   */\n      0x00\n        /* \"#utility.yul\":2761:2776   */\n      revert\n        /* \"#utility.yul\":2616:2786   */\n    tag_186:\n        /* \"#utility.yul\":2815:2816   */\n      0x01\n        /* \"#utility.yul\":2802:2817   */\n      add\n      swap3\n        /* \"#utility.yul\":2489:2823   */\n      swap2\n      pop\n      pop\n      jump\t// out\n\n    auxdata: 0xa2646970667358221220f43aa65719aefce07e66086e7a7396adb7f90e3dd4a0c99f70f5b551c16512b264736f6c634300081e0033\n}\n",
				"bytecode": {
					"linkReferences": {},
					"object": "6080604052348015600e575f5ffd5b506108608061001c5f395ff3fe608060405234801561000f575f5ffd5b50600436106100b1575f3560e01c8063ae9a46551161006e578063ae9a4655146101b2578063b9588327146101c5578063c4522c92146101f6578063c4d66de814610209578063f2fde38b1461021c578063fa20fca71461022f575f5ffd5b80632d3238fe146100b557806346bd8077146100fa578063715018a61461010d5780638da5cb5b14610117578063993746421461015b578063abca88f01461018a575b5f5ffd5b6100dd6100c3366004610716565b60016020525f90815260409020546001600160801b031681565b6040516001600160801b0390911681526020015b60405180910390f35b6002546100dd906001600160801b031681565b610115610237565b005b7f9016d09d72d40fdae2fd8ceac6b6234c7706214fd39c1cd1e609a0528c199300546001600160a01b03165b6040516001600160a01b0390911681526020016100f1565b61017d610169366004610716565b5f6020819052908152604090205460ff1681565b6040516100f1919061074a565b610143610198366004610786565b60036020525f90815260409020546001600160a01b031681565b6101156101c036600461079f565b61024a565b6101436101d3366004610786565b6001600160801b03165f908152600360205260409020546001600160a01b031690565b610115610204366004610716565b6102e0565b610115610217366004610716565b610365565b61011561022a366004610716565b61048f565b6100dd6104cc565b61023f6105a9565b6102485f610604565b565b335f9081526020819052604081205460ff16600281111561026d5761026d610736565b146102935760405162461bcd60e51b815260040161028a906107d0565b60405180910390fd5b6001600160a01b03919091165f908152602081815260408083208054600160ff199091168117909155909152902080546001600160801b0319166001600160801b03909216919091179055565b335f9081526020819052604081205460ff16600281111561030357610303610736565b146103205760405162461bcd60e51b815260040161028a906107d0565b6001600160a01b0381165f90815260016020818152604080842080546001600160801b031916905590839052909120805460029260ff1990911690835b021790555050565b7ff0c57e16840df040f15088dc2f81fe391c3923bec73e23a9662efc9c229c6a008054600160401b810460ff16159067ffffffffffffffff165f811580156103aa5750825b90505f8267ffffffffffffffff1660011480156103c65750303b155b9050811580156103d4575080155b156103f25760405163f92ee8a960e01b815260040160405180910390fd5b845467ffffffffffffffff19166001178555831561041c57845460ff60401b1916600160401b1785555b61042586610674565b61042e86610685565b600280546001600160801b0319166001179055831561048757845460ff60401b19168555604051600181527fc7f505b2f371ae2175ee4913f4499e1f2633a7b5936321eed1cdaeb6115181d29060200160405180910390a15b505050505050565b6104976105a9565b6001600160a01b0381166104c057604051631e4fbdf760e01b81525f600482015260240161028a565b6104c981610604565b50565b5f80335f9081526020819052604090205460ff1660028111156104f1576104f1610736565b1461050e5760405162461bcd60e51b815260040161028a906107d0565b6002546001600160801b03165f8181526003602052604080822080546001600160a01b031916339081179091559051909183917fbafbc0bfd4afd8a222b8cd09b01ce310b06b0beb42503ea91a76135e6a532e929190a3600280546001600160801b0316905f61057d836107f4565b91906101000a8154816001600160801b0302191690836001600160801b03160217905550508091505090565b336105db7f9016d09d72d40fdae2fd8ceac6b6234c7706214fd39c1cd1e609a0528c199300546001600160a01b031690565b6001600160a01b0316146102485760405163118cdaa760e01b815233600482015260240161028a565b7f9016d09d72d40fdae2fd8ceac6b6234c7706214fd39c1cd1e609a0528c19930080546001600160a01b031981166001600160a01b03848116918217845560405192169182907f8be0079c531659141344cd1fd0a4f28419497f9722a3daafe3b4186f6b6457e0905f90a3505050565b61067c6106aa565b6104c9816106f3565b6001600160a01b0381165f908152602081905260408120805460ff191660018361035d565b7ff0c57e16840df040f15088dc2f81fe391c3923bec73e23a9662efc9c229c6a0054600160401b900460ff1661024857604051631afcd79f60e31b815260040160405180910390fd5b6104976106aa565b80356001600160a01b0381168114610711575f5ffd5b919050565b5f60208284031215610726575f5ffd5b61072f826106fb565b9392505050565b634e487b7160e01b5f52602160045260245ffd5b602081016003831061076a57634e487b7160e01b5f52602160045260245ffd5b91905290565b80356001600160801b0381168114610711575f5ffd5b5f60208284031215610796575f5ffd5b61072f82610770565b5f5f604083850312156107b0575f5ffd5b6107b9836106fb565b91506107c760208401610770565b90509250929050565b6020808252600a908201526927b7363c9030b236b4b760b11b604082015260600190565b5f6001600160801b0382166001600160801b03810361082157634e487b7160e01b5f52601160045260245ffd5b6001019291505056fea2646970667358221220f43aa65719aefce07e66086e7a7396adb7f90e3dd4a0c99f70f5b551c16512b264736f6c634300081e0033",
					"opcodes": "PUSH1 0x80 PUSH1 0x40 MSTORE CALLVALUE DUP1 ISZERO PUSH1 0xE JUMPI PUSH0 PUSH0 REVERT JUMPDEST POP PUSH2 0x860 DUP1 PUSH2 0x1C PUSH0 CODECOPY PUSH0 RETURN INVALID PUSH1 0x80 PUSH1 0x40 MSTORE CALLVALUE DUP1 ISZERO PUSH2 0xF JUMPI PUSH0 PUSH0 REVERT JUMPDEST POP PUSH1 0x4 CALLDATASIZE LT PUSH2 0xB1 JUMPI PUSH0 CALLDATALOAD PUSH1 0xE0 SHR DUP1 PUSH4 0xAE9A4655 GT PUSH2 0x6E JUMPI DUP1 PUSH4 0xAE9A4655 EQ PUSH2 0x1B2 JUMPI DUP1 PUSH4 0xB9588327 EQ PUSH2 0x1C5 JUMPI DUP1 PUSH4 0xC4522C92 EQ PUSH2 0x1F6 JUMPI DUP1 PUSH4 0xC4D66DE8 EQ PUSH2 0x209 JUMPI DUP1 PUSH4 0xF2FDE38B EQ PUSH2 0x21C JUMPI DUP1 PUSH4 0xFA20FCA7 EQ PUSH2 0x22F JUMPI PUSH0 PUSH0 REVERT JUMPDEST DUP1 PUSH4 0x2D3238FE EQ PUSH2 0xB5 JUMPI DUP1 PUSH4 0x46BD8077 EQ PUSH2 0xFA JUMPI DUP1 PUSH4 0x715018A6 EQ PUSH2 0x10D JUMPI DUP1 PUSH4 0x8DA5CB5B EQ PUSH2 0x117 JUMPI DUP1 PUSH4 0x99374642 EQ PUSH2 0x15B JUMPI DUP1 PUSH4 0xABCA88F0 EQ PUSH2 0x18A JUMPI JUMPDEST PUSH0 PUSH0 REVERT JUMPDEST PUSH2 0xDD PUSH2 0xC3 CALLDATASIZE PUSH1 0x4 PUSH2 0x716 JUMP JUMPDEST PUSH1 0x1 PUSH1 0x20 MSTORE PUSH0 SWAP1 DUP2 MSTORE PUSH1 0x40 SWAP1 KECCAK256 SLOAD PUSH1 0x1 PUSH1 0x1 PUSH1 0x80 SHL SUB AND DUP2 JUMP JUMPDEST PUSH1 0x40 MLOAD PUSH1 0x1 PUSH1 0x1 PUSH1 0x80 SHL SUB SWAP1 SWAP2 AND DUP2 MSTORE PUSH1 0x20 ADD JUMPDEST PUSH1 0x40 MLOAD DUP1 SWAP2 SUB SWAP1 RETURN JUMPDEST PUSH1 0x2 SLOAD PUSH2 0xDD SWAP1 PUSH1 0x1 PUSH1 0x1 PUSH1 0x80 SHL SUB AND DUP2 JUMP JUMPDEST PUSH2 0x115 PUSH2 0x237 JUMP JUMPDEST STOP JUMPDEST PUSH32 0x9016D09D72D40FDAE2FD8CEAC6B6234C7706214FD39C1CD1E609A0528C199300 SLOAD PUSH1 0x1 PUSH1 0x1 PUSH1 0xA0 SHL SUB AND JUMPDEST PUSH1 0x40 MLOAD PUSH1 0x1 PUSH1 0x1 PUSH1 0xA0 SHL SUB SWAP1 SWAP2 AND DUP2 MSTORE PUSH1 0x20 ADD PUSH2 0xF1 JUMP JUMPDEST PUSH2 0x17D PUSH2 0x169 CALLDATASIZE PUSH1 0x4 PUSH2 0x716 JUMP JUMPDEST PUSH0 PUSH1 0x20 DUP2 SWAP1 MSTORE SWAP1 DUP2 MSTORE PUSH1 0x40 SWAP1 KECCAK256 SLOAD PUSH1 0xFF AND DUP2 JUMP JUMPDEST PUSH1 0x40 MLOAD PUSH2 0xF1 SWAP2 SWAP1 PUSH2 0x74A JUMP JUMPDEST PUSH2 0x143 PUSH2 0x198 CALLDATASIZE PUSH1 0x4 PUSH2 0x786 JUMP JUMPDEST PUSH1 0x3 PUSH1 0x20 MSTORE PUSH0 SWAP1 DUP2 MSTORE PUSH1 0x40 SWAP1 KECCAK256 SLOAD PUSH1 0x1 PUSH1 0x1 PUSH1 0xA0 SHL SUB AND DUP2 JUMP JUMPDEST PUSH2 0x115 PUSH2 0x1C0 CALLDATASIZE PUSH1 0x4 PUSH2 0x79F JUMP JUMPDEST PUSH2 0x24A JUMP JUMPDEST PUSH2 0x143 PUSH2 0x1D3 CALLDATASIZE PUSH1 0x4 PUSH2 0x786 JUMP JUMPDEST PUSH1 0x1 PUSH1 0x1 PUSH1 0x80 SHL SUB AND PUSH0 SWAP1 DUP2 MSTORE PUSH1 0x3 PUSH1 0x20 MSTORE PUSH1 0x40 SWAP1 KECCAK256 SLOAD PUSH1 0x1 PUSH1 0x1 PUSH1 0xA0 SHL SUB AND SWAP1 JUMP JUMPDEST PUSH2 0x115 PUSH2 0x204 CALLDATASIZE PUSH1 0x4 PUSH2 0x716 JUMP JUMPDEST PUSH2 0x2E0 JUMP JUMPDEST PUSH2 0x115 PUSH2 0x217 CALLDATASIZE PUSH1 0x4 PUSH2 0x716 JUMP JUMPDEST PUSH2 0x365 JUMP JUMPDEST PUSH2 0x115 PUSH2 0x22A CALLDATASIZE PUSH1 0x4 PUSH2 0x716 JUMP JUMPDEST PUSH2 0x48F JUMP JUMPDEST PUSH2 0xDD PUSH2 0x4CC JUMP JUMPDEST PUSH2 0x23F PUSH2 0x5A9 JUMP JUMPDEST PUSH2 0x248 PUSH0 PUSH2 0x604 JUMP JUMPDEST JUMP JUMPDEST CALLER PUSH0 SWAP1 DUP2 MSTORE PUSH1 0x20 DUP2 SWAP1 MSTORE PUSH1 0x40 DUP2 KECCAK256 SLOAD PUSH1 0xFF AND PUSH1 0x2 DUP2 GT ISZERO PUSH2 0x26D JUMPI PUSH2 0x26D PUSH2 0x736 JUMP JUMPDEST EQ PUSH2 0x293 JUMPI PUSH1 0x40 MLOAD PUSH3 0x461BCD PUSH1 0xE5 SHL DUP2 MSTORE PUSH1 0x4 ADD PUSH2 0x28A SWAP1 PUSH2 0x7D0 JUMP JUMPDEST PUSH1 0x40 MLOAD DUP1 SWAP2 SUB SWAP1 REVERT JUMPDEST PUSH1 0x1 PUSH1 0x1 PUSH1 0xA0 SHL SUB SWAP2 SWAP1 SWAP2 AND PUSH0 SWAP1 DUP2 MSTORE PUSH1 0x20 DUP2 DUP2 MSTORE PUSH1 0x40 DUP1 DUP4 KECCAK256 DUP1 SLOAD PUSH1 0x1 PUSH1 0xFF NOT SWAP1 SWAP2 AND DUP2 OR SWAP1 SWAP2 SSTORE SWAP1 SWAP2 MSTORE SWAP1 KECCAK256 DUP1 SLOAD PUSH1 0x1 PUSH1 0x1 PUSH1 0x80 SHL SUB NOT AND PUSH1 0x1 PUSH1 0x1 PUSH1 0x80 SHL SUB SWAP1 SWAP3 AND SWAP2 SWAP1 SWAP2 OR SWAP1 SSTORE JUMP JUMPDEST CALLER PUSH0 SWAP1 DUP2 MSTORE PUSH1 0x20 DUP2 SWAP1 MSTORE PUSH1 0x40 DUP2 KECCAK256 SLOAD PUSH1 0xFF AND PUSH1 0x2 DUP2 GT ISZERO PUSH2 0x303 JUMPI PUSH2 0x303 PUSH2 0x736 JUMP JUMPDEST EQ PUSH2 0x320 JUMPI PUSH1 0x40 MLOAD PUSH3 0x461BCD PUSH1 0xE5 SHL DUP2 MSTORE PUSH1 0x4 ADD PUSH2 0x28A SWAP1 PUSH2 0x7D0 JUMP JUMPDEST PUSH1 0x1 PUSH1 0x1 PUSH1 0xA0 SHL SUB DUP2 AND PUSH0 SWAP1 DUP2 MSTORE PUSH1 0x1 PUSH1 0x20 DUP2 DUP2 MSTORE PUSH1 0x40 DUP1 DUP5 KECCAK256 DUP1 SLOAD PUSH1 0x1 PUSH1 0x1 PUSH1 0x80 SHL SUB NOT AND SWAP1 SSTORE SWAP1 DUP4 SWAP1 MSTORE SWAP1 SWAP2 KECCAK256 DUP1 SLOAD PUSH1 0x2 SWAP3 PUSH1 0xFF NOT SWAP1 SWAP2 AND SWAP1 DUP4 JUMPDEST MUL OR SWAP1 SSTORE POP POP JUMP JUMPDEST PUSH32 0xF0C57E16840DF040F15088DC2F81FE391C3923BEC73E23A9662EFC9C229C6A00 DUP1 SLOAD PUSH1 0x1 PUSH1 0x40 SHL DUP2 DIV PUSH1 0xFF AND ISZERO SWAP1 PUSH8 0xFFFFFFFFFFFFFFFF AND PUSH0 DUP2 ISZERO DUP1 ISZERO PUSH2 0x3AA JUMPI POP DUP3 JUMPDEST SWAP1 POP PUSH0 DUP3 PUSH8 0xFFFFFFFFFFFFFFFF AND PUSH1 0x1 EQ DUP1 ISZERO PUSH2 0x3C6 JUMPI POP ADDRESS EXTCODESIZE ISZERO JUMPDEST SWAP1 POP DUP2 ISZERO DUP1 ISZERO PUSH2 0x3D4 JUMPI POP DUP1 ISZERO JUMPDEST ISZERO PUSH2 0x3F2 JUMPI PUSH1 0x40 MLOAD PUSH4 0xF92EE8A9 PUSH1 0xE0 SHL DUP2 MSTORE PUSH1 0x4 ADD PUSH1 0x40 MLOAD DUP1 SWAP2 SUB SWAP1 REVERT JUMPDEST DUP5 SLOAD PUSH8 0xFFFFFFFFFFFFFFFF NOT AND PUSH1 0x1 OR DUP6 SSTORE DUP4 ISZERO PUSH2 0x41C JUMPI DUP5 SLOAD PUSH1 0xFF PUSH1 0x40 SHL NOT AND PUSH1 0x1 PUSH1 0x40 SHL OR DUP6 SSTORE JUMPDEST PUSH2 0x425 DUP7 PUSH2 0x674 JUMP JUMPDEST PUSH2 0x42E DUP7 PUSH2 0x685 JUMP JUMPDEST PUSH1 0x2 DUP1 SLOAD PUSH1 0x1 PUSH1 0x1 PUSH1 0x80 SHL SUB NOT AND PUSH1 0x1 OR SWAP1 SSTORE DUP4 ISZERO PUSH2 0x487 JUMPI DUP5 SLOAD PUSH1 0xFF PUSH1 0x40 SHL NOT AND DUP6 SSTORE PUSH1 0x40 MLOAD PUSH1 0x1 DUP2 MSTORE PUSH32 0xC7F505B2F371AE2175EE4913F4499E1F2633A7B5936321EED1CDAEB6115181D2 SWAP1 PUSH1 0x20 ADD PUSH1 0x40 MLOAD DUP1 SWAP2 SUB SWAP1 LOG1 JUMPDEST POP POP POP POP POP POP JUMP JUMPDEST PUSH2 0x497 PUSH2 0x5A9 JUMP JUMPDEST PUSH1 0x1 PUSH1 0x1 PUSH1 0xA0 SHL SUB DUP2 AND PUSH2 0x4C0 JUMPI PUSH1 0x40 MLOAD PUSH4 0x1E4FBDF7 PUSH1 0xE0 SHL DUP2 MSTORE PUSH0 PUSH1 0x4 DUP3 ADD MSTORE PUSH1 0x24 ADD PUSH2 0x28A JUMP JUMPDEST PUSH2 0x4C9 DUP2 PUSH2 0x604 JUMP JUMPDEST POP JUMP JUMPDEST PUSH0 DUP1 CALLER PUSH0 SWAP1 DUP2 MSTORE PUSH1 0x20 DUP2 SWAP1 MSTORE PUSH1 0x40 SWAP1 KECCAK256 SLOAD PUSH1 0xFF AND PUSH1 0x2 DUP2 GT ISZERO PUSH2 0x4F1 JUMPI PUSH2 0x4F1 PUSH2 0x736 JUMP JUMPDEST EQ PUSH2 0x50E JUMPI PUSH1 0x40 MLOAD PUSH3 0x461BCD PUSH1 0xE5 SHL DUP2 MSTORE PUSH1 0x4 ADD PUSH2 0x28A SWAP1 PUSH2 0x7D0 JUMP JUMPDEST PUSH1 0x2 SLOAD PUSH1 0x1 PUSH1 0x1 PUSH1 0x80 SHL SUB AND PUSH0 DUP2 DUP2 MSTORE PUSH1 0x3 PUSH1 0x20 MSTORE PUSH1 0x40 DUP1 DUP3 KECCAK256 DUP1 SLOAD PUSH1 0x1 PUSH1 0x1 PUSH1 0xA0 SHL SUB NOT AND CALLER SWAP1 DUP2 OR SWAP1 SWAP2 SSTORE SWAP1 MLOAD SWAP1 SWAP2 DUP4 SWAP2 PUSH32 0xBAFBC0BFD4AFD8A222B8CD09B01CE310B06B0BEB42503EA91A76135E6A532E92 SWAP2 SWAP1 LOG3 PUSH1 0x2 DUP1 SLOAD PUSH1 0x1 PUSH1 0x1 PUSH1 0x80 SHL SUB AND SWAP1 PUSH0 PUSH2 0x57D DUP4 PUSH2 0x7F4 JUMP JUMPDEST SWAP2 SWAP1 PUSH2 0x100 EXP DUP2 SLOAD DUP2 PUSH1 0x1 PUSH1 0x1 PUSH1 0x80 SHL SUB MUL NOT AND SWAP1 DUP4 PUSH1 0x1 PUSH1 0x1 PUSH1 0x80 SHL SUB AND MUL OR SWAP1 SSTORE POP POP DUP1 SWAP2 POP POP SWAP1 JUMP JUMPDEST CALLER PUSH2 0x5DB PUSH32 0x9016D09D72D40FDAE2FD8CEAC6B6234C7706214FD39C1CD1E609A0528C199300 SLOAD PUSH1 0x1 PUSH1 0x1 PUSH1 0xA0 SHL SUB AND SWAP1 JUMP JUMPDEST PUSH1 0x1 PUSH1 0x1 PUSH1 0xA0 SHL SUB AND EQ PUSH2 0x248 JUMPI PUSH1 0x40 MLOAD PUSH4 0x118CDAA7 PUSH1 0xE0 SHL DUP2 MSTORE CALLER PUSH1 0x4 DUP3 ADD MSTORE PUSH1 0x24 ADD PUSH2 0x28A JUMP JUMPDEST PUSH32 0x9016D09D72D40FDAE2FD8CEAC6B6234C7706214FD39C1CD1E609A0528C199300 DUP1 SLOAD PUSH1 0x1 PUSH1 0x1 PUSH1 0xA0 SHL SUB NOT DUP2 AND PUSH1 0x1 PUSH1 0x1 PUSH1 0xA0 SHL SUB DUP5 DUP2 AND SWAP2 DUP3 OR DUP5 SSTORE PUSH1 0x40 MLOAD SWAP3 AND SWAP2 DUP3 SWAP1 PUSH32 0x8BE0079C531659141344CD1FD0A4F28419497F9722A3DAAFE3B4186F6B6457E0 SWAP1 PUSH0 SWAP1 LOG3 POP POP POP JUMP JUMPDEST PUSH2 0x67C PUSH2 0x6AA JUMP JUMPDEST PUSH2 0x4C9 DUP2 PUSH2 0x6F3 JUMP JUMPDEST PUSH1 0x1 PUSH1 0x1 PUSH1 0xA0 SHL SUB DUP2 AND PUSH0 SWAP1 DUP2 MSTORE PUSH1 0x20 DUP2 SWAP1 MSTORE PUSH1 0x40 DUP2 KECCAK256 DUP1 SLOAD PUSH1 0xFF NOT AND PUSH1 0x1 DUP4 PUSH2 0x35D JUMP JUMPDEST PUSH32 0xF0C57E16840DF040F15088DC2F81FE391C3923BEC73E23A9662EFC9C229C6A00 SLOAD PUSH1 0x1 PUSH1 0x40 SHL SWAP1 DIV PUSH1 0xFF AND PUSH2 0x248 JUMPI PUSH1 0x40 MLOAD PUSH4 0x1AFCD79F PUSH1 0xE3 SHL DUP2 MSTORE PUSH1 0x4 ADD PUSH1 0x40 MLOAD DUP1 SWAP2 SUB SWAP1 REVERT JUMPDEST PUSH2 0x497 PUSH2 0x6AA JUMP JUMPDEST DUP1 CALLDATALOAD PUSH1 0x1 PUSH1 0x1 PUSH1 0xA0 SHL SUB DUP2 AND DUP2 EQ PUSH2 0x711 JUMPI PUSH0 PUSH0 REVERT JUMPDEST SWAP2 SWAP1 POP JUMP JUMPDEST PUSH0 PUSH1 0x20 DUP3 DUP5 SUB SLT ISZERO PUSH2 0x726 JUMPI PUSH0 PUSH0 REVERT JUMPDEST PUSH2 0x72F DUP3 PUSH2 0x6FB JUMP JUMPDEST SWAP4 SWAP3 POP POP POP JUMP JUMPDEST PUSH4 0x4E487B71 PUSH1 0xE0 SHL PUSH0 MSTORE PUSH1 0x21 PUSH1 0x4 MSTORE PUSH1 0x24 PUSH0 REVERT JUMPDEST PUSH1 0x20 DUP2 ADD PUSH1 0x3 DUP4 LT PUSH2 0x76A JUMPI PUSH4 0x4E487B71 PUSH1 0xE0 SHL PUSH0 MSTORE PUSH1 0x21 PUSH1 0x4 MSTORE PUSH1 0x24 PUSH0 REVERT JUMPDEST SWAP2 SWAP1 MSTORE SWAP1 JUMP JUMPDEST DUP1 CALLDATALOAD PUSH1 0x1 PUSH1 0x1 PUSH1 0x80 SHL SUB DUP2 AND DUP2 EQ PUSH2 0x711 JUMPI PUSH0 PUSH0 REVERT JUMPDEST PUSH0 PUSH1 0x20 DUP3 DUP5 SUB SLT ISZERO PUSH2 0x796 JUMPI PUSH0 PUSH0 REVERT JUMPDEST PUSH2 0x72F DUP3 PUSH2 0x770 JUMP JUMPDEST PUSH0 PUSH0 PUSH1 0x40 DUP4 DUP6 SUB SLT ISZERO PUSH2 0x7B0 JUMPI PUSH0 PUSH0 REVERT JUMPDEST PUSH2 0x7B9 DUP4 PUSH2 0x6FB JUMP JUMPDEST SWAP2 POP PUSH2 0x7C7 PUSH1 0x20 DUP5 ADD PUSH2 0x770 JUMP JUMPDEST SWAP1 POP SWAP3 POP SWAP3 SWAP1 POP JUMP JUMPDEST PUSH1 0x20 DUP1 DUP3 MSTORE PUSH1 0xA SWAP1 DUP3 ADD MSTORE PUSH10 0x27B7363C9030B236B4B7 PUSH1 0xB1 SHL PUSH1 0x40 DUP3 ADD MSTORE PUSH1 0x60 ADD SWAP1 JUMP JUMPDEST PUSH0 PUSH1 0x1 PUSH1 0x1 PUSH1 0x80 SHL SUB DUP3 AND PUSH1 0x1 PUSH1 0x1 PUSH1 0x80 SHL SUB DUP2 SUB PUSH2 0x821 JUMPI PUSH4 0x4E487B71 PUSH1 0xE0 SHL PUSH0 MSTORE PUSH1 0x11 PUSH1 0x4 MSTORE PUSH1 0x24 PUSH0 REVERT JUMPDEST PUSH1 0x1 ADD SWAP3 SWAP2 POP POP JUMP INVALID LOG2 PUSH5 0x6970667358 0x22 SLT KECCAK256 DELEGATECALL GASPRICE 0xA6 JUMPI NOT 0xAE 0xFC RJUMP 0x7E66 ADDMOD PUSH15 0x7A7396ADB7F90E3DD4A0C99F70F5B5 MLOAD 0xC1 PUSH6 0x12B264736F6C PUSH4 0x4300081E STOP CALLER "
				},
				"gasEstimates": {
					"creation": {
						"codeDepositCost": "428800",
						"executionCost": "459",
						"totalCost": "429259"
					},
					"external": {
						"assignStaff(address,uint128)": "infinite",
						"getRestaurantOwner(uint128)": "2595",
						"initialize(address)": "infinite",
						"nextRestaurantId()": "2348",
						"owner()": "2386",
						"registerRestaurant()": "57040",
						"removeStaff(address)": "51197",
						"renounceOwnership()": "infinite",
						"restaurantOwners(uint128)": "2666",
						"roles(address)": "2661",
						"staffRestaurants(address)": "2545",
						"transferOwnership(address)": "28453"
					}
				},
				"methodIdentifiers": {
					"assignStaff(address,uint128)": "ae9a4655",
					"getRestaurantOwner(uint128)": "b9588327",
					"initialize(address)": "c4d66de8",
					"nextRestaurantId()": "46bd8077",
					"owner()": "8da5cb5b",
					"registerRestaurant()": "fa20fca7",
					"removeStaff(address)": "c4522c92",
					"renounceOwnership()": "715018a6",
					"restaurantOwners(uint128)": "abca88f0",
					"roles(address)": "99374642",
					"staffRestaurants(address)": "2d3238fe",
					"transferOwnership(address)": "f2fde38b"
				}
			},
			"storageLayout": {
				"storage": [
					{
						"astId": 516,
						"contract": "contracts/RestaurantManager.sol:RestaurantManager",
						"label": "roles",
						"offset": 0,
						"slot": "0",
						"type": "t_mapping(t_address,t_enum(Role)740)"
					},
					{
						"astId": 520,
						"contract": "contracts/RestaurantManager.sol:RestaurantManager",
						"label": "staffRestaurants",
						"offset": 0,
						"slot": "1",
						"type": "t_mapping(t_address,t_uint128)"
					},
					{
						"astId": 645,
						"contract": "contracts/RestaurantManager.sol:RestaurantManager",
						"label": "nextRestaurantId",
						"offset": 0,
						"slot": "2",
						"type": "t_uint128"
					},
					{
						"astId": 649,
						"contract": "contracts/RestaurantManager.sol:RestaurantManager",
						"label": "restaurantOwners",
						"offset": 0,
						"slot": "3",
						"type": "t_mapping(t_uint128,t_address)"
					}
				],
				"types": {
					"t_address": {
						"encoding": "inplace",
						"label": "address",
						"numberOfBytes": "20"
					},
					"t_enum(Role)740": {
						"encoding": "inplace",
						"label": "enum Role",
						"numberOfBytes": "1"
					},
					"t_mapping(t_address,t_enum(Role)740)": {
						"encoding": "mapping",
						"key": "t_address",
						"label": "mapping(address => enum Role)",
						"numberOfBytes": "32",
						"value": "t_enum(Role)740"
					},
					"t_mapping(t_address,t_uint128)": {
						"encoding": "mapping",
						"key": "t_address",
						"label": "mapping(address => uint128)",
						"numberOfBytes": "32",
						"value": "t_uint128"
					},
					"t_mapping(t_uint128,t_address)": {
						"encoding": "mapping",
						"key": "t_uint128",
						"label": "mapping(uint128 => address)",
						"numberOfBytes": "32",
						"value": "t_address"
					},
					"t_uint128": {
						"encoding": "inplace",
						"label": "uint128",
						"numberOfBytes": "16"
					}
				}
			},
			"userdoc": {
				"kind": "user",
				"methods": {},
				"version": 1
			}
		}
	}
}