{
	"data": {
		"bytecode": {
			"linkReferences": {},
			"object": "6080604052348015600e575f5ffd5b50604051610906380380610906833981016040819052602b916074565b5f80546001600160a01b039384166001600160a01b0319918216179091556001805492909316911617905560a0565b80516001600160a01b0381168114606f575f5ffd5b919050565b5f5f604083850312156084575f5ffd5b608b83605a565b9150609760208401605a565b90509250929050565b610859806100ad5f395ff3fe608060405234801561000f575f5ffd5b506004361061004a575f3560e01c80630e67b9c21461004e578063c9b815831461007e578063cf343eed146100a9578063f9b6117f146100bc575b5f5ffd5b61006161005c366004610326565b6100ce565b6040516001600160801b0390911681526020015b60405180910390f35b600154610091906001600160a01b031681565b6040516001600160a01b039091168152602001610075565b6100616100b7366004610326565b610211565b5f54610091906001600160a01b031681565b5f8060015b5f5f9054906101000a90046001600160a01b03166001600160a01b0316632a58b3306040518163ffffffff1660e01b8152600401602060405180830381865afa158015610122573d5f5f3e3d5ffd5b505050506040513d601f19601f820116820180604052508101906101469190610358565b6001600160801b0316816001600160801b0316101561020a575f805460405163022fa82560e31b81526001600160801b03841660048201526001600160a01b039091169063117d4128906024015f60405180830381865afa1580156101ad573d5f5f3e3d5ffd5b505050506040513d5f823e601f3d908101601f191682016040526101d491908101906104bf565b9050846001600160801b031681604001516001600160801b03160361020157826101fd816105e4565b9350505b506001016100d3565b5092915050565b600154604051632f304d9f60e21b81526001600160801b03831660048201525f9182916001600160a01b039091169063bcc1367c906024015f60405180830381865afa158015610263573d5f5f3e3d5ffd5b505050506040513d5f823e601f3d908101601f1916820160405261028a919081019061067a565b905080515f0361029c57505f92915050565b5f805b8251816001600160801b031610156102fa5782816001600160801b0316815181106102cc576102cc6107b1565b60200260200101516040015160ff16826102e691906107c5565b9150806102f2816105e4565b91505061029f565b50815161030790826107ea565b949350505050565b6001600160801b0381168114610323575f5ffd5b50565b5f60208284031215610336575f5ffd5b81356103418161030f565b9392505050565b80516103538161030f565b919050565b5f60208284031215610368575f5ffd5b81516103418161030f565b634e487b7160e01b5f52604160045260245ffd5b604051610120810167ffffffffffffffff811182821017156103ab576103ab610373565b60405290565b60405160a0810167ffffffffffffffff811182821017156103ab576103ab610373565b604051601f8201601f1916810167ffffffffffffffff811182821017156103fd576103fd610373565b604052919050565b80516001600160a01b0381168114610353575f5ffd5b5f67ffffffffffffffff82111561043457610434610373565b5060051b60200190565b5f82601f83011261044d575f5ffd5b815161046061045b8261041b565b6103d4565b8082825260208201915060208360051b860101925085831115610481575f5ffd5b602085015b838110156104a75780516104998161030f565b835260209283019201610486565b5095945050505050565b805160068110610353575f5ffd5b5f602082840312156104cf575f5ffd5b815167ffffffffffffffff8111156104e5575f5ffd5b820161012081850312156104f7575f5ffd5b6104ff610387565b61050882610348565b815261051660208301610405565b602082015261052760408301610348565b6040820152606082015167ffffffffffffffff811115610545575f5ffd5b6105518682850161043e565b606083015250608082015167ffffffffffffffff811115610570575f5ffd5b61057c8682850161043e565b60808301525061058e60a08301610348565b60a082015261059f60c083016104b1565b60c08201526105b060e08301610348565b60e08201526105c26101008301610348565b610100820152949350505050565b634e487b7160e01b5f52601160045260245ffd5b5f6001600160801b0382166001600160801b038103610605576106056105d0565b60010192915050565b5f82601f83011261061d575f5ffd5b815167ffffffffffffffff81111561063757610637610373565b61064a601f8201601f19166020016103d4565b81815284602083860101111561065e575f5ffd5b8160208501602083015e5f918101602001919091529392505050565b5f6020828403121561068a575f5ffd5b815167ffffffffffffffff8111156106a0575f5ffd5b8201601f810184136106b0575f5ffd5b80516106be61045b8261041b565b8082825260208201915060208360051b8501019250868311156106df575f5ffd5b602084015b838110156107a657805167ffffffffffffffff811115610702575f5ffd5b850160a0818a03601f19011215610717575f5ffd5b61071f6103b1565b61072b60208301610405565b8152604082015161073b8161030f565b6020820152606082015160ff81168114610753575f5ffd5b6040820152608082015167ffffffffffffffff811115610771575f5ffd5b6107808b60208386010161060e565b60608301525061079260a08301610348565b6080820152845250602092830192016106e4565b509695505050505050565b634e487b7160e01b5f52603260045260245ffd5b6001600160801b0381811683821601908111156107e4576107e46105d0565b92915050565b5f6001600160801b0383168061080e57634e487b7160e01b5f52601260045260245ffd5b806001600160801b038416049150509291505056fea2646970667358221220f2c189acdf8cbe607a781f9325513dd4d421db2020bd744be0622f3c29af9b8364736f6c634300081e0033",
			"opcodes": "PUSH1 0x80 PUSH1 0x40 MSTORE CALLVALUE DUP1 ISZERO PUSH1 0xE JUMPI PUSH0 PUSH0 REVERT JUMPDEST POP PUSH1 0x40 MLOAD PUSH2 0x906 CODESIZE SUB DUP1 PUSH2 0x906 DUP4 CODECOPY DUP2 ADD PUSH1 0x40 DUP2 SWAP1 MSTORE PUSH1 0x2B SWAP2 PUSH1 0x74 JUMP JUMPDEST PUSH0 DUP1 SLOAD PUSH1 0x1 PUSH1 0x1 PUSH1 0xA0 SHL SUB SWAP4 DUP5 AND PUSH1 0x1 PUSH1 0x1 PUSH1 0xA0 SHL SUB NOT SWAP2 DUP3 AND OR SWAP1 SWAP2 SSTORE PUSH1 0x1 DUP1 SLOAD SWAP3 SWAP1 SWAP4 AND SWAP2 AND OR SWAP1 SSTORE PUSH1 0xA0 JUMP JUMPDEST DUP1 MLOAD PUSH1 0x1 PUSH1 0x1 PUSH1 0xA0 SHL SUB DUP2 AND DUP2 EQ PUSH1 0x6F JUMPI PUSH0 PUSH0 REVERT JUMPDEST SWAP2 SWAP1 POP JUMP JUMPDEST PUSH0 PUSH0 PUSH1 0x40 DUP4 DUP6 SUB SLT ISZERO PUSH1 0x84 JUMPI PUSH0 PUSH0 REVERT JUMPDEST PUSH1 0x8B DUP4 PUSH1 0x5A JUMP JUMPDEST SWAP2 POP PUSH1 0x97 PUSH1 0x20 DUP5 ADD PUSH1 0x5A JUMP JUMPDEST SWAP1 POP SWAP3 POP SWAP3 SWAP1 POP JUMP JUMPDEST PUSH2 0x859 DUP1 PUSH2 0xAD PUSH0 CODECOPY PUSH0 RETURN INVALID PUSH1 0x80 PUSH1 0x40 MSTORE CALLVALUE DUP1 ISZERO PUSH2 0xF JUMPI PUSH0 PUSH0 REVERT JUMPDEST POP PUSH1 0x4 CALLDATASIZE LT PUSH2 0x4A JUMPI PUSH0 CALLDATALOAD PUSH1 0xE0 SHR DUP1 PUSH4 0xE67B9C2 EQ PUSH2 0x4E JUMPI DUP1 PUSH4 0xC9B81583 EQ PUSH2 0x7E JUMPI DUP1 PUSH4 0xCF343EED EQ PUSH2 0xA9 JUMPI DUP1 PUSH4 0xF9B6117F EQ PUSH2 0xBC JUMPI JUMPDEST PUSH0 PUSH0 REVERT JUMPDEST PUSH2 0x61 PUSH2 0x5C CALLDATASIZE PUSH1 0x4 PUSH2 0x326 JUMP JUMPDEST PUSH2 0xCE JUMP JUMPDEST PUSH1 0x40 MLOAD PUSH1 0x1 PUSH1 0x1 PUSH1 0x80 SHL SUB SWAP1 SWAP2 AND DUP2 MSTORE PUSH1 0x20 ADD JUMPDEST PUSH1 0x40 MLOAD DUP1 SWAP2 SUB SWAP1 RETURN JUMPDEST PUSH1 0x1 SLOAD PUSH2 0x91 SWAP1 PUSH1 0x1 PUSH1 0x1 PUSH1 0xA0 SHL SUB AND DUP2 JUMP JUMPDEST PUSH1 0x40 MLOAD PUSH1 0x1 PUSH1 0x1 PUSH1 0xA0 SHL SUB SWAP1 SWAP2 AND DUP2 MSTORE PUSH1 0x20 ADD PUSH2 0x75 JUMP JUMPDEST PUSH2 0x61 PUSH2 0xB7 CALLDATASIZE PUSH1 0x4 PUSH2 0x326 JUMP JUMPDEST PUSH2 0x211 JUMP JUMPDEST PUSH0 SLOAD PUSH2 0x91 SWAP1 PUSH1 0x1 PUSH1 0x1 PUSH1 0xA0 SHL SUB AND DUP2 JUMP JUMPDEST PUSH0 DUP1 PUSH1 0x1 JUMPDEST PUSH0 PUSH0 SWAP1 SLOAD SWAP1 PUSH2 0x100 EXP SWAP1 DIV PUSH1 0x1 PUSH1 0x1 PUSH1 0xA0 SHL SUB AND PUSH1 0x1 PUSH1 0x1 PUSH1 0xA0 SHL SUB AND PUSH4 0x2A58B330 PUSH1 0x40 MLOAD DUP2 PUSH4 0xFFFFFFFF AND PUSH1 0xE0 SHL DUP2 MSTORE PUSH1 0x4 ADD PUSH1 0x20 PUSH1 0x40 MLOAD DUP1 DUP4 SUB DUP2 DUP7 GAS STATICCALL ISZERO DUP1 ISZERO PUSH2 0x122 JUMPI RETURNDATASIZE PUSH0 PUSH0 RETURNDATACOPY RETURNDATASIZE PUSH0 REVERT JUMPDEST POP POP POP POP PUSH1 0x40 MLOAD RETURNDATASIZE PUSH1 0x1F NOT PUSH1 0x1F DUP3 ADD AND DUP3 ADD DUP1 PUSH1 0x40 MSTORE POP DUP2 ADD SWAP1 PUSH2 0x146 SWAP2 SWAP1 PUSH2 0x358 JUMP JUMPDEST PUSH1 0x1 PUSH1 0x1 PUSH1 0x80 SHL SUB AND DUP2 PUSH1 0x1 PUSH1 0x1 PUSH1 0x80 SHL SUB AND LT ISZERO PUSH2 0x20A JUMPI PUSH0 DUP1 SLOAD PUSH1 0x40 MLOAD PUSH4 0x22FA825 PUSH1 0xE3 SHL DUP2 MSTORE PUSH1 0x1 PUSH1 0x1 PUSH1 0x80 SHL SUB DUP5 AND PUSH1 0x4 DUP3 ADD MSTORE PUSH1 0x1 PUSH1 0x1 PUSH1 0xA0 SHL SUB SWAP1 SWAP2 AND SWAP1 PUSH4 0x117D4128 SWAP1 PUSH1 0x24 ADD PUSH0 PUSH1 0x40 MLOAD DUP1 DUP4 SUB DUP2 DUP7 GAS STATICCALL ISZERO DUP1 ISZERO PUSH2 0x1AD JUMPI RETURNDATASIZE PUSH0 PUSH0 RETURNDATACOPY RETURNDATASIZE PUSH0 REVERT JUMPDEST POP POP POP POP PUSH1 0x40 MLOAD RETURNDATASIZE PUSH0 DUP3 RETURNDATACOPY PUSH1 0x1F RETURNDATASIZE SWAP1 DUP2 ADD PUSH1 0x1F NOT AND DUP3 ADD PUSH1 0x40 MSTORE PUSH2 0x1D4 SWAP2 SWAP1 DUP2 ADD SWAP1 PUSH2 0x4BF JUMP JUMPDEST SWAP1 POP DUP5 PUSH1 0x1 PUSH1 0x1 PUSH1 0x80 SHL SUB AND DUP2 PUSH1 0x40 ADD MLOAD PUSH1 0x1 PUSH1 0x1 PUSH1 0x80 SHL SUB AND SUB PUSH2 0x201 JUMPI DUP3 PUSH2 0x1FD DUP2 PUSH2 0x5E4 JUMP JUMPDEST SWAP4 POP POP JUMPDEST POP PUSH1 0x1 ADD PUSH2 0xD3 JUMP JUMPDEST POP SWAP3 SWAP2 POP POP JUMP JUMPDEST PUSH1 0x1 SLOAD PUSH1 0x40 MLOAD PUSH4 0x2F304D9F PUSH1 0xE2 SHL DUP2 MSTORE PUSH1 0x1 PUSH1 0x1 PUSH1 0x80 SHL SUB DUP4 AND PUSH1 0x4 DUP3 ADD MSTORE PUSH0 SWAP2 DUP3 SWAP2 PUSH1 0x1 PUSH1 0x1 PUSH1 0xA0 SHL SUB SWAP1 SWAP2 AND SWAP1 PUSH4 0xBCC1367C SWAP1 PUSH1 0x24 ADD PUSH0 PUSH1 0x40 MLOAD DUP1 DUP4 SUB DUP2 DUP7 GAS STATICCALL ISZERO DUP1 ISZERO PUSH2 0x263 JUMPI RETURNDATASIZE PUSH0 PUSH0 RETURNDATACOPY RETURNDATASIZE PUSH0 REVERT JUMPDEST POP POP POP POP PUSH1 0x40 MLOAD RETURNDATASIZE PUSH0 DUP3 RETURNDATACOPY PUSH1 0x1F RETURNDATASIZE SWAP1 DUP2 ADD PUSH1 0x1F NOT AND DUP3 ADD PUSH1 0x40 MSTORE PUSH2 0x28A SWAP2 SWAP1 DUP2 ADD SWAP1 PUSH2 0x67A JUMP JUMPDEST SWAP1 POP DUP1 MLOAD PUSH0 SUB PUSH2 0x29C JUMPI POP PUSH0 SWAP3 SWAP2 POP POP JUMP JUMPDEST PUSH0 DUP1 JUMPDEST DUP3 MLOAD DUP2 PUSH1 0x1 PUSH1 0x1 PUSH1 0x80 SHL SUB AND LT ISZERO PUSH2 0x2FA JUMPI DUP3 DUP2 PUSH1 0x1 PUSH1 0x1 PUSH1 0x80 SHL SUB AND DUP2 MLOAD DUP2 LT PUSH2 0x2CC JUMPI PUSH2 0x2CC PUSH2 0x7B1 JUMP JUMPDEST PUSH1 0x20 MUL PUSH1 0x20 ADD ADD MLOAD PUSH1 0x40 ADD MLOAD PUSH1 0xFF AND DUP3 PUSH2 0x2E6 SWAP2 SWAP1 PUSH2 0x7C5 JUMP JUMPDEST SWAP2 POP DUP1 PUSH2 0x2F2 DUP2 PUSH2 0x5E4 JUMP JUMPDEST SWAP2 POP POP PUSH2 0x29F JUMP JUMPDEST POP DUP2 MLOAD PUSH2 0x307 SWAP1 DUP3 PUSH2 0x7EA JUMP JUMPDEST SWAP5 SWAP4 POP POP POP POP JUMP JUMPDEST PUSH1 0x1 PUSH1 0x1 PUSH1 0x80 SHL SUB DUP2 AND DUP2 EQ PUSH2 0x323 JUMPI PUSH0 PUSH0 REVERT JUMPDEST POP JUMP JUMPDEST PUSH0 PUSH1 0x20 DUP3 DUP5 SUB SLT ISZERO PUSH2 0x336 JUMPI PUSH0 PUSH0 REVERT JUMPDEST DUP2 CALLDATALOAD PUSH2 0x341 DUP2 PUSH2 0x30F JUMP JUMPDEST SWAP4 SWAP3 POP POP POP JUMP JUMPDEST DUP1 MLOAD PUSH2 0x353 DUP2 PUSH2 0x30F JUMP JUMPDEST SWAP2 SWAP1 POP JUMP JUMPDEST PUSH0 PUSH1 0x20 DUP3 DUP5 SUB SLT ISZERO PUSH2 0x368 JUMPI PUSH0 PUSH0 REVERT JUMPDEST DUP2 MLOAD PUSH2 0x341 DUP2 PUSH2 0x30F JUMP JUMPDEST PUSH4 0x4E487B71 PUSH1 0xE0 SHL PUSH0 MSTORE PUSH1 0x41 PUSH1 0x4 MSTORE PUSH1 0x24 PUSH0 REVERT JUMPDEST PUSH1 0x40 MLOAD PUSH2 0x120 DUP2 ADD PUSH8 0xFFFFFFFFFFFFFFFF DUP2 GT DUP3 DUP3 LT OR ISZERO PUSH2 0x3AB JUMPI PUSH2 0x3AB PUSH2 0x373 JUMP JUMPDEST PUSH1 0x40 MSTORE SWAP1 JUMP JUMPDEST PUSH1 0x40 MLOAD PUSH1 0xA0 DUP2 ADD PUSH8 0xFFFFFFFFFFFFFFFF DUP2 GT DUP3 DUP3 LT OR ISZERO PUSH2 0x3AB JUMPI PUSH2 0x3AB PUSH2 0x373 JUMP JUMPDEST PUSH1 0x40 MLOAD PUSH1 0x1F DUP3 ADD PUSH1 0x1F NOT AND DUP2 ADD PUSH8 0xFFFFFFFFFFFFFFFF DUP2 GT DUP3 DUP3 LT OR ISZERO PUSH2 0x3FD JUMPI PUSH2 0x3FD PUSH2 0x373 JUMP JUMPDEST PUSH1 0x40 MSTORE SWAP2 SWAP1 POP JUMP JUMPDEST DUP1 MLOAD PUSH1 0x1 PUSH1 0x1 PUSH1 0xA0 SHL SUB DUP2 AND DUP2 EQ PUSH2 0x353 JUMPI PUSH0 PUSH0 REVERT JUMPDEST PUSH0 PUSH8 0xFFFFFFFFFFFFFFFF DUP3 GT ISZERO PUSH2 0x434 JUMPI PUSH2 0x434 PUSH2 0x373 JUMP JUMPDEST POP PUSH1 0x5 SHL PUSH1 0x20 ADD SWAP1 JUMP JUMPDEST PUSH0 DUP3 PUSH1 0x1F DUP4 ADD SLT PUSH2 0x44D JUMPI PUSH0 PUSH0 REVERT JUMPDEST DUP2 MLOAD PUSH2 0x460 PUSH2 0x45B DUP3 PUSH2 0x41B JUMP JUMPDEST PUSH2 0x3D4 JUMP JUMPDEST DUP1 DUP3 DUP3 MSTORE PUSH1 0x20 DUP3 ADD SWAP2 POP PUSH1 0x20 DUP4 PUSH1 0x5 SHL DUP7 ADD ADD SWAP3 POP DUP6 DUP4 GT ISZERO PUSH2 0x481 JUMPI PUSH0 PUSH0 REVERT JUMPDEST PUSH1 0x20 DUP6 ADD JUMPDEST DUP4 DUP2 LT ISZERO PUSH2 0x4A7 JUMPI DUP1 MLOAD PUSH2 0x499 DUP2 PUSH2 0x30F JUMP JUMPDEST DUP4 MSTORE PUSH1 0x20 SWAP3 DUP4 ADD SWAP3 ADD PUSH2 0x486 JUMP JUMPDEST POP SWAP6 SWAP5 POP POP POP POP POP JUMP JUMPDEST DUP1 MLOAD PUSH1 0x6 DUP2 LT PUSH2 0x353 JUMPI PUSH0 PUSH0 REVERT JUMPDEST PUSH0 PUSH1 0x20 DUP3 DUP5 SUB SLT ISZERO PUSH2 0x4CF JUMPI PUSH0 PUSH0 REVERT JUMPDEST DUP2 MLOAD PUSH8 0xFFFFFFFFFFFFFFFF DUP2 GT ISZERO PUSH2 0x4E5 JUMPI PUSH0 PUSH0 REVERT JUMPDEST DUP3 ADD PUSH2 0x120 DUP2 DUP6 SUB SLT ISZERO PUSH2 0x4F7 JUMPI PUSH0 PUSH0 REVERT JUMPDEST PUSH2 0x4FF PUSH2 0x387 JUMP JUMPDEST PUSH2 0x508 DUP3 PUSH2 0x348 JUMP JUMPDEST DUP2 MSTORE PUSH2 0x516 PUSH1 0x20 DUP4 ADD PUSH2 0x405 JUMP JUMPDEST PUSH1 0x20 DUP3 ADD MSTORE PUSH2 0x527 PUSH1 0x40 DUP4 ADD PUSH2 0x348 JUMP JUMPDEST PUSH1 0x40 DUP3 ADD MSTORE PUSH1 0x60 DUP3 ADD MLOAD PUSH8 0xFFFFFFFFFFFFFFFF DUP2 GT ISZERO PUSH2 0x545 JUMPI PUSH0 PUSH0 REVERT JUMPDEST PUSH2 0x551 DUP7 DUP3 DUP6 ADD PUSH2 0x43E JUMP JUMPDEST PUSH1 0x60 DUP4 ADD MSTORE POP PUSH1 0x80 DUP3 ADD MLOAD PUSH8 0xFFFFFFFFFFFFFFFF DUP2 GT ISZERO PUSH2 0x570 JUMPI PUSH0 PUSH0 REVERT JUMPDEST PUSH2 0x57C DUP7 DUP3 DUP6 ADD PUSH2 0x43E JUMP JUMPDEST PUSH1 0x80 DUP4 ADD MSTORE POP PUSH2 0x58E PUSH1 0xA0 DUP4 ADD PUSH2 0x348 JUMP JUMPDEST PUSH1 0xA0 DUP3 ADD MSTORE PUSH2 0x59F PUSH1 0xC0 DUP4 ADD PUSH2 0x4B1 JUMP JUMPDEST PUSH1 0xC0 DUP3 ADD MSTORE PUSH2 0x5B0 PUSH1 0xE0 DUP4 ADD PUSH2 0x348 JUMP JUMPDEST PUSH1 0xE0 DUP3 ADD MSTORE PUSH2 0x5C2 PUSH2 0x100 DUP4 ADD PUSH2 0x348 JUMP JUMPDEST PUSH2 0x100 DUP3 ADD MSTORE SWAP5 SWAP4 POP POP POP POP JUMP JUMPDEST PUSH4 0x4E487B71 PUSH1 0xE0 SHL PUSH0 MSTORE PUSH1 0x11 PUSH1 0x4 MSTORE PUSH1 0x24 PUSH0 REVERT JUMPDEST PUSH0 PUSH1 0x1 PUSH1 0x1 PUSH1 0x80 SHL SUB DUP3 AND PUSH1 0x1 PUSH1 0x1 PUSH1 0x80 SHL SUB DUP2 SUB PUSH2 0x605 JUMPI PUSH2 0x605 PUSH2 0x5D0 JUMP JUMPDEST PUSH1 0x1 ADD SWAP3 SWAP2 POP POP JUMP JUMPDEST PUSH0 DUP3 PUSH1 0x1F DUP4 ADD SLT PUSH2 0x61D JUMPI PUSH0 PUSH0 REVERT JUMPDEST DUP2 MLOAD PUSH8 0xFFFFFFFFFFFFFFFF DUP2 GT ISZERO PUSH2 0x637 JUMPI PUSH2 0x637 PUSH2 0x373 JUMP JUMPDEST PUSH2 0x64A PUSH1 0x1F DUP3 ADD PUSH1 0x1F NOT AND PUSH1 0x20 ADD PUSH2 0x3D4 JUMP JUMPDEST DUP2 DUP2 MSTORE DUP5 PUSH1 0x20 DUP4 DUP7 ADD ADD GT ISZERO PUSH2 0x65E JUMPI PUSH0 PUSH0 REVERT JUMPDEST DUP2 PUSH1 0x20 DUP6 ADD PUSH1 0x20 DUP4 ADD MCOPY PUSH0 SWAP2 DUP2 ADD PUSH1 0x20 ADD SWAP2 SWAP1 SWAP2 MSTORE SWAP4 SWAP3 POP POP POP JUMP JUMPDEST PUSH0 PUSH1 0x20 DUP3 DUP5 SUB SLT ISZERO PUSH2 0x68A JUMPI PUSH0 PUSH0 REVERT JUMPDEST DUP2 MLOAD PUSH8 0xFFFFFFFFFFFFFFFF DUP2 GT ISZERO PUSH2 0x6A0 JUMPI PUSH0 PUSH0 REVERT JUMPDEST DUP3 ADD PUSH1 0x1F DUP2 ADD DUP5 SGT PUSH2 0x6B0 JUMPI PUSH0 PUSH0 REVERT JUMPDEST DUP1 MLOAD PUSH2 0x6BE PUSH2 0x45B DUP3 PUSH2 0x41B JUMP JUMPDEST DUP1 DUP3 DUP3 MSTORE PUSH1 0x20 DUP3 ADD SWAP2 POP PUSH1 0x20 DUP4 PUSH1 0x5 SHL DUP6 ADD ADD SWAP3 POP DUP7 DUP4 GT ISZERO PUSH2 0x6DF JUMPI PUSH0 PUSH0 REVERT JUMPDEST PUSH1 0x20 DUP5 ADD JUMPDEST DUP4 DUP2 LT ISZERO PUSH2 0x7A6 JUMPI DUP1 MLOAD PUSH8 0xFFFFFFFFFFFFFFFF DUP2 GT ISZERO PUSH2 0x702 JUMPI PUSH0 PUSH0 REVERT JUMPDEST DUP6 ADD PUSH1 0xA0 DUP2 DUP11 SUB PUSH1 0x1F NOT ADD SLT ISZERO PUSH2 0x717 JUMPI PUSH0 PUSH0 REVERT JUMPDEST PUSH2 0x71F PUSH2 0x3B1 JUMP JUMPDEST PUSH2 0x72B PUSH1 0x20 DUP4 ADD PUSH2 0x405 JUMP JUMPDEST DUP2 MSTORE PUSH1 0x40 DUP3 ADD MLOAD PUSH2 0x73B DUP2 PUSH2 0x30F JUMP JUMPDEST PUSH1 0x20 DUP3 ADD MSTORE PUSH1 0x60 DUP3 ADD MLOAD PUSH1 0xFF DUP2 AND DUP2 EQ PUSH2 0x753 JUMPI PUSH0 PUSH0 REVERT JUMPDEST PUSH1 0x40 DUP3 ADD MSTORE PUSH1 0x80 DUP3 ADD MLOAD PUSH8 0xFFFFFFFFFFFFFFFF DUP2 GT ISZERO PUSH2 0x771 JUMPI PUSH0 PUSH0 REVERT JUMPDEST PUSH2 0x780 DUP12 PUSH1 0x20 DUP4 DUP7 ADD ADD PUSH2 0x60E JUMP JUMPDEST PUSH1 0x60 DUP4 ADD MSTORE POP PUSH2 0x792 PUSH1 0xA0 DUP4 ADD PUSH2 0x348 JUMP JUMPDEST PUSH1 0x80 DUP3 ADD MSTORE DUP5 MSTORE POP PUSH1 0x20 SWAP3 DUP4 ADD SWAP3 ADD PUSH2 0x6E4 JUMP JUMPDEST POP SWAP7 SWAP6 POP POP POP POP POP POP JUMP JUMPDEST PUSH4 0x4E487B71 PUSH1 0xE0 SHL PUSH0 MSTORE PUSH1 0x32 PUSH1 0x4 MSTORE PUSH1 0x24 PUSH0 REVERT JUMPDEST PUSH1 0x1 PUSH1 0x1 PUSH1 0x80 SHL SUB DUP2 DUP2 AND DUP4 DUP3 AND ADD SWAP1 DUP2 GT ISZERO PUSH2 0x7E4 JUMPI PUSH2 0x7E4 PUSH2 0x5D0 JUMP JUMPDEST SWAP3 SWAP2 POP POP JUMP JUMPDEST PUSH0 PUSH1 0x1 PUSH1 0x1 PUSH1 0x80 SHL SUB DUP4 AND DUP1 PUSH2 0x80E JUMPI PUSH4 0x4E487B71 PUSH1 0xE0 SHL PUSH0 MSTORE PUSH1 0x12 PUSH1 0x4 MSTORE PUSH1 0x24 PUSH0 REVERT JUMPDEST DUP1 PUSH1 0x1 PUSH1 0x1 PUSH1 0x80 SHL SUB DUP5 AND DIV SWAP2 POP POP SWAP3 SWAP2 POP POP JUMP INVALID LOG2 PUSH5 0x6970667358 0x22 SLT KECCAK256 CALLCODE 0xC1 DUP10 0xAC 0xDF DUP13 0xBE PUSH1 0x7A PUSH25 0x1F9325513DD4D421DB2020BD744BE0622F3C29AF9B8364736F PUSH13 0x634300081E0033000000000000 "
		},
		"gasEstimates": {
			"creation": {
				"codeDepositCost": "427400",
				"executionCost": "infinite",
				"totalCost": "infinite"
			},
			"external": {
				"getRestaurantAverageRating(uint128)": "infinite",
				"getTotalOrdersByRestaurant(uint128)": "infinite",
				"orderManager()": "2379",
				"reviewManager()": "2336"
			}
		},
		"methodIdentifiers": {
			"getRestaurantAverageRating(uint128)": "cf343eed",
			"getTotalOrdersByRestaurant(uint128)": "0e67b9c2",
			"orderManager()": "f9b6117f",
			"reviewManager()": "c9b81583"
		}
	},
	"abi": [
		{
			"inputs": [
				{
					"internalType": "address",
					"name": "_orderManager",
					"type": "address"
				},
				{
					"internalType": "address",
					"name": "_reviewManager",
					"type": "address"
				}
			],
			"stateMutability": "nonpayable",
			"type": "constructor"
		},
		{
			"inputs": [
				{
					"internalType": "uint128",
					"name": "restaurantId",
					"type": "uint128"
				}
			],
			"name": "getRestaurantAverageRating",
			"outputs": [
				{
					"internalType": "uint128",
					"name": "averageRating",
					"type": "uint128"
				}
			],
			"stateMutability": "view",
			"type": "function"
		},
		{
			"inputs": [
				{
					"internalType": "uint128",
					"name": "restaurantId",
					"type": "uint128"
				}
			],
			"name": "getTotalOrdersByRestaurant",
			"outputs": [
				{
					"internalType": "uint128",
					"name": "totalOrders",
					"type": "uint128"
				}
			],
			"stateMutability": "view",
			"type": "function"
		},
		{
			"inputs": [],
			"name": "orderManager",
			"outputs": [
				{
					"internalType": "contract OrderManager",
					"name": "",
					"type": "address"
				}
			],
			"stateMutability": "view",
			"type": "function"
		},
		{
			"inputs": [],
			"name": "reviewManager",
			"outputs": [
				{
					"internalType": "contract ReviewManager",
					"name": "",
					"type": "address"
				}
			],
			"stateMutability": "view",
			"type": "function"
		}
	]
}