{
	"data": {
		"bytecode": {
			"linkReferences": {},
			"object": "6080604052348015600e575f5ffd5b50611a378061001c5f395ff3fe608060405260043610610161575f3560e01c806399374642116100cd578063dbc9139611610087578063e180ae7511610062578063e180ae751461045e578063f2fde38b1461047d578063f9b6117f1461049c578063fa20fca7146104bb575f5ffd5b8063dbc9139614610401578063ddb0c22f14610420578063e144b4ad1461043f575f5ffd5b8063993746421461032b578063ae9a465514610366578063c0da840d14610385578063c4522c92146103a4578063c4d66de8146103c3578063c9b81583146103e2575f5ffd5b80635059e95b1161011e5780635059e95b1461026b578063515f72ce1461028a5780635b94ea5d146102a9578063715018a6146102c85780638da5cb5b146102dc57806398d8807514610318575f5ffd5b80631b5df281146101655780632134b6f6146101865780632d3238fe146101c2578063388f20a81461020e57806341af8b6f1461022d5780634d36249c1461024c575b5f5ffd5b348015610170575f5ffd5b5061018461017f36600461127a565b6104cf565b005b348015610191575f5ffd5b506037546101a5906001600160a01b031681565b6040516001600160a01b0390911681526020015b60405180910390f35b3480156101cd575f5ffd5b506101f66101dc36600461127a565b60336020525f90815260409020546001600160801b031681565b6040516001600160801b0390911681526020016101b9565b348015610219575f5ffd5b506101846102283660046112b9565b610560565b348015610238575f5ffd5b50610184610247366004611392565b6105ed565b348015610257575f5ffd5b5061018461026636600461127a565b6106c7565b348015610276575f5ffd5b506034546101a5906001600160a01b031681565b348015610295575f5ffd5b506101846102a4366004611460565b61074f565b3480156102b4575f5ffd5b506101846102c33660046114c2565b610874565b3480156102d3575f5ffd5b5061018461094a565b3480156102e7575f5ffd5b507f9016d09d72d40fdae2fd8ceac6b6234c7706214fd39c1cd1e609a0528c199300546001600160a01b03166101a5565b610184610326366004611581565b61095d565b348015610336575f5ffd5b5061035961034536600461127a565b60326020525f908152604090205460ff1681565b6040516101b991906115ff565b348015610371575f5ffd5b50610184610380366004611619565b610a5d565b348015610390575f5ffd5b5061018461039f36600461127a565b610aec565b3480156103af575f5ffd5b506101846103be36600461127a565b610b74565b3480156103ce575f5ffd5b506101846103dd36600461127a565b610bf9565b3480156103ed575f5ffd5b506036546101a5906001600160a01b031681565b34801561040c575f5ffd5b5061018461041b3660046112b9565b610d15565b34801561042b575f5ffd5b5061018461043a366004611633565b610de5565b34801561044a575f5ffd5b5061018461045936600461127a565b610e3f565b348015610469575f5ffd5b50610184610478366004611662565b610ec7565b348015610488575f5ffd5b5061018461049736600461127a565b610f9e565b3480156104a7575f5ffd5b506035546101a5906001600160a01b031681565b3480156104c6575f5ffd5b506101f6610fdb565b335f9081526032602052604081205460ff1660028111156104f2576104f26115eb565b146105185760405162461bcd60e51b815260040161050f90611725565b60405180910390fd5b6001600160a01b03811661053e5760405162461bcd60e51b815260040161050f90611749565b603480546001600160a01b0319166001600160a01b0392909216919091179055565b6035546001600160a01b03166105885760405162461bcd60e51b815260040161050f90611772565b603554604051630711e41560e31b81526001600160801b03831660048201526001600160a01b039091169063388f20a8906024015b5f604051808303815f87803b1580156105d4575f5ffd5b505af11580156105e6573d5f5f3e3d5ffd5b5050505050565b335f9081526032602052604081205460ff166002811115610610576106106115eb565b1461062d5760405162461bcd60e51b815260040161050f90611725565b6034546001600160a01b03166106555760405162461bcd60e51b815260040161050f906117a0565b6034546040516341af8b6f60e01b81526001600160a01b03909116906341af8b6f90610691908a908a908a908a908a908a908a906004016117fb565b5f604051808303815f87803b1580156106a8575f5ffd5b505af11580156106ba573d5f5f3e3d5ffd5b5050505050505050505050565b335f9081526032602052604081205460ff1660028111156106ea576106ea6115eb565b146107075760405162461bcd60e51b815260040161050f90611725565b6001600160a01b03811661072d5760405162461bcd60e51b815260040161050f90611749565b603780546001600160a01b0319166001600160a01b0392909216919091179055565b6002335f9081526032602052604090205460ff166002811115610774576107746115eb565b14806107a257506001335f9081526032602052604090205460ff1660028111156107a0576107a06115eb565b145b6107be5760405162461bcd60e51b815260040161050f90611876565b6036546001600160a01b031661080e5760405162461bcd60e51b815260206004820152601560248201527414995d9a595dd3585b9859d95c881b9bdd081cd95d605a1b604482015260640161050f565b6036546040516328afb96760e11b81526001600160a01b039091169063515f72ce906108429086908690869060040161189d565b5f604051808303815f87803b158015610859575f5ffd5b505af115801561086b573d5f5f3e3d5ffd5b50505050505050565b335f9081526032602052604081205460ff166002811115610897576108976115eb565b146108b45760405162461bcd60e51b815260040161050f90611725565b6034546001600160a01b03166108dc5760405162461bcd60e51b815260040161050f906117a0565b603454604051635b94ea5d60e01b81526001600160801b038085166004830152831660248201526001600160a01b0390911690635b94ea5d906044015b5f604051808303815f87803b158015610930575f5ffd5b505af1158015610942573d5f5f3e3d5ffd5b505050505050565b6109526110ef565b61095b5f61114a565b565b6002335f9081526032602052604090205460ff166002811115610982576109826115eb565b14806109b057506001335f9081526032602052604090205460ff1660028111156109ae576109ae6115eb565b145b6109cc5760405162461bcd60e51b815260040161050f90611876565b6035546001600160a01b03166109f45760405162461bcd60e51b815260040161050f90611772565b6035546040516398d8807560e01b81526001600160a01b03909116906398d88075903490610a2a90879087908790600401611913565b5f604051808303818588803b158015610a41575f5ffd5b505af1158015610a53573d5f5f3e3d5ffd5b5050505050505050565b335f9081526032602052604081205460ff166002811115610a8057610a806115eb565b14610a9d5760405162461bcd60e51b815260040161050f90611725565b6001600160a01b03919091165f908152603260209081526040808320805460ff191660011790556033909152902080546001600160801b039092166001600160801b0319909216919091179055565b335f9081526032602052604081205460ff166002811115610b0f57610b0f6115eb565b14610b2c5760405162461bcd60e51b815260040161050f90611725565b6001600160a01b038116610b525760405162461bcd60e51b815260040161050f90611749565b603580546001600160a01b0319166001600160a01b0392909216919091179055565b335f9081526032602052604081205460ff166002811115610b9757610b976115eb565b14610bb45760405162461bcd60e51b815260040161050f90611725565b6001600160a01b0381165f90815260336020908152604080832080546001600160801b03191690556032909152902080546002919060ff19166001835b021790555050565b7ff0c57e16840df040f15088dc2f81fe391c3923bec73e23a9662efc9c229c6a008054600160401b810460ff1615906001600160401b03165f81158015610c3d5750825b90505f826001600160401b03166001148015610c585750303b155b905081158015610c66575080155b15610c845760405163f92ee8a960e01b815260040160405180910390fd5b845467ffffffffffffffff191660011785558315610cae57845460ff60401b1916600160401b1785555b610cb7866111ba565b610cbf6111cb565b610cc8866111db565b831561094257845460ff60401b19168555604051600181527fc7f505b2f371ae2175ee4913f4499e1f2633a7b5936321eed1cdaeb6115181d29060200160405180910390a1505050505050565b6002335f9081526032602052604090205460ff166002811115610d3a57610d3a6115eb565b1480610d6857506001335f9081526032602052604090205460ff166002811115610d6657610d666115eb565b145b610d845760405162461bcd60e51b815260040161050f90611876565b6035546001600160a01b0316610dac5760405162461bcd60e51b815260040161050f90611772565b603554604051636de489cb60e11b81526001600160801b03831660048201526001600160a01b039091169063dbc91396906024016105bd565b6035546001600160a01b0316610e0d5760405162461bcd60e51b815260040161050f90611772565b60355460405163ddb0c22f60e01b81526001600160a01b039091169063ddb0c22f906109199085908590600401611946565b335f9081526032602052604081205460ff166002811115610e6257610e626115eb565b14610e7f5760405162461bcd60e51b815260040161050f90611725565b6001600160a01b038116610ea55760405162461bcd60e51b815260040161050f90611749565b603680546001600160a01b0319166001600160a01b0392909216919091179055565b335f9081526032602052604081205460ff166002811115610eea57610eea6115eb565b14610f075760405162461bcd60e51b815260040161050f90611725565b6034546001600160a01b0316610f2f5760405162461bcd60e51b815260040161050f906117a0565b60345460405163e180ae7560e01b81526001600160a01b039091169063e180ae7590610f6990899089908990899089908990600401611973565b5f604051808303815f87803b158015610f80575f5ffd5b505af1158015610f92573d5f5f3e3d5ffd5b50505050505050505050565b610fa66110ef565b6001600160a01b038116610fcf57604051631e4fbdf760e01b81525f600482015260240161050f565b610fd88161114a565b50565b5f80335f9081526032602052604090205460ff166002811115611000576110006115eb565b1461101d5760405162461bcd60e51b815260040161050f90611725565b6037546001600160a01b03166110755760405162461bcd60e51b815260206004820152601960248201527f52657374617572616e744d616e61676572206e6f742073657400000000000000604482015260640161050f565b60375f9054906101000a90046001600160a01b03166001600160a01b031663fa20fca76040518163ffffffff1660e01b81526004016020604051808303815f875af11580156110c6573d5f5f3e3d5ffd5b505050506040513d601f19601f820116820180604052508101906110ea91906119e6565b905090565b336111217f9016d09d72d40fdae2fd8ceac6b6234c7706214fd39c1cd1e609a0528c199300546001600160a01b031690565b6001600160a01b03161461095b5760405163118cdaa760e01b815233600482015260240161050f565b7f9016d09d72d40fdae2fd8ceac6b6234c7706214fd39c1cd1e609a0528c19930080546001600160a01b031981166001600160a01b03848116918217845560405192169182907f8be0079c531659141344cd1fd0a4f28419497f9722a3daafe3b4186f6b6457e0905f90a3505050565b6111c2611200565b610fd881611249565b6111d3611200565b61095b611251565b6001600160a01b0381165f908152603260205260408120805460ff1916600183610bf1565b7ff0c57e16840df040f15088dc2f81fe391c3923bec73e23a9662efc9c229c6a0054600160401b900460ff1661095b57604051631afcd79f60e31b815260040160405180910390fd5b610fa6611200565b611259611200565b60015f55565b80356001600160a01b0381168114611275575f5ffd5b919050565b5f6020828403121561128a575f5ffd5b6112938261125f565b9392505050565b6001600160801b0381168114610fd8575f5ffd5b80356112758161129a565b5f602082840312156112c9575f5ffd5b81356112938161129a565b634e487b7160e01b5f52604160045260245ffd5b604051601f8201601f191681016001600160401b0381118282101715611310576113106112d4565b604052919050565b5f82601f830112611327575f5ffd5b81356001600160401b03811115611340576113406112d4565b611353601f8201601f19166020016112e8565b818152846020838601011115611367575f5ffd5b816020850160208301375f918101602001919091529392505050565b80358015158114611275575f5ffd5b5f5f5f5f5f5f5f60e0888a0312156113a8575f5ffd5b87356113b38161129a565b96506113c1602089016112ae565b955060408801356001600160401b038111156113db575f5ffd5b6113e78a828b01611318565b9550506113f6606089016112ae565b935061140460808901611383565b925060a08801356001600160401b0381111561141e575f5ffd5b61142a8a828b01611318565b92505060c08801356001600160401b03811115611445575f5ffd5b6114518a828b01611318565b91505092959891949750929550565b5f5f5f60608486031215611472575f5ffd5b833561147d8161129a565b9250602084013560ff81168114611492575f5ffd5b915060408401356001600160401b038111156114ac575f5ffd5b6114b886828701611318565b9150509250925092565b5f5f604083850312156114d3575f5ffd5b82356114de8161129a565b915060208301356114ee8161129a565b809150509250929050565b5f82601f830112611508575f5ffd5b81356001600160401b03811115611521576115216112d4565b8060051b611531602082016112e8565b9182526020818501810192908101908684111561154c575f5ffd5b6020860192505b838310156115775782356115668161129a565b825260209283019290910190611553565b9695505050505050565b5f5f5f60608486031215611593575f5ffd5b833561159e8161129a565b925060208401356001600160401b038111156115b8575f5ffd5b6115c4868287016114f9565b92505060408401356001600160401b038111156115df575f5ffd5b6114b8868287016114f9565b634e487b7160e01b5f52602160045260245ffd5b6020810160038310611613576116136115eb565b91905290565b5f5f6040838503121561162a575f5ffd5b6114de8361125f565b5f5f60408385031215611644575f5ffd5b823561164f8161129a565b91506020830135600681106114ee575f5ffd5b5f5f5f5f5f5f60c08789031215611677575f5ffd5b86356116828161129a565b955060208701356001600160401b0381111561169c575f5ffd5b6116a889828a01611318565b95505060408701356116b98161129a565b935060608701356001600160401b038111156116d3575f5ffd5b6116df89828a01611318565b93505060808701356001600160401b038111156116fa575f5ffd5b61170689828a01611318565b92505060a08701356117178161129a565b809150509295509295509295565b6020808252600a908201526927b7363c9030b236b4b760b11b604082015260600190565b6020808252600f908201526e496e76616c6964206164647265737360881b604082015260600190565b60208082526014908201527313dc99195c93585b9859d95c881b9bdd081cd95d60621b604082015260600190565b60208082526013908201527213595b9d53585b9859d95c881b9bdd081cd95d606a1b604082015260600190565b5f81518084528060208401602086015e5f602082860101526020601f19601f83011685010191505092915050565b6001600160801b03881681526001600160801b038716602082015260e060408201525f61182b60e08301886117cd565b6001600160801b0387166060840152851515608084015282810360a084015261185481866117cd565b905082810360c084015261186881856117cd565b9a9950505050505050505050565b6020808252600d908201526c27b7363c9031bab9ba37b6b2b960991b604082015260600190565b6001600160801b038416815260ff83166020820152606060408201525f6118c760608301846117cd565b95945050505050565b5f8151808452602084019350602083015f5b828110156119095781516001600160801b03168652602095860195909101906001016118e2565b5093949350505050565b6001600160801b0384168152606060208201525f61193460608301856118d0565b828103604084015261157781856118d0565b6001600160801b03831681526040810160068310611966576119666115eb565b8260208301529392505050565b6001600160801b038716815260c060208201525f61199460c08301886117cd565b6001600160801b038716604084015282810360608401526119b581876117cd565b905082810360808401526119c981866117cd565b9150506001600160801b03831660a0830152979650505050505050565b5f602082840312156119f6575f5ffd5b81516112938161129a56fea26469706673582212207a4c3096fff4ed2660faf24e385552eb1f8532a573fa71a0ef4a9e3f66bb159f64736f6c634300081e0033",
			"opcodes": "PUSH1 0x80 PUSH1 0x40 MSTORE CALLVALUE DUP1 ISZERO PUSH1 0xE JUMPI PUSH0 PUSH0 REVERT JUMPDEST POP PUSH2 0x1A37 DUP1 PUSH2 0x1C PUSH0 CODECOPY PUSH0 RETURN INVALID PUSH1 0x80 PUSH1 0x40 MSTORE PUSH1 0x4 CALLDATASIZE LT PUSH2 0x161 JUMPI PUSH0 CALLDATALOAD PUSH1 0xE0 SHR DUP1 PUSH4 0x99374642 GT PUSH2 0xCD JUMPI DUP1 PUSH4 0xDBC91396 GT PUSH2 0x87 JUMPI DUP1 PUSH4 0xE180AE75 GT PUSH2 0x62 JUMPI DUP1 PUSH4 0xE180AE75 EQ PUSH2 0x45E JUMPI DUP1 PUSH4 0xF2FDE38B EQ PUSH2 0x47D JUMPI DUP1 PUSH4 0xF9B6117F EQ PUSH2 0x49C JUMPI DUP1 PUSH4 0xFA20FCA7 EQ PUSH2 0x4BB JUMPI PUSH0 PUSH0 REVERT JUMPDEST DUP1 PUSH4 0xDBC91396 EQ PUSH2 0x401 JUMPI DUP1 PUSH4 0xDDB0C22F EQ PUSH2 0x420 JUMPI DUP1 PUSH4 0xE144B4AD EQ PUSH2 0x43F JUMPI PUSH0 PUSH0 REVERT JUMPDEST DUP1 PUSH4 0x99374642 EQ PUSH2 0x32B JUMPI DUP1 PUSH4 0xAE9A4655 EQ PUSH2 0x366 JUMPI DUP1 PUSH4 0xC0DA840D EQ PUSH2 0x385 JUMPI DUP1 PUSH4 0xC4522C92 EQ PUSH2 0x3A4 JUMPI DUP1 PUSH4 0xC4D66DE8 EQ PUSH2 0x3C3 JUMPI DUP1 PUSH4 0xC9B81583 EQ PUSH2 0x3E2 JUMPI PUSH0 PUSH0 REVERT JUMPDEST DUP1 PUSH4 0x5059E95B GT PUSH2 0x11E JUMPI DUP1 PUSH4 0x5059E95B EQ PUSH2 0x26B JUMPI DUP1 PUSH4 0x515F72CE EQ PUSH2 0x28A JUMPI DUP1 PUSH4 0x5B94EA5D EQ PUSH2 0x2A9 JUMPI DUP1 PUSH4 0x715018A6 EQ PUSH2 0x2C8 JUMPI DUP1 PUSH4 0x8DA5CB5B EQ PUSH2 0x2DC JUMPI DUP1 PUSH4 0x98D88075 EQ PUSH2 0x318 JUMPI PUSH0 PUSH0 REVERT JUMPDEST DUP1 PUSH4 0x1B5DF281 EQ PUSH2 0x165 JUMPI DUP1 PUSH4 0x2134B6F6 EQ PUSH2 0x186 JUMPI DUP1 PUSH4 0x2D3238FE EQ PUSH2 0x1C2 JUMPI DUP1 PUSH4 0x388F20A8 EQ PUSH2 0x20E JUMPI DUP1 PUSH4 0x41AF8B6F EQ PUSH2 0x22D JUMPI DUP1 PUSH4 0x4D36249C EQ PUSH2 0x24C JUMPI JUMPDEST PUSH0 PUSH0 REVERT JUMPDEST CALLVALUE DUP1 ISZERO PUSH2 0x170 JUMPI PUSH0 PUSH0 REVERT JUMPDEST POP PUSH2 0x184 PUSH2 0x17F CALLDATASIZE PUSH1 0x4 PUSH2 0x127A JUMP JUMPDEST PUSH2 0x4CF JUMP JUMPDEST STOP JUMPDEST CALLVALUE DUP1 ISZERO PUSH2 0x191 JUMPI PUSH0 PUSH0 REVERT JUMPDEST POP PUSH1 0x37 SLOAD PUSH2 0x1A5 SWAP1 PUSH1 0x1 PUSH1 0x1 PUSH1 0xA0 SHL SUB AND DUP2 JUMP JUMPDEST PUSH1 0x40 MLOAD PUSH1 0x1 PUSH1 0x1 PUSH1 0xA0 SHL SUB SWAP1 SWAP2 AND DUP2 MSTORE PUSH1 0x20 ADD JUMPDEST PUSH1 0x40 MLOAD DUP1 SWAP2 SUB SWAP1 RETURN JUMPDEST CALLVALUE DUP1 ISZERO PUSH2 0x1CD JUMPI PUSH0 PUSH0 REVERT JUMPDEST POP PUSH2 0x1F6 PUSH2 0x1DC CALLDATASIZE PUSH1 0x4 PUSH2 0x127A JUMP JUMPDEST PUSH1 0x33 PUSH1 0x20 MSTORE PUSH0 SWAP1 DUP2 MSTORE PUSH1 0x40 SWAP1 KECCAK256 SLOAD PUSH1 0x1 PUSH1 0x1 PUSH1 0x80 SHL SUB AND DUP2 JUMP JUMPDEST PUSH1 0x40 MLOAD PUSH1 0x1 PUSH1 0x1 PUSH1 0x80 SHL SUB SWAP1 SWAP2 AND DUP2 MSTORE PUSH1 0x20 ADD PUSH2 0x1B9 JUMP JUMPDEST CALLVALUE DUP1 ISZERO PUSH2 0x219 JUMPI PUSH0 PUSH0 REVERT JUMPDEST POP PUSH2 0x184 PUSH2 0x228 CALLDATASIZE PUSH1 0x4 PUSH2 0x12B9 JUMP JUMPDEST PUSH2 0x560 JUMP JUMPDEST CALLVALUE DUP1 ISZERO PUSH2 0x238 JUMPI PUSH0 PUSH0 REVERT JUMPDEST POP PUSH2 0x184 PUSH2 0x247 CALLDATASIZE PUSH1 0x4 PUSH2 0x1392 JUMP JUMPDEST PUSH2 0x5ED JUMP JUMPDEST CALLVALUE DUP1 ISZERO PUSH2 0x257 JUMPI PUSH0 PUSH0 REVERT JUMPDEST POP PUSH2 0x184 PUSH2 0x266 CALLDATASIZE PUSH1 0x4 PUSH2 0x127A JUMP JUMPDEST PUSH2 0x6C7 JUMP JUMPDEST CALLVALUE DUP1 ISZERO PUSH2 0x276 JUMPI PUSH0 PUSH0 REVERT JUMPDEST POP PUSH1 0x34 SLOAD PUSH2 0x1A5 SWAP1 PUSH1 0x1 PUSH1 0x1 PUSH1 0xA0 SHL SUB AND DUP2 JUMP JUMPDEST CALLVALUE DUP1 ISZERO PUSH2 0x295 JUMPI PUSH0 PUSH0 REVERT JUMPDEST POP PUSH2 0x184 PUSH2 0x2A4 CALLDATASIZE PUSH1 0x4 PUSH2 0x1460 JUMP JUMPDEST PUSH2 0x74F JUMP JUMPDEST CALLVALUE DUP1 ISZERO PUSH2 0x2B4 JUMPI PUSH0 PUSH0 REVERT JUMPDEST POP PUSH2 0x184 PUSH2 0x2C3 CALLDATASIZE PUSH1 0x4 PUSH2 0x14C2 JUMP JUMPDEST PUSH2 0x874 JUMP JUMPDEST CALLVALUE DUP1 ISZERO PUSH2 0x2D3 JUMPI PUSH0 PUSH0 REVERT JUMPDEST POP PUSH2 0x184 PUSH2 0x94A JUMP JUMPDEST CALLVALUE DUP1 ISZERO PUSH2 0x2E7 JUMPI PUSH0 PUSH0 REVERT JUMPDEST POP PUSH32 0x9016D09D72D40FDAE2FD8CEAC6B6234C7706214FD39C1CD1E609A0528C199300 SLOAD PUSH1 0x1 PUSH1 0x1 PUSH1 0xA0 SHL SUB AND PUSH2 0x1A5 JUMP JUMPDEST PUSH2 0x184 PUSH2 0x326 CALLDATASIZE PUSH1 0x4 PUSH2 0x1581 JUMP JUMPDEST PUSH2 0x95D JUMP JUMPDEST CALLVALUE DUP1 ISZERO PUSH2 0x336 JUMPI PUSH0 PUSH0 REVERT JUMPDEST POP PUSH2 0x359 PUSH2 0x345 CALLDATASIZE PUSH1 0x4 PUSH2 0x127A JUMP JUMPDEST PUSH1 0x32 PUSH1 0x20 MSTORE PUSH0 SWAP1 DUP2 MSTORE PUSH1 0x40 SWAP1 KECCAK256 SLOAD PUSH1 0xFF AND DUP2 JUMP JUMPDEST PUSH1 0x40 MLOAD PUSH2 0x1B9 SWAP2 SWAP1 PUSH2 0x15FF JUMP JUMPDEST CALLVALUE DUP1 ISZERO PUSH2 0x371 JUMPI PUSH0 PUSH0 REVERT JUMPDEST POP PUSH2 0x184 PUSH2 0x380 CALLDATASIZE PUSH1 0x4 PUSH2 0x1619 JUMP JUMPDEST PUSH2 0xA5D JUMP JUMPDEST CALLVALUE DUP1 ISZERO PUSH2 0x390 JUMPI PUSH0 PUSH0 REVERT JUMPDEST POP PUSH2 0x184 PUSH2 0x39F CALLDATASIZE PUSH1 0x4 PUSH2 0x127A JUMP JUMPDEST PUSH2 0xAEC JUMP JUMPDEST CALLVALUE DUP1 ISZERO PUSH2 0x3AF JUMPI PUSH0 PUSH0 REVERT JUMPDEST POP PUSH2 0x184 PUSH2 0x3BE CALLDATASIZE PUSH1 0x4 PUSH2 0x127A JUMP JUMPDEST PUSH2 0xB74 JUMP JUMPDEST CALLVALUE DUP1 ISZERO PUSH2 0x3CE JUMPI PUSH0 PUSH0 REVERT JUMPDEST POP PUSH2 0x184 PUSH2 0x3DD CALLDATASIZE PUSH1 0x4 PUSH2 0x127A JUMP JUMPDEST PUSH2 0xBF9 JUMP JUMPDEST CALLVALUE DUP1 ISZERO PUSH2 0x3ED JUMPI PUSH0 PUSH0 REVERT JUMPDEST POP PUSH1 0x36 SLOAD PUSH2 0x1A5 SWAP1 PUSH1 0x1 PUSH1 0x1 PUSH1 0xA0 SHL SUB AND DUP2 JUMP JUMPDEST CALLVALUE DUP1 ISZERO PUSH2 0x40C JUMPI PUSH0 PUSH0 REVERT JUMPDEST POP PUSH2 0x184 PUSH2 0x41B CALLDATASIZE PUSH1 0x4 PUSH2 0x12B9 JUMP JUMPDEST PUSH2 0xD15 JUMP JUMPDEST CALLVALUE DUP1 ISZERO PUSH2 0x42B JUMPI PUSH0 PUSH0 REVERT JUMPDEST POP PUSH2 0x184 PUSH2 0x43A CALLDATASIZE PUSH1 0x4 PUSH2 0x1633 JUMP JUMPDEST PUSH2 0xDE5 JUMP JUMPDEST CALLVALUE DUP1 ISZERO PUSH2 0x44A JUMPI PUSH0 PUSH0 REVERT JUMPDEST POP PUSH2 0x184 PUSH2 0x459 CALLDATASIZE PUSH1 0x4 PUSH2 0x127A JUMP JUMPDEST PUSH2 0xE3F JUMP JUMPDEST CALLVALUE DUP1 ISZERO PUSH2 0x469 JUMPI PUSH0 PUSH0 REVERT JUMPDEST POP PUSH2 0x184 PUSH2 0x478 CALLDATASIZE PUSH1 0x4 PUSH2 0x1662 JUMP JUMPDEST PUSH2 0xEC7 JUMP JUMPDEST CALLVALUE DUP1 ISZERO PUSH2 0x488 JUMPI PUSH0 PUSH0 REVERT JUMPDEST POP PUSH2 0x184 PUSH2 0x497 CALLDATASIZE PUSH1 0x4 PUSH2 0x127A JUMP JUMPDEST PUSH2 0xF9E JUMP JUMPDEST CALLVALUE DUP1 ISZERO PUSH2 0x4A7 JUMPI PUSH0 PUSH0 REVERT JUMPDEST POP PUSH1 0x35 SLOAD PUSH2 0x1A5 SWAP1 PUSH1 0x1 PUSH1 0x1 PUSH1 0xA0 SHL SUB AND DUP2 JUMP JUMPDEST CALLVALUE DUP1 ISZERO PUSH2 0x4C6 JUMPI PUSH0 PUSH0 REVERT JUMPDEST POP PUSH2 0x1F6 PUSH2 0xFDB JUMP JUMPDEST CALLER PUSH0 SWAP1 DUP2 MSTORE PUSH1 0x32 PUSH1 0x20 MSTORE PUSH1 0x40 DUP2 KECCAK256 SLOAD PUSH1 0xFF AND PUSH1 0x2 DUP2 GT ISZERO PUSH2 0x4F2 JUMPI PUSH2 0x4F2 PUSH2 0x15EB JUMP JUMPDEST EQ PUSH2 0x518 JUMPI PUSH1 0x40 MLOAD PUSH3 0x461BCD PUSH1 0xE5 SHL DUP2 MSTORE PUSH1 0x4 ADD PUSH2 0x50F SWAP1 PUSH2 0x1725 JUMP JUMPDEST PUSH1 0x40 MLOAD DUP1 SWAP2 SUB SWAP1 REVERT JUMPDEST PUSH1 0x1 PUSH1 0x1 PUSH1 0xA0 SHL SUB DUP2 AND PUSH2 0x53E JUMPI PUSH1 0x40 MLOAD PUSH3 0x461BCD PUSH1 0xE5 SHL DUP2 MSTORE PUSH1 0x4 ADD PUSH2 0x50F SWAP1 PUSH2 0x1749 JUMP JUMPDEST PUSH1 0x34 DUP1 SLOAD PUSH1 0x1 PUSH1 0x1 PUSH1 0xA0 SHL SUB NOT AND PUSH1 0x1 PUSH1 0x1 PUSH1 0xA0 SHL SUB SWAP3 SWAP1 SWAP3 AND SWAP2 SWAP1 SWAP2 OR SWAP1 SSTORE JUMP JUMPDEST PUSH1 0x35 SLOAD PUSH1 0x1 PUSH1 0x1 PUSH1 0xA0 SHL SUB AND PUSH2 0x588 JUMPI PUSH1 0x40 MLOAD PUSH3 0x461BCD PUSH1 0xE5 SHL DUP2 MSTORE PUSH1 0x4 ADD PUSH2 0x50F SWAP1 PUSH2 0x1772 JUMP JUMPDEST PUSH1 0x35 SLOAD PUSH1 0x40 MLOAD PUSH4 0x711E415 PUSH1 0xE3 SHL DUP2 MSTORE PUSH1 0x1 PUSH1 0x1 PUSH1 0x80 SHL SUB DUP4 AND PUSH1 0x4 DUP3 ADD MSTORE PUSH1 0x1 PUSH1 0x1 PUSH1 0xA0 SHL SUB SWAP1 SWAP2 AND SWAP1 PUSH4 0x388F20A8 SWAP1 PUSH1 0x24 ADD JUMPDEST PUSH0 PUSH1 0x40 MLOAD DUP1 DUP4 SUB DUP2 PUSH0 DUP8 DUP1 EXTCODESIZE ISZERO DUP1 ISZERO PUSH2 0x5D4 JUMPI PUSH0 PUSH0 REVERT JUMPDEST POP GAS CALL ISZERO DUP1 ISZERO PUSH2 0x5E6 JUMPI RETURNDATASIZE PUSH0 PUSH0 RETURNDATACOPY RETURNDATASIZE PUSH0 REVERT JUMPDEST POP POP POP POP POP JUMP JUMPDEST CALLER PUSH0 SWAP1 DUP2 MSTORE PUSH1 0x32 PUSH1 0x20 MSTORE PUSH1 0x40 DUP2 KECCAK256 SLOAD PUSH1 0xFF AND PUSH1 0x2 DUP2 GT ISZERO PUSH2 0x610 JUMPI PUSH2 0x610 PUSH2 0x15EB JUMP JUMPDEST EQ PUSH2 0x62D JUMPI PUSH1 0x40 MLOAD PUSH3 0x461BCD PUSH1 0xE5 SHL DUP2 MSTORE PUSH1 0x4 ADD PUSH2 0x50F SWAP1 PUSH2 0x1725 JUMP JUMPDEST PUSH1 0x34 SLOAD PUSH1 0x1 PUSH1 0x1 PUSH1 0xA0 SHL SUB AND PUSH2 0x655 JUMPI PUSH1 0x40 MLOAD PUSH3 0x461BCD PUSH1 0xE5 SHL DUP2 MSTORE PUSH1 0x4 ADD PUSH2 0x50F SWAP1 PUSH2 0x17A0 JUMP JUMPDEST PUSH1 0x34 SLOAD PUSH1 0x40 MLOAD PUSH4 0x41AF8B6F PUSH1 0xE0 SHL DUP2 MSTORE PUSH1 0x1 PUSH1 0x1 PUSH1 0xA0 SHL SUB SWAP1 SWAP2 AND SWAP1 PUSH4 0x41AF8B6F SWAP1 PUSH2 0x691 SWAP1 DUP11 SWAP1 DUP11 SWAP1 DUP11 SWAP1 DUP11 SWAP1 DUP11 SWAP1 DUP11 SWAP1 DUP11 SWAP1 PUSH1 0x4 ADD PUSH2 0x17FB JUMP JUMPDEST PUSH0 PUSH1 0x40 MLOAD DUP1 DUP4 SUB DUP2 PUSH0 DUP8 DUP1 EXTCODESIZE ISZERO DUP1 ISZERO PUSH2 0x6A8 JUMPI PUSH0 PUSH0 REVERT JUMPDEST POP GAS CALL ISZERO DUP1 ISZERO PUSH2 0x6BA JUMPI RETURNDATASIZE PUSH0 PUSH0 RETURNDATACOPY RETURNDATASIZE PUSH0 REVERT JUMPDEST POP POP POP POP POP POP POP POP POP POP POP JUMP JUMPDEST CALLER PUSH0 SWAP1 DUP2 MSTORE PUSH1 0x32 PUSH1 0x20 MSTORE PUSH1 0x40 DUP2 KECCAK256 SLOAD PUSH1 0xFF AND PUSH1 0x2 DUP2 GT ISZERO PUSH2 0x6EA JUMPI PUSH2 0x6EA PUSH2 0x15EB JUMP JUMPDEST EQ PUSH2 0x707 JUMPI PUSH1 0x40 MLOAD PUSH3 0x461BCD PUSH1 0xE5 SHL DUP2 MSTORE PUSH1 0x4 ADD PUSH2 0x50F SWAP1 PUSH2 0x1725 JUMP JUMPDEST PUSH1 0x1 PUSH1 0x1 PUSH1 0xA0 SHL SUB DUP2 AND PUSH2 0x72D JUMPI PUSH1 0x40 MLOAD PUSH3 0x461BCD PUSH1 0xE5 SHL DUP2 MSTORE PUSH1 0x4 ADD PUSH2 0x50F SWAP1 PUSH2 0x1749 JUMP JUMPDEST PUSH1 0x37 DUP1 SLOAD PUSH1 0x1 PUSH1 0x1 PUSH1 0xA0 SHL SUB NOT AND PUSH1 0x1 PUSH1 0x1 PUSH1 0xA0 SHL SUB SWAP3 SWAP1 SWAP3 AND SWAP2 SWAP1 SWAP2 OR SWAP1 SSTORE JUMP JUMPDEST PUSH1 0x2 CALLER PUSH0 SWAP1 DUP2 MSTORE PUSH1 0x32 PUSH1 0x20 MSTORE PUSH1 0x40 SWAP1 KECCAK256 SLOAD PUSH1 0xFF AND PUSH1 0x2 DUP2 GT ISZERO PUSH2 0x774 JUMPI PUSH2 0x774 PUSH2 0x15EB JUMP JUMPDEST EQ DUP1 PUSH2 0x7A2 JUMPI POP PUSH1 0x1 CALLER PUSH0 SWAP1 DUP2 MSTORE PUSH1 0x32 PUSH1 0x20 MSTORE PUSH1 0x40 SWAP1 KECCAK256 SLOAD PUSH1 0xFF AND PUSH1 0x2 DUP2 GT ISZERO PUSH2 0x7A0 JUMPI PUSH2 0x7A0 PUSH2 0x15EB JUMP JUMPDEST EQ JUMPDEST PUSH2 0x7BE JUMPI PUSH1 0x40 MLOAD PUSH3 0x461BCD PUSH1 0xE5 SHL DUP2 MSTORE PUSH1 0x4 ADD PUSH2 0x50F SWAP1 PUSH2 0x1876 JUMP JUMPDEST PUSH1 0x36 SLOAD PUSH1 0x1 PUSH1 0x1 PUSH1 0xA0 SHL SUB AND PUSH2 0x80E JUMPI PUSH1 0x40 MLOAD PUSH3 0x461BCD PUSH1 0xE5 SHL DUP2 MSTORE PUSH1 0x20 PUSH1 0x4 DUP3 ADD MSTORE PUSH1 0x15 PUSH1 0x24 DUP3 ADD MSTORE PUSH21 0x14995D9A595DD3585B9859D95C881B9BDD081CD95D PUSH1 0x5A SHL PUSH1 0x44 DUP3 ADD MSTORE PUSH1 0x64 ADD PUSH2 0x50F JUMP JUMPDEST PUSH1 0x36 SLOAD PUSH1 0x40 MLOAD PUSH4 0x28AFB967 PUSH1 0xE1 SHL DUP2 MSTORE PUSH1 0x1 PUSH1 0x1 PUSH1 0xA0 SHL SUB SWAP1 SWAP2 AND SWAP1 PUSH4 0x515F72CE SWAP1 PUSH2 0x842 SWAP1 DUP7 SWAP1 DUP7 SWAP1 DUP7 SWAP1 PUSH1 0x4 ADD PUSH2 0x189D JUMP JUMPDEST PUSH0 PUSH1 0x40 MLOAD DUP1 DUP4 SUB DUP2 PUSH0 DUP8 DUP1 EXTCODESIZE ISZERO DUP1 ISZERO PUSH2 0x859 JUMPI PUSH0 PUSH0 REVERT JUMPDEST POP GAS CALL ISZERO DUP1 ISZERO PUSH2 0x86B JUMPI RETURNDATASIZE PUSH0 PUSH0 RETURNDATACOPY RETURNDATASIZE PUSH0 REVERT JUMPDEST POP POP POP POP POP POP POP JUMP JUMPDEST CALLER PUSH0 SWAP1 DUP2 MSTORE PUSH1 0x32 PUSH1 0x20 MSTORE PUSH1 0x40 DUP2 KECCAK256 SLOAD PUSH1 0xFF AND PUSH1 0x2 DUP2 GT ISZERO PUSH2 0x897 JUMPI PUSH2 0x897 PUSH2 0x15EB JUMP JUMPDEST EQ PUSH2 0x8B4 JUMPI PUSH1 0x40 MLOAD PUSH3 0x461BCD PUSH1 0xE5 SHL DUP2 MSTORE PUSH1 0x4 ADD PUSH2 0x50F SWAP1 PUSH2 0x1725 JUMP JUMPDEST PUSH1 0x34 SLOAD PUSH1 0x1 PUSH1 0x1 PUSH1 0xA0 SHL SUB AND PUSH2 0x8DC JUMPI PUSH1 0x40 MLOAD PUSH3 0x461BCD PUSH1 0xE5 SHL DUP2 MSTORE PUSH1 0x4 ADD PUSH2 0x50F SWAP1 PUSH2 0x17A0 JUMP JUMPDEST PUSH1 0x34 SLOAD PUSH1 0x40 MLOAD PUSH4 0x5B94EA5D PUSH1 0xE0 SHL DUP2 MSTORE PUSH1 0x1 PUSH1 0x1 PUSH1 0x80 SHL SUB DUP1 DUP6 AND PUSH1 0x4 DUP4 ADD MSTORE DUP4 AND PUSH1 0x24 DUP3 ADD MSTORE PUSH1 0x1 PUSH1 0x1 PUSH1 0xA0 SHL SUB SWAP1 SWAP2 AND SWAP1 PUSH4 0x5B94EA5D SWAP1 PUSH1 0x44 ADD JUMPDEST PUSH0 PUSH1 0x40 MLOAD DUP1 DUP4 SUB DUP2 PUSH0 DUP8 DUP1 EXTCODESIZE ISZERO DUP1 ISZERO PUSH2 0x930 JUMPI PUSH0 PUSH0 REVERT JUMPDEST POP GAS CALL ISZERO DUP1 ISZERO PUSH2 0x942 JUMPI RETURNDATASIZE PUSH0 PUSH0 RETURNDATACOPY RETURNDATASIZE PUSH0 REVERT JUMPDEST POP POP POP POP POP POP JUMP JUMPDEST PUSH2 0x952 PUSH2 0x10EF JUMP JUMPDEST PUSH2 0x95B PUSH0 PUSH2 0x114A JUMP JUMPDEST JUMP JUMPDEST PUSH1 0x2 CALLER PUSH0 SWAP1 DUP2 MSTORE PUSH1 0x32 PUSH1 0x20 MSTORE PUSH1 0x40 SWAP1 KECCAK256 SLOAD PUSH1 0xFF AND PUSH1 0x2 DUP2 GT ISZERO PUSH2 0x982 JUMPI PUSH2 0x982 PUSH2 0x15EB JUMP JUMPDEST EQ DUP1 PUSH2 0x9B0 JUMPI POP PUSH1 0x1 CALLER PUSH0 SWAP1 DUP2 MSTORE PUSH1 0x32 PUSH1 0x20 MSTORE PUSH1 0x40 SWAP1 KECCAK256 SLOAD PUSH1 0xFF AND PUSH1 0x2 DUP2 GT ISZERO PUSH2 0x9AE JUMPI PUSH2 0x9AE PUSH2 0x15EB JUMP JUMPDEST EQ JUMPDEST PUSH2 0x9CC JUMPI PUSH1 0x40 MLOAD PUSH3 0x461BCD PUSH1 0xE5 SHL DUP2 MSTORE PUSH1 0x4 ADD PUSH2 0x50F SWAP1 PUSH2 0x1876 JUMP JUMPDEST PUSH1 0x35 SLOAD PUSH1 0x1 PUSH1 0x1 PUSH1 0xA0 SHL SUB AND PUSH2 0x9F4 JUMPI PUSH1 0x40 MLOAD PUSH3 0x461BCD PUSH1 0xE5 SHL DUP2 MSTORE PUSH1 0x4 ADD PUSH2 0x50F SWAP1 PUSH2 0x1772 JUMP JUMPDEST PUSH1 0x35 SLOAD PUSH1 0x40 MLOAD PUSH4 0x98D88075 PUSH1 0xE0 SHL DUP2 MSTORE PUSH1 0x1 PUSH1 0x1 PUSH1 0xA0 SHL SUB SWAP1 SWAP2 AND SWAP1 PUSH4 0x98D88075 SWAP1 CALLVALUE SWAP1 PUSH2 0xA2A SWAP1 DUP8 SWAP1 DUP8 SWAP1 DUP8 SWAP1 PUSH1 0x4 ADD PUSH2 0x1913 JUMP JUMPDEST PUSH0 PUSH1 0x40 MLOAD DUP1 DUP4 SUB DUP2 DUP6 DUP9 DUP1 EXTCODESIZE ISZERO DUP1 ISZERO PUSH2 0xA41 JUMPI PUSH0 PUSH0 REVERT JUMPDEST POP GAS CALL ISZERO DUP1 ISZERO PUSH2 0xA53 JUMPI RETURNDATASIZE PUSH0 PUSH0 RETURNDATACOPY RETURNDATASIZE PUSH0 REVERT JUMPDEST POP POP POP POP POP POP POP POP JUMP JUMPDEST CALLER PUSH0 SWAP1 DUP2 MSTORE PUSH1 0x32 PUSH1 0x20 MSTORE PUSH1 0x40 DUP2 KECCAK256 SLOAD PUSH1 0xFF AND PUSH1 0x2 DUP2 GT ISZERO PUSH2 0xA80 JUMPI PUSH2 0xA80 PUSH2 0x15EB JUMP JUMPDEST EQ PUSH2 0xA9D JUMPI PUSH1 0x40 MLOAD PUSH3 0x461BCD PUSH1 0xE5 SHL DUP2 MSTORE PUSH1 0x4 ADD PUSH2 0x50F SWAP1 PUSH2 0x1725 JUMP JUMPDEST PUSH1 0x1 PUSH1 0x1 PUSH1 0xA0 SHL SUB SWAP2 SWAP1 SWAP2 AND PUSH0 SWAP1 DUP2 MSTORE PUSH1 0x32 PUSH1 0x20 SWAP1 DUP2 MSTORE PUSH1 0x40 DUP1 DUP4 KECCAK256 DUP1 SLOAD PUSH1 0xFF NOT AND PUSH1 0x1 OR SWAP1 SSTORE PUSH1 0x33 SWAP1 SWAP2 MSTORE SWAP1 KECCAK256 DUP1 SLOAD PUSH1 0x1 PUSH1 0x1 PUSH1 0x80 SHL SUB SWAP1 SWAP3 AND PUSH1 0x1 PUSH1 0x1 PUSH1 0x80 SHL SUB NOT SWAP1 SWAP3 AND SWAP2 SWAP1 SWAP2 OR SWAP1 SSTORE JUMP JUMPDEST CALLER PUSH0 SWAP1 DUP2 MSTORE PUSH1 0x32 PUSH1 0x20 MSTORE PUSH1 0x40 DUP2 KECCAK256 SLOAD PUSH1 0xFF AND PUSH1 0x2 DUP2 GT ISZERO PUSH2 0xB0F JUMPI PUSH2 0xB0F PUSH2 0x15EB JUMP JUMPDEST EQ PUSH2 0xB2C JUMPI PUSH1 0x40 MLOAD PUSH3 0x461BCD PUSH1 0xE5 SHL DUP2 MSTORE PUSH1 0x4 ADD PUSH2 0x50F SWAP1 PUSH2 0x1725 JUMP JUMPDEST PUSH1 0x1 PUSH1 0x1 PUSH1 0xA0 SHL SUB DUP2 AND PUSH2 0xB52 JUMPI PUSH1 0x40 MLOAD PUSH3 0x461BCD PUSH1 0xE5 SHL DUP2 MSTORE PUSH1 0x4 ADD PUSH2 0x50F SWAP1 PUSH2 0x1749 JUMP JUMPDEST PUSH1 0x35 DUP1 SLOAD PUSH1 0x1 PUSH1 0x1 PUSH1 0xA0 SHL SUB NOT AND PUSH1 0x1 PUSH1 0x1 PUSH1 0xA0 SHL SUB SWAP3 SWAP1 SWAP3 AND SWAP2 SWAP1 SWAP2 OR SWAP1 SSTORE JUMP JUMPDEST CALLER PUSH0 SWAP1 DUP2 MSTORE PUSH1 0x32 PUSH1 0x20 MSTORE PUSH1 0x40 DUP2 KECCAK256 SLOAD PUSH1 0xFF AND PUSH1 0x2 DUP2 GT ISZERO PUSH2 0xB97 JUMPI PUSH2 0xB97 PUSH2 0x15EB JUMP JUMPDEST EQ PUSH2 0xBB4 JUMPI PUSH1 0x40 MLOAD PUSH3 0x461BCD PUSH1 0xE5 SHL DUP2 MSTORE PUSH1 0x4 ADD PUSH2 0x50F SWAP1 PUSH2 0x1725 JUMP JUMPDEST PUSH1 0x1 PUSH1 0x1 PUSH1 0xA0 SHL SUB DUP2 AND PUSH0 SWAP1 DUP2 MSTORE PUSH1 0x33 PUSH1 0x20 SWAP1 DUP2 MSTORE PUSH1 0x40 DUP1 DUP4 KECCAK256 DUP1 SLOAD PUSH1 0x1 PUSH1 0x1 PUSH1 0x80 SHL SUB NOT AND SWAP1 SSTORE PUSH1 0x32 SWAP1 SWAP2 MSTORE SWAP1 KECCAK256 DUP1 SLOAD PUSH1 0x2 SWAP2 SWAP1 PUSH1 0xFF NOT AND PUSH1 0x1 DUP4 JUMPDEST MUL OR SWAP1 SSTORE POP POP JUMP JUMPDEST PUSH32 0xF0C57E16840DF040F15088DC2F81FE391C3923BEC73E23A9662EFC9C229C6A00 DUP1 SLOAD PUSH1 0x1 PUSH1 0x40 SHL DUP2 DIV PUSH1 0xFF AND ISZERO SWAP1 PUSH1 0x1 PUSH1 0x1 PUSH1 0x40 SHL SUB AND PUSH0 DUP2 ISZERO DUP1 ISZERO PUSH2 0xC3D JUMPI POP DUP3 JUMPDEST SWAP1 POP PUSH0 DUP3 PUSH1 0x1 PUSH1 0x1 PUSH1 0x40 SHL SUB AND PUSH1 0x1 EQ DUP1 ISZERO PUSH2 0xC58 JUMPI POP ADDRESS EXTCODESIZE ISZERO JUMPDEST SWAP1 POP DUP2 ISZERO DUP1 ISZERO PUSH2 0xC66 JUMPI POP DUP1 ISZERO JUMPDEST ISZERO PUSH2 0xC84 JUMPI PUSH1 0x40 MLOAD PUSH4 0xF92EE8A9 PUSH1 0xE0 SHL DUP2 MSTORE PUSH1 0x4 ADD PUSH1 0x40 MLOAD DUP1 SWAP2 SUB SWAP1 REVERT JUMPDEST DUP5 SLOAD PUSH8 0xFFFFFFFFFFFFFFFF NOT AND PUSH1 0x1 OR DUP6 SSTORE DUP4 ISZERO PUSH2 0xCAE JUMPI DUP5 SLOAD PUSH1 0xFF PUSH1 0x40 SHL NOT AND PUSH1 0x1 PUSH1 0x40 SHL OR DUP6 SSTORE JUMPDEST PUSH2 0xCB7 DUP7 PUSH2 0x11BA JUMP JUMPDEST PUSH2 0xCBF PUSH2 0x11CB JUMP JUMPDEST PUSH2 0xCC8 DUP7 PUSH2 0x11DB JUMP JUMPDEST DUP4 ISZERO PUSH2 0x942 JUMPI DUP5 SLOAD PUSH1 0xFF PUSH1 0x40 SHL NOT AND DUP6 SSTORE PUSH1 0x40 MLOAD PUSH1 0x1 DUP2 MSTORE PUSH32 0xC7F505B2F371AE2175EE4913F4499E1F2633A7B5936321EED1CDAEB6115181D2 SWAP1 PUSH1 0x20 ADD PUSH1 0x40 MLOAD DUP1 SWAP2 SUB SWAP1 LOG1 POP POP POP POP POP POP JUMP JUMPDEST PUSH1 0x2 CALLER PUSH0 SWAP1 DUP2 MSTORE PUSH1 0x32 PUSH1 0x20 MSTORE PUSH1 0x40 SWAP1 KECCAK256 SLOAD PUSH1 0xFF AND PUSH1 0x2 DUP2 GT ISZERO PUSH2 0xD3A JUMPI PUSH2 0xD3A PUSH2 0x15EB JUMP JUMPDEST EQ DUP1 PUSH2 0xD68 JUMPI POP PUSH1 0x1 CALLER PUSH0 SWAP1 DUP2 MSTORE PUSH1 0x32 PUSH1 0x20 MSTORE PUSH1 0x40 SWAP1 KECCAK256 SLOAD PUSH1 0xFF AND PUSH1 0x2 DUP2 GT ISZERO PUSH2 0xD66 JUMPI PUSH2 0xD66 PUSH2 0x15EB JUMP JUMPDEST EQ JUMPDEST PUSH2 0xD84 JUMPI PUSH1 0x40 MLOAD PUSH3 0x461BCD PUSH1 0xE5 SHL DUP2 MSTORE PUSH1 0x4 ADD PUSH2 0x50F SWAP1 PUSH2 0x1876 JUMP JUMPDEST PUSH1 0x35 SLOAD PUSH1 0x1 PUSH1 0x1 PUSH1 0xA0 SHL SUB AND PUSH2 0xDAC JUMPI PUSH1 0x40 MLOAD PUSH3 0x461BCD PUSH1 0xE5 SHL DUP2 MSTORE PUSH1 0x4 ADD PUSH2 0x50F SWAP1 PUSH2 0x1772 JUMP JUMPDEST PUSH1 0x35 SLOAD PUSH1 0x40 MLOAD PUSH4 0x6DE489CB PUSH1 0xE1 SHL DUP2 MSTORE PUSH1 0x1 PUSH1 0x1 PUSH1 0x80 SHL SUB DUP4 AND PUSH1 0x4 DUP3 ADD MSTORE PUSH1 0x1 PUSH1 0x1 PUSH1 0xA0 SHL SUB SWAP1 SWAP2 AND SWAP1 PUSH4 0xDBC91396 SWAP1 PUSH1 0x24 ADD PUSH2 0x5BD JUMP JUMPDEST PUSH1 0x35 SLOAD PUSH1 0x1 PUSH1 0x1 PUSH1 0xA0 SHL SUB AND PUSH2 0xE0D JUMPI PUSH1 0x40 MLOAD PUSH3 0x461BCD PUSH1 0xE5 SHL DUP2 MSTORE PUSH1 0x4 ADD PUSH2 0x50F SWAP1 PUSH2 0x1772 JUMP JUMPDEST PUSH1 0x35 SLOAD PUSH1 0x40 MLOAD PUSH4 0xDDB0C22F PUSH1 0xE0 SHL DUP2 MSTORE PUSH1 0x1 PUSH1 0x1 PUSH1 0xA0 SHL SUB SWAP1 SWAP2 AND SWAP1 PUSH4 0xDDB0C22F SWAP1 PUSH2 0x919 SWAP1 DUP6 SWAP1 DUP6 SWAP1 PUSH1 0x4 ADD PUSH2 0x1946 JUMP JUMPDEST CALLER PUSH0 SWAP1 DUP2 MSTORE PUSH1 0x32 PUSH1 0x20 MSTORE PUSH1 0x40 DUP2 KECCAK256 SLOAD PUSH1 0xFF AND PUSH1 0x2 DUP2 GT ISZERO PUSH2 0xE62 JUMPI PUSH2 0xE62 PUSH2 0x15EB JUMP JUMPDEST EQ PUSH2 0xE7F JUMPI PUSH1 0x40 MLOAD PUSH3 0x461BCD PUSH1 0xE5 SHL DUP2 MSTORE PUSH1 0x4 ADD PUSH2 0x50F SWAP1 PUSH2 0x1725 JUMP JUMPDEST PUSH1 0x1 PUSH1 0x1 PUSH1 0xA0 SHL SUB DUP2 AND PUSH2 0xEA5 JUMPI PUSH1 0x40 MLOAD PUSH3 0x461BCD PUSH1 0xE5 SHL DUP2 MSTORE PUSH1 0x4 ADD PUSH2 0x50F SWAP1 PUSH2 0x1749 JUMP JUMPDEST PUSH1 0x36 DUP1 SLOAD PUSH1 0x1 PUSH1 0x1 PUSH1 0xA0 SHL SUB NOT AND PUSH1 0x1 PUSH1 0x1 PUSH1 0xA0 SHL SUB SWAP3 SWAP1 SWAP3 AND SWAP2 SWAP1 SWAP2 OR SWAP1 SSTORE JUMP JUMPDEST CALLER PUSH0 SWAP1 DUP2 MSTORE PUSH1 0x32 PUSH1 0x20 MSTORE PUSH1 0x40 DUP2 KECCAK256 SLOAD PUSH1 0xFF AND PUSH1 0x2 DUP2 GT ISZERO PUSH2 0xEEA JUMPI PUSH2 0xEEA PUSH2 0x15EB JUMP JUMPDEST EQ PUSH2 0xF07 JUMPI PUSH1 0x40 MLOAD PUSH3 0x461BCD PUSH1 0xE5 SHL DUP2 MSTORE PUSH1 0x4 ADD PUSH2 0x50F SWAP1 PUSH2 0x1725 JUMP JUMPDEST PUSH1 0x34 SLOAD PUSH1 0x1 PUSH1 0x1 PUSH1 0xA0 SHL SUB AND PUSH2 0xF2F JUMPI PUSH1 0x40 MLOAD PUSH3 0x461BCD PUSH1 0xE5 SHL DUP2 MSTORE PUSH1 0x4 ADD PUSH2 0x50F SWAP1 PUSH2 0x17A0 JUMP JUMPDEST PUSH1 0x34 SLOAD PUSH1 0x40 MLOAD PUSH4 0xE180AE75 PUSH1 0xE0 SHL DUP2 MSTORE PUSH1 0x1 PUSH1 0x1 PUSH1 0xA0 SHL SUB SWAP1 SWAP2 AND SWAP1 PUSH4 0xE180AE75 SWAP1 PUSH2 0xF69 SWAP1 DUP10 SWAP1 DUP10 SWAP1 DUP10 SWAP1 DUP10 SWAP1 DUP10 SWAP1 DUP10 SWAP1 PUSH1 0x4 ADD PUSH2 0x1973 JUMP JUMPDEST PUSH0 PUSH1 0x40 MLOAD DUP1 DUP4 SUB DUP2 PUSH0 DUP8 DUP1 EXTCODESIZE ISZERO DUP1 ISZERO PUSH2 0xF80 JUMPI PUSH0 PUSH0 REVERT JUMPDEST POP GAS CALL ISZERO DUP1 ISZERO PUSH2 0xF92 JUMPI RETURNDATASIZE PUSH0 PUSH0 RETURNDATACOPY RETURNDATASIZE PUSH0 REVERT JUMPDEST POP POP POP POP POP POP POP POP POP POP JUMP JUMPDEST PUSH2 0xFA6 PUSH2 0x10EF JUMP JUMPDEST PUSH1 0x1 PUSH1 0x1 PUSH1 0xA0 SHL SUB DUP2 AND PUSH2 0xFCF JUMPI PUSH1 0x40 MLOAD PUSH4 0x1E4FBDF7 PUSH1 0xE0 SHL DUP2 MSTORE PUSH0 PUSH1 0x4 DUP3 ADD MSTORE PUSH1 0x24 ADD PUSH2 0x50F JUMP JUMPDEST PUSH2 0xFD8 DUP2 PUSH2 0x114A JUMP JUMPDEST POP JUMP JUMPDEST PUSH0 DUP1 CALLER PUSH0 SWAP1 DUP2 MSTORE PUSH1 0x32 PUSH1 0x20 MSTORE PUSH1 0x40 SWAP1 KECCAK256 SLOAD PUSH1 0xFF AND PUSH1 0x2 DUP2 GT ISZERO PUSH2 0x1000 JUMPI PUSH2 0x1000 PUSH2 0x15EB JUMP JUMPDEST EQ PUSH2 0x101D JUMPI PUSH1 0x40 MLOAD PUSH3 0x461BCD PUSH1 0xE5 SHL DUP2 MSTORE PUSH1 0x4 ADD PUSH2 0x50F SWAP1 PUSH2 0x1725 JUMP JUMPDEST PUSH1 0x37 SLOAD PUSH1 0x1 PUSH1 0x1 PUSH1 0xA0 SHL SUB AND PUSH2 0x1075 JUMPI PUSH1 0x40 MLOAD PUSH3 0x461BCD PUSH1 0xE5 SHL DUP2 MSTORE PUSH1 0x20 PUSH1 0x4 DUP3 ADD MSTORE PUSH1 0x19 PUSH1 0x24 DUP3 ADD MSTORE PUSH32 0x52657374617572616E744D616E61676572206E6F742073657400000000000000 PUSH1 0x44 DUP3 ADD MSTORE PUSH1 0x64 ADD PUSH2 0x50F JUMP JUMPDEST PUSH1 0x37 PUSH0 SWAP1 SLOAD SWAP1 PUSH2 0x100 EXP SWAP1 DIV PUSH1 0x1 PUSH1 0x1 PUSH1 0xA0 SHL SUB AND PUSH1 0x1 PUSH1 0x1 PUSH1 0xA0 SHL SUB AND PUSH4 0xFA20FCA7 PUSH1 0x40 MLOAD DUP2 PUSH4 0xFFFFFFFF AND PUSH1 0xE0 SHL DUP2 MSTORE PUSH1 0x4 ADD PUSH1 0x20 PUSH1 0x40 MLOAD DUP1 DUP4 SUB DUP2 PUSH0 DUP8 GAS CALL ISZERO DUP1 ISZERO PUSH2 0x10C6 JUMPI RETURNDATASIZE PUSH0 PUSH0 RETURNDATACOPY RETURNDATASIZE PUSH0 REVERT JUMPDEST POP POP POP POP PUSH1 0x40 MLOAD RETURNDATASIZE PUSH1 0x1F NOT PUSH1 0x1F DUP3 ADD AND DUP3 ADD DUP1 PUSH1 0x40 MSTORE POP DUP2 ADD SWAP1 PUSH2 0x10EA SWAP2 SWAP1 PUSH2 0x19E6 JUMP JUMPDEST SWAP1 POP SWAP1 JUMP JUMPDEST CALLER PUSH2 0x1121 PUSH32 0x9016D09D72D40FDAE2FD8CEAC6B6234C7706214FD39C1CD1E609A0528C199300 SLOAD PUSH1 0x1 PUSH1 0x1 PUSH1 0xA0 SHL SUB AND SWAP1 JUMP JUMPDEST PUSH1 0x1 PUSH1 0x1 PUSH1 0xA0 SHL SUB AND EQ PUSH2 0x95B JUMPI PUSH1 0x40 MLOAD PUSH4 0x118CDAA7 PUSH1 0xE0 SHL DUP2 MSTORE CALLER PUSH1 0x4 DUP3 ADD MSTORE PUSH1 0x24 ADD PUSH2 0x50F JUMP JUMPDEST PUSH32 0x9016D09D72D40FDAE2FD8CEAC6B6234C7706214FD39C1CD1E609A0528C199300 DUP1 SLOAD PUSH1 0x1 PUSH1 0x1 PUSH1 0xA0 SHL SUB NOT DUP2 AND PUSH1 0x1 PUSH1 0x1 PUSH1 0xA0 SHL SUB DUP5 DUP2 AND SWAP2 DUP3 OR DUP5 SSTORE PUSH1 0x40 MLOAD SWAP3 AND SWAP2 DUP3 SWAP1 PUSH32 0x8BE0079C531659141344CD1FD0A4F28419497F9722A3DAAFE3B4186F6B6457E0 SWAP1 PUSH0 SWAP1 LOG3 POP POP POP JUMP JUMPDEST PUSH2 0x11C2 PUSH2 0x1200 JUMP JUMPDEST PUSH2 0xFD8 DUP2 PUSH2 0x1249 JUMP JUMPDEST PUSH2 0x11D3 PUSH2 0x1200 JUMP JUMPDEST PUSH2 0x95B PUSH2 0x1251 JUMP JUMPDEST PUSH1 0x1 PUSH1 0x1 PUSH1 0xA0 SHL SUB DUP2 AND PUSH0 SWAP1 DUP2 MSTORE PUSH1 0x32 PUSH1 0x20 MSTORE PUSH1 0x40 DUP2 KECCAK256 DUP1 SLOAD PUSH1 0xFF NOT AND PUSH1 0x1 DUP4 PUSH2 0xBF1 JUMP JUMPDEST PUSH32 0xF0C57E16840DF040F15088DC2F81FE391C3923BEC73E23A9662EFC9C229C6A00 SLOAD PUSH1 0x1 PUSH1 0x40 SHL SWAP1 DIV PUSH1 0xFF AND PUSH2 0x95B JUMPI PUSH1 0x40 MLOAD PUSH4 0x1AFCD79F PUSH1 0xE3 SHL DUP2 MSTORE PUSH1 0x4 ADD PUSH1 0x40 MLOAD DUP1 SWAP2 SUB SWAP1 REVERT JUMPDEST PUSH2 0xFA6 PUSH2 0x1200 JUMP JUMPDEST PUSH2 0x1259 PUSH2 0x1200 JUMP JUMPDEST PUSH1 0x1 PUSH0 SSTORE JUMP JUMPDEST DUP1 CALLDATALOAD PUSH1 0x1 PUSH1 0x1 PUSH1 0xA0 SHL SUB DUP2 AND DUP2 EQ PUSH2 0x1275 JUMPI PUSH0 PUSH0 REVERT JUMPDEST SWAP2 SWAP1 POP JUMP JUMPDEST PUSH0 PUSH1 0x20 DUP3 DUP5 SUB SLT ISZERO PUSH2 0x128A JUMPI PUSH0 PUSH0 REVERT JUMPDEST PUSH2 0x1293 DUP3 PUSH2 0x125F JUMP JUMPDEST SWAP4 SWAP3 POP POP POP JUMP JUMPDEST PUSH1 0x1 PUSH1 0x1 PUSH1 0x80 SHL SUB DUP2 AND DUP2 EQ PUSH2 0xFD8 JUMPI PUSH0 PUSH0 REVERT JUMPDEST DUP1 CALLDATALOAD PUSH2 0x1275 DUP2 PUSH2 0x129A JUMP JUMPDEST PUSH0 PUSH1 0x20 DUP3 DUP5 SUB SLT ISZERO PUSH2 0x12C9 JUMPI PUSH0 PUSH0 REVERT JUMPDEST DUP2 CALLDATALOAD PUSH2 0x1293 DUP2 PUSH2 0x129A JUMP JUMPDEST PUSH4 0x4E487B71 PUSH1 0xE0 SHL PUSH0 MSTORE PUSH1 0x41 PUSH1 0x4 MSTORE PUSH1 0x24 PUSH0 REVERT JUMPDEST PUSH1 0x40 MLOAD PUSH1 0x1F DUP3 ADD PUSH1 0x1F NOT AND DUP2 ADD PUSH1 0x1 PUSH1 0x1 PUSH1 0x40 SHL SUB DUP2 GT DUP3 DUP3 LT OR ISZERO PUSH2 0x1310 JUMPI PUSH2 0x1310 PUSH2 0x12D4 JUMP JUMPDEST PUSH1 0x40 MSTORE SWAP2 SWAP1 POP JUMP JUMPDEST PUSH0 DUP3 PUSH1 0x1F DUP4 ADD SLT PUSH2 0x1327 JUMPI PUSH0 PUSH0 REVERT JUMPDEST DUP2 CALLDATALOAD PUSH1 0x1 PUSH1 0x1 PUSH1 0x40 SHL SUB DUP2 GT ISZERO PUSH2 0x1340 JUMPI PUSH2 0x1340 PUSH2 0x12D4 JUMP JUMPDEST PUSH2 0x1353 PUSH1 0x1F DUP3 ADD PUSH1 0x1F NOT AND PUSH1 0x20 ADD PUSH2 0x12E8 JUMP JUMPDEST DUP2 DUP2 MSTORE DUP5 PUSH1 0x20 DUP4 DUP7 ADD ADD GT ISZERO PUSH2 0x1367 JUMPI PUSH0 PUSH0 REVERT JUMPDEST DUP2 PUSH1 0x20 DUP6 ADD PUSH1 0x20 DUP4 ADD CALLDATACOPY PUSH0 SWAP2 DUP2 ADD PUSH1 0x20 ADD SWAP2 SWAP1 SWAP2 MSTORE SWAP4 SWAP3 POP POP POP JUMP JUMPDEST DUP1 CALLDATALOAD DUP1 ISZERO ISZERO DUP2 EQ PUSH2 0x1275 JUMPI PUSH0 PUSH0 REVERT JUMPDEST PUSH0 PUSH0 PUSH0 PUSH0 PUSH0 PUSH0 PUSH0 PUSH1 0xE0 DUP9 DUP11 SUB SLT ISZERO PUSH2 0x13A8 JUMPI PUSH0 PUSH0 REVERT JUMPDEST DUP8 CALLDATALOAD PUSH2 0x13B3 DUP2 PUSH2 0x129A JUMP JUMPDEST SWAP7 POP PUSH2 0x13C1 PUSH1 0x20 DUP10 ADD PUSH2 0x12AE JUMP JUMPDEST SWAP6 POP PUSH1 0x40 DUP9 ADD CALLDATALOAD PUSH1 0x1 PUSH1 0x1 PUSH1 0x40 SHL SUB DUP2 GT ISZERO PUSH2 0x13DB JUMPI PUSH0 PUSH0 REVERT JUMPDEST PUSH2 0x13E7 DUP11 DUP3 DUP12 ADD PUSH2 0x1318 JUMP JUMPDEST SWAP6 POP POP PUSH2 0x13F6 PUSH1 0x60 DUP10 ADD PUSH2 0x12AE JUMP JUMPDEST SWAP4 POP PUSH2 0x1404 PUSH1 0x80 DUP10 ADD PUSH2 0x1383 JUMP JUMPDEST SWAP3 POP PUSH1 0xA0 DUP9 ADD CALLDATALOAD PUSH1 0x1 PUSH1 0x1 PUSH1 0x40 SHL SUB DUP2 GT ISZERO PUSH2 0x141E JUMPI PUSH0 PUSH0 REVERT JUMPDEST PUSH2 0x142A DUP11 DUP3 DUP12 ADD PUSH2 0x1318 JUMP JUMPDEST SWAP3 POP POP PUSH1 0xC0 DUP9 ADD CALLDATALOAD PUSH1 0x1 PUSH1 0x1 PUSH1 0x40 SHL SUB DUP2 GT ISZERO PUSH2 0x1445 JUMPI PUSH0 PUSH0 REVERT JUMPDEST PUSH2 0x1451 DUP11 DUP3 DUP12 ADD PUSH2 0x1318 JUMP JUMPDEST SWAP2 POP POP SWAP3 SWAP6 SWAP9 SWAP2 SWAP5 SWAP8 POP SWAP3 SWAP6 POP JUMP JUMPDEST PUSH0 PUSH0 PUSH0 PUSH1 0x60 DUP5 DUP7 SUB SLT ISZERO PUSH2 0x1472 JUMPI PUSH0 PUSH0 REVERT JUMPDEST DUP4 CALLDATALOAD PUSH2 0x147D DUP2 PUSH2 0x129A JUMP JUMPDEST SWAP3 POP PUSH1 0x20 DUP5 ADD CALLDATALOAD PUSH1 0xFF DUP2 AND DUP2 EQ PUSH2 0x1492 JUMPI PUSH0 PUSH0 REVERT JUMPDEST SWAP2 POP PUSH1 0x40 DUP5 ADD CALLDATALOAD PUSH1 0x1 PUSH1 0x1 PUSH1 0x40 SHL SUB DUP2 GT ISZERO PUSH2 0x14AC JUMPI PUSH0 PUSH0 REVERT JUMPDEST PUSH2 0x14B8 DUP7 DUP3 DUP8 ADD PUSH2 0x1318 JUMP JUMPDEST SWAP2 POP POP SWAP3 POP SWAP3 POP SWAP3 JUMP JUMPDEST PUSH0 PUSH0 PUSH1 0x40 DUP4 DUP6 SUB SLT ISZERO PUSH2 0x14D3 JUMPI PUSH0 PUSH0 REVERT JUMPDEST DUP3 CALLDATALOAD PUSH2 0x14DE DUP2 PUSH2 0x129A JUMP JUMPDEST SWAP2 POP PUSH1 0x20 DUP4 ADD CALLDATALOAD PUSH2 0x14EE DUP2 PUSH2 0x129A JUMP JUMPDEST DUP1 SWAP2 POP POP SWAP3 POP SWAP3 SWAP1 POP JUMP JUMPDEST PUSH0 DUP3 PUSH1 0x1F DUP4 ADD SLT PUSH2 0x1508 JUMPI PUSH0 PUSH0 REVERT JUMPDEST DUP2 CALLDATALOAD PUSH1 0x1 PUSH1 0x1 PUSH1 0x40 SHL SUB DUP2 GT ISZERO PUSH2 0x1521 JUMPI PUSH2 0x1521 PUSH2 0x12D4 JUMP JUMPDEST DUP1 PUSH1 0x5 SHL PUSH2 0x1531 PUSH1 0x20 DUP3 ADD PUSH2 0x12E8 JUMP JUMPDEST SWAP2 DUP3 MSTORE PUSH1 0x20 DUP2 DUP6 ADD DUP2 ADD SWAP3 SWAP1 DUP2 ADD SWAP1 DUP7 DUP5 GT ISZERO PUSH2 0x154C JUMPI PUSH0 PUSH0 REVERT JUMPDEST PUSH1 0x20 DUP7 ADD SWAP3 POP JUMPDEST DUP4 DUP4 LT ISZERO PUSH2 0x1577 JUMPI DUP3 CALLDATALOAD PUSH2 0x1566 DUP2 PUSH2 0x129A JUMP JUMPDEST DUP3 MSTORE PUSH1 0x20 SWAP3 DUP4 ADD SWAP3 SWAP1 SWAP2 ADD SWAP1 PUSH2 0x1553 JUMP JUMPDEST SWAP7 SWAP6 POP POP POP POP POP POP JUMP JUMPDEST PUSH0 PUSH0 PUSH0 PUSH1 0x60 DUP5 DUP7 SUB SLT ISZERO PUSH2 0x1593 JUMPI PUSH0 PUSH0 REVERT JUMPDEST DUP4 CALLDATALOAD PUSH2 0x159E DUP2 PUSH2 0x129A JUMP JUMPDEST SWAP3 POP PUSH1 0x20 DUP5 ADD CALLDATALOAD PUSH1 0x1 PUSH1 0x1 PUSH1 0x40 SHL SUB DUP2 GT ISZERO PUSH2 0x15B8 JUMPI PUSH0 PUSH0 REVERT JUMPDEST PUSH2 0x15C4 DUP7 DUP3 DUP8 ADD PUSH2 0x14F9 JUMP JUMPDEST SWAP3 POP POP PUSH1 0x40 DUP5 ADD CALLDATALOAD PUSH1 0x1 PUSH1 0x1 PUSH1 0x40 SHL SUB DUP2 GT ISZERO PUSH2 0x15DF JUMPI PUSH0 PUSH0 REVERT JUMPDEST PUSH2 0x14B8 DUP7 DUP3 DUP8 ADD PUSH2 0x14F9 JUMP JUMPDEST PUSH4 0x4E487B71 PUSH1 0xE0 SHL PUSH0 MSTORE PUSH1 0x21 PUSH1 0x4 MSTORE PUSH1 0x24 PUSH0 REVERT JUMPDEST PUSH1 0x20 DUP2 ADD PUSH1 0x3 DUP4 LT PUSH2 0x1613 JUMPI PUSH2 0x1613 PUSH2 0x15EB JUMP JUMPDEST SWAP2 SWAP1 MSTORE SWAP1 JUMP JUMPDEST PUSH0 PUSH0 PUSH1 0x40 DUP4 DUP6 SUB SLT ISZERO PUSH2 0x162A JUMPI PUSH0 PUSH0 REVERT JUMPDEST PUSH2 0x14DE DUP4 PUSH2 0x125F JUMP JUMPDEST PUSH0 PUSH0 PUSH1 0x40 DUP4 DUP6 SUB SLT ISZERO PUSH2 0x1644 JUMPI PUSH0 PUSH0 REVERT JUMPDEST DUP3 CALLDATALOAD PUSH2 0x164F DUP2 PUSH2 0x129A JUMP JUMPDEST SWAP2 POP PUSH1 0x20 DUP4 ADD CALLDATALOAD PUSH1 0x6 DUP2 LT PUSH2 0x14EE JUMPI PUSH0 PUSH0 REVERT JUMPDEST PUSH0 PUSH0 PUSH0 PUSH0 PUSH0 PUSH0 PUSH1 0xC0 DUP8 DUP10 SUB SLT ISZERO PUSH2 0x1677 JUMPI PUSH0 PUSH0 REVERT JUMPDEST DUP7 CALLDATALOAD PUSH2 0x1682 DUP2 PUSH2 0x129A JUMP JUMPDEST SWAP6 POP PUSH1 0x20 DUP8 ADD CALLDATALOAD PUSH1 0x1 PUSH1 0x1 PUSH1 0x40 SHL SUB DUP2 GT ISZERO PUSH2 0x169C JUMPI PUSH0 PUSH0 REVERT JUMPDEST PUSH2 0x16A8 DUP10 DUP3 DUP11 ADD PUSH2 0x1318 JUMP JUMPDEST SWAP6 POP POP PUSH1 0x40 DUP8 ADD CALLDATALOAD PUSH2 0x16B9 DUP2 PUSH2 0x129A JUMP JUMPDEST SWAP4 POP PUSH1 0x60 DUP8 ADD CALLDATALOAD PUSH1 0x1 PUSH1 0x1 PUSH1 0x40 SHL SUB DUP2 GT ISZERO PUSH2 0x16D3 JUMPI PUSH0 PUSH0 REVERT JUMPDEST PUSH2 0x16DF DUP10 DUP3 DUP11 ADD PUSH2 0x1318 JUMP JUMPDEST SWAP4 POP POP PUSH1 0x80 DUP8 ADD CALLDATALOAD PUSH1 0x1 PUSH1 0x1 PUSH1 0x40 SHL SUB DUP2 GT ISZERO PUSH2 0x16FA JUMPI PUSH0 PUSH0 REVERT JUMPDEST PUSH2 0x1706 DUP10 DUP3 DUP11 ADD PUSH2 0x1318 JUMP JUMPDEST SWAP3 POP POP PUSH1 0xA0 DUP8 ADD CALLDATALOAD PUSH2 0x1717 DUP2 PUSH2 0x129A JUMP JUMPDEST DUP1 SWAP2 POP POP SWAP3 SWAP6 POP SWAP3 SWAP6 POP SWAP3 SWAP6 JUMP JUMPDEST PUSH1 0x20 DUP1 DUP3 MSTORE PUSH1 0xA SWAP1 DUP3 ADD MSTORE PUSH10 0x27B7363C9030B236B4B7 PUSH1 0xB1 SHL PUSH1 0x40 DUP3 ADD MSTORE PUSH1 0x60 ADD SWAP1 JUMP JUMPDEST PUSH1 0x20 DUP1 DUP3 MSTORE PUSH1 0xF SWAP1 DUP3 ADD MSTORE PUSH15 0x496E76616C69642061646472657373 PUSH1 0x88 SHL PUSH1 0x40 DUP3 ADD MSTORE PUSH1 0x60 ADD SWAP1 JUMP JUMPDEST PUSH1 0x20 DUP1 DUP3 MSTORE PUSH1 0x14 SWAP1 DUP3 ADD MSTORE PUSH20 0x13DC99195C93585B9859D95C881B9BDD081CD95D PUSH1 0x62 SHL PUSH1 0x40 DUP3 ADD MSTORE PUSH1 0x60 ADD SWAP1 JUMP JUMPDEST PUSH1 0x20 DUP1 DUP3 MSTORE PUSH1 0x13 SWAP1 DUP3 ADD MSTORE PUSH19 0x13595B9D53585B9859D95C881B9BDD081CD95D PUSH1 0x6A SHL PUSH1 0x40 DUP3 ADD MSTORE PUSH1 0x60 ADD SWAP1 JUMP JUMPDEST PUSH0 DUP2 MLOAD DUP1 DUP5 MSTORE DUP1 PUSH1 0x20 DUP5 ADD PUSH1 0x20 DUP7 ADD MCOPY PUSH0 PUSH1 0x20 DUP3 DUP7 ADD ADD MSTORE PUSH1 0x20 PUSH1 0x1F NOT PUSH1 0x1F DUP4 ADD AND DUP6 ADD ADD SWAP2 POP POP SWAP3 SWAP2 POP POP JUMP JUMPDEST PUSH1 0x1 PUSH1 0x1 PUSH1 0x80 SHL SUB DUP9 AND DUP2 MSTORE PUSH1 0x1 PUSH1 0x1 PUSH1 0x80 SHL SUB DUP8 AND PUSH1 0x20 DUP3 ADD MSTORE PUSH1 0xE0 PUSH1 0x40 DUP3 ADD MSTORE PUSH0 PUSH2 0x182B PUSH1 0xE0 DUP4 ADD DUP9 PUSH2 0x17CD JUMP JUMPDEST PUSH1 0x1 PUSH1 0x1 PUSH1 0x80 SHL SUB DUP8 AND PUSH1 0x60 DUP5 ADD MSTORE DUP6 ISZERO ISZERO PUSH1 0x80 DUP5 ADD MSTORE DUP3 DUP2 SUB PUSH1 0xA0 DUP5 ADD MSTORE PUSH2 0x1854 DUP2 DUP7 PUSH2 0x17CD JUMP JUMPDEST SWAP1 POP DUP3 DUP2 SUB PUSH1 0xC0 DUP5 ADD MSTORE PUSH2 0x1868 DUP2 DUP6 PUSH2 0x17CD JUMP JUMPDEST SWAP11 SWAP10 POP POP POP POP POP POP POP POP POP POP JUMP JUMPDEST PUSH1 0x20 DUP1 DUP3 MSTORE PUSH1 0xD SWAP1 DUP3 ADD MSTORE PUSH13 0x27B7363C9031BAB9BA37B6B2B9 PUSH1 0x99 SHL PUSH1 0x40 DUP3 ADD MSTORE PUSH1 0x60 ADD SWAP1 JUMP JUMPDEST PUSH1 0x1 PUSH1 0x1 PUSH1 0x80 SHL SUB DUP5 AND DUP2 MSTORE PUSH1 0xFF DUP4 AND PUSH1 0x20 DUP3 ADD MSTORE PUSH1 0x60 PUSH1 0x40 DUP3 ADD MSTORE PUSH0 PUSH2 0x18C7 PUSH1 0x60 DUP4 ADD DUP5 PUSH2 0x17CD JUMP JUMPDEST SWAP6 SWAP5 POP POP POP POP POP JUMP JUMPDEST PUSH0 DUP2 MLOAD DUP1 DUP5 MSTORE PUSH1 0x20 DUP5 ADD SWAP4 POP PUSH1 0x20 DUP4 ADD PUSH0 JUMPDEST DUP3 DUP2 LT ISZERO PUSH2 0x1909 JUMPI DUP2 MLOAD PUSH1 0x1 PUSH1 0x1 PUSH1 0x80 SHL SUB AND DUP7 MSTORE PUSH1 0x20 SWAP6 DUP7 ADD SWAP6 SWAP1 SWAP2 ADD SWAP1 PUSH1 0x1 ADD PUSH2 0x18E2 JUMP JUMPDEST POP SWAP4 SWAP5 SWAP4 POP POP POP POP JUMP JUMPDEST PUSH1 0x1 PUSH1 0x1 PUSH1 0x80 SHL SUB DUP5 AND DUP2 MSTORE PUSH1 0x60 PUSH1 0x20 DUP3 ADD MSTORE PUSH0 PUSH2 0x1934 PUSH1 0x60 DUP4 ADD DUP6 PUSH2 0x18D0 JUMP JUMPDEST DUP3 DUP2 SUB PUSH1 0x40 DUP5 ADD MSTORE PUSH2 0x1577 DUP2 DUP6 PUSH2 0x18D0 JUMP JUMPDEST PUSH1 0x1 PUSH1 0x1 PUSH1 0x80 SHL SUB DUP4 AND DUP2 MSTORE PUSH1 0x40 DUP2 ADD PUSH1 0x6 DUP4 LT PUSH2 0x1966 JUMPI PUSH2 0x1966 PUSH2 0x15EB JUMP JUMPDEST DUP3 PUSH1 0x20 DUP4 ADD MSTORE SWAP4 SWAP3 POP POP POP JUMP JUMPDEST PUSH1 0x1 PUSH1 0x1 PUSH1 0x80 SHL SUB DUP8 AND DUP2 MSTORE PUSH1 0xC0 PUSH1 0x20 DUP3 ADD MSTORE PUSH0 PUSH2 0x1994 PUSH1 0xC0 DUP4 ADD DUP9 PUSH2 0x17CD JUMP JUMPDEST PUSH1 0x1 PUSH1 0x1 PUSH1 0x80 SHL SUB DUP8 AND PUSH1 0x40 DUP5 ADD MSTORE DUP3 DUP2 SUB PUSH1 0x60 DUP5 ADD MSTORE PUSH2 0x19B5 DUP2 DUP8 PUSH2 0x17CD JUMP JUMPDEST SWAP1 POP DUP3 DUP2 SUB PUSH1 0x80 DUP5 ADD MSTORE PUSH2 0x19C9 DUP2 DUP7 PUSH2 0x17CD JUMP JUMPDEST SWAP2 POP POP PUSH1 0x1 PUSH1 0x1 PUSH1 0x80 SHL SUB DUP4 AND PUSH1 0xA0 DUP4 ADD MSTORE SWAP8 SWAP7 POP POP POP POP POP POP POP JUMP JUMPDEST PUSH0 PUSH1 0x20 DUP3 DUP5 SUB SLT ISZERO PUSH2 0x19F6 JUMPI PUSH0 PUSH0 REVERT JUMPDEST DUP2 MLOAD PUSH2 0x1293 DUP2 PUSH2 0x129A JUMP INVALID LOG2 PUSH5 0x6970667358 0x22 SLT KECCAK256 PUSH27 0x4C3096FFF4ED2660FAF24E385552EB1F8532A573FA71A0EF4A9E3F PUSH7 0xBB159F64736F6C PUSH4 0x4300081E STOP CALLER "
		},
		"gasEstimates": {
			"creation": {
				"codeDepositCost": "1342200",
				"executionCost": "1395",
				"totalCost": "1343595"
			},
			"external": {
				"addMenuItem(uint128,string,uint128,string,string,uint128)": "infinite",
				"assignStaff(address,uint128)": "51315",
				"cancelOrder(uint128)": "infinite",
				"completeOrder(uint128)": "infinite",
				"initialize(address)": "infinite",
				"menuManager()": "2348",
				"orderManager()": "2413",
				"owner()": "2430",
				"placeOrder(uint128,uint128[],uint128[])": "infinite",
				"rateRestaurant(uint128,uint8,string)": "infinite",
				"registerRestaurant()": "infinite",
				"removeMenuItem(uint128,uint128)": "infinite",
				"removeStaff(address)": "51233",
				"renounceOwnership()": "infinite",
				"restaurantManager()": "2371",
				"reviewManager()": "2458",
				"roles(address)": "2592",
				"setMenuManager(address)": "26847",
				"setOrderManager(address)": "26890",
				"setRestaurantManager(address)": "26957",
				"setReviewManager(address)": "26912",
				"staffRestaurants(address)": "2623",
				"transferOwnership(address)": "28431",
				"updateMenuItem(uint128,uint128,string,uint128,bool,string,string)": "infinite",
				"updateOrderStatus(uint128,uint8)": "infinite"
			}
		},
		"methodIdentifiers": {
			"addMenuItem(uint128,string,uint128,string,string,uint128)": "e180ae75",
			"assignStaff(address,uint128)": "ae9a4655",
			"cancelOrder(uint128)": "dbc91396",
			"completeOrder(uint128)": "388f20a8",
			"initialize(address)": "c4d66de8",
			"menuManager()": "5059e95b",
			"orderManager()": "f9b6117f",
			"owner()": "8da5cb5b",
			"placeOrder(uint128,uint128[],uint128[])": "98d88075",
			"rateRestaurant(uint128,uint8,string)": "515f72ce",
			"registerRestaurant()": "fa20fca7",
			"removeMenuItem(uint128,uint128)": "5b94ea5d",
			"removeStaff(address)": "c4522c92",
			"renounceOwnership()": "715018a6",
			"restaurantManager()": "2134b6f6",
			"reviewManager()": "c9b81583",
			"roles(address)": "99374642",
			"setMenuManager(address)": "1b5df281",
			"setOrderManager(address)": "c0da840d",
			"setRestaurantManager(address)": "4d36249c",
			"setReviewManager(address)": "e144b4ad",
			"staffRestaurants(address)": "2d3238fe",
			"transferOwnership(address)": "f2fde38b",
			"updateMenuItem(uint128,uint128,string,uint128,bool,string,string)": "41af8b6f",
			"updateOrderStatus(uint128,uint8)": "ddb0c22f"
		}
	},
	"abi": [
		{
			"inputs": [],
			"name": "InvalidInitialization",
			"type": "error"
		},
		{
			"inputs": [],
			"name": "NotInitializing",
			"type": "error"
		},
		{
			"inputs": [
				{
					"internalType": "address",
					"name": "owner",
					"type": "address"
				}
			],
			"name": "OwnableInvalidOwner",
			"type": "error"
		},
		{
			"inputs": [
				{
					"internalType": "address",
					"name": "account",
					"type": "address"
				}
			],
			"name": "OwnableUnauthorizedAccount",
			"type": "error"
		},
		{
			"anonymous": false,
			"inputs": [
				{
					"indexed": false,
					"internalType": "uint64",
					"name": "version",
					"type": "uint64"
				}
			],
			"name": "Initialized",
			"type": "event"
		},
		{
			"anonymous": false,
			"inputs": [
				{
					"indexed": true,
					"internalType": "address",
					"name": "previousOwner",
					"type": "address"
				},
				{
					"indexed": true,
					"internalType": "address",
					"name": "newOwner",
					"type": "address"
				}
			],
			"name": "OwnershipTransferred",
			"type": "event"
		},
		{
			"inputs": [
				{
					"internalType": "uint128",
					"name": "restaurantId",
					"type": "uint128"
				},
				{
					"internalType": "string",
					"name": "name",
					"type": "string"
				},
				{
					"internalType": "uint128",
					"name": "price",
					"type": "uint128"
				},
				{
					"internalType": "string",
					"name": "description",
					"type": "string"
				},
				{
					"internalType": "string",
					"name": "category",
					"type": "string"
				},
				{
					"internalType": "uint128",
					"name": "preparationTime",
					"type": "uint128"
				}
			],
			"name": "addMenuItem",
			"outputs": [],
			"stateMutability": "nonpayable",
			"type": "function"
		},
		{
			"inputs": [
				{
					"internalType": "address",
					"name": "staff",
					"type": "address"
				},
				{
					"internalType": "uint128",
					"name": "restaurantId",
					"type": "uint128"
				}
			],
			"name": "assignStaff",
			"outputs": [],
			"stateMutability": "nonpayable",
			"type": "function"
		},
		{
			"inputs": [
				{
					"internalType": "uint128",
					"name": "orderId",
					"type": "uint128"
				}
			],
			"name": "cancelOrder",
			"outputs": [],
			"stateMutability": "nonpayable",
			"type": "function"
		},
		{
			"inputs": [
				{
					"internalType": "uint128",
					"name": "orderId",
					"type": "uint128"
				}
			],
			"name": "completeOrder",
			"outputs": [],
			"stateMutability": "nonpayable",
			"type": "function"
		},
		{
			"inputs": [
				{
					"internalType": "address",
					"name": "admin",
					"type": "address"
				}
			],
			"name": "initialize",
			"outputs": [],
			"stateMutability": "nonpayable",
			"type": "function"
		},
		{
			"inputs": [],
			"name": "menuManager",
			"outputs": [
				{
					"internalType": "address",
					"name": "",
					"type": "address"
				}
			],
			"stateMutability": "view",
			"type": "function"
		},
		{
			"inputs": [],
			"name": "orderManager",
			"outputs": [
				{
					"internalType": "address",
					"name": "",
					"type": "address"
				}
			],
			"stateMutability": "view",
			"type": "function"
		},
		{
			"inputs": [],
			"name": "owner",
			"outputs": [
				{
					"internalType": "address",
					"name": "",
					"type": "address"
				}
			],
			"stateMutability": "view",
			"type": "function"
		},
		{
			"inputs": [
				{
					"internalType": "uint128",
					"name": "restaurantId",
					"type": "uint128"
				},
				{
					"internalType": "uint128[]",
					"name": "itemIds",
					"type": "uint128[]"
				},
				{
					"internalType": "uint128[]",
					"name": "quantities",
					"type": "uint128[]"
				}
			],
			"name": "placeOrder",
			"outputs": [],
			"stateMutability": "payable",
			"type": "function"
		},
		{
			"inputs": [
				{
					"internalType": "uint128",
					"name": "restaurantId",
					"type": "uint128"
				},
				{
					"internalType": "uint8",
					"name": "rating",
					"type": "uint8"
				},
				{
					"internalType": "string",
					"name": "comment",
					"type": "string"
				}
			],
			"name": "rateRestaurant",
			"outputs": [],
			"stateMutability": "nonpayable",
			"type": "function"
		},
		{
			"inputs": [],
			"name": "registerRestaurant",
			"outputs": [
				{
					"internalType": "uint128",
					"name": "",
					"type": "uint128"
				}
			],
			"stateMutability": "nonpayable",
			"type": "function"
		},
		{
			"inputs": [
				{
					"internalType": "uint128",
					"name": "restaurantId",
					"type": "uint128"
				},
				{
					"internalType": "uint128",
					"name": "menuId",
					"type": "uint128"
				}
			],
			"name": "removeMenuItem",
			"outputs": [],
			"stateMutability": "nonpayable",
			"type": "function"
		},
		{
			"inputs": [
				{
					"internalType": "address",
					"name": "staff",
					"type": "address"
				}
			],
			"name": "removeStaff",
			"outputs": [],
			"stateMutability": "nonpayable",
			"type": "function"
		},
		{
			"inputs": [],
			"name": "renounceOwnership",
			"outputs": [],
			"stateMutability": "nonpayable",
			"type": "function"
		},
		{
			"inputs": [],
			"name": "restaurantManager",
			"outputs": [
				{
					"internalType": "address",
					"name": "",
					"type": "address"
				}
			],
			"stateMutability": "view",
			"type": "function"
		},
		{
			"inputs": [],
			"name": "reviewManager",
			"outputs": [
				{
					"internalType": "address",
					"name": "",
					"type": "address"
				}
			],
			"stateMutability": "view",
			"type": "function"
		},
		{
			"inputs": [
				{
					"internalType": "address",
					"name": "",
					"type": "address"
				}
			],
			"name": "roles",
			"outputs": [
				{
					"internalType": "enum Role",
					"name": "",
					"type": "uint8"
				}
			],
			"stateMutability": "view",
			"type": "function"
		},
		{
			"inputs": [
				{
					"internalType": "address",
					"name": "_menuManager",
					"type": "address"
				}
			],
			"name": "setMenuManager",
			"outputs": [],
			"stateMutability": "nonpayable",
			"type": "function"
		},
		{
			"inputs": [
				{
					"internalType": "address",
					"name": "_orderManager",
					"type": "address"
				}
			],
			"name": "setOrderManager",
			"outputs": [],
			"stateMutability": "nonpayable",
			"type": "function"
		},
		{
			"inputs": [
				{
					"internalType": "address",
					"name": "_restaurantManager",
					"type": "address"
				}
			],
			"name": "setRestaurantManager",
			"outputs": [],
			"stateMutability": "nonpayable",
			"type": "function"
		},
		{
			"inputs": [
				{
					"internalType": "address",
					"name": "_reviewManager",
					"type": "address"
				}
			],
			"name": "setReviewManager",
			"outputs": [],
			"stateMutability": "nonpayable",
			"type": "function"
		},
		{
			"inputs": [
				{
					"internalType": "address",
					"name": "",
					"type": "address"
				}
			],
			"name": "staffRestaurants",
			"outputs": [
				{
					"internalType": "uint128",
					"name": "",
					"type": "uint128"
				}
			],
			"stateMutability": "view",
			"type": "function"
		},
		{
			"inputs": [
				{
					"internalType": "address",
					"name": "newOwner",
					"type": "address"
				}
			],
			"name": "transferOwnership",
			"outputs": [],
			"stateMutability": "nonpayable",
			"type": "function"
		},
		{
			"inputs": [
				{
					"internalType": "uint128",
					"name": "restaurantId",
					"type": "uint128"
				},
				{
					"internalType": "uint128",
					"name": "menuId",
					"type": "uint128"
				},
				{
					"internalType": "string",
					"name": "name",
					"type": "string"
				},
				{
					"internalType": "uint128",
					"name": "price",
					"type": "uint128"
				},
				{
					"internalType": "bool",
					"name": "available",
					"type": "bool"
				},
				{
					"internalType": "string",
					"name": "description",
					"type": "string"
				},
				{
					"internalType": "string",
					"name": "category",
					"type": "string"
				}
			],
			"name": "updateMenuItem",
			"outputs": [],
			"stateMutability": "nonpayable",
			"type": "function"
		},
		{
			"inputs": [
				{
					"internalType": "uint128",
					"name": "orderId",
					"type": "uint128"
				},
				{
					"internalType": "enum OrderStatus",
					"name": "status",
					"type": "uint8"
				}
			],
			"name": "updateOrderStatus",
			"outputs": [],
			"stateMutability": "nonpayable",
			"type": "function"
		}
	]
}