{
	"data": {
		"bytecode": {
			"linkReferences": {},
			"object": "6080604052600380546001600160801b03191660011790553480156021575f5ffd5b50604051614ecd380380614ecd833981016040819052603e91608c565b60015f81905580546001600160a01b039384166001600160a01b0319918216179091556002805492909316911617905560b8565b80516001600160a01b03811681146087575f5ffd5b919050565b5f5f60408385031215609c575f5ffd5b60a3836072565b915060af602084016072565b90509250929050565b614e08806100c55f395ff3fe608060405260043610610131575f3560e01c80636e1f4b75116100a8578063cdaaa7d81161006d578063cdaaa7d8146103bd578063dbc91396146103ea578063ddb0c22f14610409578063f4340e9c14610428578063f50ddbc714610458578063ff8ddee31461048c575f5ffd5b80636e1f4b75146102ff57806388ee189b1461032b57806390a815a91461036a57806398d8807514610396578063bab5933a146103a9575f5ffd5b8063388f20a8116100f9578063388f20a81461022457806349392b3d146102455780635059e95b14610264578063515f72ce146102835780636761dc8c146102a25780636b813675146102d1575f5ffd5b80630605551e146101355780630659ae68146101715780631600c6cd146101a25780632134b6f6146101c157806326912883146101f8575b5f5ffd5b348015610140575f5ffd5b5061015461014f366004613efd565b61050c565b6040516001600160801b0390911681526020015b60405180910390f35b34801561017c575f5ffd5b5061019061018b366004613f85565b610800565b60405161016896959493929190613fdd565b3480156101ad575f5ffd5b506101546101bc366004613f85565b610900565b3480156101cc575f5ffd5b506001546101e0906001600160a01b031681565b6040516001600160a01b039091168152602001610168565b348015610203575f5ffd5b5061021761021236600461403c565b610947565b60405161016891906141b5565b34801561022f575f5ffd5b5061024361023e366004614218565b610d07565b005b348015610250575f5ffd5b5061024361025f3660046142b9565b611013565b34801561026f575f5ffd5b506002546101e0906001600160a01b031681565b34801561028e575f5ffd5b5061024361029d366004614329565b6114fd565b3480156102ad575f5ffd5b506102c16102bc36600461437c565b611841565b6040516101689493929190614398565b3480156102dc575f5ffd5b506102f06102eb366004614218565b61191f565b604051610168939291906143d7565b34801561030a575f5ffd5b5061031e610319366004614218565b611e8e565b6040516101689190614570565b348015610336575f5ffd5b5061015461034536600461403c565b600860209081525f92835260408084209091529082529020546001600160801b031681565b348015610375575f5ffd5b5061038961038436600461461a565b61207b565b6040516101689190614635565b6102436103a4366004613efd565b6121d3565b3480156103b4575f5ffd5b50610217612bdd565b3480156103c8575f5ffd5b506103dc6103d7366004614218565b612f81565b6040516101689291906146f1565b3480156103f5575f5ffd5b50610243610404366004614218565b613280565b348015610414575f5ffd5b5061024361042336600461471e565b61353f565b348015610433575f5ffd5b5061044761044236600461437c565b613ae3565b60405161016895949392919061474d565b348015610463575f5ffd5b5061015461047236600461461a565b60066020525f90815260409020546001600160801b031681565b348015610497575f5ffd5b506104fa6104a6366004614218565b60046020525f9081526040902080546001820154600283015460058401546006909401546001600160801b03938416946001600160a01b03909316939182169282811692600160801b90910460ff16911686565b604051610168969594939291906147a3565b5f81518351146105555760405162461bcd60e51b815260206004820152600f60248201526e098cadccee8d040dad2e6dac2e8c6d608b1b60448201526064015b60405180910390fd5b600154604051630abca88f60e41b81526001600160801b03861660048201525f916001600160a01b03169063abca88f090602401602060405180830381865afa1580156105a4573d5f5f3e3d5ffd5b505050506040513d601f19601f820116820180604052508101906105c891906147f9565b6001600160a01b0316036105ee5760405162461bcd60e51b815260040161054c90614814565b5f805b84518110156107595760025485515f916001600160a01b031690630c5289689089908990869081106106255761062561484b565b60200260200101516040518363ffffffff1660e01b815260040161065f9291906001600160801b0392831681529116602082015260400190565b5f60405180830381865afa158015610679573d5f5f3e3d5ffd5b505050506040513d5f823e601f3d908101601f191682016040526106a091908101906148cb565b90508060c001516106e65760405162461bcd60e51b815260206004820152601060248201526f4974656d20756e617661696c61626c6560801b604482015260640161054c565b866001600160801b031681602001516001600160801b03161461071b5760405162461bcd60e51b815260040161054c90614a4a565b84828151811061072d5761072d61484b565b60200260200101518160a001516107449190614aa0565b61074e9084614ac9565b9250506001016105f1565b505f606460015f9054906101000a90046001600160a01b03166001600160a01b031663603ef6496040518163ffffffff1660e01b8152600401602060405180830381865afa1580156107ad573d5f5f3e3d5ffd5b505050506040513d601f19601f820116820180604052508101906107d19190614ae8565b6107de9060ff1684614aa0565b6107e89190614b03565b90506107f48183614ac9565b925050505b9392505050565b6009602052815f5260405f208181548110610819575f80fd5b5f91825260209091206005909102018054600182015460028301546003840180546001600160a01b0394851697509390921694506001600160801b03811693600160801b90910460ff169290919061087090614b3c565b80601f016020809104026020016040519081016040528092919081815260200182805461089c90614b3c565b80156108e75780601f106108be576101008083540402835291602001916108e7565b820191905f5260205f20905b8154815290600101906020018083116108ca57829003601f168201915b505050600490930154919250506001600160801b031686565b6005602052815f5260405f208181548110610919575f80fd5b905f5260205f209060029182820401919006601002915091509054906101000a90046001600160801b031681565b60606002600154604051634c9ba32160e11b81523360048201526001600160a01b0390911690639937464290602401602060405180830381865afa158015610991573d5f5f3e3d5ffd5b505050506040513d601f19601f820116820180604052508101906109b59190614b74565b60028111156109c6576109c66140b6565b14610a135760405162461bcd60e51b815260206004820152601860248201527f556e617574686f72697a65643a2041646d696e206f6e6c790000000000000000604482015260640161054c565b6003545f906001600160801b0380861691610a319160019116614b92565b6001600160801b031611610a45575f610a69565b6003548490610a5f906001906001600160801b0316614b92565b610a699190614b92565b9050826001600160801b0316816001600160801b03161115610a885750815b5f816001600160801b03166001600160401b03811115610aaa57610aaa613e08565b604051908082528060200260200182016040528015610ae357816020015b610ad0613ce9565b815260200190600190039081610ac85790505b5090505f5b826001600160801b0316816001600160801b03161015610cfc5760045f610b0f8389614ac9565b610b1a906001614ac9565b6001600160801b03908116825260208083019390935260409182015f2082516101008101845281548316815260018201546001600160a01b0316818601526002820154909216828401526003810180548451818702810187019095528085529294919360608601939092830182828015610be257602002820191905f5260205f20905f905b82829054906101000a90046001600160801b03166001600160801b031681526020019060100190602082600f01049283019260010382029150808411610b9f5790505b5050505050815260200160048201805480602002602001604051908101604052809291908181526020018280548015610c6957602002820191905f5260205f20905f905b82829054906101000a90046001600160801b03166001600160801b031681526020019060100190602082600f01049283019260010382029150808411610c265790505b50505091835250506005828101546001600160801b0381166020840152604090920191600160801b900460ff1690811115610ca657610ca66140b6565b6005811115610cb757610cb76140b6565b8152600691909101546001600160801b03908116602090920191909152835184918416908110610ce957610ce961484b565b6020908102919091010152600101610ae8565b509150505b92915050565b600154604051634c9ba32160e11b81523360048201526002916001600160a01b031690639937464290602401602060405180830381865afa158015610d4e573d5f5f3e3d5ffd5b505050506040513d601f19601f82011682018060405250810190610d729190614b74565b6002811115610d8357610d836140b6565b1480610e075750600154604051634c9ba32160e11b81523360048201525f916001600160a01b031690639937464290602401602060405180830381865afa158015610dd0573d5f5f3e3d5ffd5b505050506040513d601f19601f82011682018060405250810190610df49190614b74565b6002811115610e0557610e056140b6565b145b610e235760405162461bcd60e51b815260040161054c90614bb1565b610e2b613bd7565b805f816001600160801b0316118015610e5257506003546001600160801b03908116908216105b610e6e5760405162461bcd60e51b815260040161054c90614be1565b6001600160801b0382165f90815260046020526040902060018101546001600160a01b03163314610ed25760405162461bcd60e51b815260206004820152600e60248201526d2737ba103cb7bab91037b93232b960911b604482015260640161054c565b6003600582810154600160801b900460ff1690811115610ef457610ef46140b6565b14610f335760405162461bcd60e51b815260206004820152600f60248201526e4f72646572206e6f7420726561647960881b604482015260640161054c565b60058101805460ff60801b1916600560801b179055335f9081526006602052604081208054600a9290610f709084906001600160801b0316614ac9565b82546101009290920a6001600160801b038181021990931691831602179091556040805191861682523360208301527f02b43caf6e380609ec1e8a3eea0e53325c84f3efb96e5d9d4de1b5f30ff51e0092500160405180910390a17f398e222575905caececb6ca7c365b9049abf41cc7cc060ec170a711233f32d08836005604051610ffd929190614c0b565b60405180910390a1505061101060015f55565b50565b600154604051634c9ba32160e11b81523360048201525f916001600160a01b031690639937464290602401602060405180830381865afa158015611059573d5f5f3e3d5ffd5b505050506040513d601f19601f8201168201806040525081019061107d9190614b74565b600281111561108e5761108e6140b6565b1480611113575060018054604051634c9ba32160e11b81523360048201526001600160a01b0390911690639937464290602401602060405180830381865afa1580156110dc573d5f5f3e3d5ffd5b505050506040513d601f19601f820116820180604052508101906111009190614b74565b6002811115611111576111116140b6565b145b61116b5760405162461bcd60e51b8152602060048201526024808201527f556e617574686f72697a65643a205374616666206f7220437573746f6d6572206044820152636f6e6c7960e01b606482015260840161054c565b60018260ff1610158015611183575060058260ff1611155b6111cf5760405162461bcd60e51b815260206004820152601e60248201527f526174696e67206d757374206265206265747765656e203120616e6420350000604482015260640161054c565b600154604051630abca88f60e41b81526001600160801b03851660048201525f916001600160a01b03169063abca88f090602401602060405180830381865afa15801561121e573d5f5f3e3d5ffd5b505050506040513d601f19601f8201168201806040525081019061124291906147f9565b6001600160a01b0316036112685760405162461bcd60e51b815260040161054c90614814565b60018054604051634c9ba32160e11b81526001600160a01b03878116600483015290911690639937464290602401602060405180830381865afa1580156112b1573d5f5f3e3d5ffd5b505050506040513d601f19601f820116820180604052508101906112d59190614b74565b60028111156112e6576112e66140b6565b14801561136e5750600154604051631c51af4360e31b81526001600160a01b0386811660048301526001600160801b03861692169063e28d7a1890602401602060405180830381865afa15801561133f573d5f5f3e3d5ffd5b505050506040513d601f19601f820116820180604052508101906113639190614c28565b6001600160801b0316145b6113ad5760405162461bcd60e51b815260206004820152601060248201526f496e76616c696420656d706c6f79656560801b604482015260640161054c565b6040805160c0810182523381526001600160a01b0386811660208084018281526001600160801b03808a1686880190815260ff808b1660608901908152608089018b815242851660a08b01525f9788526009875299872080546001818101835591895296909720895160059097020180549689166001600160a01b03199788161781559451968501805497909816969095169590951790955593516002820180549351909416600160801b026001600160881b031990931694169390931717905591519091829160038201906114839082614c8e565b5060a09190910151600490910180546001600160801b0319166001600160801b0390921691909117905560405133906001600160a01b038716907f1711e3e66efa00ed25f58ffe8e0d8b7c1b29c2cbea7d708710a5a467ef74d21f906114ee90889088908890614d48565b60405180910390a35050505050565b600154604051634c9ba32160e11b81523360048201526002916001600160a01b031690639937464290602401602060405180830381865afa158015611544573d5f5f3e3d5ffd5b505050506040513d601f19601f820116820180604052508101906115689190614b74565b6002811115611579576115796140b6565b14806115fd5750600154604051634c9ba32160e11b81523360048201525f916001600160a01b031690639937464290602401602060405180830381865afa1580156115c6573d5f5f3e3d5ffd5b505050506040513d601f19601f820116820180604052508101906115ea9190614b74565b60028111156115fb576115fb6140b6565b145b6116195760405162461bcd60e51b815260040161054c90614bb1565b60018260ff1610158015611631575060058260ff1611155b61167d5760405162461bcd60e51b815260206004820152601e60248201527f526174696e67206d757374206265206265747765656e203120616e6420350000604482015260640161054c565b600154604051630abca88f60e41b81526001600160801b03851660048201525f916001600160a01b03169063abca88f090602401602060405180830381865afa1580156116cc573d5f5f3e3d5ffd5b505050506040513d601f19601f820116820180604052508101906116f091906147f9565b6001600160a01b0316036117165760405162461bcd60e51b815260040161054c90614814565b6040805160a0810182523381526001600160801b03808616602080840182815260ff8089168688019081526060870189815242871660808901525f958652600a855297852080546001818101835591875294909520875160049095020180546001600160a01b03959095166001600160a01b0319909516949094178455915193830180549251909116600160801b026001600160881b031990921693909416929092179190911790915591519091829160028201906117d59082614c8e565b5060809190910151600390910180546001600160801b0319166001600160801b0392831617905560405133918616907f8da348b329ec9cb5f933f377db6d8d5e57e2d8c1f3ba6f02ca2b1f147120da6a906118339087908790614d72565b60405180910390a350505050565b6007602052815f5260405f20818154811061185a575f80fd5b5f9182526020909120600390910201805460018201546002830180546001600160801b038085169750600160801b9094048416955092909116929161189e90614b3c565b80601f01602080910402602001604051908101604052809291908181526020018280546118ca90614b3c565b80156119155780601f106118ec57610100808354040283529160200191611915565b820191905f5260205f20905b8154815290600101906020018083116118f857829003601f168201915b5050505050905084565b611927613ce9565b606080835f816001600160801b031611801561195157506003546001600160801b03908116908216105b61196d5760405162461bcd60e51b815260040161054c90614be1565b6001600160801b038086165f9081526004602090815260409182902082516101008101845281548516815260018201546001600160a01b03168184015260028201549094168484015260038101805484518185028101850190955280855291936060860193909290830182828015611a3357602002820191905f5260205f20905f905b82829054906101000a90046001600160801b03166001600160801b031681526020019060100190602082600f010492830192600103820291508084116119f05790505b5050505050815260200160048201805480602002602001604051908101604052809291908181526020018280548015611aba57602002820191905f5260205f20905f905b82829054906101000a90046001600160801b03166001600160801b031681526020019060100190602082600f01049283019260010382029150808411611a775790505b50505091835250506005828101546001600160801b0381166020840152604090920191600160801b900460ff1690811115611af757611af76140b6565b6005811115611b0857611b086140b6565b8152600691909101546001600160801b0390811660209283015287165f908152600782526040808220805482518186028101860190935280835294985091939092849084015b82821015611c44575f848152602090819020604080516080810182526003860290920180546001600160801b038082168552600160801b909104811694840194909452600181015490931690820152600282018054919291606084019190611bb590614b3c565b80601f0160208091040260200160405190810160405280929190818152602001828054611be190614b3c565b8015611c2c5780601f10611c0357610100808354040283529160200191611c2c565b820191905f5260205f20905b815481529060010190602001808311611c0f57829003601f168201915b50505050508152505081526020019060010190611b4e565b50505050905080516001600160401b03811115611c6357611c63613e08565b604051908082528060200260200182016040528015611d1a57816020015b611d076040518061016001604052805f6001600160801b031681526020015f6001600160801b031681526020016060815260200160608152602001606081526020015f6001600160801b031681526020015f1515815260200160608152602001606081526020015f6001600160801b031681526020015f6001600160801b031681525090565b815260200190600190039081611c815790505b50935080516001600160401b03811115611d3657611d36613e08565b604051908082528060200260200182016040528015611d5f578160200160208202803683370190505b5092505f5b8151811015611e8457600254604087015183516001600160a01b0390921691630c5289689190859085908110611d9c57611d9c61484b565b6020908102919091010151516040516001600160e01b031960e085901b1681526001600160801b039283166004820152911660248201526044015f60405180830381865afa158015611df0573d5f5f3e3d5ffd5b505050506040513d5f823e601f3d908101601f19168201604052611e1791908101906148cb565b858281518110611e2957611e2961484b565b6020026020010181905250818181518110611e4657611e4661484b565b602002602001015160200151848281518110611e6457611e6461484b565b6001600160801b0390921660209283029190910190910152600101611d64565b5050509193909250565b600154604051630abca88f60e41b81526001600160801b03831660048201526060915f916001600160a01b039091169063abca88f090602401602060405180830381865afa158015611ee2573d5f5f3e3d5ffd5b505050506040513d601f19601f82011682018060405250810190611f0691906147f9565b6001600160a01b031603611f2c5760405162461bcd60e51b815260040161054c90614814565b6001600160801b0382165f908152600a6020908152604080832080548251818502810185019093528083529193909284015b82821015612070575f8481526020908190206040805160a0810182526004860290920180546001600160a01b0316835260018101546001600160801b03811694840194909452600160801b90930460ff1690820152600282018054919291606084019190611fcb90614b3c565b80601f0160208091040260200160405190810160405280929190818152602001828054611ff790614b3c565b80156120425780601f1061201957610100808354040283529160200191612042565b820191905f5260205f20905b81548152906001019060200180831161202557829003601f168201915b5050509183525050600391909101546001600160801b03166020918201529082526001929092019101611f5e565b505050509050919050565b6001600160a01b0381165f908152600960209081526040808320805482518185028101850190935280835260609492939192909184015b82821015612070575f8481526020908190206040805160c0810182526005860290920180546001600160a01b0390811684526001820154169383019390935260028301546001600160801b03811691830191909152600160801b900460ff16606082015260038201805491929160808401919061212e90614b3c565b80601f016020809104026020016040519081016040528092919081815260200182805461215a90614b3c565b80156121a55780601f1061217c576101008083540402835291602001916121a5565b820191905f5260205f20905b81548152906001019060200180831161218857829003601f168201915b5050509183525050600491909101546001600160801b031660209182015290825260019290920191016120b2565b600154604051634c9ba32160e11b81523360048201526002916001600160a01b031690639937464290602401602060405180830381865afa15801561221a573d5f5f3e3d5ffd5b505050506040513d601f19601f8201168201806040525081019061223e9190614b74565b600281111561224f5761224f6140b6565b14806122d35750600154604051634c9ba32160e11b81523360048201525f916001600160a01b031690639937464290602401602060405180830381865afa15801561229c573d5f5f3e3d5ffd5b505050506040513d601f19601f820116820180604052508101906122c09190614b74565b60028111156122d1576122d16140b6565b145b6122ef5760405162461bcd60e51b815260040161054c90614bb1565b6122f7613bd7565b5f8251118015612308575080518251145b6123445760405162461bcd60e51b815260206004820152600d60248201526c125b9d985b1a59081a5b9c1d5d609a1b604482015260640161054c565b600154604051630abca88f60e41b81526001600160801b03851660048201525f916001600160a01b03169063abca88f090602401602060405180830381865afa158015612393573d5f5f3e3d5ffd5b505050506040513d601f19601f820116820180604052508101906123b791906147f9565b6001600160a01b0316036123dd5760405162461bcd60e51b815260040161054c90614814565b81515f9081906001600160401b038111156123fa576123fa613e08565b60405190808252806020026020018201604052801561244957816020015b604080516080810182525f80825260208083018290529282015260608082015282525f199092019101816124185790505b5090505f5b84518110156126e25760025485515f916001600160a01b031690630c5289689089908990869081106124825761248261484b565b60200260200101516040518363ffffffff1660e01b81526004016124bc9291906001600160801b0392831681529116602082015260400190565b5f60405180830381865afa1580156124d6573d5f5f3e3d5ffd5b505050506040513d5f823e601f3d908101601f191682016040526124fd91908101906148cb565b90508060c001516125435760405162461bcd60e51b815260206004820152601060248201526f4974656d20756e617661696c61626c6560801b604482015260640161054c565b866001600160801b031681602001516001600160801b0316146125785760405162461bcd60e51b815260040161054c90614a4a565b84828151811061258a5761258a61484b565b60200260200101518160a001516125a19190614aa0565b6125ab9085614ac9565b93508482815181106125bf576125bf61484b565b6020908102919091018101516003546001600160801b03165f9081526008909252604082208851919290918990869081106125fc576125fc61484b565b60200260200101516001600160801b03166001600160801b031681526020019081526020015f205f6101000a8154816001600160801b0302191690836001600160801b0316021790555060405180608001604052808784815181106126635761266361484b565b60200260200101516001600160801b0316815260200186848151811061268b5761268b61484b565b60200260200101516001600160801b031681526020018260a001516001600160801b0316815260200182604001518152508383815181106126ce576126ce61484b565b60209081029190910101525060010161244e565b505f606460015f9054906101000a90046001600160a01b03166001600160a01b031663603ef6496040518163ffffffff1660e01b8152600401602060405180830381865afa158015612736573d5f5f3e3d5ffd5b505050506040513d601f19601f8201168201806040525081019061275a9190614ae8565b6127679060ff1685614aa0565b6127719190614b03565b90505f61277e8285614ac9565b9050806001600160801b03163410156127d05760405162461bcd60e51b8152602060048201526014602482015273125b9cdd59999a58da595b9d081c185e5b595b9d60621b604482015260640161054c565b806001600160801b03163411156127fe576127fe6127f76001600160801b03831634614d95565b3390613c2e565b6040805161010081018252600380546001600160801b039081168084523360208086019182528d8416868801908152606087018e8152608088018e90528c861660a08901525f60c0890181905242871660e08a01529485526004835297909320865181546001600160801b031990811691871691909117825592516001820180546001600160a01b0319166001600160a01b0390921691909117905592516002840180549093169416939093179055935180519394936128c5938501929190910190613d2b565b50608082015180516128e1916004840191602090910190613d2b565b5060a0820151600580830180546001600160801b039093166001600160801b031984168117825560c08601519391926001600160881b03199092161790600160801b908490811115612935576129356140b6565b021790555060e09190910151600690910180546001600160801b0319166001600160801b039092169190911790555f5b8351811015612a20576003546001600160801b03165f908152600760205260409020845185908390811061299b5761299b61484b565b6020908102919091018101518254600180820185555f948552938390208251938301516001600160801b03948516600160801b9186169190910217600390920201908155604082015193810180546001600160801b031916949093169390931790915560608101519091906002820190612a159082614c8e565b505050600101612965565b50335f90815260056020908152604080832060035481546001818101845592865294849020600286040180546010968416969096026101000a6001600160801b0392831681029202199095161790935591548251638da5cb5b60e01b815292516001600160a01b03919091169263a0e31ec4928492638da5cb5b9260048082019392918290030181865afa158015612aba573d5f5f3e3d5ffd5b505050506040513d601f19601f82011682018060405250810190612ade91906147f9565b6040516001600160e01b031960e084901b1681526001600160a01b0390911660048201526001600160801b03851660248201526044015f604051808303815f87803b158015612b2b575f5ffd5b505af1158015612b3d573d5f5f3e3d5ffd5b5050600354604080516001600160801b03928316815233602082015291881682820152517f705f23a83cf14e64bd1c38a913e0c43e880bbbf23a0dd3716eeacfb634ca814b9350908190036060019150a1600380546001600160801b0316905f612ba683614da8565b91906101000a8154816001600160801b0302191690836001600160801b031602179055505050505050612bd860015f55565b505050565b60606002600154604051634c9ba32160e11b81523360048201526001600160a01b0390911690639937464290602401602060405180830381865afa158015612c27573d5f5f3e3d5ffd5b505050506040513d601f19601f82011682018060405250810190612c4b9190614b74565b6002811115612c5c57612c5c6140b6565b1480612ce05750600154604051634c9ba32160e11b81523360048201525f916001600160a01b031690639937464290602401602060405180830381865afa158015612ca9573d5f5f3e3d5ffd5b505050506040513d601f19601f82011682018060405250810190612ccd9190614b74565b6002811115612cde57612cde6140b6565b145b612cfc5760405162461bcd60e51b815260040161054c90614bb1565b335f90815260056020526040812080549091906001600160401b03811115612d2657612d26613e08565b604051908082528060200260200182016040528015612d5f57816020015b612d4c613ce9565b815260200190600190039081612d445790505b5090505f5b8254811015612f7a5760045f848381548110612d8257612d8261484b565b5f91825260208083206002808404909101546001600160801b03601060019586160261010090810a9092048116875286840197909752604095860190942085519485018652805487168552928301546001600160a01b031684830152820154909416828401526003810180548451818702810187019095528085529294919360608601939092830182828015612e6657602002820191905f5260205f20905f905b82829054906101000a90046001600160801b03166001600160801b031681526020019060100190602082600f01049283019260010382029150808411612e235790505b5050505050815260200160048201805480602002602001604051908101604052809291908181526020018280548015612eed57602002820191905f5260205f20905f905b82829054906101000a90046001600160801b03166001600160801b031681526020019060100190602082600f01049283019260010382029150808411612eaa5790505b50505091835250506005828101546001600160801b0381166020840152604090920191600160801b900460ff1690811115612f2a57612f2a6140b6565b6005811115612f3b57612f3b6140b6565b8152600691909101546001600160801b03166020909101528251839083908110612f6757612f6761484b565b6020908102919091010152600101612d64565b5091505090565b612f89613ce9565b6060825f816001600160801b0316118015612fb257506003546001600160801b03908116908216105b612fce5760405162461bcd60e51b815260040161054c90614be1565b6001600160801b038085165f9081526004602090815260409182902082516101008101845281548516815260018201546001600160a01b0316818401526002820154909416848401526003810180548451818502810185019095528085529193606086019390929083018282801561309457602002820191905f5260205f20905f905b82829054906101000a90046001600160801b03166001600160801b031681526020019060100190602082600f010492830192600103820291508084116130515790505b505050505081526020016004820180548060200260200160405190810160405280929190818152602001828054801561311b57602002820191905f5260205f20905f905b82829054906101000a90046001600160801b03166001600160801b031681526020019060100190602082600f010492830192600103820291508084116130d85790505b50505091835250506005828101546001600160801b0381166020840152604090920191600160801b900460ff1690811115613158576131586140b6565b6005811115613169576131696140b6565b8152600691909101546001600160801b03166020909101526060810151519093506001600160401b038111156131a1576131a1613e08565b6040519080825280602002602001820160405280156131ca578160200160208202803683370190505b5091505f5b836060015151811015613279576001600160801b0385165f908152600860205260408120606086015180519192918490811061320d5761320d61484b565b60200260200101516001600160801b03166001600160801b031681526020019081526020015f205f9054906101000a90046001600160801b03168382815181106132595761325961484b565b6001600160801b03909216602092830291909101909101526001016131cf565b5050915091565b600154604051634c9ba32160e11b81523360048201525f916001600160a01b031690639937464290602401602060405180830381865afa1580156132c6573d5f5f3e3d5ffd5b505050506040513d601f19601f820116820180604052508101906132ea9190614b74565b60028111156132fb576132fb6140b6565b146133485760405162461bcd60e51b815260206004820152601b60248201527f556e617574686f72697a65643a20437573746f6d6572206f6e6c790000000000604482015260640161054c565b613350613bd7565b805f816001600160801b031611801561337757506003546001600160801b03908116908216105b6133935760405162461bcd60e51b815260040161054c90614be1565b6001600160801b0382165f90815260046020526040902060018101546001600160a01b031633146133f75760405162461bcd60e51b815260206004820152600e60248201526d2737ba103cb7bab91037b93232b960911b604482015260640161054c565b5f600582810154600160801b900460ff1690811115613418576134186140b6565b148061344357506001600582810154600160801b900460ff1690811115613441576134416140b6565b145b61348f5760405162461bcd60e51b815260206004820152601b60248201527f43616e6e6f742063616e63656c20617420746869732073746167650000000000604482015260640161054c565b600581018054600160821b60ff60801b198216179091556134ba9033906001600160801b0316613c2e565b604080516001600160801b03851681523360208201527f1912970d6b925634e2ccfaff5edb3a3fa0f2b9f36fc281eb8266688b89606ac1910160405180910390a16005810154604080513381526001600160801b0390921660208301527f1acf2c59d6610cf0f250c9bc70adb692b2319de3640e791ab8a33a3b8931df279101610ffd565b6001600160801b038083165f908152600460205260409020600201541660018054604051634c9ba32160e11b81523360048201526001600160a01b0390911690639937464290602401602060405180830381865afa1580156135a3573d5f5f3e3d5ffd5b505050506040513d601f19601f820116820180604052508101906135c79190614b74565b60028111156135d8576135d86140b6565b14801561365e5750600154604051631c51af4360e31b81523360048201526001600160801b038316916001600160a01b03169063e28d7a1890602401602060405180830381865afa15801561362f573d5f5f3e3d5ffd5b505050506040513d601f19601f820116820180604052508101906136539190614c28565b6001600160801b0316145b806136e25750600154604051634c9ba32160e11b81523360048201526002916001600160a01b031690639937464290602401602060405180830381865afa1580156136ab573d5f5f3e3d5ffd5b505050506040513d601f19601f820116820180604052508101906136cf9190614b74565b60028111156136e0576136e06140b6565b145b806137665750600154604051630abca88f60e41b81526001600160801b038316600482015233916001600160a01b03169063abca88f090602401602060405180830381865afa158015613737573d5f5f3e3d5ffd5b505050506040513d601f19601f8201168201806040525081019061375b91906147f9565b6001600160a01b0316145b6137c45760405162461bcd60e51b815260206004820152602960248201527f556e617574686f72697a65643a2053746166662c2041646d696e2c206f72204f604482015268776e6572206f6e6c7960b81b606482015260840161054c565b6137cc613bd7565b825f816001600160801b03161180156137f357506003546001600160801b03908116908216105b61380f5760405162461bcd60e51b815260040161054c90614be1565b6001600160801b0384165f90815260046020819052604090912090600582810154600160801b900460ff169081111561384a5761384a6140b6565b0361388c5760405162461bcd60e51b815260206004820152601260248201527113dc99195c881a5cc818d85b98d95b1b195960721b604482015260640161054c565b60058082810154600160801b900460ff16908111156138ad576138ad6140b6565b036138fa5760405162461bcd60e51b815260206004820152601760248201527f4f7264657220616c726561647920636f6d706c65746564000000000000000000604482015260640161054c565b600184600581111561390e5761390e6140b6565b03613983575f5b600582810154600160801b900460ff1690811115613935576139356140b6565b1461397e5760405162461bcd60e51b815260206004820152601960248201527824b73b30b634b21039ba30ba3ab9903a3930b739b4ba34b7b760391b604482015260640161054c565b613a74565b6002846005811115613997576139976140b6565b03613a14575f5b600582810154600160801b900460ff16908111156139be576139be6140b6565b14806139cc57506001613915565b61397e5760405162461bcd60e51b815260206004820152601960248201527824b73b30b634b21039ba30ba3ab9903a3930b739b4ba34b7b760391b604482015260640161054c565b6003846005811115613a2857613a286140b6565b03613a3457600261399e565b60405162461bcd60e51b8152602060048201526015602482015274496e76616c6964207374617475732075706461746560581b604482015260640161054c565b838160050160106101000a81548160ff02191690836005811115613a9a57613a9a6140b6565b02179055507f398e222575905caececb6ca7c365b9049abf41cc7cc060ec170a711233f32d088585604051613ad0929190614c0b565b60405180910390a15050612bd860015f55565b600a602052815f5260405f208181548110613afc575f80fd5b5f9182526020909120600490910201805460018201546002830180546001600160a01b0390931695506001600160801b0382169450600160801b90910460ff169291613b4790614b3c565b80601f0160208091040260200160405190810160405280929190818152602001828054613b7390614b3c565b8015613bbe5780601f10613b9557610100808354040283529160200191613bbe565b820191905f5260205f20905b815481529060010190602001808311613ba157829003601f168201915b505050600390930154919250506001600160801b031685565b60025f5403613c285760405162461bcd60e51b815260206004820152601f60248201527f5265656e7472616e637947756172643a207265656e7472616e742063616c6c00604482015260640161054c565b60025f55565b80471015613c585760405163cf47918160e01b81524760048201526024810182905260440161054c565b5f5f836001600160a01b0316836040515f6040518083038185875af1925050503d805f8114613ca2576040519150601f19603f3d011682016040523d82523d5f602084013e613ca7565b606091505b509150915081613cba57613cba81613cc0565b50505050565b805115613cd05780518082602001fd5b60405163d6bda27560e01b815260040160405180910390fd5b60408051610100810182525f808252602082018190529181018290526060808201819052608082015260a081018290529060c082019081525f60209091015290565b828054828255905f5260205f2090600101600290048101928215613dd0579160200282015f5b83821115613d9b57835183826101000a8154816001600160801b0302191690836001600160801b031602179055509260200192601001602081600f01049283019260010302613d51565b8015613dce5782816101000a8154906001600160801b030219169055601001602081600f01049283019260010302613d9b565b505b50613ddc929150613de0565b5090565b5b80821115613ddc575f8155600101613de1565b6001600160801b0381168114611010575f5ffd5b634e487b7160e01b5f52604160045260245ffd5b60405161016081016001600160401b0381118282101715613e3f57613e3f613e08565b60405290565b604051601f8201601f191681016001600160401b0381118282101715613e6d57613e6d613e08565b604052919050565b5f82601f830112613e84575f5ffd5b81356001600160401b03811115613e9d57613e9d613e08565b8060051b613ead60208201613e45565b91825260208185018101929081019086841115613ec8575f5ffd5b6020860192505b83831015613ef3578235613ee281613df4565b825260209283019290910190613ecf565b9695505050505050565b5f5f5f60608486031215613f0f575f5ffd5b8335613f1a81613df4565b925060208401356001600160401b03811115613f34575f5ffd5b613f4086828701613e75565b92505060408401356001600160401b03811115613f5b575f5ffd5b613f6786828701613e75565b9150509250925092565b6001600160a01b0381168114611010575f5ffd5b5f5f60408385031215613f96575f5ffd5b8235613fa181613f71565b946020939093013593505050565b5f81518084528060208401602086015e5f602082860101526020601f19601f83011685010191505092915050565b6001600160a01b038781168252861660208201526001600160801b038516604082015260ff8416606082015260c0608082018190525f9061402090830185613faf565b90506001600160801b03831660a0830152979650505050505050565b5f5f6040838503121561404d575f5ffd5b823561405881613df4565b9150602083013561406881613df4565b809150509250929050565b5f8151808452602084019350602083015f5b828110156140ac5781516001600160801b0316865260209586019590910190600101614085565b5093949350505050565b634e487b7160e01b5f52602160045260245ffd5b600681106140e657634e487b7160e01b5f52602160045260245ffd5b9052565b6001600160801b0381511682525f602082015161411260208501826001600160a01b03169052565b50604082015161412d60408501826001600160801b03169052565b5060608201516101006060850152614149610100850182614073565b9050608083015184820360808601526141628282614073565b91505060a083015161417f60a08601826001600160801b03169052565b5060c083015161419260c08601826140ca565b5060e08301516141ad60e08601826001600160801b03169052565b509392505050565b5f602082016020835280845180835260408501915060408160051b8601019250602086015f5b8281101561420c57603f198786030184526141f78583516140ea565b945060209384019391909101906001016141db565b50929695505050505050565b5f60208284031215614228575f5ffd5b81356107f981613df4565b60ff81168114611010575f5ffd5b5f6001600160401b0382111561425957614259613e08565b50601f01601f191660200190565b5f82601f830112614276575f5ffd5b813561428961428482614241565b613e45565b81815284602083860101111561429d575f5ffd5b816020850160208301375f918101602001919091529392505050565b5f5f5f5f608085870312156142cc575f5ffd5b84356142d781613f71565b935060208501356142e781613df4565b925060408501356142f781614233565b915060608501356001600160401b03811115614311575f5ffd5b61431d87828801614267565b91505092959194509250565b5f5f5f6060848603121561433b575f5ffd5b833561434681613df4565b9250602084013561435681614233565b915060408401356001600160401b03811115614370575f5ffd5b613f6786828701614267565b5f5f6040838503121561438d575f5ffd5b8235613fa181613df4565b6001600160801b03851681526001600160801b03841660208201526001600160801b0383166040820152608060608201525f613ef36080830184613faf565b606081525f6143e960608301866140ea565b828103602084015280855180835260208301915060208160051b840101602088015f5b8381101561454f57858303601f19018552815180516001600160801b03168452602081015161444660208601826001600160801b03169052565b5060408101516101606040860152614462610160860182613faf565b90506060820151858203606087015261447b8282613faf565b915050608082015185820360808701526144958282613faf565b91505060a08201516144b260a08701826001600160801b03169052565b5060c08201516144c660c087018215159052565b5060e082015185820360e08701526144de8282613faf565b9150506101008201518582036101008701526144fa8282613faf565b9150506101208201516145196101208701826001600160801b03169052565b5061014082015191506145386101408601836001600160801b03169052565b60209687019690945092909201915060010161440c565b505085810360408701526145638188614073565b9998505050505050505050565b5f602082016020835280845180835260408501915060408160051b8601019250602086015f5b8281101561420c57603f19878603018452815160018060a01b0381511686526001600160801b03602082015116602087015260ff6040820151166040870152606081015160a060608801526145ee60a0880182613faf565b6080928301516001600160801b0316979092019690965294506020938401939190910190600101614596565b5f6020828403121561462a575f5ffd5b81356107f981613f71565b5f602082016020835280845180835260408501915060408160051b8601019250602086015f5b8281101561420c57603f19878603018452815160018060a01b03815116865260018060a01b0360208201511660208701526001600160801b03604082015116604087015260ff6060820151166060870152608081015160c060808801526146c560c0880182613faf565b60a0928301516001600160801b031697909201969096529450602093840193919091019060010161465b565b604081525f61470360408301856140ea565b82810360208401526147158185614073565b95945050505050565b5f5f6040838503121561472f575f5ffd5b823561473a81613df4565b9150602083013560068110614068575f5ffd5b6001600160a01b03861681526001600160801b038516602082015260ff8416604082015260a0606082018190525f9061478890830185613faf565b90506001600160801b03831660808301529695505050505050565b6001600160801b0387811682526001600160a01b038716602083015285811660408301528416606082015260c081016147df60808301856140ca565b6001600160801b03831660a0830152979650505050505050565b5f60208284031215614809575f5ffd5b81516107f981613f71565b60208082526019908201527f52657374617572616e7420646f6573206e6f7420657869737400000000000000604082015260600190565b634e487b7160e01b5f52603260045260245ffd5b805161486a81613df4565b919050565b5f82601f83011261487e575f5ffd5b815161488c61428482614241565b8181528460208386010111156148a0575f5ffd5b8160208501602083015e5f918101602001919091529392505050565b8051801515811461486a575f5ffd5b5f602082840312156148db575f5ffd5b81516001600160401b038111156148f0575f5ffd5b82016101608185031215614902575f5ffd5b61490a613e1c565b6149138261485f565b81526149216020830161485f565b602082015260408201516001600160401b0381111561493e575f5ffd5b61494a8682850161486f565b60408301525060608201516001600160401b03811115614968575f5ffd5b6149748682850161486f565b60608301525060808201516001600160401b03811115614992575f5ffd5b61499e8682850161486f565b6080830152506149b060a0830161485f565b60a08201526149c160c083016148bc565b60c082015260e08201516001600160401b038111156149de575f5ffd5b6149ea8682850161486f565b60e0830152506101008201516001600160401b03811115614a09575f5ffd5b614a158682850161486f565b61010083015250614a29610120830161485f565b610120820152614a3c610140830161485f565b610140820152949350505050565b60208082526022908201527f4974656d20646f6573206e6f742062656c6f6e6720746f2072657374617572616040820152611b9d60f21b606082015260800190565b634e487b7160e01b5f52601160045260245ffd5b6001600160801b038181168382160290811690818114614ac257614ac2614a8c565b5092915050565b6001600160801b038181168382160190811115610d0157610d01614a8c565b5f60208284031215614af8575f5ffd5b81516107f981614233565b5f6001600160801b03831680614b2757634e487b7160e01b5f52601260045260245ffd5b806001600160801b0384160491505092915050565b600181811c90821680614b5057607f821691505b602082108103614b6e57634e487b7160e01b5f52602260045260245ffd5b50919050565b5f60208284031215614b84575f5ffd5b8151600381106107f9575f5ffd5b6001600160801b038281168282160390811115610d0157610d01614a8c565b60208082526016908201527527b7363c9030b236b4b71037b91031bab9ba37b6b2b960511b604082015260600190565b60208082526010908201526f125b9d985b1a59081bdc99195c88125160821b604082015260600190565b6001600160801b0383168152604081016107f960208301846140ca565b5f60208284031215614c38575f5ffd5b81516107f981613df4565b601f821115612bd857805f5260205f20601f840160051c81016020851015614c685750805b601f840160051c820191505b81811015614c87575f8155600101614c74565b5050505050565b81516001600160401b03811115614ca757614ca7613e08565b614cbb81614cb58454614b3c565b84614c43565b6020601f821160018114614ced575f8315614cd65750848201515b5f19600385901b1c1916600184901b178455614c87565b5f84815260208120601f198516915b82811015614d1c5787850151825560209485019460019092019101614cfc565b5084821015614d3957868401515f19600387901b60f8161c191681555b50505050600190811b01905550565b6001600160801b038416815260ff83166020820152606060408201525f6147156060830184613faf565b60ff83168152604060208201525f614d8d6040830184613faf565b949350505050565b81810381811115610d0157610d01614a8c565b5f6001600160801b0382166001600160801b038103614dc957614dc9614a8c565b6001019291505056fea2646970667358221220db12029c56d8e7d2698cf2f923f6f4e64b16d4cb6935958d96f8f18e926565da64736f6c634300081e0033",
			"opcodes": "PUSH1 0x80 PUSH1 0x40 MSTORE PUSH1 0x3 DUP1 SLOAD PUSH1 0x1 PUSH1 0x1 PUSH1 0x80 SHL SUB NOT AND PUSH1 0x1 OR SWAP1 SSTORE CALLVALUE DUP1 ISZERO PUSH1 0x21 JUMPI PUSH0 PUSH0 REVERT JUMPDEST POP PUSH1 0x40 MLOAD PUSH2 0x4ECD CODESIZE SUB DUP1 PUSH2 0x4ECD DUP4 CODECOPY DUP2 ADD PUSH1 0x40 DUP2 SWAP1 MSTORE PUSH1 0x3E SWAP2 PUSH1 0x8C JUMP JUMPDEST PUSH1 0x1 PUSH0 DUP2 SWAP1 SSTORE DUP1 SLOAD PUSH1 0x1 PUSH1 0x1 PUSH1 0xA0 SHL SUB SWAP4 DUP5 AND PUSH1 0x1 PUSH1 0x1 PUSH1 0xA0 SHL SUB NOT SWAP2 DUP3 AND OR SWAP1 SWAP2 SSTORE PUSH1 0x2 DUP1 SLOAD SWAP3 SWAP1 SWAP4 AND SWAP2 AND OR SWAP1 SSTORE PUSH1 0xB8 JUMP JUMPDEST DUP1 MLOAD PUSH1 0x1 PUSH1 0x1 PUSH1 0xA0 SHL SUB DUP2 AND DUP2 EQ PUSH1 0x87 JUMPI PUSH0 PUSH0 REVERT JUMPDEST SWAP2 SWAP1 POP JUMP JUMPDEST PUSH0 PUSH0 PUSH1 0x40 DUP4 DUP6 SUB SLT ISZERO PUSH1 0x9C JUMPI PUSH0 PUSH0 REVERT JUMPDEST PUSH1 0xA3 DUP4 PUSH1 0x72 JUMP JUMPDEST SWAP2 POP PUSH1 0xAF PUSH1 0x20 DUP5 ADD PUSH1 0x72 JUMP JUMPDEST SWAP1 POP SWAP3 POP SWAP3 SWAP1 POP JUMP JUMPDEST PUSH2 0x4E08 DUP1 PUSH2 0xC5 PUSH0 CODECOPY PUSH0 RETURN INVALID PUSH1 0x80 PUSH1 0x40 MSTORE PUSH1 0x4 CALLDATASIZE LT PUSH2 0x131 JUMPI PUSH0 CALLDATALOAD PUSH1 0xE0 SHR DUP1 PUSH4 0x6E1F4B75 GT PUSH2 0xA8 JUMPI DUP1 PUSH4 0xCDAAA7D8 GT PUSH2 0x6D JUMPI DUP1 PUSH4 0xCDAAA7D8 EQ PUSH2 0x3BD JUMPI DUP1 PUSH4 0xDBC91396 EQ PUSH2 0x3EA JUMPI DUP1 PUSH4 0xDDB0C22F EQ PUSH2 0x409 JUMPI DUP1 PUSH4 0xF4340E9C EQ PUSH2 0x428 JUMPI DUP1 PUSH4 0xF50DDBC7 EQ PUSH2 0x458 JUMPI DUP1 PUSH4 0xFF8DDEE3 EQ PUSH2 0x48C JUMPI PUSH0 PUSH0 REVERT JUMPDEST DUP1 PUSH4 0x6E1F4B75 EQ PUSH2 0x2FF JUMPI DUP1 PUSH4 0x88EE189B EQ PUSH2 0x32B JUMPI DUP1 PUSH4 0x90A815A9 EQ PUSH2 0x36A JUMPI DUP1 PUSH4 0x98D88075 EQ PUSH2 0x396 JUMPI DUP1 PUSH4 0xBAB5933A EQ PUSH2 0x3A9 JUMPI PUSH0 PUSH0 REVERT JUMPDEST DUP1 PUSH4 0x388F20A8 GT PUSH2 0xF9 JUMPI DUP1 PUSH4 0x388F20A8 EQ PUSH2 0x224 JUMPI DUP1 PUSH4 0x49392B3D EQ PUSH2 0x245 JUMPI DUP1 PUSH4 0x5059E95B EQ PUSH2 0x264 JUMPI DUP1 PUSH4 0x515F72CE EQ PUSH2 0x283 JUMPI DUP1 PUSH4 0x6761DC8C EQ PUSH2 0x2A2 JUMPI DUP1 PUSH4 0x6B813675 EQ PUSH2 0x2D1 JUMPI PUSH0 PUSH0 REVERT JUMPDEST DUP1 PUSH4 0x605551E EQ PUSH2 0x135 JUMPI DUP1 PUSH4 0x659AE68 EQ PUSH2 0x171 JUMPI DUP1 PUSH4 0x1600C6CD EQ PUSH2 0x1A2 JUMPI DUP1 PUSH4 0x2134B6F6 EQ PUSH2 0x1C1 JUMPI DUP1 PUSH4 0x26912883 EQ PUSH2 0x1F8 JUMPI JUMPDEST PUSH0 PUSH0 REVERT JUMPDEST CALLVALUE DUP1 ISZERO PUSH2 0x140 JUMPI PUSH0 PUSH0 REVERT JUMPDEST POP PUSH2 0x154 PUSH2 0x14F CALLDATASIZE PUSH1 0x4 PUSH2 0x3EFD JUMP JUMPDEST PUSH2 0x50C JUMP JUMPDEST PUSH1 0x40 MLOAD PUSH1 0x1 PUSH1 0x1 PUSH1 0x80 SHL SUB SWAP1 SWAP2 AND DUP2 MSTORE PUSH1 0x20 ADD JUMPDEST PUSH1 0x40 MLOAD DUP1 SWAP2 SUB SWAP1 RETURN JUMPDEST CALLVALUE DUP1 ISZERO PUSH2 0x17C JUMPI PUSH0 PUSH0 REVERT JUMPDEST POP PUSH2 0x190 PUSH2 0x18B CALLDATASIZE PUSH1 0x4 PUSH2 0x3F85 JUMP JUMPDEST PUSH2 0x800 JUMP JUMPDEST PUSH1 0x40 MLOAD PUSH2 0x168 SWAP7 SWAP6 SWAP5 SWAP4 SWAP3 SWAP2 SWAP1 PUSH2 0x3FDD JUMP JUMPDEST CALLVALUE DUP1 ISZERO PUSH2 0x1AD JUMPI PUSH0 PUSH0 REVERT JUMPDEST POP PUSH2 0x154 PUSH2 0x1BC CALLDATASIZE PUSH1 0x4 PUSH2 0x3F85 JUMP JUMPDEST PUSH2 0x900 JUMP JUMPDEST CALLVALUE DUP1 ISZERO PUSH2 0x1CC JUMPI PUSH0 PUSH0 REVERT JUMPDEST POP PUSH1 0x1 SLOAD PUSH2 0x1E0 SWAP1 PUSH1 0x1 PUSH1 0x1 PUSH1 0xA0 SHL SUB AND DUP2 JUMP JUMPDEST PUSH1 0x40 MLOAD PUSH1 0x1 PUSH1 0x1 PUSH1 0xA0 SHL SUB SWAP1 SWAP2 AND DUP2 MSTORE PUSH1 0x20 ADD PUSH2 0x168 JUMP JUMPDEST CALLVALUE DUP1 ISZERO PUSH2 0x203 JUMPI PUSH0 PUSH0 REVERT JUMPDEST POP PUSH2 0x217 PUSH2 0x212 CALLDATASIZE PUSH1 0x4 PUSH2 0x403C JUMP JUMPDEST PUSH2 0x947 JUMP JUMPDEST PUSH1 0x40 MLOAD PUSH2 0x168 SWAP2 SWAP1 PUSH2 0x41B5 JUMP JUMPDEST CALLVALUE DUP1 ISZERO PUSH2 0x22F JUMPI PUSH0 PUSH0 REVERT JUMPDEST POP PUSH2 0x243 PUSH2 0x23E CALLDATASIZE PUSH1 0x4 PUSH2 0x4218 JUMP JUMPDEST PUSH2 0xD07 JUMP JUMPDEST STOP JUMPDEST CALLVALUE DUP1 ISZERO PUSH2 0x250 JUMPI PUSH0 PUSH0 REVERT JUMPDEST POP PUSH2 0x243 PUSH2 0x25F CALLDATASIZE PUSH1 0x4 PUSH2 0x42B9 JUMP JUMPDEST PUSH2 0x1013 JUMP JUMPDEST CALLVALUE DUP1 ISZERO PUSH2 0x26F JUMPI PUSH0 PUSH0 REVERT JUMPDEST POP PUSH1 0x2 SLOAD PUSH2 0x1E0 SWAP1 PUSH1 0x1 PUSH1 0x1 PUSH1 0xA0 SHL SUB AND DUP2 JUMP JUMPDEST CALLVALUE DUP1 ISZERO PUSH2 0x28E JUMPI PUSH0 PUSH0 REVERT JUMPDEST POP PUSH2 0x243 PUSH2 0x29D CALLDATASIZE PUSH1 0x4 PUSH2 0x4329 JUMP JUMPDEST PUSH2 0x14FD JUMP JUMPDEST CALLVALUE DUP1 ISZERO PUSH2 0x2AD JUMPI PUSH0 PUSH0 REVERT JUMPDEST POP PUSH2 0x2C1 PUSH2 0x2BC CALLDATASIZE PUSH1 0x4 PUSH2 0x437C JUMP JUMPDEST PUSH2 0x1841 JUMP JUMPDEST PUSH1 0x40 MLOAD PUSH2 0x168 SWAP5 SWAP4 SWAP3 SWAP2 SWAP1 PUSH2 0x4398 JUMP JUMPDEST CALLVALUE DUP1 ISZERO PUSH2 0x2DC JUMPI PUSH0 PUSH0 REVERT JUMPDEST POP PUSH2 0x2F0 PUSH2 0x2EB CALLDATASIZE PUSH1 0x4 PUSH2 0x4218 JUMP JUMPDEST PUSH2 0x191F JUMP JUMPDEST PUSH1 0x40 MLOAD PUSH2 0x168 SWAP4 SWAP3 SWAP2 SWAP1 PUSH2 0x43D7 JUMP JUMPDEST CALLVALUE DUP1 ISZERO PUSH2 0x30A JUMPI PUSH0 PUSH0 REVERT JUMPDEST POP PUSH2 0x31E PUSH2 0x319 CALLDATASIZE PUSH1 0x4 PUSH2 0x4218 JUMP JUMPDEST PUSH2 0x1E8E JUMP JUMPDEST PUSH1 0x40 MLOAD PUSH2 0x168 SWAP2 SWAP1 PUSH2 0x4570 JUMP JUMPDEST CALLVALUE DUP1 ISZERO PUSH2 0x336 JUMPI PUSH0 PUSH0 REVERT JUMPDEST POP PUSH2 0x154 PUSH2 0x345 CALLDATASIZE PUSH1 0x4 PUSH2 0x403C JUMP JUMPDEST PUSH1 0x8 PUSH1 0x20 SWAP1 DUP2 MSTORE PUSH0 SWAP3 DUP4 MSTORE PUSH1 0x40 DUP1 DUP5 KECCAK256 SWAP1 SWAP2 MSTORE SWAP1 DUP3 MSTORE SWAP1 KECCAK256 SLOAD PUSH1 0x1 PUSH1 0x1 PUSH1 0x80 SHL SUB AND DUP2 JUMP JUMPDEST CALLVALUE DUP1 ISZERO PUSH2 0x375 JUMPI PUSH0 PUSH0 REVERT JUMPDEST POP PUSH2 0x389 PUSH2 0x384 CALLDATASIZE PUSH1 0x4 PUSH2 0x461A JUMP JUMPDEST PUSH2 0x207B JUMP JUMPDEST PUSH1 0x40 MLOAD PUSH2 0x168 SWAP2 SWAP1 PUSH2 0x4635 JUMP JUMPDEST PUSH2 0x243 PUSH2 0x3A4 CALLDATASIZE PUSH1 0x4 PUSH2 0x3EFD JUMP JUMPDEST PUSH2 0x21D3 JUMP JUMPDEST CALLVALUE DUP1 ISZERO PUSH2 0x3B4 JUMPI PUSH0 PUSH0 REVERT JUMPDEST POP PUSH2 0x217 PUSH2 0x2BDD JUMP JUMPDEST CALLVALUE DUP1 ISZERO PUSH2 0x3C8 JUMPI PUSH0 PUSH0 REVERT JUMPDEST POP PUSH2 0x3DC PUSH2 0x3D7 CALLDATASIZE PUSH1 0x4 PUSH2 0x4218 JUMP JUMPDEST PUSH2 0x2F81 JUMP JUMPDEST PUSH1 0x40 MLOAD PUSH2 0x168 SWAP3 SWAP2 SWAP1 PUSH2 0x46F1 JUMP JUMPDEST CALLVALUE DUP1 ISZERO PUSH2 0x3F5 JUMPI PUSH0 PUSH0 REVERT JUMPDEST POP PUSH2 0x243 PUSH2 0x404 CALLDATASIZE PUSH1 0x4 PUSH2 0x4218 JUMP JUMPDEST PUSH2 0x3280 JUMP JUMPDEST CALLVALUE DUP1 ISZERO PUSH2 0x414 JUMPI PUSH0 PUSH0 REVERT JUMPDEST POP PUSH2 0x243 PUSH2 0x423 CALLDATASIZE PUSH1 0x4 PUSH2 0x471E JUMP JUMPDEST PUSH2 0x353F JUMP JUMPDEST CALLVALUE DUP1 ISZERO PUSH2 0x433 JUMPI PUSH0 PUSH0 REVERT JUMPDEST POP PUSH2 0x447 PUSH2 0x442 CALLDATASIZE PUSH1 0x4 PUSH2 0x437C JUMP JUMPDEST PUSH2 0x3AE3 JUMP JUMPDEST PUSH1 0x40 MLOAD PUSH2 0x168 SWAP6 SWAP5 SWAP4 SWAP3 SWAP2 SWAP1 PUSH2 0x474D JUMP JUMPDEST CALLVALUE DUP1 ISZERO PUSH2 0x463 JUMPI PUSH0 PUSH0 REVERT JUMPDEST POP PUSH2 0x154 PUSH2 0x472 CALLDATASIZE PUSH1 0x4 PUSH2 0x461A JUMP JUMPDEST PUSH1 0x6 PUSH1 0x20 MSTORE PUSH0 SWAP1 DUP2 MSTORE PUSH1 0x40 SWAP1 KECCAK256 SLOAD PUSH1 0x1 PUSH1 0x1 PUSH1 0x80 SHL SUB AND DUP2 JUMP JUMPDEST CALLVALUE DUP1 ISZERO PUSH2 0x497 JUMPI PUSH0 PUSH0 REVERT JUMPDEST POP PUSH2 0x4FA PUSH2 0x4A6 CALLDATASIZE PUSH1 0x4 PUSH2 0x4218 JUMP JUMPDEST PUSH1 0x4 PUSH1 0x20 MSTORE PUSH0 SWAP1 DUP2 MSTORE PUSH1 0x40 SWAP1 KECCAK256 DUP1 SLOAD PUSH1 0x1 DUP3 ADD SLOAD PUSH1 0x2 DUP4 ADD SLOAD PUSH1 0x5 DUP5 ADD SLOAD PUSH1 0x6 SWAP1 SWAP5 ADD SLOAD PUSH1 0x1 PUSH1 0x1 PUSH1 0x80 SHL SUB SWAP4 DUP5 AND SWAP5 PUSH1 0x1 PUSH1 0x1 PUSH1 0xA0 SHL SUB SWAP1 SWAP4 AND SWAP4 SWAP2 DUP3 AND SWAP3 DUP3 DUP2 AND SWAP3 PUSH1 0x1 PUSH1 0x80 SHL SWAP1 SWAP2 DIV PUSH1 0xFF AND SWAP2 AND DUP7 JUMP JUMPDEST PUSH1 0x40 MLOAD PUSH2 0x168 SWAP7 SWAP6 SWAP5 SWAP4 SWAP3 SWAP2 SWAP1 PUSH2 0x47A3 JUMP JUMPDEST PUSH0 DUP2 MLOAD DUP4 MLOAD EQ PUSH2 0x555 JUMPI PUSH1 0x40 MLOAD PUSH3 0x461BCD PUSH1 0xE5 SHL DUP2 MSTORE PUSH1 0x20 PUSH1 0x4 DUP3 ADD MSTORE PUSH1 0xF PUSH1 0x24 DUP3 ADD MSTORE PUSH15 0x98CADCCEE8D040DAD2E6DAC2E8C6D PUSH1 0x8B SHL PUSH1 0x44 DUP3 ADD MSTORE PUSH1 0x64 ADD JUMPDEST PUSH1 0x40 MLOAD DUP1 SWAP2 SUB SWAP1 REVERT JUMPDEST PUSH1 0x1 SLOAD PUSH1 0x40 MLOAD PUSH4 0xABCA88F PUSH1 0xE4 SHL DUP2 MSTORE PUSH1 0x1 PUSH1 0x1 PUSH1 0x80 SHL SUB DUP7 AND PUSH1 0x4 DUP3 ADD MSTORE PUSH0 SWAP2 PUSH1 0x1 PUSH1 0x1 PUSH1 0xA0 SHL SUB AND SWAP1 PUSH4 0xABCA88F0 SWAP1 PUSH1 0x24 ADD PUSH1 0x20 PUSH1 0x40 MLOAD DUP1 DUP4 SUB DUP2 DUP7 GAS STATICCALL ISZERO DUP1 ISZERO PUSH2 0x5A4 JUMPI RETURNDATASIZE PUSH0 PUSH0 RETURNDATACOPY RETURNDATASIZE PUSH0 REVERT JUMPDEST POP POP POP POP PUSH1 0x40 MLOAD RETURNDATASIZE PUSH1 0x1F NOT PUSH1 0x1F DUP3 ADD AND DUP3 ADD DUP1 PUSH1 0x40 MSTORE POP DUP2 ADD SWAP1 PUSH2 0x5C8 SWAP2 SWAP1 PUSH2 0x47F9 JUMP JUMPDEST PUSH1 0x1 PUSH1 0x1 PUSH1 0xA0 SHL SUB AND SUB PUSH2 0x5EE JUMPI PUSH1 0x40 MLOAD PUSH3 0x461BCD PUSH1 0xE5 SHL DUP2 MSTORE PUSH1 0x4 ADD PUSH2 0x54C SWAP1 PUSH2 0x4814 JUMP JUMPDEST PUSH0 DUP1 JUMPDEST DUP5 MLOAD DUP2 LT ISZERO PUSH2 0x759 JUMPI PUSH1 0x2 SLOAD DUP6 MLOAD PUSH0 SWAP2 PUSH1 0x1 PUSH1 0x1 PUSH1 0xA0 SHL SUB AND SWAP1 PUSH4 0xC528968 SWAP1 DUP10 SWAP1 DUP10 SWAP1 DUP7 SWAP1 DUP2 LT PUSH2 0x625 JUMPI PUSH2 0x625 PUSH2 0x484B JUMP JUMPDEST PUSH1 0x20 MUL PUSH1 0x20 ADD ADD MLOAD PUSH1 0x40 MLOAD DUP4 PUSH4 0xFFFFFFFF AND PUSH1 0xE0 SHL DUP2 MSTORE PUSH1 0x4 ADD PUSH2 0x65F SWAP3 SWAP2 SWAP1 PUSH1 0x1 PUSH1 0x1 PUSH1 0x80 SHL SUB SWAP3 DUP4 AND DUP2 MSTORE SWAP2 AND PUSH1 0x20 DUP3 ADD MSTORE PUSH1 0x40 ADD SWAP1 JUMP JUMPDEST PUSH0 PUSH1 0x40 MLOAD DUP1 DUP4 SUB DUP2 DUP7 GAS STATICCALL ISZERO DUP1 ISZERO PUSH2 0x679 JUMPI RETURNDATASIZE PUSH0 PUSH0 RETURNDATACOPY RETURNDATASIZE PUSH0 REVERT JUMPDEST POP POP POP POP PUSH1 0x40 MLOAD RETURNDATASIZE PUSH0 DUP3 RETURNDATACOPY PUSH1 0x1F RETURNDATASIZE SWAP1 DUP2 ADD PUSH1 0x1F NOT AND DUP3 ADD PUSH1 0x40 MSTORE PUSH2 0x6A0 SWAP2 SWAP1 DUP2 ADD SWAP1 PUSH2 0x48CB JUMP JUMPDEST SWAP1 POP DUP1 PUSH1 0xC0 ADD MLOAD PUSH2 0x6E6 JUMPI PUSH1 0x40 MLOAD PUSH3 0x461BCD PUSH1 0xE5 SHL DUP2 MSTORE PUSH1 0x20 PUSH1 0x4 DUP3 ADD MSTORE PUSH1 0x10 PUSH1 0x24 DUP3 ADD MSTORE PUSH16 0x4974656D20756E617661696C61626C65 PUSH1 0x80 SHL PUSH1 0x44 DUP3 ADD MSTORE PUSH1 0x64 ADD PUSH2 0x54C JUMP JUMPDEST DUP7 PUSH1 0x1 PUSH1 0x1 PUSH1 0x80 SHL SUB AND DUP2 PUSH1 0x20 ADD MLOAD PUSH1 0x1 PUSH1 0x1 PUSH1 0x80 SHL SUB AND EQ PUSH2 0x71B JUMPI PUSH1 0x40 MLOAD PUSH3 0x461BCD PUSH1 0xE5 SHL DUP2 MSTORE PUSH1 0x4 ADD PUSH2 0x54C SWAP1 PUSH2 0x4A4A JUMP JUMPDEST DUP5 DUP3 DUP2 MLOAD DUP2 LT PUSH2 0x72D JUMPI PUSH2 0x72D PUSH2 0x484B JUMP JUMPDEST PUSH1 0x20 MUL PUSH1 0x20 ADD ADD MLOAD DUP2 PUSH1 0xA0 ADD MLOAD PUSH2 0x744 SWAP2 SWAP1 PUSH2 0x4AA0 JUMP JUMPDEST PUSH2 0x74E SWAP1 DUP5 PUSH2 0x4AC9 JUMP JUMPDEST SWAP3 POP POP PUSH1 0x1 ADD PUSH2 0x5F1 JUMP JUMPDEST POP PUSH0 PUSH1 0x64 PUSH1 0x1 PUSH0 SWAP1 SLOAD SWAP1 PUSH2 0x100 EXP SWAP1 DIV PUSH1 0x1 PUSH1 0x1 PUSH1 0xA0 SHL SUB AND PUSH1 0x1 PUSH1 0x1 PUSH1 0xA0 SHL SUB AND PUSH4 0x603EF649 PUSH1 0x40 MLOAD DUP2 PUSH4 0xFFFFFFFF AND PUSH1 0xE0 SHL DUP2 MSTORE PUSH1 0x4 ADD PUSH1 0x20 PUSH1 0x40 MLOAD DUP1 DUP4 SUB DUP2 DUP7 GAS STATICCALL ISZERO DUP1 ISZERO PUSH2 0x7AD JUMPI RETURNDATASIZE PUSH0 PUSH0 RETURNDATACOPY RETURNDATASIZE PUSH0 REVERT JUMPDEST POP POP POP POP PUSH1 0x40 MLOAD RETURNDATASIZE PUSH1 0x1F NOT PUSH1 0x1F DUP3 ADD AND DUP3 ADD DUP1 PUSH1 0x40 MSTORE POP DUP2 ADD SWAP1 PUSH2 0x7D1 SWAP2 SWAP1 PUSH2 0x4AE8 JUMP JUMPDEST PUSH2 0x7DE SWAP1 PUSH1 0xFF AND DUP5 PUSH2 0x4AA0 JUMP JUMPDEST PUSH2 0x7E8 SWAP2 SWAP1 PUSH2 0x4B03 JUMP JUMPDEST SWAP1 POP PUSH2 0x7F4 DUP2 DUP4 PUSH2 0x4AC9 JUMP JUMPDEST SWAP3 POP POP POP JUMPDEST SWAP4 SWAP3 POP POP POP JUMP JUMPDEST PUSH1 0x9 PUSH1 0x20 MSTORE DUP2 PUSH0 MSTORE PUSH1 0x40 PUSH0 KECCAK256 DUP2 DUP2 SLOAD DUP2 LT PUSH2 0x819 JUMPI PUSH0 DUP1 REVERT JUMPDEST PUSH0 SWAP2 DUP3 MSTORE PUSH1 0x20 SWAP1 SWAP2 KECCAK256 PUSH1 0x5 SWAP1 SWAP2 MUL ADD DUP1 SLOAD PUSH1 0x1 DUP3 ADD SLOAD PUSH1 0x2 DUP4 ADD SLOAD PUSH1 0x3 DUP5 ADD DUP1 SLOAD PUSH1 0x1 PUSH1 0x1 PUSH1 0xA0 SHL SUB SWAP5 DUP6 AND SWAP8 POP SWAP4 SWAP1 SWAP3 AND SWAP5 POP PUSH1 0x1 PUSH1 0x1 PUSH1 0x80 SHL SUB DUP2 AND SWAP4 PUSH1 0x1 PUSH1 0x80 SHL SWAP1 SWAP2 DIV PUSH1 0xFF AND SWAP3 SWAP1 SWAP2 SWAP1 PUSH2 0x870 SWAP1 PUSH2 0x4B3C JUMP JUMPDEST DUP1 PUSH1 0x1F ADD PUSH1 0x20 DUP1 SWAP2 DIV MUL PUSH1 0x20 ADD PUSH1 0x40 MLOAD SWAP1 DUP2 ADD PUSH1 0x40 MSTORE DUP1 SWAP3 SWAP2 SWAP1 DUP2 DUP2 MSTORE PUSH1 0x20 ADD DUP3 DUP1 SLOAD PUSH2 0x89C SWAP1 PUSH2 0x4B3C JUMP JUMPDEST DUP1 ISZERO PUSH2 0x8E7 JUMPI DUP1 PUSH1 0x1F LT PUSH2 0x8BE JUMPI PUSH2 0x100 DUP1 DUP4 SLOAD DIV MUL DUP4 MSTORE SWAP2 PUSH1 0x20 ADD SWAP2 PUSH2 0x8E7 JUMP JUMPDEST DUP3 ADD SWAP2 SWAP1 PUSH0 MSTORE PUSH1 0x20 PUSH0 KECCAK256 SWAP1 JUMPDEST DUP2 SLOAD DUP2 MSTORE SWAP1 PUSH1 0x1 ADD SWAP1 PUSH1 0x20 ADD DUP1 DUP4 GT PUSH2 0x8CA JUMPI DUP3 SWAP1 SUB PUSH1 0x1F AND DUP3 ADD SWAP2 JUMPDEST POP POP POP PUSH1 0x4 SWAP1 SWAP4 ADD SLOAD SWAP2 SWAP3 POP POP PUSH1 0x1 PUSH1 0x1 PUSH1 0x80 SHL SUB AND DUP7 JUMP JUMPDEST PUSH1 0x5 PUSH1 0x20 MSTORE DUP2 PUSH0 MSTORE PUSH1 0x40 PUSH0 KECCAK256 DUP2 DUP2 SLOAD DUP2 LT PUSH2 0x919 JUMPI PUSH0 DUP1 REVERT JUMPDEST SWAP1 PUSH0 MSTORE PUSH1 0x20 PUSH0 KECCAK256 SWAP1 PUSH1 0x2 SWAP2 DUP3 DUP3 DIV ADD SWAP2 SWAP1 MOD PUSH1 0x10 MUL SWAP2 POP SWAP2 POP SWAP1 SLOAD SWAP1 PUSH2 0x100 EXP SWAP1 DIV PUSH1 0x1 PUSH1 0x1 PUSH1 0x80 SHL SUB AND DUP2 JUMP JUMPDEST PUSH1 0x60 PUSH1 0x2 PUSH1 0x1 SLOAD PUSH1 0x40 MLOAD PUSH4 0x4C9BA321 PUSH1 0xE1 SHL DUP2 MSTORE CALLER PUSH1 0x4 DUP3 ADD MSTORE PUSH1 0x1 PUSH1 0x1 PUSH1 0xA0 SHL SUB SWAP1 SWAP2 AND SWAP1 PUSH4 0x99374642 SWAP1 PUSH1 0x24 ADD PUSH1 0x20 PUSH1 0x40 MLOAD DUP1 DUP4 SUB DUP2 DUP7 GAS STATICCALL ISZERO DUP1 ISZERO PUSH2 0x991 JUMPI RETURNDATASIZE PUSH0 PUSH0 RETURNDATACOPY RETURNDATASIZE PUSH0 REVERT JUMPDEST POP POP POP POP PUSH1 0x40 MLOAD RETURNDATASIZE PUSH1 0x1F NOT PUSH1 0x1F DUP3 ADD AND DUP3 ADD DUP1 PUSH1 0x40 MSTORE POP DUP2 ADD SWAP1 PUSH2 0x9B5 SWAP2 SWAP1 PUSH2 0x4B74 JUMP JUMPDEST PUSH1 0x2 DUP2 GT ISZERO PUSH2 0x9C6 JUMPI PUSH2 0x9C6 PUSH2 0x40B6 JUMP JUMPDEST EQ PUSH2 0xA13 JUMPI PUSH1 0x40 MLOAD PUSH3 0x461BCD PUSH1 0xE5 SHL DUP2 MSTORE PUSH1 0x20 PUSH1 0x4 DUP3 ADD MSTORE PUSH1 0x18 PUSH1 0x24 DUP3 ADD MSTORE PUSH32 0x556E617574686F72697A65643A2041646D696E206F6E6C790000000000000000 PUSH1 0x44 DUP3 ADD MSTORE PUSH1 0x64 ADD PUSH2 0x54C JUMP JUMPDEST PUSH1 0x3 SLOAD PUSH0 SWAP1 PUSH1 0x1 PUSH1 0x1 PUSH1 0x80 SHL SUB DUP1 DUP7 AND SWAP2 PUSH2 0xA31 SWAP2 PUSH1 0x1 SWAP2 AND PUSH2 0x4B92 JUMP JUMPDEST PUSH1 0x1 PUSH1 0x1 PUSH1 0x80 SHL SUB AND GT PUSH2 0xA45 JUMPI PUSH0 PUSH2 0xA69 JUMP JUMPDEST PUSH1 0x3 SLOAD DUP5 SWAP1 PUSH2 0xA5F SWAP1 PUSH1 0x1 SWAP1 PUSH1 0x1 PUSH1 0x1 PUSH1 0x80 SHL SUB AND PUSH2 0x4B92 JUMP JUMPDEST PUSH2 0xA69 SWAP2 SWAP1 PUSH2 0x4B92 JUMP JUMPDEST SWAP1 POP DUP3 PUSH1 0x1 PUSH1 0x1 PUSH1 0x80 SHL SUB AND DUP2 PUSH1 0x1 PUSH1 0x1 PUSH1 0x80 SHL SUB AND GT ISZERO PUSH2 0xA88 JUMPI POP DUP2 JUMPDEST PUSH0 DUP2 PUSH1 0x1 PUSH1 0x1 PUSH1 0x80 SHL SUB AND PUSH1 0x1 PUSH1 0x1 PUSH1 0x40 SHL SUB DUP2 GT ISZERO PUSH2 0xAAA JUMPI PUSH2 0xAAA PUSH2 0x3E08 JUMP JUMPDEST PUSH1 0x40 MLOAD SWAP1 DUP1 DUP3 MSTORE DUP1 PUSH1 0x20 MUL PUSH1 0x20 ADD DUP3 ADD PUSH1 0x40 MSTORE DUP1 ISZERO PUSH2 0xAE3 JUMPI DUP2 PUSH1 0x20 ADD JUMPDEST PUSH2 0xAD0 PUSH2 0x3CE9 JUMP JUMPDEST DUP2 MSTORE PUSH1 0x20 ADD SWAP1 PUSH1 0x1 SWAP1 SUB SWAP1 DUP2 PUSH2 0xAC8 JUMPI SWAP1 POP JUMPDEST POP SWAP1 POP PUSH0 JUMPDEST DUP3 PUSH1 0x1 PUSH1 0x1 PUSH1 0x80 SHL SUB AND DUP2 PUSH1 0x1 PUSH1 0x1 PUSH1 0x80 SHL SUB AND LT ISZERO PUSH2 0xCFC JUMPI PUSH1 0x4 PUSH0 PUSH2 0xB0F DUP4 DUP10 PUSH2 0x4AC9 JUMP JUMPDEST PUSH2 0xB1A SWAP1 PUSH1 0x1 PUSH2 0x4AC9 JUMP JUMPDEST PUSH1 0x1 PUSH1 0x1 PUSH1 0x80 SHL SUB SWAP1 DUP2 AND DUP3 MSTORE PUSH1 0x20 DUP1 DUP4 ADD SWAP4 SWAP1 SWAP4 MSTORE PUSH1 0x40 SWAP2 DUP3 ADD PUSH0 KECCAK256 DUP3 MLOAD PUSH2 0x100 DUP2 ADD DUP5 MSTORE DUP2 SLOAD DUP4 AND DUP2 MSTORE PUSH1 0x1 DUP3 ADD SLOAD PUSH1 0x1 PUSH1 0x1 PUSH1 0xA0 SHL SUB AND DUP2 DUP7 ADD MSTORE PUSH1 0x2 DUP3 ADD SLOAD SWAP1 SWAP3 AND DUP3 DUP5 ADD MSTORE PUSH1 0x3 DUP2 ADD DUP1 SLOAD DUP5 MLOAD DUP2 DUP8 MUL DUP2 ADD DUP8 ADD SWAP1 SWAP6 MSTORE DUP1 DUP6 MSTORE SWAP3 SWAP5 SWAP2 SWAP4 PUSH1 0x60 DUP7 ADD SWAP4 SWAP1 SWAP3 DUP4 ADD DUP3 DUP3 DUP1 ISZERO PUSH2 0xBE2 JUMPI PUSH1 0x20 MUL DUP3 ADD SWAP2 SWAP1 PUSH0 MSTORE PUSH1 0x20 PUSH0 KECCAK256 SWAP1 PUSH0 SWAP1 JUMPDEST DUP3 DUP3 SWAP1 SLOAD SWAP1 PUSH2 0x100 EXP SWAP1 DIV PUSH1 0x1 PUSH1 0x1 PUSH1 0x80 SHL SUB AND PUSH1 0x1 PUSH1 0x1 PUSH1 0x80 SHL SUB AND DUP2 MSTORE PUSH1 0x20 ADD SWAP1 PUSH1 0x10 ADD SWAP1 PUSH1 0x20 DUP3 PUSH1 0xF ADD DIV SWAP3 DUP4 ADD SWAP3 PUSH1 0x1 SUB DUP3 MUL SWAP2 POP DUP1 DUP5 GT PUSH2 0xB9F JUMPI SWAP1 POP JUMPDEST POP POP POP POP POP DUP2 MSTORE PUSH1 0x20 ADD PUSH1 0x4 DUP3 ADD DUP1 SLOAD DUP1 PUSH1 0x20 MUL PUSH1 0x20 ADD PUSH1 0x40 MLOAD SWAP1 DUP2 ADD PUSH1 0x40 MSTORE DUP1 SWAP3 SWAP2 SWAP1 DUP2 DUP2 MSTORE PUSH1 0x20 ADD DUP3 DUP1 SLOAD DUP1 ISZERO PUSH2 0xC69 JUMPI PUSH1 0x20 MUL DUP3 ADD SWAP2 SWAP1 PUSH0 MSTORE PUSH1 0x20 PUSH0 KECCAK256 SWAP1 PUSH0 SWAP1 JUMPDEST DUP3 DUP3 SWAP1 SLOAD SWAP1 PUSH2 0x100 EXP SWAP1 DIV PUSH1 0x1 PUSH1 0x1 PUSH1 0x80 SHL SUB AND PUSH1 0x1 PUSH1 0x1 PUSH1 0x80 SHL SUB AND DUP2 MSTORE PUSH1 0x20 ADD SWAP1 PUSH1 0x10 ADD SWAP1 PUSH1 0x20 DUP3 PUSH1 0xF ADD DIV SWAP3 DUP4 ADD SWAP3 PUSH1 0x1 SUB DUP3 MUL SWAP2 POP DUP1 DUP5 GT PUSH2 0xC26 JUMPI SWAP1 POP JUMPDEST POP POP POP SWAP2 DUP4 MSTORE POP POP PUSH1 0x5 DUP3 DUP2 ADD SLOAD PUSH1 0x1 PUSH1 0x1 PUSH1 0x80 SHL SUB DUP2 AND PUSH1 0x20 DUP5 ADD MSTORE PUSH1 0x40 SWAP1 SWAP3 ADD SWAP2 PUSH1 0x1 PUSH1 0x80 SHL SWAP1 DIV PUSH1 0xFF AND SWAP1 DUP2 GT ISZERO PUSH2 0xCA6 JUMPI PUSH2 0xCA6 PUSH2 0x40B6 JUMP JUMPDEST PUSH1 0x5 DUP2 GT ISZERO PUSH2 0xCB7 JUMPI PUSH2 0xCB7 PUSH2 0x40B6 JUMP JUMPDEST DUP2 MSTORE PUSH1 0x6 SWAP2 SWAP1 SWAP2 ADD SLOAD PUSH1 0x1 PUSH1 0x1 PUSH1 0x80 SHL SUB SWAP1 DUP2 AND PUSH1 0x20 SWAP1 SWAP3 ADD SWAP2 SWAP1 SWAP2 MSTORE DUP4 MLOAD DUP5 SWAP2 DUP5 AND SWAP1 DUP2 LT PUSH2 0xCE9 JUMPI PUSH2 0xCE9 PUSH2 0x484B JUMP JUMPDEST PUSH1 0x20 SWAP1 DUP2 MUL SWAP2 SWAP1 SWAP2 ADD ADD MSTORE PUSH1 0x1 ADD PUSH2 0xAE8 JUMP JUMPDEST POP SWAP2 POP POP JUMPDEST SWAP3 SWAP2 POP POP JUMP JUMPDEST PUSH1 0x1 SLOAD PUSH1 0x40 MLOAD PUSH4 0x4C9BA321 PUSH1 0xE1 SHL DUP2 MSTORE CALLER PUSH1 0x4 DUP3 ADD MSTORE PUSH1 0x2 SWAP2 PUSH1 0x1 PUSH1 0x1 PUSH1 0xA0 SHL SUB AND SWAP1 PUSH4 0x99374642 SWAP1 PUSH1 0x24 ADD PUSH1 0x20 PUSH1 0x40 MLOAD DUP1 DUP4 SUB DUP2 DUP7 GAS STATICCALL ISZERO DUP1 ISZERO PUSH2 0xD4E JUMPI RETURNDATASIZE PUSH0 PUSH0 RETURNDATACOPY RETURNDATASIZE PUSH0 REVERT JUMPDEST POP POP POP POP PUSH1 0x40 MLOAD RETURNDATASIZE PUSH1 0x1F NOT PUSH1 0x1F DUP3 ADD AND DUP3 ADD DUP1 PUSH1 0x40 MSTORE POP DUP2 ADD SWAP1 PUSH2 0xD72 SWAP2 SWAP1 PUSH2 0x4B74 JUMP JUMPDEST PUSH1 0x2 DUP2 GT ISZERO PUSH2 0xD83 JUMPI PUSH2 0xD83 PUSH2 0x40B6 JUMP JUMPDEST EQ DUP1 PUSH2 0xE07 JUMPI POP PUSH1 0x1 SLOAD PUSH1 0x40 MLOAD PUSH4 0x4C9BA321 PUSH1 0xE1 SHL DUP2 MSTORE CALLER PUSH1 0x4 DUP3 ADD MSTORE PUSH0 SWAP2 PUSH1 0x1 PUSH1 0x1 PUSH1 0xA0 SHL SUB AND SWAP1 PUSH4 0x99374642 SWAP1 PUSH1 0x24 ADD PUSH1 0x20 PUSH1 0x40 MLOAD DUP1 DUP4 SUB DUP2 DUP7 GAS STATICCALL ISZERO DUP1 ISZERO PUSH2 0xDD0 JUMPI RETURNDATASIZE PUSH0 PUSH0 RETURNDATACOPY RETURNDATASIZE PUSH0 REVERT JUMPDEST POP POP POP POP PUSH1 0x40 MLOAD RETURNDATASIZE PUSH1 0x1F NOT PUSH1 0x1F DUP3 ADD AND DUP3 ADD DUP1 PUSH1 0x40 MSTORE POP DUP2 ADD SWAP1 PUSH2 0xDF4 SWAP2 SWAP1 PUSH2 0x4B74 JUMP JUMPDEST PUSH1 0x2 DUP2 GT ISZERO PUSH2 0xE05 JUMPI PUSH2 0xE05 PUSH2 0x40B6 JUMP JUMPDEST EQ JUMPDEST PUSH2 0xE23 JUMPI PUSH1 0x40 MLOAD PUSH3 0x461BCD PUSH1 0xE5 SHL DUP2 MSTORE PUSH1 0x4 ADD PUSH2 0x54C SWAP1 PUSH2 0x4BB1 JUMP JUMPDEST PUSH2 0xE2B PUSH2 0x3BD7 JUMP JUMPDEST DUP1 PUSH0 DUP2 PUSH1 0x1 PUSH1 0x1 PUSH1 0x80 SHL SUB AND GT DUP1 ISZERO PUSH2 0xE52 JUMPI POP PUSH1 0x3 SLOAD PUSH1 0x1 PUSH1 0x1 PUSH1 0x80 SHL SUB SWAP1 DUP2 AND SWAP1 DUP3 AND LT JUMPDEST PUSH2 0xE6E JUMPI PUSH1 0x40 MLOAD PUSH3 0x461BCD PUSH1 0xE5 SHL DUP2 MSTORE PUSH1 0x4 ADD PUSH2 0x54C SWAP1 PUSH2 0x4BE1 JUMP JUMPDEST PUSH1 0x1 PUSH1 0x1 PUSH1 0x80 SHL SUB DUP3 AND PUSH0 SWAP1 DUP2 MSTORE PUSH1 0x4 PUSH1 0x20 MSTORE PUSH1 0x40 SWAP1 KECCAK256 PUSH1 0x1 DUP2 ADD SLOAD PUSH1 0x1 PUSH1 0x1 PUSH1 0xA0 SHL SUB AND CALLER EQ PUSH2 0xED2 JUMPI PUSH1 0x40 MLOAD PUSH3 0x461BCD PUSH1 0xE5 SHL DUP2 MSTORE PUSH1 0x20 PUSH1 0x4 DUP3 ADD MSTORE PUSH1 0xE PUSH1 0x24 DUP3 ADD MSTORE PUSH14 0x2737BA103CB7BAB91037B93232B9 PUSH1 0x91 SHL PUSH1 0x44 DUP3 ADD MSTORE PUSH1 0x64 ADD PUSH2 0x54C JUMP JUMPDEST PUSH1 0x3 PUSH1 0x5 DUP3 DUP2 ADD SLOAD PUSH1 0x1 PUSH1 0x80 SHL SWAP1 DIV PUSH1 0xFF AND SWAP1 DUP2 GT ISZERO PUSH2 0xEF4 JUMPI PUSH2 0xEF4 PUSH2 0x40B6 JUMP JUMPDEST EQ PUSH2 0xF33 JUMPI PUSH1 0x40 MLOAD PUSH3 0x461BCD PUSH1 0xE5 SHL DUP2 MSTORE PUSH1 0x20 PUSH1 0x4 DUP3 ADD MSTORE PUSH1 0xF PUSH1 0x24 DUP3 ADD MSTORE PUSH15 0x4F72646572206E6F74207265616479 PUSH1 0x88 SHL PUSH1 0x44 DUP3 ADD MSTORE PUSH1 0x64 ADD PUSH2 0x54C JUMP JUMPDEST PUSH1 0x5 DUP2 ADD DUP1 SLOAD PUSH1 0xFF PUSH1 0x80 SHL NOT AND PUSH1 0x5 PUSH1 0x80 SHL OR SWAP1 SSTORE CALLER PUSH0 SWAP1 DUP2 MSTORE PUSH1 0x6 PUSH1 0x20 MSTORE PUSH1 0x40 DUP2 KECCAK256 DUP1 SLOAD PUSH1 0xA SWAP3 SWAP1 PUSH2 0xF70 SWAP1 DUP5 SWAP1 PUSH1 0x1 PUSH1 0x1 PUSH1 0x80 SHL SUB AND PUSH2 0x4AC9 JUMP JUMPDEST DUP3 SLOAD PUSH2 0x100 SWAP3 SWAP1 SWAP3 EXP PUSH1 0x1 PUSH1 0x1 PUSH1 0x80 SHL SUB DUP2 DUP2 MUL NOT SWAP1 SWAP4 AND SWAP2 DUP4 AND MUL OR SWAP1 SWAP2 SSTORE PUSH1 0x40 DUP1 MLOAD SWAP2 DUP7 AND DUP3 MSTORE CALLER PUSH1 0x20 DUP4 ADD MSTORE PUSH32 0x2B43CAF6E380609EC1E8A3EEA0E53325C84F3EFB96E5D9D4DE1B5F30FF51E00 SWAP3 POP ADD PUSH1 0x40 MLOAD DUP1 SWAP2 SUB SWAP1 LOG1 PUSH32 0x398E222575905CAECECB6CA7C365B9049ABF41CC7CC060EC170A711233F32D08 DUP4 PUSH1 0x5 PUSH1 0x40 MLOAD PUSH2 0xFFD SWAP3 SWAP2 SWAP1 PUSH2 0x4C0B JUMP JUMPDEST PUSH1 0x40 MLOAD DUP1 SWAP2 SUB SWAP1 LOG1 POP POP PUSH2 0x1010 PUSH1 0x1 PUSH0 SSTORE JUMP JUMPDEST POP JUMP JUMPDEST PUSH1 0x1 SLOAD PUSH1 0x40 MLOAD PUSH4 0x4C9BA321 PUSH1 0xE1 SHL DUP2 MSTORE CALLER PUSH1 0x4 DUP3 ADD MSTORE PUSH0 SWAP2 PUSH1 0x1 PUSH1 0x1 PUSH1 0xA0 SHL SUB AND SWAP1 PUSH4 0x99374642 SWAP1 PUSH1 0x24 ADD PUSH1 0x20 PUSH1 0x40 MLOAD DUP1 DUP4 SUB DUP2 DUP7 GAS STATICCALL ISZERO DUP1 ISZERO PUSH2 0x1059 JUMPI RETURNDATASIZE PUSH0 PUSH0 RETURNDATACOPY RETURNDATASIZE PUSH0 REVERT JUMPDEST POP POP POP POP PUSH1 0x40 MLOAD RETURNDATASIZE PUSH1 0x1F NOT PUSH1 0x1F DUP3 ADD AND DUP3 ADD DUP1 PUSH1 0x40 MSTORE POP DUP2 ADD SWAP1 PUSH2 0x107D SWAP2 SWAP1 PUSH2 0x4B74 JUMP JUMPDEST PUSH1 0x2 DUP2 GT ISZERO PUSH2 0x108E JUMPI PUSH2 0x108E PUSH2 0x40B6 JUMP JUMPDEST EQ DUP1 PUSH2 0x1113 JUMPI POP PUSH1 0x1 DUP1 SLOAD PUSH1 0x40 MLOAD PUSH4 0x4C9BA321 PUSH1 0xE1 SHL DUP2 MSTORE CALLER PUSH1 0x4 DUP3 ADD MSTORE PUSH1 0x1 PUSH1 0x1 PUSH1 0xA0 SHL SUB SWAP1 SWAP2 AND SWAP1 PUSH4 0x99374642 SWAP1 PUSH1 0x24 ADD PUSH1 0x20 PUSH1 0x40 MLOAD DUP1 DUP4 SUB DUP2 DUP7 GAS STATICCALL ISZERO DUP1 ISZERO PUSH2 0x10DC JUMPI RETURNDATASIZE PUSH0 PUSH0 RETURNDATACOPY RETURNDATASIZE PUSH0 REVERT JUMPDEST POP POP POP POP PUSH1 0x40 MLOAD RETURNDATASIZE PUSH1 0x1F NOT PUSH1 0x1F DUP3 ADD AND DUP3 ADD DUP1 PUSH1 0x40 MSTORE POP DUP2 ADD SWAP1 PUSH2 0x1100 SWAP2 SWAP1 PUSH2 0x4B74 JUMP JUMPDEST PUSH1 0x2 DUP2 GT ISZERO PUSH2 0x1111 JUMPI PUSH2 0x1111 PUSH2 0x40B6 JUMP JUMPDEST EQ JUMPDEST PUSH2 0x116B JUMPI PUSH1 0x40 MLOAD PUSH3 0x461BCD PUSH1 0xE5 SHL DUP2 MSTORE PUSH1 0x20 PUSH1 0x4 DUP3 ADD MSTORE PUSH1 0x24 DUP1 DUP3 ADD MSTORE PUSH32 0x556E617574686F72697A65643A205374616666206F7220437573746F6D657220 PUSH1 0x44 DUP3 ADD MSTORE PUSH4 0x6F6E6C79 PUSH1 0xE0 SHL PUSH1 0x64 DUP3 ADD MSTORE PUSH1 0x84 ADD PUSH2 0x54C JUMP JUMPDEST PUSH1 0x1 DUP3 PUSH1 0xFF AND LT ISZERO DUP1 ISZERO PUSH2 0x1183 JUMPI POP PUSH1 0x5 DUP3 PUSH1 0xFF AND GT ISZERO JUMPDEST PUSH2 0x11CF JUMPI PUSH1 0x40 MLOAD PUSH3 0x461BCD PUSH1 0xE5 SHL DUP2 MSTORE PUSH1 0x20 PUSH1 0x4 DUP3 ADD MSTORE PUSH1 0x1E PUSH1 0x24 DUP3 ADD MSTORE PUSH32 0x526174696E67206D757374206265206265747765656E203120616E6420350000 PUSH1 0x44 DUP3 ADD MSTORE PUSH1 0x64 ADD PUSH2 0x54C JUMP JUMPDEST PUSH1 0x1 SLOAD PUSH1 0x40 MLOAD PUSH4 0xABCA88F PUSH1 0xE4 SHL DUP2 MSTORE PUSH1 0x1 PUSH1 0x1 PUSH1 0x80 SHL SUB DUP6 AND PUSH1 0x4 DUP3 ADD MSTORE PUSH0 SWAP2 PUSH1 0x1 PUSH1 0x1 PUSH1 0xA0 SHL SUB AND SWAP1 PUSH4 0xABCA88F0 SWAP1 PUSH1 0x24 ADD PUSH1 0x20 PUSH1 0x40 MLOAD DUP1 DUP4 SUB DUP2 DUP7 GAS STATICCALL ISZERO DUP1 ISZERO PUSH2 0x121E JUMPI RETURNDATASIZE PUSH0 PUSH0 RETURNDATACOPY RETURNDATASIZE PUSH0 REVERT JUMPDEST POP POP POP POP PUSH1 0x40 MLOAD RETURNDATASIZE PUSH1 0x1F NOT PUSH1 0x1F DUP3 ADD AND DUP3 ADD DUP1 PUSH1 0x40 MSTORE POP DUP2 ADD SWAP1 PUSH2 0x1242 SWAP2 SWAP1 PUSH2 0x47F9 JUMP JUMPDEST PUSH1 0x1 PUSH1 0x1 PUSH1 0xA0 SHL SUB AND SUB PUSH2 0x1268 JUMPI PUSH1 0x40 MLOAD PUSH3 0x461BCD PUSH1 0xE5 SHL DUP2 MSTORE PUSH1 0x4 ADD PUSH2 0x54C SWAP1 PUSH2 0x4814 JUMP JUMPDEST PUSH1 0x1 DUP1 SLOAD PUSH1 0x40 MLOAD PUSH4 0x4C9BA321 PUSH1 0xE1 SHL DUP2 MSTORE PUSH1 0x1 PUSH1 0x1 PUSH1 0xA0 SHL SUB DUP8 DUP2 AND PUSH1 0x4 DUP4 ADD MSTORE SWAP1 SWAP2 AND SWAP1 PUSH4 0x99374642 SWAP1 PUSH1 0x24 ADD PUSH1 0x20 PUSH1 0x40 MLOAD DUP1 DUP4 SUB DUP2 DUP7 GAS STATICCALL ISZERO DUP1 ISZERO PUSH2 0x12B1 JUMPI RETURNDATASIZE PUSH0 PUSH0 RETURNDATACOPY RETURNDATASIZE PUSH0 REVERT JUMPDEST POP POP POP POP PUSH1 0x40 MLOAD RETURNDATASIZE PUSH1 0x1F NOT PUSH1 0x1F DUP3 ADD AND DUP3 ADD DUP1 PUSH1 0x40 MSTORE POP DUP2 ADD SWAP1 PUSH2 0x12D5 SWAP2 SWAP1 PUSH2 0x4B74 JUMP JUMPDEST PUSH1 0x2 DUP2 GT ISZERO PUSH2 0x12E6 JUMPI PUSH2 0x12E6 PUSH2 0x40B6 JUMP JUMPDEST EQ DUP1 ISZERO PUSH2 0x136E JUMPI POP PUSH1 0x1 SLOAD PUSH1 0x40 MLOAD PUSH4 0x1C51AF43 PUSH1 0xE3 SHL DUP2 MSTORE PUSH1 0x1 PUSH1 0x1 PUSH1 0xA0 SHL SUB DUP7 DUP2 AND PUSH1 0x4 DUP4 ADD MSTORE PUSH1 0x1 PUSH1 0x1 PUSH1 0x80 SHL SUB DUP7 AND SWAP3 AND SWAP1 PUSH4 0xE28D7A18 SWAP1 PUSH1 0x24 ADD PUSH1 0x20 PUSH1 0x40 MLOAD DUP1 DUP4 SUB DUP2 DUP7 GAS STATICCALL ISZERO DUP1 ISZERO PUSH2 0x133F JUMPI RETURNDATASIZE PUSH0 PUSH0 RETURNDATACOPY RETURNDATASIZE PUSH0 REVERT JUMPDEST POP POP POP POP PUSH1 0x40 MLOAD RETURNDATASIZE PUSH1 0x1F NOT PUSH1 0x1F DUP3 ADD AND DUP3 ADD DUP1 PUSH1 0x40 MSTORE POP DUP2 ADD SWAP1 PUSH2 0x1363 SWAP2 SWAP1 PUSH2 0x4C28 JUMP JUMPDEST PUSH1 0x1 PUSH1 0x1 PUSH1 0x80 SHL SUB AND EQ JUMPDEST PUSH2 0x13AD JUMPI PUSH1 0x40 MLOAD PUSH3 0x461BCD PUSH1 0xE5 SHL DUP2 MSTORE PUSH1 0x20 PUSH1 0x4 DUP3 ADD MSTORE PUSH1 0x10 PUSH1 0x24 DUP3 ADD MSTORE PUSH16 0x496E76616C696420656D706C6F796565 PUSH1 0x80 SHL PUSH1 0x44 DUP3 ADD MSTORE PUSH1 0x64 ADD PUSH2 0x54C JUMP JUMPDEST PUSH1 0x40 DUP1 MLOAD PUSH1 0xC0 DUP2 ADD DUP3 MSTORE CALLER DUP2 MSTORE PUSH1 0x1 PUSH1 0x1 PUSH1 0xA0 SHL SUB DUP7 DUP2 AND PUSH1 0x20 DUP1 DUP5 ADD DUP3 DUP2 MSTORE PUSH1 0x1 PUSH1 0x1 PUSH1 0x80 SHL SUB DUP1 DUP11 AND DUP7 DUP9 ADD SWAP1 DUP2 MSTORE PUSH1 0xFF DUP1 DUP12 AND PUSH1 0x60 DUP10 ADD SWAP1 DUP2 MSTORE PUSH1 0x80 DUP10 ADD DUP12 DUP2 MSTORE TIMESTAMP DUP6 AND PUSH1 0xA0 DUP12 ADD MSTORE PUSH0 SWAP8 DUP9 MSTORE PUSH1 0x9 DUP8 MSTORE SWAP10 DUP8 KECCAK256 DUP1 SLOAD PUSH1 0x1 DUP2 DUP2 ADD DUP4 SSTORE SWAP2 DUP10 MSTORE SWAP7 SWAP1 SWAP8 KECCAK256 DUP10 MLOAD PUSH1 0x5 SWAP1 SWAP8 MUL ADD DUP1 SLOAD SWAP7 DUP10 AND PUSH1 0x1 PUSH1 0x1 PUSH1 0xA0 SHL SUB NOT SWAP8 DUP9 AND OR DUP2 SSTORE SWAP5 MLOAD SWAP7 DUP6 ADD DUP1 SLOAD SWAP8 SWAP1 SWAP9 AND SWAP7 SWAP1 SWAP6 AND SWAP6 SWAP1 SWAP6 OR SWAP1 SWAP6 SSTORE SWAP4 MLOAD PUSH1 0x2 DUP3 ADD DUP1 SLOAD SWAP4 MLOAD SWAP1 SWAP5 AND PUSH1 0x1 PUSH1 0x80 SHL MUL PUSH1 0x1 PUSH1 0x1 PUSH1 0x88 SHL SUB NOT SWAP1 SWAP4 AND SWAP5 AND SWAP4 SWAP1 SWAP4 OR OR SWAP1 SSTORE SWAP2 MLOAD SWAP1 SWAP2 DUP3 SWAP2 PUSH1 0x3 DUP3 ADD SWAP1 PUSH2 0x1483 SWAP1 DUP3 PUSH2 0x4C8E JUMP JUMPDEST POP PUSH1 0xA0 SWAP2 SWAP1 SWAP2 ADD MLOAD PUSH1 0x4 SWAP1 SWAP2 ADD DUP1 SLOAD PUSH1 0x1 PUSH1 0x1 PUSH1 0x80 SHL SUB NOT AND PUSH1 0x1 PUSH1 0x1 PUSH1 0x80 SHL SUB SWAP1 SWAP3 AND SWAP2 SWAP1 SWAP2 OR SWAP1 SSTORE PUSH1 0x40 MLOAD CALLER SWAP1 PUSH1 0x1 PUSH1 0x1 PUSH1 0xA0 SHL SUB DUP8 AND SWAP1 PUSH32 0x1711E3E66EFA00ED25F58FFE8E0D8B7C1B29C2CBEA7D708710A5A467EF74D21F SWAP1 PUSH2 0x14EE SWAP1 DUP9 SWAP1 DUP9 SWAP1 DUP9 SWAP1 PUSH2 0x4D48 JUMP JUMPDEST PUSH1 0x40 MLOAD DUP1 SWAP2 SUB SWAP1 LOG3 POP POP POP POP POP JUMP JUMPDEST PUSH1 0x1 SLOAD PUSH1 0x40 MLOAD PUSH4 0x4C9BA321 PUSH1 0xE1 SHL DUP2 MSTORE CALLER PUSH1 0x4 DUP3 ADD MSTORE PUSH1 0x2 SWAP2 PUSH1 0x1 PUSH1 0x1 PUSH1 0xA0 SHL SUB AND SWAP1 PUSH4 0x99374642 SWAP1 PUSH1 0x24 ADD PUSH1 0x20 PUSH1 0x40 MLOAD DUP1 DUP4 SUB DUP2 DUP7 GAS STATICCALL ISZERO DUP1 ISZERO PUSH2 0x1544 JUMPI RETURNDATASIZE PUSH0 PUSH0 RETURNDATACOPY RETURNDATASIZE PUSH0 REVERT JUMPDEST POP POP POP POP PUSH1 0x40 MLOAD RETURNDATASIZE PUSH1 0x1F NOT PUSH1 0x1F DUP3 ADD AND DUP3 ADD DUP1 PUSH1 0x40 MSTORE POP DUP2 ADD SWAP1 PUSH2 0x1568 SWAP2 SWAP1 PUSH2 0x4B74 JUMP JUMPDEST PUSH1 0x2 DUP2 GT ISZERO PUSH2 0x1579 JUMPI PUSH2 0x1579 PUSH2 0x40B6 JUMP JUMPDEST EQ DUP1 PUSH2 0x15FD JUMPI POP PUSH1 0x1 SLOAD PUSH1 0x40 MLOAD PUSH4 0x4C9BA321 PUSH1 0xE1 SHL DUP2 MSTORE CALLER PUSH1 0x4 DUP3 ADD MSTORE PUSH0 SWAP2 PUSH1 0x1 PUSH1 0x1 PUSH1 0xA0 SHL SUB AND SWAP1 PUSH4 0x99374642 SWAP1 PUSH1 0x24 ADD PUSH1 0x20 PUSH1 0x40 MLOAD DUP1 DUP4 SUB DUP2 DUP7 GAS STATICCALL ISZERO DUP1 ISZERO PUSH2 0x15C6 JUMPI RETURNDATASIZE PUSH0 PUSH0 RETURNDATACOPY RETURNDATASIZE PUSH0 REVERT JUMPDEST POP POP POP POP PUSH1 0x40 MLOAD RETURNDATASIZE PUSH1 0x1F NOT PUSH1 0x1F DUP3 ADD AND DUP3 ADD DUP1 PUSH1 0x40 MSTORE POP DUP2 ADD SWAP1 PUSH2 0x15EA SWAP2 SWAP1 PUSH2 0x4B74 JUMP JUMPDEST PUSH1 0x2 DUP2 GT ISZERO PUSH2 0x15FB JUMPI PUSH2 0x15FB PUSH2 0x40B6 JUMP JUMPDEST EQ JUMPDEST PUSH2 0x1619 JUMPI PUSH1 0x40 MLOAD PUSH3 0x461BCD PUSH1 0xE5 SHL DUP2 MSTORE PUSH1 0x4 ADD PUSH2 0x54C SWAP1 PUSH2 0x4BB1 JUMP JUMPDEST PUSH1 0x1 DUP3 PUSH1 0xFF AND LT ISZERO DUP1 ISZERO PUSH2 0x1631 JUMPI POP PUSH1 0x5 DUP3 PUSH1 0xFF AND GT ISZERO JUMPDEST PUSH2 0x167D JUMPI PUSH1 0x40 MLOAD PUSH3 0x461BCD PUSH1 0xE5 SHL DUP2 MSTORE PUSH1 0x20 PUSH1 0x4 DUP3 ADD MSTORE PUSH1 0x1E PUSH1 0x24 DUP3 ADD MSTORE PUSH32 0x526174696E67206D757374206265206265747765656E203120616E6420350000 PUSH1 0x44 DUP3 ADD MSTORE PUSH1 0x64 ADD PUSH2 0x54C JUMP JUMPDEST PUSH1 0x1 SLOAD PUSH1 0x40 MLOAD PUSH4 0xABCA88F PUSH1 0xE4 SHL DUP2 MSTORE PUSH1 0x1 PUSH1 0x1 PUSH1 0x80 SHL SUB DUP6 AND PUSH1 0x4 DUP3 ADD MSTORE PUSH0 SWAP2 PUSH1 0x1 PUSH1 0x1 PUSH1 0xA0 SHL SUB AND SWAP1 PUSH4 0xABCA88F0 SWAP1 PUSH1 0x24 ADD PUSH1 0x20 PUSH1 0x40 MLOAD DUP1 DUP4 SUB DUP2 DUP7 GAS STATICCALL ISZERO DUP1 ISZERO PUSH2 0x16CC JUMPI RETURNDATASIZE PUSH0 PUSH0 RETURNDATACOPY RETURNDATASIZE PUSH0 REVERT JUMPDEST POP POP POP POP PUSH1 0x40 MLOAD RETURNDATASIZE PUSH1 0x1F NOT PUSH1 0x1F DUP3 ADD AND DUP3 ADD DUP1 PUSH1 0x40 MSTORE POP DUP2 ADD SWAP1 PUSH2 0x16F0 SWAP2 SWAP1 PUSH2 0x47F9 JUMP JUMPDEST PUSH1 0x1 PUSH1 0x1 PUSH1 0xA0 SHL SUB AND SUB PUSH2 0x1716 JUMPI PUSH1 0x40 MLOAD PUSH3 0x461BCD PUSH1 0xE5 SHL DUP2 MSTORE PUSH1 0x4 ADD PUSH2 0x54C SWAP1 PUSH2 0x4814 JUMP JUMPDEST PUSH1 0x40 DUP1 MLOAD PUSH1 0xA0 DUP2 ADD DUP3 MSTORE CALLER DUP2 MSTORE PUSH1 0x1 PUSH1 0x1 PUSH1 0x80 SHL SUB DUP1 DUP7 AND PUSH1 0x20 DUP1 DUP5 ADD DUP3 DUP2 MSTORE PUSH1 0xFF DUP1 DUP10 AND DUP7 DUP9 ADD SWAP1 DUP2 MSTORE PUSH1 0x60 DUP8 ADD DUP10 DUP2 MSTORE TIMESTAMP DUP8 AND PUSH1 0x80 DUP10 ADD MSTORE PUSH0 SWAP6 DUP7 MSTORE PUSH1 0xA DUP6 MSTORE SWAP8 DUP6 KECCAK256 DUP1 SLOAD PUSH1 0x1 DUP2 DUP2 ADD DUP4 SSTORE SWAP2 DUP8 MSTORE SWAP5 SWAP1 SWAP6 KECCAK256 DUP8 MLOAD PUSH1 0x4 SWAP1 SWAP6 MUL ADD DUP1 SLOAD PUSH1 0x1 PUSH1 0x1 PUSH1 0xA0 SHL SUB SWAP6 SWAP1 SWAP6 AND PUSH1 0x1 PUSH1 0x1 PUSH1 0xA0 SHL SUB NOT SWAP1 SWAP6 AND SWAP5 SWAP1 SWAP5 OR DUP5 SSTORE SWAP2 MLOAD SWAP4 DUP4 ADD DUP1 SLOAD SWAP3 MLOAD SWAP1 SWAP2 AND PUSH1 0x1 PUSH1 0x80 SHL MUL PUSH1 0x1 PUSH1 0x1 PUSH1 0x88 SHL SUB NOT SWAP1 SWAP3 AND SWAP4 SWAP1 SWAP5 AND SWAP3 SWAP1 SWAP3 OR SWAP2 SWAP1 SWAP2 OR SWAP1 SWAP2 SSTORE SWAP2 MLOAD SWAP1 SWAP2 DUP3 SWAP2 PUSH1 0x2 DUP3 ADD SWAP1 PUSH2 0x17D5 SWAP1 DUP3 PUSH2 0x4C8E JUMP JUMPDEST POP PUSH1 0x80 SWAP2 SWAP1 SWAP2 ADD MLOAD PUSH1 0x3 SWAP1 SWAP2 ADD DUP1 SLOAD PUSH1 0x1 PUSH1 0x1 PUSH1 0x80 SHL SUB NOT AND PUSH1 0x1 PUSH1 0x1 PUSH1 0x80 SHL SUB SWAP3 DUP4 AND OR SWAP1 SSTORE PUSH1 0x40 MLOAD CALLER SWAP2 DUP7 AND SWAP1 PUSH32 0x8DA348B329EC9CB5F933F377DB6D8D5E57E2D8C1F3BA6F02CA2B1F147120DA6A SWAP1 PUSH2 0x1833 SWAP1 DUP8 SWAP1 DUP8 SWAP1 PUSH2 0x4D72 JUMP JUMPDEST PUSH1 0x40 MLOAD DUP1 SWAP2 SUB SWAP1 LOG3 POP POP POP POP JUMP JUMPDEST PUSH1 0x7 PUSH1 0x20 MSTORE DUP2 PUSH0 MSTORE PUSH1 0x40 PUSH0 KECCAK256 DUP2 DUP2 SLOAD DUP2 LT PUSH2 0x185A JUMPI PUSH0 DUP1 REVERT JUMPDEST PUSH0 SWAP2 DUP3 MSTORE PUSH1 0x20 SWAP1 SWAP2 KECCAK256 PUSH1 0x3 SWAP1 SWAP2 MUL ADD DUP1 SLOAD PUSH1 0x1 DUP3 ADD SLOAD PUSH1 0x2 DUP4 ADD DUP1 SLOAD PUSH1 0x1 PUSH1 0x1 PUSH1 0x80 SHL SUB DUP1 DUP6 AND SWAP8 POP PUSH1 0x1 PUSH1 0x80 SHL SWAP1 SWAP5 DIV DUP5 AND SWAP6 POP SWAP3 SWAP1 SWAP2 AND SWAP3 SWAP2 PUSH2 0x189E SWAP1 PUSH2 0x4B3C JUMP JUMPDEST DUP1 PUSH1 0x1F ADD PUSH1 0x20 DUP1 SWAP2 DIV MUL PUSH1 0x20 ADD PUSH1 0x40 MLOAD SWAP1 DUP2 ADD PUSH1 0x40 MSTORE DUP1 SWAP3 SWAP2 SWAP1 DUP2 DUP2 MSTORE PUSH1 0x20 ADD DUP3 DUP1 SLOAD PUSH2 0x18CA SWAP1 PUSH2 0x4B3C JUMP JUMPDEST DUP1 ISZERO PUSH2 0x1915 JUMPI DUP1 PUSH1 0x1F LT PUSH2 0x18EC JUMPI PUSH2 0x100 DUP1 DUP4 SLOAD DIV MUL DUP4 MSTORE SWAP2 PUSH1 0x20 ADD SWAP2 PUSH2 0x1915 JUMP JUMPDEST DUP3 ADD SWAP2 SWAP1 PUSH0 MSTORE PUSH1 0x20 PUSH0 KECCAK256 SWAP1 JUMPDEST DUP2 SLOAD DUP2 MSTORE SWAP1 PUSH1 0x1 ADD SWAP1 PUSH1 0x20 ADD DUP1 DUP4 GT PUSH2 0x18F8 JUMPI DUP3 SWAP1 SUB PUSH1 0x1F AND DUP3 ADD SWAP2 JUMPDEST POP POP POP POP POP SWAP1 POP DUP5 JUMP JUMPDEST PUSH2 0x1927 PUSH2 0x3CE9 JUMP JUMPDEST PUSH1 0x60 DUP1 DUP4 PUSH0 DUP2 PUSH1 0x1 PUSH1 0x1 PUSH1 0x80 SHL SUB AND GT DUP1 ISZERO PUSH2 0x1951 JUMPI POP PUSH1 0x3 SLOAD PUSH1 0x1 PUSH1 0x1 PUSH1 0x80 SHL SUB SWAP1 DUP2 AND SWAP1 DUP3 AND LT JUMPDEST PUSH2 0x196D JUMPI PUSH1 0x40 MLOAD PUSH3 0x461BCD PUSH1 0xE5 SHL DUP2 MSTORE PUSH1 0x4 ADD PUSH2 0x54C SWAP1 PUSH2 0x4BE1 JUMP JUMPDEST PUSH1 0x1 PUSH1 0x1 PUSH1 0x80 SHL SUB DUP1 DUP7 AND PUSH0 SWAP1 DUP2 MSTORE PUSH1 0x4 PUSH1 0x20 SWAP1 DUP2 MSTORE PUSH1 0x40 SWAP2 DUP3 SWAP1 KECCAK256 DUP3 MLOAD PUSH2 0x100 DUP2 ADD DUP5 MSTORE DUP2 SLOAD DUP6 AND DUP2 MSTORE PUSH1 0x1 DUP3 ADD SLOAD PUSH1 0x1 PUSH1 0x1 PUSH1 0xA0 SHL SUB AND DUP2 DUP5 ADD MSTORE PUSH1 0x2 DUP3 ADD SLOAD SWAP1 SWAP5 AND DUP5 DUP5 ADD MSTORE PUSH1 0x3 DUP2 ADD DUP1 SLOAD DUP5 MLOAD DUP2 DUP6 MUL DUP2 ADD DUP6 ADD SWAP1 SWAP6 MSTORE DUP1 DUP6 MSTORE SWAP2 SWAP4 PUSH1 0x60 DUP7 ADD SWAP4 SWAP1 SWAP3 SWAP1 DUP4 ADD DUP3 DUP3 DUP1 ISZERO PUSH2 0x1A33 JUMPI PUSH1 0x20 MUL DUP3 ADD SWAP2 SWAP1 PUSH0 MSTORE PUSH1 0x20 PUSH0 KECCAK256 SWAP1 PUSH0 SWAP1 JUMPDEST DUP3 DUP3 SWAP1 SLOAD SWAP1 PUSH2 0x100 EXP SWAP1 DIV PUSH1 0x1 PUSH1 0x1 PUSH1 0x80 SHL SUB AND PUSH1 0x1 PUSH1 0x1 PUSH1 0x80 SHL SUB AND DUP2 MSTORE PUSH1 0x20 ADD SWAP1 PUSH1 0x10 ADD SWAP1 PUSH1 0x20 DUP3 PUSH1 0xF ADD DIV SWAP3 DUP4 ADD SWAP3 PUSH1 0x1 SUB DUP3 MUL SWAP2 POP DUP1 DUP5 GT PUSH2 0x19F0 JUMPI SWAP1 POP JUMPDEST POP POP POP POP POP DUP2 MSTORE PUSH1 0x20 ADD PUSH1 0x4 DUP3 ADD DUP1 SLOAD DUP1 PUSH1 0x20 MUL PUSH1 0x20 ADD PUSH1 0x40 MLOAD SWAP1 DUP2 ADD PUSH1 0x40 MSTORE DUP1 SWAP3 SWAP2 SWAP1 DUP2 DUP2 MSTORE PUSH1 0x20 ADD DUP3 DUP1 SLOAD DUP1 ISZERO PUSH2 0x1ABA JUMPI PUSH1 0x20 MUL DUP3 ADD SWAP2 SWAP1 PUSH0 MSTORE PUSH1 0x20 PUSH0 KECCAK256 SWAP1 PUSH0 SWAP1 JUMPDEST DUP3 DUP3 SWAP1 SLOAD SWAP1 PUSH2 0x100 EXP SWAP1 DIV PUSH1 0x1 PUSH1 0x1 PUSH1 0x80 SHL SUB AND PUSH1 0x1 PUSH1 0x1 PUSH1 0x80 SHL SUB AND DUP2 MSTORE PUSH1 0x20 ADD SWAP1 PUSH1 0x10 ADD SWAP1 PUSH1 0x20 DUP3 PUSH1 0xF ADD DIV SWAP3 DUP4 ADD SWAP3 PUSH1 0x1 SUB DUP3 MUL SWAP2 POP DUP1 DUP5 GT PUSH2 0x1A77 JUMPI SWAP1 POP JUMPDEST POP POP POP SWAP2 DUP4 MSTORE POP POP PUSH1 0x5 DUP3 DUP2 ADD SLOAD PUSH1 0x1 PUSH1 0x1 PUSH1 0x80 SHL SUB DUP2 AND PUSH1 0x20 DUP5 ADD MSTORE PUSH1 0x40 SWAP1 SWAP3 ADD SWAP2 PUSH1 0x1 PUSH1 0x80 SHL SWAP1 DIV PUSH1 0xFF AND SWAP1 DUP2 GT ISZERO PUSH2 0x1AF7 JUMPI PUSH2 0x1AF7 PUSH2 0x40B6 JUMP JUMPDEST PUSH1 0x5 DUP2 GT ISZERO PUSH2 0x1B08 JUMPI PUSH2 0x1B08 PUSH2 0x40B6 JUMP JUMPDEST DUP2 MSTORE PUSH1 0x6 SWAP2 SWAP1 SWAP2 ADD SLOAD PUSH1 0x1 PUSH1 0x1 PUSH1 0x80 SHL SUB SWAP1 DUP2 AND PUSH1 0x20 SWAP3 DUP4 ADD MSTORE DUP8 AND PUSH0 SWAP1 DUP2 MSTORE PUSH1 0x7 DUP3 MSTORE PUSH1 0x40 DUP1 DUP3 KECCAK256 DUP1 SLOAD DUP3 MLOAD DUP2 DUP7 MUL DUP2 ADD DUP7 ADD SWAP1 SWAP4 MSTORE DUP1 DUP4 MSTORE SWAP5 SWAP9 POP SWAP2 SWAP4 SWAP1 SWAP3 DUP5 SWAP1 DUP5 ADD JUMPDEST DUP3 DUP3 LT ISZERO PUSH2 0x1C44 JUMPI PUSH0 DUP5 DUP2 MSTORE PUSH1 0x20 SWAP1 DUP2 SWAP1 KECCAK256 PUSH1 0x40 DUP1 MLOAD PUSH1 0x80 DUP2 ADD DUP3 MSTORE PUSH1 0x3 DUP7 MUL SWAP1 SWAP3 ADD DUP1 SLOAD PUSH1 0x1 PUSH1 0x1 PUSH1 0x80 SHL SUB DUP1 DUP3 AND DUP6 MSTORE PUSH1 0x1 PUSH1 0x80 SHL SWAP1 SWAP2 DIV DUP2 AND SWAP5 DUP5 ADD SWAP5 SWAP1 SWAP5 MSTORE PUSH1 0x1 DUP2 ADD SLOAD SWAP1 SWAP4 AND SWAP1 DUP3 ADD MSTORE PUSH1 0x2 DUP3 ADD DUP1 SLOAD SWAP2 SWAP3 SWAP2 PUSH1 0x60 DUP5 ADD SWAP2 SWAP1 PUSH2 0x1BB5 SWAP1 PUSH2 0x4B3C JUMP JUMPDEST DUP1 PUSH1 0x1F ADD PUSH1 0x20 DUP1 SWAP2 DIV MUL PUSH1 0x20 ADD PUSH1 0x40 MLOAD SWAP1 DUP2 ADD PUSH1 0x40 MSTORE DUP1 SWAP3 SWAP2 SWAP1 DUP2 DUP2 MSTORE PUSH1 0x20 ADD DUP3 DUP1 SLOAD PUSH2 0x1BE1 SWAP1 PUSH2 0x4B3C JUMP JUMPDEST DUP1 ISZERO PUSH2 0x1C2C JUMPI DUP1 PUSH1 0x1F LT PUSH2 0x1C03 JUMPI PUSH2 0x100 DUP1 DUP4 SLOAD DIV MUL DUP4 MSTORE SWAP2 PUSH1 0x20 ADD SWAP2 PUSH2 0x1C2C JUMP JUMPDEST DUP3 ADD SWAP2 SWAP1 PUSH0 MSTORE PUSH1 0x20 PUSH0 KECCAK256 SWAP1 JUMPDEST DUP2 SLOAD DUP2 MSTORE SWAP1 PUSH1 0x1 ADD SWAP1 PUSH1 0x20 ADD DUP1 DUP4 GT PUSH2 0x1C0F JUMPI DUP3 SWAP1 SUB PUSH1 0x1F AND DUP3 ADD SWAP2 JUMPDEST POP POP POP POP POP DUP2 MSTORE POP POP DUP2 MSTORE PUSH1 0x20 ADD SWAP1 PUSH1 0x1 ADD SWAP1 PUSH2 0x1B4E JUMP JUMPDEST POP POP POP POP SWAP1 POP DUP1 MLOAD PUSH1 0x1 PUSH1 0x1 PUSH1 0x40 SHL SUB DUP2 GT ISZERO PUSH2 0x1C63 JUMPI PUSH2 0x1C63 PUSH2 0x3E08 JUMP JUMPDEST PUSH1 0x40 MLOAD SWAP1 DUP1 DUP3 MSTORE DUP1 PUSH1 0x20 MUL PUSH1 0x20 ADD DUP3 ADD PUSH1 0x40 MSTORE DUP1 ISZERO PUSH2 0x1D1A JUMPI DUP2 PUSH1 0x20 ADD JUMPDEST PUSH2 0x1D07 PUSH1 0x40 MLOAD DUP1 PUSH2 0x160 ADD PUSH1 0x40 MSTORE DUP1 PUSH0 PUSH1 0x1 PUSH1 0x1 PUSH1 0x80 SHL SUB AND DUP2 MSTORE PUSH1 0x20 ADD PUSH0 PUSH1 0x1 PUSH1 0x1 PUSH1 0x80 SHL SUB AND DUP2 MSTORE PUSH1 0x20 ADD PUSH1 0x60 DUP2 MSTORE PUSH1 0x20 ADD PUSH1 0x60 DUP2 MSTORE PUSH1 0x20 ADD PUSH1 0x60 DUP2 MSTORE PUSH1 0x20 ADD PUSH0 PUSH1 0x1 PUSH1 0x1 PUSH1 0x80 SHL SUB AND DUP2 MSTORE PUSH1 0x20 ADD PUSH0 ISZERO ISZERO DUP2 MSTORE PUSH1 0x20 ADD PUSH1 0x60 DUP2 MSTORE PUSH1 0x20 ADD PUSH1 0x60 DUP2 MSTORE PUSH1 0x20 ADD PUSH0 PUSH1 0x1 PUSH1 0x1 PUSH1 0x80 SHL SUB AND DUP2 MSTORE PUSH1 0x20 ADD PUSH0 PUSH1 0x1 PUSH1 0x1 PUSH1 0x80 SHL SUB AND DUP2 MSTORE POP SWAP1 JUMP JUMPDEST DUP2 MSTORE PUSH1 0x20 ADD SWAP1 PUSH1 0x1 SWAP1 SUB SWAP1 DUP2 PUSH2 0x1C81 JUMPI SWAP1 POP JUMPDEST POP SWAP4 POP DUP1 MLOAD PUSH1 0x1 PUSH1 0x1 PUSH1 0x40 SHL SUB DUP2 GT ISZERO PUSH2 0x1D36 JUMPI PUSH2 0x1D36 PUSH2 0x3E08 JUMP JUMPDEST PUSH1 0x40 MLOAD SWAP1 DUP1 DUP3 MSTORE DUP1 PUSH1 0x20 MUL PUSH1 0x20 ADD DUP3 ADD PUSH1 0x40 MSTORE DUP1 ISZERO PUSH2 0x1D5F JUMPI DUP2 PUSH1 0x20 ADD PUSH1 0x20 DUP3 MUL DUP1 CALLDATASIZE DUP4 CALLDATACOPY ADD SWAP1 POP JUMPDEST POP SWAP3 POP PUSH0 JUMPDEST DUP2 MLOAD DUP2 LT ISZERO PUSH2 0x1E84 JUMPI PUSH1 0x2 SLOAD PUSH1 0x40 DUP8 ADD MLOAD DUP4 MLOAD PUSH1 0x1 PUSH1 0x1 PUSH1 0xA0 SHL SUB SWAP1 SWAP3 AND SWAP2 PUSH4 0xC528968 SWAP2 SWAP1 DUP6 SWAP1 DUP6 SWAP1 DUP2 LT PUSH2 0x1D9C JUMPI PUSH2 0x1D9C PUSH2 0x484B JUMP JUMPDEST PUSH1 0x20 SWAP1 DUP2 MUL SWAP2 SWAP1 SWAP2 ADD ADD MLOAD MLOAD PUSH1 0x40 MLOAD PUSH1 0x1 PUSH1 0x1 PUSH1 0xE0 SHL SUB NOT PUSH1 0xE0 DUP6 SWAP1 SHL AND DUP2 MSTORE PUSH1 0x1 PUSH1 0x1 PUSH1 0x80 SHL SUB SWAP3 DUP4 AND PUSH1 0x4 DUP3 ADD MSTORE SWAP2 AND PUSH1 0x24 DUP3 ADD MSTORE PUSH1 0x44 ADD PUSH0 PUSH1 0x40 MLOAD DUP1 DUP4 SUB DUP2 DUP7 GAS STATICCALL ISZERO DUP1 ISZERO PUSH2 0x1DF0 JUMPI RETURNDATASIZE PUSH0 PUSH0 RETURNDATACOPY RETURNDATASIZE PUSH0 REVERT JUMPDEST POP POP POP POP PUSH1 0x40 MLOAD RETURNDATASIZE PUSH0 DUP3 RETURNDATACOPY PUSH1 0x1F RETURNDATASIZE SWAP1 DUP2 ADD PUSH1 0x1F NOT AND DUP3 ADD PUSH1 0x40 MSTORE PUSH2 0x1E17 SWAP2 SWAP1 DUP2 ADD SWAP1 PUSH2 0x48CB JUMP JUMPDEST DUP6 DUP3 DUP2 MLOAD DUP2 LT PUSH2 0x1E29 JUMPI PUSH2 0x1E29 PUSH2 0x484B JUMP JUMPDEST PUSH1 0x20 MUL PUSH1 0x20 ADD ADD DUP2 SWAP1 MSTORE POP DUP2 DUP2 DUP2 MLOAD DUP2 LT PUSH2 0x1E46 JUMPI PUSH2 0x1E46 PUSH2 0x484B JUMP JUMPDEST PUSH1 0x20 MUL PUSH1 0x20 ADD ADD MLOAD PUSH1 0x20 ADD MLOAD DUP5 DUP3 DUP2 MLOAD DUP2 LT PUSH2 0x1E64 JUMPI PUSH2 0x1E64 PUSH2 0x484B JUMP JUMPDEST PUSH1 0x1 PUSH1 0x1 PUSH1 0x80 SHL SUB SWAP1 SWAP3 AND PUSH1 0x20 SWAP3 DUP4 MUL SWAP2 SWAP1 SWAP2 ADD SWAP1 SWAP2 ADD MSTORE PUSH1 0x1 ADD PUSH2 0x1D64 JUMP JUMPDEST POP POP POP SWAP2 SWAP4 SWAP1 SWAP3 POP JUMP JUMPDEST PUSH1 0x1 SLOAD PUSH1 0x40 MLOAD PUSH4 0xABCA88F PUSH1 0xE4 SHL DUP2 MSTORE PUSH1 0x1 PUSH1 0x1 PUSH1 0x80 SHL SUB DUP4 AND PUSH1 0x4 DUP3 ADD MSTORE PUSH1 0x60 SWAP2 PUSH0 SWAP2 PUSH1 0x1 PUSH1 0x1 PUSH1 0xA0 SHL SUB SWAP1 SWAP2 AND SWAP1 PUSH4 0xABCA88F0 SWAP1 PUSH1 0x24 ADD PUSH1 0x20 PUSH1 0x40 MLOAD DUP1 DUP4 SUB DUP2 DUP7 GAS STATICCALL ISZERO DUP1 ISZERO PUSH2 0x1EE2 JUMPI RETURNDATASIZE PUSH0 PUSH0 RETURNDATACOPY RETURNDATASIZE PUSH0 REVERT JUMPDEST POP POP POP POP PUSH1 0x40 MLOAD RETURNDATASIZE PUSH1 0x1F NOT PUSH1 0x1F DUP3 ADD AND DUP3 ADD DUP1 PUSH1 0x40 MSTORE POP DUP2 ADD SWAP1 PUSH2 0x1F06 SWAP2 SWAP1 PUSH2 0x47F9 JUMP JUMPDEST PUSH1 0x1 PUSH1 0x1 PUSH1 0xA0 SHL SUB AND SUB PUSH2 0x1F2C JUMPI PUSH1 0x40 MLOAD PUSH3 0x461BCD PUSH1 0xE5 SHL DUP2 MSTORE PUSH1 0x4 ADD PUSH2 0x54C SWAP1 PUSH2 0x4814 JUMP JUMPDEST PUSH1 0x1 PUSH1 0x1 PUSH1 0x80 SHL SUB DUP3 AND PUSH0 SWAP1 DUP2 MSTORE PUSH1 0xA PUSH1 0x20 SWAP1 DUP2 MSTORE PUSH1 0x40 DUP1 DUP4 KECCAK256 DUP1 SLOAD DUP3 MLOAD DUP2 DUP6 MUL DUP2 ADD DUP6 ADD SWAP1 SWAP4 MSTORE DUP1 DUP4 MSTORE SWAP2 SWAP4 SWAP1 SWAP3 DUP5 ADD JUMPDEST DUP3 DUP3 LT ISZERO PUSH2 0x2070 JUMPI PUSH0 DUP5 DUP2 MSTORE PUSH1 0x20 SWAP1 DUP2 SWAP1 KECCAK256 PUSH1 0x40 DUP1 MLOAD PUSH1 0xA0 DUP2 ADD DUP3 MSTORE PUSH1 0x4 DUP7 MUL SWAP1 SWAP3 ADD DUP1 SLOAD PUSH1 0x1 PUSH1 0x1 PUSH1 0xA0 SHL SUB AND DUP4 MSTORE PUSH1 0x1 DUP2 ADD SLOAD PUSH1 0x1 PUSH1 0x1 PUSH1 0x80 SHL SUB DUP2 AND SWAP5 DUP5 ADD SWAP5 SWAP1 SWAP5 MSTORE PUSH1 0x1 PUSH1 0x80 SHL SWAP1 SWAP4 DIV PUSH1 0xFF AND SWAP1 DUP3 ADD MSTORE PUSH1 0x2 DUP3 ADD DUP1 SLOAD SWAP2 SWAP3 SWAP2 PUSH1 0x60 DUP5 ADD SWAP2 SWAP1 PUSH2 0x1FCB SWAP1 PUSH2 0x4B3C JUMP JUMPDEST DUP1 PUSH1 0x1F ADD PUSH1 0x20 DUP1 SWAP2 DIV MUL PUSH1 0x20 ADD PUSH1 0x40 MLOAD SWAP1 DUP2 ADD PUSH1 0x40 MSTORE DUP1 SWAP3 SWAP2 SWAP1 DUP2 DUP2 MSTORE PUSH1 0x20 ADD DUP3 DUP1 SLOAD PUSH2 0x1FF7 SWAP1 PUSH2 0x4B3C JUMP JUMPDEST DUP1 ISZERO PUSH2 0x2042 JUMPI DUP1 PUSH1 0x1F LT PUSH2 0x2019 JUMPI PUSH2 0x100 DUP1 DUP4 SLOAD DIV MUL DUP4 MSTORE SWAP2 PUSH1 0x20 ADD SWAP2 PUSH2 0x2042 JUMP JUMPDEST DUP3 ADD SWAP2 SWAP1 PUSH0 MSTORE PUSH1 0x20 PUSH0 KECCAK256 SWAP1 JUMPDEST DUP2 SLOAD DUP2 MSTORE SWAP1 PUSH1 0x1 ADD SWAP1 PUSH1 0x20 ADD DUP1 DUP4 GT PUSH2 0x2025 JUMPI DUP3 SWAP1 SUB PUSH1 0x1F AND DUP3 ADD SWAP2 JUMPDEST POP POP POP SWAP2 DUP4 MSTORE POP POP PUSH1 0x3 SWAP2 SWAP1 SWAP2 ADD SLOAD PUSH1 0x1 PUSH1 0x1 PUSH1 0x80 SHL SUB AND PUSH1 0x20 SWAP2 DUP3 ADD MSTORE SWAP1 DUP3 MSTORE PUSH1 0x1 SWAP3 SWAP1 SWAP3 ADD SWAP2 ADD PUSH2 0x1F5E JUMP JUMPDEST POP POP POP POP SWAP1 POP SWAP2 SWAP1 POP JUMP JUMPDEST PUSH1 0x1 PUSH1 0x1 PUSH1 0xA0 SHL SUB DUP2 AND PUSH0 SWAP1 DUP2 MSTORE PUSH1 0x9 PUSH1 0x20 SWAP1 DUP2 MSTORE PUSH1 0x40 DUP1 DUP4 KECCAK256 DUP1 SLOAD DUP3 MLOAD DUP2 DUP6 MUL DUP2 ADD DUP6 ADD SWAP1 SWAP4 MSTORE DUP1 DUP4 MSTORE PUSH1 0x60 SWAP5 SWAP3 SWAP4 SWAP2 SWAP3 SWAP1 SWAP2 DUP5 ADD JUMPDEST DUP3 DUP3 LT ISZERO PUSH2 0x2070 JUMPI PUSH0 DUP5 DUP2 MSTORE PUSH1 0x20 SWAP1 DUP2 SWAP1 KECCAK256 PUSH1 0x40 DUP1 MLOAD PUSH1 0xC0 DUP2 ADD DUP3 MSTORE PUSH1 0x5 DUP7 MUL SWAP1 SWAP3 ADD DUP1 SLOAD PUSH1 0x1 PUSH1 0x1 PUSH1 0xA0 SHL SUB SWAP1 DUP2 AND DUP5 MSTORE PUSH1 0x1 DUP3 ADD SLOAD AND SWAP4 DUP4 ADD SWAP4 SWAP1 SWAP4 MSTORE PUSH1 0x2 DUP4 ADD SLOAD PUSH1 0x1 PUSH1 0x1 PUSH1 0x80 SHL SUB DUP2 AND SWAP2 DUP4 ADD SWAP2 SWAP1 SWAP2 MSTORE PUSH1 0x1 PUSH1 0x80 SHL SWAP1 DIV PUSH1 0xFF AND PUSH1 0x60 DUP3 ADD MSTORE PUSH1 0x3 DUP3 ADD DUP1 SLOAD SWAP2 SWAP3 SWAP2 PUSH1 0x80 DUP5 ADD SWAP2 SWAP1 PUSH2 0x212E SWAP1 PUSH2 0x4B3C JUMP JUMPDEST DUP1 PUSH1 0x1F ADD PUSH1 0x20 DUP1 SWAP2 DIV MUL PUSH1 0x20 ADD PUSH1 0x40 MLOAD SWAP1 DUP2 ADD PUSH1 0x40 MSTORE DUP1 SWAP3 SWAP2 SWAP1 DUP2 DUP2 MSTORE PUSH1 0x20 ADD DUP3 DUP1 SLOAD PUSH2 0x215A SWAP1 PUSH2 0x4B3C JUMP JUMPDEST DUP1 ISZERO PUSH2 0x21A5 JUMPI DUP1 PUSH1 0x1F LT PUSH2 0x217C JUMPI PUSH2 0x100 DUP1 DUP4 SLOAD DIV MUL DUP4 MSTORE SWAP2 PUSH1 0x20 ADD SWAP2 PUSH2 0x21A5 JUMP JUMPDEST DUP3 ADD SWAP2 SWAP1 PUSH0 MSTORE PUSH1 0x20 PUSH0 KECCAK256 SWAP1 JUMPDEST DUP2 SLOAD DUP2 MSTORE SWAP1 PUSH1 0x1 ADD SWAP1 PUSH1 0x20 ADD DUP1 DUP4 GT PUSH2 0x2188 JUMPI DUP3 SWAP1 SUB PUSH1 0x1F AND DUP3 ADD SWAP2 JUMPDEST POP POP POP SWAP2 DUP4 MSTORE POP POP PUSH1 0x4 SWAP2 SWAP1 SWAP2 ADD SLOAD PUSH1 0x1 PUSH1 0x1 PUSH1 0x80 SHL SUB AND PUSH1 0x20 SWAP2 DUP3 ADD MSTORE SWAP1 DUP3 MSTORE PUSH1 0x1 SWAP3 SWAP1 SWAP3 ADD SWAP2 ADD PUSH2 0x20B2 JUMP JUMPDEST PUSH1 0x1 SLOAD PUSH1 0x40 MLOAD PUSH4 0x4C9BA321 PUSH1 0xE1 SHL DUP2 MSTORE CALLER PUSH1 0x4 DUP3 ADD MSTORE PUSH1 0x2 SWAP2 PUSH1 0x1 PUSH1 0x1 PUSH1 0xA0 SHL SUB AND SWAP1 PUSH4 0x99374642 SWAP1 PUSH1 0x24 ADD PUSH1 0x20 PUSH1 0x40 MLOAD DUP1 DUP4 SUB DUP2 DUP7 GAS STATICCALL ISZERO DUP1 ISZERO PUSH2 0x221A JUMPI RETURNDATASIZE PUSH0 PUSH0 RETURNDATACOPY RETURNDATASIZE PUSH0 REVERT JUMPDEST POP POP POP POP PUSH1 0x40 MLOAD RETURNDATASIZE PUSH1 0x1F NOT PUSH1 0x1F DUP3 ADD AND DUP3 ADD DUP1 PUSH1 0x40 MSTORE POP DUP2 ADD SWAP1 PUSH2 0x223E SWAP2 SWAP1 PUSH2 0x4B74 JUMP JUMPDEST PUSH1 0x2 DUP2 GT ISZERO PUSH2 0x224F JUMPI PUSH2 0x224F PUSH2 0x40B6 JUMP JUMPDEST EQ DUP1 PUSH2 0x22D3 JUMPI POP PUSH1 0x1 SLOAD PUSH1 0x40 MLOAD PUSH4 0x4C9BA321 PUSH1 0xE1 SHL DUP2 MSTORE CALLER PUSH1 0x4 DUP3 ADD MSTORE PUSH0 SWAP2 PUSH1 0x1 PUSH1 0x1 PUSH1 0xA0 SHL SUB AND SWAP1 PUSH4 0x99374642 SWAP1 PUSH1 0x24 ADD PUSH1 0x20 PUSH1 0x40 MLOAD DUP1 DUP4 SUB DUP2 DUP7 GAS STATICCALL ISZERO DUP1 ISZERO PUSH2 0x229C JUMPI RETURNDATASIZE PUSH0 PUSH0 RETURNDATACOPY RETURNDATASIZE PUSH0 REVERT JUMPDEST POP POP POP POP PUSH1 0x40 MLOAD RETURNDATASIZE PUSH1 0x1F NOT PUSH1 0x1F DUP3 ADD AND DUP3 ADD DUP1 PUSH1 0x40 MSTORE POP DUP2 ADD SWAP1 PUSH2 0x22C0 SWAP2 SWAP1 PUSH2 0x4B74 JUMP JUMPDEST PUSH1 0x2 DUP2 GT ISZERO PUSH2 0x22D1 JUMPI PUSH2 0x22D1 PUSH2 0x40B6 JUMP JUMPDEST EQ JUMPDEST PUSH2 0x22EF JUMPI PUSH1 0x40 MLOAD PUSH3 0x461BCD PUSH1 0xE5 SHL DUP2 MSTORE PUSH1 0x4 ADD PUSH2 0x54C SWAP1 PUSH2 0x4BB1 JUMP JUMPDEST PUSH2 0x22F7 PUSH2 0x3BD7 JUMP JUMPDEST PUSH0 DUP3 MLOAD GT DUP1 ISZERO PUSH2 0x2308 JUMPI POP DUP1 MLOAD DUP3 MLOAD EQ JUMPDEST PUSH2 0x2344 JUMPI PUSH1 0x40 MLOAD PUSH3 0x461BCD PUSH1 0xE5 SHL DUP2 MSTORE PUSH1 0x20 PUSH1 0x4 DUP3 ADD MSTORE PUSH1 0xD PUSH1 0x24 DUP3 ADD MSTORE PUSH13 0x125B9D985B1A59081A5B9C1D5D PUSH1 0x9A SHL PUSH1 0x44 DUP3 ADD MSTORE PUSH1 0x64 ADD PUSH2 0x54C JUMP JUMPDEST PUSH1 0x1 SLOAD PUSH1 0x40 MLOAD PUSH4 0xABCA88F PUSH1 0xE4 SHL DUP2 MSTORE PUSH1 0x1 PUSH1 0x1 PUSH1 0x80 SHL SUB DUP6 AND PUSH1 0x4 DUP3 ADD MSTORE PUSH0 SWAP2 PUSH1 0x1 PUSH1 0x1 PUSH1 0xA0 SHL SUB AND SWAP1 PUSH4 0xABCA88F0 SWAP1 PUSH1 0x24 ADD PUSH1 0x20 PUSH1 0x40 MLOAD DUP1 DUP4 SUB DUP2 DUP7 GAS STATICCALL ISZERO DUP1 ISZERO PUSH2 0x2393 JUMPI RETURNDATASIZE PUSH0 PUSH0 RETURNDATACOPY RETURNDATASIZE PUSH0 REVERT JUMPDEST POP POP POP POP PUSH1 0x40 MLOAD RETURNDATASIZE PUSH1 0x1F NOT PUSH1 0x1F DUP3 ADD AND DUP3 ADD DUP1 PUSH1 0x40 MSTORE POP DUP2 ADD SWAP1 PUSH2 0x23B7 SWAP2 SWAP1 PUSH2 0x47F9 JUMP JUMPDEST PUSH1 0x1 PUSH1 0x1 PUSH1 0xA0 SHL SUB AND SUB PUSH2 0x23DD JUMPI PUSH1 0x40 MLOAD PUSH3 0x461BCD PUSH1 0xE5 SHL DUP2 MSTORE PUSH1 0x4 ADD PUSH2 0x54C SWAP1 PUSH2 0x4814 JUMP JUMPDEST DUP2 MLOAD PUSH0 SWAP1 DUP2 SWAP1 PUSH1 0x1 PUSH1 0x1 PUSH1 0x40 SHL SUB DUP2 GT ISZERO PUSH2 0x23FA JUMPI PUSH2 0x23FA PUSH2 0x3E08 JUMP JUMPDEST PUSH1 0x40 MLOAD SWAP1 DUP1 DUP3 MSTORE DUP1 PUSH1 0x20 MUL PUSH1 0x20 ADD DUP3 ADD PUSH1 0x40 MSTORE DUP1 ISZERO PUSH2 0x2449 JUMPI DUP2 PUSH1 0x20 ADD JUMPDEST PUSH1 0x40 DUP1 MLOAD PUSH1 0x80 DUP2 ADD DUP3 MSTORE PUSH0 DUP1 DUP3 MSTORE PUSH1 0x20 DUP1 DUP4 ADD DUP3 SWAP1 MSTORE SWAP3 DUP3 ADD MSTORE PUSH1 0x60 DUP1 DUP3 ADD MSTORE DUP3 MSTORE PUSH0 NOT SWAP1 SWAP3 ADD SWAP2 ADD DUP2 PUSH2 0x2418 JUMPI SWAP1 POP JUMPDEST POP SWAP1 POP PUSH0 JUMPDEST DUP5 MLOAD DUP2 LT ISZERO PUSH2 0x26E2 JUMPI PUSH1 0x2 SLOAD DUP6 MLOAD PUSH0 SWAP2 PUSH1 0x1 PUSH1 0x1 PUSH1 0xA0 SHL SUB AND SWAP1 PUSH4 0xC528968 SWAP1 DUP10 SWAP1 DUP10 SWAP1 DUP7 SWAP1 DUP2 LT PUSH2 0x2482 JUMPI PUSH2 0x2482 PUSH2 0x484B JUMP JUMPDEST PUSH1 0x20 MUL PUSH1 0x20 ADD ADD MLOAD PUSH1 0x40 MLOAD DUP4 PUSH4 0xFFFFFFFF AND PUSH1 0xE0 SHL DUP2 MSTORE PUSH1 0x4 ADD PUSH2 0x24BC SWAP3 SWAP2 SWAP1 PUSH1 0x1 PUSH1 0x1 PUSH1 0x80 SHL SUB SWAP3 DUP4 AND DUP2 MSTORE SWAP2 AND PUSH1 0x20 DUP3 ADD MSTORE PUSH1 0x40 ADD SWAP1 JUMP JUMPDEST PUSH0 PUSH1 0x40 MLOAD DUP1 DUP4 SUB DUP2 DUP7 GAS STATICCALL ISZERO DUP1 ISZERO PUSH2 0x24D6 JUMPI RETURNDATASIZE PUSH0 PUSH0 RETURNDATACOPY RETURNDATASIZE PUSH0 REVERT JUMPDEST POP POP POP POP PUSH1 0x40 MLOAD RETURNDATASIZE PUSH0 DUP3 RETURNDATACOPY PUSH1 0x1F RETURNDATASIZE SWAP1 DUP2 ADD PUSH1 0x1F NOT AND DUP3 ADD PUSH1 0x40 MSTORE PUSH2 0x24FD SWAP2 SWAP1 DUP2 ADD SWAP1 PUSH2 0x48CB JUMP JUMPDEST SWAP1 POP DUP1 PUSH1 0xC0 ADD MLOAD PUSH2 0x2543 JUMPI PUSH1 0x40 MLOAD PUSH3 0x461BCD PUSH1 0xE5 SHL DUP2 MSTORE PUSH1 0x20 PUSH1 0x4 DUP3 ADD MSTORE PUSH1 0x10 PUSH1 0x24 DUP3 ADD MSTORE PUSH16 0x4974656D20756E617661696C61626C65 PUSH1 0x80 SHL PUSH1 0x44 DUP3 ADD MSTORE PUSH1 0x64 ADD PUSH2 0x54C JUMP JUMPDEST DUP7 PUSH1 0x1 PUSH1 0x1 PUSH1 0x80 SHL SUB AND DUP2 PUSH1 0x20 ADD MLOAD PUSH1 0x1 PUSH1 0x1 PUSH1 0x80 SHL SUB AND EQ PUSH2 0x2578 JUMPI PUSH1 0x40 MLOAD PUSH3 0x461BCD PUSH1 0xE5 SHL DUP2 MSTORE PUSH1 0x4 ADD PUSH2 0x54C SWAP1 PUSH2 0x4A4A JUMP JUMPDEST DUP5 DUP3 DUP2 MLOAD DUP2 LT PUSH2 0x258A JUMPI PUSH2 0x258A PUSH2 0x484B JUMP JUMPDEST PUSH1 0x20 MUL PUSH1 0x20 ADD ADD MLOAD DUP2 PUSH1 0xA0 ADD MLOAD PUSH2 0x25A1 SWAP2 SWAP1 PUSH2 0x4AA0 JUMP JUMPDEST PUSH2 0x25AB SWAP1 DUP6 PUSH2 0x4AC9 JUMP JUMPDEST SWAP4 POP DUP5 DUP3 DUP2 MLOAD DUP2 LT PUSH2 0x25BF JUMPI PUSH2 0x25BF PUSH2 0x484B JUMP JUMPDEST PUSH1 0x20 SWAP1 DUP2 MUL SWAP2 SWAP1 SWAP2 ADD DUP2 ADD MLOAD PUSH1 0x3 SLOAD PUSH1 0x1 PUSH1 0x1 PUSH1 0x80 SHL SUB AND PUSH0 SWAP1 DUP2 MSTORE PUSH1 0x8 SWAP1 SWAP3 MSTORE PUSH1 0x40 DUP3 KECCAK256 DUP9 MLOAD SWAP2 SWAP3 SWAP1 SWAP2 DUP10 SWAP1 DUP7 SWAP1 DUP2 LT PUSH2 0x25FC JUMPI PUSH2 0x25FC PUSH2 0x484B JUMP JUMPDEST PUSH1 0x20 MUL PUSH1 0x20 ADD ADD MLOAD PUSH1 0x1 PUSH1 0x1 PUSH1 0x80 SHL SUB AND PUSH1 0x1 PUSH1 0x1 PUSH1 0x80 SHL SUB AND DUP2 MSTORE PUSH1 0x20 ADD SWAP1 DUP2 MSTORE PUSH1 0x20 ADD PUSH0 KECCAK256 PUSH0 PUSH2 0x100 EXP DUP2 SLOAD DUP2 PUSH1 0x1 PUSH1 0x1 PUSH1 0x80 SHL SUB MUL NOT AND SWAP1 DUP4 PUSH1 0x1 PUSH1 0x1 PUSH1 0x80 SHL SUB AND MUL OR SWAP1 SSTORE POP PUSH1 0x40 MLOAD DUP1 PUSH1 0x80 ADD PUSH1 0x40 MSTORE DUP1 DUP8 DUP5 DUP2 MLOAD DUP2 LT PUSH2 0x2663 JUMPI PUSH2 0x2663 PUSH2 0x484B JUMP JUMPDEST PUSH1 0x20 MUL PUSH1 0x20 ADD ADD MLOAD PUSH1 0x1 PUSH1 0x1 PUSH1 0x80 SHL SUB AND DUP2 MSTORE PUSH1 0x20 ADD DUP7 DUP5 DUP2 MLOAD DUP2 LT PUSH2 0x268B JUMPI PUSH2 0x268B PUSH2 0x484B JUMP JUMPDEST PUSH1 0x20 MUL PUSH1 0x20 ADD ADD MLOAD PUSH1 0x1 PUSH1 0x1 PUSH1 0x80 SHL SUB AND DUP2 MSTORE PUSH1 0x20 ADD DUP3 PUSH1 0xA0 ADD MLOAD PUSH1 0x1 PUSH1 0x1 PUSH1 0x80 SHL SUB AND DUP2 MSTORE PUSH1 0x20 ADD DUP3 PUSH1 0x40 ADD MLOAD DUP2 MSTORE POP DUP4 DUP4 DUP2 MLOAD DUP2 LT PUSH2 0x26CE JUMPI PUSH2 0x26CE PUSH2 0x484B JUMP JUMPDEST PUSH1 0x20 SWAP1 DUP2 MUL SWAP2 SWAP1 SWAP2 ADD ADD MSTORE POP PUSH1 0x1 ADD PUSH2 0x244E JUMP JUMPDEST POP PUSH0 PUSH1 0x64 PUSH1 0x1 PUSH0 SWAP1 SLOAD SWAP1 PUSH2 0x100 EXP SWAP1 DIV PUSH1 0x1 PUSH1 0x1 PUSH1 0xA0 SHL SUB AND PUSH1 0x1 PUSH1 0x1 PUSH1 0xA0 SHL SUB AND PUSH4 0x603EF649 PUSH1 0x40 MLOAD DUP2 PUSH4 0xFFFFFFFF AND PUSH1 0xE0 SHL DUP2 MSTORE PUSH1 0x4 ADD PUSH1 0x20 PUSH1 0x40 MLOAD DUP1 DUP4 SUB DUP2 DUP7 GAS STATICCALL ISZERO DUP1 ISZERO PUSH2 0x2736 JUMPI RETURNDATASIZE PUSH0 PUSH0 RETURNDATACOPY RETURNDATASIZE PUSH0 REVERT JUMPDEST POP POP POP POP PUSH1 0x40 MLOAD RETURNDATASIZE PUSH1 0x1F NOT PUSH1 0x1F DUP3 ADD AND DUP3 ADD DUP1 PUSH1 0x40 MSTORE POP DUP2 ADD SWAP1 PUSH2 0x275A SWAP2 SWAP1 PUSH2 0x4AE8 JUMP JUMPDEST PUSH2 0x2767 SWAP1 PUSH1 0xFF AND DUP6 PUSH2 0x4AA0 JUMP JUMPDEST PUSH2 0x2771 SWAP2 SWAP1 PUSH2 0x4B03 JUMP JUMPDEST SWAP1 POP PUSH0 PUSH2 0x277E DUP3 DUP6 PUSH2 0x4AC9 JUMP JUMPDEST SWAP1 POP DUP1 PUSH1 0x1 PUSH1 0x1 PUSH1 0x80 SHL SUB AND CALLVALUE LT ISZERO PUSH2 0x27D0 JUMPI PUSH1 0x40 MLOAD PUSH3 0x461BCD PUSH1 0xE5 SHL DUP2 MSTORE PUSH1 0x20 PUSH1 0x4 DUP3 ADD MSTORE PUSH1 0x14 PUSH1 0x24 DUP3 ADD MSTORE PUSH20 0x125B9CDD59999A58DA595B9D081C185E5B595B9D PUSH1 0x62 SHL PUSH1 0x44 DUP3 ADD MSTORE PUSH1 0x64 ADD PUSH2 0x54C JUMP JUMPDEST DUP1 PUSH1 0x1 PUSH1 0x1 PUSH1 0x80 SHL SUB AND CALLVALUE GT ISZERO PUSH2 0x27FE JUMPI PUSH2 0x27FE PUSH2 0x27F7 PUSH1 0x1 PUSH1 0x1 PUSH1 0x80 SHL SUB DUP4 AND CALLVALUE PUSH2 0x4D95 JUMP JUMPDEST CALLER SWAP1 PUSH2 0x3C2E JUMP JUMPDEST PUSH1 0x40 DUP1 MLOAD PUSH2 0x100 DUP2 ADD DUP3 MSTORE PUSH1 0x3 DUP1 SLOAD PUSH1 0x1 PUSH1 0x1 PUSH1 0x80 SHL SUB SWAP1 DUP2 AND DUP1 DUP5 MSTORE CALLER PUSH1 0x20 DUP1 DUP7 ADD SWAP2 DUP3 MSTORE DUP14 DUP5 AND DUP7 DUP9 ADD SWAP1 DUP2 MSTORE PUSH1 0x60 DUP8 ADD DUP15 DUP2 MSTORE PUSH1 0x80 DUP9 ADD DUP15 SWAP1 MSTORE DUP13 DUP7 AND PUSH1 0xA0 DUP10 ADD MSTORE PUSH0 PUSH1 0xC0 DUP10 ADD DUP2 SWAP1 MSTORE TIMESTAMP DUP8 AND PUSH1 0xE0 DUP11 ADD MSTORE SWAP5 DUP6 MSTORE PUSH1 0x4 DUP4 MSTORE SWAP8 SWAP1 SWAP4 KECCAK256 DUP7 MLOAD DUP2 SLOAD PUSH1 0x1 PUSH1 0x1 PUSH1 0x80 SHL SUB NOT SWAP1 DUP2 AND SWAP2 DUP8 AND SWAP2 SWAP1 SWAP2 OR DUP3 SSTORE SWAP3 MLOAD PUSH1 0x1 DUP3 ADD DUP1 SLOAD PUSH1 0x1 PUSH1 0x1 PUSH1 0xA0 SHL SUB NOT AND PUSH1 0x1 PUSH1 0x1 PUSH1 0xA0 SHL SUB SWAP1 SWAP3 AND SWAP2 SWAP1 SWAP2 OR SWAP1 SSTORE SWAP3 MLOAD PUSH1 0x2 DUP5 ADD DUP1 SLOAD SWAP1 SWAP4 AND SWAP5 AND SWAP4 SWAP1 SWAP4 OR SWAP1 SSTORE SWAP4 MLOAD DUP1 MLOAD SWAP4 SWAP5 SWAP4 PUSH2 0x28C5 SWAP4 DUP6 ADD SWAP3 SWAP2 SWAP1 SWAP2 ADD SWAP1 PUSH2 0x3D2B JUMP JUMPDEST POP PUSH1 0x80 DUP3 ADD MLOAD DUP1 MLOAD PUSH2 0x28E1 SWAP2 PUSH1 0x4 DUP5 ADD SWAP2 PUSH1 0x20 SWAP1 SWAP2 ADD SWAP1 PUSH2 0x3D2B JUMP JUMPDEST POP PUSH1 0xA0 DUP3 ADD MLOAD PUSH1 0x5 DUP1 DUP4 ADD DUP1 SLOAD PUSH1 0x1 PUSH1 0x1 PUSH1 0x80 SHL SUB SWAP1 SWAP4 AND PUSH1 0x1 PUSH1 0x1 PUSH1 0x80 SHL SUB NOT DUP5 AND DUP2 OR DUP3 SSTORE PUSH1 0xC0 DUP7 ADD MLOAD SWAP4 SWAP2 SWAP3 PUSH1 0x1 PUSH1 0x1 PUSH1 0x88 SHL SUB NOT SWAP1 SWAP3 AND OR SWAP1 PUSH1 0x1 PUSH1 0x80 SHL SWAP1 DUP5 SWAP1 DUP2 GT ISZERO PUSH2 0x2935 JUMPI PUSH2 0x2935 PUSH2 0x40B6 JUMP JUMPDEST MUL OR SWAP1 SSTORE POP PUSH1 0xE0 SWAP2 SWAP1 SWAP2 ADD MLOAD PUSH1 0x6 SWAP1 SWAP2 ADD DUP1 SLOAD PUSH1 0x1 PUSH1 0x1 PUSH1 0x80 SHL SUB NOT AND PUSH1 0x1 PUSH1 0x1 PUSH1 0x80 SHL SUB SWAP1 SWAP3 AND SWAP2 SWAP1 SWAP2 OR SWAP1 SSTORE PUSH0 JUMPDEST DUP4 MLOAD DUP2 LT ISZERO PUSH2 0x2A20 JUMPI PUSH1 0x3 SLOAD PUSH1 0x1 PUSH1 0x1 PUSH1 0x80 SHL SUB AND PUSH0 SWAP1 DUP2 MSTORE PUSH1 0x7 PUSH1 0x20 MSTORE PUSH1 0x40 SWAP1 KECCAK256 DUP5 MLOAD DUP6 SWAP1 DUP4 SWAP1 DUP2 LT PUSH2 0x299B JUMPI PUSH2 0x299B PUSH2 0x484B JUMP JUMPDEST PUSH1 0x20 SWAP1 DUP2 MUL SWAP2 SWAP1 SWAP2 ADD DUP2 ADD MLOAD DUP3 SLOAD PUSH1 0x1 DUP1 DUP3 ADD DUP6 SSTORE PUSH0 SWAP5 DUP6 MSTORE SWAP4 DUP4 SWAP1 KECCAK256 DUP3 MLOAD SWAP4 DUP4 ADD MLOAD PUSH1 0x1 PUSH1 0x1 PUSH1 0x80 SHL SUB SWAP5 DUP6 AND PUSH1 0x1 PUSH1 0x80 SHL SWAP2 DUP7 AND SWAP2 SWAP1 SWAP2 MUL OR PUSH1 0x3 SWAP1 SWAP3 MUL ADD SWAP1 DUP2 SSTORE PUSH1 0x40 DUP3 ADD MLOAD SWAP4 DUP2 ADD DUP1 SLOAD PUSH1 0x1 PUSH1 0x1 PUSH1 0x80 SHL SUB NOT AND SWAP5 SWAP1 SWAP4 AND SWAP4 SWAP1 SWAP4 OR SWAP1 SWAP2 SSTORE PUSH1 0x60 DUP2 ADD MLOAD SWAP1 SWAP2 SWAP1 PUSH1 0x2 DUP3 ADD SWAP1 PUSH2 0x2A15 SWAP1 DUP3 PUSH2 0x4C8E JUMP JUMPDEST POP POP POP PUSH1 0x1 ADD PUSH2 0x2965 JUMP JUMPDEST POP CALLER PUSH0 SWAP1 DUP2 MSTORE PUSH1 0x5 PUSH1 0x20 SWAP1 DUP2 MSTORE PUSH1 0x40 DUP1 DUP4 KECCAK256 PUSH1 0x3 SLOAD DUP2 SLOAD PUSH1 0x1 DUP2 DUP2 ADD DUP5 SSTORE SWAP3 DUP7 MSTORE SWAP5 DUP5 SWAP1 KECCAK256 PUSH1 0x2 DUP7 DIV ADD DUP1 SLOAD PUSH1 0x10 SWAP7 DUP5 AND SWAP7 SWAP1 SWAP7 MUL PUSH2 0x100 EXP PUSH1 0x1 PUSH1 0x1 PUSH1 0x80 SHL SUB SWAP3 DUP4 AND DUP2 MUL SWAP3 MUL NOT SWAP1 SWAP6 AND OR SWAP1 SWAP4 SSTORE SWAP2 SLOAD DUP3 MLOAD PUSH4 0x8DA5CB5B PUSH1 0xE0 SHL DUP2 MSTORE SWAP3 MLOAD PUSH1 0x1 PUSH1 0x1 PUSH1 0xA0 SHL SUB SWAP2 SWAP1 SWAP2 AND SWAP3 PUSH4 0xA0E31EC4 SWAP3 DUP5 SWAP3 PUSH4 0x8DA5CB5B SWAP3 PUSH1 0x4 DUP1 DUP3 ADD SWAP4 SWAP3 SWAP2 DUP3 SWAP1 SUB ADD DUP2 DUP7 GAS STATICCALL ISZERO DUP1 ISZERO PUSH2 0x2ABA JUMPI RETURNDATASIZE PUSH0 PUSH0 RETURNDATACOPY RETURNDATASIZE PUSH0 REVERT JUMPDEST POP POP POP POP PUSH1 0x40 MLOAD RETURNDATASIZE PUSH1 0x1F NOT PUSH1 0x1F DUP3 ADD AND DUP3 ADD DUP1 PUSH1 0x40 MSTORE POP DUP2 ADD SWAP1 PUSH2 0x2ADE SWAP2 SWAP1 PUSH2 0x47F9 JUMP JUMPDEST PUSH1 0x40 MLOAD PUSH1 0x1 PUSH1 0x1 PUSH1 0xE0 SHL SUB NOT PUSH1 0xE0 DUP5 SWAP1 SHL AND DUP2 MSTORE PUSH1 0x1 PUSH1 0x1 PUSH1 0xA0 SHL SUB SWAP1 SWAP2 AND PUSH1 0x4 DUP3 ADD MSTORE PUSH1 0x1 PUSH1 0x1 PUSH1 0x80 SHL SUB DUP6 AND PUSH1 0x24 DUP3 ADD MSTORE PUSH1 0x44 ADD PUSH0 PUSH1 0x40 MLOAD DUP1 DUP4 SUB DUP2 PUSH0 DUP8 DUP1 EXTCODESIZE ISZERO DUP1 ISZERO PUSH2 0x2B2B JUMPI PUSH0 PUSH0 REVERT JUMPDEST POP GAS CALL ISZERO DUP1 ISZERO PUSH2 0x2B3D JUMPI RETURNDATASIZE PUSH0 PUSH0 RETURNDATACOPY RETURNDATASIZE PUSH0 REVERT JUMPDEST POP POP PUSH1 0x3 SLOAD PUSH1 0x40 DUP1 MLOAD PUSH1 0x1 PUSH1 0x1 PUSH1 0x80 SHL SUB SWAP3 DUP4 AND DUP2 MSTORE CALLER PUSH1 0x20 DUP3 ADD MSTORE SWAP2 DUP9 AND DUP3 DUP3 ADD MSTORE MLOAD PUSH32 0x705F23A83CF14E64BD1C38A913E0C43E880BBBF23A0DD3716EEACFB634CA814B SWAP4 POP SWAP1 DUP2 SWAP1 SUB PUSH1 0x60 ADD SWAP2 POP LOG1 PUSH1 0x3 DUP1 SLOAD PUSH1 0x1 PUSH1 0x1 PUSH1 0x80 SHL SUB AND SWAP1 PUSH0 PUSH2 0x2BA6 DUP4 PUSH2 0x4DA8 JUMP JUMPDEST SWAP2 SWAP1 PUSH2 0x100 EXP DUP2 SLOAD DUP2 PUSH1 0x1 PUSH1 0x1 PUSH1 0x80 SHL SUB MUL NOT AND SWAP1 DUP4 PUSH1 0x1 PUSH1 0x1 PUSH1 0x80 SHL SUB AND MUL OR SWAP1 SSTORE POP POP POP POP POP POP PUSH2 0x2BD8 PUSH1 0x1 PUSH0 SSTORE JUMP JUMPDEST POP POP POP JUMP JUMPDEST PUSH1 0x60 PUSH1 0x2 PUSH1 0x1 SLOAD PUSH1 0x40 MLOAD PUSH4 0x4C9BA321 PUSH1 0xE1 SHL DUP2 MSTORE CALLER PUSH1 0x4 DUP3 ADD MSTORE PUSH1 0x1 PUSH1 0x1 PUSH1 0xA0 SHL SUB SWAP1 SWAP2 AND SWAP1 PUSH4 0x99374642 SWAP1 PUSH1 0x24 ADD PUSH1 0x20 PUSH1 0x40 MLOAD DUP1 DUP4 SUB DUP2 DUP7 GAS STATICCALL ISZERO DUP1 ISZERO PUSH2 0x2C27 JUMPI RETURNDATASIZE PUSH0 PUSH0 RETURNDATACOPY RETURNDATASIZE PUSH0 REVERT JUMPDEST POP POP POP POP PUSH1 0x40 MLOAD RETURNDATASIZE PUSH1 0x1F NOT PUSH1 0x1F DUP3 ADD AND DUP3 ADD DUP1 PUSH1 0x40 MSTORE POP DUP2 ADD SWAP1 PUSH2 0x2C4B SWAP2 SWAP1 PUSH2 0x4B74 JUMP JUMPDEST PUSH1 0x2 DUP2 GT ISZERO PUSH2 0x2C5C JUMPI PUSH2 0x2C5C PUSH2 0x40B6 JUMP JUMPDEST EQ DUP1 PUSH2 0x2CE0 JUMPI POP PUSH1 0x1 SLOAD PUSH1 0x40 MLOAD PUSH4 0x4C9BA321 PUSH1 0xE1 SHL DUP2 MSTORE CALLER PUSH1 0x4 DUP3 ADD MSTORE PUSH0 SWAP2 PUSH1 0x1 PUSH1 0x1 PUSH1 0xA0 SHL SUB AND SWAP1 PUSH4 0x99374642 SWAP1 PUSH1 0x24 ADD PUSH1 0x20 PUSH1 0x40 MLOAD DUP1 DUP4 SUB DUP2 DUP7 GAS STATICCALL ISZERO DUP1 ISZERO PUSH2 0x2CA9 JUMPI RETURNDATASIZE PUSH0 PUSH0 RETURNDATACOPY RETURNDATASIZE PUSH0 REVERT JUMPDEST POP POP POP POP PUSH1 0x40 MLOAD RETURNDATASIZE PUSH1 0x1F NOT PUSH1 0x1F DUP3 ADD AND DUP3 ADD DUP1 PUSH1 0x40 MSTORE POP DUP2 ADD SWAP1 PUSH2 0x2CCD SWAP2 SWAP1 PUSH2 0x4B74 JUMP JUMPDEST PUSH1 0x2 DUP2 GT ISZERO PUSH2 0x2CDE JUMPI PUSH2 0x2CDE PUSH2 0x40B6 JUMP JUMPDEST EQ JUMPDEST PUSH2 0x2CFC JUMPI PUSH1 0x40 MLOAD PUSH3 0x461BCD PUSH1 0xE5 SHL DUP2 MSTORE PUSH1 0x4 ADD PUSH2 0x54C SWAP1 PUSH2 0x4BB1 JUMP JUMPDEST CALLER PUSH0 SWAP1 DUP2 MSTORE PUSH1 0x5 PUSH1 0x20 MSTORE PUSH1 0x40 DUP2 KECCAK256 DUP1 SLOAD SWAP1 SWAP2 SWAP1 PUSH1 0x1 PUSH1 0x1 PUSH1 0x40 SHL SUB DUP2 GT ISZERO PUSH2 0x2D26 JUMPI PUSH2 0x2D26 PUSH2 0x3E08 JUMP JUMPDEST PUSH1 0x40 MLOAD SWAP1 DUP1 DUP3 MSTORE DUP1 PUSH1 0x20 MUL PUSH1 0x20 ADD DUP3 ADD PUSH1 0x40 MSTORE DUP1 ISZERO PUSH2 0x2D5F JUMPI DUP2 PUSH1 0x20 ADD JUMPDEST PUSH2 0x2D4C PUSH2 0x3CE9 JUMP JUMPDEST DUP2 MSTORE PUSH1 0x20 ADD SWAP1 PUSH1 0x1 SWAP1 SUB SWAP1 DUP2 PUSH2 0x2D44 JUMPI SWAP1 POP JUMPDEST POP SWAP1 POP PUSH0 JUMPDEST DUP3 SLOAD DUP2 LT ISZERO PUSH2 0x2F7A JUMPI PUSH1 0x4 PUSH0 DUP5 DUP4 DUP2 SLOAD DUP2 LT PUSH2 0x2D82 JUMPI PUSH2 0x2D82 PUSH2 0x484B JUMP JUMPDEST PUSH0 SWAP2 DUP3 MSTORE PUSH1 0x20 DUP1 DUP4 KECCAK256 PUSH1 0x2 DUP1 DUP5 DIV SWAP1 SWAP2 ADD SLOAD PUSH1 0x1 PUSH1 0x1 PUSH1 0x80 SHL SUB PUSH1 0x10 PUSH1 0x1 SWAP6 DUP7 AND MUL PUSH2 0x100 SWAP1 DUP2 EXP SWAP1 SWAP3 DIV DUP2 AND DUP8 MSTORE DUP7 DUP5 ADD SWAP8 SWAP1 SWAP8 MSTORE PUSH1 0x40 SWAP6 DUP7 ADD SWAP1 SWAP5 KECCAK256 DUP6 MLOAD SWAP5 DUP6 ADD DUP7 MSTORE DUP1 SLOAD DUP8 AND DUP6 MSTORE SWAP3 DUP4 ADD SLOAD PUSH1 0x1 PUSH1 0x1 PUSH1 0xA0 SHL SUB AND DUP5 DUP4 ADD MSTORE DUP3 ADD SLOAD SWAP1 SWAP5 AND DUP3 DUP5 ADD MSTORE PUSH1 0x3 DUP2 ADD DUP1 SLOAD DUP5 MLOAD DUP2 DUP8 MUL DUP2 ADD DUP8 ADD SWAP1 SWAP6 MSTORE DUP1 DUP6 MSTORE SWAP3 SWAP5 SWAP2 SWAP4 PUSH1 0x60 DUP7 ADD SWAP4 SWAP1 SWAP3 DUP4 ADD DUP3 DUP3 DUP1 ISZERO PUSH2 0x2E66 JUMPI PUSH1 0x20 MUL DUP3 ADD SWAP2 SWAP1 PUSH0 MSTORE PUSH1 0x20 PUSH0 KECCAK256 SWAP1 PUSH0 SWAP1 JUMPDEST DUP3 DUP3 SWAP1 SLOAD SWAP1 PUSH2 0x100 EXP SWAP1 DIV PUSH1 0x1 PUSH1 0x1 PUSH1 0x80 SHL SUB AND PUSH1 0x1 PUSH1 0x1 PUSH1 0x80 SHL SUB AND DUP2 MSTORE PUSH1 0x20 ADD SWAP1 PUSH1 0x10 ADD SWAP1 PUSH1 0x20 DUP3 PUSH1 0xF ADD DIV SWAP3 DUP4 ADD SWAP3 PUSH1 0x1 SUB DUP3 MUL SWAP2 POP DUP1 DUP5 GT PUSH2 0x2E23 JUMPI SWAP1 POP JUMPDEST POP POP POP POP POP DUP2 MSTORE PUSH1 0x20 ADD PUSH1 0x4 DUP3 ADD DUP1 SLOAD DUP1 PUSH1 0x20 MUL PUSH1 0x20 ADD PUSH1 0x40 MLOAD SWAP1 DUP2 ADD PUSH1 0x40 MSTORE DUP1 SWAP3 SWAP2 SWAP1 DUP2 DUP2 MSTORE PUSH1 0x20 ADD DUP3 DUP1 SLOAD DUP1 ISZERO PUSH2 0x2EED JUMPI PUSH1 0x20 MUL DUP3 ADD SWAP2 SWAP1 PUSH0 MSTORE PUSH1 0x20 PUSH0 KECCAK256 SWAP1 PUSH0 SWAP1 JUMPDEST DUP3 DUP3 SWAP1 SLOAD SWAP1 PUSH2 0x100 EXP SWAP1 DIV PUSH1 0x1 PUSH1 0x1 PUSH1 0x80 SHL SUB AND PUSH1 0x1 PUSH1 0x1 PUSH1 0x80 SHL SUB AND DUP2 MSTORE PUSH1 0x20 ADD SWAP1 PUSH1 0x10 ADD SWAP1 PUSH1 0x20 DUP3 PUSH1 0xF ADD DIV SWAP3 DUP4 ADD SWAP3 PUSH1 0x1 SUB DUP3 MUL SWAP2 POP DUP1 DUP5 GT PUSH2 0x2EAA JUMPI SWAP1 POP JUMPDEST POP POP POP SWAP2 DUP4 MSTORE POP POP PUSH1 0x5 DUP3 DUP2 ADD SLOAD PUSH1 0x1 PUSH1 0x1 PUSH1 0x80 SHL SUB DUP2 AND PUSH1 0x20 DUP5 ADD MSTORE PUSH1 0x40 SWAP1 SWAP3 ADD SWAP2 PUSH1 0x1 PUSH1 0x80 SHL SWAP1 DIV PUSH1 0xFF AND SWAP1 DUP2 GT ISZERO PUSH2 0x2F2A JUMPI PUSH2 0x2F2A PUSH2 0x40B6 JUMP JUMPDEST PUSH1 0x5 DUP2 GT ISZERO PUSH2 0x2F3B JUMPI PUSH2 0x2F3B PUSH2 0x40B6 JUMP JUMPDEST DUP2 MSTORE PUSH1 0x6 SWAP2 SWAP1 SWAP2 ADD SLOAD PUSH1 0x1 PUSH1 0x1 PUSH1 0x80 SHL SUB AND PUSH1 0x20 SWAP1 SWAP2 ADD MSTORE DUP3 MLOAD DUP4 SWAP1 DUP4 SWAP1 DUP2 LT PUSH2 0x2F67 JUMPI PUSH2 0x2F67 PUSH2 0x484B JUMP JUMPDEST PUSH1 0x20 SWAP1 DUP2 MUL SWAP2 SWAP1 SWAP2 ADD ADD MSTORE PUSH1 0x1 ADD PUSH2 0x2D64 JUMP JUMPDEST POP SWAP2 POP POP SWAP1 JUMP JUMPDEST PUSH2 0x2F89 PUSH2 0x3CE9 JUMP JUMPDEST PUSH1 0x60 DUP3 PUSH0 DUP2 PUSH1 0x1 PUSH1 0x1 PUSH1 0x80 SHL SUB AND GT DUP1 ISZERO PUSH2 0x2FB2 JUMPI POP PUSH1 0x3 SLOAD PUSH1 0x1 PUSH1 0x1 PUSH1 0x80 SHL SUB SWAP1 DUP2 AND SWAP1 DUP3 AND LT JUMPDEST PUSH2 0x2FCE JUMPI PUSH1 0x40 MLOAD PUSH3 0x461BCD PUSH1 0xE5 SHL DUP2 MSTORE PUSH1 0x4 ADD PUSH2 0x54C SWAP1 PUSH2 0x4BE1 JUMP JUMPDEST PUSH1 0x1 PUSH1 0x1 PUSH1 0x80 SHL SUB DUP1 DUP6 AND PUSH0 SWAP1 DUP2 MSTORE PUSH1 0x4 PUSH1 0x20 SWAP1 DUP2 MSTORE PUSH1 0x40 SWAP2 DUP3 SWAP1 KECCAK256 DUP3 MLOAD PUSH2 0x100 DUP2 ADD DUP5 MSTORE DUP2 SLOAD DUP6 AND DUP2 MSTORE PUSH1 0x1 DUP3 ADD SLOAD PUSH1 0x1 PUSH1 0x1 PUSH1 0xA0 SHL SUB AND DUP2 DUP5 ADD MSTORE PUSH1 0x2 DUP3 ADD SLOAD SWAP1 SWAP5 AND DUP5 DUP5 ADD MSTORE PUSH1 0x3 DUP2 ADD DUP1 SLOAD DUP5 MLOAD DUP2 DUP6 MUL DUP2 ADD DUP6 ADD SWAP1 SWAP6 MSTORE DUP1 DUP6 MSTORE SWAP2 SWAP4 PUSH1 0x60 DUP7 ADD SWAP4 SWAP1 SWAP3 SWAP1 DUP4 ADD DUP3 DUP3 DUP1 ISZERO PUSH2 0x3094 JUMPI PUSH1 0x20 MUL DUP3 ADD SWAP2 SWAP1 PUSH0 MSTORE PUSH1 0x20 PUSH0 KECCAK256 SWAP1 PUSH0 SWAP1 JUMPDEST DUP3 DUP3 SWAP1 SLOAD SWAP1 PUSH2 0x100 EXP SWAP1 DIV PUSH1 0x1 PUSH1 0x1 PUSH1 0x80 SHL SUB AND PUSH1 0x1 PUSH1 0x1 PUSH1 0x80 SHL SUB AND DUP2 MSTORE PUSH1 0x20 ADD SWAP1 PUSH1 0x10 ADD SWAP1 PUSH1 0x20 DUP3 PUSH1 0xF ADD DIV SWAP3 DUP4 ADD SWAP3 PUSH1 0x1 SUB DUP3 MUL SWAP2 POP DUP1 DUP5 GT PUSH2 0x3051 JUMPI SWAP1 POP JUMPDEST POP POP POP POP POP DUP2 MSTORE PUSH1 0x20 ADD PUSH1 0x4 DUP3 ADD DUP1 SLOAD DUP1 PUSH1 0x20 MUL PUSH1 0x20 ADD PUSH1 0x40 MLOAD SWAP1 DUP2 ADD PUSH1 0x40 MSTORE DUP1 SWAP3 SWAP2 SWAP1 DUP2 DUP2 MSTORE PUSH1 0x20 ADD DUP3 DUP1 SLOAD DUP1 ISZERO PUSH2 0x311B JUMPI PUSH1 0x20 MUL DUP3 ADD SWAP2 SWAP1 PUSH0 MSTORE PUSH1 0x20 PUSH0 KECCAK256 SWAP1 PUSH0 SWAP1 JUMPDEST DUP3 DUP3 SWAP1 SLOAD SWAP1 PUSH2 0x100 EXP SWAP1 DIV PUSH1 0x1 PUSH1 0x1 PUSH1 0x80 SHL SUB AND PUSH1 0x1 PUSH1 0x1 PUSH1 0x80 SHL SUB AND DUP2 MSTORE PUSH1 0x20 ADD SWAP1 PUSH1 0x10 ADD SWAP1 PUSH1 0x20 DUP3 PUSH1 0xF ADD DIV SWAP3 DUP4 ADD SWAP3 PUSH1 0x1 SUB DUP3 MUL SWAP2 POP DUP1 DUP5 GT PUSH2 0x30D8 JUMPI SWAP1 POP JUMPDEST POP POP POP SWAP2 DUP4 MSTORE POP POP PUSH1 0x5 DUP3 DUP2 ADD SLOAD PUSH1 0x1 PUSH1 0x1 PUSH1 0x80 SHL SUB DUP2 AND PUSH1 0x20 DUP5 ADD MSTORE PUSH1 0x40 SWAP1 SWAP3 ADD SWAP2 PUSH1 0x1 PUSH1 0x80 SHL SWAP1 DIV PUSH1 0xFF AND SWAP1 DUP2 GT ISZERO PUSH2 0x3158 JUMPI PUSH2 0x3158 PUSH2 0x40B6 JUMP JUMPDEST PUSH1 0x5 DUP2 GT ISZERO PUSH2 0x3169 JUMPI PUSH2 0x3169 PUSH2 0x40B6 JUMP JUMPDEST DUP2 MSTORE PUSH1 0x6 SWAP2 SWAP1 SWAP2 ADD SLOAD PUSH1 0x1 PUSH1 0x1 PUSH1 0x80 SHL SUB AND PUSH1 0x20 SWAP1 SWAP2 ADD MSTORE PUSH1 0x60 DUP2 ADD MLOAD MLOAD SWAP1 SWAP4 POP PUSH1 0x1 PUSH1 0x1 PUSH1 0x40 SHL SUB DUP2 GT ISZERO PUSH2 0x31A1 JUMPI PUSH2 0x31A1 PUSH2 0x3E08 JUMP JUMPDEST PUSH1 0x40 MLOAD SWAP1 DUP1 DUP3 MSTORE DUP1 PUSH1 0x20 MUL PUSH1 0x20 ADD DUP3 ADD PUSH1 0x40 MSTORE DUP1 ISZERO PUSH2 0x31CA JUMPI DUP2 PUSH1 0x20 ADD PUSH1 0x20 DUP3 MUL DUP1 CALLDATASIZE DUP4 CALLDATACOPY ADD SWAP1 POP JUMPDEST POP SWAP2 POP PUSH0 JUMPDEST DUP4 PUSH1 0x60 ADD MLOAD MLOAD DUP2 LT ISZERO PUSH2 0x3279 JUMPI PUSH1 0x1 PUSH1 0x1 PUSH1 0x80 SHL SUB DUP6 AND PUSH0 SWAP1 DUP2 MSTORE PUSH1 0x8 PUSH1 0x20 MSTORE PUSH1 0x40 DUP2 KECCAK256 PUSH1 0x60 DUP7 ADD MLOAD DUP1 MLOAD SWAP2 SWAP3 SWAP2 DUP5 SWAP1 DUP2 LT PUSH2 0x320D JUMPI PUSH2 0x320D PUSH2 0x484B JUMP JUMPDEST PUSH1 0x20 MUL PUSH1 0x20 ADD ADD MLOAD PUSH1 0x1 PUSH1 0x1 PUSH1 0x80 SHL SUB AND PUSH1 0x1 PUSH1 0x1 PUSH1 0x80 SHL SUB AND DUP2 MSTORE PUSH1 0x20 ADD SWAP1 DUP2 MSTORE PUSH1 0x20 ADD PUSH0 KECCAK256 PUSH0 SWAP1 SLOAD SWAP1 PUSH2 0x100 EXP SWAP1 DIV PUSH1 0x1 PUSH1 0x1 PUSH1 0x80 SHL SUB AND DUP4 DUP3 DUP2 MLOAD DUP2 LT PUSH2 0x3259 JUMPI PUSH2 0x3259 PUSH2 0x484B JUMP JUMPDEST PUSH1 0x1 PUSH1 0x1 PUSH1 0x80 SHL SUB SWAP1 SWAP3 AND PUSH1 0x20 SWAP3 DUP4 MUL SWAP2 SWAP1 SWAP2 ADD SWAP1 SWAP2 ADD MSTORE PUSH1 0x1 ADD PUSH2 0x31CF JUMP JUMPDEST POP POP SWAP2 POP SWAP2 JUMP JUMPDEST PUSH1 0x1 SLOAD PUSH1 0x40 MLOAD PUSH4 0x4C9BA321 PUSH1 0xE1 SHL DUP2 MSTORE CALLER PUSH1 0x4 DUP3 ADD MSTORE PUSH0 SWAP2 PUSH1 0x1 PUSH1 0x1 PUSH1 0xA0 SHL SUB AND SWAP1 PUSH4 0x99374642 SWAP1 PUSH1 0x24 ADD PUSH1 0x20 PUSH1 0x40 MLOAD DUP1 DUP4 SUB DUP2 DUP7 GAS STATICCALL ISZERO DUP1 ISZERO PUSH2 0x32C6 JUMPI RETURNDATASIZE PUSH0 PUSH0 RETURNDATACOPY RETURNDATASIZE PUSH0 REVERT JUMPDEST POP POP POP POP PUSH1 0x40 MLOAD RETURNDATASIZE PUSH1 0x1F NOT PUSH1 0x1F DUP3 ADD AND DUP3 ADD DUP1 PUSH1 0x40 MSTORE POP DUP2 ADD SWAP1 PUSH2 0x32EA SWAP2 SWAP1 PUSH2 0x4B74 JUMP JUMPDEST PUSH1 0x2 DUP2 GT ISZERO PUSH2 0x32FB JUMPI PUSH2 0x32FB PUSH2 0x40B6 JUMP JUMPDEST EQ PUSH2 0x3348 JUMPI PUSH1 0x40 MLOAD PUSH3 0x461BCD PUSH1 0xE5 SHL DUP2 MSTORE PUSH1 0x20 PUSH1 0x4 DUP3 ADD MSTORE PUSH1 0x1B PUSH1 0x24 DUP3 ADD MSTORE PUSH32 0x556E617574686F72697A65643A20437573746F6D6572206F6E6C790000000000 PUSH1 0x44 DUP3 ADD MSTORE PUSH1 0x64 ADD PUSH2 0x54C JUMP JUMPDEST PUSH2 0x3350 PUSH2 0x3BD7 JUMP JUMPDEST DUP1 PUSH0 DUP2 PUSH1 0x1 PUSH1 0x1 PUSH1 0x80 SHL SUB AND GT DUP1 ISZERO PUSH2 0x3377 JUMPI POP PUSH1 0x3 SLOAD PUSH1 0x1 PUSH1 0x1 PUSH1 0x80 SHL SUB SWAP1 DUP2 AND SWAP1 DUP3 AND LT JUMPDEST PUSH2 0x3393 JUMPI PUSH1 0x40 MLOAD PUSH3 0x461BCD PUSH1 0xE5 SHL DUP2 MSTORE PUSH1 0x4 ADD PUSH2 0x54C SWAP1 PUSH2 0x4BE1 JUMP JUMPDEST PUSH1 0x1 PUSH1 0x1 PUSH1 0x80 SHL SUB DUP3 AND PUSH0 SWAP1 DUP2 MSTORE PUSH1 0x4 PUSH1 0x20 MSTORE PUSH1 0x40 SWAP1 KECCAK256 PUSH1 0x1 DUP2 ADD SLOAD PUSH1 0x1 PUSH1 0x1 PUSH1 0xA0 SHL SUB AND CALLER EQ PUSH2 0x33F7 JUMPI PUSH1 0x40 MLOAD PUSH3 0x461BCD PUSH1 0xE5 SHL DUP2 MSTORE PUSH1 0x20 PUSH1 0x4 DUP3 ADD MSTORE PUSH1 0xE PUSH1 0x24 DUP3 ADD MSTORE PUSH14 0x2737BA103CB7BAB91037B93232B9 PUSH1 0x91 SHL PUSH1 0x44 DUP3 ADD MSTORE PUSH1 0x64 ADD PUSH2 0x54C JUMP JUMPDEST PUSH0 PUSH1 0x5 DUP3 DUP2 ADD SLOAD PUSH1 0x1 PUSH1 0x80 SHL SWAP1 DIV PUSH1 0xFF AND SWAP1 DUP2 GT ISZERO PUSH2 0x3418 JUMPI PUSH2 0x3418 PUSH2 0x40B6 JUMP JUMPDEST EQ DUP1 PUSH2 0x3443 JUMPI POP PUSH1 0x1 PUSH1 0x5 DUP3 DUP2 ADD SLOAD PUSH1 0x1 PUSH1 0x80 SHL SWAP1 DIV PUSH1 0xFF AND SWAP1 DUP2 GT ISZERO PUSH2 0x3441 JUMPI PUSH2 0x3441 PUSH2 0x40B6 JUMP JUMPDEST EQ JUMPDEST PUSH2 0x348F JUMPI PUSH1 0x40 MLOAD PUSH3 0x461BCD PUSH1 0xE5 SHL DUP2 MSTORE PUSH1 0x20 PUSH1 0x4 DUP3 ADD MSTORE PUSH1 0x1B PUSH1 0x24 DUP3 ADD MSTORE PUSH32 0x43616E6E6F742063616E63656C20617420746869732073746167650000000000 PUSH1 0x44 DUP3 ADD MSTORE PUSH1 0x64 ADD PUSH2 0x54C JUMP JUMPDEST PUSH1 0x5 DUP2 ADD DUP1 SLOAD PUSH1 0x1 PUSH1 0x82 SHL PUSH1 0xFF PUSH1 0x80 SHL NOT DUP3 AND OR SWAP1 SWAP2 SSTORE PUSH2 0x34BA SWAP1 CALLER SWAP1 PUSH1 0x1 PUSH1 0x1 PUSH1 0x80 SHL SUB AND PUSH2 0x3C2E JUMP JUMPDEST PUSH1 0x40 DUP1 MLOAD PUSH1 0x1 PUSH1 0x1 PUSH1 0x80 SHL SUB DUP6 AND DUP2 MSTORE CALLER PUSH1 0x20 DUP3 ADD MSTORE PUSH32 0x1912970D6B925634E2CCFAFF5EDB3A3FA0F2B9F36FC281EB8266688B89606AC1 SWAP2 ADD PUSH1 0x40 MLOAD DUP1 SWAP2 SUB SWAP1 LOG1 PUSH1 0x5 DUP2 ADD SLOAD PUSH1 0x40 DUP1 MLOAD CALLER DUP2 MSTORE PUSH1 0x1 PUSH1 0x1 PUSH1 0x80 SHL SUB SWAP1 SWAP3 AND PUSH1 0x20 DUP4 ADD MSTORE PUSH32 0x1ACF2C59D6610CF0F250C9BC70ADB692B2319DE3640E791AB8A33A3B8931DF27 SWAP2 ADD PUSH2 0xFFD JUMP JUMPDEST PUSH1 0x1 PUSH1 0x1 PUSH1 0x80 SHL SUB DUP1 DUP4 AND PUSH0 SWAP1 DUP2 MSTORE PUSH1 0x4 PUSH1 0x20 MSTORE PUSH1 0x40 SWAP1 KECCAK256 PUSH1 0x2 ADD SLOAD AND PUSH1 0x1 DUP1 SLOAD PUSH1 0x40 MLOAD PUSH4 0x4C9BA321 PUSH1 0xE1 SHL DUP2 MSTORE CALLER PUSH1 0x4 DUP3 ADD MSTORE PUSH1 0x1 PUSH1 0x1 PUSH1 0xA0 SHL SUB SWAP1 SWAP2 AND SWAP1 PUSH4 0x99374642 SWAP1 PUSH1 0x24 ADD PUSH1 0x20 PUSH1 0x40 MLOAD DUP1 DUP4 SUB DUP2 DUP7 GAS STATICCALL ISZERO DUP1 ISZERO PUSH2 0x35A3 JUMPI RETURNDATASIZE PUSH0 PUSH0 RETURNDATACOPY RETURNDATASIZE PUSH0 REVERT JUMPDEST POP POP POP POP PUSH1 0x40 MLOAD RETURNDATASIZE PUSH1 0x1F NOT PUSH1 0x1F DUP3 ADD AND DUP3 ADD DUP1 PUSH1 0x40 MSTORE POP DUP2 ADD SWAP1 PUSH2 0x35C7 SWAP2 SWAP1 PUSH2 0x4B74 JUMP JUMPDEST PUSH1 0x2 DUP2 GT ISZERO PUSH2 0x35D8 JUMPI PUSH2 0x35D8 PUSH2 0x40B6 JUMP JUMPDEST EQ DUP1 ISZERO PUSH2 0x365E JUMPI POP PUSH1 0x1 SLOAD PUSH1 0x40 MLOAD PUSH4 0x1C51AF43 PUSH1 0xE3 SHL DUP2 MSTORE CALLER PUSH1 0x4 DUP3 ADD MSTORE PUSH1 0x1 PUSH1 0x1 PUSH1 0x80 SHL SUB DUP4 AND SWAP2 PUSH1 0x1 PUSH1 0x1 PUSH1 0xA0 SHL SUB AND SWAP1 PUSH4 0xE28D7A18 SWAP1 PUSH1 0x24 ADD PUSH1 0x20 PUSH1 0x40 MLOAD DUP1 DUP4 SUB DUP2 DUP7 GAS STATICCALL ISZERO DUP1 ISZERO PUSH2 0x362F JUMPI RETURNDATASIZE PUSH0 PUSH0 RETURNDATACOPY RETURNDATASIZE PUSH0 REVERT JUMPDEST POP POP POP POP PUSH1 0x40 MLOAD RETURNDATASIZE PUSH1 0x1F NOT PUSH1 0x1F DUP3 ADD AND DUP3 ADD DUP1 PUSH1 0x40 MSTORE POP DUP2 ADD SWAP1 PUSH2 0x3653 SWAP2 SWAP1 PUSH2 0x4C28 JUMP JUMPDEST PUSH1 0x1 PUSH1 0x1 PUSH1 0x80 SHL SUB AND EQ JUMPDEST DUP1 PUSH2 0x36E2 JUMPI POP PUSH1 0x1 SLOAD PUSH1 0x40 MLOAD PUSH4 0x4C9BA321 PUSH1 0xE1 SHL DUP2 MSTORE CALLER PUSH1 0x4 DUP3 ADD MSTORE PUSH1 0x2 SWAP2 PUSH1 0x1 PUSH1 0x1 PUSH1 0xA0 SHL SUB AND SWAP1 PUSH4 0x99374642 SWAP1 PUSH1 0x24 ADD PUSH1 0x20 PUSH1 0x40 MLOAD DUP1 DUP4 SUB DUP2 DUP7 GAS STATICCALL ISZERO DUP1 ISZERO PUSH2 0x36AB JUMPI RETURNDATASIZE PUSH0 PUSH0 RETURNDATACOPY RETURNDATASIZE PUSH0 REVERT JUMPDEST POP POP POP POP PUSH1 0x40 MLOAD RETURNDATASIZE PUSH1 0x1F NOT PUSH1 0x1F DUP3 ADD AND DUP3 ADD DUP1 PUSH1 0x40 MSTORE POP DUP2 ADD SWAP1 PUSH2 0x36CF SWAP2 SWAP1 PUSH2 0x4B74 JUMP JUMPDEST PUSH1 0x2 DUP2 GT ISZERO PUSH2 0x36E0 JUMPI PUSH2 0x36E0 PUSH2 0x40B6 JUMP JUMPDEST EQ JUMPDEST DUP1 PUSH2 0x3766 JUMPI POP PUSH1 0x1 SLOAD PUSH1 0x40 MLOAD PUSH4 0xABCA88F PUSH1 0xE4 SHL DUP2 MSTORE PUSH1 0x1 PUSH1 0x1 PUSH1 0x80 SHL SUB DUP4 AND PUSH1 0x4 DUP3 ADD MSTORE CALLER SWAP2 PUSH1 0x1 PUSH1 0x1 PUSH1 0xA0 SHL SUB AND SWAP1 PUSH4 0xABCA88F0 SWAP1 PUSH1 0x24 ADD PUSH1 0x20 PUSH1 0x40 MLOAD DUP1 DUP4 SUB DUP2 DUP7 GAS STATICCALL ISZERO DUP1 ISZERO PUSH2 0x3737 JUMPI RETURNDATASIZE PUSH0 PUSH0 RETURNDATACOPY RETURNDATASIZE PUSH0 REVERT JUMPDEST POP POP POP POP PUSH1 0x40 MLOAD RETURNDATASIZE PUSH1 0x1F NOT PUSH1 0x1F DUP3 ADD AND DUP3 ADD DUP1 PUSH1 0x40 MSTORE POP DUP2 ADD SWAP1 PUSH2 0x375B SWAP2 SWAP1 PUSH2 0x47F9 JUMP JUMPDEST PUSH1 0x1 PUSH1 0x1 PUSH1 0xA0 SHL SUB AND EQ JUMPDEST PUSH2 0x37C4 JUMPI PUSH1 0x40 MLOAD PUSH3 0x461BCD PUSH1 0xE5 SHL DUP2 MSTORE PUSH1 0x20 PUSH1 0x4 DUP3 ADD MSTORE PUSH1 0x29 PUSH1 0x24 DUP3 ADD MSTORE PUSH32 0x556E617574686F72697A65643A2053746166662C2041646D696E2C206F72204F PUSH1 0x44 DUP3 ADD MSTORE PUSH9 0x776E6572206F6E6C79 PUSH1 0xB8 SHL PUSH1 0x64 DUP3 ADD MSTORE PUSH1 0x84 ADD PUSH2 0x54C JUMP JUMPDEST PUSH2 0x37CC PUSH2 0x3BD7 JUMP JUMPDEST DUP3 PUSH0 DUP2 PUSH1 0x1 PUSH1 0x1 PUSH1 0x80 SHL SUB AND GT DUP1 ISZERO PUSH2 0x37F3 JUMPI POP PUSH1 0x3 SLOAD PUSH1 0x1 PUSH1 0x1 PUSH1 0x80 SHL SUB SWAP1 DUP2 AND SWAP1 DUP3 AND LT JUMPDEST PUSH2 0x380F JUMPI PUSH1 0x40 MLOAD PUSH3 0x461BCD PUSH1 0xE5 SHL DUP2 MSTORE PUSH1 0x4 ADD PUSH2 0x54C SWAP1 PUSH2 0x4BE1 JUMP JUMPDEST PUSH1 0x1 PUSH1 0x1 PUSH1 0x80 SHL SUB DUP5 AND PUSH0 SWAP1 DUP2 MSTORE PUSH1 0x4 PUSH1 0x20 DUP2 SWAP1 MSTORE PUSH1 0x40 SWAP1 SWAP2 KECCAK256 SWAP1 PUSH1 0x5 DUP3 DUP2 ADD SLOAD PUSH1 0x1 PUSH1 0x80 SHL SWAP1 DIV PUSH1 0xFF AND SWAP1 DUP2 GT ISZERO PUSH2 0x384A JUMPI PUSH2 0x384A PUSH2 0x40B6 JUMP JUMPDEST SUB PUSH2 0x388C JUMPI PUSH1 0x40 MLOAD PUSH3 0x461BCD PUSH1 0xE5 SHL DUP2 MSTORE PUSH1 0x20 PUSH1 0x4 DUP3 ADD MSTORE PUSH1 0x12 PUSH1 0x24 DUP3 ADD MSTORE PUSH18 0x13DC99195C881A5CC818D85B98D95B1B1959 PUSH1 0x72 SHL PUSH1 0x44 DUP3 ADD MSTORE PUSH1 0x64 ADD PUSH2 0x54C JUMP JUMPDEST PUSH1 0x5 DUP1 DUP3 DUP2 ADD SLOAD PUSH1 0x1 PUSH1 0x80 SHL SWAP1 DIV PUSH1 0xFF AND SWAP1 DUP2 GT ISZERO PUSH2 0x38AD JUMPI PUSH2 0x38AD PUSH2 0x40B6 JUMP JUMPDEST SUB PUSH2 0x38FA JUMPI PUSH1 0x40 MLOAD PUSH3 0x461BCD PUSH1 0xE5 SHL DUP2 MSTORE PUSH1 0x20 PUSH1 0x4 DUP3 ADD MSTORE PUSH1 0x17 PUSH1 0x24 DUP3 ADD MSTORE PUSH32 0x4F7264657220616C726561647920636F6D706C65746564000000000000000000 PUSH1 0x44 DUP3 ADD MSTORE PUSH1 0x64 ADD PUSH2 0x54C JUMP JUMPDEST PUSH1 0x1 DUP5 PUSH1 0x5 DUP2 GT ISZERO PUSH2 0x390E JUMPI PUSH2 0x390E PUSH2 0x40B6 JUMP JUMPDEST SUB PUSH2 0x3983 JUMPI PUSH0 JUMPDEST PUSH1 0x5 DUP3 DUP2 ADD SLOAD PUSH1 0x1 PUSH1 0x80 SHL SWAP1 DIV PUSH1 0xFF AND SWAP1 DUP2 GT ISZERO PUSH2 0x3935 JUMPI PUSH2 0x3935 PUSH2 0x40B6 JUMP JUMPDEST EQ PUSH2 0x397E JUMPI PUSH1 0x40 MLOAD PUSH3 0x461BCD PUSH1 0xE5 SHL DUP2 MSTORE PUSH1 0x20 PUSH1 0x4 DUP3 ADD MSTORE PUSH1 0x19 PUSH1 0x24 DUP3 ADD MSTORE PUSH25 0x24B73B30B634B21039BA30BA3AB9903A3930B739B4BA34B7B7 PUSH1 0x39 SHL PUSH1 0x44 DUP3 ADD MSTORE PUSH1 0x64 ADD PUSH2 0x54C JUMP JUMPDEST PUSH2 0x3A74 JUMP JUMPDEST PUSH1 0x2 DUP5 PUSH1 0x5 DUP2 GT ISZERO PUSH2 0x3997 JUMPI PUSH2 0x3997 PUSH2 0x40B6 JUMP JUMPDEST SUB PUSH2 0x3A14 JUMPI PUSH0 JUMPDEST PUSH1 0x5 DUP3 DUP2 ADD SLOAD PUSH1 0x1 PUSH1 0x80 SHL SWAP1 DIV PUSH1 0xFF AND SWAP1 DUP2 GT ISZERO PUSH2 0x39BE JUMPI PUSH2 0x39BE PUSH2 0x40B6 JUMP JUMPDEST EQ DUP1 PUSH2 0x39CC JUMPI POP PUSH1 0x1 PUSH2 0x3915 JUMP JUMPDEST PUSH2 0x397E JUMPI PUSH1 0x40 MLOAD PUSH3 0x461BCD PUSH1 0xE5 SHL DUP2 MSTORE PUSH1 0x20 PUSH1 0x4 DUP3 ADD MSTORE PUSH1 0x19 PUSH1 0x24 DUP3 ADD MSTORE PUSH25 0x24B73B30B634B21039BA30BA3AB9903A3930B739B4BA34B7B7 PUSH1 0x39 SHL PUSH1 0x44 DUP3 ADD MSTORE PUSH1 0x64 ADD PUSH2 0x54C JUMP JUMPDEST PUSH1 0x3 DUP5 PUSH1 0x5 DUP2 GT ISZERO PUSH2 0x3A28 JUMPI PUSH2 0x3A28 PUSH2 0x40B6 JUMP JUMPDEST SUB PUSH2 0x3A34 JUMPI PUSH1 0x2 PUSH2 0x399E JUMP JUMPDEST PUSH1 0x40 MLOAD PUSH3 0x461BCD PUSH1 0xE5 SHL DUP2 MSTORE PUSH1 0x20 PUSH1 0x4 DUP3 ADD MSTORE PUSH1 0x15 PUSH1 0x24 DUP3 ADD MSTORE PUSH21 0x496E76616C69642073746174757320757064617465 PUSH1 0x58 SHL PUSH1 0x44 DUP3 ADD MSTORE PUSH1 0x64 ADD PUSH2 0x54C JUMP JUMPDEST DUP4 DUP2 PUSH1 0x5 ADD PUSH1 0x10 PUSH2 0x100 EXP DUP2 SLOAD DUP2 PUSH1 0xFF MUL NOT AND SWAP1 DUP4 PUSH1 0x5 DUP2 GT ISZERO PUSH2 0x3A9A JUMPI PUSH2 0x3A9A PUSH2 0x40B6 JUMP JUMPDEST MUL OR SWAP1 SSTORE POP PUSH32 0x398E222575905CAECECB6CA7C365B9049ABF41CC7CC060EC170A711233F32D08 DUP6 DUP6 PUSH1 0x40 MLOAD PUSH2 0x3AD0 SWAP3 SWAP2 SWAP1 PUSH2 0x4C0B JUMP JUMPDEST PUSH1 0x40 MLOAD DUP1 SWAP2 SUB SWAP1 LOG1 POP POP PUSH2 0x2BD8 PUSH1 0x1 PUSH0 SSTORE JUMP JUMPDEST PUSH1 0xA PUSH1 0x20 MSTORE DUP2 PUSH0 MSTORE PUSH1 0x40 PUSH0 KECCAK256 DUP2 DUP2 SLOAD DUP2 LT PUSH2 0x3AFC JUMPI PUSH0 DUP1 REVERT JUMPDEST PUSH0 SWAP2 DUP3 MSTORE PUSH1 0x20 SWAP1 SWAP2 KECCAK256 PUSH1 0x4 SWAP1 SWAP2 MUL ADD DUP1 SLOAD PUSH1 0x1 DUP3 ADD SLOAD PUSH1 0x2 DUP4 ADD DUP1 SLOAD PUSH1 0x1 PUSH1 0x1 PUSH1 0xA0 SHL SUB SWAP1 SWAP4 AND SWAP6 POP PUSH1 0x1 PUSH1 0x1 PUSH1 0x80 SHL SUB DUP3 AND SWAP5 POP PUSH1 0x1 PUSH1 0x80 SHL SWAP1 SWAP2 DIV PUSH1 0xFF AND SWAP3 SWAP2 PUSH2 0x3B47 SWAP1 PUSH2 0x4B3C JUMP JUMPDEST DUP1 PUSH1 0x1F ADD PUSH1 0x20 DUP1 SWAP2 DIV MUL PUSH1 0x20 ADD PUSH1 0x40 MLOAD SWAP1 DUP2 ADD PUSH1 0x40 MSTORE DUP1 SWAP3 SWAP2 SWAP1 DUP2 DUP2 MSTORE PUSH1 0x20 ADD DUP3 DUP1 SLOAD PUSH2 0x3B73 SWAP1 PUSH2 0x4B3C JUMP JUMPDEST DUP1 ISZERO PUSH2 0x3BBE JUMPI DUP1 PUSH1 0x1F LT PUSH2 0x3B95 JUMPI PUSH2 0x100 DUP1 DUP4 SLOAD DIV MUL DUP4 MSTORE SWAP2 PUSH1 0x20 ADD SWAP2 PUSH2 0x3BBE JUMP JUMPDEST DUP3 ADD SWAP2 SWAP1 PUSH0 MSTORE PUSH1 0x20 PUSH0 KECCAK256 SWAP1 JUMPDEST DUP2 SLOAD DUP2 MSTORE SWAP1 PUSH1 0x1 ADD SWAP1 PUSH1 0x20 ADD DUP1 DUP4 GT PUSH2 0x3BA1 JUMPI DUP3 SWAP1 SUB PUSH1 0x1F AND DUP3 ADD SWAP2 JUMPDEST POP POP POP PUSH1 0x3 SWAP1 SWAP4 ADD SLOAD SWAP2 SWAP3 POP POP PUSH1 0x1 PUSH1 0x1 PUSH1 0x80 SHL SUB AND DUP6 JUMP JUMPDEST PUSH1 0x2 PUSH0 SLOAD SUB PUSH2 0x3C28 JUMPI PUSH1 0x40 MLOAD PUSH3 0x461BCD PUSH1 0xE5 SHL DUP2 MSTORE PUSH1 0x20 PUSH1 0x4 DUP3 ADD MSTORE PUSH1 0x1F PUSH1 0x24 DUP3 ADD MSTORE PUSH32 0x5265656E7472616E637947756172643A207265656E7472616E742063616C6C00 PUSH1 0x44 DUP3 ADD MSTORE PUSH1 0x64 ADD PUSH2 0x54C JUMP JUMPDEST PUSH1 0x2 PUSH0 SSTORE JUMP JUMPDEST DUP1 SELFBALANCE LT ISZERO PUSH2 0x3C58 JUMPI PUSH1 0x40 MLOAD PUSH4 0xCF479181 PUSH1 0xE0 SHL DUP2 MSTORE SELFBALANCE PUSH1 0x4 DUP3 ADD MSTORE PUSH1 0x24 DUP2 ADD DUP3 SWAP1 MSTORE PUSH1 0x44 ADD PUSH2 0x54C JUMP JUMPDEST PUSH0 PUSH0 DUP4 PUSH1 0x1 PUSH1 0x1 PUSH1 0xA0 SHL SUB AND DUP4 PUSH1 0x40 MLOAD PUSH0 PUSH1 0x40 MLOAD DUP1 DUP4 SUB DUP2 DUP6 DUP8 GAS CALL SWAP3 POP POP POP RETURNDATASIZE DUP1 PUSH0 DUP2 EQ PUSH2 0x3CA2 JUMPI PUSH1 0x40 MLOAD SWAP2 POP PUSH1 0x1F NOT PUSH1 0x3F RETURNDATASIZE ADD AND DUP3 ADD PUSH1 0x40 MSTORE RETURNDATASIZE DUP3 MSTORE RETURNDATASIZE PUSH0 PUSH1 0x20 DUP5 ADD RETURNDATACOPY PUSH2 0x3CA7 JUMP JUMPDEST PUSH1 0x60 SWAP2 POP JUMPDEST POP SWAP2 POP SWAP2 POP DUP2 PUSH2 0x3CBA JUMPI PUSH2 0x3CBA DUP2 PUSH2 0x3CC0 JUMP JUMPDEST POP POP POP POP JUMP JUMPDEST DUP1 MLOAD ISZERO PUSH2 0x3CD0 JUMPI DUP1 MLOAD DUP1 DUP3 PUSH1 0x20 ADD REVERT JUMPDEST PUSH1 0x40 MLOAD PUSH4 0xD6BDA275 PUSH1 0xE0 SHL DUP2 MSTORE PUSH1 0x4 ADD PUSH1 0x40 MLOAD DUP1 SWAP2 SUB SWAP1 REVERT JUMPDEST PUSH1 0x40 DUP1 MLOAD PUSH2 0x100 DUP2 ADD DUP3 MSTORE PUSH0 DUP1 DUP3 MSTORE PUSH1 0x20 DUP3 ADD DUP2 SWAP1 MSTORE SWAP2 DUP2 ADD DUP3 SWAP1 MSTORE PUSH1 0x60 DUP1 DUP3 ADD DUP2 SWAP1 MSTORE PUSH1 0x80 DUP3 ADD MSTORE PUSH1 0xA0 DUP2 ADD DUP3 SWAP1 MSTORE SWAP1 PUSH1 0xC0 DUP3 ADD SWAP1 DUP2 MSTORE PUSH0 PUSH1 0x20 SWAP1 SWAP2 ADD MSTORE SWAP1 JUMP JUMPDEST DUP3 DUP1 SLOAD DUP3 DUP3 SSTORE SWAP1 PUSH0 MSTORE PUSH1 0x20 PUSH0 KECCAK256 SWAP1 PUSH1 0x1 ADD PUSH1 0x2 SWAP1 DIV DUP2 ADD SWAP3 DUP3 ISZERO PUSH2 0x3DD0 JUMPI SWAP2 PUSH1 0x20 MUL DUP3 ADD PUSH0 JUMPDEST DUP4 DUP3 GT ISZERO PUSH2 0x3D9B JUMPI DUP4 MLOAD DUP4 DUP3 PUSH2 0x100 EXP DUP2 SLOAD DUP2 PUSH1 0x1 PUSH1 0x1 PUSH1 0x80 SHL SUB MUL NOT AND SWAP1 DUP4 PUSH1 0x1 PUSH1 0x1 PUSH1 0x80 SHL SUB AND MUL OR SWAP1 SSTORE POP SWAP3 PUSH1 0x20 ADD SWAP3 PUSH1 0x10 ADD PUSH1 0x20 DUP2 PUSH1 0xF ADD DIV SWAP3 DUP4 ADD SWAP3 PUSH1 0x1 SUB MUL PUSH2 0x3D51 JUMP JUMPDEST DUP1 ISZERO PUSH2 0x3DCE JUMPI DUP3 DUP2 PUSH2 0x100 EXP DUP2 SLOAD SWAP1 PUSH1 0x1 PUSH1 0x1 PUSH1 0x80 SHL SUB MUL NOT AND SWAP1 SSTORE PUSH1 0x10 ADD PUSH1 0x20 DUP2 PUSH1 0xF ADD DIV SWAP3 DUP4 ADD SWAP3 PUSH1 0x1 SUB MUL PUSH2 0x3D9B JUMP JUMPDEST POP JUMPDEST POP PUSH2 0x3DDC SWAP3 SWAP2 POP PUSH2 0x3DE0 JUMP JUMPDEST POP SWAP1 JUMP JUMPDEST JUMPDEST DUP1 DUP3 GT ISZERO PUSH2 0x3DDC JUMPI PUSH0 DUP2 SSTORE PUSH1 0x1 ADD PUSH2 0x3DE1 JUMP JUMPDEST PUSH1 0x1 PUSH1 0x1 PUSH1 0x80 SHL SUB DUP2 AND DUP2 EQ PUSH2 0x1010 JUMPI PUSH0 PUSH0 REVERT JUMPDEST PUSH4 0x4E487B71 PUSH1 0xE0 SHL PUSH0 MSTORE PUSH1 0x41 PUSH1 0x4 MSTORE PUSH1 0x24 PUSH0 REVERT JUMPDEST PUSH1 0x40 MLOAD PUSH2 0x160 DUP2 ADD PUSH1 0x1 PUSH1 0x1 PUSH1 0x40 SHL SUB DUP2 GT DUP3 DUP3 LT OR ISZERO PUSH2 0x3E3F JUMPI PUSH2 0x3E3F PUSH2 0x3E08 JUMP JUMPDEST PUSH1 0x40 MSTORE SWAP1 JUMP JUMPDEST PUSH1 0x40 MLOAD PUSH1 0x1F DUP3 ADD PUSH1 0x1F NOT AND DUP2 ADD PUSH1 0x1 PUSH1 0x1 PUSH1 0x40 SHL SUB DUP2 GT DUP3 DUP3 LT OR ISZERO PUSH2 0x3E6D JUMPI PUSH2 0x3E6D PUSH2 0x3E08 JUMP JUMPDEST PUSH1 0x40 MSTORE SWAP2 SWAP1 POP JUMP JUMPDEST PUSH0 DUP3 PUSH1 0x1F DUP4 ADD SLT PUSH2 0x3E84 JUMPI PUSH0 PUSH0 REVERT JUMPDEST DUP2 CALLDATALOAD PUSH1 0x1 PUSH1 0x1 PUSH1 0x40 SHL SUB DUP2 GT ISZERO PUSH2 0x3E9D JUMPI PUSH2 0x3E9D PUSH2 0x3E08 JUMP JUMPDEST DUP1 PUSH1 0x5 SHL PUSH2 0x3EAD PUSH1 0x20 DUP3 ADD PUSH2 0x3E45 JUMP JUMPDEST SWAP2 DUP3 MSTORE PUSH1 0x20 DUP2 DUP6 ADD DUP2 ADD SWAP3 SWAP1 DUP2 ADD SWAP1 DUP7 DUP5 GT ISZERO PUSH2 0x3EC8 JUMPI PUSH0 PUSH0 REVERT JUMPDEST PUSH1 0x20 DUP7 ADD SWAP3 POP JUMPDEST DUP4 DUP4 LT ISZERO PUSH2 0x3EF3 JUMPI DUP3 CALLDATALOAD PUSH2 0x3EE2 DUP2 PUSH2 0x3DF4 JUMP JUMPDEST DUP3 MSTORE PUSH1 0x20 SWAP3 DUP4 ADD SWAP3 SWAP1 SWAP2 ADD SWAP1 PUSH2 0x3ECF JUMP JUMPDEST SWAP7 SWAP6 POP POP POP POP POP POP JUMP JUMPDEST PUSH0 PUSH0 PUSH0 PUSH1 0x60 DUP5 DUP7 SUB SLT ISZERO PUSH2 0x3F0F JUMPI PUSH0 PUSH0 REVERT JUMPDEST DUP4 CALLDATALOAD PUSH2 0x3F1A DUP2 PUSH2 0x3DF4 JUMP JUMPDEST SWAP3 POP PUSH1 0x20 DUP5 ADD CALLDATALOAD PUSH1 0x1 PUSH1 0x1 PUSH1 0x40 SHL SUB DUP2 GT ISZERO PUSH2 0x3F34 JUMPI PUSH0 PUSH0 REVERT JUMPDEST PUSH2 0x3F40 DUP7 DUP3 DUP8 ADD PUSH2 0x3E75 JUMP JUMPDEST SWAP3 POP POP PUSH1 0x40 DUP5 ADD CALLDATALOAD PUSH1 0x1 PUSH1 0x1 PUSH1 0x40 SHL SUB DUP2 GT ISZERO PUSH2 0x3F5B JUMPI PUSH0 PUSH0 REVERT JUMPDEST PUSH2 0x3F67 DUP7 DUP3 DUP8 ADD PUSH2 0x3E75 JUMP JUMPDEST SWAP2 POP POP SWAP3 POP SWAP3 POP SWAP3 JUMP JUMPDEST PUSH1 0x1 PUSH1 0x1 PUSH1 0xA0 SHL SUB DUP2 AND DUP2 EQ PUSH2 0x1010 JUMPI PUSH0 PUSH0 REVERT JUMPDEST PUSH0 PUSH0 PUSH1 0x40 DUP4 DUP6 SUB SLT ISZERO PUSH2 0x3F96 JUMPI PUSH0 PUSH0 REVERT JUMPDEST DUP3 CALLDATALOAD PUSH2 0x3FA1 DUP2 PUSH2 0x3F71 JUMP JUMPDEST SWAP5 PUSH1 0x20 SWAP4 SWAP1 SWAP4 ADD CALLDATALOAD SWAP4 POP POP POP JUMP JUMPDEST PUSH0 DUP2 MLOAD DUP1 DUP5 MSTORE DUP1 PUSH1 0x20 DUP5 ADD PUSH1 0x20 DUP7 ADD MCOPY PUSH0 PUSH1 0x20 DUP3 DUP7 ADD ADD MSTORE PUSH1 0x20 PUSH1 0x1F NOT PUSH1 0x1F DUP4 ADD AND DUP6 ADD ADD SWAP2 POP POP SWAP3 SWAP2 POP POP JUMP JUMPDEST PUSH1 0x1 PUSH1 0x1 PUSH1 0xA0 SHL SUB DUP8 DUP2 AND DUP3 MSTORE DUP7 AND PUSH1 0x20 DUP3 ADD MSTORE PUSH1 0x1 PUSH1 0x1 PUSH1 0x80 SHL SUB DUP6 AND PUSH1 0x40 DUP3 ADD MSTORE PUSH1 0xFF DUP5 AND PUSH1 0x60 DUP3 ADD MSTORE PUSH1 0xC0 PUSH1 0x80 DUP3 ADD DUP2 SWAP1 MSTORE PUSH0 SWAP1 PUSH2 0x4020 SWAP1 DUP4 ADD DUP6 PUSH2 0x3FAF JUMP JUMPDEST SWAP1 POP PUSH1 0x1 PUSH1 0x1 PUSH1 0x80 SHL SUB DUP4 AND PUSH1 0xA0 DUP4 ADD MSTORE SWAP8 SWAP7 POP POP POP POP POP POP POP JUMP JUMPDEST PUSH0 PUSH0 PUSH1 0x40 DUP4 DUP6 SUB SLT ISZERO PUSH2 0x404D JUMPI PUSH0 PUSH0 REVERT JUMPDEST DUP3 CALLDATALOAD PUSH2 0x4058 DUP2 PUSH2 0x3DF4 JUMP JUMPDEST SWAP2 POP PUSH1 0x20 DUP4 ADD CALLDATALOAD PUSH2 0x4068 DUP2 PUSH2 0x3DF4 JUMP JUMPDEST DUP1 SWAP2 POP POP SWAP3 POP SWAP3 SWAP1 POP JUMP JUMPDEST PUSH0 DUP2 MLOAD DUP1 DUP5 MSTORE PUSH1 0x20 DUP5 ADD SWAP4 POP PUSH1 0x20 DUP4 ADD PUSH0 JUMPDEST DUP3 DUP2 LT ISZERO PUSH2 0x40AC JUMPI DUP2 MLOAD PUSH1 0x1 PUSH1 0x1 PUSH1 0x80 SHL SUB AND DUP7 MSTORE PUSH1 0x20 SWAP6 DUP7 ADD SWAP6 SWAP1 SWAP2 ADD SWAP1 PUSH1 0x1 ADD PUSH2 0x4085 JUMP JUMPDEST POP SWAP4 SWAP5 SWAP4 POP POP POP POP JUMP JUMPDEST PUSH4 0x4E487B71 PUSH1 0xE0 SHL PUSH0 MSTORE PUSH1 0x21 PUSH1 0x4 MSTORE PUSH1 0x24 PUSH0 REVERT JUMPDEST PUSH1 0x6 DUP2 LT PUSH2 0x40E6 JUMPI PUSH4 0x4E487B71 PUSH1 0xE0 SHL PUSH0 MSTORE PUSH1 0x21 PUSH1 0x4 MSTORE PUSH1 0x24 PUSH0 REVERT JUMPDEST SWAP1 MSTORE JUMP JUMPDEST PUSH1 0x1 PUSH1 0x1 PUSH1 0x80 SHL SUB DUP2 MLOAD AND DUP3 MSTORE PUSH0 PUSH1 0x20 DUP3 ADD MLOAD PUSH2 0x4112 PUSH1 0x20 DUP6 ADD DUP3 PUSH1 0x1 PUSH1 0x1 PUSH1 0xA0 SHL SUB AND SWAP1 MSTORE JUMP JUMPDEST POP PUSH1 0x40 DUP3 ADD MLOAD PUSH2 0x412D PUSH1 0x40 DUP6 ADD DUP3 PUSH1 0x1 PUSH1 0x1 PUSH1 0x80 SHL SUB AND SWAP1 MSTORE JUMP JUMPDEST POP PUSH1 0x60 DUP3 ADD MLOAD PUSH2 0x100 PUSH1 0x60 DUP6 ADD MSTORE PUSH2 0x4149 PUSH2 0x100 DUP6 ADD DUP3 PUSH2 0x4073 JUMP JUMPDEST SWAP1 POP PUSH1 0x80 DUP4 ADD MLOAD DUP5 DUP3 SUB PUSH1 0x80 DUP7 ADD MSTORE PUSH2 0x4162 DUP3 DUP3 PUSH2 0x4073 JUMP JUMPDEST SWAP2 POP POP PUSH1 0xA0 DUP4 ADD MLOAD PUSH2 0x417F PUSH1 0xA0 DUP7 ADD DUP3 PUSH1 0x1 PUSH1 0x1 PUSH1 0x80 SHL SUB AND SWAP1 MSTORE JUMP JUMPDEST POP PUSH1 0xC0 DUP4 ADD MLOAD PUSH2 0x4192 PUSH1 0xC0 DUP7 ADD DUP3 PUSH2 0x40CA JUMP JUMPDEST POP PUSH1 0xE0 DUP4 ADD MLOAD PUSH2 0x41AD PUSH1 0xE0 DUP7 ADD DUP3 PUSH1 0x1 PUSH1 0x1 PUSH1 0x80 SHL SUB AND SWAP1 MSTORE JUMP JUMPDEST POP SWAP4 SWAP3 POP POP POP JUMP JUMPDEST PUSH0 PUSH1 0x20 DUP3 ADD PUSH1 0x20 DUP4 MSTORE DUP1 DUP5 MLOAD DUP1 DUP4 MSTORE PUSH1 0x40 DUP6 ADD SWAP2 POP PUSH1 0x40 DUP2 PUSH1 0x5 SHL DUP7 ADD ADD SWAP3 POP PUSH1 0x20 DUP7 ADD PUSH0 JUMPDEST DUP3 DUP2 LT ISZERO PUSH2 0x420C JUMPI PUSH1 0x3F NOT DUP8 DUP7 SUB ADD DUP5 MSTORE PUSH2 0x41F7 DUP6 DUP4 MLOAD PUSH2 0x40EA JUMP JUMPDEST SWAP5 POP PUSH1 0x20 SWAP4 DUP5 ADD SWAP4 SWAP2 SWAP1 SWAP2 ADD SWAP1 PUSH1 0x1 ADD PUSH2 0x41DB JUMP JUMPDEST POP SWAP3 SWAP7 SWAP6 POP POP POP POP POP POP JUMP JUMPDEST PUSH0 PUSH1 0x20 DUP3 DUP5 SUB SLT ISZERO PUSH2 0x4228 JUMPI PUSH0 PUSH0 REVERT JUMPDEST DUP2 CALLDATALOAD PUSH2 0x7F9 DUP2 PUSH2 0x3DF4 JUMP JUMPDEST PUSH1 0xFF DUP2 AND DUP2 EQ PUSH2 0x1010 JUMPI PUSH0 PUSH0 REVERT JUMPDEST PUSH0 PUSH1 0x1 PUSH1 0x1 PUSH1 0x40 SHL SUB DUP3 GT ISZERO PUSH2 0x4259 JUMPI PUSH2 0x4259 PUSH2 0x3E08 JUMP JUMPDEST POP PUSH1 0x1F ADD PUSH1 0x1F NOT AND PUSH1 0x20 ADD SWAP1 JUMP JUMPDEST PUSH0 DUP3 PUSH1 0x1F DUP4 ADD SLT PUSH2 0x4276 JUMPI PUSH0 PUSH0 REVERT JUMPDEST DUP2 CALLDATALOAD PUSH2 0x4289 PUSH2 0x4284 DUP3 PUSH2 0x4241 JUMP JUMPDEST PUSH2 0x3E45 JUMP JUMPDEST DUP2 DUP2 MSTORE DUP5 PUSH1 0x20 DUP4 DUP7 ADD ADD GT ISZERO PUSH2 0x429D JUMPI PUSH0 PUSH0 REVERT JUMPDEST DUP2 PUSH1 0x20 DUP6 ADD PUSH1 0x20 DUP4 ADD CALLDATACOPY PUSH0 SWAP2 DUP2 ADD PUSH1 0x20 ADD SWAP2 SWAP1 SWAP2 MSTORE SWAP4 SWAP3 POP POP POP JUMP JUMPDEST PUSH0 PUSH0 PUSH0 PUSH0 PUSH1 0x80 DUP6 DUP8 SUB SLT ISZERO PUSH2 0x42CC JUMPI PUSH0 PUSH0 REVERT JUMPDEST DUP5 CALLDATALOAD PUSH2 0x42D7 DUP2 PUSH2 0x3F71 JUMP JUMPDEST SWAP4 POP PUSH1 0x20 DUP6 ADD CALLDATALOAD PUSH2 0x42E7 DUP2 PUSH2 0x3DF4 JUMP JUMPDEST SWAP3 POP PUSH1 0x40 DUP6 ADD CALLDATALOAD PUSH2 0x42F7 DUP2 PUSH2 0x4233 JUMP JUMPDEST SWAP2 POP PUSH1 0x60 DUP6 ADD CALLDATALOAD PUSH1 0x1 PUSH1 0x1 PUSH1 0x40 SHL SUB DUP2 GT ISZERO PUSH2 0x4311 JUMPI PUSH0 PUSH0 REVERT JUMPDEST PUSH2 0x431D DUP8 DUP3 DUP9 ADD PUSH2 0x4267 JUMP JUMPDEST SWAP2 POP POP SWAP3 SWAP6 SWAP2 SWAP5 POP SWAP3 POP JUMP JUMPDEST PUSH0 PUSH0 PUSH0 PUSH1 0x60 DUP5 DUP7 SUB SLT ISZERO PUSH2 0x433B JUMPI PUSH0 PUSH0 REVERT JUMPDEST DUP4 CALLDATALOAD PUSH2 0x4346 DUP2 PUSH2 0x3DF4 JUMP JUMPDEST SWAP3 POP PUSH1 0x20 DUP5 ADD CALLDATALOAD PUSH2 0x4356 DUP2 PUSH2 0x4233 JUMP JUMPDEST SWAP2 POP PUSH1 0x40 DUP5 ADD CALLDATALOAD PUSH1 0x1 PUSH1 0x1 PUSH1 0x40 SHL SUB DUP2 GT ISZERO PUSH2 0x4370 JUMPI PUSH0 PUSH0 REVERT JUMPDEST PUSH2 0x3F67 DUP7 DUP3 DUP8 ADD PUSH2 0x4267 JUMP JUMPDEST PUSH0 PUSH0 PUSH1 0x40 DUP4 DUP6 SUB SLT ISZERO PUSH2 0x438D JUMPI PUSH0 PUSH0 REVERT JUMPDEST DUP3 CALLDATALOAD PUSH2 0x3FA1 DUP2 PUSH2 0x3DF4 JUMP JUMPDEST PUSH1 0x1 PUSH1 0x1 PUSH1 0x80 SHL SUB DUP6 AND DUP2 MSTORE PUSH1 0x1 PUSH1 0x1 PUSH1 0x80 SHL SUB DUP5 AND PUSH1 0x20 DUP3 ADD MSTORE PUSH1 0x1 PUSH1 0x1 PUSH1 0x80 SHL SUB DUP4 AND PUSH1 0x40 DUP3 ADD MSTORE PUSH1 0x80 PUSH1 0x60 DUP3 ADD MSTORE PUSH0 PUSH2 0x3EF3 PUSH1 0x80 DUP4 ADD DUP5 PUSH2 0x3FAF JUMP JUMPDEST PUSH1 0x60 DUP2 MSTORE PUSH0 PUSH2 0x43E9 PUSH1 0x60 DUP4 ADD DUP7 PUSH2 0x40EA JUMP JUMPDEST DUP3 DUP2 SUB PUSH1 0x20 DUP5 ADD MSTORE DUP1 DUP6 MLOAD DUP1 DUP4 MSTORE PUSH1 0x20 DUP4 ADD SWAP2 POP PUSH1 0x20 DUP2 PUSH1 0x5 SHL DUP5 ADD ADD PUSH1 0x20 DUP9 ADD PUSH0 JUMPDEST DUP4 DUP2 LT ISZERO PUSH2 0x454F JUMPI DUP6 DUP4 SUB PUSH1 0x1F NOT ADD DUP6 MSTORE DUP2 MLOAD DUP1 MLOAD PUSH1 0x1 PUSH1 0x1 PUSH1 0x80 SHL SUB AND DUP5 MSTORE PUSH1 0x20 DUP2 ADD MLOAD PUSH2 0x4446 PUSH1 0x20 DUP7 ADD DUP3 PUSH1 0x1 PUSH1 0x1 PUSH1 0x80 SHL SUB AND SWAP1 MSTORE JUMP JUMPDEST POP PUSH1 0x40 DUP2 ADD MLOAD PUSH2 0x160 PUSH1 0x40 DUP7 ADD MSTORE PUSH2 0x4462 PUSH2 0x160 DUP7 ADD DUP3 PUSH2 0x3FAF JUMP JUMPDEST SWAP1 POP PUSH1 0x60 DUP3 ADD MLOAD DUP6 DUP3 SUB PUSH1 0x60 DUP8 ADD MSTORE PUSH2 0x447B DUP3 DUP3 PUSH2 0x3FAF JUMP JUMPDEST SWAP2 POP POP PUSH1 0x80 DUP3 ADD MLOAD DUP6 DUP3 SUB PUSH1 0x80 DUP8 ADD MSTORE PUSH2 0x4495 DUP3 DUP3 PUSH2 0x3FAF JUMP JUMPDEST SWAP2 POP POP PUSH1 0xA0 DUP3 ADD MLOAD PUSH2 0x44B2 PUSH1 0xA0 DUP8 ADD DUP3 PUSH1 0x1 PUSH1 0x1 PUSH1 0x80 SHL SUB AND SWAP1 MSTORE JUMP JUMPDEST POP PUSH1 0xC0 DUP3 ADD MLOAD PUSH2 0x44C6 PUSH1 0xC0 DUP8 ADD DUP3 ISZERO ISZERO SWAP1 MSTORE JUMP JUMPDEST POP PUSH1 0xE0 DUP3 ADD MLOAD DUP6 DUP3 SUB PUSH1 0xE0 DUP8 ADD MSTORE PUSH2 0x44DE DUP3 DUP3 PUSH2 0x3FAF JUMP JUMPDEST SWAP2 POP POP PUSH2 0x100 DUP3 ADD MLOAD DUP6 DUP3 SUB PUSH2 0x100 DUP8 ADD MSTORE PUSH2 0x44FA DUP3 DUP3 PUSH2 0x3FAF JUMP JUMPDEST SWAP2 POP POP PUSH2 0x120 DUP3 ADD MLOAD PUSH2 0x4519 PUSH2 0x120 DUP8 ADD DUP3 PUSH1 0x1 PUSH1 0x1 PUSH1 0x80 SHL SUB AND SWAP1 MSTORE JUMP JUMPDEST POP PUSH2 0x140 DUP3 ADD MLOAD SWAP2 POP PUSH2 0x4538 PUSH2 0x140 DUP7 ADD DUP4 PUSH1 0x1 PUSH1 0x1 PUSH1 0x80 SHL SUB AND SWAP1 MSTORE JUMP JUMPDEST PUSH1 0x20 SWAP7 DUP8 ADD SWAP7 SWAP1 SWAP5 POP SWAP3 SWAP1 SWAP3 ADD SWAP2 POP PUSH1 0x1 ADD PUSH2 0x440C JUMP JUMPDEST POP POP DUP6 DUP2 SUB PUSH1 0x40 DUP8 ADD MSTORE PUSH2 0x4563 DUP2 DUP9 PUSH2 0x4073 JUMP JUMPDEST SWAP10 SWAP9 POP POP POP POP POP POP POP POP POP JUMP JUMPDEST PUSH0 PUSH1 0x20 DUP3 ADD PUSH1 0x20 DUP4 MSTORE DUP1 DUP5 MLOAD DUP1 DUP4 MSTORE PUSH1 0x40 DUP6 ADD SWAP2 POP PUSH1 0x40 DUP2 PUSH1 0x5 SHL DUP7 ADD ADD SWAP3 POP PUSH1 0x20 DUP7 ADD PUSH0 JUMPDEST DUP3 DUP2 LT ISZERO PUSH2 0x420C JUMPI PUSH1 0x3F NOT DUP8 DUP7 SUB ADD DUP5 MSTORE DUP2 MLOAD PUSH1 0x1 DUP1 PUSH1 0xA0 SHL SUB DUP2 MLOAD AND DUP7 MSTORE PUSH1 0x1 PUSH1 0x1 PUSH1 0x80 SHL SUB PUSH1 0x20 DUP3 ADD MLOAD AND PUSH1 0x20 DUP8 ADD MSTORE PUSH1 0xFF PUSH1 0x40 DUP3 ADD MLOAD AND PUSH1 0x40 DUP8 ADD MSTORE PUSH1 0x60 DUP2 ADD MLOAD PUSH1 0xA0 PUSH1 0x60 DUP9 ADD MSTORE PUSH2 0x45EE PUSH1 0xA0 DUP9 ADD DUP3 PUSH2 0x3FAF JUMP JUMPDEST PUSH1 0x80 SWAP3 DUP4 ADD MLOAD PUSH1 0x1 PUSH1 0x1 PUSH1 0x80 SHL SUB AND SWAP8 SWAP1 SWAP3 ADD SWAP7 SWAP1 SWAP7 MSTORE SWAP5 POP PUSH1 0x20 SWAP4 DUP5 ADD SWAP4 SWAP2 SWAP1 SWAP2 ADD SWAP1 PUSH1 0x1 ADD PUSH2 0x4596 JUMP JUMPDEST PUSH0 PUSH1 0x20 DUP3 DUP5 SUB SLT ISZERO PUSH2 0x462A JUMPI PUSH0 PUSH0 REVERT JUMPDEST DUP2 CALLDATALOAD PUSH2 0x7F9 DUP2 PUSH2 0x3F71 JUMP JUMPDEST PUSH0 PUSH1 0x20 DUP3 ADD PUSH1 0x20 DUP4 MSTORE DUP1 DUP5 MLOAD DUP1 DUP4 MSTORE PUSH1 0x40 DUP6 ADD SWAP2 POP PUSH1 0x40 DUP2 PUSH1 0x5 SHL DUP7 ADD ADD SWAP3 POP PUSH1 0x20 DUP7 ADD PUSH0 JUMPDEST DUP3 DUP2 LT ISZERO PUSH2 0x420C JUMPI PUSH1 0x3F NOT DUP8 DUP7 SUB ADD DUP5 MSTORE DUP2 MLOAD PUSH1 0x1 DUP1 PUSH1 0xA0 SHL SUB DUP2 MLOAD AND DUP7 MSTORE PUSH1 0x1 DUP1 PUSH1 0xA0 SHL SUB PUSH1 0x20 DUP3 ADD MLOAD AND PUSH1 0x20 DUP8 ADD MSTORE PUSH1 0x1 PUSH1 0x1 PUSH1 0x80 SHL SUB PUSH1 0x40 DUP3 ADD MLOAD AND PUSH1 0x40 DUP8 ADD MSTORE PUSH1 0xFF PUSH1 0x60 DUP3 ADD MLOAD AND PUSH1 0x60 DUP8 ADD MSTORE PUSH1 0x80 DUP2 ADD MLOAD PUSH1 0xC0 PUSH1 0x80 DUP9 ADD MSTORE PUSH2 0x46C5 PUSH1 0xC0 DUP9 ADD DUP3 PUSH2 0x3FAF JUMP JUMPDEST PUSH1 0xA0 SWAP3 DUP4 ADD MLOAD PUSH1 0x1 PUSH1 0x1 PUSH1 0x80 SHL SUB AND SWAP8 SWAP1 SWAP3 ADD SWAP7 SWAP1 SWAP7 MSTORE SWAP5 POP PUSH1 0x20 SWAP4 DUP5 ADD SWAP4 SWAP2 SWAP1 SWAP2 ADD SWAP1 PUSH1 0x1 ADD PUSH2 0x465B JUMP JUMPDEST PUSH1 0x40 DUP2 MSTORE PUSH0 PUSH2 0x4703 PUSH1 0x40 DUP4 ADD DUP6 PUSH2 0x40EA JUMP JUMPDEST DUP3 DUP2 SUB PUSH1 0x20 DUP5 ADD MSTORE PUSH2 0x4715 DUP2 DUP6 PUSH2 0x4073 JUMP JUMPDEST SWAP6 SWAP5 POP POP POP POP POP JUMP JUMPDEST PUSH0 PUSH0 PUSH1 0x40 DUP4 DUP6 SUB SLT ISZERO PUSH2 0x472F JUMPI PUSH0 PUSH0 REVERT JUMPDEST DUP3 CALLDATALOAD PUSH2 0x473A DUP2 PUSH2 0x3DF4 JUMP JUMPDEST SWAP2 POP PUSH1 0x20 DUP4 ADD CALLDATALOAD PUSH1 0x6 DUP2 LT PUSH2 0x4068 JUMPI PUSH0 PUSH0 REVERT JUMPDEST PUSH1 0x1 PUSH1 0x1 PUSH1 0xA0 SHL SUB DUP7 AND DUP2 MSTORE PUSH1 0x1 PUSH1 0x1 PUSH1 0x80 SHL SUB DUP6 AND PUSH1 0x20 DUP3 ADD MSTORE PUSH1 0xFF DUP5 AND PUSH1 0x40 DUP3 ADD MSTORE PUSH1 0xA0 PUSH1 0x60 DUP3 ADD DUP2 SWAP1 MSTORE PUSH0 SWAP1 PUSH2 0x4788 SWAP1 DUP4 ADD DUP6 PUSH2 0x3FAF JUMP JUMPDEST SWAP1 POP PUSH1 0x1 PUSH1 0x1 PUSH1 0x80 SHL SUB DUP4 AND PUSH1 0x80 DUP4 ADD MSTORE SWAP7 SWAP6 POP POP POP POP POP POP JUMP JUMPDEST PUSH1 0x1 PUSH1 0x1 PUSH1 0x80 SHL SUB DUP8 DUP2 AND DUP3 MSTORE PUSH1 0x1 PUSH1 0x1 PUSH1 0xA0 SHL SUB DUP8 AND PUSH1 0x20 DUP4 ADD MSTORE DUP6 DUP2 AND PUSH1 0x40 DUP4 ADD MSTORE DUP5 AND PUSH1 0x60 DUP3 ADD MSTORE PUSH1 0xC0 DUP2 ADD PUSH2 0x47DF PUSH1 0x80 DUP4 ADD DUP6 PUSH2 0x40CA JUMP JUMPDEST PUSH1 0x1 PUSH1 0x1 PUSH1 0x80 SHL SUB DUP4 AND PUSH1 0xA0 DUP4 ADD MSTORE SWAP8 SWAP7 POP POP POP POP POP POP POP JUMP JUMPDEST PUSH0 PUSH1 0x20 DUP3 DUP5 SUB SLT ISZERO PUSH2 0x4809 JUMPI PUSH0 PUSH0 REVERT JUMPDEST DUP2 MLOAD PUSH2 0x7F9 DUP2 PUSH2 0x3F71 JUMP JUMPDEST PUSH1 0x20 DUP1 DUP3 MSTORE PUSH1 0x19 SWAP1 DUP3 ADD MSTORE PUSH32 0x52657374617572616E7420646F6573206E6F7420657869737400000000000000 PUSH1 0x40 DUP3 ADD MSTORE PUSH1 0x60 ADD SWAP1 JUMP JUMPDEST PUSH4 0x4E487B71 PUSH1 0xE0 SHL PUSH0 MSTORE PUSH1 0x32 PUSH1 0x4 MSTORE PUSH1 0x24 PUSH0 REVERT JUMPDEST DUP1 MLOAD PUSH2 0x486A DUP2 PUSH2 0x3DF4 JUMP JUMPDEST SWAP2 SWAP1 POP JUMP JUMPDEST PUSH0 DUP3 PUSH1 0x1F DUP4 ADD SLT PUSH2 0x487E JUMPI PUSH0 PUSH0 REVERT JUMPDEST DUP2 MLOAD PUSH2 0x488C PUSH2 0x4284 DUP3 PUSH2 0x4241 JUMP JUMPDEST DUP2 DUP2 MSTORE DUP5 PUSH1 0x20 DUP4 DUP7 ADD ADD GT ISZERO PUSH2 0x48A0 JUMPI PUSH0 PUSH0 REVERT JUMPDEST DUP2 PUSH1 0x20 DUP6 ADD PUSH1 0x20 DUP4 ADD MCOPY PUSH0 SWAP2 DUP2 ADD PUSH1 0x20 ADD SWAP2 SWAP1 SWAP2 MSTORE SWAP4 SWAP3 POP POP POP JUMP JUMPDEST DUP1 MLOAD DUP1 ISZERO ISZERO DUP2 EQ PUSH2 0x486A JUMPI PUSH0 PUSH0 REVERT JUMPDEST PUSH0 PUSH1 0x20 DUP3 DUP5 SUB SLT ISZERO PUSH2 0x48DB JUMPI PUSH0 PUSH0 REVERT JUMPDEST DUP2 MLOAD PUSH1 0x1 PUSH1 0x1 PUSH1 0x40 SHL SUB DUP2 GT ISZERO PUSH2 0x48F0 JUMPI PUSH0 PUSH0 REVERT JUMPDEST DUP3 ADD PUSH2 0x160 DUP2 DUP6 SUB SLT ISZERO PUSH2 0x4902 JUMPI PUSH0 PUSH0 REVERT JUMPDEST PUSH2 0x490A PUSH2 0x3E1C JUMP JUMPDEST PUSH2 0x4913 DUP3 PUSH2 0x485F JUMP JUMPDEST DUP2 MSTORE PUSH2 0x4921 PUSH1 0x20 DUP4 ADD PUSH2 0x485F JUMP JUMPDEST PUSH1 0x20 DUP3 ADD MSTORE PUSH1 0x40 DUP3 ADD MLOAD PUSH1 0x1 PUSH1 0x1 PUSH1 0x40 SHL SUB DUP2 GT ISZERO PUSH2 0x493E JUMPI PUSH0 PUSH0 REVERT JUMPDEST PUSH2 0x494A DUP7 DUP3 DUP6 ADD PUSH2 0x486F JUMP JUMPDEST PUSH1 0x40 DUP4 ADD MSTORE POP PUSH1 0x60 DUP3 ADD MLOAD PUSH1 0x1 PUSH1 0x1 PUSH1 0x40 SHL SUB DUP2 GT ISZERO PUSH2 0x4968 JUMPI PUSH0 PUSH0 REVERT JUMPDEST PUSH2 0x4974 DUP7 DUP3 DUP6 ADD PUSH2 0x486F JUMP JUMPDEST PUSH1 0x60 DUP4 ADD MSTORE POP PUSH1 0x80 DUP3 ADD MLOAD PUSH1 0x1 PUSH1 0x1 PUSH1 0x40 SHL SUB DUP2 GT ISZERO PUSH2 0x4992 JUMPI PUSH0 PUSH0 REVERT JUMPDEST PUSH2 0x499E DUP7 DUP3 DUP6 ADD PUSH2 0x486F JUMP JUMPDEST PUSH1 0x80 DUP4 ADD MSTORE POP PUSH2 0x49B0 PUSH1 0xA0 DUP4 ADD PUSH2 0x485F JUMP JUMPDEST PUSH1 0xA0 DUP3 ADD MSTORE PUSH2 0x49C1 PUSH1 0xC0 DUP4 ADD PUSH2 0x48BC JUMP JUMPDEST PUSH1 0xC0 DUP3 ADD MSTORE PUSH1 0xE0 DUP3 ADD MLOAD PUSH1 0x1 PUSH1 0x1 PUSH1 0x40 SHL SUB DUP2 GT ISZERO PUSH2 0x49DE JUMPI PUSH0 PUSH0 REVERT JUMPDEST PUSH2 0x49EA DUP7 DUP3 DUP6 ADD PUSH2 0x486F JUMP JUMPDEST PUSH1 0xE0 DUP4 ADD MSTORE POP PUSH2 0x100 DUP3 ADD MLOAD PUSH1 0x1 PUSH1 0x1 PUSH1 0x40 SHL SUB DUP2 GT ISZERO PUSH2 0x4A09 JUMPI PUSH0 PUSH0 REVERT JUMPDEST PUSH2 0x4A15 DUP7 DUP3 DUP6 ADD PUSH2 0x486F JUMP JUMPDEST PUSH2 0x100 DUP4 ADD MSTORE POP PUSH2 0x4A29 PUSH2 0x120 DUP4 ADD PUSH2 0x485F JUMP JUMPDEST PUSH2 0x120 DUP3 ADD MSTORE PUSH2 0x4A3C PUSH2 0x140 DUP4 ADD PUSH2 0x485F JUMP JUMPDEST PUSH2 0x140 DUP3 ADD MSTORE SWAP5 SWAP4 POP POP POP POP JUMP JUMPDEST PUSH1 0x20 DUP1 DUP3 MSTORE PUSH1 0x22 SWAP1 DUP3 ADD MSTORE PUSH32 0x4974656D20646F6573206E6F742062656C6F6E6720746F207265737461757261 PUSH1 0x40 DUP3 ADD MSTORE PUSH2 0x1B9D PUSH1 0xF2 SHL PUSH1 0x60 DUP3 ADD MSTORE PUSH1 0x80 ADD SWAP1 JUMP JUMPDEST PUSH4 0x4E487B71 PUSH1 0xE0 SHL PUSH0 MSTORE PUSH1 0x11 PUSH1 0x4 MSTORE PUSH1 0x24 PUSH0 REVERT JUMPDEST PUSH1 0x1 PUSH1 0x1 PUSH1 0x80 SHL SUB DUP2 DUP2 AND DUP4 DUP3 AND MUL SWAP1 DUP2 AND SWAP1 DUP2 DUP2 EQ PUSH2 0x4AC2 JUMPI PUSH2 0x4AC2 PUSH2 0x4A8C JUMP JUMPDEST POP SWAP3 SWAP2 POP POP JUMP JUMPDEST PUSH1 0x1 PUSH1 0x1 PUSH1 0x80 SHL SUB DUP2 DUP2 AND DUP4 DUP3 AND ADD SWAP1 DUP2 GT ISZERO PUSH2 0xD01 JUMPI PUSH2 0xD01 PUSH2 0x4A8C JUMP JUMPDEST PUSH0 PUSH1 0x20 DUP3 DUP5 SUB SLT ISZERO PUSH2 0x4AF8 JUMPI PUSH0 PUSH0 REVERT JUMPDEST DUP2 MLOAD PUSH2 0x7F9 DUP2 PUSH2 0x4233 JUMP JUMPDEST PUSH0 PUSH1 0x1 PUSH1 0x1 PUSH1 0x80 SHL SUB DUP4 AND DUP1 PUSH2 0x4B27 JUMPI PUSH4 0x4E487B71 PUSH1 0xE0 SHL PUSH0 MSTORE PUSH1 0x12 PUSH1 0x4 MSTORE PUSH1 0x24 PUSH0 REVERT JUMPDEST DUP1 PUSH1 0x1 PUSH1 0x1 PUSH1 0x80 SHL SUB DUP5 AND DIV SWAP2 POP POP SWAP3 SWAP2 POP POP JUMP JUMPDEST PUSH1 0x1 DUP2 DUP2 SHR SWAP1 DUP3 AND DUP1 PUSH2 0x4B50 JUMPI PUSH1 0x7F DUP3 AND SWAP2 POP JUMPDEST PUSH1 0x20 DUP3 LT DUP2 SUB PUSH2 0x4B6E JUMPI PUSH4 0x4E487B71 PUSH1 0xE0 SHL PUSH0 MSTORE PUSH1 0x22 PUSH1 0x4 MSTORE PUSH1 0x24 PUSH0 REVERT JUMPDEST POP SWAP2 SWAP1 POP JUMP JUMPDEST PUSH0 PUSH1 0x20 DUP3 DUP5 SUB SLT ISZERO PUSH2 0x4B84 JUMPI PUSH0 PUSH0 REVERT JUMPDEST DUP2 MLOAD PUSH1 0x3 DUP2 LT PUSH2 0x7F9 JUMPI PUSH0 PUSH0 REVERT JUMPDEST PUSH1 0x1 PUSH1 0x1 PUSH1 0x80 SHL SUB DUP3 DUP2 AND DUP3 DUP3 AND SUB SWAP1 DUP2 GT ISZERO PUSH2 0xD01 JUMPI PUSH2 0xD01 PUSH2 0x4A8C JUMP JUMPDEST PUSH1 0x20 DUP1 DUP3 MSTORE PUSH1 0x16 SWAP1 DUP3 ADD MSTORE PUSH22 0x27B7363C9030B236B4B71037B91031BAB9BA37B6B2B9 PUSH1 0x51 SHL PUSH1 0x40 DUP3 ADD MSTORE PUSH1 0x60 ADD SWAP1 JUMP JUMPDEST PUSH1 0x20 DUP1 DUP3 MSTORE PUSH1 0x10 SWAP1 DUP3 ADD MSTORE PUSH16 0x125B9D985B1A59081BDC99195C881251 PUSH1 0x82 SHL PUSH1 0x40 DUP3 ADD MSTORE PUSH1 0x60 ADD SWAP1 JUMP JUMPDEST PUSH1 0x1 PUSH1 0x1 PUSH1 0x80 SHL SUB DUP4 AND DUP2 MSTORE PUSH1 0x40 DUP2 ADD PUSH2 0x7F9 PUSH1 0x20 DUP4 ADD DUP5 PUSH2 0x40CA JUMP JUMPDEST PUSH0 PUSH1 0x20 DUP3 DUP5 SUB SLT ISZERO PUSH2 0x4C38 JUMPI PUSH0 PUSH0 REVERT JUMPDEST DUP2 MLOAD PUSH2 0x7F9 DUP2 PUSH2 0x3DF4 JUMP JUMPDEST PUSH1 0x1F DUP3 GT ISZERO PUSH2 0x2BD8 JUMPI DUP1 PUSH0 MSTORE PUSH1 0x20 PUSH0 KECCAK256 PUSH1 0x1F DUP5 ADD PUSH1 0x5 SHR DUP2 ADD PUSH1 0x20 DUP6 LT ISZERO PUSH2 0x4C68 JUMPI POP DUP1 JUMPDEST PUSH1 0x1F DUP5 ADD PUSH1 0x5 SHR DUP3 ADD SWAP2 POP JUMPDEST DUP2 DUP2 LT ISZERO PUSH2 0x4C87 JUMPI PUSH0 DUP2 SSTORE PUSH1 0x1 ADD PUSH2 0x4C74 JUMP JUMPDEST POP POP POP POP POP JUMP JUMPDEST DUP2 MLOAD PUSH1 0x1 PUSH1 0x1 PUSH1 0x40 SHL SUB DUP2 GT ISZERO PUSH2 0x4CA7 JUMPI PUSH2 0x4CA7 PUSH2 0x3E08 JUMP JUMPDEST PUSH2 0x4CBB DUP2 PUSH2 0x4CB5 DUP5 SLOAD PUSH2 0x4B3C JUMP JUMPDEST DUP5 PUSH2 0x4C43 JUMP JUMPDEST PUSH1 0x20 PUSH1 0x1F DUP3 GT PUSH1 0x1 DUP2 EQ PUSH2 0x4CED JUMPI PUSH0 DUP4 ISZERO PUSH2 0x4CD6 JUMPI POP DUP5 DUP3 ADD MLOAD JUMPDEST PUSH0 NOT PUSH1 0x3 DUP6 SWAP1 SHL SHR NOT AND PUSH1 0x1 DUP5 SWAP1 SHL OR DUP5 SSTORE PUSH2 0x4C87 JUMP JUMPDEST PUSH0 DUP5 DUP2 MSTORE PUSH1 0x20 DUP2 KECCAK256 PUSH1 0x1F NOT DUP6 AND SWAP2 JUMPDEST DUP3 DUP2 LT ISZERO PUSH2 0x4D1C JUMPI DUP8 DUP6 ADD MLOAD DUP3 SSTORE PUSH1 0x20 SWAP5 DUP6 ADD SWAP5 PUSH1 0x1 SWAP1 SWAP3 ADD SWAP2 ADD PUSH2 0x4CFC JUMP JUMPDEST POP DUP5 DUP3 LT ISZERO PUSH2 0x4D39 JUMPI DUP7 DUP5 ADD MLOAD PUSH0 NOT PUSH1 0x3 DUP8 SWAP1 SHL PUSH1 0xF8 AND SHR NOT AND DUP2 SSTORE JUMPDEST POP POP POP POP PUSH1 0x1 SWAP1 DUP2 SHL ADD SWAP1 SSTORE POP JUMP JUMPDEST PUSH1 0x1 PUSH1 0x1 PUSH1 0x80 SHL SUB DUP5 AND DUP2 MSTORE PUSH1 0xFF DUP4 AND PUSH1 0x20 DUP3 ADD MSTORE PUSH1 0x60 PUSH1 0x40 DUP3 ADD MSTORE PUSH0 PUSH2 0x4715 PUSH1 0x60 DUP4 ADD DUP5 PUSH2 0x3FAF JUMP JUMPDEST PUSH1 0xFF DUP4 AND DUP2 MSTORE PUSH1 0x40 PUSH1 0x20 DUP3 ADD MSTORE PUSH0 PUSH2 0x4D8D PUSH1 0x40 DUP4 ADD DUP5 PUSH2 0x3FAF JUMP JUMPDEST SWAP5 SWAP4 POP POP POP POP JUMP JUMPDEST DUP2 DUP2 SUB DUP2 DUP2 GT ISZERO PUSH2 0xD01 JUMPI PUSH2 0xD01 PUSH2 0x4A8C JUMP JUMPDEST PUSH0 PUSH1 0x1 PUSH1 0x1 PUSH1 0x80 SHL SUB DUP3 AND PUSH1 0x1 PUSH1 0x1 PUSH1 0x80 SHL SUB DUP2 SUB PUSH2 0x4DC9 JUMPI PUSH2 0x4DC9 PUSH2 0x4A8C JUMP JUMPDEST PUSH1 0x1 ADD SWAP3 SWAP2 POP POP JUMP INVALID LOG2 PUSH5 0x6970667358 0x22 SLT KECCAK256 0xDB SLT MUL SWAP13 JUMP 0xD8 SWAPN 0xD2 PUSH10 0x8CF2F923F6F4E64B16D4 0xCB PUSH10 0x35958D96F8F18E926565 0xDA PUSH5 0x736F6C6343 STOP ADDMOD 0x1E STOP CALLER "
		},
		"gasEstimates": {
			"creation": {
				"codeDepositCost": "3995200",
				"executionCost": "infinite",
				"totalCost": "infinite"
			},
			"external": {
				"cancelOrder(uint128)": "infinite",
				"completeOrder(uint128)": "infinite",
				"customerOrders(address,uint256)": "6488",
				"employeeRatings(address,uint256)": "infinite",
				"getAllOrders(uint128,uint128)": "infinite",
				"getEmployeeRatings(address)": "infinite",
				"getMyOrders()": "infinite",
				"getOrderDetails(uint128)": "infinite",
				"getRestaurantRatings(uint128)": "infinite",
				"getorderCountDetails(uint128)": "infinite",
				"menuManager()": "2403",
				"orderCountDetails(uint128,uint128)": "infinite",
				"orderDetails(uint128,uint256)": "infinite",
				"orders(uint128)": "11456",
				"placeOrder(uint128,uint128[],uint128[])": "infinite",
				"previewTotalAmount(uint128,uint128[],uint128[])": "infinite",
				"rateEmployee(address,uint128,uint8,string)": "infinite",
				"rateRestaurant(uint128,uint8,string)": "infinite",
				"restaurantManager()": "2426",
				"restaurantRatings(uint128,uint256)": "infinite",
				"updateOrderStatus(uint128,uint8)": "infinite",
				"userPoints(address)": "2648"
			}
		},
		"methodIdentifiers": {
			"cancelOrder(uint128)": "dbc91396",
			"completeOrder(uint128)": "388f20a8",
			"customerOrders(address,uint256)": "1600c6cd",
			"employeeRatings(address,uint256)": "0659ae68",
			"getAllOrders(uint128,uint128)": "26912883",
			"getEmployeeRatings(address)": "90a815a9",
			"getMyOrders()": "bab5933a",
			"getOrderDetails(uint128)": "6b813675",
			"getRestaurantRatings(uint128)": "6e1f4b75",
			"getorderCountDetails(uint128)": "cdaaa7d8",
			"menuManager()": "5059e95b",
			"orderCountDetails(uint128,uint128)": "88ee189b",
			"orderDetails(uint128,uint256)": "6761dc8c",
			"orders(uint128)": "ff8ddee3",
			"placeOrder(uint128,uint128[],uint128[])": "98d88075",
			"previewTotalAmount(uint128,uint128[],uint128[])": "0605551e",
			"rateEmployee(address,uint128,uint8,string)": "49392b3d",
			"rateRestaurant(uint128,uint8,string)": "515f72ce",
			"restaurantManager()": "2134b6f6",
			"restaurantRatings(uint128,uint256)": "f4340e9c",
			"updateOrderStatus(uint128,uint8)": "ddb0c22f",
			"userPoints(address)": "f50ddbc7"
		}
	},
	"abi": [
		{
			"inputs": [
				{
					"internalType": "address",
					"name": "_restaurantManager",
					"type": "address"
				},
				{
					"internalType": "address",
					"name": "_menuManager",
					"type": "address"
				}
			],
			"stateMutability": "nonpayable",
			"type": "constructor"
		},
		{
			"inputs": [],
			"name": "FailedCall",
			"type": "error"
		},
		{
			"inputs": [
				{
					"internalType": "uint256",
					"name": "balance",
					"type": "uint256"
				},
				{
					"internalType": "uint256",
					"name": "needed",
					"type": "uint256"
				}
			],
			"name": "InsufficientBalance",
			"type": "error"
		},
		{
			"anonymous": false,
			"inputs": [
				{
					"indexed": true,
					"internalType": "address",
					"name": "employee",
					"type": "address"
				},
				{
					"indexed": true,
					"internalType": "address",
					"name": "customer",
					"type": "address"
				},
				{
					"indexed": false,
					"internalType": "uint128",
					"name": "restaurantId",
					"type": "uint128"
				},
				{
					"indexed": false,
					"internalType": "uint8",
					"name": "rating",
					"type": "uint8"
				},
				{
					"indexed": false,
					"internalType": "string",
					"name": "comment",
					"type": "string"
				}
			],
			"name": "EmployeeRated",
			"type": "event"
		},
		{
			"anonymous": false,
			"inputs": [
				{
					"indexed": false,
					"internalType": "uint128",
					"name": "id",
					"type": "uint128"
				},
				{
					"indexed": false,
					"internalType": "address",
					"name": "customer",
					"type": "address"
				}
			],
			"name": "OrderCancelled",
			"type": "event"
		},
		{
			"anonymous": false,
			"inputs": [
				{
					"indexed": false,
					"internalType": "uint128",
					"name": "orderId",
					"type": "uint128"
				},
				{
					"indexed": false,
					"internalType": "address",
					"name": "customer",
					"type": "address"
				}
			],
			"name": "OrderCompleted",
			"type": "event"
		},
		{
			"anonymous": false,
			"inputs": [
				{
					"indexed": false,
					"internalType": "uint128",
					"name": "id",
					"type": "uint128"
				},
				{
					"indexed": false,
					"internalType": "address",
					"name": "customer",
					"type": "address"
				},
				{
					"indexed": false,
					"internalType": "uint128",
					"name": "totalPrice",
					"type": "uint128"
				}
			],
			"name": "OrderPlaced",
			"type": "event"
		},
		{
			"anonymous": false,
			"inputs": [
				{
					"indexed": false,
					"internalType": "uint128",
					"name": "id",
					"type": "uint128"
				},
				{
					"indexed": false,
					"internalType": "enum OrderManager.OrderStatus",
					"name": "status",
					"type": "uint8"
				}
			],
			"name": "OrderStatusUpdated",
			"type": "event"
		},
		{
			"anonymous": false,
			"inputs": [
				{
					"indexed": false,
					"internalType": "address",
					"name": "customer",
					"type": "address"
				},
				{
					"indexed": false,
					"internalType": "uint128",
					"name": "amount",
					"type": "uint128"
				}
			],
			"name": "RefundProcessed",
			"type": "event"
		},
		{
			"anonymous": false,
			"inputs": [
				{
					"indexed": true,
					"internalType": "uint128",
					"name": "restaurantId",
					"type": "uint128"
				},
				{
					"indexed": true,
					"internalType": "address",
					"name": "customer",
					"type": "address"
				},
				{
					"indexed": false,
					"internalType": "uint8",
					"name": "rating",
					"type": "uint8"
				},
				{
					"indexed": false,
					"internalType": "string",
					"name": "comment",
					"type": "string"
				}
			],
			"name": "RestaurantRated",
			"type": "event"
		},
		{
			"inputs": [
				{
					"internalType": "uint128",
					"name": "orderId",
					"type": "uint128"
				}
			],
			"name": "cancelOrder",
			"outputs": [],
			"stateMutability": "nonpayable",
			"type": "function"
		},
		{
			"inputs": [
				{
					"internalType": "uint128",
					"name": "orderId",
					"type": "uint128"
				}
			],
			"name": "completeOrder",
			"outputs": [],
			"stateMutability": "nonpayable",
			"type": "function"
		},
		{
			"inputs": [
				{
					"internalType": "address",
					"name": "",
					"type": "address"
				},
				{
					"internalType": "uint256",
					"name": "",
					"type": "uint256"
				}
			],
			"name": "customerOrders",
			"outputs": [
				{
					"internalType": "uint128",
					"name": "",
					"type": "uint128"
				}
			],
			"stateMutability": "view",
			"type": "function"
		},
		{
			"inputs": [
				{
					"internalType": "address",
					"name": "",
					"type": "address"
				},
				{
					"internalType": "uint256",
					"name": "",
					"type": "uint256"
				}
			],
			"name": "employeeRatings",
			"outputs": [
				{
					"internalType": "address",
					"name": "customer",
					"type": "address"
				},
				{
					"internalType": "address",
					"name": "employee",
					"type": "address"
				},
				{
					"internalType": "uint128",
					"name": "restaurantId",
					"type": "uint128"
				},
				{
					"internalType": "uint8",
					"name": "rating",
					"type": "uint8"
				},
				{
					"internalType": "string",
					"name": "comment",
					"type": "string"
				},
				{
					"internalType": "uint128",
					"name": "timestamp",
					"type": "uint128"
				}
			],
			"stateMutability": "view",
			"type": "function"
		},
		{
			"inputs": [
				{
					"internalType": "uint128",
					"name": "start",
					"type": "uint128"
				},
				{
					"internalType": "uint128",
					"name": "limit",
					"type": "uint128"
				}
			],
			"name": "getAllOrders",
			"outputs": [
				{
					"components": [
						{
							"internalType": "uint128",
							"name": "id",
							"type": "uint128"
						},
						{
							"internalType": "address",
							"name": "customer",
							"type": "address"
						},
						{
							"internalType": "uint128",
							"name": "restaurantId",
							"type": "uint128"
						},
						{
							"internalType": "uint128[]",
							"name": "itemIds",
							"type": "uint128[]"
						},
						{
							"internalType": "uint128[]",
							"name": "quantities",
							"type": "uint128[]"
						},
						{
							"internalType": "uint128",
							"name": "totalPrice",
							"type": "uint128"
						},
						{
							"internalType": "enum OrderManager.OrderStatus",
							"name": "status",
							"type": "uint8"
						},
						{
							"internalType": "uint128",
							"name": "timestamp",
							"type": "uint128"
						}
					],
					"internalType": "struct OrderManager.Order[]",
					"name": "",
					"type": "tuple[]"
				}
			],
			"stateMutability": "view",
			"type": "function"
		},
		{
			"inputs": [
				{
					"internalType": "address",
					"name": "employee",
					"type": "address"
				}
			],
			"name": "getEmployeeRatings",
			"outputs": [
				{
					"components": [
						{
							"internalType": "address",
							"name": "customer",
							"type": "address"
						},
						{
							"internalType": "address",
							"name": "employee",
							"type": "address"
						},
						{
							"internalType": "uint128",
							"name": "restaurantId",
							"type": "uint128"
						},
						{
							"internalType": "uint8",
							"name": "rating",
							"type": "uint8"
						},
						{
							"internalType": "string",
							"name": "comment",
							"type": "string"
						},
						{
							"internalType": "uint128",
							"name": "timestamp",
							"type": "uint128"
						}
					],
					"internalType": "struct OrderManager.RatingForEmployee[]",
					"name": "",
					"type": "tuple[]"
				}
			],
			"stateMutability": "view",
			"type": "function"
		},
		{
			"inputs": [],
			"name": "getMyOrders",
			"outputs": [
				{
					"components": [
						{
							"internalType": "uint128",
							"name": "id",
							"type": "uint128"
						},
						{
							"internalType": "address",
							"name": "customer",
							"type": "address"
						},
						{
							"internalType": "uint128",
							"name": "restaurantId",
							"type": "uint128"
						},
						{
							"internalType": "uint128[]",
							"name": "itemIds",
							"type": "uint128[]"
						},
						{
							"internalType": "uint128[]",
							"name": "quantities",
							"type": "uint128[]"
						},
						{
							"internalType": "uint128",
							"name": "totalPrice",
							"type": "uint128"
						},
						{
							"internalType": "enum OrderManager.OrderStatus",
							"name": "status",
							"type": "uint8"
						},
						{
							"internalType": "uint128",
							"name": "timestamp",
							"type": "uint128"
						}
					],
					"internalType": "struct OrderManager.Order[]",
					"name": "",
					"type": "tuple[]"
				}
			],
			"stateMutability": "view",
			"type": "function"
		},
		{
			"inputs": [
				{
					"internalType": "uint128",
					"name": "orderId",
					"type": "uint128"
				}
			],
			"name": "getOrderDetails",
			"outputs": [
				{
					"components": [
						{
							"internalType": "uint128",
							"name": "id",
							"type": "uint128"
						},
						{
							"internalType": "address",
							"name": "customer",
							"type": "address"
						},
						{
							"internalType": "uint128",
							"name": "restaurantId",
							"type": "uint128"
						},
						{
							"internalType": "uint128[]",
							"name": "itemIds",
							"type": "uint128[]"
						},
						{
							"internalType": "uint128[]",
							"name": "quantities",
							"type": "uint128[]"
						},
						{
							"internalType": "uint128",
							"name": "totalPrice",
							"type": "uint128"
						},
						{
							"internalType": "enum OrderManager.OrderStatus",
							"name": "status",
							"type": "uint8"
						},
						{
							"internalType": "uint128",
							"name": "timestamp",
							"type": "uint128"
						}
					],
					"internalType": "struct OrderManager.Order",
					"name": "order",
					"type": "tuple"
				},
				{
					"components": [
						{
							"internalType": "uint128",
							"name": "id",
							"type": "uint128"
						},
						{
							"internalType": "uint128",
							"name": "restaurantId",
							"type": "uint128"
						},
						{
							"internalType": "string",
							"name": "name",
							"type": "string"
						},
						{
							"internalType": "string",
							"name": "imageUrl",
							"type": "string"
						},
						{
							"internalType": "string",
							"name": "videoUrl",
							"type": "string"
						},
						{
							"internalType": "uint128",
							"name": "price",
							"type": "uint128"
						},
						{
							"internalType": "bool",
							"name": "available",
							"type": "bool"
						},
						{
							"internalType": "string",
							"name": "description",
							"type": "string"
						},
						{
							"internalType": "string",
							"name": "category",
							"type": "string"
						},
						{
							"internalType": "uint128",
							"name": "totalRating",
							"type": "uint128"
						},
						{
							"internalType": "uint128",
							"name": "ratingCount",
							"type": "uint128"
						}
					],
					"internalType": "struct MenuManager.MenuItem[]",
					"name": "items",
					"type": "tuple[]"
				},
				{
					"internalType": "uint128[]",
					"name": "quantities",
					"type": "uint128[]"
				}
			],
			"stateMutability": "view",
			"type": "function"
		},
		{
			"inputs": [
				{
					"internalType": "uint128",
					"name": "restaurantId",
					"type": "uint128"
				}
			],
			"name": "getRestaurantRatings",
			"outputs": [
				{
					"components": [
						{
							"internalType": "address",
							"name": "customer",
							"type": "address"
						},
						{
							"internalType": "uint128",
							"name": "restaurantId",
							"type": "uint128"
						},
						{
							"internalType": "uint8",
							"name": "rating",
							"type": "uint8"
						},
						{
							"internalType": "string",
							"name": "comment",
							"type": "string"
						},
						{
							"internalType": "uint128",
							"name": "timestamp",
							"type": "uint128"
						}
					],
					"internalType": "struct OrderManager.RatingForRestaurant[]",
					"name": "",
					"type": "tuple[]"
				}
			],
			"stateMutability": "view",
			"type": "function"
		},
		{
			"inputs": [
				{
					"internalType": "uint128",
					"name": "orderId",
					"type": "uint128"
				}
			],
			"name": "getorderCountDetails",
			"outputs": [
				{
					"components": [
						{
							"internalType": "uint128",
							"name": "id",
							"type": "uint128"
						},
						{
							"internalType": "address",
							"name": "customer",
							"type": "address"
						},
						{
							"internalType": "uint128",
							"name": "restaurantId",
							"type": "uint128"
						},
						{
							"internalType": "uint128[]",
							"name": "itemIds",
							"type": "uint128[]"
						},
						{
							"internalType": "uint128[]",
							"name": "quantities",
							"type": "uint128[]"
						},
						{
							"internalType": "uint128",
							"name": "totalPrice",
							"type": "uint128"
						},
						{
							"internalType": "enum OrderManager.OrderStatus",
							"name": "status",
							"type": "uint8"
						},
						{
							"internalType": "uint128",
							"name": "timestamp",
							"type": "uint128"
						}
					],
					"internalType": "struct OrderManager.Order",
					"name": "order",
					"type": "tuple"
				},
				{
					"internalType": "uint128[]",
					"name": "quantities",
					"type": "uint128[]"
				}
			],
			"stateMutability": "view",
			"type": "function"
		},
		{
			"inputs": [],
			"name": "menuManager",
			"outputs": [
				{
					"internalType": "contract MenuManager",
					"name": "",
					"type": "address"
				}
			],
			"stateMutability": "view",
			"type": "function"
		},
		{
			"inputs": [
				{
					"internalType": "uint128",
					"name": "",
					"type": "uint128"
				},
				{
					"internalType": "uint128",
					"name": "",
					"type": "uint128"
				}
			],
			"name": "orderCountDetails",
			"outputs": [
				{
					"internalType": "uint128",
					"name": "",
					"type": "uint128"
				}
			],
			"stateMutability": "view",
			"type": "function"
		},
		{
			"inputs": [
				{
					"internalType": "uint128",
					"name": "",
					"type": "uint128"
				},
				{
					"internalType": "uint256",
					"name": "",
					"type": "uint256"
				}
			],
			"name": "orderDetails",
			"outputs": [
				{
					"internalType": "uint128",
					"name": "menuId",
					"type": "uint128"
				},
				{
					"internalType": "uint128",
					"name": "quantity",
					"type": "uint128"
				},
				{
					"internalType": "uint128",
					"name": "price",
					"type": "uint128"
				},
				{
					"internalType": "string",
					"name": "name",
					"type": "string"
				}
			],
			"stateMutability": "view",
			"type": "function"
		},
		{
			"inputs": [
				{
					"internalType": "uint128",
					"name": "",
					"type": "uint128"
				}
			],
			"name": "orders",
			"outputs": [
				{
					"internalType": "uint128",
					"name": "id",
					"type": "uint128"
				},
				{
					"internalType": "address",
					"name": "customer",
					"type": "address"
				},
				{
					"internalType": "uint128",
					"name": "restaurantId",
					"type": "uint128"
				},
				{
					"internalType": "uint128",
					"name": "totalPrice",
					"type": "uint128"
				},
				{
					"internalType": "enum OrderManager.OrderStatus",
					"name": "status",
					"type": "uint8"
				},
				{
					"internalType": "uint128",
					"name": "timestamp",
					"type": "uint128"
				}
			],
			"stateMutability": "view",
			"type": "function"
		},
		{
			"inputs": [
				{
					"internalType": "uint128",
					"name": "restaurantId",
					"type": "uint128"
				},
				{
					"internalType": "uint128[]",
					"name": "itemIds",
					"type": "uint128[]"
				},
				{
					"internalType": "uint128[]",
					"name": "quantities",
					"type": "uint128[]"
				}
			],
			"name": "placeOrder",
			"outputs": [],
			"stateMutability": "payable",
			"type": "function"
		},
		{
			"inputs": [
				{
					"internalType": "uint128",
					"name": "restaurantId",
					"type": "uint128"
				},
				{
					"internalType": "uint128[]",
					"name": "itemIds",
					"type": "uint128[]"
				},
				{
					"internalType": "uint128[]",
					"name": "quantities",
					"type": "uint128[]"
				}
			],
			"name": "previewTotalAmount",
			"outputs": [
				{
					"internalType": "uint128",
					"name": "totalAmount",
					"type": "uint128"
				}
			],
			"stateMutability": "view",
			"type": "function"
		},
		{
			"inputs": [
				{
					"internalType": "address",
					"name": "employee",
					"type": "address"
				},
				{
					"internalType": "uint128",
					"name": "restaurantId",
					"type": "uint128"
				},
				{
					"internalType": "uint8",
					"name": "rating",
					"type": "uint8"
				},
				{
					"internalType": "string",
					"name": "comment",
					"type": "string"
				}
			],
			"name": "rateEmployee",
			"outputs": [],
			"stateMutability": "nonpayable",
			"type": "function"
		},
		{
			"inputs": [
				{
					"internalType": "uint128",
					"name": "restaurantId",
					"type": "uint128"
				},
				{
					"internalType": "uint8",
					"name": "rating",
					"type": "uint8"
				},
				{
					"internalType": "string",
					"name": "comment",
					"type": "string"
				}
			],
			"name": "rateRestaurant",
			"outputs": [],
			"stateMutability": "nonpayable",
			"type": "function"
		},
		{
			"inputs": [],
			"name": "restaurantManager",
			"outputs": [
				{
					"internalType": "contract RestaurantManager",
					"name": "",
					"type": "address"
				}
			],
			"stateMutability": "view",
			"type": "function"
		},
		{
			"inputs": [
				{
					"internalType": "uint128",
					"name": "",
					"type": "uint128"
				},
				{
					"internalType": "uint256",
					"name": "",
					"type": "uint256"
				}
			],
			"name": "restaurantRatings",
			"outputs": [
				{
					"internalType": "address",
					"name": "customer",
					"type": "address"
				},
				{
					"internalType": "uint128",
					"name": "restaurantId",
					"type": "uint128"
				},
				{
					"internalType": "uint8",
					"name": "rating",
					"type": "uint8"
				},
				{
					"internalType": "string",
					"name": "comment",
					"type": "string"
				},
				{
					"internalType": "uint128",
					"name": "timestamp",
					"type": "uint128"
				}
			],
			"stateMutability": "view",
			"type": "function"
		},
		{
			"inputs": [
				{
					"internalType": "uint128",
					"name": "orderId",
					"type": "uint128"
				},
				{
					"internalType": "enum OrderManager.OrderStatus",
					"name": "status",
					"type": "uint8"
				}
			],
			"name": "updateOrderStatus",
			"outputs": [],
			"stateMutability": "nonpayable",
			"type": "function"
		},
		{
			"inputs": [
				{
					"internalType": "address",
					"name": "",
					"type": "address"
				}
			],
			"name": "userPoints",
			"outputs": [
				{
					"internalType": "uint128",
					"name": "",
					"type": "uint128"
				}
			],
			"stateMutability": "view",
			"type": "function"
		}
	]
}