{
	"data": {
		"bytecode": {
			"linkReferences": {},
			"object": "6080604052600180546001600160881b0319167005000000000000000000000000000000011790553480156031575f5ffd5b503380605657604051631e4fbdf760e01b81525f600482015260240160405180910390fd5b605d81607e565b50335f908152600260208190526040909120805460ff1916909117905560cd565b5f80546001600160a01b038381166001600160a01b0319831681178455604051919092169283917f8be0079c531659141344cd1fd0a4f28419497f9722a3daafe3b4186f6b6457e09190a35050565b610dc1806100da5f395ff3fe608060405234801561000f575f5ffd5b50600436106100fb575f3560e01c8063ae9a465511610093578063f2fde38b11610063578063f2fde38b1461024b578063f3f437031461025e578063f793728214610286578063fa20fca714610299575f5ffd5b8063ae9a4655146101dd578063d72e481d146101f0578063d76d571a146101f8578063e28d7a1814610223575f5ffd5b80638da5cb5b116100ce5780638da5cb5b1461014f5780639937464214610173578063a0e31ec4146101a2578063abca88f0146101b5575f5ffd5b806314d90e1b146100ff578063603ef6491461011e578063630a195b14610132578063715018a614610147575b5f5ffd5b610107601481565b60405160ff90911681526020015b60405180910390f35b60015461010790600160801b900460ff1681565b610145610140366004610b92565b6102a1565b005b6101456103ee565b5f546001600160a01b03165b6040516001600160a01b039091168152602001610115565b610195610181366004610bca565b60026020525f908152604090205460ff1681565b6040516101159190610c1e565b6101456101b0366004610c48565b610401565b61015b6101c3366004610c79565b60056020525f90815260409020546001600160a01b031681565b6101456101eb366004610c48565b6104ce565b61014561066e565b61020b610206366004610c92565b6107f9565b6040516001600160801b039091168152602001610115565b61020b610231366004610bca565b60066020525f90815260409020546001600160801b031681565b610145610259366004610bca565b610840565b61020b61026c366004610bca565b60036020525f90815260409020546001600160801b031681565b610145610294366004610cba565b61087d565b61020b610958565b335f9081526002602081905260409091205460ff16818111156102c6576102c6610bea565b146102ec5760405162461bcd60e51b81526004016102e390610cda565b60405180910390fd5b6001600160a01b0382166103345760405162461bcd60e51b815260206004820152600f60248201526e496e76616c6964206164647265737360881b60448201526064016102e3565b6001600160a01b0382165f9081526002602081905260409091208054839260ff1990911690600190849081111561036d5761036d610bea565b0217905550600181600281111561038657610386610bea565b146103b1576001600160a01b0382165f90815260066020526040902080546001600160801b03191690555b7f4ac36fa53f167ceb85964be512e01de2a3b8bdb9862f917da079deeeff689b3882826040516103e2929190610d11565b60405180910390a15050565b6103f6610a41565b6103ff5f610a6d565b565b5f546001600160a01b031633148061043b5750335f9081526002602081905260409091205460ff168181111561043957610439610bea565b145b6104765760405162461bcd60e51b815260206004820152600c60248201526b155b985d5d1a1bdc9a5e995960a21b60448201526064016102e3565b6001600160a01b0382165f90815260036020526040812080548392906104a69084906001600160801b0316610d42565b92506101000a8154816001600160801b0302191690836001600160801b031602179055505050565b6001600160801b0381165f9081526005602052604090205481906001600160a01b031633146105365760405162461bcd60e51b81526020600482015260146024820152732737ba103932b9ba30bab930b73a1037bbb732b960611b60448201526064016102e3565b6001600160a01b03831661057e5760405162461bcd60e51b815260206004820152600f60248201526e496e76616c6964206164647265737360881b60448201526064016102e3565b6001600160801b0382165f908152600560205260409020546001600160a01b03166105eb5760405162461bcd60e51b815260206004820152601960248201527f52657374617572616e7420646f6573206e6f742065786973740000000000000060448201526064016102e3565b6001600160a01b0383165f818152600260209081526040808320805460ff19166001179055600682529182902080546001600160801b0387166001600160801b031990911681179091558251938452908301527f69a85d8f30649b59eeb2b4393ea9eb9c9ed001f6974226d94a7fa2dfd562f15b910160405180910390a1505050565b335f9081526002602081905260409091205460ff168181111561069357610693610bea565b146106b05760405162461bcd60e51b81526004016102e390610cda565b5f60035f6106c55f546001600160a01b031690565b6001600160a01b0316815260208101919091526040015f20546001600160801b031690508061072b5760405162461bcd60e51b81526020600482015260126024820152714e6f2066756e647320617661696c61626c6560701b60448201526064016102e3565b5f60035f6107405f546001600160a01b031690565b6001600160a01b0316815260208101919091526040015f2080546001600160801b039283166001600160801b031990911617905561079a90821661078b5f546001600160a01b031690565b6001600160a01b031690610abc565b7f15ed0a7026c7f7b2319e041da1e43e0b566e892499962bc6b464292ef9d387576107cc5f546001600160a01b031690565b604080516001600160a01b0390921682526001600160801b0384166020830152015b60405180910390a150565b6004602052815f5260405f208181548110610812575f80fd5b905f5260205f209060029182820401919006601002915091509054906101000a90046001600160801b031681565b610848610a41565b6001600160a01b03811661087157604051631e4fbdf760e01b81525f60048201526024016102e3565b61087a81610a6d565b50565b335f9081526002602081905260409091205460ff16818111156108a2576108a2610bea565b146108bf5760405162461bcd60e51b81526004016102e390610cda565b601460ff8216111561090a5760405162461bcd60e51b81526020600482015260146024820152730a6cae4ecd2c6ca40cccaca40e8dede40d0d2ced60631b60448201526064016102e3565b6001805460ff60801b1916600160801b60ff8416908102919091179091556040519081527fc2e7293b347ac956898a90e36061ef247c8d3516f25e87a91009be115ce27ac4906020016107ee565b600180546001600160801b039081165f8181526005602090815260408083208054336001600160a01b03199091168117909155808452600483528184208054808901825590855283852060028204018054919098166010026101000a9687021916958502959095179095558451838152908101939093529290917fbafbc0bfd4afd8a222b8cd09b01ce310b06b0beb42503ea91a76135e6a532e92910160405180910390a1600180546001600160801b0316905f610a1583610d61565b91906101000a8154816001600160801b0302191690836001600160801b03160217905550508091505090565b5f546001600160a01b031633146103ff5760405163118cdaa760e01b81523360048201526024016102e3565b5f80546001600160a01b038381166001600160a01b0319831681178455604051919092169283917f8be0079c531659141344cd1fd0a4f28419497f9722a3daafe3b4186f6b6457e09190a35050565b80471015610ae65760405163cf47918160e01b8152476004820152602481018290526044016102e3565b5f5f836001600160a01b0316836040515f6040518083038185875af1925050503d805f8114610b30576040519150601f19603f3d011682016040523d82523d5f602084013e610b35565b606091505b509150915081610b4857610b4881610b4e565b50505050565b805115610b5e5780518082602001fd5b60405163d6bda27560e01b815260040160405180910390fd5b80356001600160a01b0381168114610b8d575f5ffd5b919050565b5f5f60408385031215610ba3575f5ffd5b610bac83610b77565b9150602083013560038110610bbf575f5ffd5b809150509250929050565b5f60208284031215610bda575f5ffd5b610be382610b77565b9392505050565b634e487b7160e01b5f52602160045260245ffd5b60038110610c1a57634e487b7160e01b5f52602160045260245ffd5b9052565b60208101610c2c8284610bfe565b92915050565b80356001600160801b0381168114610b8d575f5ffd5b5f5f60408385031215610c59575f5ffd5b610c6283610b77565b9150610c7060208401610c32565b90509250929050565b5f60208284031215610c89575f5ffd5b610be382610c32565b5f5f60408385031215610ca3575f5ffd5b610cac83610b77565b946020939093013593505050565b5f60208284031215610cca575f5ffd5b813560ff81168114610be3575f5ffd5b60208082526018908201527f556e617574686f72697a65643a2041646d696e206f6e6c790000000000000000604082015260600190565b6001600160a01b038316815260408101610be36020830184610bfe565b634e487b7160e01b5f52601160045260245ffd5b6001600160801b038181168382160190811115610c2c57610c2c610d2e565b5f6001600160801b0382166001600160801b038103610d8257610d82610d2e565b6001019291505056fea264697066735822122013a7fda9534c1974a615d7b81ade2632c397a89d9409dc994e977aceec8e4a1c64736f6c634300081e0033",
			"opcodes": "PUSH1 0x80 PUSH1 0x40 MSTORE PUSH1 0x1 DUP1 SLOAD PUSH1 0x1 PUSH1 0x1 PUSH1 0x88 SHL SUB NOT AND PUSH17 0x500000000000000000000000000000001 OR SWAP1 SSTORE CALLVALUE DUP1 ISZERO PUSH1 0x31 JUMPI PUSH0 PUSH0 REVERT JUMPDEST POP CALLER DUP1 PUSH1 0x56 JUMPI PUSH1 0x40 MLOAD PUSH4 0x1E4FBDF7 PUSH1 0xE0 SHL DUP2 MSTORE PUSH0 PUSH1 0x4 DUP3 ADD MSTORE PUSH1 0x24 ADD PUSH1 0x40 MLOAD DUP1 SWAP2 SUB SWAP1 REVERT JUMPDEST PUSH1 0x5D DUP2 PUSH1 0x7E JUMP JUMPDEST POP CALLER PUSH0 SWAP1 DUP2 MSTORE PUSH1 0x2 PUSH1 0x20 DUP2 SWAP1 MSTORE PUSH1 0x40 SWAP1 SWAP2 KECCAK256 DUP1 SLOAD PUSH1 0xFF NOT AND SWAP1 SWAP2 OR SWAP1 SSTORE PUSH1 0xCD JUMP JUMPDEST PUSH0 DUP1 SLOAD PUSH1 0x1 PUSH1 0x1 PUSH1 0xA0 SHL SUB DUP4 DUP2 AND PUSH1 0x1 PUSH1 0x1 PUSH1 0xA0 SHL SUB NOT DUP4 AND DUP2 OR DUP5 SSTORE PUSH1 0x40 MLOAD SWAP2 SWAP1 SWAP3 AND SWAP3 DUP4 SWAP2 PUSH32 0x8BE0079C531659141344CD1FD0A4F28419497F9722A3DAAFE3B4186F6B6457E0 SWAP2 SWAP1 LOG3 POP POP JUMP JUMPDEST PUSH2 0xDC1 DUP1 PUSH2 0xDA PUSH0 CODECOPY PUSH0 RETURN INVALID PUSH1 0x80 PUSH1 0x40 MSTORE CALLVALUE DUP1 ISZERO PUSH2 0xF JUMPI PUSH0 PUSH0 REVERT JUMPDEST POP PUSH1 0x4 CALLDATASIZE LT PUSH2 0xFB JUMPI PUSH0 CALLDATALOAD PUSH1 0xE0 SHR DUP1 PUSH4 0xAE9A4655 GT PUSH2 0x93 JUMPI DUP1 PUSH4 0xF2FDE38B GT PUSH2 0x63 JUMPI DUP1 PUSH4 0xF2FDE38B EQ PUSH2 0x24B JUMPI DUP1 PUSH4 0xF3F43703 EQ PUSH2 0x25E JUMPI DUP1 PUSH4 0xF7937282 EQ PUSH2 0x286 JUMPI DUP1 PUSH4 0xFA20FCA7 EQ PUSH2 0x299 JUMPI PUSH0 PUSH0 REVERT JUMPDEST DUP1 PUSH4 0xAE9A4655 EQ PUSH2 0x1DD JUMPI DUP1 PUSH4 0xD72E481D EQ PUSH2 0x1F0 JUMPI DUP1 PUSH4 0xD76D571A EQ PUSH2 0x1F8 JUMPI DUP1 PUSH4 0xE28D7A18 EQ PUSH2 0x223 JUMPI PUSH0 PUSH0 REVERT JUMPDEST DUP1 PUSH4 0x8DA5CB5B GT PUSH2 0xCE JUMPI DUP1 PUSH4 0x8DA5CB5B EQ PUSH2 0x14F JUMPI DUP1 PUSH4 0x99374642 EQ PUSH2 0x173 JUMPI DUP1 PUSH4 0xA0E31EC4 EQ PUSH2 0x1A2 JUMPI DUP1 PUSH4 0xABCA88F0 EQ PUSH2 0x1B5 JUMPI PUSH0 PUSH0 REVERT JUMPDEST DUP1 PUSH4 0x14D90E1B EQ PUSH2 0xFF JUMPI DUP1 PUSH4 0x603EF649 EQ PUSH2 0x11E JUMPI DUP1 PUSH4 0x630A195B EQ PUSH2 0x132 JUMPI DUP1 PUSH4 0x715018A6 EQ PUSH2 0x147 JUMPI JUMPDEST PUSH0 PUSH0 REVERT JUMPDEST PUSH2 0x107 PUSH1 0x14 DUP2 JUMP JUMPDEST PUSH1 0x40 MLOAD PUSH1 0xFF SWAP1 SWAP2 AND DUP2 MSTORE PUSH1 0x20 ADD JUMPDEST PUSH1 0x40 MLOAD DUP1 SWAP2 SUB SWAP1 RETURN JUMPDEST PUSH1 0x1 SLOAD PUSH2 0x107 SWAP1 PUSH1 0x1 PUSH1 0x80 SHL SWAP1 DIV PUSH1 0xFF AND DUP2 JUMP JUMPDEST PUSH2 0x145 PUSH2 0x140 CALLDATASIZE PUSH1 0x4 PUSH2 0xB92 JUMP JUMPDEST PUSH2 0x2A1 JUMP JUMPDEST STOP JUMPDEST PUSH2 0x145 PUSH2 0x3EE JUMP JUMPDEST PUSH0 SLOAD PUSH1 0x1 PUSH1 0x1 PUSH1 0xA0 SHL SUB AND JUMPDEST PUSH1 0x40 MLOAD PUSH1 0x1 PUSH1 0x1 PUSH1 0xA0 SHL SUB SWAP1 SWAP2 AND DUP2 MSTORE PUSH1 0x20 ADD PUSH2 0x115 JUMP JUMPDEST PUSH2 0x195 PUSH2 0x181 CALLDATASIZE PUSH1 0x4 PUSH2 0xBCA JUMP JUMPDEST PUSH1 0x2 PUSH1 0x20 MSTORE PUSH0 SWAP1 DUP2 MSTORE PUSH1 0x40 SWAP1 KECCAK256 SLOAD PUSH1 0xFF AND DUP2 JUMP JUMPDEST PUSH1 0x40 MLOAD PUSH2 0x115 SWAP2 SWAP1 PUSH2 0xC1E JUMP JUMPDEST PUSH2 0x145 PUSH2 0x1B0 CALLDATASIZE PUSH1 0x4 PUSH2 0xC48 JUMP JUMPDEST PUSH2 0x401 JUMP JUMPDEST PUSH2 0x15B PUSH2 0x1C3 CALLDATASIZE PUSH1 0x4 PUSH2 0xC79 JUMP JUMPDEST PUSH1 0x5 PUSH1 0x20 MSTORE PUSH0 SWAP1 DUP2 MSTORE PUSH1 0x40 SWAP1 KECCAK256 SLOAD PUSH1 0x1 PUSH1 0x1 PUSH1 0xA0 SHL SUB AND DUP2 JUMP JUMPDEST PUSH2 0x145 PUSH2 0x1EB CALLDATASIZE PUSH1 0x4 PUSH2 0xC48 JUMP JUMPDEST PUSH2 0x4CE JUMP JUMPDEST PUSH2 0x145 PUSH2 0x66E JUMP JUMPDEST PUSH2 0x20B PUSH2 0x206 CALLDATASIZE PUSH1 0x4 PUSH2 0xC92 JUMP JUMPDEST PUSH2 0x7F9 JUMP JUMPDEST PUSH1 0x40 MLOAD PUSH1 0x1 PUSH1 0x1 PUSH1 0x80 SHL SUB SWAP1 SWAP2 AND DUP2 MSTORE PUSH1 0x20 ADD PUSH2 0x115 JUMP JUMPDEST PUSH2 0x20B PUSH2 0x231 CALLDATASIZE PUSH1 0x4 PUSH2 0xBCA JUMP JUMPDEST PUSH1 0x6 PUSH1 0x20 MSTORE PUSH0 SWAP1 DUP2 MSTORE PUSH1 0x40 SWAP1 KECCAK256 SLOAD PUSH1 0x1 PUSH1 0x1 PUSH1 0x80 SHL SUB AND DUP2 JUMP JUMPDEST PUSH2 0x145 PUSH2 0x259 CALLDATASIZE PUSH1 0x4 PUSH2 0xBCA JUMP JUMPDEST PUSH2 0x840 JUMP JUMPDEST PUSH2 0x20B PUSH2 0x26C CALLDATASIZE PUSH1 0x4 PUSH2 0xBCA JUMP JUMPDEST PUSH1 0x3 PUSH1 0x20 MSTORE PUSH0 SWAP1 DUP2 MSTORE PUSH1 0x40 SWAP1 KECCAK256 SLOAD PUSH1 0x1 PUSH1 0x1 PUSH1 0x80 SHL SUB AND DUP2 JUMP JUMPDEST PUSH2 0x145 PUSH2 0x294 CALLDATASIZE PUSH1 0x4 PUSH2 0xCBA JUMP JUMPDEST PUSH2 0x87D JUMP JUMPDEST PUSH2 0x20B PUSH2 0x958 JUMP JUMPDEST CALLER PUSH0 SWAP1 DUP2 MSTORE PUSH1 0x2 PUSH1 0x20 DUP2 SWAP1 MSTORE PUSH1 0x40 SWAP1 SWAP2 KECCAK256 SLOAD PUSH1 0xFF AND DUP2 DUP2 GT ISZERO PUSH2 0x2C6 JUMPI PUSH2 0x2C6 PUSH2 0xBEA JUMP JUMPDEST EQ PUSH2 0x2EC JUMPI PUSH1 0x40 MLOAD PUSH3 0x461BCD PUSH1 0xE5 SHL DUP2 MSTORE PUSH1 0x4 ADD PUSH2 0x2E3 SWAP1 PUSH2 0xCDA JUMP JUMPDEST PUSH1 0x40 MLOAD DUP1 SWAP2 SUB SWAP1 REVERT JUMPDEST PUSH1 0x1 PUSH1 0x1 PUSH1 0xA0 SHL SUB DUP3 AND PUSH2 0x334 JUMPI PUSH1 0x40 MLOAD PUSH3 0x461BCD PUSH1 0xE5 SHL DUP2 MSTORE PUSH1 0x20 PUSH1 0x4 DUP3 ADD MSTORE PUSH1 0xF PUSH1 0x24 DUP3 ADD MSTORE PUSH15 0x496E76616C69642061646472657373 PUSH1 0x88 SHL PUSH1 0x44 DUP3 ADD MSTORE PUSH1 0x64 ADD PUSH2 0x2E3 JUMP JUMPDEST PUSH1 0x1 PUSH1 0x1 PUSH1 0xA0 SHL SUB DUP3 AND PUSH0 SWAP1 DUP2 MSTORE PUSH1 0x2 PUSH1 0x20 DUP2 SWAP1 MSTORE PUSH1 0x40 SWAP1 SWAP2 KECCAK256 DUP1 SLOAD DUP4 SWAP3 PUSH1 0xFF NOT SWAP1 SWAP2 AND SWAP1 PUSH1 0x1 SWAP1 DUP5 SWAP1 DUP2 GT ISZERO PUSH2 0x36D JUMPI PUSH2 0x36D PUSH2 0xBEA JUMP JUMPDEST MUL OR SWAP1 SSTORE POP PUSH1 0x1 DUP2 PUSH1 0x2 DUP2 GT ISZERO PUSH2 0x386 JUMPI PUSH2 0x386 PUSH2 0xBEA JUMP JUMPDEST EQ PUSH2 0x3B1 JUMPI PUSH1 0x1 PUSH1 0x1 PUSH1 0xA0 SHL SUB DUP3 AND PUSH0 SWAP1 DUP2 MSTORE PUSH1 0x6 PUSH1 0x20 MSTORE PUSH1 0x40 SWAP1 KECCAK256 DUP1 SLOAD PUSH1 0x1 PUSH1 0x1 PUSH1 0x80 SHL SUB NOT AND SWAP1 SSTORE JUMPDEST PUSH32 0x4AC36FA53F167CEB85964BE512E01DE2A3B8BDB9862F917DA079DEEEFF689B38 DUP3 DUP3 PUSH1 0x40 MLOAD PUSH2 0x3E2 SWAP3 SWAP2 SWAP1 PUSH2 0xD11 JUMP JUMPDEST PUSH1 0x40 MLOAD DUP1 SWAP2 SUB SWAP1 LOG1 POP POP JUMP JUMPDEST PUSH2 0x3F6 PUSH2 0xA41 JUMP JUMPDEST PUSH2 0x3FF PUSH0 PUSH2 0xA6D JUMP JUMPDEST JUMP JUMPDEST PUSH0 SLOAD PUSH1 0x1 PUSH1 0x1 PUSH1 0xA0 SHL SUB AND CALLER EQ DUP1 PUSH2 0x43B JUMPI POP CALLER PUSH0 SWAP1 DUP2 MSTORE PUSH1 0x2 PUSH1 0x20 DUP2 SWAP1 MSTORE PUSH1 0x40 SWAP1 SWAP2 KECCAK256 SLOAD PUSH1 0xFF AND DUP2 DUP2 GT ISZERO PUSH2 0x439 JUMPI PUSH2 0x439 PUSH2 0xBEA JUMP JUMPDEST EQ JUMPDEST PUSH2 0x476 JUMPI PUSH1 0x40 MLOAD PUSH3 0x461BCD PUSH1 0xE5 SHL DUP2 MSTORE PUSH1 0x20 PUSH1 0x4 DUP3 ADD MSTORE PUSH1 0xC PUSH1 0x24 DUP3 ADD MSTORE PUSH12 0x155B985D5D1A1BDC9A5E9959 PUSH1 0xA2 SHL PUSH1 0x44 DUP3 ADD MSTORE PUSH1 0x64 ADD PUSH2 0x2E3 JUMP JUMPDEST PUSH1 0x1 PUSH1 0x1 PUSH1 0xA0 SHL SUB DUP3 AND PUSH0 SWAP1 DUP2 MSTORE PUSH1 0x3 PUSH1 0x20 MSTORE PUSH1 0x40 DUP2 KECCAK256 DUP1 SLOAD DUP4 SWAP3 SWAP1 PUSH2 0x4A6 SWAP1 DUP5 SWAP1 PUSH1 0x1 PUSH1 0x1 PUSH1 0x80 SHL SUB AND PUSH2 0xD42 JUMP JUMPDEST SWAP3 POP PUSH2 0x100 EXP DUP2 SLOAD DUP2 PUSH1 0x1 PUSH1 0x1 PUSH1 0x80 SHL SUB MUL NOT AND SWAP1 DUP4 PUSH1 0x1 PUSH1 0x1 PUSH1 0x80 SHL SUB AND MUL OR SWAP1 SSTORE POP POP POP JUMP JUMPDEST PUSH1 0x1 PUSH1 0x1 PUSH1 0x80 SHL SUB DUP2 AND PUSH0 SWAP1 DUP2 MSTORE PUSH1 0x5 PUSH1 0x20 MSTORE PUSH1 0x40 SWAP1 KECCAK256 SLOAD DUP2 SWAP1 PUSH1 0x1 PUSH1 0x1 PUSH1 0xA0 SHL SUB AND CALLER EQ PUSH2 0x536 JUMPI PUSH1 0x40 MLOAD PUSH3 0x461BCD PUSH1 0xE5 SHL DUP2 MSTORE PUSH1 0x20 PUSH1 0x4 DUP3 ADD MSTORE PUSH1 0x14 PUSH1 0x24 DUP3 ADD MSTORE PUSH20 0x2737BA103932B9BA30BAB930B73A1037BBB732B9 PUSH1 0x61 SHL PUSH1 0x44 DUP3 ADD MSTORE PUSH1 0x64 ADD PUSH2 0x2E3 JUMP JUMPDEST PUSH1 0x1 PUSH1 0x1 PUSH1 0xA0 SHL SUB DUP4 AND PUSH2 0x57E JUMPI PUSH1 0x40 MLOAD PUSH3 0x461BCD PUSH1 0xE5 SHL DUP2 MSTORE PUSH1 0x20 PUSH1 0x4 DUP3 ADD MSTORE PUSH1 0xF PUSH1 0x24 DUP3 ADD MSTORE PUSH15 0x496E76616C69642061646472657373 PUSH1 0x88 SHL PUSH1 0x44 DUP3 ADD MSTORE PUSH1 0x64 ADD PUSH2 0x2E3 JUMP JUMPDEST PUSH1 0x1 PUSH1 0x1 PUSH1 0x80 SHL SUB DUP3 AND PUSH0 SWAP1 DUP2 MSTORE PUSH1 0x5 PUSH1 0x20 MSTORE PUSH1 0x40 SWAP1 KECCAK256 SLOAD PUSH1 0x1 PUSH1 0x1 PUSH1 0xA0 SHL SUB AND PUSH2 0x5EB JUMPI PUSH1 0x40 MLOAD PUSH3 0x461BCD PUSH1 0xE5 SHL DUP2 MSTORE PUSH1 0x20 PUSH1 0x4 DUP3 ADD MSTORE PUSH1 0x19 PUSH1 0x24 DUP3 ADD MSTORE PUSH32 0x52657374617572616E7420646F6573206E6F7420657869737400000000000000 PUSH1 0x44 DUP3 ADD MSTORE PUSH1 0x64 ADD PUSH2 0x2E3 JUMP JUMPDEST PUSH1 0x1 PUSH1 0x1 PUSH1 0xA0 SHL SUB DUP4 AND PUSH0 DUP2 DUP2 MSTORE PUSH1 0x2 PUSH1 0x20 SWAP1 DUP2 MSTORE PUSH1 0x40 DUP1 DUP4 KECCAK256 DUP1 SLOAD PUSH1 0xFF NOT AND PUSH1 0x1 OR SWAP1 SSTORE PUSH1 0x6 DUP3 MSTORE SWAP2 DUP3 SWAP1 KECCAK256 DUP1 SLOAD PUSH1 0x1 PUSH1 0x1 PUSH1 0x80 SHL SUB DUP8 AND PUSH1 0x1 PUSH1 0x1 PUSH1 0x80 SHL SUB NOT SWAP1 SWAP2 AND DUP2 OR SWAP1 SWAP2 SSTORE DUP3 MLOAD SWAP4 DUP5 MSTORE SWAP1 DUP4 ADD MSTORE PUSH32 0x69A85D8F30649B59EEB2B4393EA9EB9C9ED001F6974226D94A7FA2DFD562F15B SWAP2 ADD PUSH1 0x40 MLOAD DUP1 SWAP2 SUB SWAP1 LOG1 POP POP POP JUMP JUMPDEST CALLER PUSH0 SWAP1 DUP2 MSTORE PUSH1 0x2 PUSH1 0x20 DUP2 SWAP1 MSTORE PUSH1 0x40 SWAP1 SWAP2 KECCAK256 SLOAD PUSH1 0xFF AND DUP2 DUP2 GT ISZERO PUSH2 0x693 JUMPI PUSH2 0x693 PUSH2 0xBEA JUMP JUMPDEST EQ PUSH2 0x6B0 JUMPI PUSH1 0x40 MLOAD PUSH3 0x461BCD PUSH1 0xE5 SHL DUP2 MSTORE PUSH1 0x4 ADD PUSH2 0x2E3 SWAP1 PUSH2 0xCDA JUMP JUMPDEST PUSH0 PUSH1 0x3 PUSH0 PUSH2 0x6C5 PUSH0 SLOAD PUSH1 0x1 PUSH1 0x1 PUSH1 0xA0 SHL SUB AND SWAP1 JUMP JUMPDEST PUSH1 0x1 PUSH1 0x1 PUSH1 0xA0 SHL SUB AND DUP2 MSTORE PUSH1 0x20 DUP2 ADD SWAP2 SWAP1 SWAP2 MSTORE PUSH1 0x40 ADD PUSH0 KECCAK256 SLOAD PUSH1 0x1 PUSH1 0x1 PUSH1 0x80 SHL SUB AND SWAP1 POP DUP1 PUSH2 0x72B JUMPI PUSH1 0x40 MLOAD PUSH3 0x461BCD PUSH1 0xE5 SHL DUP2 MSTORE PUSH1 0x20 PUSH1 0x4 DUP3 ADD MSTORE PUSH1 0x12 PUSH1 0x24 DUP3 ADD MSTORE PUSH18 0x4E6F2066756E647320617661696C61626C65 PUSH1 0x70 SHL PUSH1 0x44 DUP3 ADD MSTORE PUSH1 0x64 ADD PUSH2 0x2E3 JUMP JUMPDEST PUSH0 PUSH1 0x3 PUSH0 PUSH2 0x740 PUSH0 SLOAD PUSH1 0x1 PUSH1 0x1 PUSH1 0xA0 SHL SUB AND SWAP1 JUMP JUMPDEST PUSH1 0x1 PUSH1 0x1 PUSH1 0xA0 SHL SUB AND DUP2 MSTORE PUSH1 0x20 DUP2 ADD SWAP2 SWAP1 SWAP2 MSTORE PUSH1 0x40 ADD PUSH0 KECCAK256 DUP1 SLOAD PUSH1 0x1 PUSH1 0x1 PUSH1 0x80 SHL SUB SWAP3 DUP4 AND PUSH1 0x1 PUSH1 0x1 PUSH1 0x80 SHL SUB NOT SWAP1 SWAP2 AND OR SWAP1 SSTORE PUSH2 0x79A SWAP1 DUP3 AND PUSH2 0x78B PUSH0 SLOAD PUSH1 0x1 PUSH1 0x1 PUSH1 0xA0 SHL SUB AND SWAP1 JUMP JUMPDEST PUSH1 0x1 PUSH1 0x1 PUSH1 0xA0 SHL SUB AND SWAP1 PUSH2 0xABC JUMP JUMPDEST PUSH32 0x15ED0A7026C7F7B2319E041DA1E43E0B566E892499962BC6B464292EF9D38757 PUSH2 0x7CC PUSH0 SLOAD PUSH1 0x1 PUSH1 0x1 PUSH1 0xA0 SHL SUB AND SWAP1 JUMP JUMPDEST PUSH1 0x40 DUP1 MLOAD PUSH1 0x1 PUSH1 0x1 PUSH1 0xA0 SHL SUB SWAP1 SWAP3 AND DUP3 MSTORE PUSH1 0x1 PUSH1 0x1 PUSH1 0x80 SHL SUB DUP5 AND PUSH1 0x20 DUP4 ADD MSTORE ADD JUMPDEST PUSH1 0x40 MLOAD DUP1 SWAP2 SUB SWAP1 LOG1 POP JUMP JUMPDEST PUSH1 0x4 PUSH1 0x20 MSTORE DUP2 PUSH0 MSTORE PUSH1 0x40 PUSH0 KECCAK256 DUP2 DUP2 SLOAD DUP2 LT PUSH2 0x812 JUMPI PUSH0 DUP1 REVERT JUMPDEST SWAP1 PUSH0 MSTORE PUSH1 0x20 PUSH0 KECCAK256 SWAP1 PUSH1 0x2 SWAP2 DUP3 DUP3 DIV ADD SWAP2 SWAP1 MOD PUSH1 0x10 MUL SWAP2 POP SWAP2 POP SWAP1 SLOAD SWAP1 PUSH2 0x100 EXP SWAP1 DIV PUSH1 0x1 PUSH1 0x1 PUSH1 0x80 SHL SUB AND DUP2 JUMP JUMPDEST PUSH2 0x848 PUSH2 0xA41 JUMP JUMPDEST PUSH1 0x1 PUSH1 0x1 PUSH1 0xA0 SHL SUB DUP2 AND PUSH2 0x871 JUMPI PUSH1 0x40 MLOAD PUSH4 0x1E4FBDF7 PUSH1 0xE0 SHL DUP2 MSTORE PUSH0 PUSH1 0x4 DUP3 ADD MSTORE PUSH1 0x24 ADD PUSH2 0x2E3 JUMP JUMPDEST PUSH2 0x87A DUP2 PUSH2 0xA6D JUMP JUMPDEST POP JUMP JUMPDEST CALLER PUSH0 SWAP1 DUP2 MSTORE PUSH1 0x2 PUSH1 0x20 DUP2 SWAP1 MSTORE PUSH1 0x40 SWAP1 SWAP2 KECCAK256 SLOAD PUSH1 0xFF AND DUP2 DUP2 GT ISZERO PUSH2 0x8A2 JUMPI PUSH2 0x8A2 PUSH2 0xBEA JUMP JUMPDEST EQ PUSH2 0x8BF JUMPI PUSH1 0x40 MLOAD PUSH3 0x461BCD PUSH1 0xE5 SHL DUP2 MSTORE PUSH1 0x4 ADD PUSH2 0x2E3 SWAP1 PUSH2 0xCDA JUMP JUMPDEST PUSH1 0x14 PUSH1 0xFF DUP3 AND GT ISZERO PUSH2 0x90A JUMPI PUSH1 0x40 MLOAD PUSH3 0x461BCD PUSH1 0xE5 SHL DUP2 MSTORE PUSH1 0x20 PUSH1 0x4 DUP3 ADD MSTORE PUSH1 0x14 PUSH1 0x24 DUP3 ADD MSTORE PUSH20 0xA6CAE4ECD2C6CA40CCCACA40E8DEDE40D0D2CED PUSH1 0x63 SHL PUSH1 0x44 DUP3 ADD MSTORE PUSH1 0x64 ADD PUSH2 0x2E3 JUMP JUMPDEST PUSH1 0x1 DUP1 SLOAD PUSH1 0xFF PUSH1 0x80 SHL NOT AND PUSH1 0x1 PUSH1 0x80 SHL PUSH1 0xFF DUP5 AND SWAP1 DUP2 MUL SWAP2 SWAP1 SWAP2 OR SWAP1 SWAP2 SSTORE PUSH1 0x40 MLOAD SWAP1 DUP2 MSTORE PUSH32 0xC2E7293B347AC956898A90E36061EF247C8D3516F25E87A91009BE115CE27AC4 SWAP1 PUSH1 0x20 ADD PUSH2 0x7EE JUMP JUMPDEST PUSH1 0x1 DUP1 SLOAD PUSH1 0x1 PUSH1 0x1 PUSH1 0x80 SHL SUB SWAP1 DUP2 AND PUSH0 DUP2 DUP2 MSTORE PUSH1 0x5 PUSH1 0x20 SWAP1 DUP2 MSTORE PUSH1 0x40 DUP1 DUP4 KECCAK256 DUP1 SLOAD CALLER PUSH1 0x1 PUSH1 0x1 PUSH1 0xA0 SHL SUB NOT SWAP1 SWAP2 AND DUP2 OR SWAP1 SWAP2 SSTORE DUP1 DUP5 MSTORE PUSH1 0x4 DUP4 MSTORE DUP2 DUP5 KECCAK256 DUP1 SLOAD DUP1 DUP10 ADD DUP3 SSTORE SWAP1 DUP6 MSTORE DUP4 DUP6 KECCAK256 PUSH1 0x2 DUP3 DIV ADD DUP1 SLOAD SWAP2 SWAP1 SWAP9 AND PUSH1 0x10 MUL PUSH2 0x100 EXP SWAP7 DUP8 MUL NOT AND SWAP6 DUP6 MUL SWAP6 SWAP1 SWAP6 OR SWAP1 SWAP6 SSTORE DUP5 MLOAD DUP4 DUP2 MSTORE SWAP1 DUP2 ADD SWAP4 SWAP1 SWAP4 MSTORE SWAP3 SWAP1 SWAP2 PUSH32 0xBAFBC0BFD4AFD8A222B8CD09B01CE310B06B0BEB42503EA91A76135E6A532E92 SWAP2 ADD PUSH1 0x40 MLOAD DUP1 SWAP2 SUB SWAP1 LOG1 PUSH1 0x1 DUP1 SLOAD PUSH1 0x1 PUSH1 0x1 PUSH1 0x80 SHL SUB AND SWAP1 PUSH0 PUSH2 0xA15 DUP4 PUSH2 0xD61 JUMP JUMPDEST SWAP2 SWAP1 PUSH2 0x100 EXP DUP2 SLOAD DUP2 PUSH1 0x1 PUSH1 0x1 PUSH1 0x80 SHL SUB MUL NOT AND SWAP1 DUP4 PUSH1 0x1 PUSH1 0x1 PUSH1 0x80 SHL SUB AND MUL OR SWAP1 SSTORE POP POP DUP1 SWAP2 POP POP SWAP1 JUMP JUMPDEST PUSH0 SLOAD PUSH1 0x1 PUSH1 0x1 PUSH1 0xA0 SHL SUB AND CALLER EQ PUSH2 0x3FF JUMPI PUSH1 0x40 MLOAD PUSH4 0x118CDAA7 PUSH1 0xE0 SHL DUP2 MSTORE CALLER PUSH1 0x4 DUP3 ADD MSTORE PUSH1 0x24 ADD PUSH2 0x2E3 JUMP JUMPDEST PUSH0 DUP1 SLOAD PUSH1 0x1 PUSH1 0x1 PUSH1 0xA0 SHL SUB DUP4 DUP2 AND PUSH1 0x1 PUSH1 0x1 PUSH1 0xA0 SHL SUB NOT DUP4 AND DUP2 OR DUP5 SSTORE PUSH1 0x40 MLOAD SWAP2 SWAP1 SWAP3 AND SWAP3 DUP4 SWAP2 PUSH32 0x8BE0079C531659141344CD1FD0A4F28419497F9722A3DAAFE3B4186F6B6457E0 SWAP2 SWAP1 LOG3 POP POP JUMP JUMPDEST DUP1 SELFBALANCE LT ISZERO PUSH2 0xAE6 JUMPI PUSH1 0x40 MLOAD PUSH4 0xCF479181 PUSH1 0xE0 SHL DUP2 MSTORE SELFBALANCE PUSH1 0x4 DUP3 ADD MSTORE PUSH1 0x24 DUP2 ADD DUP3 SWAP1 MSTORE PUSH1 0x44 ADD PUSH2 0x2E3 JUMP JUMPDEST PUSH0 PUSH0 DUP4 PUSH1 0x1 PUSH1 0x1 PUSH1 0xA0 SHL SUB AND DUP4 PUSH1 0x40 MLOAD PUSH0 PUSH1 0x40 MLOAD DUP1 DUP4 SUB DUP2 DUP6 DUP8 GAS CALL SWAP3 POP POP POP RETURNDATASIZE DUP1 PUSH0 DUP2 EQ PUSH2 0xB30 JUMPI PUSH1 0x40 MLOAD SWAP2 POP PUSH1 0x1F NOT PUSH1 0x3F RETURNDATASIZE ADD AND DUP3 ADD PUSH1 0x40 MSTORE RETURNDATASIZE DUP3 MSTORE RETURNDATASIZE PUSH0 PUSH1 0x20 DUP5 ADD RETURNDATACOPY PUSH2 0xB35 JUMP JUMPDEST PUSH1 0x60 SWAP2 POP JUMPDEST POP SWAP2 POP SWAP2 POP DUP2 PUSH2 0xB48 JUMPI PUSH2 0xB48 DUP2 PUSH2 0xB4E JUMP JUMPDEST POP POP POP POP JUMP JUMPDEST DUP1 MLOAD ISZERO PUSH2 0xB5E JUMPI DUP1 MLOAD DUP1 DUP3 PUSH1 0x20 ADD REVERT JUMPDEST PUSH1 0x40 MLOAD PUSH4 0xD6BDA275 PUSH1 0xE0 SHL DUP2 MSTORE PUSH1 0x4 ADD PUSH1 0x40 MLOAD DUP1 SWAP2 SUB SWAP1 REVERT JUMPDEST DUP1 CALLDATALOAD PUSH1 0x1 PUSH1 0x1 PUSH1 0xA0 SHL SUB DUP2 AND DUP2 EQ PUSH2 0xB8D JUMPI PUSH0 PUSH0 REVERT JUMPDEST SWAP2 SWAP1 POP JUMP JUMPDEST PUSH0 PUSH0 PUSH1 0x40 DUP4 DUP6 SUB SLT ISZERO PUSH2 0xBA3 JUMPI PUSH0 PUSH0 REVERT JUMPDEST PUSH2 0xBAC DUP4 PUSH2 0xB77 JUMP JUMPDEST SWAP2 POP PUSH1 0x20 DUP4 ADD CALLDATALOAD PUSH1 0x3 DUP2 LT PUSH2 0xBBF JUMPI PUSH0 PUSH0 REVERT JUMPDEST DUP1 SWAP2 POP POP SWAP3 POP SWAP3 SWAP1 POP JUMP JUMPDEST PUSH0 PUSH1 0x20 DUP3 DUP5 SUB SLT ISZERO PUSH2 0xBDA JUMPI PUSH0 PUSH0 REVERT JUMPDEST PUSH2 0xBE3 DUP3 PUSH2 0xB77 JUMP JUMPDEST SWAP4 SWAP3 POP POP POP JUMP JUMPDEST PUSH4 0x4E487B71 PUSH1 0xE0 SHL PUSH0 MSTORE PUSH1 0x21 PUSH1 0x4 MSTORE PUSH1 0x24 PUSH0 REVERT JUMPDEST PUSH1 0x3 DUP2 LT PUSH2 0xC1A JUMPI PUSH4 0x4E487B71 PUSH1 0xE0 SHL PUSH0 MSTORE PUSH1 0x21 PUSH1 0x4 MSTORE PUSH1 0x24 PUSH0 REVERT JUMPDEST SWAP1 MSTORE JUMP JUMPDEST PUSH1 0x20 DUP2 ADD PUSH2 0xC2C DUP3 DUP5 PUSH2 0xBFE JUMP JUMPDEST SWAP3 SWAP2 POP POP JUMP JUMPDEST DUP1 CALLDATALOAD PUSH1 0x1 PUSH1 0x1 PUSH1 0x80 SHL SUB DUP2 AND DUP2 EQ PUSH2 0xB8D JUMPI PUSH0 PUSH0 REVERT JUMPDEST PUSH0 PUSH0 PUSH1 0x40 DUP4 DUP6 SUB SLT ISZERO PUSH2 0xC59 JUMPI PUSH0 PUSH0 REVERT JUMPDEST PUSH2 0xC62 DUP4 PUSH2 0xB77 JUMP JUMPDEST SWAP2 POP PUSH2 0xC70 PUSH1 0x20 DUP5 ADD PUSH2 0xC32 JUMP JUMPDEST SWAP1 POP SWAP3 POP SWAP3 SWAP1 POP JUMP JUMPDEST PUSH0 PUSH1 0x20 DUP3 DUP5 SUB SLT ISZERO PUSH2 0xC89 JUMPI PUSH0 PUSH0 REVERT JUMPDEST PUSH2 0xBE3 DUP3 PUSH2 0xC32 JUMP JUMPDEST PUSH0 PUSH0 PUSH1 0x40 DUP4 DUP6 SUB SLT ISZERO PUSH2 0xCA3 JUMPI PUSH0 PUSH0 REVERT JUMPDEST PUSH2 0xCAC DUP4 PUSH2 0xB77 JUMP JUMPDEST SWAP5 PUSH1 0x20 SWAP4 SWAP1 SWAP4 ADD CALLDATALOAD SWAP4 POP POP POP JUMP JUMPDEST PUSH0 PUSH1 0x20 DUP3 DUP5 SUB SLT ISZERO PUSH2 0xCCA JUMPI PUSH0 PUSH0 REVERT JUMPDEST DUP2 CALLDATALOAD PUSH1 0xFF DUP2 AND DUP2 EQ PUSH2 0xBE3 JUMPI PUSH0 PUSH0 REVERT JUMPDEST PUSH1 0x20 DUP1 DUP3 MSTORE PUSH1 0x18 SWAP1 DUP3 ADD MSTORE PUSH32 0x556E617574686F72697A65643A2041646D696E206F6E6C790000000000000000 PUSH1 0x40 DUP3 ADD MSTORE PUSH1 0x60 ADD SWAP1 JUMP JUMPDEST PUSH1 0x1 PUSH1 0x1 PUSH1 0xA0 SHL SUB DUP4 AND DUP2 MSTORE PUSH1 0x40 DUP2 ADD PUSH2 0xBE3 PUSH1 0x20 DUP4 ADD DUP5 PUSH2 0xBFE JUMP JUMPDEST PUSH4 0x4E487B71 PUSH1 0xE0 SHL PUSH0 MSTORE PUSH1 0x11 PUSH1 0x4 MSTORE PUSH1 0x24 PUSH0 REVERT JUMPDEST PUSH1 0x1 PUSH1 0x1 PUSH1 0x80 SHL SUB DUP2 DUP2 AND DUP4 DUP3 AND ADD SWAP1 DUP2 GT ISZERO PUSH2 0xC2C JUMPI PUSH2 0xC2C PUSH2 0xD2E JUMP JUMPDEST PUSH0 PUSH1 0x1 PUSH1 0x1 PUSH1 0x80 SHL SUB DUP3 AND PUSH1 0x1 PUSH1 0x1 PUSH1 0x80 SHL SUB DUP2 SUB PUSH2 0xD82 JUMPI PUSH2 0xD82 PUSH2 0xD2E JUMP JUMPDEST PUSH1 0x1 ADD SWAP3 SWAP2 POP POP JUMP INVALID LOG2 PUSH5 0x6970667358 0x22 SLT KECCAK256 SGT 0xA7 REVERT 0xA9 MSTORE8 0x4C NOT PUSH21 0xA615D7B81ADE2632C397A89D9409DC994E977ACEEC DUP15 BLOBBASEFEE SHR PUSH5 0x736F6C6343 STOP ADDMOD 0x1E STOP CALLER "
		},
		"gasEstimates": {
			"creation": {
				"codeDepositCost": "704200",
				"executionCost": "75140",
				"totalCost": "779340"
			},
			"external": {
				"MAX_SERVICE_FEE()": "216",
				"addPendingWithdrawal(address,uint128)": "infinite",
				"assignRole(address,uint8)": "52876",
				"assignStaff(address,uint128)": "infinite",
				"owner()": "2341",
				"ownerRestaurants(address,uint256)": "6504",
				"pendingWithdrawals(address)": "2599",
				"registerRestaurant()": "104858",
				"renounceOwnership()": "infinite",
				"restaurantOwners(uint128)": "2644",
				"roles(address)": "2648",
				"serviceFeePercentage()": "2364",
				"setServiceFeePercentage(uint8)": "27918",
				"staffRestaurant(address)": "2644",
				"transferOwnership(address)": "28351",
				"withdrawServiceFees()": "infinite"
			}
		},
		"methodIdentifiers": {
			"MAX_SERVICE_FEE()": "14d90e1b",
			"addPendingWithdrawal(address,uint128)": "a0e31ec4",
			"assignRole(address,uint8)": "630a195b",
			"assignStaff(address,uint128)": "ae9a4655",
			"owner()": "8da5cb5b",
			"ownerRestaurants(address,uint256)": "d76d571a",
			"pendingWithdrawals(address)": "f3f43703",
			"registerRestaurant()": "fa20fca7",
			"renounceOwnership()": "715018a6",
			"restaurantOwners(uint128)": "abca88f0",
			"roles(address)": "99374642",
			"serviceFeePercentage()": "603ef649",
			"setServiceFeePercentage(uint8)": "f7937282",
			"staffRestaurant(address)": "e28d7a18",
			"transferOwnership(address)": "f2fde38b",
			"withdrawServiceFees()": "d72e481d"
		}
	},
	"abi": [
		{
			"inputs": [],
			"stateMutability": "nonpayable",
			"type": "constructor"
		},
		{
			"inputs": [],
			"name": "FailedCall",
			"type": "error"
		},
		{
			"inputs": [
				{
					"internalType": "uint256",
					"name": "balance",
					"type": "uint256"
				},
				{
					"internalType": "uint256",
					"name": "needed",
					"type": "uint256"
				}
			],
			"name": "InsufficientBalance",
			"type": "error"
		},
		{
			"inputs": [
				{
					"internalType": "address",
					"name": "owner",
					"type": "address"
				}
			],
			"name": "OwnableInvalidOwner",
			"type": "error"
		},
		{
			"inputs": [
				{
					"internalType": "address",
					"name": "account",
					"type": "address"
				}
			],
			"name": "OwnableUnauthorizedAccount",
			"type": "error"
		},
		{
			"anonymous": false,
			"inputs": [
				{
					"indexed": true,
					"internalType": "address",
					"name": "previousOwner",
					"type": "address"
				},
				{
					"indexed": true,
					"internalType": "address",
					"name": "newOwner",
					"type": "address"
				}
			],
			"name": "OwnershipTransferred",
			"type": "event"
		},
		{
			"anonymous": false,
			"inputs": [
				{
					"indexed": false,
					"internalType": "address",
					"name": "recipient",
					"type": "address"
				},
				{
					"indexed": false,
					"internalType": "uint128",
					"name": "amount",
					"type": "uint128"
				}
			],
			"name": "PaymentReleased",
			"type": "event"
		},
		{
			"anonymous": false,
			"inputs": [
				{
					"indexed": false,
					"internalType": "uint128",
					"name": "restaurantId",
					"type": "uint128"
				},
				{
					"indexed": false,
					"internalType": "address",
					"name": "owner",
					"type": "address"
				}
			],
			"name": "RestaurantRegistered",
			"type": "event"
		},
		{
			"anonymous": false,
			"inputs": [
				{
					"indexed": false,
					"internalType": "address",
					"name": "user",
					"type": "address"
				},
				{
					"indexed": false,
					"internalType": "enum RestaurantManager.Role",
					"name": "role",
					"type": "uint8"
				}
			],
			"name": "RoleAssigned",
			"type": "event"
		},
		{
			"anonymous": false,
			"inputs": [
				{
					"indexed": false,
					"internalType": "uint8",
					"name": "newPercentage",
					"type": "uint8"
				}
			],
			"name": "ServiceFeeUpdated",
			"type": "event"
		},
		{
			"anonymous": false,
			"inputs": [
				{
					"indexed": false,
					"internalType": "address",
					"name": "staff",
					"type": "address"
				},
				{
					"indexed": false,
					"internalType": "uint128",
					"name": "restaurantId",
					"type": "uint128"
				}
			],
			"name": "StaffAssigned",
			"type": "event"
		},
		{
			"inputs": [],
			"name": "MAX_SERVICE_FEE",
			"outputs": [
				{
					"internalType": "uint8",
					"name": "",
					"type": "uint8"
				}
			],
			"stateMutability": "view",
			"type": "function"
		},
		{
			"inputs": [
				{
					"internalType": "address",
					"name": "recipient",
					"type": "address"
				},
				{
					"internalType": "uint128",
					"name": "amount",
					"type": "uint128"
				}
			],
			"name": "addPendingWithdrawal",
			"outputs": [],
			"stateMutability": "nonpayable",
			"type": "function"
		},
		{
			"inputs": [
				{
					"internalType": "address",
					"name": "user",
					"type": "address"
				},
				{
					"internalType": "enum RestaurantManager.Role",
					"name": "role",
					"type": "uint8"
				}
			],
			"name": "assignRole",
			"outputs": [],
			"stateMutability": "nonpayable",
			"type": "function"
		},
		{
			"inputs": [
				{
					"internalType": "address",
					"name": "staff",
					"type": "address"
				},
				{
					"internalType": "uint128",
					"name": "restaurantId",
					"type": "uint128"
				}
			],
			"name": "assignStaff",
			"outputs": [],
			"stateMutability": "nonpayable",
			"type": "function"
		},
		{
			"inputs": [],
			"name": "owner",
			"outputs": [
				{
					"internalType": "address",
					"name": "",
					"type": "address"
				}
			],
			"stateMutability": "view",
			"type": "function"
		},
		{
			"inputs": [
				{
					"internalType": "address",
					"name": "",
					"type": "address"
				},
				{
					"internalType": "uint256",
					"name": "",
					"type": "uint256"
				}
			],
			"name": "ownerRestaurants",
			"outputs": [
				{
					"internalType": "uint128",
					"name": "",
					"type": "uint128"
				}
			],
			"stateMutability": "view",
			"type": "function"
		},
		{
			"inputs": [
				{
					"internalType": "address",
					"name": "",
					"type": "address"
				}
			],
			"name": "pendingWithdrawals",
			"outputs": [
				{
					"internalType": "uint128",
					"name": "",
					"type": "uint128"
				}
			],
			"stateMutability": "view",
			"type": "function"
		},
		{
			"inputs": [],
			"name": "registerRestaurant",
			"outputs": [
				{
					"internalType": "uint128",
					"name": "",
					"type": "uint128"
				}
			],
			"stateMutability": "nonpayable",
			"type": "function"
		},
		{
			"inputs": [],
			"name": "renounceOwnership",
			"outputs": [],
			"stateMutability": "nonpayable",
			"type": "function"
		},
		{
			"inputs": [
				{
					"internalType": "uint128",
					"name": "",
					"type": "uint128"
				}
			],
			"name": "restaurantOwners",
			"outputs": [
				{
					"internalType": "address",
					"name": "",
					"type": "address"
				}
			],
			"stateMutability": "view",
			"type": "function"
		},
		{
			"inputs": [
				{
					"internalType": "address",
					"name": "",
					"type": "address"
				}
			],
			"name": "roles",
			"outputs": [
				{
					"internalType": "enum RestaurantManager.Role",
					"name": "",
					"type": "uint8"
				}
			],
			"stateMutability": "view",
			"type": "function"
		},
		{
			"inputs": [],
			"name": "serviceFeePercentage",
			"outputs": [
				{
					"internalType": "uint8",
					"name": "",
					"type": "uint8"
				}
			],
			"stateMutability": "view",
			"type": "function"
		},
		{
			"inputs": [
				{
					"internalType": "uint8",
					"name": "percentage",
					"type": "uint8"
				}
			],
			"name": "setServiceFeePercentage",
			"outputs": [],
			"stateMutability": "nonpayable",
			"type": "function"
		},
		{
			"inputs": [
				{
					"internalType": "address",
					"name": "",
					"type": "address"
				}
			],
			"name": "staffRestaurant",
			"outputs": [
				{
					"internalType": "uint128",
					"name": "",
					"type": "uint128"
				}
			],
			"stateMutability": "view",
			"type": "function"
		},
		{
			"inputs": [
				{
					"internalType": "address",
					"name": "newOwner",
					"type": "address"
				}
			],
			"name": "transferOwnership",
			"outputs": [],
			"stateMutability": "nonpayable",
			"type": "function"
		},
		{
			"inputs": [],
			"name": "withdrawServiceFees",
			"outputs": [],
			"stateMutability": "nonpayable",
			"type": "function"
		}
	]
}