{
	"data": {
		"bytecode": {
			"linkReferences": {},
			"object": "6080604052700100000000000000000000000000000001600255600380546001600160881b0319167005000000000000000000000000000000011790553480156046575f5ffd5b5060015f553380606f57604051631e4fbdf760e01b81525f600482015260240160405180910390fd5b6076816094565b50335f908152600460205260409020805460ff1916600217905560e5565b600180546001600160a01b038381166001600160a01b0319831681179093556040519116919082907f8be0079c531659141344cd1fd0a4f28419497f9722a3daafe3b4186f6b6457e0905f90a35050565b615f69806100f25f395ff3fe608060405260043610610207575f3560e01c8063abca88f011610113578063ddb0c22f1161009d578063f50ddbc71161006d578063f50ddbc714610691578063f7937282146106c5578063fa20fca7146106e4578063faf068f8146106f8578063ff8ddee314610717575f5ffd5b8063ddb0c22f146105eb578063e28d7a181461060a578063f2fde38b1461063e578063f3f437031461065d575f5ffd5b8063d74b3c20116100e3578063d74b3c201461052e578063d76d571a1461055a578063d9a85e6314610579578063dac4a255146105ad578063dbc91396146105cc575f5ffd5b8063abca88f0146104b3578063ae9a4655146104e7578063bab5933a14610506578063d72e481d1461051a575f5ffd5b80635b94ea5d11610194578063715018a611610164578063715018a6146104015780637914d2fa146104155780638da5cb5b1461043457806398d88075146104655780639937464214610478575f5ffd5b80635b94ea5d14610375578063603ef64914610394578063630a195b146103b45780636b813675146103d3575f5ffd5b806326912883116101da57806326912883146102cb5780632fb8229b146102f7578063388f20a81461031657806341af8b6f1461033757806349d52b9c14610356575f5ffd5b80630605551e1461020b57806307ec51001461024757806314d90e1b146102865780631600c6cd146102ac575b5f5ffd5b348015610216575f5ffd5b5061022a610225366004615167565b610798565b6040516001600160801b0390911681526020015b60405180910390f35b348015610252575f5ffd5b5061022a6102613660046151d9565b600a60209081525f92835260408084209091529082529020546001600160801b031681565b348015610291575f5ffd5b5061029a601481565b60405160ff909116815260200161023e565b3480156102b7575f5ffd5b5061022a6102c6366004615220565b610b9a565b3480156102d6575f5ffd5b506102ea6102e53660046151d9565b610be1565b60405161023e919061537e565b348015610302575f5ffd5b5061022a6103113660046153e1565b610f27565b348015610321575f5ffd5b506103356103303660046153fb565b610f40565b005b348015610342575f5ffd5b5061033561035136600461547f565b6111cf565b348015610361575f5ffd5b50610335610370366004615551565b611436565b348015610380575f5ffd5b5061033561038f3660046151d9565b611732565b34801561039f575f5ffd5b5060035461029a90600160801b900460ff1681565b3480156103bf575f5ffd5b506103356103ce3660046155fd565b611932565b3480156103de575f5ffd5b506103f26103ed3660046153fb565b611a71565b60405161023e9392919061578a565b34801561040c575f5ffd5b50610335611f9b565b348015610420575f5ffd5b5061022a61042f3660046151d9565b611fae565b34801561043f575f5ffd5b506001546001600160a01b03165b6040516001600160a01b03909116815260200161023e565b610335610473366004615167565b6120aa565b348015610483575f5ffd5b506104a66104923660046157fc565b60046020525f908152604090205460ff1681565b60405161023e9190615825565b3480156104be575f5ffd5b5061044d6104cd3660046153fb565b600c6020525f90815260409020546001600160a01b031681565b3480156104f2575f5ffd5b50610335610501366004615833565b612722565b348015610511575f5ffd5b506102ea612895565b348015610525575f5ffd5b50610335612b1b565b348015610539575f5ffd5b5061054d61054836600461584d565b612c99565b60405161023e919061588d565b348015610565575f5ffd5b5061022a610574366004615220565b6130aa565b348015610584575f5ffd5b506105986105933660046151d9565b6130c3565b60405161023e9998979695949392919061589f565b3480156105b8575f5ffd5b506103356105c736600461594e565b6132d5565b3480156105d7575f5ffd5b506103356105e63660046153fb565b6134bb565b3480156105f6575f5ffd5b50610335610605366004615985565b61371c565b348015610615575f5ffd5b5061022a6106243660046157fc565b600d6020525f90815260409020546001600160801b031681565b348015610649575f5ffd5b506103356106583660046157fc565b613b1b565b348015610668575f5ffd5b5061022a6106773660046157fc565b60076020525f90815260409020546001600160801b031681565b34801561069c575f5ffd5b5061022a6106ab3660046157fc565b60096020525f90815260409020546001600160801b031681565b3480156106d0575f5ffd5b506103356106df3660046159b2565b613b55565b3480156106ef575f5ffd5b5061022a613c36565b348015610703575f5ffd5b5061054d6107123660046159cb565b613d1f565b348015610722575f5ffd5b506107866107313660046153fb565b600660208190525f9182526040909120805460018201546002830154600584015493909401546001600160801b03928316946001600160a01b03909216939183169280831692600160801b900460ff16911686565b60405161023e96959493929190615a35565b5f81518351146107e15760405162461bcd60e51b815260206004820152600f60248201526e098cadccee8d040dad2e6dac2e8c6d608b1b60448201526064015b60405180910390fd5b6001600160801b0384165f908152600c60205260409020546001600160a01b031661081e5760405162461bcd60e51b81526004016107d890615a8b565b5f805b8451811015610b5b576001600160801b0386165f9081526005602052604081208651829088908590811061085757610857615ac2565b6020908102919091018101516001600160801b0390811683528282019390935260409182015f2082516101208101845281548086168252600160801b90049094169184019190915260018101805491928401916108b390615ad6565b80601f01602080910402602001604051908101604052809291908181526020018280546108df90615ad6565b801561092a5780601f106109015761010080835404028352916020019161092a565b820191905f5260205f20905b81548152906001019060200180831161090d57829003601f168201915b505050918352505060028201546001600160801b0381166020830152600160801b900460ff161515604082015260038201805460609092019161096c90615ad6565b80601f016020809104026020016040519081016040528092919081815260200182805461099890615ad6565b80156109e35780601f106109ba576101008083540402835291602001916109e3565b820191905f5260205f20905b8154815290600101906020018083116109c657829003601f168201915b505050505081526020016004820180546109fc90615ad6565b80601f0160208091040260200160405190810160405280929190818152602001828054610a2890615ad6565b8015610a735780601f10610a4a57610100808354040283529160200191610a73565b820191905f5260205f20905b815481529060010190602001808311610a5657829003601f168201915b5050509183525050600591909101546001600160801b038082166020840152600160801b909104166040909101526080810151909150610ae85760405162461bcd60e51b815260206004820152601060248201526f4974656d20756e617661696c61626c6560801b60448201526064016107d8565b866001600160801b031681602001516001600160801b031614610b1d5760405162461bcd60e51b81526004016107d890615b0e565b848281518110610b2f57610b2f615ac2565b60200260200101518160600151610b469190615b64565b610b509084615b86565b925050600101610821565b506003545f90606490610b7890600160801b900460ff1684615b64565b610b829190615ba5565b9050610b8e8183615b86565b925050505b9392505050565b6008602052815f5260405f208181548110610bb3575f80fd5b905f5260205f209060029182820401919006601002915091509054906101000a90046001600160801b031681565b60606002335f9081526004602052604090205460ff166002811115610c0857610c0861528b565b14610c255760405162461bcd60e51b81526004016107d890615bde565b6002545f906001600160801b0380861691610c4a91600191600160801b900416615c15565b6001600160801b031611610c5e575f610c89565b6002548490610c7f90600190600160801b90046001600160801b0316615c15565b610c899190615c15565b9050826001600160801b0316816001600160801b03161115610ca85750815b5f816001600160801b03166001600160401b03811115610cca57610cca61509d565b604051908082528060200260200182016040528015610d0357816020015b610cf0614ef3565b815260200190600190039081610ce85790505b5090505f5b826001600160801b0316816001600160801b03161015610f1c5760065f610d2f8389615b86565b610d3a906001615b86565b6001600160801b03908116825260208083019390935260409182015f2082516101008101845281548316815260018201546001600160a01b0316818601526002820154909216828401526003810180548451818702810187019095528085529294919360608601939092830182828015610e0257602002820191905f5260205f20905f905b82829054906101000a90046001600160801b03166001600160801b031681526020019060100190602082600f01049283019260010382029150808411610dbf5790505b5050505050815260200160048201805480602002602001604051908101604052809291908181526020018280548015610e8957602002820191905f5260205f20905f905b82829054906101000a90046001600160801b03166001600160801b031681526020019060100190602082600f01049283019260010382029150808411610e465790505b50505091835250506005828101546001600160801b0381166020840152604090920191600160801b900460ff1690811115610ec657610ec661528b565b6005811115610ed757610ed761528b565b8152600691909101546001600160801b03908116602090920191909152835184918416908110610f0957610f09615ac2565b6020908102919091010152600101610d08565b509150505b92915050565b600e602052815f5260405f208181548110610bb3575f80fd5b6002335f9081526004602052604090205460ff166002811115610f6557610f6561528b565b1480610f915750335f9081526004602052604081205460ff166002811115610f8f57610f8f61528b565b145b610fd65760405162461bcd60e51b815260206004820152601660248201527527b7363c9030b236b4b71037b91031bab9ba37b6b2b960511b60448201526064016107d8565b610fde614d63565b805f816001600160801b031611801561100c57506002546001600160801b03600160801b9091048116908216105b6110285760405162461bcd60e51b81526004016107d890615c34565b6001600160801b0382165f90815260066020526040902060018101546001600160a01b0316331461108c5760405162461bcd60e51b815260206004820152600e60248201526d2737ba103cb7bab91037b93232b960911b60448201526064016107d8565b6003600582810154600160801b900460ff16908111156110ae576110ae61528b565b146110ed5760405162461bcd60e51b815260206004820152600f60248201526e4f72646572206e6f7420726561647960881b60448201526064016107d8565b60058101805460ff60801b1916600560801b179055335f9081526009602052604081208054600a929061112a9084906001600160801b0316615b86565b92506101000a8154816001600160801b0302191690836001600160801b031602179055507f02b43caf6e380609ec1e8a3eea0e53325c84f3efb96e5d9d4de1b5f30ff51e00833360405161117f929190615c5e565b60405180910390a17f398e222575905caececb6ca7c365b9049abf41cc7cc060ec170a711233f32d088360056040516111b9929190615c80565b60405180910390a150506111cc60015f55565b50565b866001335f9081526004602052604090205460ff1660028111156111f5576111f561528b565b14801561121b5750335f908152600d60205260409020546001600160801b038281169116145b8061124857506002335f9081526004602052604090205460ff1660028111156112465761124661528b565b145b8061127257506001600160801b0381165f908152600c60205260409020546001600160a01b031633145b61128e5760405162461bcd60e51b81526004016107d890615c9d565b87875f816001600160801b03161180156112b657506002546001600160801b03908116908216105b6112d25760405162461bcd60e51b81526004016107d890615ce6565b6001600160801b038083165f908152600560209081526040808320858516845290915281205490911690036113195760405162461bcd60e51b81526004016107d890615d14565b5f885111801561133157505f876001600160801b0316115b61136c5760405162461bcd60e51b815260206004820152600c60248201526b496e76616c6964206461746160a01b60448201526064016107d8565b6001600160801b03808b165f908152600560209081526040808320938d168352929052206001810161139e8a82615d96565b50600281018054881515600160801b026001600160881b03199091166001600160801b038b1617179055600381016113d68782615d96565b50600481016113e58682615d96565b50604080516001600160801b03808d1682528d1660208201527fce43b91b59c691cdac567984a49ce1b6001f3a8781ede9d3f567cc3ab69f3cb0910160405180910390a15050505050505050505050565b846001335f9081526004602052604090205460ff16600281111561145c5761145c61528b565b1480156114825750335f908152600d60205260409020546001600160801b038281169116145b806114af57506002335f9081526004602052604090205460ff1660028111156114ad576114ad61528b565b145b806114d957506001600160801b0381165f908152600c60205260409020546001600160a01b031633145b6114f55760405162461bcd60e51b81526004016107d890615c9d565b5f855111801561150d57505f846001600160801b0316115b6115485760405162461bcd60e51b815260206004820152600c60248201526b496e76616c6964206461746160a01b60448201526064016107d8565b6001600160801b0386165f908152600c60205260409020546001600160a01b03166115855760405162461bcd60e51b81526004016107d890615a8b565b60408051610120810182526002546001600160801b0390811680835289821660208085018281528587018c81528b8616606088015260016080880181905260a088018c905260c088018b90525f60e089018190526101008901819052948552600584528885209585529490925295909120845195518416600160801b0295909316949094178255925191929091908201906116209082615d96565b50606082015160028201805460808501511515600160801b026001600160881b03199091166001600160801b039093169290921791909117905560a0820151600382019061166e9082615d96565b5060c082015160048201906116839082615d96565b5060e0820151610100909201516001600160801b03908116600160801b02928116929092176005909101556002546040517f16c3bb758075933856ebc4132418c1e40e2757b27275fa2fd2de8c38e4e54b8e926116e592169089908990615e50565b60405180910390a1600280546001600160801b0316905f61170583615e89565b91906101000a8154816001600160801b0302191690836001600160801b0316021790555050505050505050565b816001335f9081526004602052604090205460ff1660028111156117585761175861528b565b14801561177e5750335f908152600d60205260409020546001600160801b038281169116145b806117ab57506002335f9081526004602052604090205460ff1660028111156117a9576117a961528b565b145b806117d557506001600160801b0381165f908152600c60205260409020546001600160a01b031633145b6117f15760405162461bcd60e51b81526004016107d890615c9d565b82825f816001600160801b031611801561181957506002546001600160801b03908116908216105b6118355760405162461bcd60e51b81526004016107d890615ce6565b6001600160801b038083165f9081526005602090815260408083208585168452909152812054909116900361187c5760405162461bcd60e51b81526004016107d890615d14565b6001600160801b038086165f9081526005602090815260408083209388168352929052908120818155906118b36001830182614f35565b6002820180546001600160881b03191690556118d2600383015f614f35565b6118df600483015f614f35565b505f60059190910155604080516001600160801b038087168252871660208201527fef8be83dbb6f8277052c0376cffaaf8133437ac2e149a58d953f03d6442d1fde910160405180910390a15050505050565b6002335f9081526004602052604090205460ff1660028111156119575761195761528b565b146119745760405162461bcd60e51b81526004016107d890615bde565b6001600160a01b0382166119bc5760405162461bcd60e51b815260206004820152600f60248201526e496e76616c6964206164647265737360881b60448201526064016107d8565b6001600160a01b0382165f908152600460205260409020805482919060ff191660018360028111156119f0576119f061528b565b02179055506001816002811115611a0957611a0961528b565b14611a34576001600160a01b0382165f908152600d6020526040902080546001600160801b03191690555b7f4ac36fa53f167ceb85964be512e01de2a3b8bdb9862f917da079deeeff689b388282604051611a65929190615eb3565b60405180910390a15050565b611a79614ef3565b606080835f816001600160801b0316118015611aaa57506002546001600160801b03600160801b9091048116908216105b611ac65760405162461bcd60e51b81526004016107d890615c34565b6001600160801b038086165f9081526006602090815260409182902082516101008101845281548516815260018201546001600160a01b03168184015260028201549094168484015260038101805484518185028101850190955280855291936060860193909290830182828015611b8c57602002820191905f5260205f20905f905b82829054906101000a90046001600160801b03166001600160801b031681526020019060100190602082600f01049283019260010382029150808411611b495790505b5050505050815260200160048201805480602002602001604051908101604052809291908181526020018280548015611c1357602002820191905f5260205f20905f905b82829054906101000a90046001600160801b03166001600160801b031681526020019060100190602082600f01049283019260010382029150808411611bd05790505b50505091835250506005828101546001600160801b0381166020840152604090920191600160801b900460ff1690811115611c5057611c5061528b565b6005811115611c6157611c6161528b565b8152600691909101546001600160801b03166020909101526060810151519094506001600160401b03811115611c9957611c9961509d565b604051908082528060200260200182016040528015611cd257816020015b611cbf614f6c565b815260200190600190039081611cb75790505b50608085015190935091505f5b846060015151811015611f92576040808601516001600160801b03165f90815260056020529081206060870151805191929184908110611d2157611d21615ac2565b6020908102919091018101516001600160801b0390811683528282019390935260409182015f2082516101208101845281548086168252600160801b9004909416918401919091526001810180549192840191611d7d90615ad6565b80601f0160208091040260200160405190810160405280929190818152602001828054611da990615ad6565b8015611df45780601f10611dcb57610100808354040283529160200191611df4565b820191905f5260205f20905b815481529060010190602001808311611dd757829003601f168201915b505050918352505060028201546001600160801b0381166020830152600160801b900460ff1615156040820152600382018054606090920191611e3690615ad6565b80601f0160208091040260200160405190810160405280929190818152602001828054611e6290615ad6565b8015611ead5780601f10611e8457610100808354040283529160200191611ead565b820191905f5260205f20905b815481529060010190602001808311611e9057829003601f168201915b50505050508152602001600482018054611ec690615ad6565b80601f0160208091040260200160405190810160405280929190818152602001828054611ef290615ad6565b8015611f3d5780601f10611f1457610100808354040283529160200191611f3d565b820191905f5260205f20905b815481529060010190602001808311611f2057829003601f168201915b5050509183525050600591909101546001600160801b038082166020840152600160801b909104166040909101528451859083908110611f7f57611f7f615ac2565b6020908102919091010152600101611cdf565b50509193909250565b611fa3614dba565b611fac5f614de7565b565b5f82825f816001600160801b0316118015611fd757506002546001600160801b03908116908216105b611ff35760405162461bcd60e51b81526004016107d890615ce6565b6001600160801b038083165f9081526005602090815260408083208585168452909152812054909116900361203a5760405162461bcd60e51b81526004016107d890615d14565b6001600160801b038086165f90815260056020818152604080842089861685529091528220908101549092600160801b90910416900361207d575f9350506120a2565b600581015461209e906001600160801b03600160801b820481169116615ba5565b9350505b505092915050565b6002335f9081526004602052604090205460ff1660028111156120cf576120cf61528b565b14806120fb5750335f9081526004602052604081205460ff1660028111156120f9576120f961528b565b145b6121405760405162461bcd60e51b815260206004820152601660248201527527b7363c9030b236b4b71037b91031bab9ba37b6b2b960511b60448201526064016107d8565b612148614d63565b5f8251118015612159575080518251145b6121955760405162461bcd60e51b815260206004820152600d60248201526c125b9d985b1a59081a5b9c1d5d609a1b60448201526064016107d8565b6001600160801b0383165f908152600c60205260409020546001600160a01b03166121d25760405162461bcd60e51b81526004016107d890615a8b565b5f805b83518110156123a2576001600160801b0385165f9081526005602052604081208551829087908590811061220b5761220b615ac2565b60200260200101516001600160801b03166001600160801b031681526020019081526020015f2090508060020160109054906101000a900460ff166122855760405162461bcd60e51b815260206004820152601060248201526f4974656d20756e617661696c61626c6560801b60448201526064016107d8565b80546001600160801b03878116600160801b90920416146122b85760405162461bcd60e51b81526004016107d890615b0e565b8382815181106122ca576122ca615ac2565b602090810291909101015160028201546122ed91906001600160801b0316615b64565b6122f79084615b86565b925083828151811061230b5761230b615ac2565b6020026020010151600a5f600260109054906101000a90046001600160801b03166001600160801b03166001600160801b031681526020019081526020015f205f87858151811061235e5761235e615ac2565b6020908102919091018101516001600160801b039081168352908201929092526040015f2080546001600160801b03191692909116919091179055506001016121d5565b506003545f906064906123bf90600160801b900460ff1684615b64565b6123c99190615ba5565b90505f6123d68284615b86565b9050806001600160801b03163410156124285760405162461bcd60e51b8152602060048201526014602482015273125b9cdd59999a58da595b9d081c185e5b595b9d60621b60448201526064016107d8565b806001600160801b03163411156124565761245661244f6001600160801b03831634615ed0565b3390614e38565b6040805161010081018252600280546001600160801b03600160801b90910481168084523360208086019182528c8416868801908152606087018d8152608088018d90528b861660a08901525f60c0890181905242871660e08a01529485526006835297909320865181549086166001600160801b031991821617825592516001820180546001600160a01b039092166001600160a01b031990921691909117905592519483018054959094169490911693909317909155925180519293926125259260038501920190614fb9565b5060808201518051612541916004840191602090910190614fb9565b5060a0820151600580830180546001600160801b039093166001600160801b031984168117825560c08601519391926001600160881b03199092161790600160801b9084908111156125955761259561528b565b021790555060e09190910151600690910180546001600160801b039283166001600160801b0319909116179055335f9081526008602090815260408220600280548254600181810185559386529385209184049091018054939092166010026101000a600160801b909104851681029402199091169290921790915582906007906126286001546001600160a01b031690565b6001600160a01b0316815260208101919091526040015f908120805490919061265b9084906001600160801b0316615b86565b82546101009290920a6001600160801b0381810219909316918316021790915560025460408051600160801b90920483168252336020830152918616918101919091527f705f23a83cf14e64bd1c38a913e0c43e880bbbf23a0dd3716eeacfb634ca814b915060600160405180910390a160028054600160801b90046001600160801b03169060106126ec83615e89565b91906101000a8154816001600160801b0302191690836001600160801b031602179055505050505061271d60015f55565b505050565b6001600160801b0381165f908152600c602052604090205481906001600160a01b0316331461278a5760405162461bcd60e51b81526020600482015260146024820152732737ba103932b9ba30bab930b73a1037bbb732b960611b60448201526064016107d8565b6001600160a01b0383166127d25760405162461bcd60e51b815260206004820152600f60248201526e496e76616c6964206164647265737360881b60448201526064016107d8565b6001600160801b0382165f908152600c60205260409020546001600160a01b031661280f5760405162461bcd60e51b81526004016107d890615a8b565b6001600160a01b0383165f908152600460209081526040808320805460ff19166001179055600d9091529081902080546001600160801b0385166001600160801b0319909116179055517f69a85d8f30649b59eeb2b4393ea9eb9c9ed001f6974226d94a7fa2dfd562f15b906128889085908590615ee3565b60405180910390a1505050565b335f9081526008602052604081208054606092906001600160401b038111156128c0576128c061509d565b6040519080825280602002602001820160405280156128f957816020015b6128e6614ef3565b8152602001906001900390816128de5790505b5090505f5b8254811015612b145760065f84838154811061291c5761291c615ac2565b5f91825260208083206002808404909101546001600160801b03601060019586160261010090810a9092048116875286840197909752604095860190942085519485018652805487168552928301546001600160a01b031684830152820154909416828401526003810180548451818702810187019095528085529294919360608601939092830182828015612a0057602002820191905f5260205f20905f905b82829054906101000a90046001600160801b03166001600160801b031681526020019060100190602082600f010492830192600103820291508084116129bd5790505b5050505050815260200160048201805480602002602001604051908101604052809291908181526020018280548015612a8757602002820191905f5260205f20905f905b82829054906101000a90046001600160801b03166001600160801b031681526020019060100190602082600f01049283019260010382029150808411612a445790505b50505091835250506005828101546001600160801b0381166020840152604090920191600160801b900460ff1690811115612ac457612ac461528b565b6005811115612ad557612ad561528b565b8152600691909101546001600160801b03166020909101528251839083908110612b0157612b01615ac2565b60209081029190910101526001016128fe565b5092915050565b6002335f9081526004602052604090205460ff166002811115612b4057612b4061528b565b14612b5d5760405162461bcd60e51b81526004016107d890615bde565b612b65614d63565b5f60075f612b7b6001546001600160a01b031690565b6001600160a01b0316815260208101919091526040015f20546001600160801b0316905080612be15760405162461bcd60e51b81526020600482015260126024820152714e6f2066756e647320617661696c61626c6560701b60448201526064016107d8565b5f60075f612bf76001546001600160a01b031690565b6001600160a01b03908116825260208201929092526040015f2080546001600160801b0319166001600160801b03938416179055600154612c4592841691166001600160a01b031690614e38565b7f15ed0a7026c7f7b2319e041da1e43e0b566e892499962bc6b464292ef9d38757612c786001546001600160a01b031690565b82604051612c87929190615ee3565b60405180910390a150611fac60015f55565b60605f80612ca8856001615b86565b90505b6002546001600160801b0390811690821611801590612ce55750612ccf8486615b86565b6001600160801b0316816001600160801b031611155b15612d36576001600160801b038087165f90815260056020908152604080832085851684529091529020541615612d245781612d2081615e89565b9250505b80612d2e81615e89565b915050612cab565b505f816001600160801b03166001600160401b03811115612d5957612d5961509d565b604051908082528060200260200182016040528015612d9257816020015b612d7f614f6c565b815260200190600190039081612d775790505b5090505f80612da2876001615b86565b90505b6002546001600160801b0390811690821611801590612ddf5750612dc98688615b86565b6001600160801b0316816001600160801b031611155b1561309e576001600160801b038089165f9081526005602090815260408083208585168452909152902054161561308c576001600160801b038089165f908152600560209081526040808320858516845282529182902082516101208101845281548086168252600160801b9004909416918401919091526001810180549192840191612e6b90615ad6565b80601f0160208091040260200160405190810160405280929190818152602001828054612e9790615ad6565b8015612ee25780601f10612eb957610100808354040283529160200191612ee2565b820191905f5260205f20905b815481529060010190602001808311612ec557829003601f168201915b505050918352505060028201546001600160801b0381166020830152600160801b900460ff1615156040820152600382018054606090920191612f2490615ad6565b80601f0160208091040260200160405190810160405280929190818152602001828054612f5090615ad6565b8015612f9b5780601f10612f7257610100808354040283529160200191612f9b565b820191905f5260205f20905b815481529060010190602001808311612f7e57829003601f168201915b50505050508152602001600482018054612fb490615ad6565b80601f0160208091040260200160405190810160405280929190818152602001828054612fe090615ad6565b801561302b5780601f106130025761010080835404028352916020019161302b565b820191905f5260205f20905b81548152906001019060200180831161300e57829003601f168201915b5050509183525050600591909101546001600160801b038082166020840152600160801b909104811660409092019190915284518591851690811061307257613072615ac2565b6020026020010181905250818061308890615e89565b9250505b8061309681615e89565b915050612da5565b50909695505050505050565b600b602052815f5260405f208181548110610bb3575f80fd5b600560209081525f9283526040808420909152908252902080546001820180546001600160801b0380841694600160801b9094041692919061310490615ad6565b80601f016020809104026020016040519081016040528092919081815260200182805461313090615ad6565b801561317b5780601f106131525761010080835404028352916020019161317b565b820191905f5260205f20905b81548152906001019060200180831161315e57829003601f168201915b50505050600283015460038401805493946001600160801b03831694600160801b90930460ff169350916131ae90615ad6565b80601f01602080910402602001604051908101604052809291908181526020018280546131da90615ad6565b80156132255780601f106131fc57610100808354040283529160200191613225565b820191905f5260205f20905b81548152906001019060200180831161320857829003601f168201915b50505050509080600401805461323a90615ad6565b80601f016020809104026020016040519081016040528092919081815260200182805461326690615ad6565b80156132b15780601f10613288576101008083540402835291602001916132b1565b820191905f5260205f20905b81548152906001019060200180831161329457829003601f168201915b505050600590930154919250506001600160801b0380821691600160801b90041689565b82825f816001600160801b03161180156132fd57506002546001600160801b03908116908216105b6133195760405162461bcd60e51b81526004016107d890615ce6565b6001600160801b038083165f908152600560209081526040808320858516845290915281205490911690036133605760405162461bcd60e51b81526004016107d890615d14565b60018360ff1610158015613378575060058360ff1611155b6133b55760405162461bcd60e51b815260206004820152600e60248201526d496e76616c696420726174696e6760901b60448201526064016107d8565b6001600160801b038086165f908152600560208181526040808420898616855290915282209081018054919360ff88169391926133f491859116615b86565b92506101000a8154816001600160801b0302191690836001600160801b0316021790555060018160050160108282829054906101000a90046001600160801b031661343f9190615b86565b92506101000a8154816001600160801b0302191690836001600160801b031602179055507fdb324f7fef3c53dae6fd57e82dfa6fc22235609f2039c48367051c6ad5b2faef85856040516134ab9291906001600160801b0392909216825260ff16602082015260400190565b60405180910390a1505050505050565b335f9081526004602052604081205460ff1660028111156134de576134de61528b565b1461352b5760405162461bcd60e51b815260206004820152601b60248201527f556e617574686f72697a65643a20437573746f6d6572206f6e6c79000000000060448201526064016107d8565b613533614d63565b805f816001600160801b031611801561356157506002546001600160801b03600160801b9091048116908216105b61357d5760405162461bcd60e51b81526004016107d890615c34565b6001600160801b0382165f90815260066020526040902060018101546001600160a01b031633146135e15760405162461bcd60e51b815260206004820152600e60248201526d2737ba103cb7bab91037b93232b960911b60448201526064016107d8565b5f600582810154600160801b900460ff16908111156136025761360261528b565b148061362d57506001600582810154600160801b900460ff169081111561362b5761362b61528b565b145b6136795760405162461bcd60e51b815260206004820152601b60248201527f43616e6e6f742063616e63656c2061742074686973207374616765000000000060448201526064016107d8565b600581018054600160821b60ff60801b198216179091556136a49033906001600160801b0316614e38565b7f1912970d6b925634e2ccfaff5edb3a3fa0f2b9f36fc281eb8266688b89606ac183336040516136d5929190615c5e565b60405180910390a160058101546040517f1acf2c59d6610cf0f250c9bc70adb692b2319de3640e791ab8a33a3b8931df27916111b99133916001600160801b031690615ee3565b6001600160801b038083165f90815260066020526040902060020154166001335f9081526004602052604090205460ff16600281111561375e5761375e61528b565b1480156137845750335f908152600d60205260409020546001600160801b038281169116145b806137b157506002335f9081526004602052604090205460ff1660028111156137af576137af61528b565b145b806137db57506001600160801b0381165f908152600c60205260409020546001600160a01b031633145b6137f75760405162461bcd60e51b81526004016107d890615c9d565b6137ff614d63565b825f816001600160801b031611801561382d57506002546001600160801b03600160801b9091048116908216105b6138495760405162461bcd60e51b81526004016107d890615c34565b6001600160801b0384165f9081526006602052604090206004600582810154600160801b900460ff16908111156138825761388261528b565b036138c45760405162461bcd60e51b815260206004820152601260248201527113dc99195c881a5cc818d85b98d95b1b195960721b60448201526064016107d8565b60058082810154600160801b900460ff16908111156138e5576138e561528b565b036139325760405162461bcd60e51b815260206004820152601760248201527f4f7264657220616c726561647920636f6d706c6574656400000000000000000060448201526064016107d8565b60018460058111156139465761394661528b565b036139bb575f5b600582810154600160801b900460ff169081111561396d5761396d61528b565b146139b65760405162461bcd60e51b815260206004820152601960248201527824b73b30b634b21039ba30ba3ab9903a3930b739b4ba34b7b760391b60448201526064016107d8565b613aac565b60028460058111156139cf576139cf61528b565b03613a4c575f5b600582810154600160801b900460ff16908111156139f6576139f661528b565b1480613a045750600161394d565b6139b65760405162461bcd60e51b815260206004820152601960248201527824b73b30b634b21039ba30ba3ab9903a3930b739b4ba34b7b760391b60448201526064016107d8565b6003846005811115613a6057613a6061528b565b03613a6c5760026139d6565b60405162461bcd60e51b8152602060048201526015602482015274496e76616c6964207374617475732075706461746560581b60448201526064016107d8565b838160050160106101000a81548160ff02191690836005811115613ad257613ad261528b565b02179055507f398e222575905caececb6ca7c365b9049abf41cc7cc060ec170a711233f32d088585604051613b08929190615c80565b60405180910390a1505061271d60015f55565b613b23614dba565b6001600160a01b038116613b4c57604051631e4fbdf760e01b81525f60048201526024016107d8565b6111cc81614de7565b6002335f9081526004602052604090205460ff166002811115613b7a57613b7a61528b565b14613b975760405162461bcd60e51b81526004016107d890615bde565b601460ff82161115613be25760405162461bcd60e51b81526020600482015260146024820152730a6cae4ecd2c6ca40cccaca40e8dede40d0d2ced60631b60448201526064016107d8565b6003805460ff60801b1916600160801b60ff8416908102919091179091556040519081527fc2e7293b347ac956898a90e36061ef247c8d3516f25e87a91009be115ce27ac49060200160405180910390a150565b6003546001600160801b039081165f818152600c6020908152604080832080546001600160a01b03191633908117909155808452600b835281842080546001818101835591865293852060028504018054601095909216949094026101000a80870297021916959095179091555190927fbafbc0bfd4afd8a222b8cd09b01ce310b06b0beb42503ea91a76135e6a532e9291613cd3918491615c5e565b60405180910390a1600380546001600160801b0316905f613cf383615e89565b91906101000a8154816001600160801b0302191690836001600160801b03160217905550508091505090565b60605f84604051602001613d339190615f05565b60408051601f19818403018152919052805160209091012090505f6001600160801b038716810361411a5760015b6003546001600160801b039081169082161015614114575f5b6001600160801b0382165f908152600e602052604090205481108015613dba5750613da58688615b86565b6001600160801b0316836001600160801b0316105b1561410b576001600160801b0382165f908152600e60205260408120805483908110613de857613de8615ac2565b5f91825260208083206002830401546001600160801b03878116855260058352604080862060106001968716026101000a909304821680875292845280862081516101208101835281548085168252600160801b90049093169483019490945293830180549296509093840191613e5e90615ad6565b80601f0160208091040260200160405190810160405280929190818152602001828054613e8a90615ad6565b8015613ed55780601f10613eac57610100808354040283529160200191613ed5565b820191905f5260205f20905b815481529060010190602001808311613eb857829003601f168201915b505050918352505060028201546001600160801b0381166020830152600160801b900460ff1615156040820152600382018054606090920191613f1790615ad6565b80601f0160208091040260200160405190810160405280929190818152602001828054613f4390615ad6565b8015613f8e5780601f10613f6557610100808354040283529160200191613f8e565b820191905f5260205f20905b815481529060010190602001808311613f7157829003601f168201915b50505050508152602001600482018054613fa790615ad6565b80601f0160208091040260200160405190810160405280929190818152602001828054613fd390615ad6565b801561401e5780601f10613ff55761010080835404028352916020019161401e565b820191905f5260205f20905b81548152906001019060200180831161400157829003601f168201915b5050509183525050600591909101546001600160801b038082166020840152600160801b9091048116604090920191909152815191925016158015906140ca575089511580614096575085816040015160405160200161407e9190615f05565b60405160208183030381529060405280519060200120145b806140ca5750858160c001516040516020016140b29190615f05565b60405160208183030381529060405280519060200120145b156140f657886001600160801b0316856001600160801b0316106140f657846140f281615e89565b9550505b5050808061410390615f1b565b915050613d7a565b50600101613d61565b506144ec565b6001600160801b0387165f908152600c60205260409020546001600160a01b03166141575760405162461bcd60e51b81526004016107d890615a8b565b5f5b6001600160801b0388165f908152600e60205260409020548110801561419957506141848587615b86565b6001600160801b0316826001600160801b0316105b156144ea576001600160801b0388165f908152600e602052604081208054839081106141c7576141c7615ac2565b5f91825260208083206002830401546001600160801b038d8116855260058352604080862060106001968716026101000a909304821680875292845280862081516101208101835281548085168252600160801b9004909316948301949094529383018054929650909384019161423d90615ad6565b80601f016020809104026020016040519081016040528092919081815260200182805461426990615ad6565b80156142b45780601f1061428b576101008083540402835291602001916142b4565b820191905f5260205f20905b81548152906001019060200180831161429757829003601f168201915b505050918352505060028201546001600160801b0381166020830152600160801b900460ff16151560408201526003820180546060909201916142f690615ad6565b80601f016020809104026020016040519081016040528092919081815260200182805461432290615ad6565b801561436d5780601f106143445761010080835404028352916020019161436d565b820191905f5260205f20905b81548152906001019060200180831161435057829003601f168201915b5050505050815260200160048201805461438690615ad6565b80601f01602080910402602001604051908101604052809291908181526020018280546143b290615ad6565b80156143fd5780601f106143d4576101008083540402835291602001916143fd565b820191905f5260205f20905b8154815290600101906020018083116143e057829003601f168201915b5050509183525050600591909101546001600160801b038082166020840152600160801b9091048116604090920191909152815191925016158015906144a9575088511580614475575084816040015160405160200161445d9190615f05565b60405160208183030381529060405280519060200120145b806144a95750848160c001516040516020016144919190615f05565b60405160208183030381529060405280519060200120145b156144d557876001600160801b0316846001600160801b0316106144d557836144d181615e89565b9450505b505080806144e290615f1b565b915050614159565b505b5f856001600160801b0316826001600160801b03161161450c575f614516565b6145168683615c15565b6001600160801b03166001600160401b038111156145365761453661509d565b60405190808252806020026020018201604052801561456f57816020015b61455c614f6c565b8152602001906001900390816145545790505b5090505f6001600160801b03891681036149905760015b6003546001600160801b039081169082161080156145ad57508251826001600160801b0316105b1561498a575f5b6001600160801b0382165f908152600e6020526040902054811080156145e357508351836001600160801b0316105b15614977576001600160801b0382165f908152600e6020526040812080548390811061461157614611615ac2565b5f91825260208083206002830401546001600160801b03878116855260058352604080862060106001968716026101000a909304821680875292845280862081516101208101835281548085168252600160801b9004909316948301949094529383018054929650909384019161468790615ad6565b80601f01602080910402602001604051908101604052809291908181526020018280546146b390615ad6565b80156146fe5780601f106146d5576101008083540402835291602001916146fe565b820191905f5260205f20905b8154815290600101906020018083116146e157829003601f168201915b505050918352505060028201546001600160801b0381166020830152600160801b900460ff161515604082015260038201805460609092019161474090615ad6565b80601f016020809104026020016040519081016040528092919081815260200182805461476c90615ad6565b80156147b75780601f1061478e576101008083540402835291602001916147b7565b820191905f5260205f20905b81548152906001019060200180831161479a57829003601f168201915b505050505081526020016004820180546147d090615ad6565b80601f01602080910402602001604051908101604052809291908181526020018280546147fc90615ad6565b80156148475780601f1061481e57610100808354040283529160200191614847565b820191905f5260205f20905b81548152906001019060200180831161482a57829003601f168201915b5050509183525050600591909101546001600160801b038082166020840152600160801b9091048116604090920191909152815191925016158015906148f357508b5115806148bf57508781604001516040516020016148a79190615f05565b60405160208183030381529060405280519060200120145b806148f35750878160c001516040516020016148db9190615f05565b60405160208183030381529060405280519060200120145b15614962578a6001600160801b0316856001600160801b03161061495457808661491d8d88615c15565b6001600160801b03168151811061493657614936615ac2565b6020026020010181905250848061494c90615e89565b955050614962565b8461495e81615e89565b9550505b5050808061496f90615f1b565b9150506145b4565b508061498281615e89565b915050614586565b50614d57565b5f5b6001600160801b038a165f908152600e6020526040902054811080156149c157508251826001600160801b0316105b15614d55576001600160801b038a165f908152600e602052604081208054839081106149ef576149ef615ac2565b5f91825260208083206002830401546001600160801b038f8116855260058352604080862060106001968716026101000a909304821680875292845280862081516101208101835281548085168252600160801b90049093169483019490945293830180549296509093840191614a6590615ad6565b80601f0160208091040260200160405190810160405280929190818152602001828054614a9190615ad6565b8015614adc5780601f10614ab357610100808354040283529160200191614adc565b820191905f5260205f20905b815481529060010190602001808311614abf57829003601f168201915b505050918352505060028201546001600160801b0381166020830152600160801b900460ff1615156040820152600382018054606090920191614b1e90615ad6565b80601f0160208091040260200160405190810160405280929190818152602001828054614b4a90615ad6565b8015614b955780601f10614b6c57610100808354040283529160200191614b95565b820191905f5260205f20905b815481529060010190602001808311614b7857829003601f168201915b50505050508152602001600482018054614bae90615ad6565b80601f0160208091040260200160405190810160405280929190818152602001828054614bda90615ad6565b8015614c255780601f10614bfc57610100808354040283529160200191614c25565b820191905f5260205f20905b815481529060010190602001808311614c0857829003601f168201915b5050509183525050600591909101546001600160801b038082166020840152600160801b909104811660409092019190915281519192501615801590614cd157508a511580614c9d5750868160400151604051602001614c859190615f05565b60405160208183030381529060405280519060200120145b80614cd15750868160c00151604051602001614cb99190615f05565b60405160208183030381529060405280519060200120145b15614d4057896001600160801b0316846001600160801b031610614d32578085614cfb8c87615c15565b6001600160801b031681518110614d1457614d14615ac2565b60200260200101819052508380614d2a90615e89565b945050614d40565b83614d3c81615e89565b9450505b50508080614d4d90615f1b565b915050614992565b505b50979650505050505050565b60025f5403614db45760405162461bcd60e51b815260206004820152601f60248201527f5265656e7472616e637947756172643a207265656e7472616e742063616c6c0060448201526064016107d8565b60025f55565b6001546001600160a01b03163314611fac5760405163118cdaa760e01b81523360048201526024016107d8565b600180546001600160a01b038381166001600160a01b0319831681179093556040519116919082907f8be0079c531659141344cd1fd0a4f28419497f9722a3daafe3b4186f6b6457e0905f90a35050565b80471015614e625760405163cf47918160e01b8152476004820152602481018290526044016107d8565b5f5f836001600160a01b0316836040515f6040518083038185875af1925050503d805f8114614eac576040519150601f19603f3d011682016040523d82523d5f602084013e614eb1565b606091505b509150915081614ec457614ec481614eca565b50505050565b805115614eda5780518082602001fd5b60405163d6bda27560e01b815260040160405180910390fd5b60408051610100810182525f808252602082018190529181018290526060808201819052608082015260a081018290529060c082019081525f60209091015290565b508054614f4190615ad6565b5f825580601f10614f50575050565b601f0160209004905f5260205f20908101906111cc919061506e565b60408051610120810182525f8082526020820181905260609282018390528282018190526080820181905260a0820183905260c082019290925260e0810182905261010081019190915290565b828054828255905f5260205f209060010160029004810192821561505e579160200282015f5b8382111561502957835183826101000a8154816001600160801b0302191690836001600160801b031602179055509260200192601001602081600f01049283019260010302614fdf565b801561505c5782816101000a8154906001600160801b030219169055601001602081600f01049283019260010302615029565b505b5061506a92915061506e565b5090565b5b8082111561506a575f815560010161506f565b80356001600160801b0381168114615098575f5ffd5b919050565b634e487b7160e01b5f52604160045260245ffd5b604051601f8201601f191681016001600160401b03811182821017156150d9576150d961509d565b604052919050565b5f82601f8301126150f0575f5ffd5b81356001600160401b038111156151095761510961509d565b8060051b615119602082016150b1565b91825260208185018101929081019086841115615134575f5ffd5b6020860192505b8383101561515d5761514c83615082565b82526020928301929091019061513b565b9695505050505050565b5f5f5f60608486031215615179575f5ffd5b61518284615082565b925060208401356001600160401b0381111561519c575f5ffd5b6151a8868287016150e1565b92505060408401356001600160401b038111156151c3575f5ffd5b6151cf868287016150e1565b9150509250925092565b5f5f604083850312156151ea575f5ffd5b6151f383615082565b915061520160208401615082565b90509250929050565b80356001600160a01b0381168114615098575f5ffd5b5f5f60408385031215615231575f5ffd5b61523a8361520a565b946020939093013593505050565b5f8151808452602084019350602083015f5b828110156152815781516001600160801b031686526020958601959091019060010161525a565b5093949350505050565b634e487b7160e01b5f52602160045260245ffd5b600681106152af576152af61528b565b9052565b6001600160801b0381511682525f60208201516152db60208501826001600160a01b03169052565b5060408201516152f660408501826001600160801b03169052565b5060608201516101006060850152615312610100850182615248565b90506080830151848203608086015261532b8282615248565b91505060a083015161534860a08601826001600160801b03169052565b5060c083015161535b60c086018261529f565b5060e083015161537660e08601826001600160801b03169052565b509392505050565b5f602082016020835280845180835260408501915060408160051b8601019250602086015f5b828110156153d557603f198786030184526153c08583516152b3565b945060209384019391909101906001016153a4565b50929695505050505050565b5f5f604083850312156153f2575f5ffd5b61523a83615082565b5f6020828403121561540b575f5ffd5b610b9382615082565b5f82601f830112615423575f5ffd5b81356001600160401b0381111561543c5761543c61509d565b61544f601f8201601f19166020016150b1565b818152846020838601011115615463575f5ffd5b816020850160208301375f918101602001919091529392505050565b5f5f5f5f5f5f5f60e0888a031215615495575f5ffd5b61549e88615082565b96506154ac60208901615082565b955060408801356001600160401b038111156154c6575f5ffd5b6154d28a828b01615414565b9550506154e160608901615082565b9350608088013580151581146154f5575f5ffd5b925060a08801356001600160401b0381111561550f575f5ffd5b61551b8a828b01615414565b92505060c08801356001600160401b03811115615536575f5ffd5b6155428a828b01615414565b91505092959891949750929550565b5f5f5f5f5f60a08688031215615565575f5ffd5b61556e86615082565b945060208601356001600160401b03811115615588575f5ffd5b61559488828901615414565b9450506155a360408701615082565b925060608601356001600160401b038111156155bd575f5ffd5b6155c988828901615414565b92505060808601356001600160401b038111156155e4575f5ffd5b6155f088828901615414565b9150509295509295909350565b5f5f6040838503121561560e575f5ffd5b6156178361520a565b915060208301356003811061562a575f5ffd5b809150509250929050565b5f81518084528060208401602086015e5f602082860101526020601f19601f83011685010191505092915050565b5f82825180855260208501945060208160051b830101602085015f5b8381101561309e57848303601f19018852815180516001600160801b0316845260208101516156b960208601826001600160801b03169052565b50604081015161012060408601526156d5610120860182615635565b905060608201516156f160608701826001600160801b03169052565b506080820151615705608087018215159052565b5060a082015185820360a087015261571d8282615635565b91505060c082015185820360c08701526157378282615635565b91505060e082015161575460e08701826001600160801b03169052565b5061010082015191506157736101008601836001600160801b03169052565b6020998a019990945092909201915060010161567f565b606081525f61579c60608301866152b3565b82810360208401526157ae8186615663565b8381036040850152845180825260208087019350909101905f5b818110156157ef5783516001600160801b03168352602093840193909201916001016157c8565b5090979650505050505050565b5f6020828403121561580c575f5ffd5b610b938261520a565b600381106152af576152af61528b565b60208101610f218284615815565b5f5f60408385031215615844575f5ffd5b6151f38361520a565b5f5f5f6060848603121561585f575f5ffd5b61586884615082565b925061587660208501615082565b915061588460408501615082565b90509250925092565b602081525f610b936020830184615663565b6001600160801b038a1681526001600160801b038916602082015261012060408201525f6158d161012083018a615635565b6001600160801b0389166060840152871515608084015282810360a08401526158fa8188615635565b905082810360c084015261590e8187615635565b9150506001600160801b03841660e08301526001600160801b0383166101008301529a9950505050505050505050565b803560ff81168114615098575f5ffd5b5f5f5f60608486031215615960575f5ffd5b61596984615082565b925061597760208501615082565b91506158846040850161593e565b5f5f60408385031215615996575f5ffd5b61599f83615082565b915060208301356006811061562a575f5ffd5b5f602082840312156159c2575f5ffd5b610b938261593e565b5f5f5f5f608085870312156159de575f5ffd5b6159e785615082565b935060208501356001600160401b03811115615a01575f5ffd5b615a0d87828801615414565b935050615a1c60408601615082565b9150615a2a60608601615082565b905092959194509250565b6001600160801b0387811682526001600160a01b038716602083015285811660408301528416606082015260c08101615a71608083018561529f565b6001600160801b03831660a0830152979650505050505050565b60208082526019908201527f52657374617572616e7420646f6573206e6f7420657869737400000000000000604082015260600190565b634e487b7160e01b5f52603260045260245ffd5b600181811c90821680615aea57607f821691505b602082108103615b0857634e487b7160e01b5f52602260045260245ffd5b50919050565b60208082526022908201527f4974656d20646f6573206e6f742062656c6f6e6720746f2072657374617572616040820152611b9d60f21b606082015260800190565b634e487b7160e01b5f52601160045260245ffd5b6001600160801b038181168382160290811690818114612b1457612b14615b50565b6001600160801b038181168382160190811115610f2157610f21615b50565b5f6001600160801b03831680615bc957634e487b7160e01b5f52601260045260245ffd5b806001600160801b0384160491505092915050565b60208082526018908201527f556e617574686f72697a65643a2041646d696e206f6e6c790000000000000000604082015260600190565b6001600160801b038281168282160390811115610f2157610f21615b50565b60208082526010908201526f125b9d985b1a59081bdc99195c88125160821b604082015260600190565b6001600160801b039290921682526001600160a01b0316602082015260400190565b6001600160801b038316815260408101610b93602083018461529f565b60208082526029908201527f556e617574686f72697a65643a2053746166662c2041646d696e2c206f72204f604082015268776e6572206f6e6c7960b81b606082015260800190565b602080825260149082015273125b9d985b1a59081b595b9d481a5d195b48125160621b604082015260600190565b60208082526018908201527f4d656e75206974656d20646f6573206e6f742065786973740000000000000000604082015260600190565b601f82111561271d57805f5260205f20601f840160051c81016020851015615d705750805b601f840160051c820191505b81811015615d8f575f8155600101615d7c565b5050505050565b81516001600160401b03811115615daf57615daf61509d565b615dc381615dbd8454615ad6565b84615d4b565b6020601f821160018114615df5575f8315615dde5750848201515b5f19600385901b1c1916600184901b178455615d8f565b5f84815260208120601f198516915b82811015615e245787850151825560209485019460019092019101615e04565b5084821015615e4157868401515f19600387901b60f8161c191681555b50505050600190811b01905550565b6001600160801b03841681526001600160801b0383166020820152606060408201525f615e806060830184615635565b95945050505050565b5f6001600160801b0382166001600160801b038103615eaa57615eaa615b50565b60010192915050565b6001600160a01b038316815260408101610b936020830184615815565b81810381811115610f2157610f21615b50565b6001600160a01b039290921682526001600160801b0316602082015260400190565b5f82518060208501845e5f920191825250919050565b5f60018201615f2c57615f2c615b50565b506001019056fea2646970667358221220a4f6bd9330c56ed1167c8c1359b8989b1b1200b90764648229a480784d406e9164736f6c634300081e0033",
			"opcodes": "PUSH1 0x80 PUSH1 0x40 MSTORE PUSH17 0x100000000000000000000000000000001 PUSH1 0x2 SSTORE PUSH1 0x3 DUP1 SLOAD PUSH1 0x1 PUSH1 0x1 PUSH1 0x88 SHL SUB NOT AND PUSH17 0x500000000000000000000000000000001 OR SWAP1 SSTORE CALLVALUE DUP1 ISZERO PUSH1 0x46 JUMPI PUSH0 PUSH0 REVERT JUMPDEST POP PUSH1 0x1 PUSH0 SSTORE CALLER DUP1 PUSH1 0x6F JUMPI PUSH1 0x40 MLOAD PUSH4 0x1E4FBDF7 PUSH1 0xE0 SHL DUP2 MSTORE PUSH0 PUSH1 0x4 DUP3 ADD MSTORE PUSH1 0x24 ADD PUSH1 0x40 MLOAD DUP1 SWAP2 SUB SWAP1 REVERT JUMPDEST PUSH1 0x76 DUP2 PUSH1 0x94 JUMP JUMPDEST POP CALLER PUSH0 SWAP1 DUP2 MSTORE PUSH1 0x4 PUSH1 0x20 MSTORE PUSH1 0x40 SWAP1 KECCAK256 DUP1 SLOAD PUSH1 0xFF NOT AND PUSH1 0x2 OR SWAP1 SSTORE PUSH1 0xE5 JUMP JUMPDEST PUSH1 0x1 DUP1 SLOAD PUSH1 0x1 PUSH1 0x1 PUSH1 0xA0 SHL SUB DUP4 DUP2 AND PUSH1 0x1 PUSH1 0x1 PUSH1 0xA0 SHL SUB NOT DUP4 AND DUP2 OR SWAP1 SWAP4 SSTORE PUSH1 0x40 MLOAD SWAP2 AND SWAP2 SWAP1 DUP3 SWAP1 PUSH32 0x8BE0079C531659141344CD1FD0A4F28419497F9722A3DAAFE3B4186F6B6457E0 SWAP1 PUSH0 SWAP1 LOG3 POP POP JUMP JUMPDEST PUSH2 0x5F69 DUP1 PUSH2 0xF2 PUSH0 CODECOPY PUSH0 RETURN INVALID PUSH1 0x80 PUSH1 0x40 MSTORE PUSH1 0x4 CALLDATASIZE LT PUSH2 0x207 JUMPI PUSH0 CALLDATALOAD PUSH1 0xE0 SHR DUP1 PUSH4 0xABCA88F0 GT PUSH2 0x113 JUMPI DUP1 PUSH4 0xDDB0C22F GT PUSH2 0x9D JUMPI DUP1 PUSH4 0xF50DDBC7 GT PUSH2 0x6D JUMPI DUP1 PUSH4 0xF50DDBC7 EQ PUSH2 0x691 JUMPI DUP1 PUSH4 0xF7937282 EQ PUSH2 0x6C5 JUMPI DUP1 PUSH4 0xFA20FCA7 EQ PUSH2 0x6E4 JUMPI DUP1 PUSH4 0xFAF068F8 EQ PUSH2 0x6F8 JUMPI DUP1 PUSH4 0xFF8DDEE3 EQ PUSH2 0x717 JUMPI PUSH0 PUSH0 REVERT JUMPDEST DUP1 PUSH4 0xDDB0C22F EQ PUSH2 0x5EB JUMPI DUP1 PUSH4 0xE28D7A18 EQ PUSH2 0x60A JUMPI DUP1 PUSH4 0xF2FDE38B EQ PUSH2 0x63E JUMPI DUP1 PUSH4 0xF3F43703 EQ PUSH2 0x65D JUMPI PUSH0 PUSH0 REVERT JUMPDEST DUP1 PUSH4 0xD74B3C20 GT PUSH2 0xE3 JUMPI DUP1 PUSH4 0xD74B3C20 EQ PUSH2 0x52E JUMPI DUP1 PUSH4 0xD76D571A EQ PUSH2 0x55A JUMPI DUP1 PUSH4 0xD9A85E63 EQ PUSH2 0x579 JUMPI DUP1 PUSH4 0xDAC4A255 EQ PUSH2 0x5AD JUMPI DUP1 PUSH4 0xDBC91396 EQ PUSH2 0x5CC JUMPI PUSH0 PUSH0 REVERT JUMPDEST DUP1 PUSH4 0xABCA88F0 EQ PUSH2 0x4B3 JUMPI DUP1 PUSH4 0xAE9A4655 EQ PUSH2 0x4E7 JUMPI DUP1 PUSH4 0xBAB5933A EQ PUSH2 0x506 JUMPI DUP1 PUSH4 0xD72E481D EQ PUSH2 0x51A JUMPI PUSH0 PUSH0 REVERT JUMPDEST DUP1 PUSH4 0x5B94EA5D GT PUSH2 0x194 JUMPI DUP1 PUSH4 0x715018A6 GT PUSH2 0x164 JUMPI DUP1 PUSH4 0x715018A6 EQ PUSH2 0x401 JUMPI DUP1 PUSH4 0x7914D2FA EQ PUSH2 0x415 JUMPI DUP1 PUSH4 0x8DA5CB5B EQ PUSH2 0x434 JUMPI DUP1 PUSH4 0x98D88075 EQ PUSH2 0x465 JUMPI DUP1 PUSH4 0x99374642 EQ PUSH2 0x478 JUMPI PUSH0 PUSH0 REVERT JUMPDEST DUP1 PUSH4 0x5B94EA5D EQ PUSH2 0x375 JUMPI DUP1 PUSH4 0x603EF649 EQ PUSH2 0x394 JUMPI DUP1 PUSH4 0x630A195B EQ PUSH2 0x3B4 JUMPI DUP1 PUSH4 0x6B813675 EQ PUSH2 0x3D3 JUMPI PUSH0 PUSH0 REVERT JUMPDEST DUP1 PUSH4 0x26912883 GT PUSH2 0x1DA JUMPI DUP1 PUSH4 0x26912883 EQ PUSH2 0x2CB JUMPI DUP1 PUSH4 0x2FB8229B EQ PUSH2 0x2F7 JUMPI DUP1 PUSH4 0x388F20A8 EQ PUSH2 0x316 JUMPI DUP1 PUSH4 0x41AF8B6F EQ PUSH2 0x337 JUMPI DUP1 PUSH4 0x49D52B9C EQ PUSH2 0x356 JUMPI PUSH0 PUSH0 REVERT JUMPDEST DUP1 PUSH4 0x605551E EQ PUSH2 0x20B JUMPI DUP1 PUSH4 0x7EC5100 EQ PUSH2 0x247 JUMPI DUP1 PUSH4 0x14D90E1B EQ PUSH2 0x286 JUMPI DUP1 PUSH4 0x1600C6CD EQ PUSH2 0x2AC JUMPI JUMPDEST PUSH0 PUSH0 REVERT JUMPDEST CALLVALUE DUP1 ISZERO PUSH2 0x216 JUMPI PUSH0 PUSH0 REVERT JUMPDEST POP PUSH2 0x22A PUSH2 0x225 CALLDATASIZE PUSH1 0x4 PUSH2 0x5167 JUMP JUMPDEST PUSH2 0x798 JUMP JUMPDEST PUSH1 0x40 MLOAD PUSH1 0x1 PUSH1 0x1 PUSH1 0x80 SHL SUB SWAP1 SWAP2 AND DUP2 MSTORE PUSH1 0x20 ADD JUMPDEST PUSH1 0x40 MLOAD DUP1 SWAP2 SUB SWAP1 RETURN JUMPDEST CALLVALUE DUP1 ISZERO PUSH2 0x252 JUMPI PUSH0 PUSH0 REVERT JUMPDEST POP PUSH2 0x22A PUSH2 0x261 CALLDATASIZE PUSH1 0x4 PUSH2 0x51D9 JUMP JUMPDEST PUSH1 0xA PUSH1 0x20 SWAP1 DUP2 MSTORE PUSH0 SWAP3 DUP4 MSTORE PUSH1 0x40 DUP1 DUP5 KECCAK256 SWAP1 SWAP2 MSTORE SWAP1 DUP3 MSTORE SWAP1 KECCAK256 SLOAD PUSH1 0x1 PUSH1 0x1 PUSH1 0x80 SHL SUB AND DUP2 JUMP JUMPDEST CALLVALUE DUP1 ISZERO PUSH2 0x291 JUMPI PUSH0 PUSH0 REVERT JUMPDEST POP PUSH2 0x29A PUSH1 0x14 DUP2 JUMP JUMPDEST PUSH1 0x40 MLOAD PUSH1 0xFF SWAP1 SWAP2 AND DUP2 MSTORE PUSH1 0x20 ADD PUSH2 0x23E JUMP JUMPDEST CALLVALUE DUP1 ISZERO PUSH2 0x2B7 JUMPI PUSH0 PUSH0 REVERT JUMPDEST POP PUSH2 0x22A PUSH2 0x2C6 CALLDATASIZE PUSH1 0x4 PUSH2 0x5220 JUMP JUMPDEST PUSH2 0xB9A JUMP JUMPDEST CALLVALUE DUP1 ISZERO PUSH2 0x2D6 JUMPI PUSH0 PUSH0 REVERT JUMPDEST POP PUSH2 0x2EA PUSH2 0x2E5 CALLDATASIZE PUSH1 0x4 PUSH2 0x51D9 JUMP JUMPDEST PUSH2 0xBE1 JUMP JUMPDEST PUSH1 0x40 MLOAD PUSH2 0x23E SWAP2 SWAP1 PUSH2 0x537E JUMP JUMPDEST CALLVALUE DUP1 ISZERO PUSH2 0x302 JUMPI PUSH0 PUSH0 REVERT JUMPDEST POP PUSH2 0x22A PUSH2 0x311 CALLDATASIZE PUSH1 0x4 PUSH2 0x53E1 JUMP JUMPDEST PUSH2 0xF27 JUMP JUMPDEST CALLVALUE DUP1 ISZERO PUSH2 0x321 JUMPI PUSH0 PUSH0 REVERT JUMPDEST POP PUSH2 0x335 PUSH2 0x330 CALLDATASIZE PUSH1 0x4 PUSH2 0x53FB JUMP JUMPDEST PUSH2 0xF40 JUMP JUMPDEST STOP JUMPDEST CALLVALUE DUP1 ISZERO PUSH2 0x342 JUMPI PUSH0 PUSH0 REVERT JUMPDEST POP PUSH2 0x335 PUSH2 0x351 CALLDATASIZE PUSH1 0x4 PUSH2 0x547F JUMP JUMPDEST PUSH2 0x11CF JUMP JUMPDEST CALLVALUE DUP1 ISZERO PUSH2 0x361 JUMPI PUSH0 PUSH0 REVERT JUMPDEST POP PUSH2 0x335 PUSH2 0x370 CALLDATASIZE PUSH1 0x4 PUSH2 0x5551 JUMP JUMPDEST PUSH2 0x1436 JUMP JUMPDEST CALLVALUE DUP1 ISZERO PUSH2 0x380 JUMPI PUSH0 PUSH0 REVERT JUMPDEST POP PUSH2 0x335 PUSH2 0x38F CALLDATASIZE PUSH1 0x4 PUSH2 0x51D9 JUMP JUMPDEST PUSH2 0x1732 JUMP JUMPDEST CALLVALUE DUP1 ISZERO PUSH2 0x39F JUMPI PUSH0 PUSH0 REVERT JUMPDEST POP PUSH1 0x3 SLOAD PUSH2 0x29A SWAP1 PUSH1 0x1 PUSH1 0x80 SHL SWAP1 DIV PUSH1 0xFF AND DUP2 JUMP JUMPDEST CALLVALUE DUP1 ISZERO PUSH2 0x3BF JUMPI PUSH0 PUSH0 REVERT JUMPDEST POP PUSH2 0x335 PUSH2 0x3CE CALLDATASIZE PUSH1 0x4 PUSH2 0x55FD JUMP JUMPDEST PUSH2 0x1932 JUMP JUMPDEST CALLVALUE DUP1 ISZERO PUSH2 0x3DE JUMPI PUSH0 PUSH0 REVERT JUMPDEST POP PUSH2 0x3F2 PUSH2 0x3ED CALLDATASIZE PUSH1 0x4 PUSH2 0x53FB JUMP JUMPDEST PUSH2 0x1A71 JUMP JUMPDEST PUSH1 0x40 MLOAD PUSH2 0x23E SWAP4 SWAP3 SWAP2 SWAP1 PUSH2 0x578A JUMP JUMPDEST CALLVALUE DUP1 ISZERO PUSH2 0x40C JUMPI PUSH0 PUSH0 REVERT JUMPDEST POP PUSH2 0x335 PUSH2 0x1F9B JUMP JUMPDEST CALLVALUE DUP1 ISZERO PUSH2 0x420 JUMPI PUSH0 PUSH0 REVERT JUMPDEST POP PUSH2 0x22A PUSH2 0x42F CALLDATASIZE PUSH1 0x4 PUSH2 0x51D9 JUMP JUMPDEST PUSH2 0x1FAE JUMP JUMPDEST CALLVALUE DUP1 ISZERO PUSH2 0x43F JUMPI PUSH0 PUSH0 REVERT JUMPDEST POP PUSH1 0x1 SLOAD PUSH1 0x1 PUSH1 0x1 PUSH1 0xA0 SHL SUB AND JUMPDEST PUSH1 0x40 MLOAD PUSH1 0x1 PUSH1 0x1 PUSH1 0xA0 SHL SUB SWAP1 SWAP2 AND DUP2 MSTORE PUSH1 0x20 ADD PUSH2 0x23E JUMP JUMPDEST PUSH2 0x335 PUSH2 0x473 CALLDATASIZE PUSH1 0x4 PUSH2 0x5167 JUMP JUMPDEST PUSH2 0x20AA JUMP JUMPDEST CALLVALUE DUP1 ISZERO PUSH2 0x483 JUMPI PUSH0 PUSH0 REVERT JUMPDEST POP PUSH2 0x4A6 PUSH2 0x492 CALLDATASIZE PUSH1 0x4 PUSH2 0x57FC JUMP JUMPDEST PUSH1 0x4 PUSH1 0x20 MSTORE PUSH0 SWAP1 DUP2 MSTORE PUSH1 0x40 SWAP1 KECCAK256 SLOAD PUSH1 0xFF AND DUP2 JUMP JUMPDEST PUSH1 0x40 MLOAD PUSH2 0x23E SWAP2 SWAP1 PUSH2 0x5825 JUMP JUMPDEST CALLVALUE DUP1 ISZERO PUSH2 0x4BE JUMPI PUSH0 PUSH0 REVERT JUMPDEST POP PUSH2 0x44D PUSH2 0x4CD CALLDATASIZE PUSH1 0x4 PUSH2 0x53FB JUMP JUMPDEST PUSH1 0xC PUSH1 0x20 MSTORE PUSH0 SWAP1 DUP2 MSTORE PUSH1 0x40 SWAP1 KECCAK256 SLOAD PUSH1 0x1 PUSH1 0x1 PUSH1 0xA0 SHL SUB AND DUP2 JUMP JUMPDEST CALLVALUE DUP1 ISZERO PUSH2 0x4F2 JUMPI PUSH0 PUSH0 REVERT JUMPDEST POP PUSH2 0x335 PUSH2 0x501 CALLDATASIZE PUSH1 0x4 PUSH2 0x5833 JUMP JUMPDEST PUSH2 0x2722 JUMP JUMPDEST CALLVALUE DUP1 ISZERO PUSH2 0x511 JUMPI PUSH0 PUSH0 REVERT JUMPDEST POP PUSH2 0x2EA PUSH2 0x2895 JUMP JUMPDEST CALLVALUE DUP1 ISZERO PUSH2 0x525 JUMPI PUSH0 PUSH0 REVERT JUMPDEST POP PUSH2 0x335 PUSH2 0x2B1B JUMP JUMPDEST CALLVALUE DUP1 ISZERO PUSH2 0x539 JUMPI PUSH0 PUSH0 REVERT JUMPDEST POP PUSH2 0x54D PUSH2 0x548 CALLDATASIZE PUSH1 0x4 PUSH2 0x584D JUMP JUMPDEST PUSH2 0x2C99 JUMP JUMPDEST PUSH1 0x40 MLOAD PUSH2 0x23E SWAP2 SWAP1 PUSH2 0x588D JUMP JUMPDEST CALLVALUE DUP1 ISZERO PUSH2 0x565 JUMPI PUSH0 PUSH0 REVERT JUMPDEST POP PUSH2 0x22A PUSH2 0x574 CALLDATASIZE PUSH1 0x4 PUSH2 0x5220 JUMP JUMPDEST PUSH2 0x30AA JUMP JUMPDEST CALLVALUE DUP1 ISZERO PUSH2 0x584 JUMPI PUSH0 PUSH0 REVERT JUMPDEST POP PUSH2 0x598 PUSH2 0x593 CALLDATASIZE PUSH1 0x4 PUSH2 0x51D9 JUMP JUMPDEST PUSH2 0x30C3 JUMP JUMPDEST PUSH1 0x40 MLOAD PUSH2 0x23E SWAP10 SWAP9 SWAP8 SWAP7 SWAP6 SWAP5 SWAP4 SWAP3 SWAP2 SWAP1 PUSH2 0x589F JUMP JUMPDEST CALLVALUE DUP1 ISZERO PUSH2 0x5B8 JUMPI PUSH0 PUSH0 REVERT JUMPDEST POP PUSH2 0x335 PUSH2 0x5C7 CALLDATASIZE PUSH1 0x4 PUSH2 0x594E JUMP JUMPDEST PUSH2 0x32D5 JUMP JUMPDEST CALLVALUE DUP1 ISZERO PUSH2 0x5D7 JUMPI PUSH0 PUSH0 REVERT JUMPDEST POP PUSH2 0x335 PUSH2 0x5E6 CALLDATASIZE PUSH1 0x4 PUSH2 0x53FB JUMP JUMPDEST PUSH2 0x34BB JUMP JUMPDEST CALLVALUE DUP1 ISZERO PUSH2 0x5F6 JUMPI PUSH0 PUSH0 REVERT JUMPDEST POP PUSH2 0x335 PUSH2 0x605 CALLDATASIZE PUSH1 0x4 PUSH2 0x5985 JUMP JUMPDEST PUSH2 0x371C JUMP JUMPDEST CALLVALUE DUP1 ISZERO PUSH2 0x615 JUMPI PUSH0 PUSH0 REVERT JUMPDEST POP PUSH2 0x22A PUSH2 0x624 CALLDATASIZE PUSH1 0x4 PUSH2 0x57FC JUMP JUMPDEST PUSH1 0xD PUSH1 0x20 MSTORE PUSH0 SWAP1 DUP2 MSTORE PUSH1 0x40 SWAP1 KECCAK256 SLOAD PUSH1 0x1 PUSH1 0x1 PUSH1 0x80 SHL SUB AND DUP2 JUMP JUMPDEST CALLVALUE DUP1 ISZERO PUSH2 0x649 JUMPI PUSH0 PUSH0 REVERT JUMPDEST POP PUSH2 0x335 PUSH2 0x658 CALLDATASIZE PUSH1 0x4 PUSH2 0x57FC JUMP JUMPDEST PUSH2 0x3B1B JUMP JUMPDEST CALLVALUE DUP1 ISZERO PUSH2 0x668 JUMPI PUSH0 PUSH0 REVERT JUMPDEST POP PUSH2 0x22A PUSH2 0x677 CALLDATASIZE PUSH1 0x4 PUSH2 0x57FC JUMP JUMPDEST PUSH1 0x7 PUSH1 0x20 MSTORE PUSH0 SWAP1 DUP2 MSTORE PUSH1 0x40 SWAP1 KECCAK256 SLOAD PUSH1 0x1 PUSH1 0x1 PUSH1 0x80 SHL SUB AND DUP2 JUMP JUMPDEST CALLVALUE DUP1 ISZERO PUSH2 0x69C JUMPI PUSH0 PUSH0 REVERT JUMPDEST POP PUSH2 0x22A PUSH2 0x6AB CALLDATASIZE PUSH1 0x4 PUSH2 0x57FC JUMP JUMPDEST PUSH1 0x9 PUSH1 0x20 MSTORE PUSH0 SWAP1 DUP2 MSTORE PUSH1 0x40 SWAP1 KECCAK256 SLOAD PUSH1 0x1 PUSH1 0x1 PUSH1 0x80 SHL SUB AND DUP2 JUMP JUMPDEST CALLVALUE DUP1 ISZERO PUSH2 0x6D0 JUMPI PUSH0 PUSH0 REVERT JUMPDEST POP PUSH2 0x335 PUSH2 0x6DF CALLDATASIZE PUSH1 0x4 PUSH2 0x59B2 JUMP JUMPDEST PUSH2 0x3B55 JUMP JUMPDEST CALLVALUE DUP1 ISZERO PUSH2 0x6EF JUMPI PUSH0 PUSH0 REVERT JUMPDEST POP PUSH2 0x22A PUSH2 0x3C36 JUMP JUMPDEST CALLVALUE DUP1 ISZERO PUSH2 0x703 JUMPI PUSH0 PUSH0 REVERT JUMPDEST POP PUSH2 0x54D PUSH2 0x712 CALLDATASIZE PUSH1 0x4 PUSH2 0x59CB JUMP JUMPDEST PUSH2 0x3D1F JUMP JUMPDEST CALLVALUE DUP1 ISZERO PUSH2 0x722 JUMPI PUSH0 PUSH0 REVERT JUMPDEST POP PUSH2 0x786 PUSH2 0x731 CALLDATASIZE PUSH1 0x4 PUSH2 0x53FB JUMP JUMPDEST PUSH1 0x6 PUSH1 0x20 DUP2 SWAP1 MSTORE PUSH0 SWAP2 DUP3 MSTORE PUSH1 0x40 SWAP1 SWAP2 KECCAK256 DUP1 SLOAD PUSH1 0x1 DUP3 ADD SLOAD PUSH1 0x2 DUP4 ADD SLOAD PUSH1 0x5 DUP5 ADD SLOAD SWAP4 SWAP1 SWAP5 ADD SLOAD PUSH1 0x1 PUSH1 0x1 PUSH1 0x80 SHL SUB SWAP3 DUP4 AND SWAP5 PUSH1 0x1 PUSH1 0x1 PUSH1 0xA0 SHL SUB SWAP1 SWAP3 AND SWAP4 SWAP2 DUP4 AND SWAP3 DUP1 DUP4 AND SWAP3 PUSH1 0x1 PUSH1 0x80 SHL SWAP1 DIV PUSH1 0xFF AND SWAP2 AND DUP7 JUMP JUMPDEST PUSH1 0x40 MLOAD PUSH2 0x23E SWAP7 SWAP6 SWAP5 SWAP4 SWAP3 SWAP2 SWAP1 PUSH2 0x5A35 JUMP JUMPDEST PUSH0 DUP2 MLOAD DUP4 MLOAD EQ PUSH2 0x7E1 JUMPI PUSH1 0x40 MLOAD PUSH3 0x461BCD PUSH1 0xE5 SHL DUP2 MSTORE PUSH1 0x20 PUSH1 0x4 DUP3 ADD MSTORE PUSH1 0xF PUSH1 0x24 DUP3 ADD MSTORE PUSH15 0x98CADCCEE8D040DAD2E6DAC2E8C6D PUSH1 0x8B SHL PUSH1 0x44 DUP3 ADD MSTORE PUSH1 0x64 ADD JUMPDEST PUSH1 0x40 MLOAD DUP1 SWAP2 SUB SWAP1 REVERT JUMPDEST PUSH1 0x1 PUSH1 0x1 PUSH1 0x80 SHL SUB DUP5 AND PUSH0 SWAP1 DUP2 MSTORE PUSH1 0xC PUSH1 0x20 MSTORE PUSH1 0x40 SWAP1 KECCAK256 SLOAD PUSH1 0x1 PUSH1 0x1 PUSH1 0xA0 SHL SUB AND PUSH2 0x81E JUMPI PUSH1 0x40 MLOAD PUSH3 0x461BCD PUSH1 0xE5 SHL DUP2 MSTORE PUSH1 0x4 ADD PUSH2 0x7D8 SWAP1 PUSH2 0x5A8B JUMP JUMPDEST PUSH0 DUP1 JUMPDEST DUP5 MLOAD DUP2 LT ISZERO PUSH2 0xB5B JUMPI PUSH1 0x1 PUSH1 0x1 PUSH1 0x80 SHL SUB DUP7 AND PUSH0 SWAP1 DUP2 MSTORE PUSH1 0x5 PUSH1 0x20 MSTORE PUSH1 0x40 DUP2 KECCAK256 DUP7 MLOAD DUP3 SWAP1 DUP9 SWAP1 DUP6 SWAP1 DUP2 LT PUSH2 0x857 JUMPI PUSH2 0x857 PUSH2 0x5AC2 JUMP JUMPDEST PUSH1 0x20 SWAP1 DUP2 MUL SWAP2 SWAP1 SWAP2 ADD DUP2 ADD MLOAD PUSH1 0x1 PUSH1 0x1 PUSH1 0x80 SHL SUB SWAP1 DUP2 AND DUP4 MSTORE DUP3 DUP3 ADD SWAP4 SWAP1 SWAP4 MSTORE PUSH1 0x40 SWAP2 DUP3 ADD PUSH0 KECCAK256 DUP3 MLOAD PUSH2 0x120 DUP2 ADD DUP5 MSTORE DUP2 SLOAD DUP1 DUP7 AND DUP3 MSTORE PUSH1 0x1 PUSH1 0x80 SHL SWAP1 DIV SWAP1 SWAP5 AND SWAP2 DUP5 ADD SWAP2 SWAP1 SWAP2 MSTORE PUSH1 0x1 DUP2 ADD DUP1 SLOAD SWAP2 SWAP3 DUP5 ADD SWAP2 PUSH2 0x8B3 SWAP1 PUSH2 0x5AD6 JUMP JUMPDEST DUP1 PUSH1 0x1F ADD PUSH1 0x20 DUP1 SWAP2 DIV MUL PUSH1 0x20 ADD PUSH1 0x40 MLOAD SWAP1 DUP2 ADD PUSH1 0x40 MSTORE DUP1 SWAP3 SWAP2 SWAP1 DUP2 DUP2 MSTORE PUSH1 0x20 ADD DUP3 DUP1 SLOAD PUSH2 0x8DF SWAP1 PUSH2 0x5AD6 JUMP JUMPDEST DUP1 ISZERO PUSH2 0x92A JUMPI DUP1 PUSH1 0x1F LT PUSH2 0x901 JUMPI PUSH2 0x100 DUP1 DUP4 SLOAD DIV MUL DUP4 MSTORE SWAP2 PUSH1 0x20 ADD SWAP2 PUSH2 0x92A JUMP JUMPDEST DUP3 ADD SWAP2 SWAP1 PUSH0 MSTORE PUSH1 0x20 PUSH0 KECCAK256 SWAP1 JUMPDEST DUP2 SLOAD DUP2 MSTORE SWAP1 PUSH1 0x1 ADD SWAP1 PUSH1 0x20 ADD DUP1 DUP4 GT PUSH2 0x90D JUMPI DUP3 SWAP1 SUB PUSH1 0x1F AND DUP3 ADD SWAP2 JUMPDEST POP POP POP SWAP2 DUP4 MSTORE POP POP PUSH1 0x2 DUP3 ADD SLOAD PUSH1 0x1 PUSH1 0x1 PUSH1 0x80 SHL SUB DUP2 AND PUSH1 0x20 DUP4 ADD MSTORE PUSH1 0x1 PUSH1 0x80 SHL SWAP1 DIV PUSH1 0xFF AND ISZERO ISZERO PUSH1 0x40 DUP3 ADD MSTORE PUSH1 0x3 DUP3 ADD DUP1 SLOAD PUSH1 0x60 SWAP1 SWAP3 ADD SWAP2 PUSH2 0x96C SWAP1 PUSH2 0x5AD6 JUMP JUMPDEST DUP1 PUSH1 0x1F ADD PUSH1 0x20 DUP1 SWAP2 DIV MUL PUSH1 0x20 ADD PUSH1 0x40 MLOAD SWAP1 DUP2 ADD PUSH1 0x40 MSTORE DUP1 SWAP3 SWAP2 SWAP1 DUP2 DUP2 MSTORE PUSH1 0x20 ADD DUP3 DUP1 SLOAD PUSH2 0x998 SWAP1 PUSH2 0x5AD6 JUMP JUMPDEST DUP1 ISZERO PUSH2 0x9E3 JUMPI DUP1 PUSH1 0x1F LT PUSH2 0x9BA JUMPI PUSH2 0x100 DUP1 DUP4 SLOAD DIV MUL DUP4 MSTORE SWAP2 PUSH1 0x20 ADD SWAP2 PUSH2 0x9E3 JUMP JUMPDEST DUP3 ADD SWAP2 SWAP1 PUSH0 MSTORE PUSH1 0x20 PUSH0 KECCAK256 SWAP1 JUMPDEST DUP2 SLOAD DUP2 MSTORE SWAP1 PUSH1 0x1 ADD SWAP1 PUSH1 0x20 ADD DUP1 DUP4 GT PUSH2 0x9C6 JUMPI DUP3 SWAP1 SUB PUSH1 0x1F AND DUP3 ADD SWAP2 JUMPDEST POP POP POP POP POP DUP2 MSTORE PUSH1 0x20 ADD PUSH1 0x4 DUP3 ADD DUP1 SLOAD PUSH2 0x9FC SWAP1 PUSH2 0x5AD6 JUMP JUMPDEST DUP1 PUSH1 0x1F ADD PUSH1 0x20 DUP1 SWAP2 DIV MUL PUSH1 0x20 ADD PUSH1 0x40 MLOAD SWAP1 DUP2 ADD PUSH1 0x40 MSTORE DUP1 SWAP3 SWAP2 SWAP1 DUP2 DUP2 MSTORE PUSH1 0x20 ADD DUP3 DUP1 SLOAD PUSH2 0xA28 SWAP1 PUSH2 0x5AD6 JUMP JUMPDEST DUP1 ISZERO PUSH2 0xA73 JUMPI DUP1 PUSH1 0x1F LT PUSH2 0xA4A JUMPI PUSH2 0x100 DUP1 DUP4 SLOAD DIV MUL DUP4 MSTORE SWAP2 PUSH1 0x20 ADD SWAP2 PUSH2 0xA73 JUMP JUMPDEST DUP3 ADD SWAP2 SWAP1 PUSH0 MSTORE PUSH1 0x20 PUSH0 KECCAK256 SWAP1 JUMPDEST DUP2 SLOAD DUP2 MSTORE SWAP1 PUSH1 0x1 ADD SWAP1 PUSH1 0x20 ADD DUP1 DUP4 GT PUSH2 0xA56 JUMPI DUP3 SWAP1 SUB PUSH1 0x1F AND DUP3 ADD SWAP2 JUMPDEST POP POP POP SWAP2 DUP4 MSTORE POP POP PUSH1 0x5 SWAP2 SWAP1 SWAP2 ADD SLOAD PUSH1 0x1 PUSH1 0x1 PUSH1 0x80 SHL SUB DUP1 DUP3 AND PUSH1 0x20 DUP5 ADD MSTORE PUSH1 0x1 PUSH1 0x80 SHL SWAP1 SWAP2 DIV AND PUSH1 0x40 SWAP1 SWAP2 ADD MSTORE PUSH1 0x80 DUP2 ADD MLOAD SWAP1 SWAP2 POP PUSH2 0xAE8 JUMPI PUSH1 0x40 MLOAD PUSH3 0x461BCD PUSH1 0xE5 SHL DUP2 MSTORE PUSH1 0x20 PUSH1 0x4 DUP3 ADD MSTORE PUSH1 0x10 PUSH1 0x24 DUP3 ADD MSTORE PUSH16 0x4974656D20756E617661696C61626C65 PUSH1 0x80 SHL PUSH1 0x44 DUP3 ADD MSTORE PUSH1 0x64 ADD PUSH2 0x7D8 JUMP JUMPDEST DUP7 PUSH1 0x1 PUSH1 0x1 PUSH1 0x80 SHL SUB AND DUP2 PUSH1 0x20 ADD MLOAD PUSH1 0x1 PUSH1 0x1 PUSH1 0x80 SHL SUB AND EQ PUSH2 0xB1D JUMPI PUSH1 0x40 MLOAD PUSH3 0x461BCD PUSH1 0xE5 SHL DUP2 MSTORE PUSH1 0x4 ADD PUSH2 0x7D8 SWAP1 PUSH2 0x5B0E JUMP JUMPDEST DUP5 DUP3 DUP2 MLOAD DUP2 LT PUSH2 0xB2F JUMPI PUSH2 0xB2F PUSH2 0x5AC2 JUMP JUMPDEST PUSH1 0x20 MUL PUSH1 0x20 ADD ADD MLOAD DUP2 PUSH1 0x60 ADD MLOAD PUSH2 0xB46 SWAP2 SWAP1 PUSH2 0x5B64 JUMP JUMPDEST PUSH2 0xB50 SWAP1 DUP5 PUSH2 0x5B86 JUMP JUMPDEST SWAP3 POP POP PUSH1 0x1 ADD PUSH2 0x821 JUMP JUMPDEST POP PUSH1 0x3 SLOAD PUSH0 SWAP1 PUSH1 0x64 SWAP1 PUSH2 0xB78 SWAP1 PUSH1 0x1 PUSH1 0x80 SHL SWAP1 DIV PUSH1 0xFF AND DUP5 PUSH2 0x5B64 JUMP JUMPDEST PUSH2 0xB82 SWAP2 SWAP1 PUSH2 0x5BA5 JUMP JUMPDEST SWAP1 POP PUSH2 0xB8E DUP2 DUP4 PUSH2 0x5B86 JUMP JUMPDEST SWAP3 POP POP POP JUMPDEST SWAP4 SWAP3 POP POP POP JUMP JUMPDEST PUSH1 0x8 PUSH1 0x20 MSTORE DUP2 PUSH0 MSTORE PUSH1 0x40 PUSH0 KECCAK256 DUP2 DUP2 SLOAD DUP2 LT PUSH2 0xBB3 JUMPI PUSH0 DUP1 REVERT JUMPDEST SWAP1 PUSH0 MSTORE PUSH1 0x20 PUSH0 KECCAK256 SWAP1 PUSH1 0x2 SWAP2 DUP3 DUP3 DIV ADD SWAP2 SWAP1 MOD PUSH1 0x10 MUL SWAP2 POP SWAP2 POP SWAP1 SLOAD SWAP1 PUSH2 0x100 EXP SWAP1 DIV PUSH1 0x1 PUSH1 0x1 PUSH1 0x80 SHL SUB AND DUP2 JUMP JUMPDEST PUSH1 0x60 PUSH1 0x2 CALLER PUSH0 SWAP1 DUP2 MSTORE PUSH1 0x4 PUSH1 0x20 MSTORE PUSH1 0x40 SWAP1 KECCAK256 SLOAD PUSH1 0xFF AND PUSH1 0x2 DUP2 GT ISZERO PUSH2 0xC08 JUMPI PUSH2 0xC08 PUSH2 0x528B JUMP JUMPDEST EQ PUSH2 0xC25 JUMPI PUSH1 0x40 MLOAD PUSH3 0x461BCD PUSH1 0xE5 SHL DUP2 MSTORE PUSH1 0x4 ADD PUSH2 0x7D8 SWAP1 PUSH2 0x5BDE JUMP JUMPDEST PUSH1 0x2 SLOAD PUSH0 SWAP1 PUSH1 0x1 PUSH1 0x1 PUSH1 0x80 SHL SUB DUP1 DUP7 AND SWAP2 PUSH2 0xC4A SWAP2 PUSH1 0x1 SWAP2 PUSH1 0x1 PUSH1 0x80 SHL SWAP1 DIV AND PUSH2 0x5C15 JUMP JUMPDEST PUSH1 0x1 PUSH1 0x1 PUSH1 0x80 SHL SUB AND GT PUSH2 0xC5E JUMPI PUSH0 PUSH2 0xC89 JUMP JUMPDEST PUSH1 0x2 SLOAD DUP5 SWAP1 PUSH2 0xC7F SWAP1 PUSH1 0x1 SWAP1 PUSH1 0x1 PUSH1 0x80 SHL SWAP1 DIV PUSH1 0x1 PUSH1 0x1 PUSH1 0x80 SHL SUB AND PUSH2 0x5C15 JUMP JUMPDEST PUSH2 0xC89 SWAP2 SWAP1 PUSH2 0x5C15 JUMP JUMPDEST SWAP1 POP DUP3 PUSH1 0x1 PUSH1 0x1 PUSH1 0x80 SHL SUB AND DUP2 PUSH1 0x1 PUSH1 0x1 PUSH1 0x80 SHL SUB AND GT ISZERO PUSH2 0xCA8 JUMPI POP DUP2 JUMPDEST PUSH0 DUP2 PUSH1 0x1 PUSH1 0x1 PUSH1 0x80 SHL SUB AND PUSH1 0x1 PUSH1 0x1 PUSH1 0x40 SHL SUB DUP2 GT ISZERO PUSH2 0xCCA JUMPI PUSH2 0xCCA PUSH2 0x509D JUMP JUMPDEST PUSH1 0x40 MLOAD SWAP1 DUP1 DUP3 MSTORE DUP1 PUSH1 0x20 MUL PUSH1 0x20 ADD DUP3 ADD PUSH1 0x40 MSTORE DUP1 ISZERO PUSH2 0xD03 JUMPI DUP2 PUSH1 0x20 ADD JUMPDEST PUSH2 0xCF0 PUSH2 0x4EF3 JUMP JUMPDEST DUP2 MSTORE PUSH1 0x20 ADD SWAP1 PUSH1 0x1 SWAP1 SUB SWAP1 DUP2 PUSH2 0xCE8 JUMPI SWAP1 POP JUMPDEST POP SWAP1 POP PUSH0 JUMPDEST DUP3 PUSH1 0x1 PUSH1 0x1 PUSH1 0x80 SHL SUB AND DUP2 PUSH1 0x1 PUSH1 0x1 PUSH1 0x80 SHL SUB AND LT ISZERO PUSH2 0xF1C JUMPI PUSH1 0x6 PUSH0 PUSH2 0xD2F DUP4 DUP10 PUSH2 0x5B86 JUMP JUMPDEST PUSH2 0xD3A SWAP1 PUSH1 0x1 PUSH2 0x5B86 JUMP JUMPDEST PUSH1 0x1 PUSH1 0x1 PUSH1 0x80 SHL SUB SWAP1 DUP2 AND DUP3 MSTORE PUSH1 0x20 DUP1 DUP4 ADD SWAP4 SWAP1 SWAP4 MSTORE PUSH1 0x40 SWAP2 DUP3 ADD PUSH0 KECCAK256 DUP3 MLOAD PUSH2 0x100 DUP2 ADD DUP5 MSTORE DUP2 SLOAD DUP4 AND DUP2 MSTORE PUSH1 0x1 DUP3 ADD SLOAD PUSH1 0x1 PUSH1 0x1 PUSH1 0xA0 SHL SUB AND DUP2 DUP7 ADD MSTORE PUSH1 0x2 DUP3 ADD SLOAD SWAP1 SWAP3 AND DUP3 DUP5 ADD MSTORE PUSH1 0x3 DUP2 ADD DUP1 SLOAD DUP5 MLOAD DUP2 DUP8 MUL DUP2 ADD DUP8 ADD SWAP1 SWAP6 MSTORE DUP1 DUP6 MSTORE SWAP3 SWAP5 SWAP2 SWAP4 PUSH1 0x60 DUP7 ADD SWAP4 SWAP1 SWAP3 DUP4 ADD DUP3 DUP3 DUP1 ISZERO PUSH2 0xE02 JUMPI PUSH1 0x20 MUL DUP3 ADD SWAP2 SWAP1 PUSH0 MSTORE PUSH1 0x20 PUSH0 KECCAK256 SWAP1 PUSH0 SWAP1 JUMPDEST DUP3 DUP3 SWAP1 SLOAD SWAP1 PUSH2 0x100 EXP SWAP1 DIV PUSH1 0x1 PUSH1 0x1 PUSH1 0x80 SHL SUB AND PUSH1 0x1 PUSH1 0x1 PUSH1 0x80 SHL SUB AND DUP2 MSTORE PUSH1 0x20 ADD SWAP1 PUSH1 0x10 ADD SWAP1 PUSH1 0x20 DUP3 PUSH1 0xF ADD DIV SWAP3 DUP4 ADD SWAP3 PUSH1 0x1 SUB DUP3 MUL SWAP2 POP DUP1 DUP5 GT PUSH2 0xDBF JUMPI SWAP1 POP JUMPDEST POP POP POP POP POP DUP2 MSTORE PUSH1 0x20 ADD PUSH1 0x4 DUP3 ADD DUP1 SLOAD DUP1 PUSH1 0x20 MUL PUSH1 0x20 ADD PUSH1 0x40 MLOAD SWAP1 DUP2 ADD PUSH1 0x40 MSTORE DUP1 SWAP3 SWAP2 SWAP1 DUP2 DUP2 MSTORE PUSH1 0x20 ADD DUP3 DUP1 SLOAD DUP1 ISZERO PUSH2 0xE89 JUMPI PUSH1 0x20 MUL DUP3 ADD SWAP2 SWAP1 PUSH0 MSTORE PUSH1 0x20 PUSH0 KECCAK256 SWAP1 PUSH0 SWAP1 JUMPDEST DUP3 DUP3 SWAP1 SLOAD SWAP1 PUSH2 0x100 EXP SWAP1 DIV PUSH1 0x1 PUSH1 0x1 PUSH1 0x80 SHL SUB AND PUSH1 0x1 PUSH1 0x1 PUSH1 0x80 SHL SUB AND DUP2 MSTORE PUSH1 0x20 ADD SWAP1 PUSH1 0x10 ADD SWAP1 PUSH1 0x20 DUP3 PUSH1 0xF ADD DIV SWAP3 DUP4 ADD SWAP3 PUSH1 0x1 SUB DUP3 MUL SWAP2 POP DUP1 DUP5 GT PUSH2 0xE46 JUMPI SWAP1 POP JUMPDEST POP POP POP SWAP2 DUP4 MSTORE POP POP PUSH1 0x5 DUP3 DUP2 ADD SLOAD PUSH1 0x1 PUSH1 0x1 PUSH1 0x80 SHL SUB DUP2 AND PUSH1 0x20 DUP5 ADD MSTORE PUSH1 0x40 SWAP1 SWAP3 ADD SWAP2 PUSH1 0x1 PUSH1 0x80 SHL SWAP1 DIV PUSH1 0xFF AND SWAP1 DUP2 GT ISZERO PUSH2 0xEC6 JUMPI PUSH2 0xEC6 PUSH2 0x528B JUMP JUMPDEST PUSH1 0x5 DUP2 GT ISZERO PUSH2 0xED7 JUMPI PUSH2 0xED7 PUSH2 0x528B JUMP JUMPDEST DUP2 MSTORE PUSH1 0x6 SWAP2 SWAP1 SWAP2 ADD SLOAD PUSH1 0x1 PUSH1 0x1 PUSH1 0x80 SHL SUB SWAP1 DUP2 AND PUSH1 0x20 SWAP1 SWAP3 ADD SWAP2 SWAP1 SWAP2 MSTORE DUP4 MLOAD DUP5 SWAP2 DUP5 AND SWAP1 DUP2 LT PUSH2 0xF09 JUMPI PUSH2 0xF09 PUSH2 0x5AC2 JUMP JUMPDEST PUSH1 0x20 SWAP1 DUP2 MUL SWAP2 SWAP1 SWAP2 ADD ADD MSTORE PUSH1 0x1 ADD PUSH2 0xD08 JUMP JUMPDEST POP SWAP2 POP POP JUMPDEST SWAP3 SWAP2 POP POP JUMP JUMPDEST PUSH1 0xE PUSH1 0x20 MSTORE DUP2 PUSH0 MSTORE PUSH1 0x40 PUSH0 KECCAK256 DUP2 DUP2 SLOAD DUP2 LT PUSH2 0xBB3 JUMPI PUSH0 DUP1 REVERT JUMPDEST PUSH1 0x2 CALLER PUSH0 SWAP1 DUP2 MSTORE PUSH1 0x4 PUSH1 0x20 MSTORE PUSH1 0x40 SWAP1 KECCAK256 SLOAD PUSH1 0xFF AND PUSH1 0x2 DUP2 GT ISZERO PUSH2 0xF65 JUMPI PUSH2 0xF65 PUSH2 0x528B JUMP JUMPDEST EQ DUP1 PUSH2 0xF91 JUMPI POP CALLER PUSH0 SWAP1 DUP2 MSTORE PUSH1 0x4 PUSH1 0x20 MSTORE PUSH1 0x40 DUP2 KECCAK256 SLOAD PUSH1 0xFF AND PUSH1 0x2 DUP2 GT ISZERO PUSH2 0xF8F JUMPI PUSH2 0xF8F PUSH2 0x528B JUMP JUMPDEST EQ JUMPDEST PUSH2 0xFD6 JUMPI PUSH1 0x40 MLOAD PUSH3 0x461BCD PUSH1 0xE5 SHL DUP2 MSTORE PUSH1 0x20 PUSH1 0x4 DUP3 ADD MSTORE PUSH1 0x16 PUSH1 0x24 DUP3 ADD MSTORE PUSH22 0x27B7363C9030B236B4B71037B91031BAB9BA37B6B2B9 PUSH1 0x51 SHL PUSH1 0x44 DUP3 ADD MSTORE PUSH1 0x64 ADD PUSH2 0x7D8 JUMP JUMPDEST PUSH2 0xFDE PUSH2 0x4D63 JUMP JUMPDEST DUP1 PUSH0 DUP2 PUSH1 0x1 PUSH1 0x1 PUSH1 0x80 SHL SUB AND GT DUP1 ISZERO PUSH2 0x100C JUMPI POP PUSH1 0x2 SLOAD PUSH1 0x1 PUSH1 0x1 PUSH1 0x80 SHL SUB PUSH1 0x1 PUSH1 0x80 SHL SWAP1 SWAP2 DIV DUP2 AND SWAP1 DUP3 AND LT JUMPDEST PUSH2 0x1028 JUMPI PUSH1 0x40 MLOAD PUSH3 0x461BCD PUSH1 0xE5 SHL DUP2 MSTORE PUSH1 0x4 ADD PUSH2 0x7D8 SWAP1 PUSH2 0x5C34 JUMP JUMPDEST PUSH1 0x1 PUSH1 0x1 PUSH1 0x80 SHL SUB DUP3 AND PUSH0 SWAP1 DUP2 MSTORE PUSH1 0x6 PUSH1 0x20 MSTORE PUSH1 0x40 SWAP1 KECCAK256 PUSH1 0x1 DUP2 ADD SLOAD PUSH1 0x1 PUSH1 0x1 PUSH1 0xA0 SHL SUB AND CALLER EQ PUSH2 0x108C JUMPI PUSH1 0x40 MLOAD PUSH3 0x461BCD PUSH1 0xE5 SHL DUP2 MSTORE PUSH1 0x20 PUSH1 0x4 DUP3 ADD MSTORE PUSH1 0xE PUSH1 0x24 DUP3 ADD MSTORE PUSH14 0x2737BA103CB7BAB91037B93232B9 PUSH1 0x91 SHL PUSH1 0x44 DUP3 ADD MSTORE PUSH1 0x64 ADD PUSH2 0x7D8 JUMP JUMPDEST PUSH1 0x3 PUSH1 0x5 DUP3 DUP2 ADD SLOAD PUSH1 0x1 PUSH1 0x80 SHL SWAP1 DIV PUSH1 0xFF AND SWAP1 DUP2 GT ISZERO PUSH2 0x10AE JUMPI PUSH2 0x10AE PUSH2 0x528B JUMP JUMPDEST EQ PUSH2 0x10ED JUMPI PUSH1 0x40 MLOAD PUSH3 0x461BCD PUSH1 0xE5 SHL DUP2 MSTORE PUSH1 0x20 PUSH1 0x4 DUP3 ADD MSTORE PUSH1 0xF PUSH1 0x24 DUP3 ADD MSTORE PUSH15 0x4F72646572206E6F74207265616479 PUSH1 0x88 SHL PUSH1 0x44 DUP3 ADD MSTORE PUSH1 0x64 ADD PUSH2 0x7D8 JUMP JUMPDEST PUSH1 0x5 DUP2 ADD DUP1 SLOAD PUSH1 0xFF PUSH1 0x80 SHL NOT AND PUSH1 0x5 PUSH1 0x80 SHL OR SWAP1 SSTORE CALLER PUSH0 SWAP1 DUP2 MSTORE PUSH1 0x9 PUSH1 0x20 MSTORE PUSH1 0x40 DUP2 KECCAK256 DUP1 SLOAD PUSH1 0xA SWAP3 SWAP1 PUSH2 0x112A SWAP1 DUP5 SWAP1 PUSH1 0x1 PUSH1 0x1 PUSH1 0x80 SHL SUB AND PUSH2 0x5B86 JUMP JUMPDEST SWAP3 POP PUSH2 0x100 EXP DUP2 SLOAD DUP2 PUSH1 0x1 PUSH1 0x1 PUSH1 0x80 SHL SUB MUL NOT AND SWAP1 DUP4 PUSH1 0x1 PUSH1 0x1 PUSH1 0x80 SHL SUB AND MUL OR SWAP1 SSTORE POP PUSH32 0x2B43CAF6E380609EC1E8A3EEA0E53325C84F3EFB96E5D9D4DE1B5F30FF51E00 DUP4 CALLER PUSH1 0x40 MLOAD PUSH2 0x117F SWAP3 SWAP2 SWAP1 PUSH2 0x5C5E JUMP JUMPDEST PUSH1 0x40 MLOAD DUP1 SWAP2 SUB SWAP1 LOG1 PUSH32 0x398E222575905CAECECB6CA7C365B9049ABF41CC7CC060EC170A711233F32D08 DUP4 PUSH1 0x5 PUSH1 0x40 MLOAD PUSH2 0x11B9 SWAP3 SWAP2 SWAP1 PUSH2 0x5C80 JUMP JUMPDEST PUSH1 0x40 MLOAD DUP1 SWAP2 SUB SWAP1 LOG1 POP POP PUSH2 0x11CC PUSH1 0x1 PUSH0 SSTORE JUMP JUMPDEST POP JUMP JUMPDEST DUP7 PUSH1 0x1 CALLER PUSH0 SWAP1 DUP2 MSTORE PUSH1 0x4 PUSH1 0x20 MSTORE PUSH1 0x40 SWAP1 KECCAK256 SLOAD PUSH1 0xFF AND PUSH1 0x2 DUP2 GT ISZERO PUSH2 0x11F5 JUMPI PUSH2 0x11F5 PUSH2 0x528B JUMP JUMPDEST EQ DUP1 ISZERO PUSH2 0x121B JUMPI POP CALLER PUSH0 SWAP1 DUP2 MSTORE PUSH1 0xD PUSH1 0x20 MSTORE PUSH1 0x40 SWAP1 KECCAK256 SLOAD PUSH1 0x1 PUSH1 0x1 PUSH1 0x80 SHL SUB DUP3 DUP2 AND SWAP2 AND EQ JUMPDEST DUP1 PUSH2 0x1248 JUMPI POP PUSH1 0x2 CALLER PUSH0 SWAP1 DUP2 MSTORE PUSH1 0x4 PUSH1 0x20 MSTORE PUSH1 0x40 SWAP1 KECCAK256 SLOAD PUSH1 0xFF AND PUSH1 0x2 DUP2 GT ISZERO PUSH2 0x1246 JUMPI PUSH2 0x1246 PUSH2 0x528B JUMP JUMPDEST EQ JUMPDEST DUP1 PUSH2 0x1272 JUMPI POP PUSH1 0x1 PUSH1 0x1 PUSH1 0x80 SHL SUB DUP2 AND PUSH0 SWAP1 DUP2 MSTORE PUSH1 0xC PUSH1 0x20 MSTORE PUSH1 0x40 SWAP1 KECCAK256 SLOAD PUSH1 0x1 PUSH1 0x1 PUSH1 0xA0 SHL SUB AND CALLER EQ JUMPDEST PUSH2 0x128E JUMPI PUSH1 0x40 MLOAD PUSH3 0x461BCD PUSH1 0xE5 SHL DUP2 MSTORE PUSH1 0x4 ADD PUSH2 0x7D8 SWAP1 PUSH2 0x5C9D JUMP JUMPDEST DUP8 DUP8 PUSH0 DUP2 PUSH1 0x1 PUSH1 0x1 PUSH1 0x80 SHL SUB AND GT DUP1 ISZERO PUSH2 0x12B6 JUMPI POP PUSH1 0x2 SLOAD PUSH1 0x1 PUSH1 0x1 PUSH1 0x80 SHL SUB SWAP1 DUP2 AND SWAP1 DUP3 AND LT JUMPDEST PUSH2 0x12D2 JUMPI PUSH1 0x40 MLOAD PUSH3 0x461BCD PUSH1 0xE5 SHL DUP2 MSTORE PUSH1 0x4 ADD PUSH2 0x7D8 SWAP1 PUSH2 0x5CE6 JUMP JUMPDEST PUSH1 0x1 PUSH1 0x1 PUSH1 0x80 SHL SUB DUP1 DUP4 AND PUSH0 SWAP1 DUP2 MSTORE PUSH1 0x5 PUSH1 0x20 SWAP1 DUP2 MSTORE PUSH1 0x40 DUP1 DUP4 KECCAK256 DUP6 DUP6 AND DUP5 MSTORE SWAP1 SWAP2 MSTORE DUP2 KECCAK256 SLOAD SWAP1 SWAP2 AND SWAP1 SUB PUSH2 0x1319 JUMPI PUSH1 0x40 MLOAD PUSH3 0x461BCD PUSH1 0xE5 SHL DUP2 MSTORE PUSH1 0x4 ADD PUSH2 0x7D8 SWAP1 PUSH2 0x5D14 JUMP JUMPDEST PUSH0 DUP9 MLOAD GT DUP1 ISZERO PUSH2 0x1331 JUMPI POP PUSH0 DUP8 PUSH1 0x1 PUSH1 0x1 PUSH1 0x80 SHL SUB AND GT JUMPDEST PUSH2 0x136C JUMPI PUSH1 0x40 MLOAD PUSH3 0x461BCD PUSH1 0xE5 SHL DUP2 MSTORE PUSH1 0x20 PUSH1 0x4 DUP3 ADD MSTORE PUSH1 0xC PUSH1 0x24 DUP3 ADD MSTORE PUSH12 0x496E76616C69642064617461 PUSH1 0xA0 SHL PUSH1 0x44 DUP3 ADD MSTORE PUSH1 0x64 ADD PUSH2 0x7D8 JUMP JUMPDEST PUSH1 0x1 PUSH1 0x1 PUSH1 0x80 SHL SUB DUP1 DUP12 AND PUSH0 SWAP1 DUP2 MSTORE PUSH1 0x5 PUSH1 0x20 SWAP1 DUP2 MSTORE PUSH1 0x40 DUP1 DUP4 KECCAK256 SWAP4 DUP14 AND DUP4 MSTORE SWAP3 SWAP1 MSTORE KECCAK256 PUSH1 0x1 DUP2 ADD PUSH2 0x139E DUP11 DUP3 PUSH2 0x5D96 JUMP JUMPDEST POP PUSH1 0x2 DUP2 ADD DUP1 SLOAD DUP9 ISZERO ISZERO PUSH1 0x1 PUSH1 0x80 SHL MUL PUSH1 0x1 PUSH1 0x1 PUSH1 0x88 SHL SUB NOT SWAP1 SWAP2 AND PUSH1 0x1 PUSH1 0x1 PUSH1 0x80 SHL SUB DUP12 AND OR OR SWAP1 SSTORE PUSH1 0x3 DUP2 ADD PUSH2 0x13D6 DUP8 DUP3 PUSH2 0x5D96 JUMP JUMPDEST POP PUSH1 0x4 DUP2 ADD PUSH2 0x13E5 DUP7 DUP3 PUSH2 0x5D96 JUMP JUMPDEST POP PUSH1 0x40 DUP1 MLOAD PUSH1 0x1 PUSH1 0x1 PUSH1 0x80 SHL SUB DUP1 DUP14 AND DUP3 MSTORE DUP14 AND PUSH1 0x20 DUP3 ADD MSTORE PUSH32 0xCE43B91B59C691CDAC567984A49CE1B6001F3A8781EDE9D3F567CC3AB69F3CB0 SWAP2 ADD PUSH1 0x40 MLOAD DUP1 SWAP2 SUB SWAP1 LOG1 POP POP POP POP POP POP POP POP POP POP POP JUMP JUMPDEST DUP5 PUSH1 0x1 CALLER PUSH0 SWAP1 DUP2 MSTORE PUSH1 0x4 PUSH1 0x20 MSTORE PUSH1 0x40 SWAP1 KECCAK256 SLOAD PUSH1 0xFF AND PUSH1 0x2 DUP2 GT ISZERO PUSH2 0x145C JUMPI PUSH2 0x145C PUSH2 0x528B JUMP JUMPDEST EQ DUP1 ISZERO PUSH2 0x1482 JUMPI POP CALLER PUSH0 SWAP1 DUP2 MSTORE PUSH1 0xD PUSH1 0x20 MSTORE PUSH1 0x40 SWAP1 KECCAK256 SLOAD PUSH1 0x1 PUSH1 0x1 PUSH1 0x80 SHL SUB DUP3 DUP2 AND SWAP2 AND EQ JUMPDEST DUP1 PUSH2 0x14AF JUMPI POP PUSH1 0x2 CALLER PUSH0 SWAP1 DUP2 MSTORE PUSH1 0x4 PUSH1 0x20 MSTORE PUSH1 0x40 SWAP1 KECCAK256 SLOAD PUSH1 0xFF AND PUSH1 0x2 DUP2 GT ISZERO PUSH2 0x14AD JUMPI PUSH2 0x14AD PUSH2 0x528B JUMP JUMPDEST EQ JUMPDEST DUP1 PUSH2 0x14D9 JUMPI POP PUSH1 0x1 PUSH1 0x1 PUSH1 0x80 SHL SUB DUP2 AND PUSH0 SWAP1 DUP2 MSTORE PUSH1 0xC PUSH1 0x20 MSTORE PUSH1 0x40 SWAP1 KECCAK256 SLOAD PUSH1 0x1 PUSH1 0x1 PUSH1 0xA0 SHL SUB AND CALLER EQ JUMPDEST PUSH2 0x14F5 JUMPI PUSH1 0x40 MLOAD PUSH3 0x461BCD PUSH1 0xE5 SHL DUP2 MSTORE PUSH1 0x4 ADD PUSH2 0x7D8 SWAP1 PUSH2 0x5C9D JUMP JUMPDEST PUSH0 DUP6 MLOAD GT DUP1 ISZERO PUSH2 0x150D JUMPI POP PUSH0 DUP5 PUSH1 0x1 PUSH1 0x1 PUSH1 0x80 SHL SUB AND GT JUMPDEST PUSH2 0x1548 JUMPI PUSH1 0x40 MLOAD PUSH3 0x461BCD PUSH1 0xE5 SHL DUP2 MSTORE PUSH1 0x20 PUSH1 0x4 DUP3 ADD MSTORE PUSH1 0xC PUSH1 0x24 DUP3 ADD MSTORE PUSH12 0x496E76616C69642064617461 PUSH1 0xA0 SHL PUSH1 0x44 DUP3 ADD MSTORE PUSH1 0x64 ADD PUSH2 0x7D8 JUMP JUMPDEST PUSH1 0x1 PUSH1 0x1 PUSH1 0x80 SHL SUB DUP7 AND PUSH0 SWAP1 DUP2 MSTORE PUSH1 0xC PUSH1 0x20 MSTORE PUSH1 0x40 SWAP1 KECCAK256 SLOAD PUSH1 0x1 PUSH1 0x1 PUSH1 0xA0 SHL SUB AND PUSH2 0x1585 JUMPI PUSH1 0x40 MLOAD PUSH3 0x461BCD PUSH1 0xE5 SHL DUP2 MSTORE PUSH1 0x4 ADD PUSH2 0x7D8 SWAP1 PUSH2 0x5A8B JUMP JUMPDEST PUSH1 0x40 DUP1 MLOAD PUSH2 0x120 DUP2 ADD DUP3 MSTORE PUSH1 0x2 SLOAD PUSH1 0x1 PUSH1 0x1 PUSH1 0x80 SHL SUB SWAP1 DUP2 AND DUP1 DUP4 MSTORE DUP10 DUP3 AND PUSH1 0x20 DUP1 DUP6 ADD DUP3 DUP2 MSTORE DUP6 DUP8 ADD DUP13 DUP2 MSTORE DUP12 DUP7 AND PUSH1 0x60 DUP9 ADD MSTORE PUSH1 0x1 PUSH1 0x80 DUP9 ADD DUP2 SWAP1 MSTORE PUSH1 0xA0 DUP9 ADD DUP13 SWAP1 MSTORE PUSH1 0xC0 DUP9 ADD DUP12 SWAP1 MSTORE PUSH0 PUSH1 0xE0 DUP10 ADD DUP2 SWAP1 MSTORE PUSH2 0x100 DUP10 ADD DUP2 SWAP1 MSTORE SWAP5 DUP6 MSTORE PUSH1 0x5 DUP5 MSTORE DUP9 DUP6 KECCAK256 SWAP6 DUP6 MSTORE SWAP5 SWAP1 SWAP3 MSTORE SWAP6 SWAP1 SWAP2 KECCAK256 DUP5 MLOAD SWAP6 MLOAD DUP5 AND PUSH1 0x1 PUSH1 0x80 SHL MUL SWAP6 SWAP1 SWAP4 AND SWAP5 SWAP1 SWAP5 OR DUP3 SSTORE SWAP3 MLOAD SWAP2 SWAP3 SWAP1 SWAP2 SWAP1 DUP3 ADD SWAP1 PUSH2 0x1620 SWAP1 DUP3 PUSH2 0x5D96 JUMP JUMPDEST POP PUSH1 0x60 DUP3 ADD MLOAD PUSH1 0x2 DUP3 ADD DUP1 SLOAD PUSH1 0x80 DUP6 ADD MLOAD ISZERO ISZERO PUSH1 0x1 PUSH1 0x80 SHL MUL PUSH1 0x1 PUSH1 0x1 PUSH1 0x88 SHL SUB NOT SWAP1 SWAP2 AND PUSH1 0x1 PUSH1 0x1 PUSH1 0x80 SHL SUB SWAP1 SWAP4 AND SWAP3 SWAP1 SWAP3 OR SWAP2 SWAP1 SWAP2 OR SWAP1 SSTORE PUSH1 0xA0 DUP3 ADD MLOAD PUSH1 0x3 DUP3 ADD SWAP1 PUSH2 0x166E SWAP1 DUP3 PUSH2 0x5D96 JUMP JUMPDEST POP PUSH1 0xC0 DUP3 ADD MLOAD PUSH1 0x4 DUP3 ADD SWAP1 PUSH2 0x1683 SWAP1 DUP3 PUSH2 0x5D96 JUMP JUMPDEST POP PUSH1 0xE0 DUP3 ADD MLOAD PUSH2 0x100 SWAP1 SWAP3 ADD MLOAD PUSH1 0x1 PUSH1 0x1 PUSH1 0x80 SHL SUB SWAP1 DUP2 AND PUSH1 0x1 PUSH1 0x80 SHL MUL SWAP3 DUP2 AND SWAP3 SWAP1 SWAP3 OR PUSH1 0x5 SWAP1 SWAP2 ADD SSTORE PUSH1 0x2 SLOAD PUSH1 0x40 MLOAD PUSH32 0x16C3BB758075933856EBC4132418C1E40E2757B27275FA2FD2DE8C38E4E54B8E SWAP3 PUSH2 0x16E5 SWAP3 AND SWAP1 DUP10 SWAP1 DUP10 SWAP1 PUSH2 0x5E50 JUMP JUMPDEST PUSH1 0x40 MLOAD DUP1 SWAP2 SUB SWAP1 LOG1 PUSH1 0x2 DUP1 SLOAD PUSH1 0x1 PUSH1 0x1 PUSH1 0x80 SHL SUB AND SWAP1 PUSH0 PUSH2 0x1705 DUP4 PUSH2 0x5E89 JUMP JUMPDEST SWAP2 SWAP1 PUSH2 0x100 EXP DUP2 SLOAD DUP2 PUSH1 0x1 PUSH1 0x1 PUSH1 0x80 SHL SUB MUL NOT AND SWAP1 DUP4 PUSH1 0x1 PUSH1 0x1 PUSH1 0x80 SHL SUB AND MUL OR SWAP1 SSTORE POP POP POP POP POP POP POP POP JUMP JUMPDEST DUP2 PUSH1 0x1 CALLER PUSH0 SWAP1 DUP2 MSTORE PUSH1 0x4 PUSH1 0x20 MSTORE PUSH1 0x40 SWAP1 KECCAK256 SLOAD PUSH1 0xFF AND PUSH1 0x2 DUP2 GT ISZERO PUSH2 0x1758 JUMPI PUSH2 0x1758 PUSH2 0x528B JUMP JUMPDEST EQ DUP1 ISZERO PUSH2 0x177E JUMPI POP CALLER PUSH0 SWAP1 DUP2 MSTORE PUSH1 0xD PUSH1 0x20 MSTORE PUSH1 0x40 SWAP1 KECCAK256 SLOAD PUSH1 0x1 PUSH1 0x1 PUSH1 0x80 SHL SUB DUP3 DUP2 AND SWAP2 AND EQ JUMPDEST DUP1 PUSH2 0x17AB JUMPI POP PUSH1 0x2 CALLER PUSH0 SWAP1 DUP2 MSTORE PUSH1 0x4 PUSH1 0x20 MSTORE PUSH1 0x40 SWAP1 KECCAK256 SLOAD PUSH1 0xFF AND PUSH1 0x2 DUP2 GT ISZERO PUSH2 0x17A9 JUMPI PUSH2 0x17A9 PUSH2 0x528B JUMP JUMPDEST EQ JUMPDEST DUP1 PUSH2 0x17D5 JUMPI POP PUSH1 0x1 PUSH1 0x1 PUSH1 0x80 SHL SUB DUP2 AND PUSH0 SWAP1 DUP2 MSTORE PUSH1 0xC PUSH1 0x20 MSTORE PUSH1 0x40 SWAP1 KECCAK256 SLOAD PUSH1 0x1 PUSH1 0x1 PUSH1 0xA0 SHL SUB AND CALLER EQ JUMPDEST PUSH2 0x17F1 JUMPI PUSH1 0x40 MLOAD PUSH3 0x461BCD PUSH1 0xE5 SHL DUP2 MSTORE PUSH1 0x4 ADD PUSH2 0x7D8 SWAP1 PUSH2 0x5C9D JUMP JUMPDEST DUP3 DUP3 PUSH0 DUP2 PUSH1 0x1 PUSH1 0x1 PUSH1 0x80 SHL SUB AND GT DUP1 ISZERO PUSH2 0x1819 JUMPI POP PUSH1 0x2 SLOAD PUSH1 0x1 PUSH1 0x1 PUSH1 0x80 SHL SUB SWAP1 DUP2 AND SWAP1 DUP3 AND LT JUMPDEST PUSH2 0x1835 JUMPI PUSH1 0x40 MLOAD PUSH3 0x461BCD PUSH1 0xE5 SHL DUP2 MSTORE PUSH1 0x4 ADD PUSH2 0x7D8 SWAP1 PUSH2 0x5CE6 JUMP JUMPDEST PUSH1 0x1 PUSH1 0x1 PUSH1 0x80 SHL SUB DUP1 DUP4 AND PUSH0 SWAP1 DUP2 MSTORE PUSH1 0x5 PUSH1 0x20 SWAP1 DUP2 MSTORE PUSH1 0x40 DUP1 DUP4 KECCAK256 DUP6 DUP6 AND DUP5 MSTORE SWAP1 SWAP2 MSTORE DUP2 KECCAK256 SLOAD SWAP1 SWAP2 AND SWAP1 SUB PUSH2 0x187C JUMPI PUSH1 0x40 MLOAD PUSH3 0x461BCD PUSH1 0xE5 SHL DUP2 MSTORE PUSH1 0x4 ADD PUSH2 0x7D8 SWAP1 PUSH2 0x5D14 JUMP JUMPDEST PUSH1 0x1 PUSH1 0x1 PUSH1 0x80 SHL SUB DUP1 DUP7 AND PUSH0 SWAP1 DUP2 MSTORE PUSH1 0x5 PUSH1 0x20 SWAP1 DUP2 MSTORE PUSH1 0x40 DUP1 DUP4 KECCAK256 SWAP4 DUP9 AND DUP4 MSTORE SWAP3 SWAP1 MSTORE SWAP1 DUP2 KECCAK256 DUP2 DUP2 SSTORE SWAP1 PUSH2 0x18B3 PUSH1 0x1 DUP4 ADD DUP3 PUSH2 0x4F35 JUMP JUMPDEST PUSH1 0x2 DUP3 ADD DUP1 SLOAD PUSH1 0x1 PUSH1 0x1 PUSH1 0x88 SHL SUB NOT AND SWAP1 SSTORE PUSH2 0x18D2 PUSH1 0x3 DUP4 ADD PUSH0 PUSH2 0x4F35 JUMP JUMPDEST PUSH2 0x18DF PUSH1 0x4 DUP4 ADD PUSH0 PUSH2 0x4F35 JUMP JUMPDEST POP PUSH0 PUSH1 0x5 SWAP2 SWAP1 SWAP2 ADD SSTORE PUSH1 0x40 DUP1 MLOAD PUSH1 0x1 PUSH1 0x1 PUSH1 0x80 SHL SUB DUP1 DUP8 AND DUP3 MSTORE DUP8 AND PUSH1 0x20 DUP3 ADD MSTORE PUSH32 0xEF8BE83DBB6F8277052C0376CFFAAF8133437AC2E149A58D953F03D6442D1FDE SWAP2 ADD PUSH1 0x40 MLOAD DUP1 SWAP2 SUB SWAP1 LOG1 POP POP POP POP POP JUMP JUMPDEST PUSH1 0x2 CALLER PUSH0 SWAP1 DUP2 MSTORE PUSH1 0x4 PUSH1 0x20 MSTORE PUSH1 0x40 SWAP1 KECCAK256 SLOAD PUSH1 0xFF AND PUSH1 0x2 DUP2 GT ISZERO PUSH2 0x1957 JUMPI PUSH2 0x1957 PUSH2 0x528B JUMP JUMPDEST EQ PUSH2 0x1974 JUMPI PUSH1 0x40 MLOAD PUSH3 0x461BCD PUSH1 0xE5 SHL DUP2 MSTORE PUSH1 0x4 ADD PUSH2 0x7D8 SWAP1 PUSH2 0x5BDE JUMP JUMPDEST PUSH1 0x1 PUSH1 0x1 PUSH1 0xA0 SHL SUB DUP3 AND PUSH2 0x19BC JUMPI PUSH1 0x40 MLOAD PUSH3 0x461BCD PUSH1 0xE5 SHL DUP2 MSTORE PUSH1 0x20 PUSH1 0x4 DUP3 ADD MSTORE PUSH1 0xF PUSH1 0x24 DUP3 ADD MSTORE PUSH15 0x496E76616C69642061646472657373 PUSH1 0x88 SHL PUSH1 0x44 DUP3 ADD MSTORE PUSH1 0x64 ADD PUSH2 0x7D8 JUMP JUMPDEST PUSH1 0x1 PUSH1 0x1 PUSH1 0xA0 SHL SUB DUP3 AND PUSH0 SWAP1 DUP2 MSTORE PUSH1 0x4 PUSH1 0x20 MSTORE PUSH1 0x40 SWAP1 KECCAK256 DUP1 SLOAD DUP3 SWAP2 SWAP1 PUSH1 0xFF NOT AND PUSH1 0x1 DUP4 PUSH1 0x2 DUP2 GT ISZERO PUSH2 0x19F0 JUMPI PUSH2 0x19F0 PUSH2 0x528B JUMP JUMPDEST MUL OR SWAP1 SSTORE POP PUSH1 0x1 DUP2 PUSH1 0x2 DUP2 GT ISZERO PUSH2 0x1A09 JUMPI PUSH2 0x1A09 PUSH2 0x528B JUMP JUMPDEST EQ PUSH2 0x1A34 JUMPI PUSH1 0x1 PUSH1 0x1 PUSH1 0xA0 SHL SUB DUP3 AND PUSH0 SWAP1 DUP2 MSTORE PUSH1 0xD PUSH1 0x20 MSTORE PUSH1 0x40 SWAP1 KECCAK256 DUP1 SLOAD PUSH1 0x1 PUSH1 0x1 PUSH1 0x80 SHL SUB NOT AND SWAP1 SSTORE JUMPDEST PUSH32 0x4AC36FA53F167CEB85964BE512E01DE2A3B8BDB9862F917DA079DEEEFF689B38 DUP3 DUP3 PUSH1 0x40 MLOAD PUSH2 0x1A65 SWAP3 SWAP2 SWAP1 PUSH2 0x5EB3 JUMP JUMPDEST PUSH1 0x40 MLOAD DUP1 SWAP2 SUB SWAP1 LOG1 POP POP JUMP JUMPDEST PUSH2 0x1A79 PUSH2 0x4EF3 JUMP JUMPDEST PUSH1 0x60 DUP1 DUP4 PUSH0 DUP2 PUSH1 0x1 PUSH1 0x1 PUSH1 0x80 SHL SUB AND GT DUP1 ISZERO PUSH2 0x1AAA JUMPI POP PUSH1 0x2 SLOAD PUSH1 0x1 PUSH1 0x1 PUSH1 0x80 SHL SUB PUSH1 0x1 PUSH1 0x80 SHL SWAP1 SWAP2 DIV DUP2 AND SWAP1 DUP3 AND LT JUMPDEST PUSH2 0x1AC6 JUMPI PUSH1 0x40 MLOAD PUSH3 0x461BCD PUSH1 0xE5 SHL DUP2 MSTORE PUSH1 0x4 ADD PUSH2 0x7D8 SWAP1 PUSH2 0x5C34 JUMP JUMPDEST PUSH1 0x1 PUSH1 0x1 PUSH1 0x80 SHL SUB DUP1 DUP7 AND PUSH0 SWAP1 DUP2 MSTORE PUSH1 0x6 PUSH1 0x20 SWAP1 DUP2 MSTORE PUSH1 0x40 SWAP2 DUP3 SWAP1 KECCAK256 DUP3 MLOAD PUSH2 0x100 DUP2 ADD DUP5 MSTORE DUP2 SLOAD DUP6 AND DUP2 MSTORE PUSH1 0x1 DUP3 ADD SLOAD PUSH1 0x1 PUSH1 0x1 PUSH1 0xA0 SHL SUB AND DUP2 DUP5 ADD MSTORE PUSH1 0x2 DUP3 ADD SLOAD SWAP1 SWAP5 AND DUP5 DUP5 ADD MSTORE PUSH1 0x3 DUP2 ADD DUP1 SLOAD DUP5 MLOAD DUP2 DUP6 MUL DUP2 ADD DUP6 ADD SWAP1 SWAP6 MSTORE DUP1 DUP6 MSTORE SWAP2 SWAP4 PUSH1 0x60 DUP7 ADD SWAP4 SWAP1 SWAP3 SWAP1 DUP4 ADD DUP3 DUP3 DUP1 ISZERO PUSH2 0x1B8C JUMPI PUSH1 0x20 MUL DUP3 ADD SWAP2 SWAP1 PUSH0 MSTORE PUSH1 0x20 PUSH0 KECCAK256 SWAP1 PUSH0 SWAP1 JUMPDEST DUP3 DUP3 SWAP1 SLOAD SWAP1 PUSH2 0x100 EXP SWAP1 DIV PUSH1 0x1 PUSH1 0x1 PUSH1 0x80 SHL SUB AND PUSH1 0x1 PUSH1 0x1 PUSH1 0x80 SHL SUB AND DUP2 MSTORE PUSH1 0x20 ADD SWAP1 PUSH1 0x10 ADD SWAP1 PUSH1 0x20 DUP3 PUSH1 0xF ADD DIV SWAP3 DUP4 ADD SWAP3 PUSH1 0x1 SUB DUP3 MUL SWAP2 POP DUP1 DUP5 GT PUSH2 0x1B49 JUMPI SWAP1 POP JUMPDEST POP POP POP POP POP DUP2 MSTORE PUSH1 0x20 ADD PUSH1 0x4 DUP3 ADD DUP1 SLOAD DUP1 PUSH1 0x20 MUL PUSH1 0x20 ADD PUSH1 0x40 MLOAD SWAP1 DUP2 ADD PUSH1 0x40 MSTORE DUP1 SWAP3 SWAP2 SWAP1 DUP2 DUP2 MSTORE PUSH1 0x20 ADD DUP3 DUP1 SLOAD DUP1 ISZERO PUSH2 0x1C13 JUMPI PUSH1 0x20 MUL DUP3 ADD SWAP2 SWAP1 PUSH0 MSTORE PUSH1 0x20 PUSH0 KECCAK256 SWAP1 PUSH0 SWAP1 JUMPDEST DUP3 DUP3 SWAP1 SLOAD SWAP1 PUSH2 0x100 EXP SWAP1 DIV PUSH1 0x1 PUSH1 0x1 PUSH1 0x80 SHL SUB AND PUSH1 0x1 PUSH1 0x1 PUSH1 0x80 SHL SUB AND DUP2 MSTORE PUSH1 0x20 ADD SWAP1 PUSH1 0x10 ADD SWAP1 PUSH1 0x20 DUP3 PUSH1 0xF ADD DIV SWAP3 DUP4 ADD SWAP3 PUSH1 0x1 SUB DUP3 MUL SWAP2 POP DUP1 DUP5 GT PUSH2 0x1BD0 JUMPI SWAP1 POP JUMPDEST POP POP POP SWAP2 DUP4 MSTORE POP POP PUSH1 0x5 DUP3 DUP2 ADD SLOAD PUSH1 0x1 PUSH1 0x1 PUSH1 0x80 SHL SUB DUP2 AND PUSH1 0x20 DUP5 ADD MSTORE PUSH1 0x40 SWAP1 SWAP3 ADD SWAP2 PUSH1 0x1 PUSH1 0x80 SHL SWAP1 DIV PUSH1 0xFF AND SWAP1 DUP2 GT ISZERO PUSH2 0x1C50 JUMPI PUSH2 0x1C50 PUSH2 0x528B JUMP JUMPDEST PUSH1 0x5 DUP2 GT ISZERO PUSH2 0x1C61 JUMPI PUSH2 0x1C61 PUSH2 0x528B JUMP JUMPDEST DUP2 MSTORE PUSH1 0x6 SWAP2 SWAP1 SWAP2 ADD SLOAD PUSH1 0x1 PUSH1 0x1 PUSH1 0x80 SHL SUB AND PUSH1 0x20 SWAP1 SWAP2 ADD MSTORE PUSH1 0x60 DUP2 ADD MLOAD MLOAD SWAP1 SWAP5 POP PUSH1 0x1 PUSH1 0x1 PUSH1 0x40 SHL SUB DUP2 GT ISZERO PUSH2 0x1C99 JUMPI PUSH2 0x1C99 PUSH2 0x509D JUMP JUMPDEST PUSH1 0x40 MLOAD SWAP1 DUP1 DUP3 MSTORE DUP1 PUSH1 0x20 MUL PUSH1 0x20 ADD DUP3 ADD PUSH1 0x40 MSTORE DUP1 ISZERO PUSH2 0x1CD2 JUMPI DUP2 PUSH1 0x20 ADD JUMPDEST PUSH2 0x1CBF PUSH2 0x4F6C JUMP JUMPDEST DUP2 MSTORE PUSH1 0x20 ADD SWAP1 PUSH1 0x1 SWAP1 SUB SWAP1 DUP2 PUSH2 0x1CB7 JUMPI SWAP1 POP JUMPDEST POP PUSH1 0x80 DUP6 ADD MLOAD SWAP1 SWAP4 POP SWAP2 POP PUSH0 JUMPDEST DUP5 PUSH1 0x60 ADD MLOAD MLOAD DUP2 LT ISZERO PUSH2 0x1F92 JUMPI PUSH1 0x40 DUP1 DUP7 ADD MLOAD PUSH1 0x1 PUSH1 0x1 PUSH1 0x80 SHL SUB AND PUSH0 SWAP1 DUP2 MSTORE PUSH1 0x5 PUSH1 0x20 MSTORE SWAP1 DUP2 KECCAK256 PUSH1 0x60 DUP8 ADD MLOAD DUP1 MLOAD SWAP2 SWAP3 SWAP2 DUP5 SWAP1 DUP2 LT PUSH2 0x1D21 JUMPI PUSH2 0x1D21 PUSH2 0x5AC2 JUMP JUMPDEST PUSH1 0x20 SWAP1 DUP2 MUL SWAP2 SWAP1 SWAP2 ADD DUP2 ADD MLOAD PUSH1 0x1 PUSH1 0x1 PUSH1 0x80 SHL SUB SWAP1 DUP2 AND DUP4 MSTORE DUP3 DUP3 ADD SWAP4 SWAP1 SWAP4 MSTORE PUSH1 0x40 SWAP2 DUP3 ADD PUSH0 KECCAK256 DUP3 MLOAD PUSH2 0x120 DUP2 ADD DUP5 MSTORE DUP2 SLOAD DUP1 DUP7 AND DUP3 MSTORE PUSH1 0x1 PUSH1 0x80 SHL SWAP1 DIV SWAP1 SWAP5 AND SWAP2 DUP5 ADD SWAP2 SWAP1 SWAP2 MSTORE PUSH1 0x1 DUP2 ADD DUP1 SLOAD SWAP2 SWAP3 DUP5 ADD SWAP2 PUSH2 0x1D7D SWAP1 PUSH2 0x5AD6 JUMP JUMPDEST DUP1 PUSH1 0x1F ADD PUSH1 0x20 DUP1 SWAP2 DIV MUL PUSH1 0x20 ADD PUSH1 0x40 MLOAD SWAP1 DUP2 ADD PUSH1 0x40 MSTORE DUP1 SWAP3 SWAP2 SWAP1 DUP2 DUP2 MSTORE PUSH1 0x20 ADD DUP3 DUP1 SLOAD PUSH2 0x1DA9 SWAP1 PUSH2 0x5AD6 JUMP JUMPDEST DUP1 ISZERO PUSH2 0x1DF4 JUMPI DUP1 PUSH1 0x1F LT PUSH2 0x1DCB JUMPI PUSH2 0x100 DUP1 DUP4 SLOAD DIV MUL DUP4 MSTORE SWAP2 PUSH1 0x20 ADD SWAP2 PUSH2 0x1DF4 JUMP JUMPDEST DUP3 ADD SWAP2 SWAP1 PUSH0 MSTORE PUSH1 0x20 PUSH0 KECCAK256 SWAP1 JUMPDEST DUP2 SLOAD DUP2 MSTORE SWAP1 PUSH1 0x1 ADD SWAP1 PUSH1 0x20 ADD DUP1 DUP4 GT PUSH2 0x1DD7 JUMPI DUP3 SWAP1 SUB PUSH1 0x1F AND DUP3 ADD SWAP2 JUMPDEST POP POP POP SWAP2 DUP4 MSTORE POP POP PUSH1 0x2 DUP3 ADD SLOAD PUSH1 0x1 PUSH1 0x1 PUSH1 0x80 SHL SUB DUP2 AND PUSH1 0x20 DUP4 ADD MSTORE PUSH1 0x1 PUSH1 0x80 SHL SWAP1 DIV PUSH1 0xFF AND ISZERO ISZERO PUSH1 0x40 DUP3 ADD MSTORE PUSH1 0x3 DUP3 ADD DUP1 SLOAD PUSH1 0x60 SWAP1 SWAP3 ADD SWAP2 PUSH2 0x1E36 SWAP1 PUSH2 0x5AD6 JUMP JUMPDEST DUP1 PUSH1 0x1F ADD PUSH1 0x20 DUP1 SWAP2 DIV MUL PUSH1 0x20 ADD PUSH1 0x40 MLOAD SWAP1 DUP2 ADD PUSH1 0x40 MSTORE DUP1 SWAP3 SWAP2 SWAP1 DUP2 DUP2 MSTORE PUSH1 0x20 ADD DUP3 DUP1 SLOAD PUSH2 0x1E62 SWAP1 PUSH2 0x5AD6 JUMP JUMPDEST DUP1 ISZERO PUSH2 0x1EAD JUMPI DUP1 PUSH1 0x1F LT PUSH2 0x1E84 JUMPI PUSH2 0x100 DUP1 DUP4 SLOAD DIV MUL DUP4 MSTORE SWAP2 PUSH1 0x20 ADD SWAP2 PUSH2 0x1EAD JUMP JUMPDEST DUP3 ADD SWAP2 SWAP1 PUSH0 MSTORE PUSH1 0x20 PUSH0 KECCAK256 SWAP1 JUMPDEST DUP2 SLOAD DUP2 MSTORE SWAP1 PUSH1 0x1 ADD SWAP1 PUSH1 0x20 ADD DUP1 DUP4 GT PUSH2 0x1E90 JUMPI DUP3 SWAP1 SUB PUSH1 0x1F AND DUP3 ADD SWAP2 JUMPDEST POP POP POP POP POP DUP2 MSTORE PUSH1 0x20 ADD PUSH1 0x4 DUP3 ADD DUP1 SLOAD PUSH2 0x1EC6 SWAP1 PUSH2 0x5AD6 JUMP JUMPDEST DUP1 PUSH1 0x1F ADD PUSH1 0x20 DUP1 SWAP2 DIV MUL PUSH1 0x20 ADD PUSH1 0x40 MLOAD SWAP1 DUP2 ADD PUSH1 0x40 MSTORE DUP1 SWAP3 SWAP2 SWAP1 DUP2 DUP2 MSTORE PUSH1 0x20 ADD DUP3 DUP1 SLOAD PUSH2 0x1EF2 SWAP1 PUSH2 0x5AD6 JUMP JUMPDEST DUP1 ISZERO PUSH2 0x1F3D JUMPI DUP1 PUSH1 0x1F LT PUSH2 0x1F14 JUMPI PUSH2 0x100 DUP1 DUP4 SLOAD DIV MUL DUP4 MSTORE SWAP2 PUSH1 0x20 ADD SWAP2 PUSH2 0x1F3D JUMP JUMPDEST DUP3 ADD SWAP2 SWAP1 PUSH0 MSTORE PUSH1 0x20 PUSH0 KECCAK256 SWAP1 JUMPDEST DUP2 SLOAD DUP2 MSTORE SWAP1 PUSH1 0x1 ADD SWAP1 PUSH1 0x20 ADD DUP1 DUP4 GT PUSH2 0x1F20 JUMPI DUP3 SWAP1 SUB PUSH1 0x1F AND DUP3 ADD SWAP2 JUMPDEST POP POP POP SWAP2 DUP4 MSTORE POP POP PUSH1 0x5 SWAP2 SWAP1 SWAP2 ADD SLOAD PUSH1 0x1 PUSH1 0x1 PUSH1 0x80 SHL SUB DUP1 DUP3 AND PUSH1 0x20 DUP5 ADD MSTORE PUSH1 0x1 PUSH1 0x80 SHL SWAP1 SWAP2 DIV AND PUSH1 0x40 SWAP1 SWAP2 ADD MSTORE DUP5 MLOAD DUP6 SWAP1 DUP4 SWAP1 DUP2 LT PUSH2 0x1F7F JUMPI PUSH2 0x1F7F PUSH2 0x5AC2 JUMP JUMPDEST PUSH1 0x20 SWAP1 DUP2 MUL SWAP2 SWAP1 SWAP2 ADD ADD MSTORE PUSH1 0x1 ADD PUSH2 0x1CDF JUMP JUMPDEST POP POP SWAP2 SWAP4 SWAP1 SWAP3 POP JUMP JUMPDEST PUSH2 0x1FA3 PUSH2 0x4DBA JUMP JUMPDEST PUSH2 0x1FAC PUSH0 PUSH2 0x4DE7 JUMP JUMPDEST JUMP JUMPDEST PUSH0 DUP3 DUP3 PUSH0 DUP2 PUSH1 0x1 PUSH1 0x1 PUSH1 0x80 SHL SUB AND GT DUP1 ISZERO PUSH2 0x1FD7 JUMPI POP PUSH1 0x2 SLOAD PUSH1 0x1 PUSH1 0x1 PUSH1 0x80 SHL SUB SWAP1 DUP2 AND SWAP1 DUP3 AND LT JUMPDEST PUSH2 0x1FF3 JUMPI PUSH1 0x40 MLOAD PUSH3 0x461BCD PUSH1 0xE5 SHL DUP2 MSTORE PUSH1 0x4 ADD PUSH2 0x7D8 SWAP1 PUSH2 0x5CE6 JUMP JUMPDEST PUSH1 0x1 PUSH1 0x1 PUSH1 0x80 SHL SUB DUP1 DUP4 AND PUSH0 SWAP1 DUP2 MSTORE PUSH1 0x5 PUSH1 0x20 SWAP1 DUP2 MSTORE PUSH1 0x40 DUP1 DUP4 KECCAK256 DUP6 DUP6 AND DUP5 MSTORE SWAP1 SWAP2 MSTORE DUP2 KECCAK256 SLOAD SWAP1 SWAP2 AND SWAP1 SUB PUSH2 0x203A JUMPI PUSH1 0x40 MLOAD PUSH3 0x461BCD PUSH1 0xE5 SHL DUP2 MSTORE PUSH1 0x4 ADD PUSH2 0x7D8 SWAP1 PUSH2 0x5D14 JUMP JUMPDEST PUSH1 0x1 PUSH1 0x1 PUSH1 0x80 SHL SUB DUP1 DUP7 AND PUSH0 SWAP1 DUP2 MSTORE PUSH1 0x5 PUSH1 0x20 DUP2 DUP2 MSTORE PUSH1 0x40 DUP1 DUP5 KECCAK256 DUP10 DUP7 AND DUP6 MSTORE SWAP1 SWAP2 MSTORE DUP3 KECCAK256 SWAP1 DUP2 ADD SLOAD SWAP1 SWAP3 PUSH1 0x1 PUSH1 0x80 SHL SWAP1 SWAP2 DIV AND SWAP1 SUB PUSH2 0x207D JUMPI PUSH0 SWAP4 POP POP PUSH2 0x20A2 JUMP JUMPDEST PUSH1 0x5 DUP2 ADD SLOAD PUSH2 0x209E SWAP1 PUSH1 0x1 PUSH1 0x1 PUSH1 0x80 SHL SUB PUSH1 0x1 PUSH1 0x80 SHL DUP3 DIV DUP2 AND SWAP2 AND PUSH2 0x5BA5 JUMP JUMPDEST SWAP4 POP POP JUMPDEST POP POP SWAP3 SWAP2 POP POP JUMP JUMPDEST PUSH1 0x2 CALLER PUSH0 SWAP1 DUP2 MSTORE PUSH1 0x4 PUSH1 0x20 MSTORE PUSH1 0x40 SWAP1 KECCAK256 SLOAD PUSH1 0xFF AND PUSH1 0x2 DUP2 GT ISZERO PUSH2 0x20CF JUMPI PUSH2 0x20CF PUSH2 0x528B JUMP JUMPDEST EQ DUP1 PUSH2 0x20FB JUMPI POP CALLER PUSH0 SWAP1 DUP2 MSTORE PUSH1 0x4 PUSH1 0x20 MSTORE PUSH1 0x40 DUP2 KECCAK256 SLOAD PUSH1 0xFF AND PUSH1 0x2 DUP2 GT ISZERO PUSH2 0x20F9 JUMPI PUSH2 0x20F9 PUSH2 0x528B JUMP JUMPDEST EQ JUMPDEST PUSH2 0x2140 JUMPI PUSH1 0x40 MLOAD PUSH3 0x461BCD PUSH1 0xE5 SHL DUP2 MSTORE PUSH1 0x20 PUSH1 0x4 DUP3 ADD MSTORE PUSH1 0x16 PUSH1 0x24 DUP3 ADD MSTORE PUSH22 0x27B7363C9030B236B4B71037B91031BAB9BA37B6B2B9 PUSH1 0x51 SHL PUSH1 0x44 DUP3 ADD MSTORE PUSH1 0x64 ADD PUSH2 0x7D8 JUMP JUMPDEST PUSH2 0x2148 PUSH2 0x4D63 JUMP JUMPDEST PUSH0 DUP3 MLOAD GT DUP1 ISZERO PUSH2 0x2159 JUMPI POP DUP1 MLOAD DUP3 MLOAD EQ JUMPDEST PUSH2 0x2195 JUMPI PUSH1 0x40 MLOAD PUSH3 0x461BCD PUSH1 0xE5 SHL DUP2 MSTORE PUSH1 0x20 PUSH1 0x4 DUP3 ADD MSTORE PUSH1 0xD PUSH1 0x24 DUP3 ADD MSTORE PUSH13 0x125B9D985B1A59081A5B9C1D5D PUSH1 0x9A SHL PUSH1 0x44 DUP3 ADD MSTORE PUSH1 0x64 ADD PUSH2 0x7D8 JUMP JUMPDEST PUSH1 0x1 PUSH1 0x1 PUSH1 0x80 SHL SUB DUP4 AND PUSH0 SWAP1 DUP2 MSTORE PUSH1 0xC PUSH1 0x20 MSTORE PUSH1 0x40 SWAP1 KECCAK256 SLOAD PUSH1 0x1 PUSH1 0x1 PUSH1 0xA0 SHL SUB AND PUSH2 0x21D2 JUMPI PUSH1 0x40 MLOAD PUSH3 0x461BCD PUSH1 0xE5 SHL DUP2 MSTORE PUSH1 0x4 ADD PUSH2 0x7D8 SWAP1 PUSH2 0x5A8B JUMP JUMPDEST PUSH0 DUP1 JUMPDEST DUP4 MLOAD DUP2 LT ISZERO PUSH2 0x23A2 JUMPI PUSH1 0x1 PUSH1 0x1 PUSH1 0x80 SHL SUB DUP6 AND PUSH0 SWAP1 DUP2 MSTORE PUSH1 0x5 PUSH1 0x20 MSTORE PUSH1 0x40 DUP2 KECCAK256 DUP6 MLOAD DUP3 SWAP1 DUP8 SWAP1 DUP6 SWAP1 DUP2 LT PUSH2 0x220B JUMPI PUSH2 0x220B PUSH2 0x5AC2 JUMP JUMPDEST PUSH1 0x20 MUL PUSH1 0x20 ADD ADD MLOAD PUSH1 0x1 PUSH1 0x1 PUSH1 0x80 SHL SUB AND PUSH1 0x1 PUSH1 0x1 PUSH1 0x80 SHL SUB AND DUP2 MSTORE PUSH1 0x20 ADD SWAP1 DUP2 MSTORE PUSH1 0x20 ADD PUSH0 KECCAK256 SWAP1 POP DUP1 PUSH1 0x2 ADD PUSH1 0x10 SWAP1 SLOAD SWAP1 PUSH2 0x100 EXP SWAP1 DIV PUSH1 0xFF AND PUSH2 0x2285 JUMPI PUSH1 0x40 MLOAD PUSH3 0x461BCD PUSH1 0xE5 SHL DUP2 MSTORE PUSH1 0x20 PUSH1 0x4 DUP3 ADD MSTORE PUSH1 0x10 PUSH1 0x24 DUP3 ADD MSTORE PUSH16 0x4974656D20756E617661696C61626C65 PUSH1 0x80 SHL PUSH1 0x44 DUP3 ADD MSTORE PUSH1 0x64 ADD PUSH2 0x7D8 JUMP JUMPDEST DUP1 SLOAD PUSH1 0x1 PUSH1 0x1 PUSH1 0x80 SHL SUB DUP8 DUP2 AND PUSH1 0x1 PUSH1 0x80 SHL SWAP1 SWAP3 DIV AND EQ PUSH2 0x22B8 JUMPI PUSH1 0x40 MLOAD PUSH3 0x461BCD PUSH1 0xE5 SHL DUP2 MSTORE PUSH1 0x4 ADD PUSH2 0x7D8 SWAP1 PUSH2 0x5B0E JUMP JUMPDEST DUP4 DUP3 DUP2 MLOAD DUP2 LT PUSH2 0x22CA JUMPI PUSH2 0x22CA PUSH2 0x5AC2 JUMP JUMPDEST PUSH1 0x20 SWAP1 DUP2 MUL SWAP2 SWAP1 SWAP2 ADD ADD MLOAD PUSH1 0x2 DUP3 ADD SLOAD PUSH2 0x22ED SWAP2 SWAP1 PUSH1 0x1 PUSH1 0x1 PUSH1 0x80 SHL SUB AND PUSH2 0x5B64 JUMP JUMPDEST PUSH2 0x22F7 SWAP1 DUP5 PUSH2 0x5B86 JUMP JUMPDEST SWAP3 POP DUP4 DUP3 DUP2 MLOAD DUP2 LT PUSH2 0x230B JUMPI PUSH2 0x230B PUSH2 0x5AC2 JUMP JUMPDEST PUSH1 0x20 MUL PUSH1 0x20 ADD ADD MLOAD PUSH1 0xA PUSH0 PUSH1 0x2 PUSH1 0x10 SWAP1 SLOAD SWAP1 PUSH2 0x100 EXP SWAP1 DIV PUSH1 0x1 PUSH1 0x1 PUSH1 0x80 SHL SUB AND PUSH1 0x1 PUSH1 0x1 PUSH1 0x80 SHL SUB AND PUSH1 0x1 PUSH1 0x1 PUSH1 0x80 SHL SUB AND DUP2 MSTORE PUSH1 0x20 ADD SWAP1 DUP2 MSTORE PUSH1 0x20 ADD PUSH0 KECCAK256 PUSH0 DUP8 DUP6 DUP2 MLOAD DUP2 LT PUSH2 0x235E JUMPI PUSH2 0x235E PUSH2 0x5AC2 JUMP JUMPDEST PUSH1 0x20 SWAP1 DUP2 MUL SWAP2 SWAP1 SWAP2 ADD DUP2 ADD MLOAD PUSH1 0x1 PUSH1 0x1 PUSH1 0x80 SHL SUB SWAP1 DUP2 AND DUP4 MSTORE SWAP1 DUP3 ADD SWAP3 SWAP1 SWAP3 MSTORE PUSH1 0x40 ADD PUSH0 KECCAK256 DUP1 SLOAD PUSH1 0x1 PUSH1 0x1 PUSH1 0x80 SHL SUB NOT AND SWAP3 SWAP1 SWAP2 AND SWAP2 SWAP1 SWAP2 OR SWAP1 SSTORE POP PUSH1 0x1 ADD PUSH2 0x21D5 JUMP JUMPDEST POP PUSH1 0x3 SLOAD PUSH0 SWAP1 PUSH1 0x64 SWAP1 PUSH2 0x23BF SWAP1 PUSH1 0x1 PUSH1 0x80 SHL SWAP1 DIV PUSH1 0xFF AND DUP5 PUSH2 0x5B64 JUMP JUMPDEST PUSH2 0x23C9 SWAP2 SWAP1 PUSH2 0x5BA5 JUMP JUMPDEST SWAP1 POP PUSH0 PUSH2 0x23D6 DUP3 DUP5 PUSH2 0x5B86 JUMP JUMPDEST SWAP1 POP DUP1 PUSH1 0x1 PUSH1 0x1 PUSH1 0x80 SHL SUB AND CALLVALUE LT ISZERO PUSH2 0x2428 JUMPI PUSH1 0x40 MLOAD PUSH3 0x461BCD PUSH1 0xE5 SHL DUP2 MSTORE PUSH1 0x20 PUSH1 0x4 DUP3 ADD MSTORE PUSH1 0x14 PUSH1 0x24 DUP3 ADD MSTORE PUSH20 0x125B9CDD59999A58DA595B9D081C185E5B595B9D PUSH1 0x62 SHL PUSH1 0x44 DUP3 ADD MSTORE PUSH1 0x64 ADD PUSH2 0x7D8 JUMP JUMPDEST DUP1 PUSH1 0x1 PUSH1 0x1 PUSH1 0x80 SHL SUB AND CALLVALUE GT ISZERO PUSH2 0x2456 JUMPI PUSH2 0x2456 PUSH2 0x244F PUSH1 0x1 PUSH1 0x1 PUSH1 0x80 SHL SUB DUP4 AND CALLVALUE PUSH2 0x5ED0 JUMP JUMPDEST CALLER SWAP1 PUSH2 0x4E38 JUMP JUMPDEST PUSH1 0x40 DUP1 MLOAD PUSH2 0x100 DUP2 ADD DUP3 MSTORE PUSH1 0x2 DUP1 SLOAD PUSH1 0x1 PUSH1 0x1 PUSH1 0x80 SHL SUB PUSH1 0x1 PUSH1 0x80 SHL SWAP1 SWAP2 DIV DUP2 AND DUP1 DUP5 MSTORE CALLER PUSH1 0x20 DUP1 DUP7 ADD SWAP2 DUP3 MSTORE DUP13 DUP5 AND DUP7 DUP9 ADD SWAP1 DUP2 MSTORE PUSH1 0x60 DUP8 ADD DUP14 DUP2 MSTORE PUSH1 0x80 DUP9 ADD DUP14 SWAP1 MSTORE DUP12 DUP7 AND PUSH1 0xA0 DUP10 ADD MSTORE PUSH0 PUSH1 0xC0 DUP10 ADD DUP2 SWAP1 MSTORE TIMESTAMP DUP8 AND PUSH1 0xE0 DUP11 ADD MSTORE SWAP5 DUP6 MSTORE PUSH1 0x6 DUP4 MSTORE SWAP8 SWAP1 SWAP4 KECCAK256 DUP7 MLOAD DUP2 SLOAD SWAP1 DUP7 AND PUSH1 0x1 PUSH1 0x1 PUSH1 0x80 SHL SUB NOT SWAP2 DUP3 AND OR DUP3 SSTORE SWAP3 MLOAD PUSH1 0x1 DUP3 ADD DUP1 SLOAD PUSH1 0x1 PUSH1 0x1 PUSH1 0xA0 SHL SUB SWAP1 SWAP3 AND PUSH1 0x1 PUSH1 0x1 PUSH1 0xA0 SHL SUB NOT SWAP1 SWAP3 AND SWAP2 SWAP1 SWAP2 OR SWAP1 SSTORE SWAP3 MLOAD SWAP5 DUP4 ADD DUP1 SLOAD SWAP6 SWAP1 SWAP5 AND SWAP5 SWAP1 SWAP2 AND SWAP4 SWAP1 SWAP4 OR SWAP1 SWAP2 SSTORE SWAP3 MLOAD DUP1 MLOAD SWAP3 SWAP4 SWAP3 PUSH2 0x2525 SWAP3 PUSH1 0x3 DUP6 ADD SWAP3 ADD SWAP1 PUSH2 0x4FB9 JUMP JUMPDEST POP PUSH1 0x80 DUP3 ADD MLOAD DUP1 MLOAD PUSH2 0x2541 SWAP2 PUSH1 0x4 DUP5 ADD SWAP2 PUSH1 0x20 SWAP1 SWAP2 ADD SWAP1 PUSH2 0x4FB9 JUMP JUMPDEST POP PUSH1 0xA0 DUP3 ADD MLOAD PUSH1 0x5 DUP1 DUP4 ADD DUP1 SLOAD PUSH1 0x1 PUSH1 0x1 PUSH1 0x80 SHL SUB SWAP1 SWAP4 AND PUSH1 0x1 PUSH1 0x1 PUSH1 0x80 SHL SUB NOT DUP5 AND DUP2 OR DUP3 SSTORE PUSH1 0xC0 DUP7 ADD MLOAD SWAP4 SWAP2 SWAP3 PUSH1 0x1 PUSH1 0x1 PUSH1 0x88 SHL SUB NOT SWAP1 SWAP3 AND OR SWAP1 PUSH1 0x1 PUSH1 0x80 SHL SWAP1 DUP5 SWAP1 DUP2 GT ISZERO PUSH2 0x2595 JUMPI PUSH2 0x2595 PUSH2 0x528B JUMP JUMPDEST MUL OR SWAP1 SSTORE POP PUSH1 0xE0 SWAP2 SWAP1 SWAP2 ADD MLOAD PUSH1 0x6 SWAP1 SWAP2 ADD DUP1 SLOAD PUSH1 0x1 PUSH1 0x1 PUSH1 0x80 SHL SUB SWAP3 DUP4 AND PUSH1 0x1 PUSH1 0x1 PUSH1 0x80 SHL SUB NOT SWAP1 SWAP2 AND OR SWAP1 SSTORE CALLER PUSH0 SWAP1 DUP2 MSTORE PUSH1 0x8 PUSH1 0x20 SWAP1 DUP2 MSTORE PUSH1 0x40 DUP3 KECCAK256 PUSH1 0x2 DUP1 SLOAD DUP3 SLOAD PUSH1 0x1 DUP2 DUP2 ADD DUP6 SSTORE SWAP4 DUP7 MSTORE SWAP4 DUP6 KECCAK256 SWAP2 DUP5 DIV SWAP1 SWAP2 ADD DUP1 SLOAD SWAP4 SWAP1 SWAP3 AND PUSH1 0x10 MUL PUSH2 0x100 EXP PUSH1 0x1 PUSH1 0x80 SHL SWAP1 SWAP2 DIV DUP6 AND DUP2 MUL SWAP5 MUL NOT SWAP1 SWAP2 AND SWAP3 SWAP1 SWAP3 OR SWAP1 SWAP2 SSTORE DUP3 SWAP1 PUSH1 0x7 SWAP1 PUSH2 0x2628 PUSH1 0x1 SLOAD PUSH1 0x1 PUSH1 0x1 PUSH1 0xA0 SHL SUB AND SWAP1 JUMP JUMPDEST PUSH1 0x1 PUSH1 0x1 PUSH1 0xA0 SHL SUB AND DUP2 MSTORE PUSH1 0x20 DUP2 ADD SWAP2 SWAP1 SWAP2 MSTORE PUSH1 0x40 ADD PUSH0 SWAP1 DUP2 KECCAK256 DUP1 SLOAD SWAP1 SWAP2 SWAP1 PUSH2 0x265B SWAP1 DUP5 SWAP1 PUSH1 0x1 PUSH1 0x1 PUSH1 0x80 SHL SUB AND PUSH2 0x5B86 JUMP JUMPDEST DUP3 SLOAD PUSH2 0x100 SWAP3 SWAP1 SWAP3 EXP PUSH1 0x1 PUSH1 0x1 PUSH1 0x80 SHL SUB DUP2 DUP2 MUL NOT SWAP1 SWAP4 AND SWAP2 DUP4 AND MUL OR SWAP1 SWAP2 SSTORE PUSH1 0x2 SLOAD PUSH1 0x40 DUP1 MLOAD PUSH1 0x1 PUSH1 0x80 SHL SWAP1 SWAP3 DIV DUP4 AND DUP3 MSTORE CALLER PUSH1 0x20 DUP4 ADD MSTORE SWAP2 DUP7 AND SWAP2 DUP2 ADD SWAP2 SWAP1 SWAP2 MSTORE PUSH32 0x705F23A83CF14E64BD1C38A913E0C43E880BBBF23A0DD3716EEACFB634CA814B SWAP2 POP PUSH1 0x60 ADD PUSH1 0x40 MLOAD DUP1 SWAP2 SUB SWAP1 LOG1 PUSH1 0x2 DUP1 SLOAD PUSH1 0x1 PUSH1 0x80 SHL SWAP1 DIV PUSH1 0x1 PUSH1 0x1 PUSH1 0x80 SHL SUB AND SWAP1 PUSH1 0x10 PUSH2 0x26EC DUP4 PUSH2 0x5E89 JUMP JUMPDEST SWAP2 SWAP1 PUSH2 0x100 EXP DUP2 SLOAD DUP2 PUSH1 0x1 PUSH1 0x1 PUSH1 0x80 SHL SUB MUL NOT AND SWAP1 DUP4 PUSH1 0x1 PUSH1 0x1 PUSH1 0x80 SHL SUB AND MUL OR SWAP1 SSTORE POP POP POP POP POP PUSH2 0x271D PUSH1 0x1 PUSH0 SSTORE JUMP JUMPDEST POP POP POP JUMP JUMPDEST PUSH1 0x1 PUSH1 0x1 PUSH1 0x80 SHL SUB DUP2 AND PUSH0 SWAP1 DUP2 MSTORE PUSH1 0xC PUSH1 0x20 MSTORE PUSH1 0x40 SWAP1 KECCAK256 SLOAD DUP2 SWAP1 PUSH1 0x1 PUSH1 0x1 PUSH1 0xA0 SHL SUB AND CALLER EQ PUSH2 0x278A JUMPI PUSH1 0x40 MLOAD PUSH3 0x461BCD PUSH1 0xE5 SHL DUP2 MSTORE PUSH1 0x20 PUSH1 0x4 DUP3 ADD MSTORE PUSH1 0x14 PUSH1 0x24 DUP3 ADD MSTORE PUSH20 0x2737BA103932B9BA30BAB930B73A1037BBB732B9 PUSH1 0x61 SHL PUSH1 0x44 DUP3 ADD MSTORE PUSH1 0x64 ADD PUSH2 0x7D8 JUMP JUMPDEST PUSH1 0x1 PUSH1 0x1 PUSH1 0xA0 SHL SUB DUP4 AND PUSH2 0x27D2 JUMPI PUSH1 0x40 MLOAD PUSH3 0x461BCD PUSH1 0xE5 SHL DUP2 MSTORE PUSH1 0x20 PUSH1 0x4 DUP3 ADD MSTORE PUSH1 0xF PUSH1 0x24 DUP3 ADD MSTORE PUSH15 0x496E76616C69642061646472657373 PUSH1 0x88 SHL PUSH1 0x44 DUP3 ADD MSTORE PUSH1 0x64 ADD PUSH2 0x7D8 JUMP JUMPDEST PUSH1 0x1 PUSH1 0x1 PUSH1 0x80 SHL SUB DUP3 AND PUSH0 SWAP1 DUP2 MSTORE PUSH1 0xC PUSH1 0x20 MSTORE PUSH1 0x40 SWAP1 KECCAK256 SLOAD PUSH1 0x1 PUSH1 0x1 PUSH1 0xA0 SHL SUB AND PUSH2 0x280F JUMPI PUSH1 0x40 MLOAD PUSH3 0x461BCD PUSH1 0xE5 SHL DUP2 MSTORE PUSH1 0x4 ADD PUSH2 0x7D8 SWAP1 PUSH2 0x5A8B JUMP JUMPDEST PUSH1 0x1 PUSH1 0x1 PUSH1 0xA0 SHL SUB DUP4 AND PUSH0 SWAP1 DUP2 MSTORE PUSH1 0x4 PUSH1 0x20 SWAP1 DUP2 MSTORE PUSH1 0x40 DUP1 DUP4 KECCAK256 DUP1 SLOAD PUSH1 0xFF NOT AND PUSH1 0x1 OR SWAP1 SSTORE PUSH1 0xD SWAP1 SWAP2 MSTORE SWAP1 DUP2 SWAP1 KECCAK256 DUP1 SLOAD PUSH1 0x1 PUSH1 0x1 PUSH1 0x80 SHL SUB DUP6 AND PUSH1 0x1 PUSH1 0x1 PUSH1 0x80 SHL SUB NOT SWAP1 SWAP2 AND OR SWAP1 SSTORE MLOAD PUSH32 0x69A85D8F30649B59EEB2B4393EA9EB9C9ED001F6974226D94A7FA2DFD562F15B SWAP1 PUSH2 0x2888 SWAP1 DUP6 SWAP1 DUP6 SWAP1 PUSH2 0x5EE3 JUMP JUMPDEST PUSH1 0x40 MLOAD DUP1 SWAP2 SUB SWAP1 LOG1 POP POP POP JUMP JUMPDEST CALLER PUSH0 SWAP1 DUP2 MSTORE PUSH1 0x8 PUSH1 0x20 MSTORE PUSH1 0x40 DUP2 KECCAK256 DUP1 SLOAD PUSH1 0x60 SWAP3 SWAP1 PUSH1 0x1 PUSH1 0x1 PUSH1 0x40 SHL SUB DUP2 GT ISZERO PUSH2 0x28C0 JUMPI PUSH2 0x28C0 PUSH2 0x509D JUMP JUMPDEST PUSH1 0x40 MLOAD SWAP1 DUP1 DUP3 MSTORE DUP1 PUSH1 0x20 MUL PUSH1 0x20 ADD DUP3 ADD PUSH1 0x40 MSTORE DUP1 ISZERO PUSH2 0x28F9 JUMPI DUP2 PUSH1 0x20 ADD JUMPDEST PUSH2 0x28E6 PUSH2 0x4EF3 JUMP JUMPDEST DUP2 MSTORE PUSH1 0x20 ADD SWAP1 PUSH1 0x1 SWAP1 SUB SWAP1 DUP2 PUSH2 0x28DE JUMPI SWAP1 POP JUMPDEST POP SWAP1 POP PUSH0 JUMPDEST DUP3 SLOAD DUP2 LT ISZERO PUSH2 0x2B14 JUMPI PUSH1 0x6 PUSH0 DUP5 DUP4 DUP2 SLOAD DUP2 LT PUSH2 0x291C JUMPI PUSH2 0x291C PUSH2 0x5AC2 JUMP JUMPDEST PUSH0 SWAP2 DUP3 MSTORE PUSH1 0x20 DUP1 DUP4 KECCAK256 PUSH1 0x2 DUP1 DUP5 DIV SWAP1 SWAP2 ADD SLOAD PUSH1 0x1 PUSH1 0x1 PUSH1 0x80 SHL SUB PUSH1 0x10 PUSH1 0x1 SWAP6 DUP7 AND MUL PUSH2 0x100 SWAP1 DUP2 EXP SWAP1 SWAP3 DIV DUP2 AND DUP8 MSTORE DUP7 DUP5 ADD SWAP8 SWAP1 SWAP8 MSTORE PUSH1 0x40 SWAP6 DUP7 ADD SWAP1 SWAP5 KECCAK256 DUP6 MLOAD SWAP5 DUP6 ADD DUP7 MSTORE DUP1 SLOAD DUP8 AND DUP6 MSTORE SWAP3 DUP4 ADD SLOAD PUSH1 0x1 PUSH1 0x1 PUSH1 0xA0 SHL SUB AND DUP5 DUP4 ADD MSTORE DUP3 ADD SLOAD SWAP1 SWAP5 AND DUP3 DUP5 ADD MSTORE PUSH1 0x3 DUP2 ADD DUP1 SLOAD DUP5 MLOAD DUP2 DUP8 MUL DUP2 ADD DUP8 ADD SWAP1 SWAP6 MSTORE DUP1 DUP6 MSTORE SWAP3 SWAP5 SWAP2 SWAP4 PUSH1 0x60 DUP7 ADD SWAP4 SWAP1 SWAP3 DUP4 ADD DUP3 DUP3 DUP1 ISZERO PUSH2 0x2A00 JUMPI PUSH1 0x20 MUL DUP3 ADD SWAP2 SWAP1 PUSH0 MSTORE PUSH1 0x20 PUSH0 KECCAK256 SWAP1 PUSH0 SWAP1 JUMPDEST DUP3 DUP3 SWAP1 SLOAD SWAP1 PUSH2 0x100 EXP SWAP1 DIV PUSH1 0x1 PUSH1 0x1 PUSH1 0x80 SHL SUB AND PUSH1 0x1 PUSH1 0x1 PUSH1 0x80 SHL SUB AND DUP2 MSTORE PUSH1 0x20 ADD SWAP1 PUSH1 0x10 ADD SWAP1 PUSH1 0x20 DUP3 PUSH1 0xF ADD DIV SWAP3 DUP4 ADD SWAP3 PUSH1 0x1 SUB DUP3 MUL SWAP2 POP DUP1 DUP5 GT PUSH2 0x29BD JUMPI SWAP1 POP JUMPDEST POP POP POP POP POP DUP2 MSTORE PUSH1 0x20 ADD PUSH1 0x4 DUP3 ADD DUP1 SLOAD DUP1 PUSH1 0x20 MUL PUSH1 0x20 ADD PUSH1 0x40 MLOAD SWAP1 DUP2 ADD PUSH1 0x40 MSTORE DUP1 SWAP3 SWAP2 SWAP1 DUP2 DUP2 MSTORE PUSH1 0x20 ADD DUP3 DUP1 SLOAD DUP1 ISZERO PUSH2 0x2A87 JUMPI PUSH1 0x20 MUL DUP3 ADD SWAP2 SWAP1 PUSH0 MSTORE PUSH1 0x20 PUSH0 KECCAK256 SWAP1 PUSH0 SWAP1 JUMPDEST DUP3 DUP3 SWAP1 SLOAD SWAP1 PUSH2 0x100 EXP SWAP1 DIV PUSH1 0x1 PUSH1 0x1 PUSH1 0x80 SHL SUB AND PUSH1 0x1 PUSH1 0x1 PUSH1 0x80 SHL SUB AND DUP2 MSTORE PUSH1 0x20 ADD SWAP1 PUSH1 0x10 ADD SWAP1 PUSH1 0x20 DUP3 PUSH1 0xF ADD DIV SWAP3 DUP4 ADD SWAP3 PUSH1 0x1 SUB DUP3 MUL SWAP2 POP DUP1 DUP5 GT PUSH2 0x2A44 JUMPI SWAP1 POP JUMPDEST POP POP POP SWAP2 DUP4 MSTORE POP POP PUSH1 0x5 DUP3 DUP2 ADD SLOAD PUSH1 0x1 PUSH1 0x1 PUSH1 0x80 SHL SUB DUP2 AND PUSH1 0x20 DUP5 ADD MSTORE PUSH1 0x40 SWAP1 SWAP3 ADD SWAP2 PUSH1 0x1 PUSH1 0x80 SHL SWAP1 DIV PUSH1 0xFF AND SWAP1 DUP2 GT ISZERO PUSH2 0x2AC4 JUMPI PUSH2 0x2AC4 PUSH2 0x528B JUMP JUMPDEST PUSH1 0x5 DUP2 GT ISZERO PUSH2 0x2AD5 JUMPI PUSH2 0x2AD5 PUSH2 0x528B JUMP JUMPDEST DUP2 MSTORE PUSH1 0x6 SWAP2 SWAP1 SWAP2 ADD SLOAD PUSH1 0x1 PUSH1 0x1 PUSH1 0x80 SHL SUB AND PUSH1 0x20 SWAP1 SWAP2 ADD MSTORE DUP3 MLOAD DUP4 SWAP1 DUP4 SWAP1 DUP2 LT PUSH2 0x2B01 JUMPI PUSH2 0x2B01 PUSH2 0x5AC2 JUMP JUMPDEST PUSH1 0x20 SWAP1 DUP2 MUL SWAP2 SWAP1 SWAP2 ADD ADD MSTORE PUSH1 0x1 ADD PUSH2 0x28FE JUMP JUMPDEST POP SWAP3 SWAP2 POP POP JUMP JUMPDEST PUSH1 0x2 CALLER PUSH0 SWAP1 DUP2 MSTORE PUSH1 0x4 PUSH1 0x20 MSTORE PUSH1 0x40 SWAP1 KECCAK256 SLOAD PUSH1 0xFF AND PUSH1 0x2 DUP2 GT ISZERO PUSH2 0x2B40 JUMPI PUSH2 0x2B40 PUSH2 0x528B JUMP JUMPDEST EQ PUSH2 0x2B5D JUMPI PUSH1 0x40 MLOAD PUSH3 0x461BCD PUSH1 0xE5 SHL DUP2 MSTORE PUSH1 0x4 ADD PUSH2 0x7D8 SWAP1 PUSH2 0x5BDE JUMP JUMPDEST PUSH2 0x2B65 PUSH2 0x4D63 JUMP JUMPDEST PUSH0 PUSH1 0x7 PUSH0 PUSH2 0x2B7B PUSH1 0x1 SLOAD PUSH1 0x1 PUSH1 0x1 PUSH1 0xA0 SHL SUB AND SWAP1 JUMP JUMPDEST PUSH1 0x1 PUSH1 0x1 PUSH1 0xA0 SHL SUB AND DUP2 MSTORE PUSH1 0x20 DUP2 ADD SWAP2 SWAP1 SWAP2 MSTORE PUSH1 0x40 ADD PUSH0 KECCAK256 SLOAD PUSH1 0x1 PUSH1 0x1 PUSH1 0x80 SHL SUB AND SWAP1 POP DUP1 PUSH2 0x2BE1 JUMPI PUSH1 0x40 MLOAD PUSH3 0x461BCD PUSH1 0xE5 SHL DUP2 MSTORE PUSH1 0x20 PUSH1 0x4 DUP3 ADD MSTORE PUSH1 0x12 PUSH1 0x24 DUP3 ADD MSTORE PUSH18 0x4E6F2066756E647320617661696C61626C65 PUSH1 0x70 SHL PUSH1 0x44 DUP3 ADD MSTORE PUSH1 0x64 ADD PUSH2 0x7D8 JUMP JUMPDEST PUSH0 PUSH1 0x7 PUSH0 PUSH2 0x2BF7 PUSH1 0x1 SLOAD PUSH1 0x1 PUSH1 0x1 PUSH1 0xA0 SHL SUB AND SWAP1 JUMP JUMPDEST PUSH1 0x1 PUSH1 0x1 PUSH1 0xA0 SHL SUB SWAP1 DUP2 AND DUP3 MSTORE PUSH1 0x20 DUP3 ADD SWAP3 SWAP1 SWAP3 MSTORE PUSH1 0x40 ADD PUSH0 KECCAK256 DUP1 SLOAD PUSH1 0x1 PUSH1 0x1 PUSH1 0x80 SHL SUB NOT AND PUSH1 0x1 PUSH1 0x1 PUSH1 0x80 SHL SUB SWAP4 DUP5 AND OR SWAP1 SSTORE PUSH1 0x1 SLOAD PUSH2 0x2C45 SWAP3 DUP5 AND SWAP2 AND PUSH1 0x1 PUSH1 0x1 PUSH1 0xA0 SHL SUB AND SWAP1 PUSH2 0x4E38 JUMP JUMPDEST PUSH32 0x15ED0A7026C7F7B2319E041DA1E43E0B566E892499962BC6B464292EF9D38757 PUSH2 0x2C78 PUSH1 0x1 SLOAD PUSH1 0x1 PUSH1 0x1 PUSH1 0xA0 SHL SUB AND SWAP1 JUMP JUMPDEST DUP3 PUSH1 0x40 MLOAD PUSH2 0x2C87 SWAP3 SWAP2 SWAP1 PUSH2 0x5EE3 JUMP JUMPDEST PUSH1 0x40 MLOAD DUP1 SWAP2 SUB SWAP1 LOG1 POP PUSH2 0x1FAC PUSH1 0x1 PUSH0 SSTORE JUMP JUMPDEST PUSH1 0x60 PUSH0 DUP1 PUSH2 0x2CA8 DUP6 PUSH1 0x1 PUSH2 0x5B86 JUMP JUMPDEST SWAP1 POP JUMPDEST PUSH1 0x2 SLOAD PUSH1 0x1 PUSH1 0x1 PUSH1 0x80 SHL SUB SWAP1 DUP2 AND SWAP1 DUP3 AND GT DUP1 ISZERO SWAP1 PUSH2 0x2CE5 JUMPI POP PUSH2 0x2CCF DUP5 DUP7 PUSH2 0x5B86 JUMP JUMPDEST PUSH1 0x1 PUSH1 0x1 PUSH1 0x80 SHL SUB AND DUP2 PUSH1 0x1 PUSH1 0x1 PUSH1 0x80 SHL SUB AND GT ISZERO JUMPDEST ISZERO PUSH2 0x2D36 JUMPI PUSH1 0x1 PUSH1 0x1 PUSH1 0x80 SHL SUB DUP1 DUP8 AND PUSH0 SWAP1 DUP2 MSTORE PUSH1 0x5 PUSH1 0x20 SWAP1 DUP2 MSTORE PUSH1 0x40 DUP1 DUP4 KECCAK256 DUP6 DUP6 AND DUP5 MSTORE SWAP1 SWAP2 MSTORE SWAP1 KECCAK256 SLOAD AND ISZERO PUSH2 0x2D24 JUMPI DUP2 PUSH2 0x2D20 DUP2 PUSH2 0x5E89 JUMP JUMPDEST SWAP3 POP POP JUMPDEST DUP1 PUSH2 0x2D2E DUP2 PUSH2 0x5E89 JUMP JUMPDEST SWAP2 POP POP PUSH2 0x2CAB JUMP JUMPDEST POP PUSH0 DUP2 PUSH1 0x1 PUSH1 0x1 PUSH1 0x80 SHL SUB AND PUSH1 0x1 PUSH1 0x1 PUSH1 0x40 SHL SUB DUP2 GT ISZERO PUSH2 0x2D59 JUMPI PUSH2 0x2D59 PUSH2 0x509D JUMP JUMPDEST PUSH1 0x40 MLOAD SWAP1 DUP1 DUP3 MSTORE DUP1 PUSH1 0x20 MUL PUSH1 0x20 ADD DUP3 ADD PUSH1 0x40 MSTORE DUP1 ISZERO PUSH2 0x2D92 JUMPI DUP2 PUSH1 0x20 ADD JUMPDEST PUSH2 0x2D7F PUSH2 0x4F6C JUMP JUMPDEST DUP2 MSTORE PUSH1 0x20 ADD SWAP1 PUSH1 0x1 SWAP1 SUB SWAP1 DUP2 PUSH2 0x2D77 JUMPI SWAP1 POP JUMPDEST POP SWAP1 POP PUSH0 DUP1 PUSH2 0x2DA2 DUP8 PUSH1 0x1 PUSH2 0x5B86 JUMP JUMPDEST SWAP1 POP JUMPDEST PUSH1 0x2 SLOAD PUSH1 0x1 PUSH1 0x1 PUSH1 0x80 SHL SUB SWAP1 DUP2 AND SWAP1 DUP3 AND GT DUP1 ISZERO SWAP1 PUSH2 0x2DDF JUMPI POP PUSH2 0x2DC9 DUP7 DUP9 PUSH2 0x5B86 JUMP JUMPDEST PUSH1 0x1 PUSH1 0x1 PUSH1 0x80 SHL SUB AND DUP2 PUSH1 0x1 PUSH1 0x1 PUSH1 0x80 SHL SUB AND GT ISZERO JUMPDEST ISZERO PUSH2 0x309E JUMPI PUSH1 0x1 PUSH1 0x1 PUSH1 0x80 SHL SUB DUP1 DUP10 AND PUSH0 SWAP1 DUP2 MSTORE PUSH1 0x5 PUSH1 0x20 SWAP1 DUP2 MSTORE PUSH1 0x40 DUP1 DUP4 KECCAK256 DUP6 DUP6 AND DUP5 MSTORE SWAP1 SWAP2 MSTORE SWAP1 KECCAK256 SLOAD AND ISZERO PUSH2 0x308C JUMPI PUSH1 0x1 PUSH1 0x1 PUSH1 0x80 SHL SUB DUP1 DUP10 AND PUSH0 SWAP1 DUP2 MSTORE PUSH1 0x5 PUSH1 0x20 SWAP1 DUP2 MSTORE PUSH1 0x40 DUP1 DUP4 KECCAK256 DUP6 DUP6 AND DUP5 MSTORE DUP3 MSTORE SWAP2 DUP3 SWAP1 KECCAK256 DUP3 MLOAD PUSH2 0x120 DUP2 ADD DUP5 MSTORE DUP2 SLOAD DUP1 DUP7 AND DUP3 MSTORE PUSH1 0x1 PUSH1 0x80 SHL SWAP1 DIV SWAP1 SWAP5 AND SWAP2 DUP5 ADD SWAP2 SWAP1 SWAP2 MSTORE PUSH1 0x1 DUP2 ADD DUP1 SLOAD SWAP2 SWAP3 DUP5 ADD SWAP2 PUSH2 0x2E6B SWAP1 PUSH2 0x5AD6 JUMP JUMPDEST DUP1 PUSH1 0x1F ADD PUSH1 0x20 DUP1 SWAP2 DIV MUL PUSH1 0x20 ADD PUSH1 0x40 MLOAD SWAP1 DUP2 ADD PUSH1 0x40 MSTORE DUP1 SWAP3 SWAP2 SWAP1 DUP2 DUP2 MSTORE PUSH1 0x20 ADD DUP3 DUP1 SLOAD PUSH2 0x2E97 SWAP1 PUSH2 0x5AD6 JUMP JUMPDEST DUP1 ISZERO PUSH2 0x2EE2 JUMPI DUP1 PUSH1 0x1F LT PUSH2 0x2EB9 JUMPI PUSH2 0x100 DUP1 DUP4 SLOAD DIV MUL DUP4 MSTORE SWAP2 PUSH1 0x20 ADD SWAP2 PUSH2 0x2EE2 JUMP JUMPDEST DUP3 ADD SWAP2 SWAP1 PUSH0 MSTORE PUSH1 0x20 PUSH0 KECCAK256 SWAP1 JUMPDEST DUP2 SLOAD DUP2 MSTORE SWAP1 PUSH1 0x1 ADD SWAP1 PUSH1 0x20 ADD DUP1 DUP4 GT PUSH2 0x2EC5 JUMPI DUP3 SWAP1 SUB PUSH1 0x1F AND DUP3 ADD SWAP2 JUMPDEST POP POP POP SWAP2 DUP4 MSTORE POP POP PUSH1 0x2 DUP3 ADD SLOAD PUSH1 0x1 PUSH1 0x1 PUSH1 0x80 SHL SUB DUP2 AND PUSH1 0x20 DUP4 ADD MSTORE PUSH1 0x1 PUSH1 0x80 SHL SWAP1 DIV PUSH1 0xFF AND ISZERO ISZERO PUSH1 0x40 DUP3 ADD MSTORE PUSH1 0x3 DUP3 ADD DUP1 SLOAD PUSH1 0x60 SWAP1 SWAP3 ADD SWAP2 PUSH2 0x2F24 SWAP1 PUSH2 0x5AD6 JUMP JUMPDEST DUP1 PUSH1 0x1F ADD PUSH1 0x20 DUP1 SWAP2 DIV MUL PUSH1 0x20 ADD PUSH1 0x40 MLOAD SWAP1 DUP2 ADD PUSH1 0x40 MSTORE DUP1 SWAP3 SWAP2 SWAP1 DUP2 DUP2 MSTORE PUSH1 0x20 ADD DUP3 DUP1 SLOAD PUSH2 0x2F50 SWAP1 PUSH2 0x5AD6 JUMP JUMPDEST DUP1 ISZERO PUSH2 0x2F9B JUMPI DUP1 PUSH1 0x1F LT PUSH2 0x2F72 JUMPI PUSH2 0x100 DUP1 DUP4 SLOAD DIV MUL DUP4 MSTORE SWAP2 PUSH1 0x20 ADD SWAP2 PUSH2 0x2F9B JUMP JUMPDEST DUP3 ADD SWAP2 SWAP1 PUSH0 MSTORE PUSH1 0x20 PUSH0 KECCAK256 SWAP1 JUMPDEST DUP2 SLOAD DUP2 MSTORE SWAP1 PUSH1 0x1 ADD SWAP1 PUSH1 0x20 ADD DUP1 DUP4 GT PUSH2 0x2F7E JUMPI DUP3 SWAP1 SUB PUSH1 0x1F AND DUP3 ADD SWAP2 JUMPDEST POP POP POP POP POP DUP2 MSTORE PUSH1 0x20 ADD PUSH1 0x4 DUP3 ADD DUP1 SLOAD PUSH2 0x2FB4 SWAP1 PUSH2 0x5AD6 JUMP JUMPDEST DUP1 PUSH1 0x1F ADD PUSH1 0x20 DUP1 SWAP2 DIV MUL PUSH1 0x20 ADD PUSH1 0x40 MLOAD SWAP1 DUP2 ADD PUSH1 0x40 MSTORE DUP1 SWAP3 SWAP2 SWAP1 DUP2 DUP2 MSTORE PUSH1 0x20 ADD DUP3 DUP1 SLOAD PUSH2 0x2FE0 SWAP1 PUSH2 0x5AD6 JUMP JUMPDEST DUP1 ISZERO PUSH2 0x302B JUMPI DUP1 PUSH1 0x1F LT PUSH2 0x3002 JUMPI PUSH2 0x100 DUP1 DUP4 SLOAD DIV MUL DUP4 MSTORE SWAP2 PUSH1 0x20 ADD SWAP2 PUSH2 0x302B JUMP JUMPDEST DUP3 ADD SWAP2 SWAP1 PUSH0 MSTORE PUSH1 0x20 PUSH0 KECCAK256 SWAP1 JUMPDEST DUP2 SLOAD DUP2 MSTORE SWAP1 PUSH1 0x1 ADD SWAP1 PUSH1 0x20 ADD DUP1 DUP4 GT PUSH2 0x300E JUMPI DUP3 SWAP1 SUB PUSH1 0x1F AND DUP3 ADD SWAP2 JUMPDEST POP POP POP SWAP2 DUP4 MSTORE POP POP PUSH1 0x5 SWAP2 SWAP1 SWAP2 ADD SLOAD PUSH1 0x1 PUSH1 0x1 PUSH1 0x80 SHL SUB DUP1 DUP3 AND PUSH1 0x20 DUP5 ADD MSTORE PUSH1 0x1 PUSH1 0x80 SHL SWAP1 SWAP2 DIV DUP2 AND PUSH1 0x40 SWAP1 SWAP3 ADD SWAP2 SWAP1 SWAP2 MSTORE DUP5 MLOAD DUP6 SWAP2 DUP6 AND SWAP1 DUP2 LT PUSH2 0x3072 JUMPI PUSH2 0x3072 PUSH2 0x5AC2 JUMP JUMPDEST PUSH1 0x20 MUL PUSH1 0x20 ADD ADD DUP2 SWAP1 MSTORE POP DUP2 DUP1 PUSH2 0x3088 SWAP1 PUSH2 0x5E89 JUMP JUMPDEST SWAP3 POP POP JUMPDEST DUP1 PUSH2 0x3096 DUP2 PUSH2 0x5E89 JUMP JUMPDEST SWAP2 POP POP PUSH2 0x2DA5 JUMP JUMPDEST POP SWAP1 SWAP7 SWAP6 POP POP POP POP POP POP JUMP JUMPDEST PUSH1 0xB PUSH1 0x20 MSTORE DUP2 PUSH0 MSTORE PUSH1 0x40 PUSH0 KECCAK256 DUP2 DUP2 SLOAD DUP2 LT PUSH2 0xBB3 JUMPI PUSH0 DUP1 REVERT JUMPDEST PUSH1 0x5 PUSH1 0x20 SWAP1 DUP2 MSTORE PUSH0 SWAP3 DUP4 MSTORE PUSH1 0x40 DUP1 DUP5 KECCAK256 SWAP1 SWAP2 MSTORE SWAP1 DUP3 MSTORE SWAP1 KECCAK256 DUP1 SLOAD PUSH1 0x1 DUP3 ADD DUP1 SLOAD PUSH1 0x1 PUSH1 0x1 PUSH1 0x80 SHL SUB DUP1 DUP5 AND SWAP5 PUSH1 0x1 PUSH1 0x80 SHL SWAP1 SWAP5 DIV AND SWAP3 SWAP2 SWAP1 PUSH2 0x3104 SWAP1 PUSH2 0x5AD6 JUMP JUMPDEST DUP1 PUSH1 0x1F ADD PUSH1 0x20 DUP1 SWAP2 DIV MUL PUSH1 0x20 ADD PUSH1 0x40 MLOAD SWAP1 DUP2 ADD PUSH1 0x40 MSTORE DUP1 SWAP3 SWAP2 SWAP1 DUP2 DUP2 MSTORE PUSH1 0x20 ADD DUP3 DUP1 SLOAD PUSH2 0x3130 SWAP1 PUSH2 0x5AD6 JUMP JUMPDEST DUP1 ISZERO PUSH2 0x317B JUMPI DUP1 PUSH1 0x1F LT PUSH2 0x3152 JUMPI PUSH2 0x100 DUP1 DUP4 SLOAD DIV MUL DUP4 MSTORE SWAP2 PUSH1 0x20 ADD SWAP2 PUSH2 0x317B JUMP JUMPDEST DUP3 ADD SWAP2 SWAP1 PUSH0 MSTORE PUSH1 0x20 PUSH0 KECCAK256 SWAP1 JUMPDEST DUP2 SLOAD DUP2 MSTORE SWAP1 PUSH1 0x1 ADD SWAP1 PUSH1 0x20 ADD DUP1 DUP4 GT PUSH2 0x315E JUMPI DUP3 SWAP1 SUB PUSH1 0x1F AND DUP3 ADD SWAP2 JUMPDEST POP POP POP POP PUSH1 0x2 DUP4 ADD SLOAD PUSH1 0x3 DUP5 ADD DUP1 SLOAD SWAP4 SWAP5 PUSH1 0x1 PUSH1 0x1 PUSH1 0x80 SHL SUB DUP4 AND SWAP5 PUSH1 0x1 PUSH1 0x80 SHL SWAP1 SWAP4 DIV PUSH1 0xFF AND SWAP4 POP SWAP2 PUSH2 0x31AE SWAP1 PUSH2 0x5AD6 JUMP JUMPDEST DUP1 PUSH1 0x1F ADD PUSH1 0x20 DUP1 SWAP2 DIV MUL PUSH1 0x20 ADD PUSH1 0x40 MLOAD SWAP1 DUP2 ADD PUSH1 0x40 MSTORE DUP1 SWAP3 SWAP2 SWAP1 DUP2 DUP2 MSTORE PUSH1 0x20 ADD DUP3 DUP1 SLOAD PUSH2 0x31DA SWAP1 PUSH2 0x5AD6 JUMP JUMPDEST DUP1 ISZERO PUSH2 0x3225 JUMPI DUP1 PUSH1 0x1F LT PUSH2 0x31FC JUMPI PUSH2 0x100 DUP1 DUP4 SLOAD DIV MUL DUP4 MSTORE SWAP2 PUSH1 0x20 ADD SWAP2 PUSH2 0x3225 JUMP JUMPDEST DUP3 ADD SWAP2 SWAP1 PUSH0 MSTORE PUSH1 0x20 PUSH0 KECCAK256 SWAP1 JUMPDEST DUP2 SLOAD DUP2 MSTORE SWAP1 PUSH1 0x1 ADD SWAP1 PUSH1 0x20 ADD DUP1 DUP4 GT PUSH2 0x3208 JUMPI DUP3 SWAP1 SUB PUSH1 0x1F AND DUP3 ADD SWAP2 JUMPDEST POP POP POP POP POP SWAP1 DUP1 PUSH1 0x4 ADD DUP1 SLOAD PUSH2 0x323A SWAP1 PUSH2 0x5AD6 JUMP JUMPDEST DUP1 PUSH1 0x1F ADD PUSH1 0x20 DUP1 SWAP2 DIV MUL PUSH1 0x20 ADD PUSH1 0x40 MLOAD SWAP1 DUP2 ADD PUSH1 0x40 MSTORE DUP1 SWAP3 SWAP2 SWAP1 DUP2 DUP2 MSTORE PUSH1 0x20 ADD DUP3 DUP1 SLOAD PUSH2 0x3266 SWAP1 PUSH2 0x5AD6 JUMP JUMPDEST DUP1 ISZERO PUSH2 0x32B1 JUMPI DUP1 PUSH1 0x1F LT PUSH2 0x3288 JUMPI PUSH2 0x100 DUP1 DUP4 SLOAD DIV MUL DUP4 MSTORE SWAP2 PUSH1 0x20 ADD SWAP2 PUSH2 0x32B1 JUMP JUMPDEST DUP3 ADD SWAP2 SWAP1 PUSH0 MSTORE PUSH1 0x20 PUSH0 KECCAK256 SWAP1 JUMPDEST DUP2 SLOAD DUP2 MSTORE SWAP1 PUSH1 0x1 ADD SWAP1 PUSH1 0x20 ADD DUP1 DUP4 GT PUSH2 0x3294 JUMPI DUP3 SWAP1 SUB PUSH1 0x1F AND DUP3 ADD SWAP2 JUMPDEST POP POP POP PUSH1 0x5 SWAP1 SWAP4 ADD SLOAD SWAP2 SWAP3 POP POP PUSH1 0x1 PUSH1 0x1 PUSH1 0x80 SHL SUB DUP1 DUP3 AND SWAP2 PUSH1 0x1 PUSH1 0x80 SHL SWAP1 DIV AND DUP10 JUMP JUMPDEST DUP3 DUP3 PUSH0 DUP2 PUSH1 0x1 PUSH1 0x1 PUSH1 0x80 SHL SUB AND GT DUP1 ISZERO PUSH2 0x32FD JUMPI POP PUSH1 0x2 SLOAD PUSH1 0x1 PUSH1 0x1 PUSH1 0x80 SHL SUB SWAP1 DUP2 AND SWAP1 DUP3 AND LT JUMPDEST PUSH2 0x3319 JUMPI PUSH1 0x40 MLOAD PUSH3 0x461BCD PUSH1 0xE5 SHL DUP2 MSTORE PUSH1 0x4 ADD PUSH2 0x7D8 SWAP1 PUSH2 0x5CE6 JUMP JUMPDEST PUSH1 0x1 PUSH1 0x1 PUSH1 0x80 SHL SUB DUP1 DUP4 AND PUSH0 SWAP1 DUP2 MSTORE PUSH1 0x5 PUSH1 0x20 SWAP1 DUP2 MSTORE PUSH1 0x40 DUP1 DUP4 KECCAK256 DUP6 DUP6 AND DUP5 MSTORE SWAP1 SWAP2 MSTORE DUP2 KECCAK256 SLOAD SWAP1 SWAP2 AND SWAP1 SUB PUSH2 0x3360 JUMPI PUSH1 0x40 MLOAD PUSH3 0x461BCD PUSH1 0xE5 SHL DUP2 MSTORE PUSH1 0x4 ADD PUSH2 0x7D8 SWAP1 PUSH2 0x5D14 JUMP JUMPDEST PUSH1 0x1 DUP4 PUSH1 0xFF AND LT ISZERO DUP1 ISZERO PUSH2 0x3378 JUMPI POP PUSH1 0x5 DUP4 PUSH1 0xFF AND GT ISZERO JUMPDEST PUSH2 0x33B5 JUMPI PUSH1 0x40 MLOAD PUSH3 0x461BCD PUSH1 0xE5 SHL DUP2 MSTORE PUSH1 0x20 PUSH1 0x4 DUP3 ADD MSTORE PUSH1 0xE PUSH1 0x24 DUP3 ADD MSTORE PUSH14 0x496E76616C696420726174696E67 PUSH1 0x90 SHL PUSH1 0x44 DUP3 ADD MSTORE PUSH1 0x64 ADD PUSH2 0x7D8 JUMP JUMPDEST PUSH1 0x1 PUSH1 0x1 PUSH1 0x80 SHL SUB DUP1 DUP7 AND PUSH0 SWAP1 DUP2 MSTORE PUSH1 0x5 PUSH1 0x20 DUP2 DUP2 MSTORE PUSH1 0x40 DUP1 DUP5 KECCAK256 DUP10 DUP7 AND DUP6 MSTORE SWAP1 SWAP2 MSTORE DUP3 KECCAK256 SWAP1 DUP2 ADD DUP1 SLOAD SWAP2 SWAP4 PUSH1 0xFF DUP9 AND SWAP4 SWAP2 SWAP3 PUSH2 0x33F4 SWAP2 DUP6 SWAP2 AND PUSH2 0x5B86 JUMP JUMPDEST SWAP3 POP PUSH2 0x100 EXP DUP2 SLOAD DUP2 PUSH1 0x1 PUSH1 0x1 PUSH1 0x80 SHL SUB MUL NOT AND SWAP1 DUP4 PUSH1 0x1 PUSH1 0x1 PUSH1 0x80 SHL SUB AND MUL OR SWAP1 SSTORE POP PUSH1 0x1 DUP2 PUSH1 0x5 ADD PUSH1 0x10 DUP3 DUP3 DUP3 SWAP1 SLOAD SWAP1 PUSH2 0x100 EXP SWAP1 DIV PUSH1 0x1 PUSH1 0x1 PUSH1 0x80 SHL SUB AND PUSH2 0x343F SWAP2 SWAP1 PUSH2 0x5B86 JUMP JUMPDEST SWAP3 POP PUSH2 0x100 EXP DUP2 SLOAD DUP2 PUSH1 0x1 PUSH1 0x1 PUSH1 0x80 SHL SUB MUL NOT AND SWAP1 DUP4 PUSH1 0x1 PUSH1 0x1 PUSH1 0x80 SHL SUB AND MUL OR SWAP1 SSTORE POP PUSH32 0xDB324F7FEF3C53DAE6FD57E82DFA6FC22235609F2039C48367051C6AD5B2FAEF DUP6 DUP6 PUSH1 0x40 MLOAD PUSH2 0x34AB SWAP3 SWAP2 SWAP1 PUSH1 0x1 PUSH1 0x1 PUSH1 0x80 SHL SUB SWAP3 SWAP1 SWAP3 AND DUP3 MSTORE PUSH1 0xFF AND PUSH1 0x20 DUP3 ADD MSTORE PUSH1 0x40 ADD SWAP1 JUMP JUMPDEST PUSH1 0x40 MLOAD DUP1 SWAP2 SUB SWAP1 LOG1 POP POP POP POP POP POP JUMP JUMPDEST CALLER PUSH0 SWAP1 DUP2 MSTORE PUSH1 0x4 PUSH1 0x20 MSTORE PUSH1 0x40 DUP2 KECCAK256 SLOAD PUSH1 0xFF AND PUSH1 0x2 DUP2 GT ISZERO PUSH2 0x34DE JUMPI PUSH2 0x34DE PUSH2 0x528B JUMP JUMPDEST EQ PUSH2 0x352B JUMPI PUSH1 0x40 MLOAD PUSH3 0x461BCD PUSH1 0xE5 SHL DUP2 MSTORE PUSH1 0x20 PUSH1 0x4 DUP3 ADD MSTORE PUSH1 0x1B PUSH1 0x24 DUP3 ADD MSTORE PUSH32 0x556E617574686F72697A65643A20437573746F6D6572206F6E6C790000000000 PUSH1 0x44 DUP3 ADD MSTORE PUSH1 0x64 ADD PUSH2 0x7D8 JUMP JUMPDEST PUSH2 0x3533 PUSH2 0x4D63 JUMP JUMPDEST DUP1 PUSH0 DUP2 PUSH1 0x1 PUSH1 0x1 PUSH1 0x80 SHL SUB AND GT DUP1 ISZERO PUSH2 0x3561 JUMPI POP PUSH1 0x2 SLOAD PUSH1 0x1 PUSH1 0x1 PUSH1 0x80 SHL SUB PUSH1 0x1 PUSH1 0x80 SHL SWAP1 SWAP2 DIV DUP2 AND SWAP1 DUP3 AND LT JUMPDEST PUSH2 0x357D JUMPI PUSH1 0x40 MLOAD PUSH3 0x461BCD PUSH1 0xE5 SHL DUP2 MSTORE PUSH1 0x4 ADD PUSH2 0x7D8 SWAP1 PUSH2 0x5C34 JUMP JUMPDEST PUSH1 0x1 PUSH1 0x1 PUSH1 0x80 SHL SUB DUP3 AND PUSH0 SWAP1 DUP2 MSTORE PUSH1 0x6 PUSH1 0x20 MSTORE PUSH1 0x40 SWAP1 KECCAK256 PUSH1 0x1 DUP2 ADD SLOAD PUSH1 0x1 PUSH1 0x1 PUSH1 0xA0 SHL SUB AND CALLER EQ PUSH2 0x35E1 JUMPI PUSH1 0x40 MLOAD PUSH3 0x461BCD PUSH1 0xE5 SHL DUP2 MSTORE PUSH1 0x20 PUSH1 0x4 DUP3 ADD MSTORE PUSH1 0xE PUSH1 0x24 DUP3 ADD MSTORE PUSH14 0x2737BA103CB7BAB91037B93232B9 PUSH1 0x91 SHL PUSH1 0x44 DUP3 ADD MSTORE PUSH1 0x64 ADD PUSH2 0x7D8 JUMP JUMPDEST PUSH0 PUSH1 0x5 DUP3 DUP2 ADD SLOAD PUSH1 0x1 PUSH1 0x80 SHL SWAP1 DIV PUSH1 0xFF AND SWAP1 DUP2 GT ISZERO PUSH2 0x3602 JUMPI PUSH2 0x3602 PUSH2 0x528B JUMP JUMPDEST EQ DUP1 PUSH2 0x362D JUMPI POP PUSH1 0x1 PUSH1 0x5 DUP3 DUP2 ADD SLOAD PUSH1 0x1 PUSH1 0x80 SHL SWAP1 DIV PUSH1 0xFF AND SWAP1 DUP2 GT ISZERO PUSH2 0x362B JUMPI PUSH2 0x362B PUSH2 0x528B JUMP JUMPDEST EQ JUMPDEST PUSH2 0x3679 JUMPI PUSH1 0x40 MLOAD PUSH3 0x461BCD PUSH1 0xE5 SHL DUP2 MSTORE PUSH1 0x20 PUSH1 0x4 DUP3 ADD MSTORE PUSH1 0x1B PUSH1 0x24 DUP3 ADD MSTORE PUSH32 0x43616E6E6F742063616E63656C20617420746869732073746167650000000000 PUSH1 0x44 DUP3 ADD MSTORE PUSH1 0x64 ADD PUSH2 0x7D8 JUMP JUMPDEST PUSH1 0x5 DUP2 ADD DUP1 SLOAD PUSH1 0x1 PUSH1 0x82 SHL PUSH1 0xFF PUSH1 0x80 SHL NOT DUP3 AND OR SWAP1 SWAP2 SSTORE PUSH2 0x36A4 SWAP1 CALLER SWAP1 PUSH1 0x1 PUSH1 0x1 PUSH1 0x80 SHL SUB AND PUSH2 0x4E38 JUMP JUMPDEST PUSH32 0x1912970D6B925634E2CCFAFF5EDB3A3FA0F2B9F36FC281EB8266688B89606AC1 DUP4 CALLER PUSH1 0x40 MLOAD PUSH2 0x36D5 SWAP3 SWAP2 SWAP1 PUSH2 0x5C5E JUMP JUMPDEST PUSH1 0x40 MLOAD DUP1 SWAP2 SUB SWAP1 LOG1 PUSH1 0x5 DUP2 ADD SLOAD PUSH1 0x40 MLOAD PUSH32 0x1ACF2C59D6610CF0F250C9BC70ADB692B2319DE3640E791AB8A33A3B8931DF27 SWAP2 PUSH2 0x11B9 SWAP2 CALLER SWAP2 PUSH1 0x1 PUSH1 0x1 PUSH1 0x80 SHL SUB AND SWAP1 PUSH2 0x5EE3 JUMP JUMPDEST PUSH1 0x1 PUSH1 0x1 PUSH1 0x80 SHL SUB DUP1 DUP4 AND PUSH0 SWAP1 DUP2 MSTORE PUSH1 0x6 PUSH1 0x20 MSTORE PUSH1 0x40 SWAP1 KECCAK256 PUSH1 0x2 ADD SLOAD AND PUSH1 0x1 CALLER PUSH0 SWAP1 DUP2 MSTORE PUSH1 0x4 PUSH1 0x20 MSTORE PUSH1 0x40 SWAP1 KECCAK256 SLOAD PUSH1 0xFF AND PUSH1 0x2 DUP2 GT ISZERO PUSH2 0x375E JUMPI PUSH2 0x375E PUSH2 0x528B JUMP JUMPDEST EQ DUP1 ISZERO PUSH2 0x3784 JUMPI POP CALLER PUSH0 SWAP1 DUP2 MSTORE PUSH1 0xD PUSH1 0x20 MSTORE PUSH1 0x40 SWAP1 KECCAK256 SLOAD PUSH1 0x1 PUSH1 0x1 PUSH1 0x80 SHL SUB DUP3 DUP2 AND SWAP2 AND EQ JUMPDEST DUP1 PUSH2 0x37B1 JUMPI POP PUSH1 0x2 CALLER PUSH0 SWAP1 DUP2 MSTORE PUSH1 0x4 PUSH1 0x20 MSTORE PUSH1 0x40 SWAP1 KECCAK256 SLOAD PUSH1 0xFF AND PUSH1 0x2 DUP2 GT ISZERO PUSH2 0x37AF JUMPI PUSH2 0x37AF PUSH2 0x528B JUMP JUMPDEST EQ JUMPDEST DUP1 PUSH2 0x37DB JUMPI POP PUSH1 0x1 PUSH1 0x1 PUSH1 0x80 SHL SUB DUP2 AND PUSH0 SWAP1 DUP2 MSTORE PUSH1 0xC PUSH1 0x20 MSTORE PUSH1 0x40 SWAP1 KECCAK256 SLOAD PUSH1 0x1 PUSH1 0x1 PUSH1 0xA0 SHL SUB AND CALLER EQ JUMPDEST PUSH2 0x37F7 JUMPI PUSH1 0x40 MLOAD PUSH3 0x461BCD PUSH1 0xE5 SHL DUP2 MSTORE PUSH1 0x4 ADD PUSH2 0x7D8 SWAP1 PUSH2 0x5C9D JUMP JUMPDEST PUSH2 0x37FF PUSH2 0x4D63 JUMP JUMPDEST DUP3 PUSH0 DUP2 PUSH1 0x1 PUSH1 0x1 PUSH1 0x80 SHL SUB AND GT DUP1 ISZERO PUSH2 0x382D JUMPI POP PUSH1 0x2 SLOAD PUSH1 0x1 PUSH1 0x1 PUSH1 0x80 SHL SUB PUSH1 0x1 PUSH1 0x80 SHL SWAP1 SWAP2 DIV DUP2 AND SWAP1 DUP3 AND LT JUMPDEST PUSH2 0x3849 JUMPI PUSH1 0x40 MLOAD PUSH3 0x461BCD PUSH1 0xE5 SHL DUP2 MSTORE PUSH1 0x4 ADD PUSH2 0x7D8 SWAP1 PUSH2 0x5C34 JUMP JUMPDEST PUSH1 0x1 PUSH1 0x1 PUSH1 0x80 SHL SUB DUP5 AND PUSH0 SWAP1 DUP2 MSTORE PUSH1 0x6 PUSH1 0x20 MSTORE PUSH1 0x40 SWAP1 KECCAK256 PUSH1 0x4 PUSH1 0x5 DUP3 DUP2 ADD SLOAD PUSH1 0x1 PUSH1 0x80 SHL SWAP1 DIV PUSH1 0xFF AND SWAP1 DUP2 GT ISZERO PUSH2 0x3882 JUMPI PUSH2 0x3882 PUSH2 0x528B JUMP JUMPDEST SUB PUSH2 0x38C4 JUMPI PUSH1 0x40 MLOAD PUSH3 0x461BCD PUSH1 0xE5 SHL DUP2 MSTORE PUSH1 0x20 PUSH1 0x4 DUP3 ADD MSTORE PUSH1 0x12 PUSH1 0x24 DUP3 ADD MSTORE PUSH18 0x13DC99195C881A5CC818D85B98D95B1B1959 PUSH1 0x72 SHL PUSH1 0x44 DUP3 ADD MSTORE PUSH1 0x64 ADD PUSH2 0x7D8 JUMP JUMPDEST PUSH1 0x5 DUP1 DUP3 DUP2 ADD SLOAD PUSH1 0x1 PUSH1 0x80 SHL SWAP1 DIV PUSH1 0xFF AND SWAP1 DUP2 GT ISZERO PUSH2 0x38E5 JUMPI PUSH2 0x38E5 PUSH2 0x528B JUMP JUMPDEST SUB PUSH2 0x3932 JUMPI PUSH1 0x40 MLOAD PUSH3 0x461BCD PUSH1 0xE5 SHL DUP2 MSTORE PUSH1 0x20 PUSH1 0x4 DUP3 ADD MSTORE PUSH1 0x17 PUSH1 0x24 DUP3 ADD MSTORE PUSH32 0x4F7264657220616C726561647920636F6D706C65746564000000000000000000 PUSH1 0x44 DUP3 ADD MSTORE PUSH1 0x64 ADD PUSH2 0x7D8 JUMP JUMPDEST PUSH1 0x1 DUP5 PUSH1 0x5 DUP2 GT ISZERO PUSH2 0x3946 JUMPI PUSH2 0x3946 PUSH2 0x528B JUMP JUMPDEST SUB PUSH2 0x39BB JUMPI PUSH0 JUMPDEST PUSH1 0x5 DUP3 DUP2 ADD SLOAD PUSH1 0x1 PUSH1 0x80 SHL SWAP1 DIV PUSH1 0xFF AND SWAP1 DUP2 GT ISZERO PUSH2 0x396D JUMPI PUSH2 0x396D PUSH2 0x528B JUMP JUMPDEST EQ PUSH2 0x39B6 JUMPI PUSH1 0x40 MLOAD PUSH3 0x461BCD PUSH1 0xE5 SHL DUP2 MSTORE PUSH1 0x20 PUSH1 0x4 DUP3 ADD MSTORE PUSH1 0x19 PUSH1 0x24 DUP3 ADD MSTORE PUSH25 0x24B73B30B634B21039BA30BA3AB9903A3930B739B4BA34B7B7 PUSH1 0x39 SHL PUSH1 0x44 DUP3 ADD MSTORE PUSH1 0x64 ADD PUSH2 0x7D8 JUMP JUMPDEST PUSH2 0x3AAC JUMP JUMPDEST PUSH1 0x2 DUP5 PUSH1 0x5 DUP2 GT ISZERO PUSH2 0x39CF JUMPI PUSH2 0x39CF PUSH2 0x528B JUMP JUMPDEST SUB PUSH2 0x3A4C JUMPI PUSH0 JUMPDEST PUSH1 0x5 DUP3 DUP2 ADD SLOAD PUSH1 0x1 PUSH1 0x80 SHL SWAP1 DIV PUSH1 0xFF AND SWAP1 DUP2 GT ISZERO PUSH2 0x39F6 JUMPI PUSH2 0x39F6 PUSH2 0x528B JUMP JUMPDEST EQ DUP1 PUSH2 0x3A04 JUMPI POP PUSH1 0x1 PUSH2 0x394D JUMP JUMPDEST PUSH2 0x39B6 JUMPI PUSH1 0x40 MLOAD PUSH3 0x461BCD PUSH1 0xE5 SHL DUP2 MSTORE PUSH1 0x20 PUSH1 0x4 DUP3 ADD MSTORE PUSH1 0x19 PUSH1 0x24 DUP3 ADD MSTORE PUSH25 0x24B73B30B634B21039BA30BA3AB9903A3930B739B4BA34B7B7 PUSH1 0x39 SHL PUSH1 0x44 DUP3 ADD MSTORE PUSH1 0x64 ADD PUSH2 0x7D8 JUMP JUMPDEST PUSH1 0x3 DUP5 PUSH1 0x5 DUP2 GT ISZERO PUSH2 0x3A60 JUMPI PUSH2 0x3A60 PUSH2 0x528B JUMP JUMPDEST SUB PUSH2 0x3A6C JUMPI PUSH1 0x2 PUSH2 0x39D6 JUMP JUMPDEST PUSH1 0x40 MLOAD PUSH3 0x461BCD PUSH1 0xE5 SHL DUP2 MSTORE PUSH1 0x20 PUSH1 0x4 DUP3 ADD MSTORE PUSH1 0x15 PUSH1 0x24 DUP3 ADD MSTORE PUSH21 0x496E76616C69642073746174757320757064617465 PUSH1 0x58 SHL PUSH1 0x44 DUP3 ADD MSTORE PUSH1 0x64 ADD PUSH2 0x7D8 JUMP JUMPDEST DUP4 DUP2 PUSH1 0x5 ADD PUSH1 0x10 PUSH2 0x100 EXP DUP2 SLOAD DUP2 PUSH1 0xFF MUL NOT AND SWAP1 DUP4 PUSH1 0x5 DUP2 GT ISZERO PUSH2 0x3AD2 JUMPI PUSH2 0x3AD2 PUSH2 0x528B JUMP JUMPDEST MUL OR SWAP1 SSTORE POP PUSH32 0x398E222575905CAECECB6CA7C365B9049ABF41CC7CC060EC170A711233F32D08 DUP6 DUP6 PUSH1 0x40 MLOAD PUSH2 0x3B08 SWAP3 SWAP2 SWAP1 PUSH2 0x5C80 JUMP JUMPDEST PUSH1 0x40 MLOAD DUP1 SWAP2 SUB SWAP1 LOG1 POP POP PUSH2 0x271D PUSH1 0x1 PUSH0 SSTORE JUMP JUMPDEST PUSH2 0x3B23 PUSH2 0x4DBA JUMP JUMPDEST PUSH1 0x1 PUSH1 0x1 PUSH1 0xA0 SHL SUB DUP2 AND PUSH2 0x3B4C JUMPI PUSH1 0x40 MLOAD PUSH4 0x1E4FBDF7 PUSH1 0xE0 SHL DUP2 MSTORE PUSH0 PUSH1 0x4 DUP3 ADD MSTORE PUSH1 0x24 ADD PUSH2 0x7D8 JUMP JUMPDEST PUSH2 0x11CC DUP2 PUSH2 0x4DE7 JUMP JUMPDEST PUSH1 0x2 CALLER PUSH0 SWAP1 DUP2 MSTORE PUSH1 0x4 PUSH1 0x20 MSTORE PUSH1 0x40 SWAP1 KECCAK256 SLOAD PUSH1 0xFF AND PUSH1 0x2 DUP2 GT ISZERO PUSH2 0x3B7A JUMPI PUSH2 0x3B7A PUSH2 0x528B JUMP JUMPDEST EQ PUSH2 0x3B97 JUMPI PUSH1 0x40 MLOAD PUSH3 0x461BCD PUSH1 0xE5 SHL DUP2 MSTORE PUSH1 0x4 ADD PUSH2 0x7D8 SWAP1 PUSH2 0x5BDE JUMP JUMPDEST PUSH1 0x14 PUSH1 0xFF DUP3 AND GT ISZERO PUSH2 0x3BE2 JUMPI PUSH1 0x40 MLOAD PUSH3 0x461BCD PUSH1 0xE5 SHL DUP2 MSTORE PUSH1 0x20 PUSH1 0x4 DUP3 ADD MSTORE PUSH1 0x14 PUSH1 0x24 DUP3 ADD MSTORE PUSH20 0xA6CAE4ECD2C6CA40CCCACA40E8DEDE40D0D2CED PUSH1 0x63 SHL PUSH1 0x44 DUP3 ADD MSTORE PUSH1 0x64 ADD PUSH2 0x7D8 JUMP JUMPDEST PUSH1 0x3 DUP1 SLOAD PUSH1 0xFF PUSH1 0x80 SHL NOT AND PUSH1 0x1 PUSH1 0x80 SHL PUSH1 0xFF DUP5 AND SWAP1 DUP2 MUL SWAP2 SWAP1 SWAP2 OR SWAP1 SWAP2 SSTORE PUSH1 0x40 MLOAD SWAP1 DUP2 MSTORE PUSH32 0xC2E7293B347AC956898A90E36061EF247C8D3516F25E87A91009BE115CE27AC4 SWAP1 PUSH1 0x20 ADD PUSH1 0x40 MLOAD DUP1 SWAP2 SUB SWAP1 LOG1 POP JUMP JUMPDEST PUSH1 0x3 SLOAD PUSH1 0x1 PUSH1 0x1 PUSH1 0x80 SHL SUB SWAP1 DUP2 AND PUSH0 DUP2 DUP2 MSTORE PUSH1 0xC PUSH1 0x20 SWAP1 DUP2 MSTORE PUSH1 0x40 DUP1 DUP4 KECCAK256 DUP1 SLOAD PUSH1 0x1 PUSH1 0x1 PUSH1 0xA0 SHL SUB NOT AND CALLER SWAP1 DUP2 OR SWAP1 SWAP2 SSTORE DUP1 DUP5 MSTORE PUSH1 0xB DUP4 MSTORE DUP2 DUP5 KECCAK256 DUP1 SLOAD PUSH1 0x1 DUP2 DUP2 ADD DUP4 SSTORE SWAP2 DUP7 MSTORE SWAP4 DUP6 KECCAK256 PUSH1 0x2 DUP6 DIV ADD DUP1 SLOAD PUSH1 0x10 SWAP6 SWAP1 SWAP3 AND SWAP5 SWAP1 SWAP5 MUL PUSH2 0x100 EXP DUP1 DUP8 MUL SWAP8 MUL NOT AND SWAP6 SWAP1 SWAP6 OR SWAP1 SWAP2 SSTORE MLOAD SWAP1 SWAP3 PUSH32 0xBAFBC0BFD4AFD8A222B8CD09B01CE310B06B0BEB42503EA91A76135E6A532E92 SWAP2 PUSH2 0x3CD3 SWAP2 DUP5 SWAP2 PUSH2 0x5C5E JUMP JUMPDEST PUSH1 0x40 MLOAD DUP1 SWAP2 SUB SWAP1 LOG1 PUSH1 0x3 DUP1 SLOAD PUSH1 0x1 PUSH1 0x1 PUSH1 0x80 SHL SUB AND SWAP1 PUSH0 PUSH2 0x3CF3 DUP4 PUSH2 0x5E89 JUMP JUMPDEST SWAP2 SWAP1 PUSH2 0x100 EXP DUP2 SLOAD DUP2 PUSH1 0x1 PUSH1 0x1 PUSH1 0x80 SHL SUB MUL NOT AND SWAP1 DUP4 PUSH1 0x1 PUSH1 0x1 PUSH1 0x80 SHL SUB AND MUL OR SWAP1 SSTORE POP POP DUP1 SWAP2 POP POP SWAP1 JUMP JUMPDEST PUSH1 0x60 PUSH0 DUP5 PUSH1 0x40 MLOAD PUSH1 0x20 ADD PUSH2 0x3D33 SWAP2 SWAP1 PUSH2 0x5F05 JUMP JUMPDEST PUSH1 0x40 DUP1 MLOAD PUSH1 0x1F NOT DUP2 DUP5 SUB ADD DUP2 MSTORE SWAP2 SWAP1 MSTORE DUP1 MLOAD PUSH1 0x20 SWAP1 SWAP2 ADD KECCAK256 SWAP1 POP PUSH0 PUSH1 0x1 PUSH1 0x1 PUSH1 0x80 SHL SUB DUP8 AND DUP2 SUB PUSH2 0x411A JUMPI PUSH1 0x1 JUMPDEST PUSH1 0x3 SLOAD PUSH1 0x1 PUSH1 0x1 PUSH1 0x80 SHL SUB SWAP1 DUP2 AND SWAP1 DUP3 AND LT ISZERO PUSH2 0x4114 JUMPI PUSH0 JUMPDEST PUSH1 0x1 PUSH1 0x1 PUSH1 0x80 SHL SUB DUP3 AND PUSH0 SWAP1 DUP2 MSTORE PUSH1 0xE PUSH1 0x20 MSTORE PUSH1 0x40 SWAP1 KECCAK256 SLOAD DUP2 LT DUP1 ISZERO PUSH2 0x3DBA JUMPI POP PUSH2 0x3DA5 DUP7 DUP9 PUSH2 0x5B86 JUMP JUMPDEST PUSH1 0x1 PUSH1 0x1 PUSH1 0x80 SHL SUB AND DUP4 PUSH1 0x1 PUSH1 0x1 PUSH1 0x80 SHL SUB AND LT JUMPDEST ISZERO PUSH2 0x410B JUMPI PUSH1 0x1 PUSH1 0x1 PUSH1 0x80 SHL SUB DUP3 AND PUSH0 SWAP1 DUP2 MSTORE PUSH1 0xE PUSH1 0x20 MSTORE PUSH1 0x40 DUP2 KECCAK256 DUP1 SLOAD DUP4 SWAP1 DUP2 LT PUSH2 0x3DE8 JUMPI PUSH2 0x3DE8 PUSH2 0x5AC2 JUMP JUMPDEST PUSH0 SWAP2 DUP3 MSTORE PUSH1 0x20 DUP1 DUP4 KECCAK256 PUSH1 0x2 DUP4 DIV ADD SLOAD PUSH1 0x1 PUSH1 0x1 PUSH1 0x80 SHL SUB DUP8 DUP2 AND DUP6 MSTORE PUSH1 0x5 DUP4 MSTORE PUSH1 0x40 DUP1 DUP7 KECCAK256 PUSH1 0x10 PUSH1 0x1 SWAP7 DUP8 AND MUL PUSH2 0x100 EXP SWAP1 SWAP4 DIV DUP3 AND DUP1 DUP8 MSTORE SWAP3 DUP5 MSTORE DUP1 DUP7 KECCAK256 DUP2 MLOAD PUSH2 0x120 DUP2 ADD DUP4 MSTORE DUP2 SLOAD DUP1 DUP6 AND DUP3 MSTORE PUSH1 0x1 PUSH1 0x80 SHL SWAP1 DIV SWAP1 SWAP4 AND SWAP5 DUP4 ADD SWAP5 SWAP1 SWAP5 MSTORE SWAP4 DUP4 ADD DUP1 SLOAD SWAP3 SWAP7 POP SWAP1 SWAP4 DUP5 ADD SWAP2 PUSH2 0x3E5E SWAP1 PUSH2 0x5AD6 JUMP JUMPDEST DUP1 PUSH1 0x1F ADD PUSH1 0x20 DUP1 SWAP2 DIV MUL PUSH1 0x20 ADD PUSH1 0x40 MLOAD SWAP1 DUP2 ADD PUSH1 0x40 MSTORE DUP1 SWAP3 SWAP2 SWAP1 DUP2 DUP2 MSTORE PUSH1 0x20 ADD DUP3 DUP1 SLOAD PUSH2 0x3E8A SWAP1 PUSH2 0x5AD6 JUMP JUMPDEST DUP1 ISZERO PUSH2 0x3ED5 JUMPI DUP1 PUSH1 0x1F LT PUSH2 0x3EAC JUMPI PUSH2 0x100 DUP1 DUP4 SLOAD DIV MUL DUP4 MSTORE SWAP2 PUSH1 0x20 ADD SWAP2 PUSH2 0x3ED5 JUMP JUMPDEST DUP3 ADD SWAP2 SWAP1 PUSH0 MSTORE PUSH1 0x20 PUSH0 KECCAK256 SWAP1 JUMPDEST DUP2 SLOAD DUP2 MSTORE SWAP1 PUSH1 0x1 ADD SWAP1 PUSH1 0x20 ADD DUP1 DUP4 GT PUSH2 0x3EB8 JUMPI DUP3 SWAP1 SUB PUSH1 0x1F AND DUP3 ADD SWAP2 JUMPDEST POP POP POP SWAP2 DUP4 MSTORE POP POP PUSH1 0x2 DUP3 ADD SLOAD PUSH1 0x1 PUSH1 0x1 PUSH1 0x80 SHL SUB DUP2 AND PUSH1 0x20 DUP4 ADD MSTORE PUSH1 0x1 PUSH1 0x80 SHL SWAP1 DIV PUSH1 0xFF AND ISZERO ISZERO PUSH1 0x40 DUP3 ADD MSTORE PUSH1 0x3 DUP3 ADD DUP1 SLOAD PUSH1 0x60 SWAP1 SWAP3 ADD SWAP2 PUSH2 0x3F17 SWAP1 PUSH2 0x5AD6 JUMP JUMPDEST DUP1 PUSH1 0x1F ADD PUSH1 0x20 DUP1 SWAP2 DIV MUL PUSH1 0x20 ADD PUSH1 0x40 MLOAD SWAP1 DUP2 ADD PUSH1 0x40 MSTORE DUP1 SWAP3 SWAP2 SWAP1 DUP2 DUP2 MSTORE PUSH1 0x20 ADD DUP3 DUP1 SLOAD PUSH2 0x3F43 SWAP1 PUSH2 0x5AD6 JUMP JUMPDEST DUP1 ISZERO PUSH2 0x3F8E JUMPI DUP1 PUSH1 0x1F LT PUSH2 0x3F65 JUMPI PUSH2 0x100 DUP1 DUP4 SLOAD DIV MUL DUP4 MSTORE SWAP2 PUSH1 0x20 ADD SWAP2 PUSH2 0x3F8E JUMP JUMPDEST DUP3 ADD SWAP2 SWAP1 PUSH0 MSTORE PUSH1 0x20 PUSH0 KECCAK256 SWAP1 JUMPDEST DUP2 SLOAD DUP2 MSTORE SWAP1 PUSH1 0x1 ADD SWAP1 PUSH1 0x20 ADD DUP1 DUP4 GT PUSH2 0x3F71 JUMPI DUP3 SWAP1 SUB PUSH1 0x1F AND DUP3 ADD SWAP2 JUMPDEST POP POP POP POP POP DUP2 MSTORE PUSH1 0x20 ADD PUSH1 0x4 DUP3 ADD DUP1 SLOAD PUSH2 0x3FA7 SWAP1 PUSH2 0x5AD6 JUMP JUMPDEST DUP1 PUSH1 0x1F ADD PUSH1 0x20 DUP1 SWAP2 DIV MUL PUSH1 0x20 ADD PUSH1 0x40 MLOAD SWAP1 DUP2 ADD PUSH1 0x40 MSTORE DUP1 SWAP3 SWAP2 SWAP1 DUP2 DUP2 MSTORE PUSH1 0x20 ADD DUP3 DUP1 SLOAD PUSH2 0x3FD3 SWAP1 PUSH2 0x5AD6 JUMP JUMPDEST DUP1 ISZERO PUSH2 0x401E JUMPI DUP1 PUSH1 0x1F LT PUSH2 0x3FF5 JUMPI PUSH2 0x100 DUP1 DUP4 SLOAD DIV MUL DUP4 MSTORE SWAP2 PUSH1 0x20 ADD SWAP2 PUSH2 0x401E JUMP JUMPDEST DUP3 ADD SWAP2 SWAP1 PUSH0 MSTORE PUSH1 0x20 PUSH0 KECCAK256 SWAP1 JUMPDEST DUP2 SLOAD DUP2 MSTORE SWAP1 PUSH1 0x1 ADD SWAP1 PUSH1 0x20 ADD DUP1 DUP4 GT PUSH2 0x4001 JUMPI DUP3 SWAP1 SUB PUSH1 0x1F AND DUP3 ADD SWAP2 JUMPDEST POP POP POP SWAP2 DUP4 MSTORE POP POP PUSH1 0x5 SWAP2 SWAP1 SWAP2 ADD SLOAD PUSH1 0x1 PUSH1 0x1 PUSH1 0x80 SHL SUB DUP1 DUP3 AND PUSH1 0x20 DUP5 ADD MSTORE PUSH1 0x1 PUSH1 0x80 SHL SWAP1 SWAP2 DIV DUP2 AND PUSH1 0x40 SWAP1 SWAP3 ADD SWAP2 SWAP1 SWAP2 MSTORE DUP2 MLOAD SWAP2 SWAP3 POP AND ISZERO DUP1 ISZERO SWAP1 PUSH2 0x40CA JUMPI POP DUP10 MLOAD ISZERO DUP1 PUSH2 0x4096 JUMPI POP DUP6 DUP2 PUSH1 0x40 ADD MLOAD PUSH1 0x40 MLOAD PUSH1 0x20 ADD PUSH2 0x407E SWAP2 SWAP1 PUSH2 0x5F05 JUMP JUMPDEST PUSH1 0x40 MLOAD PUSH1 0x20 DUP2 DUP4 SUB SUB DUP2 MSTORE SWAP1 PUSH1 0x40 MSTORE DUP1 MLOAD SWAP1 PUSH1 0x20 ADD KECCAK256 EQ JUMPDEST DUP1 PUSH2 0x40CA JUMPI POP DUP6 DUP2 PUSH1 0xC0 ADD MLOAD PUSH1 0x40 MLOAD PUSH1 0x20 ADD PUSH2 0x40B2 SWAP2 SWAP1 PUSH2 0x5F05 JUMP JUMPDEST PUSH1 0x40 MLOAD PUSH1 0x20 DUP2 DUP4 SUB SUB DUP2 MSTORE SWAP1 PUSH1 0x40 MSTORE DUP1 MLOAD SWAP1 PUSH1 0x20 ADD KECCAK256 EQ JUMPDEST ISZERO PUSH2 0x40F6 JUMPI DUP9 PUSH1 0x1 PUSH1 0x1 PUSH1 0x80 SHL SUB AND DUP6 PUSH1 0x1 PUSH1 0x1 PUSH1 0x80 SHL SUB AND LT PUSH2 0x40F6 JUMPI DUP5 PUSH2 0x40F2 DUP2 PUSH2 0x5E89 JUMP JUMPDEST SWAP6 POP POP JUMPDEST POP POP DUP1 DUP1 PUSH2 0x4103 SWAP1 PUSH2 0x5F1B JUMP JUMPDEST SWAP2 POP POP PUSH2 0x3D7A JUMP JUMPDEST POP PUSH1 0x1 ADD PUSH2 0x3D61 JUMP JUMPDEST POP PUSH2 0x44EC JUMP JUMPDEST PUSH1 0x1 PUSH1 0x1 PUSH1 0x80 SHL SUB DUP8 AND PUSH0 SWAP1 DUP2 MSTORE PUSH1 0xC PUSH1 0x20 MSTORE PUSH1 0x40 SWAP1 KECCAK256 SLOAD PUSH1 0x1 PUSH1 0x1 PUSH1 0xA0 SHL SUB AND PUSH2 0x4157 JUMPI PUSH1 0x40 MLOAD PUSH3 0x461BCD PUSH1 0xE5 SHL DUP2 MSTORE PUSH1 0x4 ADD PUSH2 0x7D8 SWAP1 PUSH2 0x5A8B JUMP JUMPDEST PUSH0 JUMPDEST PUSH1 0x1 PUSH1 0x1 PUSH1 0x80 SHL SUB DUP9 AND PUSH0 SWAP1 DUP2 MSTORE PUSH1 0xE PUSH1 0x20 MSTORE PUSH1 0x40 SWAP1 KECCAK256 SLOAD DUP2 LT DUP1 ISZERO PUSH2 0x4199 JUMPI POP PUSH2 0x4184 DUP6 DUP8 PUSH2 0x5B86 JUMP JUMPDEST PUSH1 0x1 PUSH1 0x1 PUSH1 0x80 SHL SUB AND DUP3 PUSH1 0x1 PUSH1 0x1 PUSH1 0x80 SHL SUB AND LT JUMPDEST ISZERO PUSH2 0x44EA JUMPI PUSH1 0x1 PUSH1 0x1 PUSH1 0x80 SHL SUB DUP9 AND PUSH0 SWAP1 DUP2 MSTORE PUSH1 0xE PUSH1 0x20 MSTORE PUSH1 0x40 DUP2 KECCAK256 DUP1 SLOAD DUP4 SWAP1 DUP2 LT PUSH2 0x41C7 JUMPI PUSH2 0x41C7 PUSH2 0x5AC2 JUMP JUMPDEST PUSH0 SWAP2 DUP3 MSTORE PUSH1 0x20 DUP1 DUP4 KECCAK256 PUSH1 0x2 DUP4 DIV ADD SLOAD PUSH1 0x1 PUSH1 0x1 PUSH1 0x80 SHL SUB DUP14 DUP2 AND DUP6 MSTORE PUSH1 0x5 DUP4 MSTORE PUSH1 0x40 DUP1 DUP7 KECCAK256 PUSH1 0x10 PUSH1 0x1 SWAP7 DUP8 AND MUL PUSH2 0x100 EXP SWAP1 SWAP4 DIV DUP3 AND DUP1 DUP8 MSTORE SWAP3 DUP5 MSTORE DUP1 DUP7 KECCAK256 DUP2 MLOAD PUSH2 0x120 DUP2 ADD DUP4 MSTORE DUP2 SLOAD DUP1 DUP6 AND DUP3 MSTORE PUSH1 0x1 PUSH1 0x80 SHL SWAP1 DIV SWAP1 SWAP4 AND SWAP5 DUP4 ADD SWAP5 SWAP1 SWAP5 MSTORE SWAP4 DUP4 ADD DUP1 SLOAD SWAP3 SWAP7 POP SWAP1 SWAP4 DUP5 ADD SWAP2 PUSH2 0x423D SWAP1 PUSH2 0x5AD6 JUMP JUMPDEST DUP1 PUSH1 0x1F ADD PUSH1 0x20 DUP1 SWAP2 DIV MUL PUSH1 0x20 ADD PUSH1 0x40 MLOAD SWAP1 DUP2 ADD PUSH1 0x40 MSTORE DUP1 SWAP3 SWAP2 SWAP1 DUP2 DUP2 MSTORE PUSH1 0x20 ADD DUP3 DUP1 SLOAD PUSH2 0x4269 SWAP1 PUSH2 0x5AD6 JUMP JUMPDEST DUP1 ISZERO PUSH2 0x42B4 JUMPI DUP1 PUSH1 0x1F LT PUSH2 0x428B JUMPI PUSH2 0x100 DUP1 DUP4 SLOAD DIV MUL DUP4 MSTORE SWAP2 PUSH1 0x20 ADD SWAP2 PUSH2 0x42B4 JUMP JUMPDEST DUP3 ADD SWAP2 SWAP1 PUSH0 MSTORE PUSH1 0x20 PUSH0 KECCAK256 SWAP1 JUMPDEST DUP2 SLOAD DUP2 MSTORE SWAP1 PUSH1 0x1 ADD SWAP1 PUSH1 0x20 ADD DUP1 DUP4 GT PUSH2 0x4297 JUMPI DUP3 SWAP1 SUB PUSH1 0x1F AND DUP3 ADD SWAP2 JUMPDEST POP POP POP SWAP2 DUP4 MSTORE POP POP PUSH1 0x2 DUP3 ADD SLOAD PUSH1 0x1 PUSH1 0x1 PUSH1 0x80 SHL SUB DUP2 AND PUSH1 0x20 DUP4 ADD MSTORE PUSH1 0x1 PUSH1 0x80 SHL SWAP1 DIV PUSH1 0xFF AND ISZERO ISZERO PUSH1 0x40 DUP3 ADD MSTORE PUSH1 0x3 DUP3 ADD DUP1 SLOAD PUSH1 0x60 SWAP1 SWAP3 ADD SWAP2 PUSH2 0x42F6 SWAP1 PUSH2 0x5AD6 JUMP JUMPDEST DUP1 PUSH1 0x1F ADD PUSH1 0x20 DUP1 SWAP2 DIV MUL PUSH1 0x20 ADD PUSH1 0x40 MLOAD SWAP1 DUP2 ADD PUSH1 0x40 MSTORE DUP1 SWAP3 SWAP2 SWAP1 DUP2 DUP2 MSTORE PUSH1 0x20 ADD DUP3 DUP1 SLOAD PUSH2 0x4322 SWAP1 PUSH2 0x5AD6 JUMP JUMPDEST DUP1 ISZERO PUSH2 0x436D JUMPI DUP1 PUSH1 0x1F LT PUSH2 0x4344 JUMPI PUSH2 0x100 DUP1 DUP4 SLOAD DIV MUL DUP4 MSTORE SWAP2 PUSH1 0x20 ADD SWAP2 PUSH2 0x436D JUMP JUMPDEST DUP3 ADD SWAP2 SWAP1 PUSH0 MSTORE PUSH1 0x20 PUSH0 KECCAK256 SWAP1 JUMPDEST DUP2 SLOAD DUP2 MSTORE SWAP1 PUSH1 0x1 ADD SWAP1 PUSH1 0x20 ADD DUP1 DUP4 GT PUSH2 0x4350 JUMPI DUP3 SWAP1 SUB PUSH1 0x1F AND DUP3 ADD SWAP2 JUMPDEST POP POP POP POP POP DUP2 MSTORE PUSH1 0x20 ADD PUSH1 0x4 DUP3 ADD DUP1 SLOAD PUSH2 0x4386 SWAP1 PUSH2 0x5AD6 JUMP JUMPDEST DUP1 PUSH1 0x1F ADD PUSH1 0x20 DUP1 SWAP2 DIV MUL PUSH1 0x20 ADD PUSH1 0x40 MLOAD SWAP1 DUP2 ADD PUSH1 0x40 MSTORE DUP1 SWAP3 SWAP2 SWAP1 DUP2 DUP2 MSTORE PUSH1 0x20 ADD DUP3 DUP1 SLOAD PUSH2 0x43B2 SWAP1 PUSH2 0x5AD6 JUMP JUMPDEST DUP1 ISZERO PUSH2 0x43FD JUMPI DUP1 PUSH1 0x1F LT PUSH2 0x43D4 JUMPI PUSH2 0x100 DUP1 DUP4 SLOAD DIV MUL DUP4 MSTORE SWAP2 PUSH1 0x20 ADD SWAP2 PUSH2 0x43FD JUMP JUMPDEST DUP3 ADD SWAP2 SWAP1 PUSH0 MSTORE PUSH1 0x20 PUSH0 KECCAK256 SWAP1 JUMPDEST DUP2 SLOAD DUP2 MSTORE SWAP1 PUSH1 0x1 ADD SWAP1 PUSH1 0x20 ADD DUP1 DUP4 GT PUSH2 0x43E0 JUMPI DUP3 SWAP1 SUB PUSH1 0x1F AND DUP3 ADD SWAP2 JUMPDEST POP POP POP SWAP2 DUP4 MSTORE POP POP PUSH1 0x5 SWAP2 SWAP1 SWAP2 ADD SLOAD PUSH1 0x1 PUSH1 0x1 PUSH1 0x80 SHL SUB DUP1 DUP3 AND PUSH1 0x20 DUP5 ADD MSTORE PUSH1 0x1 PUSH1 0x80 SHL SWAP1 SWAP2 DIV DUP2 AND PUSH1 0x40 SWAP1 SWAP3 ADD SWAP2 SWAP1 SWAP2 MSTORE DUP2 MLOAD SWAP2 SWAP3 POP AND ISZERO DUP1 ISZERO SWAP1 PUSH2 0x44A9 JUMPI POP DUP9 MLOAD ISZERO DUP1 PUSH2 0x4475 JUMPI POP DUP5 DUP2 PUSH1 0x40 ADD MLOAD PUSH1 0x40 MLOAD PUSH1 0x20 ADD PUSH2 0x445D SWAP2 SWAP1 PUSH2 0x5F05 JUMP JUMPDEST PUSH1 0x40 MLOAD PUSH1 0x20 DUP2 DUP4 SUB SUB DUP2 MSTORE SWAP1 PUSH1 0x40 MSTORE DUP1 MLOAD SWAP1 PUSH1 0x20 ADD KECCAK256 EQ JUMPDEST DUP1 PUSH2 0x44A9 JUMPI POP DUP5 DUP2 PUSH1 0xC0 ADD MLOAD PUSH1 0x40 MLOAD PUSH1 0x20 ADD PUSH2 0x4491 SWAP2 SWAP1 PUSH2 0x5F05 JUMP JUMPDEST PUSH1 0x40 MLOAD PUSH1 0x20 DUP2 DUP4 SUB SUB DUP2 MSTORE SWAP1 PUSH1 0x40 MSTORE DUP1 MLOAD SWAP1 PUSH1 0x20 ADD KECCAK256 EQ JUMPDEST ISZERO PUSH2 0x44D5 JUMPI DUP8 PUSH1 0x1 PUSH1 0x1 PUSH1 0x80 SHL SUB AND DUP5 PUSH1 0x1 PUSH1 0x1 PUSH1 0x80 SHL SUB AND LT PUSH2 0x44D5 JUMPI DUP4 PUSH2 0x44D1 DUP2 PUSH2 0x5E89 JUMP JUMPDEST SWAP5 POP POP JUMPDEST POP POP DUP1 DUP1 PUSH2 0x44E2 SWAP1 PUSH2 0x5F1B JUMP JUMPDEST SWAP2 POP POP PUSH2 0x4159 JUMP JUMPDEST POP JUMPDEST PUSH0 DUP6 PUSH1 0x1 PUSH1 0x1 PUSH1 0x80 SHL SUB AND DUP3 PUSH1 0x1 PUSH1 0x1 PUSH1 0x80 SHL SUB AND GT PUSH2 0x450C JUMPI PUSH0 PUSH2 0x4516 JUMP JUMPDEST PUSH2 0x4516 DUP7 DUP4 PUSH2 0x5C15 JUMP JUMPDEST PUSH1 0x1 PUSH1 0x1 PUSH1 0x80 SHL SUB AND PUSH1 0x1 PUSH1 0x1 PUSH1 0x40 SHL SUB DUP2 GT ISZERO PUSH2 0x4536 JUMPI PUSH2 0x4536 PUSH2 0x509D JUMP JUMPDEST PUSH1 0x40 MLOAD SWAP1 DUP1 DUP3 MSTORE DUP1 PUSH1 0x20 MUL PUSH1 0x20 ADD DUP3 ADD PUSH1 0x40 MSTORE DUP1 ISZERO PUSH2 0x456F JUMPI DUP2 PUSH1 0x20 ADD JUMPDEST PUSH2 0x455C PUSH2 0x4F6C JUMP JUMPDEST DUP2 MSTORE PUSH1 0x20 ADD SWAP1 PUSH1 0x1 SWAP1 SUB SWAP1 DUP2 PUSH2 0x4554 JUMPI SWAP1 POP JUMPDEST POP SWAP1 POP PUSH0 PUSH1 0x1 PUSH1 0x1 PUSH1 0x80 SHL SUB DUP10 AND DUP2 SUB PUSH2 0x4990 JUMPI PUSH1 0x1 JUMPDEST PUSH1 0x3 SLOAD PUSH1 0x1 PUSH1 0x1 PUSH1 0x80 SHL SUB SWAP1 DUP2 AND SWAP1 DUP3 AND LT DUP1 ISZERO PUSH2 0x45AD JUMPI POP DUP3 MLOAD DUP3 PUSH1 0x1 PUSH1 0x1 PUSH1 0x80 SHL SUB AND LT JUMPDEST ISZERO PUSH2 0x498A JUMPI PUSH0 JUMPDEST PUSH1 0x1 PUSH1 0x1 PUSH1 0x80 SHL SUB DUP3 AND PUSH0 SWAP1 DUP2 MSTORE PUSH1 0xE PUSH1 0x20 MSTORE PUSH1 0x40 SWAP1 KECCAK256 SLOAD DUP2 LT DUP1 ISZERO PUSH2 0x45E3 JUMPI POP DUP4 MLOAD DUP4 PUSH1 0x1 PUSH1 0x1 PUSH1 0x80 SHL SUB AND LT JUMPDEST ISZERO PUSH2 0x4977 JUMPI PUSH1 0x1 PUSH1 0x1 PUSH1 0x80 SHL SUB DUP3 AND PUSH0 SWAP1 DUP2 MSTORE PUSH1 0xE PUSH1 0x20 MSTORE PUSH1 0x40 DUP2 KECCAK256 DUP1 SLOAD DUP4 SWAP1 DUP2 LT PUSH2 0x4611 JUMPI PUSH2 0x4611 PUSH2 0x5AC2 JUMP JUMPDEST PUSH0 SWAP2 DUP3 MSTORE PUSH1 0x20 DUP1 DUP4 KECCAK256 PUSH1 0x2 DUP4 DIV ADD SLOAD PUSH1 0x1 PUSH1 0x1 PUSH1 0x80 SHL SUB DUP8 DUP2 AND DUP6 MSTORE PUSH1 0x5 DUP4 MSTORE PUSH1 0x40 DUP1 DUP7 KECCAK256 PUSH1 0x10 PUSH1 0x1 SWAP7 DUP8 AND MUL PUSH2 0x100 EXP SWAP1 SWAP4 DIV DUP3 AND DUP1 DUP8 MSTORE SWAP3 DUP5 MSTORE DUP1 DUP7 KECCAK256 DUP2 MLOAD PUSH2 0x120 DUP2 ADD DUP4 MSTORE DUP2 SLOAD DUP1 DUP6 AND DUP3 MSTORE PUSH1 0x1 PUSH1 0x80 SHL SWAP1 DIV SWAP1 SWAP4 AND SWAP5 DUP4 ADD SWAP5 SWAP1 SWAP5 MSTORE SWAP4 DUP4 ADD DUP1 SLOAD SWAP3 SWAP7 POP SWAP1 SWAP4 DUP5 ADD SWAP2 PUSH2 0x4687 SWAP1 PUSH2 0x5AD6 JUMP JUMPDEST DUP1 PUSH1 0x1F ADD PUSH1 0x20 DUP1 SWAP2 DIV MUL PUSH1 0x20 ADD PUSH1 0x40 MLOAD SWAP1 DUP2 ADD PUSH1 0x40 MSTORE DUP1 SWAP3 SWAP2 SWAP1 DUP2 DUP2 MSTORE PUSH1 0x20 ADD DUP3 DUP1 SLOAD PUSH2 0x46B3 SWAP1 PUSH2 0x5AD6 JUMP JUMPDEST DUP1 ISZERO PUSH2 0x46FE JUMPI DUP1 PUSH1 0x1F LT PUSH2 0x46D5 JUMPI PUSH2 0x100 DUP1 DUP4 SLOAD DIV MUL DUP4 MSTORE SWAP2 PUSH1 0x20 ADD SWAP2 PUSH2 0x46FE JUMP JUMPDEST DUP3 ADD SWAP2 SWAP1 PUSH0 MSTORE PUSH1 0x20 PUSH0 KECCAK256 SWAP1 JUMPDEST DUP2 SLOAD DUP2 MSTORE SWAP1 PUSH1 0x1 ADD SWAP1 PUSH1 0x20 ADD DUP1 DUP4 GT PUSH2 0x46E1 JUMPI DUP3 SWAP1 SUB PUSH1 0x1F AND DUP3 ADD SWAP2 JUMPDEST POP POP POP SWAP2 DUP4 MSTORE POP POP PUSH1 0x2 DUP3 ADD SLOAD PUSH1 0x1 PUSH1 0x1 PUSH1 0x80 SHL SUB DUP2 AND PUSH1 0x20 DUP4 ADD MSTORE PUSH1 0x1 PUSH1 0x80 SHL SWAP1 DIV PUSH1 0xFF AND ISZERO ISZERO PUSH1 0x40 DUP3 ADD MSTORE PUSH1 0x3 DUP3 ADD DUP1 SLOAD PUSH1 0x60 SWAP1 SWAP3 ADD SWAP2 PUSH2 0x4740 SWAP1 PUSH2 0x5AD6 JUMP JUMPDEST DUP1 PUSH1 0x1F ADD PUSH1 0x20 DUP1 SWAP2 DIV MUL PUSH1 0x20 ADD PUSH1 0x40 MLOAD SWAP1 DUP2 ADD PUSH1 0x40 MSTORE DUP1 SWAP3 SWAP2 SWAP1 DUP2 DUP2 MSTORE PUSH1 0x20 ADD DUP3 DUP1 SLOAD PUSH2 0x476C SWAP1 PUSH2 0x5AD6 JUMP JUMPDEST DUP1 ISZERO PUSH2 0x47B7 JUMPI DUP1 PUSH1 0x1F LT PUSH2 0x478E JUMPI PUSH2 0x100 DUP1 DUP4 SLOAD DIV MUL DUP4 MSTORE SWAP2 PUSH1 0x20 ADD SWAP2 PUSH2 0x47B7 JUMP JUMPDEST DUP3 ADD SWAP2 SWAP1 PUSH0 MSTORE PUSH1 0x20 PUSH0 KECCAK256 SWAP1 JUMPDEST DUP2 SLOAD DUP2 MSTORE SWAP1 PUSH1 0x1 ADD SWAP1 PUSH1 0x20 ADD DUP1 DUP4 GT PUSH2 0x479A JUMPI DUP3 SWAP1 SUB PUSH1 0x1F AND DUP3 ADD SWAP2 JUMPDEST POP POP POP POP POP DUP2 MSTORE PUSH1 0x20 ADD PUSH1 0x4 DUP3 ADD DUP1 SLOAD PUSH2 0x47D0 SWAP1 PUSH2 0x5AD6 JUMP JUMPDEST DUP1 PUSH1 0x1F ADD PUSH1 0x20 DUP1 SWAP2 DIV MUL PUSH1 0x20 ADD PUSH1 0x40 MLOAD SWAP1 DUP2 ADD PUSH1 0x40 MSTORE DUP1 SWAP3 SWAP2 SWAP1 DUP2 DUP2 MSTORE PUSH1 0x20 ADD DUP3 DUP1 SLOAD PUSH2 0x47FC SWAP1 PUSH2 0x5AD6 JUMP JUMPDEST DUP1 ISZERO PUSH2 0x4847 JUMPI DUP1 PUSH1 0x1F LT PUSH2 0x481E JUMPI PUSH2 0x100 DUP1 DUP4 SLOAD DIV MUL DUP4 MSTORE SWAP2 PUSH1 0x20 ADD SWAP2 PUSH2 0x4847 JUMP JUMPDEST DUP3 ADD SWAP2 SWAP1 PUSH0 MSTORE PUSH1 0x20 PUSH0 KECCAK256 SWAP1 JUMPDEST DUP2 SLOAD DUP2 MSTORE SWAP1 PUSH1 0x1 ADD SWAP1 PUSH1 0x20 ADD DUP1 DUP4 GT PUSH2 0x482A JUMPI DUP3 SWAP1 SUB PUSH1 0x1F AND DUP3 ADD SWAP2 JUMPDEST POP POP POP SWAP2 DUP4 MSTORE POP POP PUSH1 0x5 SWAP2 SWAP1 SWAP2 ADD SLOAD PUSH1 0x1 PUSH1 0x1 PUSH1 0x80 SHL SUB DUP1 DUP3 AND PUSH1 0x20 DUP5 ADD MSTORE PUSH1 0x1 PUSH1 0x80 SHL SWAP1 SWAP2 DIV DUP2 AND PUSH1 0x40 SWAP1 SWAP3 ADD SWAP2 SWAP1 SWAP2 MSTORE DUP2 MLOAD SWAP2 SWAP3 POP AND ISZERO DUP1 ISZERO SWAP1 PUSH2 0x48F3 JUMPI POP DUP12 MLOAD ISZERO DUP1 PUSH2 0x48BF JUMPI POP DUP8 DUP2 PUSH1 0x40 ADD MLOAD PUSH1 0x40 MLOAD PUSH1 0x20 ADD PUSH2 0x48A7 SWAP2 SWAP1 PUSH2 0x5F05 JUMP JUMPDEST PUSH1 0x40 MLOAD PUSH1 0x20 DUP2 DUP4 SUB SUB DUP2 MSTORE SWAP1 PUSH1 0x40 MSTORE DUP1 MLOAD SWAP1 PUSH1 0x20 ADD KECCAK256 EQ JUMPDEST DUP1 PUSH2 0x48F3 JUMPI POP DUP8 DUP2 PUSH1 0xC0 ADD MLOAD PUSH1 0x40 MLOAD PUSH1 0x20 ADD PUSH2 0x48DB SWAP2 SWAP1 PUSH2 0x5F05 JUMP JUMPDEST PUSH1 0x40 MLOAD PUSH1 0x20 DUP2 DUP4 SUB SUB DUP2 MSTORE SWAP1 PUSH1 0x40 MSTORE DUP1 MLOAD SWAP1 PUSH1 0x20 ADD KECCAK256 EQ JUMPDEST ISZERO PUSH2 0x4962 JUMPI DUP11 PUSH1 0x1 PUSH1 0x1 PUSH1 0x80 SHL SUB AND DUP6 PUSH1 0x1 PUSH1 0x1 PUSH1 0x80 SHL SUB AND LT PUSH2 0x4954 JUMPI DUP1 DUP7 PUSH2 0x491D DUP14 DUP9 PUSH2 0x5C15 JUMP JUMPDEST PUSH1 0x1 PUSH1 0x1 PUSH1 0x80 SHL SUB AND DUP2 MLOAD DUP2 LT PUSH2 0x4936 JUMPI PUSH2 0x4936 PUSH2 0x5AC2 JUMP JUMPDEST PUSH1 0x20 MUL PUSH1 0x20 ADD ADD DUP2 SWAP1 MSTORE POP DUP5 DUP1 PUSH2 0x494C SWAP1 PUSH2 0x5E89 JUMP JUMPDEST SWAP6 POP POP PUSH2 0x4962 JUMP JUMPDEST DUP5 PUSH2 0x495E DUP2 PUSH2 0x5E89 JUMP JUMPDEST SWAP6 POP POP JUMPDEST POP POP DUP1 DUP1 PUSH2 0x496F SWAP1 PUSH2 0x5F1B JUMP JUMPDEST SWAP2 POP POP PUSH2 0x45B4 JUMP JUMPDEST POP DUP1 PUSH2 0x4982 DUP2 PUSH2 0x5E89 JUMP JUMPDEST SWAP2 POP POP PUSH2 0x4586 JUMP JUMPDEST POP PUSH2 0x4D57 JUMP JUMPDEST PUSH0 JUMPDEST PUSH1 0x1 PUSH1 0x1 PUSH1 0x80 SHL SUB DUP11 AND PUSH0 SWAP1 DUP2 MSTORE PUSH1 0xE PUSH1 0x20 MSTORE PUSH1 0x40 SWAP1 KECCAK256 SLOAD DUP2 LT DUP1 ISZERO PUSH2 0x49C1 JUMPI POP DUP3 MLOAD DUP3 PUSH1 0x1 PUSH1 0x1 PUSH1 0x80 SHL SUB AND LT JUMPDEST ISZERO PUSH2 0x4D55 JUMPI PUSH1 0x1 PUSH1 0x1 PUSH1 0x80 SHL SUB DUP11 AND PUSH0 SWAP1 DUP2 MSTORE PUSH1 0xE PUSH1 0x20 MSTORE PUSH1 0x40 DUP2 KECCAK256 DUP1 SLOAD DUP4 SWAP1 DUP2 LT PUSH2 0x49EF JUMPI PUSH2 0x49EF PUSH2 0x5AC2 JUMP JUMPDEST PUSH0 SWAP2 DUP3 MSTORE PUSH1 0x20 DUP1 DUP4 KECCAK256 PUSH1 0x2 DUP4 DIV ADD SLOAD PUSH1 0x1 PUSH1 0x1 PUSH1 0x80 SHL SUB DUP16 DUP2 AND DUP6 MSTORE PUSH1 0x5 DUP4 MSTORE PUSH1 0x40 DUP1 DUP7 KECCAK256 PUSH1 0x10 PUSH1 0x1 SWAP7 DUP8 AND MUL PUSH2 0x100 EXP SWAP1 SWAP4 DIV DUP3 AND DUP1 DUP8 MSTORE SWAP3 DUP5 MSTORE DUP1 DUP7 KECCAK256 DUP2 MLOAD PUSH2 0x120 DUP2 ADD DUP4 MSTORE DUP2 SLOAD DUP1 DUP6 AND DUP3 MSTORE PUSH1 0x1 PUSH1 0x80 SHL SWAP1 DIV SWAP1 SWAP4 AND SWAP5 DUP4 ADD SWAP5 SWAP1 SWAP5 MSTORE SWAP4 DUP4 ADD DUP1 SLOAD SWAP3 SWAP7 POP SWAP1 SWAP4 DUP5 ADD SWAP2 PUSH2 0x4A65 SWAP1 PUSH2 0x5AD6 JUMP JUMPDEST DUP1 PUSH1 0x1F ADD PUSH1 0x20 DUP1 SWAP2 DIV MUL PUSH1 0x20 ADD PUSH1 0x40 MLOAD SWAP1 DUP2 ADD PUSH1 0x40 MSTORE DUP1 SWAP3 SWAP2 SWAP1 DUP2 DUP2 MSTORE PUSH1 0x20 ADD DUP3 DUP1 SLOAD PUSH2 0x4A91 SWAP1 PUSH2 0x5AD6 JUMP JUMPDEST DUP1 ISZERO PUSH2 0x4ADC JUMPI DUP1 PUSH1 0x1F LT PUSH2 0x4AB3 JUMPI PUSH2 0x100 DUP1 DUP4 SLOAD DIV MUL DUP4 MSTORE SWAP2 PUSH1 0x20 ADD SWAP2 PUSH2 0x4ADC JUMP JUMPDEST DUP3 ADD SWAP2 SWAP1 PUSH0 MSTORE PUSH1 0x20 PUSH0 KECCAK256 SWAP1 JUMPDEST DUP2 SLOAD DUP2 MSTORE SWAP1 PUSH1 0x1 ADD SWAP1 PUSH1 0x20 ADD DUP1 DUP4 GT PUSH2 0x4ABF JUMPI DUP3 SWAP1 SUB PUSH1 0x1F AND DUP3 ADD SWAP2 JUMPDEST POP POP POP SWAP2 DUP4 MSTORE POP POP PUSH1 0x2 DUP3 ADD SLOAD PUSH1 0x1 PUSH1 0x1 PUSH1 0x80 SHL SUB DUP2 AND PUSH1 0x20 DUP4 ADD MSTORE PUSH1 0x1 PUSH1 0x80 SHL SWAP1 DIV PUSH1 0xFF AND ISZERO ISZERO PUSH1 0x40 DUP3 ADD MSTORE PUSH1 0x3 DUP3 ADD DUP1 SLOAD PUSH1 0x60 SWAP1 SWAP3 ADD SWAP2 PUSH2 0x4B1E SWAP1 PUSH2 0x5AD6 JUMP JUMPDEST DUP1 PUSH1 0x1F ADD PUSH1 0x20 DUP1 SWAP2 DIV MUL PUSH1 0x20 ADD PUSH1 0x40 MLOAD SWAP1 DUP2 ADD PUSH1 0x40 MSTORE DUP1 SWAP3 SWAP2 SWAP1 DUP2 DUP2 MSTORE PUSH1 0x20 ADD DUP3 DUP1 SLOAD PUSH2 0x4B4A SWAP1 PUSH2 0x5AD6 JUMP JUMPDEST DUP1 ISZERO PUSH2 0x4B95 JUMPI DUP1 PUSH1 0x1F LT PUSH2 0x4B6C JUMPI PUSH2 0x100 DUP1 DUP4 SLOAD DIV MUL DUP4 MSTORE SWAP2 PUSH1 0x20 ADD SWAP2 PUSH2 0x4B95 JUMP JUMPDEST DUP3 ADD SWAP2 SWAP1 PUSH0 MSTORE PUSH1 0x20 PUSH0 KECCAK256 SWAP1 JUMPDEST DUP2 SLOAD DUP2 MSTORE SWAP1 PUSH1 0x1 ADD SWAP1 PUSH1 0x20 ADD DUP1 DUP4 GT PUSH2 0x4B78 JUMPI DUP3 SWAP1 SUB PUSH1 0x1F AND DUP3 ADD SWAP2 JUMPDEST POP POP POP POP POP DUP2 MSTORE PUSH1 0x20 ADD PUSH1 0x4 DUP3 ADD DUP1 SLOAD PUSH2 0x4BAE SWAP1 PUSH2 0x5AD6 JUMP JUMPDEST DUP1 PUSH1 0x1F ADD PUSH1 0x20 DUP1 SWAP2 DIV MUL PUSH1 0x20 ADD PUSH1 0x40 MLOAD SWAP1 DUP2 ADD PUSH1 0x40 MSTORE DUP1 SWAP3 SWAP2 SWAP1 DUP2 DUP2 MSTORE PUSH1 0x20 ADD DUP3 DUP1 SLOAD PUSH2 0x4BDA SWAP1 PUSH2 0x5AD6 JUMP JUMPDEST DUP1 ISZERO PUSH2 0x4C25 JUMPI DUP1 PUSH1 0x1F LT PUSH2 0x4BFC JUMPI PUSH2 0x100 DUP1 DUP4 SLOAD DIV MUL DUP4 MSTORE SWAP2 PUSH1 0x20 ADD SWAP2 PUSH2 0x4C25 JUMP JUMPDEST DUP3 ADD SWAP2 SWAP1 PUSH0 MSTORE PUSH1 0x20 PUSH0 KECCAK256 SWAP1 JUMPDEST DUP2 SLOAD DUP2 MSTORE SWAP1 PUSH1 0x1 ADD SWAP1 PUSH1 0x20 ADD DUP1 DUP4 GT PUSH2 0x4C08 JUMPI DUP3 SWAP1 SUB PUSH1 0x1F AND DUP3 ADD SWAP2 JUMPDEST POP POP POP SWAP2 DUP4 MSTORE POP POP PUSH1 0x5 SWAP2 SWAP1 SWAP2 ADD SLOAD PUSH1 0x1 PUSH1 0x1 PUSH1 0x80 SHL SUB DUP1 DUP3 AND PUSH1 0x20 DUP5 ADD MSTORE PUSH1 0x1 PUSH1 0x80 SHL SWAP1 SWAP2 DIV DUP2 AND PUSH1 0x40 SWAP1 SWAP3 ADD SWAP2 SWAP1 SWAP2 MSTORE DUP2 MLOAD SWAP2 SWAP3 POP AND ISZERO DUP1 ISZERO SWAP1 PUSH2 0x4CD1 JUMPI POP DUP11 MLOAD ISZERO DUP1 PUSH2 0x4C9D JUMPI POP DUP7 DUP2 PUSH1 0x40 ADD MLOAD PUSH1 0x40 MLOAD PUSH1 0x20 ADD PUSH2 0x4C85 SWAP2 SWAP1 PUSH2 0x5F05 JUMP JUMPDEST PUSH1 0x40 MLOAD PUSH1 0x20 DUP2 DUP4 SUB SUB DUP2 MSTORE SWAP1 PUSH1 0x40 MSTORE DUP1 MLOAD SWAP1 PUSH1 0x20 ADD KECCAK256 EQ JUMPDEST DUP1 PUSH2 0x4CD1 JUMPI POP DUP7 DUP2 PUSH1 0xC0 ADD MLOAD PUSH1 0x40 MLOAD PUSH1 0x20 ADD PUSH2 0x4CB9 SWAP2 SWAP1 PUSH2 0x5F05 JUMP JUMPDEST PUSH1 0x40 MLOAD PUSH1 0x20 DUP2 DUP4 SUB SUB DUP2 MSTORE SWAP1 PUSH1 0x40 MSTORE DUP1 MLOAD SWAP1 PUSH1 0x20 ADD KECCAK256 EQ JUMPDEST ISZERO PUSH2 0x4D40 JUMPI DUP10 PUSH1 0x1 PUSH1 0x1 PUSH1 0x80 SHL SUB AND DUP5 PUSH1 0x1 PUSH1 0x1 PUSH1 0x80 SHL SUB AND LT PUSH2 0x4D32 JUMPI DUP1 DUP6 PUSH2 0x4CFB DUP13 DUP8 PUSH2 0x5C15 JUMP JUMPDEST PUSH1 0x1 PUSH1 0x1 PUSH1 0x80 SHL SUB AND DUP2 MLOAD DUP2 LT PUSH2 0x4D14 JUMPI PUSH2 0x4D14 PUSH2 0x5AC2 JUMP JUMPDEST PUSH1 0x20 MUL PUSH1 0x20 ADD ADD DUP2 SWAP1 MSTORE POP DUP4 DUP1 PUSH2 0x4D2A SWAP1 PUSH2 0x5E89 JUMP JUMPDEST SWAP5 POP POP PUSH2 0x4D40 JUMP JUMPDEST DUP4 PUSH2 0x4D3C DUP2 PUSH2 0x5E89 JUMP JUMPDEST SWAP5 POP POP JUMPDEST POP POP DUP1 DUP1 PUSH2 0x4D4D SWAP1 PUSH2 0x5F1B JUMP JUMPDEST SWAP2 POP POP PUSH2 0x4992 JUMP JUMPDEST POP JUMPDEST POP SWAP8 SWAP7 POP POP POP POP POP POP POP JUMP JUMPDEST PUSH1 0x2 PUSH0 SLOAD SUB PUSH2 0x4DB4 JUMPI PUSH1 0x40 MLOAD PUSH3 0x461BCD PUSH1 0xE5 SHL DUP2 MSTORE PUSH1 0x20 PUSH1 0x4 DUP3 ADD MSTORE PUSH1 0x1F PUSH1 0x24 DUP3 ADD MSTORE PUSH32 0x5265656E7472616E637947756172643A207265656E7472616E742063616C6C00 PUSH1 0x44 DUP3 ADD MSTORE PUSH1 0x64 ADD PUSH2 0x7D8 JUMP JUMPDEST PUSH1 0x2 PUSH0 SSTORE JUMP JUMPDEST PUSH1 0x1 SLOAD PUSH1 0x1 PUSH1 0x1 PUSH1 0xA0 SHL SUB AND CALLER EQ PUSH2 0x1FAC JUMPI PUSH1 0x40 MLOAD PUSH4 0x118CDAA7 PUSH1 0xE0 SHL DUP2 MSTORE CALLER PUSH1 0x4 DUP3 ADD MSTORE PUSH1 0x24 ADD PUSH2 0x7D8 JUMP JUMPDEST PUSH1 0x1 DUP1 SLOAD PUSH1 0x1 PUSH1 0x1 PUSH1 0xA0 SHL SUB DUP4 DUP2 AND PUSH1 0x1 PUSH1 0x1 PUSH1 0xA0 SHL SUB NOT DUP4 AND DUP2 OR SWAP1 SWAP4 SSTORE PUSH1 0x40 MLOAD SWAP2 AND SWAP2 SWAP1 DUP3 SWAP1 PUSH32 0x8BE0079C531659141344CD1FD0A4F28419497F9722A3DAAFE3B4186F6B6457E0 SWAP1 PUSH0 SWAP1 LOG3 POP POP JUMP JUMPDEST DUP1 SELFBALANCE LT ISZERO PUSH2 0x4E62 JUMPI PUSH1 0x40 MLOAD PUSH4 0xCF479181 PUSH1 0xE0 SHL DUP2 MSTORE SELFBALANCE PUSH1 0x4 DUP3 ADD MSTORE PUSH1 0x24 DUP2 ADD DUP3 SWAP1 MSTORE PUSH1 0x44 ADD PUSH2 0x7D8 JUMP JUMPDEST PUSH0 PUSH0 DUP4 PUSH1 0x1 PUSH1 0x1 PUSH1 0xA0 SHL SUB AND DUP4 PUSH1 0x40 MLOAD PUSH0 PUSH1 0x40 MLOAD DUP1 DUP4 SUB DUP2 DUP6 DUP8 GAS CALL SWAP3 POP POP POP RETURNDATASIZE DUP1 PUSH0 DUP2 EQ PUSH2 0x4EAC JUMPI PUSH1 0x40 MLOAD SWAP2 POP PUSH1 0x1F NOT PUSH1 0x3F RETURNDATASIZE ADD AND DUP3 ADD PUSH1 0x40 MSTORE RETURNDATASIZE DUP3 MSTORE RETURNDATASIZE PUSH0 PUSH1 0x20 DUP5 ADD RETURNDATACOPY PUSH2 0x4EB1 JUMP JUMPDEST PUSH1 0x60 SWAP2 POP JUMPDEST POP SWAP2 POP SWAP2 POP DUP2 PUSH2 0x4EC4 JUMPI PUSH2 0x4EC4 DUP2 PUSH2 0x4ECA JUMP JUMPDEST POP POP POP POP JUMP JUMPDEST DUP1 MLOAD ISZERO PUSH2 0x4EDA JUMPI DUP1 MLOAD DUP1 DUP3 PUSH1 0x20 ADD REVERT JUMPDEST PUSH1 0x40 MLOAD PUSH4 0xD6BDA275 PUSH1 0xE0 SHL DUP2 MSTORE PUSH1 0x4 ADD PUSH1 0x40 MLOAD DUP1 SWAP2 SUB SWAP1 REVERT JUMPDEST PUSH1 0x40 DUP1 MLOAD PUSH2 0x100 DUP2 ADD DUP3 MSTORE PUSH0 DUP1 DUP3 MSTORE PUSH1 0x20 DUP3 ADD DUP2 SWAP1 MSTORE SWAP2 DUP2 ADD DUP3 SWAP1 MSTORE PUSH1 0x60 DUP1 DUP3 ADD DUP2 SWAP1 MSTORE PUSH1 0x80 DUP3 ADD MSTORE PUSH1 0xA0 DUP2 ADD DUP3 SWAP1 MSTORE SWAP1 PUSH1 0xC0 DUP3 ADD SWAP1 DUP2 MSTORE PUSH0 PUSH1 0x20 SWAP1 SWAP2 ADD MSTORE SWAP1 JUMP JUMPDEST POP DUP1 SLOAD PUSH2 0x4F41 SWAP1 PUSH2 0x5AD6 JUMP JUMPDEST PUSH0 DUP3 SSTORE DUP1 PUSH1 0x1F LT PUSH2 0x4F50 JUMPI POP POP JUMP JUMPDEST PUSH1 0x1F ADD PUSH1 0x20 SWAP1 DIV SWAP1 PUSH0 MSTORE PUSH1 0x20 PUSH0 KECCAK256 SWAP1 DUP2 ADD SWAP1 PUSH2 0x11CC SWAP2 SWAP1 PUSH2 0x506E JUMP JUMPDEST PUSH1 0x40 DUP1 MLOAD PUSH2 0x120 DUP2 ADD DUP3 MSTORE PUSH0 DUP1 DUP3 MSTORE PUSH1 0x20 DUP3 ADD DUP2 SWAP1 MSTORE PUSH1 0x60 SWAP3 DUP3 ADD DUP4 SWAP1 MSTORE DUP3 DUP3 ADD DUP2 SWAP1 MSTORE PUSH1 0x80 DUP3 ADD DUP2 SWAP1 MSTORE PUSH1 0xA0 DUP3 ADD DUP4 SWAP1 MSTORE PUSH1 0xC0 DUP3 ADD SWAP3 SWAP1 SWAP3 MSTORE PUSH1 0xE0 DUP2 ADD DUP3 SWAP1 MSTORE PUSH2 0x100 DUP2 ADD SWAP2 SWAP1 SWAP2 MSTORE SWAP1 JUMP JUMPDEST DUP3 DUP1 SLOAD DUP3 DUP3 SSTORE SWAP1 PUSH0 MSTORE PUSH1 0x20 PUSH0 KECCAK256 SWAP1 PUSH1 0x1 ADD PUSH1 0x2 SWAP1 DIV DUP2 ADD SWAP3 DUP3 ISZERO PUSH2 0x505E JUMPI SWAP2 PUSH1 0x20 MUL DUP3 ADD PUSH0 JUMPDEST DUP4 DUP3 GT ISZERO PUSH2 0x5029 JUMPI DUP4 MLOAD DUP4 DUP3 PUSH2 0x100 EXP DUP2 SLOAD DUP2 PUSH1 0x1 PUSH1 0x1 PUSH1 0x80 SHL SUB MUL NOT AND SWAP1 DUP4 PUSH1 0x1 PUSH1 0x1 PUSH1 0x80 SHL SUB AND MUL OR SWAP1 SSTORE POP SWAP3 PUSH1 0x20 ADD SWAP3 PUSH1 0x10 ADD PUSH1 0x20 DUP2 PUSH1 0xF ADD DIV SWAP3 DUP4 ADD SWAP3 PUSH1 0x1 SUB MUL PUSH2 0x4FDF JUMP JUMPDEST DUP1 ISZERO PUSH2 0x505C JUMPI DUP3 DUP2 PUSH2 0x100 EXP DUP2 SLOAD SWAP1 PUSH1 0x1 PUSH1 0x1 PUSH1 0x80 SHL SUB MUL NOT AND SWAP1 SSTORE PUSH1 0x10 ADD PUSH1 0x20 DUP2 PUSH1 0xF ADD DIV SWAP3 DUP4 ADD SWAP3 PUSH1 0x1 SUB MUL PUSH2 0x5029 JUMP JUMPDEST POP JUMPDEST POP PUSH2 0x506A SWAP3 SWAP2 POP PUSH2 0x506E JUMP JUMPDEST POP SWAP1 JUMP JUMPDEST JUMPDEST DUP1 DUP3 GT ISZERO PUSH2 0x506A JUMPI PUSH0 DUP2 SSTORE PUSH1 0x1 ADD PUSH2 0x506F JUMP JUMPDEST DUP1 CALLDATALOAD PUSH1 0x1 PUSH1 0x1 PUSH1 0x80 SHL SUB DUP2 AND DUP2 EQ PUSH2 0x5098 JUMPI PUSH0 PUSH0 REVERT JUMPDEST SWAP2 SWAP1 POP JUMP JUMPDEST PUSH4 0x4E487B71 PUSH1 0xE0 SHL PUSH0 MSTORE PUSH1 0x41 PUSH1 0x4 MSTORE PUSH1 0x24 PUSH0 REVERT JUMPDEST PUSH1 0x40 MLOAD PUSH1 0x1F DUP3 ADD PUSH1 0x1F NOT AND DUP2 ADD PUSH1 0x1 PUSH1 0x1 PUSH1 0x40 SHL SUB DUP2 GT DUP3 DUP3 LT OR ISZERO PUSH2 0x50D9 JUMPI PUSH2 0x50D9 PUSH2 0x509D JUMP JUMPDEST PUSH1 0x40 MSTORE SWAP2 SWAP1 POP JUMP JUMPDEST PUSH0 DUP3 PUSH1 0x1F DUP4 ADD SLT PUSH2 0x50F0 JUMPI PUSH0 PUSH0 REVERT JUMPDEST DUP2 CALLDATALOAD PUSH1 0x1 PUSH1 0x1 PUSH1 0x40 SHL SUB DUP2 GT ISZERO PUSH2 0x5109 JUMPI PUSH2 0x5109 PUSH2 0x509D JUMP JUMPDEST DUP1 PUSH1 0x5 SHL PUSH2 0x5119 PUSH1 0x20 DUP3 ADD PUSH2 0x50B1 JUMP JUMPDEST SWAP2 DUP3 MSTORE PUSH1 0x20 DUP2 DUP6 ADD DUP2 ADD SWAP3 SWAP1 DUP2 ADD SWAP1 DUP7 DUP5 GT ISZERO PUSH2 0x5134 JUMPI PUSH0 PUSH0 REVERT JUMPDEST PUSH1 0x20 DUP7 ADD SWAP3 POP JUMPDEST DUP4 DUP4 LT ISZERO PUSH2 0x515D JUMPI PUSH2 0x514C DUP4 PUSH2 0x5082 JUMP JUMPDEST DUP3 MSTORE PUSH1 0x20 SWAP3 DUP4 ADD SWAP3 SWAP1 SWAP2 ADD SWAP1 PUSH2 0x513B JUMP JUMPDEST SWAP7 SWAP6 POP POP POP POP POP POP JUMP JUMPDEST PUSH0 PUSH0 PUSH0 PUSH1 0x60 DUP5 DUP7 SUB SLT ISZERO PUSH2 0x5179 JUMPI PUSH0 PUSH0 REVERT JUMPDEST PUSH2 0x5182 DUP5 PUSH2 0x5082 JUMP JUMPDEST SWAP3 POP PUSH1 0x20 DUP5 ADD CALLDATALOAD PUSH1 0x1 PUSH1 0x1 PUSH1 0x40 SHL SUB DUP2 GT ISZERO PUSH2 0x519C JUMPI PUSH0 PUSH0 REVERT JUMPDEST PUSH2 0x51A8 DUP7 DUP3 DUP8 ADD PUSH2 0x50E1 JUMP JUMPDEST SWAP3 POP POP PUSH1 0x40 DUP5 ADD CALLDATALOAD PUSH1 0x1 PUSH1 0x1 PUSH1 0x40 SHL SUB DUP2 GT ISZERO PUSH2 0x51C3 JUMPI PUSH0 PUSH0 REVERT JUMPDEST PUSH2 0x51CF DUP7 DUP3 DUP8 ADD PUSH2 0x50E1 JUMP JUMPDEST SWAP2 POP POP SWAP3 POP SWAP3 POP SWAP3 JUMP JUMPDEST PUSH0 PUSH0 PUSH1 0x40 DUP4 DUP6 SUB SLT ISZERO PUSH2 0x51EA JUMPI PUSH0 PUSH0 REVERT JUMPDEST PUSH2 0x51F3 DUP4 PUSH2 0x5082 JUMP JUMPDEST SWAP2 POP PUSH2 0x5201 PUSH1 0x20 DUP5 ADD PUSH2 0x5082 JUMP JUMPDEST SWAP1 POP SWAP3 POP SWAP3 SWAP1 POP JUMP JUMPDEST DUP1 CALLDATALOAD PUSH1 0x1 PUSH1 0x1 PUSH1 0xA0 SHL SUB DUP2 AND DUP2 EQ PUSH2 0x5098 JUMPI PUSH0 PUSH0 REVERT JUMPDEST PUSH0 PUSH0 PUSH1 0x40 DUP4 DUP6 SUB SLT ISZERO PUSH2 0x5231 JUMPI PUSH0 PUSH0 REVERT JUMPDEST PUSH2 0x523A DUP4 PUSH2 0x520A JUMP JUMPDEST SWAP5 PUSH1 0x20 SWAP4 SWAP1 SWAP4 ADD CALLDATALOAD SWAP4 POP POP POP JUMP JUMPDEST PUSH0 DUP2 MLOAD DUP1 DUP5 MSTORE PUSH1 0x20 DUP5 ADD SWAP4 POP PUSH1 0x20 DUP4 ADD PUSH0 JUMPDEST DUP3 DUP2 LT ISZERO PUSH2 0x5281 JUMPI DUP2 MLOAD PUSH1 0x1 PUSH1 0x1 PUSH1 0x80 SHL SUB AND DUP7 MSTORE PUSH1 0x20 SWAP6 DUP7 ADD SWAP6 SWAP1 SWAP2 ADD SWAP1 PUSH1 0x1 ADD PUSH2 0x525A JUMP JUMPDEST POP SWAP4 SWAP5 SWAP4 POP POP POP POP JUMP JUMPDEST PUSH4 0x4E487B71 PUSH1 0xE0 SHL PUSH0 MSTORE PUSH1 0x21 PUSH1 0x4 MSTORE PUSH1 0x24 PUSH0 REVERT JUMPDEST PUSH1 0x6 DUP2 LT PUSH2 0x52AF JUMPI PUSH2 0x52AF PUSH2 0x528B JUMP JUMPDEST SWAP1 MSTORE JUMP JUMPDEST PUSH1 0x1 PUSH1 0x1 PUSH1 0x80 SHL SUB DUP2 MLOAD AND DUP3 MSTORE PUSH0 PUSH1 0x20 DUP3 ADD MLOAD PUSH2 0x52DB PUSH1 0x20 DUP6 ADD DUP3 PUSH1 0x1 PUSH1 0x1 PUSH1 0xA0 SHL SUB AND SWAP1 MSTORE JUMP JUMPDEST POP PUSH1 0x40 DUP3 ADD MLOAD PUSH2 0x52F6 PUSH1 0x40 DUP6 ADD DUP3 PUSH1 0x1 PUSH1 0x1 PUSH1 0x80 SHL SUB AND SWAP1 MSTORE JUMP JUMPDEST POP PUSH1 0x60 DUP3 ADD MLOAD PUSH2 0x100 PUSH1 0x60 DUP6 ADD MSTORE PUSH2 0x5312 PUSH2 0x100 DUP6 ADD DUP3 PUSH2 0x5248 JUMP JUMPDEST SWAP1 POP PUSH1 0x80 DUP4 ADD MLOAD DUP5 DUP3 SUB PUSH1 0x80 DUP7 ADD MSTORE PUSH2 0x532B DUP3 DUP3 PUSH2 0x5248 JUMP JUMPDEST SWAP2 POP POP PUSH1 0xA0 DUP4 ADD MLOAD PUSH2 0x5348 PUSH1 0xA0 DUP7 ADD DUP3 PUSH1 0x1 PUSH1 0x1 PUSH1 0x80 SHL SUB AND SWAP1 MSTORE JUMP JUMPDEST POP PUSH1 0xC0 DUP4 ADD MLOAD PUSH2 0x535B PUSH1 0xC0 DUP7 ADD DUP3 PUSH2 0x529F JUMP JUMPDEST POP PUSH1 0xE0 DUP4 ADD MLOAD PUSH2 0x5376 PUSH1 0xE0 DUP7 ADD DUP3 PUSH1 0x1 PUSH1 0x1 PUSH1 0x80 SHL SUB AND SWAP1 MSTORE JUMP JUMPDEST POP SWAP4 SWAP3 POP POP POP JUMP JUMPDEST PUSH0 PUSH1 0x20 DUP3 ADD PUSH1 0x20 DUP4 MSTORE DUP1 DUP5 MLOAD DUP1 DUP4 MSTORE PUSH1 0x40 DUP6 ADD SWAP2 POP PUSH1 0x40 DUP2 PUSH1 0x5 SHL DUP7 ADD ADD SWAP3 POP PUSH1 0x20 DUP7 ADD PUSH0 JUMPDEST DUP3 DUP2 LT ISZERO PUSH2 0x53D5 JUMPI PUSH1 0x3F NOT DUP8 DUP7 SUB ADD DUP5 MSTORE PUSH2 0x53C0 DUP6 DUP4 MLOAD PUSH2 0x52B3 JUMP JUMPDEST SWAP5 POP PUSH1 0x20 SWAP4 DUP5 ADD SWAP4 SWAP2 SWAP1 SWAP2 ADD SWAP1 PUSH1 0x1 ADD PUSH2 0x53A4 JUMP JUMPDEST POP SWAP3 SWAP7 SWAP6 POP POP POP POP POP POP JUMP JUMPDEST PUSH0 PUSH0 PUSH1 0x40 DUP4 DUP6 SUB SLT ISZERO PUSH2 0x53F2 JUMPI PUSH0 PUSH0 REVERT JUMPDEST PUSH2 0x523A DUP4 PUSH2 0x5082 JUMP JUMPDEST PUSH0 PUSH1 0x20 DUP3 DUP5 SUB SLT ISZERO PUSH2 0x540B JUMPI PUSH0 PUSH0 REVERT JUMPDEST PUSH2 0xB93 DUP3 PUSH2 0x5082 JUMP JUMPDEST PUSH0 DUP3 PUSH1 0x1F DUP4 ADD SLT PUSH2 0x5423 JUMPI PUSH0 PUSH0 REVERT JUMPDEST DUP2 CALLDATALOAD PUSH1 0x1 PUSH1 0x1 PUSH1 0x40 SHL SUB DUP2 GT ISZERO PUSH2 0x543C JUMPI PUSH2 0x543C PUSH2 0x509D JUMP JUMPDEST PUSH2 0x544F PUSH1 0x1F DUP3 ADD PUSH1 0x1F NOT AND PUSH1 0x20 ADD PUSH2 0x50B1 JUMP JUMPDEST DUP2 DUP2 MSTORE DUP5 PUSH1 0x20 DUP4 DUP7 ADD ADD GT ISZERO PUSH2 0x5463 JUMPI PUSH0 PUSH0 REVERT JUMPDEST DUP2 PUSH1 0x20 DUP6 ADD PUSH1 0x20 DUP4 ADD CALLDATACOPY PUSH0 SWAP2 DUP2 ADD PUSH1 0x20 ADD SWAP2 SWAP1 SWAP2 MSTORE SWAP4 SWAP3 POP POP POP JUMP JUMPDEST PUSH0 PUSH0 PUSH0 PUSH0 PUSH0 PUSH0 PUSH0 PUSH1 0xE0 DUP9 DUP11 SUB SLT ISZERO PUSH2 0x5495 JUMPI PUSH0 PUSH0 REVERT JUMPDEST PUSH2 0x549E DUP9 PUSH2 0x5082 JUMP JUMPDEST SWAP7 POP PUSH2 0x54AC PUSH1 0x20 DUP10 ADD PUSH2 0x5082 JUMP JUMPDEST SWAP6 POP PUSH1 0x40 DUP9 ADD CALLDATALOAD PUSH1 0x1 PUSH1 0x1 PUSH1 0x40 SHL SUB DUP2 GT ISZERO PUSH2 0x54C6 JUMPI PUSH0 PUSH0 REVERT JUMPDEST PUSH2 0x54D2 DUP11 DUP3 DUP12 ADD PUSH2 0x5414 JUMP JUMPDEST SWAP6 POP POP PUSH2 0x54E1 PUSH1 0x60 DUP10 ADD PUSH2 0x5082 JUMP JUMPDEST SWAP4 POP PUSH1 0x80 DUP9 ADD CALLDATALOAD DUP1 ISZERO ISZERO DUP2 EQ PUSH2 0x54F5 JUMPI PUSH0 PUSH0 REVERT JUMPDEST SWAP3 POP PUSH1 0xA0 DUP9 ADD CALLDATALOAD PUSH1 0x1 PUSH1 0x1 PUSH1 0x40 SHL SUB DUP2 GT ISZERO PUSH2 0x550F JUMPI PUSH0 PUSH0 REVERT JUMPDEST PUSH2 0x551B DUP11 DUP3 DUP12 ADD PUSH2 0x5414 JUMP JUMPDEST SWAP3 POP POP PUSH1 0xC0 DUP9 ADD CALLDATALOAD PUSH1 0x1 PUSH1 0x1 PUSH1 0x40 SHL SUB DUP2 GT ISZERO PUSH2 0x5536 JUMPI PUSH0 PUSH0 REVERT JUMPDEST PUSH2 0x5542 DUP11 DUP3 DUP12 ADD PUSH2 0x5414 JUMP JUMPDEST SWAP2 POP POP SWAP3 SWAP6 SWAP9 SWAP2 SWAP5 SWAP8 POP SWAP3 SWAP6 POP JUMP JUMPDEST PUSH0 PUSH0 PUSH0 PUSH0 PUSH0 PUSH1 0xA0 DUP7 DUP9 SUB SLT ISZERO PUSH2 0x5565 JUMPI PUSH0 PUSH0 REVERT JUMPDEST PUSH2 0x556E DUP7 PUSH2 0x5082 JUMP JUMPDEST SWAP5 POP PUSH1 0x20 DUP7 ADD CALLDATALOAD PUSH1 0x1 PUSH1 0x1 PUSH1 0x40 SHL SUB DUP2 GT ISZERO PUSH2 0x5588 JUMPI PUSH0 PUSH0 REVERT JUMPDEST PUSH2 0x5594 DUP9 DUP3 DUP10 ADD PUSH2 0x5414 JUMP JUMPDEST SWAP5 POP POP PUSH2 0x55A3 PUSH1 0x40 DUP8 ADD PUSH2 0x5082 JUMP JUMPDEST SWAP3 POP PUSH1 0x60 DUP7 ADD CALLDATALOAD PUSH1 0x1 PUSH1 0x1 PUSH1 0x40 SHL SUB DUP2 GT ISZERO PUSH2 0x55BD JUMPI PUSH0 PUSH0 REVERT JUMPDEST PUSH2 0x55C9 DUP9 DUP3 DUP10 ADD PUSH2 0x5414 JUMP JUMPDEST SWAP3 POP POP PUSH1 0x80 DUP7 ADD CALLDATALOAD PUSH1 0x1 PUSH1 0x1 PUSH1 0x40 SHL SUB DUP2 GT ISZERO PUSH2 0x55E4 JUMPI PUSH0 PUSH0 REVERT JUMPDEST PUSH2 0x55F0 DUP9 DUP3 DUP10 ADD PUSH2 0x5414 JUMP JUMPDEST SWAP2 POP POP SWAP3 SWAP6 POP SWAP3 SWAP6 SWAP1 SWAP4 POP JUMP JUMPDEST PUSH0 PUSH0 PUSH1 0x40 DUP4 DUP6 SUB SLT ISZERO PUSH2 0x560E JUMPI PUSH0 PUSH0 REVERT JUMPDEST PUSH2 0x5617 DUP4 PUSH2 0x520A JUMP JUMPDEST SWAP2 POP PUSH1 0x20 DUP4 ADD CALLDATALOAD PUSH1 0x3 DUP2 LT PUSH2 0x562A JUMPI PUSH0 PUSH0 REVERT JUMPDEST DUP1 SWAP2 POP POP SWAP3 POP SWAP3 SWAP1 POP JUMP JUMPDEST PUSH0 DUP2 MLOAD DUP1 DUP5 MSTORE DUP1 PUSH1 0x20 DUP5 ADD PUSH1 0x20 DUP7 ADD MCOPY PUSH0 PUSH1 0x20 DUP3 DUP7 ADD ADD MSTORE PUSH1 0x20 PUSH1 0x1F NOT PUSH1 0x1F DUP4 ADD AND DUP6 ADD ADD SWAP2 POP POP SWAP3 SWAP2 POP POP JUMP JUMPDEST PUSH0 DUP3 DUP3 MLOAD DUP1 DUP6 MSTORE PUSH1 0x20 DUP6 ADD SWAP5 POP PUSH1 0x20 DUP2 PUSH1 0x5 SHL DUP4 ADD ADD PUSH1 0x20 DUP6 ADD PUSH0 JUMPDEST DUP4 DUP2 LT ISZERO PUSH2 0x309E JUMPI DUP5 DUP4 SUB PUSH1 0x1F NOT ADD DUP9 MSTORE DUP2 MLOAD DUP1 MLOAD PUSH1 0x1 PUSH1 0x1 PUSH1 0x80 SHL SUB AND DUP5 MSTORE PUSH1 0x20 DUP2 ADD MLOAD PUSH2 0x56B9 PUSH1 0x20 DUP7 ADD DUP3 PUSH1 0x1 PUSH1 0x1 PUSH1 0x80 SHL SUB AND SWAP1 MSTORE JUMP JUMPDEST POP PUSH1 0x40 DUP2 ADD MLOAD PUSH2 0x120 PUSH1 0x40 DUP7 ADD MSTORE PUSH2 0x56D5 PUSH2 0x120 DUP7 ADD DUP3 PUSH2 0x5635 JUMP JUMPDEST SWAP1 POP PUSH1 0x60 DUP3 ADD MLOAD PUSH2 0x56F1 PUSH1 0x60 DUP8 ADD DUP3 PUSH1 0x1 PUSH1 0x1 PUSH1 0x80 SHL SUB AND SWAP1 MSTORE JUMP JUMPDEST POP PUSH1 0x80 DUP3 ADD MLOAD PUSH2 0x5705 PUSH1 0x80 DUP8 ADD DUP3 ISZERO ISZERO SWAP1 MSTORE JUMP JUMPDEST POP PUSH1 0xA0 DUP3 ADD MLOAD DUP6 DUP3 SUB PUSH1 0xA0 DUP8 ADD MSTORE PUSH2 0x571D DUP3 DUP3 PUSH2 0x5635 JUMP JUMPDEST SWAP2 POP POP PUSH1 0xC0 DUP3 ADD MLOAD DUP6 DUP3 SUB PUSH1 0xC0 DUP8 ADD MSTORE PUSH2 0x5737 DUP3 DUP3 PUSH2 0x5635 JUMP JUMPDEST SWAP2 POP POP PUSH1 0xE0 DUP3 ADD MLOAD PUSH2 0x5754 PUSH1 0xE0 DUP8 ADD DUP3 PUSH1 0x1 PUSH1 0x1 PUSH1 0x80 SHL SUB AND SWAP1 MSTORE JUMP JUMPDEST POP PUSH2 0x100 DUP3 ADD MLOAD SWAP2 POP PUSH2 0x5773 PUSH2 0x100 DUP7 ADD DUP4 PUSH1 0x1 PUSH1 0x1 PUSH1 0x80 SHL SUB AND SWAP1 MSTORE JUMP JUMPDEST PUSH1 0x20 SWAP10 DUP11 ADD SWAP10 SWAP1 SWAP5 POP SWAP3 SWAP1 SWAP3 ADD SWAP2 POP PUSH1 0x1 ADD PUSH2 0x567F JUMP JUMPDEST PUSH1 0x60 DUP2 MSTORE PUSH0 PUSH2 0x579C PUSH1 0x60 DUP4 ADD DUP7 PUSH2 0x52B3 JUMP JUMPDEST DUP3 DUP2 SUB PUSH1 0x20 DUP5 ADD MSTORE PUSH2 0x57AE DUP2 DUP7 PUSH2 0x5663 JUMP JUMPDEST DUP4 DUP2 SUB PUSH1 0x40 DUP6 ADD MSTORE DUP5 MLOAD DUP1 DUP3 MSTORE PUSH1 0x20 DUP1 DUP8 ADD SWAP4 POP SWAP1 SWAP2 ADD SWAP1 PUSH0 JUMPDEST DUP2 DUP2 LT ISZERO PUSH2 0x57EF JUMPI DUP4 MLOAD PUSH1 0x1 PUSH1 0x1 PUSH1 0x80 SHL SUB AND DUP4 MSTORE PUSH1 0x20 SWAP4 DUP5 ADD SWAP4 SWAP1 SWAP3 ADD SWAP2 PUSH1 0x1 ADD PUSH2 0x57C8 JUMP JUMPDEST POP SWAP1 SWAP8 SWAP7 POP POP POP POP POP POP POP JUMP JUMPDEST PUSH0 PUSH1 0x20 DUP3 DUP5 SUB SLT ISZERO PUSH2 0x580C JUMPI PUSH0 PUSH0 REVERT JUMPDEST PUSH2 0xB93 DUP3 PUSH2 0x520A JUMP JUMPDEST PUSH1 0x3 DUP2 LT PUSH2 0x52AF JUMPI PUSH2 0x52AF PUSH2 0x528B JUMP JUMPDEST PUSH1 0x20 DUP2 ADD PUSH2 0xF21 DUP3 DUP5 PUSH2 0x5815 JUMP JUMPDEST PUSH0 PUSH0 PUSH1 0x40 DUP4 DUP6 SUB SLT ISZERO PUSH2 0x5844 JUMPI PUSH0 PUSH0 REVERT JUMPDEST PUSH2 0x51F3 DUP4 PUSH2 0x520A JUMP JUMPDEST PUSH0 PUSH0 PUSH0 PUSH1 0x60 DUP5 DUP7 SUB SLT ISZERO PUSH2 0x585F JUMPI PUSH0 PUSH0 REVERT JUMPDEST PUSH2 0x5868 DUP5 PUSH2 0x5082 JUMP JUMPDEST SWAP3 POP PUSH2 0x5876 PUSH1 0x20 DUP6 ADD PUSH2 0x5082 JUMP JUMPDEST SWAP2 POP PUSH2 0x5884 PUSH1 0x40 DUP6 ADD PUSH2 0x5082 JUMP JUMPDEST SWAP1 POP SWAP3 POP SWAP3 POP SWAP3 JUMP JUMPDEST PUSH1 0x20 DUP2 MSTORE PUSH0 PUSH2 0xB93 PUSH1 0x20 DUP4 ADD DUP5 PUSH2 0x5663 JUMP JUMPDEST PUSH1 0x1 PUSH1 0x1 PUSH1 0x80 SHL SUB DUP11 AND DUP2 MSTORE PUSH1 0x1 PUSH1 0x1 PUSH1 0x80 SHL SUB DUP10 AND PUSH1 0x20 DUP3 ADD MSTORE PUSH2 0x120 PUSH1 0x40 DUP3 ADD MSTORE PUSH0 PUSH2 0x58D1 PUSH2 0x120 DUP4 ADD DUP11 PUSH2 0x5635 JUMP JUMPDEST PUSH1 0x1 PUSH1 0x1 PUSH1 0x80 SHL SUB DUP10 AND PUSH1 0x60 DUP5 ADD MSTORE DUP8 ISZERO ISZERO PUSH1 0x80 DUP5 ADD MSTORE DUP3 DUP2 SUB PUSH1 0xA0 DUP5 ADD MSTORE PUSH2 0x58FA DUP2 DUP9 PUSH2 0x5635 JUMP JUMPDEST SWAP1 POP DUP3 DUP2 SUB PUSH1 0xC0 DUP5 ADD MSTORE PUSH2 0x590E DUP2 DUP8 PUSH2 0x5635 JUMP JUMPDEST SWAP2 POP POP PUSH1 0x1 PUSH1 0x1 PUSH1 0x80 SHL SUB DUP5 AND PUSH1 0xE0 DUP4 ADD MSTORE PUSH1 0x1 PUSH1 0x1 PUSH1 0x80 SHL SUB DUP4 AND PUSH2 0x100 DUP4 ADD MSTORE SWAP11 SWAP10 POP POP POP POP POP POP POP POP POP POP JUMP JUMPDEST DUP1 CALLDATALOAD PUSH1 0xFF DUP2 AND DUP2 EQ PUSH2 0x5098 JUMPI PUSH0 PUSH0 REVERT JUMPDEST PUSH0 PUSH0 PUSH0 PUSH1 0x60 DUP5 DUP7 SUB SLT ISZERO PUSH2 0x5960 JUMPI PUSH0 PUSH0 REVERT JUMPDEST PUSH2 0x5969 DUP5 PUSH2 0x5082 JUMP JUMPDEST SWAP3 POP PUSH2 0x5977 PUSH1 0x20 DUP6 ADD PUSH2 0x5082 JUMP JUMPDEST SWAP2 POP PUSH2 0x5884 PUSH1 0x40 DUP6 ADD PUSH2 0x593E JUMP JUMPDEST PUSH0 PUSH0 PUSH1 0x40 DUP4 DUP6 SUB SLT ISZERO PUSH2 0x5996 JUMPI PUSH0 PUSH0 REVERT JUMPDEST PUSH2 0x599F DUP4 PUSH2 0x5082 JUMP JUMPDEST SWAP2 POP PUSH1 0x20 DUP4 ADD CALLDATALOAD PUSH1 0x6 DUP2 LT PUSH2 0x562A JUMPI PUSH0 PUSH0 REVERT JUMPDEST PUSH0 PUSH1 0x20 DUP3 DUP5 SUB SLT ISZERO PUSH2 0x59C2 JUMPI PUSH0 PUSH0 REVERT JUMPDEST PUSH2 0xB93 DUP3 PUSH2 0x593E JUMP JUMPDEST PUSH0 PUSH0 PUSH0 PUSH0 PUSH1 0x80 DUP6 DUP8 SUB SLT ISZERO PUSH2 0x59DE JUMPI PUSH0 PUSH0 REVERT JUMPDEST PUSH2 0x59E7 DUP6 PUSH2 0x5082 JUMP JUMPDEST SWAP4 POP PUSH1 0x20 DUP6 ADD CALLDATALOAD PUSH1 0x1 PUSH1 0x1 PUSH1 0x40 SHL SUB DUP2 GT ISZERO PUSH2 0x5A01 JUMPI PUSH0 PUSH0 REVERT JUMPDEST PUSH2 0x5A0D DUP8 DUP3 DUP9 ADD PUSH2 0x5414 JUMP JUMPDEST SWAP4 POP POP PUSH2 0x5A1C PUSH1 0x40 DUP7 ADD PUSH2 0x5082 JUMP JUMPDEST SWAP2 POP PUSH2 0x5A2A PUSH1 0x60 DUP7 ADD PUSH2 0x5082 JUMP JUMPDEST SWAP1 POP SWAP3 SWAP6 SWAP2 SWAP5 POP SWAP3 POP JUMP JUMPDEST PUSH1 0x1 PUSH1 0x1 PUSH1 0x80 SHL SUB DUP8 DUP2 AND DUP3 MSTORE PUSH1 0x1 PUSH1 0x1 PUSH1 0xA0 SHL SUB DUP8 AND PUSH1 0x20 DUP4 ADD MSTORE DUP6 DUP2 AND PUSH1 0x40 DUP4 ADD MSTORE DUP5 AND PUSH1 0x60 DUP3 ADD MSTORE PUSH1 0xC0 DUP2 ADD PUSH2 0x5A71 PUSH1 0x80 DUP4 ADD DUP6 PUSH2 0x529F JUMP JUMPDEST PUSH1 0x1 PUSH1 0x1 PUSH1 0x80 SHL SUB DUP4 AND PUSH1 0xA0 DUP4 ADD MSTORE SWAP8 SWAP7 POP POP POP POP POP POP POP JUMP JUMPDEST PUSH1 0x20 DUP1 DUP3 MSTORE PUSH1 0x19 SWAP1 DUP3 ADD MSTORE PUSH32 0x52657374617572616E7420646F6573206E6F7420657869737400000000000000 PUSH1 0x40 DUP3 ADD MSTORE PUSH1 0x60 ADD SWAP1 JUMP JUMPDEST PUSH4 0x4E487B71 PUSH1 0xE0 SHL PUSH0 MSTORE PUSH1 0x32 PUSH1 0x4 MSTORE PUSH1 0x24 PUSH0 REVERT JUMPDEST PUSH1 0x1 DUP2 DUP2 SHR SWAP1 DUP3 AND DUP1 PUSH2 0x5AEA JUMPI PUSH1 0x7F DUP3 AND SWAP2 POP JUMPDEST PUSH1 0x20 DUP3 LT DUP2 SUB PUSH2 0x5B08 JUMPI PUSH4 0x4E487B71 PUSH1 0xE0 SHL PUSH0 MSTORE PUSH1 0x22 PUSH1 0x4 MSTORE PUSH1 0x24 PUSH0 REVERT JUMPDEST POP SWAP2 SWAP1 POP JUMP JUMPDEST PUSH1 0x20 DUP1 DUP3 MSTORE PUSH1 0x22 SWAP1 DUP3 ADD MSTORE PUSH32 0x4974656D20646F6573206E6F742062656C6F6E6720746F207265737461757261 PUSH1 0x40 DUP3 ADD MSTORE PUSH2 0x1B9D PUSH1 0xF2 SHL PUSH1 0x60 DUP3 ADD MSTORE PUSH1 0x80 ADD SWAP1 JUMP JUMPDEST PUSH4 0x4E487B71 PUSH1 0xE0 SHL PUSH0 MSTORE PUSH1 0x11 PUSH1 0x4 MSTORE PUSH1 0x24 PUSH0 REVERT JUMPDEST PUSH1 0x1 PUSH1 0x1 PUSH1 0x80 SHL SUB DUP2 DUP2 AND DUP4 DUP3 AND MUL SWAP1 DUP2 AND SWAP1 DUP2 DUP2 EQ PUSH2 0x2B14 JUMPI PUSH2 0x2B14 PUSH2 0x5B50 JUMP JUMPDEST PUSH1 0x1 PUSH1 0x1 PUSH1 0x80 SHL SUB DUP2 DUP2 AND DUP4 DUP3 AND ADD SWAP1 DUP2 GT ISZERO PUSH2 0xF21 JUMPI PUSH2 0xF21 PUSH2 0x5B50 JUMP JUMPDEST PUSH0 PUSH1 0x1 PUSH1 0x1 PUSH1 0x80 SHL SUB DUP4 AND DUP1 PUSH2 0x5BC9 JUMPI PUSH4 0x4E487B71 PUSH1 0xE0 SHL PUSH0 MSTORE PUSH1 0x12 PUSH1 0x4 MSTORE PUSH1 0x24 PUSH0 REVERT JUMPDEST DUP1 PUSH1 0x1 PUSH1 0x1 PUSH1 0x80 SHL SUB DUP5 AND DIV SWAP2 POP POP SWAP3 SWAP2 POP POP JUMP JUMPDEST PUSH1 0x20 DUP1 DUP3 MSTORE PUSH1 0x18 SWAP1 DUP3 ADD MSTORE PUSH32 0x556E617574686F72697A65643A2041646D696E206F6E6C790000000000000000 PUSH1 0x40 DUP3 ADD MSTORE PUSH1 0x60 ADD SWAP1 JUMP JUMPDEST PUSH1 0x1 PUSH1 0x1 PUSH1 0x80 SHL SUB DUP3 DUP2 AND DUP3 DUP3 AND SUB SWAP1 DUP2 GT ISZERO PUSH2 0xF21 JUMPI PUSH2 0xF21 PUSH2 0x5B50 JUMP JUMPDEST PUSH1 0x20 DUP1 DUP3 MSTORE PUSH1 0x10 SWAP1 DUP3 ADD MSTORE PUSH16 0x125B9D985B1A59081BDC99195C881251 PUSH1 0x82 SHL PUSH1 0x40 DUP3 ADD MSTORE PUSH1 0x60 ADD SWAP1 JUMP JUMPDEST PUSH1 0x1 PUSH1 0x1 PUSH1 0x80 SHL SUB SWAP3 SWAP1 SWAP3 AND DUP3 MSTORE PUSH1 0x1 PUSH1 0x1 PUSH1 0xA0 SHL SUB AND PUSH1 0x20 DUP3 ADD MSTORE PUSH1 0x40 ADD SWAP1 JUMP JUMPDEST PUSH1 0x1 PUSH1 0x1 PUSH1 0x80 SHL SUB DUP4 AND DUP2 MSTORE PUSH1 0x40 DUP2 ADD PUSH2 0xB93 PUSH1 0x20 DUP4 ADD DUP5 PUSH2 0x529F JUMP JUMPDEST PUSH1 0x20 DUP1 DUP3 MSTORE PUSH1 0x29 SWAP1 DUP3 ADD MSTORE PUSH32 0x556E617574686F72697A65643A2053746166662C2041646D696E2C206F72204F PUSH1 0x40 DUP3 ADD MSTORE PUSH9 0x776E6572206F6E6C79 PUSH1 0xB8 SHL PUSH1 0x60 DUP3 ADD MSTORE PUSH1 0x80 ADD SWAP1 JUMP JUMPDEST PUSH1 0x20 DUP1 DUP3 MSTORE PUSH1 0x14 SWAP1 DUP3 ADD MSTORE PUSH20 0x125B9D985B1A59081B595B9D481A5D195B481251 PUSH1 0x62 SHL PUSH1 0x40 DUP3 ADD MSTORE PUSH1 0x60 ADD SWAP1 JUMP JUMPDEST PUSH1 0x20 DUP1 DUP3 MSTORE PUSH1 0x18 SWAP1 DUP3 ADD MSTORE PUSH32 0x4D656E75206974656D20646F6573206E6F742065786973740000000000000000 PUSH1 0x40 DUP3 ADD MSTORE PUSH1 0x60 ADD SWAP1 JUMP JUMPDEST PUSH1 0x1F DUP3 GT ISZERO PUSH2 0x271D JUMPI DUP1 PUSH0 MSTORE PUSH1 0x20 PUSH0 KECCAK256 PUSH1 0x1F DUP5 ADD PUSH1 0x5 SHR DUP2 ADD PUSH1 0x20 DUP6 LT ISZERO PUSH2 0x5D70 JUMPI POP DUP1 JUMPDEST PUSH1 0x1F DUP5 ADD PUSH1 0x5 SHR DUP3 ADD SWAP2 POP JUMPDEST DUP2 DUP2 LT ISZERO PUSH2 0x5D8F JUMPI PUSH0 DUP2 SSTORE PUSH1 0x1 ADD PUSH2 0x5D7C JUMP JUMPDEST POP POP POP POP POP JUMP JUMPDEST DUP2 MLOAD PUSH1 0x1 PUSH1 0x1 PUSH1 0x40 SHL SUB DUP2 GT ISZERO PUSH2 0x5DAF JUMPI PUSH2 0x5DAF PUSH2 0x509D JUMP JUMPDEST PUSH2 0x5DC3 DUP2 PUSH2 0x5DBD DUP5 SLOAD PUSH2 0x5AD6 JUMP JUMPDEST DUP5 PUSH2 0x5D4B JUMP JUMPDEST PUSH1 0x20 PUSH1 0x1F DUP3 GT PUSH1 0x1 DUP2 EQ PUSH2 0x5DF5 JUMPI PUSH0 DUP4 ISZERO PUSH2 0x5DDE JUMPI POP DUP5 DUP3 ADD MLOAD JUMPDEST PUSH0 NOT PUSH1 0x3 DUP6 SWAP1 SHL SHR NOT AND PUSH1 0x1 DUP5 SWAP1 SHL OR DUP5 SSTORE PUSH2 0x5D8F JUMP JUMPDEST PUSH0 DUP5 DUP2 MSTORE PUSH1 0x20 DUP2 KECCAK256 PUSH1 0x1F NOT DUP6 AND SWAP2 JUMPDEST DUP3 DUP2 LT ISZERO PUSH2 0x5E24 JUMPI DUP8 DUP6 ADD MLOAD DUP3 SSTORE PUSH1 0x20 SWAP5 DUP6 ADD SWAP5 PUSH1 0x1 SWAP1 SWAP3 ADD SWAP2 ADD PUSH2 0x5E04 JUMP JUMPDEST POP DUP5 DUP3 LT ISZERO PUSH2 0x5E41 JUMPI DUP7 DUP5 ADD MLOAD PUSH0 NOT PUSH1 0x3 DUP8 SWAP1 SHL PUSH1 0xF8 AND SHR NOT AND DUP2 SSTORE JUMPDEST POP POP POP POP PUSH1 0x1 SWAP1 DUP2 SHL ADD SWAP1 SSTORE POP JUMP JUMPDEST PUSH1 0x1 PUSH1 0x1 PUSH1 0x80 SHL SUB DUP5 AND DUP2 MSTORE PUSH1 0x1 PUSH1 0x1 PUSH1 0x80 SHL SUB DUP4 AND PUSH1 0x20 DUP3 ADD MSTORE PUSH1 0x60 PUSH1 0x40 DUP3 ADD MSTORE PUSH0 PUSH2 0x5E80 PUSH1 0x60 DUP4 ADD DUP5 PUSH2 0x5635 JUMP JUMPDEST SWAP6 SWAP5 POP POP POP POP POP JUMP JUMPDEST PUSH0 PUSH1 0x1 PUSH1 0x1 PUSH1 0x80 SHL SUB DUP3 AND PUSH1 0x1 PUSH1 0x1 PUSH1 0x80 SHL SUB DUP2 SUB PUSH2 0x5EAA JUMPI PUSH2 0x5EAA PUSH2 0x5B50 JUMP JUMPDEST PUSH1 0x1 ADD SWAP3 SWAP2 POP POP JUMP JUMPDEST PUSH1 0x1 PUSH1 0x1 PUSH1 0xA0 SHL SUB DUP4 AND DUP2 MSTORE PUSH1 0x40 DUP2 ADD PUSH2 0xB93 PUSH1 0x20 DUP4 ADD DUP5 PUSH2 0x5815 JUMP JUMPDEST DUP2 DUP2 SUB DUP2 DUP2 GT ISZERO PUSH2 0xF21 JUMPI PUSH2 0xF21 PUSH2 0x5B50 JUMP JUMPDEST PUSH1 0x1 PUSH1 0x1 PUSH1 0xA0 SHL SUB SWAP3 SWAP1 SWAP3 AND DUP3 MSTORE PUSH1 0x1 PUSH1 0x1 PUSH1 0x80 SHL SUB AND PUSH1 0x20 DUP3 ADD MSTORE PUSH1 0x40 ADD SWAP1 JUMP JUMPDEST PUSH0 DUP3 MLOAD DUP1 PUSH1 0x20 DUP6 ADD DUP5 MCOPY PUSH0 SWAP3 ADD SWAP2 DUP3 MSTORE POP SWAP2 SWAP1 POP JUMP JUMPDEST PUSH0 PUSH1 0x1 DUP3 ADD PUSH2 0x5F2C JUMPI PUSH2 0x5F2C PUSH2 0x5B50 JUMP JUMPDEST POP PUSH1 0x1 ADD SWAP1 JUMP INVALID LOG2 PUSH5 0x6970667358 0x22 SLT KECCAK256 LOG4 0xF6 0xBD SWAP4 ADDRESS 0xC5 PUSH15 0xD1167C8C1359B8989B1B1200B90764 PUSH5 0x8229A48078 0x4D BLOCKHASH PUSH15 0x9164736F6C634300081E0033000000 "
		},
		"gasEstimates": {
			"creation": {
				"codeDepositCost": "4885000",
				"executionCost": "124376",
				"totalCost": "5009376"
			},
			"external": {
				"MAX_SERVICE_FEE()": "294",
				"addMenuItem(uint128,string,uint128,string,string)": "infinite",
				"assignRole(address,uint8)": "52874",
				"assignStaff(address,uint128)": "infinite",
				"cancelOrder(uint128)": "infinite",
				"completeOrder(uint128)": "infinite",
				"customerOrders(address,uint256)": "6539",
				"getAllOrders(uint128,uint128)": "infinite",
				"getAverageRating(uint128,uint128)": "infinite",
				"getMenuItems(uint128,uint128,uint128)": "infinite",
				"getMyOrders()": "infinite",
				"getOrderDetails(uint128)": "infinite",
				"menuByRestaurant(uint128,uint128)": "infinite",
				"orderDetails(uint128,uint128)": "infinite",
				"orders(uint128)": "11468",
				"owner()": "2408",
				"ownerRestaurants(address,uint256)": "6493",
				"pendingWithdrawals(address)": "2655",
				"placeOrder(uint128,uint128[],uint128[])": "infinite",
				"previewTotalAmount(uint128,uint128[],uint128[])": "infinite",
				"rateMenuItem(uint128,uint128,uint8)": "infinite",
				"registerRestaurant()": "104916",
				"removeMenuItem(uint128,uint128)": "infinite",
				"renounceOwnership()": "infinite",
				"restaurantMenuIds(uint128,uint256)": "6494",
				"restaurantOwners(uint128)": "2601",
				"roles(address)": "2736",
				"searchMenuItems(uint128,string,uint128,uint128)": "infinite",
				"serviceFeePercentage()": "2397",
				"setServiceFeePercentage(uint8)": "27935",
				"staffRestaurant(address)": "2611",
				"transferOwnership(address)": "28422",
				"updateMenuItem(uint128,uint128,string,uint128,bool,string,string)": "infinite",
				"updateOrderStatus(uint128,uint8)": "94895",
				"userPoints(address)": "2588",
				"withdrawServiceFees()": "infinite"
			}
		},
		"methodIdentifiers": {
			"MAX_SERVICE_FEE()": "14d90e1b",
			"addMenuItem(uint128,string,uint128,string,string)": "49d52b9c",
			"assignRole(address,uint8)": "630a195b",
			"assignStaff(address,uint128)": "ae9a4655",
			"cancelOrder(uint128)": "dbc91396",
			"completeOrder(uint128)": "388f20a8",
			"customerOrders(address,uint256)": "1600c6cd",
			"getAllOrders(uint128,uint128)": "26912883",
			"getAverageRating(uint128,uint128)": "7914d2fa",
			"getMenuItems(uint128,uint128,uint128)": "d74b3c20",
			"getMyOrders()": "bab5933a",
			"getOrderDetails(uint128)": "6b813675",
			"menuByRestaurant(uint128,uint128)": "d9a85e63",
			"orderDetails(uint128,uint128)": "07ec5100",
			"orders(uint128)": "ff8ddee3",
			"owner()": "8da5cb5b",
			"ownerRestaurants(address,uint256)": "d76d571a",
			"pendingWithdrawals(address)": "f3f43703",
			"placeOrder(uint128,uint128[],uint128[])": "98d88075",
			"previewTotalAmount(uint128,uint128[],uint128[])": "0605551e",
			"rateMenuItem(uint128,uint128,uint8)": "dac4a255",
			"registerRestaurant()": "fa20fca7",
			"removeMenuItem(uint128,uint128)": "5b94ea5d",
			"renounceOwnership()": "715018a6",
			"restaurantMenuIds(uint128,uint256)": "2fb8229b",
			"restaurantOwners(uint128)": "abca88f0",
			"roles(address)": "99374642",
			"searchMenuItems(uint128,string,uint128,uint128)": "faf068f8",
			"serviceFeePercentage()": "603ef649",
			"setServiceFeePercentage(uint8)": "f7937282",
			"staffRestaurant(address)": "e28d7a18",
			"transferOwnership(address)": "f2fde38b",
			"updateMenuItem(uint128,uint128,string,uint128,bool,string,string)": "41af8b6f",
			"updateOrderStatus(uint128,uint8)": "ddb0c22f",
			"userPoints(address)": "f50ddbc7",
			"withdrawServiceFees()": "d72e481d"
		}
	},
	"abi": [
		{
			"inputs": [],
			"stateMutability": "nonpayable",
			"type": "constructor"
		},
		{
			"inputs": [],
			"name": "FailedCall",
			"type": "error"
		},
		{
			"inputs": [
				{
					"internalType": "uint256",
					"name": "balance",
					"type": "uint256"
				},
				{
					"internalType": "uint256",
					"name": "needed",
					"type": "uint256"
				}
			],
			"name": "InsufficientBalance",
			"type": "error"
		},
		{
			"inputs": [
				{
					"internalType": "address",
					"name": "owner",
					"type": "address"
				}
			],
			"name": "OwnableInvalidOwner",
			"type": "error"
		},
		{
			"inputs": [
				{
					"internalType": "address",
					"name": "account",
					"type": "address"
				}
			],
			"name": "OwnableUnauthorizedAccount",
			"type": "error"
		},
		{
			"anonymous": false,
			"inputs": [
				{
					"indexed": false,
					"internalType": "uint128",
					"name": "id",
					"type": "uint128"
				},
				{
					"indexed": false,
					"internalType": "uint128",
					"name": "restaurantId",
					"type": "uint128"
				},
				{
					"indexed": false,
					"internalType": "string",
					"name": "name",
					"type": "string"
				}
			],
			"name": "MenuItemAdded",
			"type": "event"
		},
		{
			"anonymous": false,
			"inputs": [
				{
					"indexed": false,
					"internalType": "uint128",
					"name": "menuId",
					"type": "uint128"
				},
				{
					"indexed": false,
					"internalType": "uint8",
					"name": "rating",
					"type": "uint8"
				}
			],
			"name": "MenuItemRated",
			"type": "event"
		},
		{
			"anonymous": false,
			"inputs": [
				{
					"indexed": false,
					"internalType": "uint128",
					"name": "id",
					"type": "uint128"
				},
				{
					"indexed": false,
					"internalType": "uint128",
					"name": "restaurantId",
					"type": "uint128"
				}
			],
			"name": "MenuItemRemoved",
			"type": "event"
		},
		{
			"anonymous": false,
			"inputs": [
				{
					"indexed": false,
					"internalType": "uint128",
					"name": "id",
					"type": "uint128"
				},
				{
					"indexed": false,
					"internalType": "uint128",
					"name": "restaurantId",
					"type": "uint128"
				}
			],
			"name": "MenuItemUpdated",
			"type": "event"
		},
		{
			"anonymous": false,
			"inputs": [
				{
					"indexed": false,
					"internalType": "uint128",
					"name": "id",
					"type": "uint128"
				},
				{
					"indexed": false,
					"internalType": "address",
					"name": "customer",
					"type": "address"
				}
			],
			"name": "OrderCancelled",
			"type": "event"
		},
		{
			"anonymous": false,
			"inputs": [
				{
					"indexed": false,
					"internalType": "uint128",
					"name": "orderId",
					"type": "uint128"
				},
				{
					"indexed": false,
					"internalType": "address",
					"name": "customer",
					"type": "address"
				}
			],
			"name": "OrderCompleted",
			"type": "event"
		},
		{
			"anonymous": false,
			"inputs": [
				{
					"indexed": false,
					"internalType": "uint128",
					"name": "id",
					"type": "uint128"
				},
				{
					"indexed": false,
					"internalType": "address",
					"name": "customer",
					"type": "address"
				},
				{
					"indexed": false,
					"internalType": "uint128",
					"name": "totalPrice",
					"type": "uint128"
				}
			],
			"name": "OrderPlaced",
			"type": "event"
		},
		{
			"anonymous": false,
			"inputs": [
				{
					"indexed": false,
					"internalType": "uint128",
					"name": "id",
					"type": "uint128"
				},
				{
					"indexed": false,
					"internalType": "enum SMCFoodDapp.OrderStatus",
					"name": "status",
					"type": "uint8"
				}
			],
			"name": "OrderStatusUpdated",
			"type": "event"
		},
		{
			"anonymous": false,
			"inputs": [
				{
					"indexed": true,
					"internalType": "address",
					"name": "previousOwner",
					"type": "address"
				},
				{
					"indexed": true,
					"internalType": "address",
					"name": "newOwner",
					"type": "address"
				}
			],
			"name": "OwnershipTransferred",
			"type": "event"
		},
		{
			"anonymous": false,
			"inputs": [
				{
					"indexed": false,
					"internalType": "address",
					"name": "recipient",
					"type": "address"
				},
				{
					"indexed": false,
					"internalType": "uint128",
					"name": "amount",
					"type": "uint128"
				}
			],
			"name": "PaymentReleased",
			"type": "event"
		},
		{
			"anonymous": false,
			"inputs": [
				{
					"indexed": false,
					"internalType": "address",
					"name": "customer",
					"type": "address"
				},
				{
					"indexed": false,
					"internalType": "uint128",
					"name": "totalPrice",
					"type": "uint128"
				}
			],
			"name": "RefundProcessed",
			"type": "event"
		},
		{
			"anonymous": false,
			"inputs": [
				{
					"indexed": false,
					"internalType": "uint128",
					"name": "restaurantId",
					"type": "uint128"
				},
				{
					"indexed": false,
					"internalType": "address",
					"name": "owner",
					"type": "address"
				}
			],
			"name": "RestaurantRegistered",
			"type": "event"
		},
		{
			"anonymous": false,
			"inputs": [
				{
					"indexed": false,
					"internalType": "address",
					"name": "user",
					"type": "address"
				},
				{
					"indexed": false,
					"internalType": "enum SMCFoodDapp.Role",
					"name": "role",
					"type": "uint8"
				}
			],
			"name": "RoleAssigned",
			"type": "event"
		},
		{
			"anonymous": false,
			"inputs": [
				{
					"indexed": false,
					"internalType": "uint8",
					"name": "newPercentage",
					"type": "uint8"
				}
			],
			"name": "ServiceFeeUpdated",
			"type": "event"
		},
		{
			"anonymous": false,
			"inputs": [
				{
					"indexed": false,
					"internalType": "address",
					"name": "staff",
					"type": "address"
				},
				{
					"indexed": false,
					"internalType": "uint128",
					"name": "restaurantId",
					"type": "uint128"
				}
			],
			"name": "StaffAssigned",
			"type": "event"
		},
		{
			"inputs": [],
			"name": "MAX_SERVICE_FEE",
			"outputs": [
				{
					"internalType": "uint8",
					"name": "",
					"type": "uint8"
				}
			],
			"stateMutability": "view",
			"type": "function"
		},
		{
			"inputs": [
				{
					"internalType": "uint128",
					"name": "restaurantId",
					"type": "uint128"
				},
				{
					"internalType": "string",
					"name": "name",
					"type": "string"
				},
				{
					"internalType": "uint128",
					"name": "price",
					"type": "uint128"
				},
				{
					"internalType": "string",
					"name": "description",
					"type": "string"
				},
				{
					"internalType": "string",
					"name": "category",
					"type": "string"
				}
			],
			"name": "addMenuItem",
			"outputs": [],
			"stateMutability": "nonpayable",
			"type": "function"
		},
		{
			"inputs": [
				{
					"internalType": "address",
					"name": "user",
					"type": "address"
				},
				{
					"internalType": "enum SMCFoodDapp.Role",
					"name": "role",
					"type": "uint8"
				}
			],
			"name": "assignRole",
			"outputs": [],
			"stateMutability": "nonpayable",
			"type": "function"
		},
		{
			"inputs": [
				{
					"internalType": "address",
					"name": "staff",
					"type": "address"
				},
				{
					"internalType": "uint128",
					"name": "restaurantId",
					"type": "uint128"
				}
			],
			"name": "assignStaff",
			"outputs": [],
			"stateMutability": "nonpayable",
			"type": "function"
		},
		{
			"inputs": [
				{
					"internalType": "uint128",
					"name": "orderId",
					"type": "uint128"
				}
			],
			"name": "cancelOrder",
			"outputs": [],
			"stateMutability": "nonpayable",
			"type": "function"
		},
		{
			"inputs": [
				{
					"internalType": "uint128",
					"name": "orderId",
					"type": "uint128"
				}
			],
			"name": "completeOrder",
			"outputs": [],
			"stateMutability": "nonpayable",
			"type": "function"
		},
		{
			"inputs": [
				{
					"internalType": "address",
					"name": "",
					"type": "address"
				},
				{
					"internalType": "uint256",
					"name": "",
					"type": "uint256"
				}
			],
			"name": "customerOrders",
			"outputs": [
				{
					"internalType": "uint128",
					"name": "",
					"type": "uint128"
				}
			],
			"stateMutability": "view",
			"type": "function"
		},
		{
			"inputs": [
				{
					"internalType": "uint128",
					"name": "start",
					"type": "uint128"
				},
				{
					"internalType": "uint128",
					"name": "limit",
					"type": "uint128"
				}
			],
			"name": "getAllOrders",
			"outputs": [
				{
					"components": [
						{
							"internalType": "uint128",
							"name": "id",
							"type": "uint128"
						},
						{
							"internalType": "address",
							"name": "customer",
							"type": "address"
						},
						{
							"internalType": "uint128",
							"name": "restaurantId",
							"type": "uint128"
						},
						{
							"internalType": "uint128[]",
							"name": "itemIds",
							"type": "uint128[]"
						},
						{
							"internalType": "uint128[]",
							"name": "quantities",
							"type": "uint128[]"
						},
						{
							"internalType": "uint128",
							"name": "totalPrice",
							"type": "uint128"
						},
						{
							"internalType": "enum SMCFoodDapp.OrderStatus",
							"name": "status",
							"type": "uint8"
						},
						{
							"internalType": "uint128",
							"name": "timestamp",
							"type": "uint128"
						}
					],
					"internalType": "struct SMCFoodDapp.Order[]",
					"name": "",
					"type": "tuple[]"
				}
			],
			"stateMutability": "view",
			"type": "function"
		},
		{
			"inputs": [
				{
					"internalType": "uint128",
					"name": "restaurantId",
					"type": "uint128"
				},
				{
					"internalType": "uint128",
					"name": "menuId",
					"type": "uint128"
				}
			],
			"name": "getAverageRating",
			"outputs": [
				{
					"internalType": "uint128",
					"name": "",
					"type": "uint128"
				}
			],
			"stateMutability": "view",
			"type": "function"
		},
		{
			"inputs": [
				{
					"internalType": "uint128",
					"name": "restaurantId",
					"type": "uint128"
				},
				{
					"internalType": "uint128",
					"name": "start",
					"type": "uint128"
				},
				{
					"internalType": "uint128",
					"name": "limit",
					"type": "uint128"
				}
			],
			"name": "getMenuItems",
			"outputs": [
				{
					"components": [
						{
							"internalType": "uint128",
							"name": "id",
							"type": "uint128"
						},
						{
							"internalType": "uint128",
							"name": "restaurantId",
							"type": "uint128"
						},
						{
							"internalType": "string",
							"name": "name",
							"type": "string"
						},
						{
							"internalType": "uint128",
							"name": "price",
							"type": "uint128"
						},
						{
							"internalType": "bool",
							"name": "available",
							"type": "bool"
						},
						{
							"internalType": "string",
							"name": "description",
							"type": "string"
						},
						{
							"internalType": "string",
							"name": "category",
							"type": "string"
						},
						{
							"internalType": "uint128",
							"name": "totalRating",
							"type": "uint128"
						},
						{
							"internalType": "uint128",
							"name": "ratingCount",
							"type": "uint128"
						}
					],
					"internalType": "struct SMCFoodDapp.MenuItem[]",
					"name": "",
					"type": "tuple[]"
				}
			],
			"stateMutability": "view",
			"type": "function"
		},
		{
			"inputs": [],
			"name": "getMyOrders",
			"outputs": [
				{
					"components": [
						{
							"internalType": "uint128",
							"name": "id",
							"type": "uint128"
						},
						{
							"internalType": "address",
							"name": "customer",
							"type": "address"
						},
						{
							"internalType": "uint128",
							"name": "restaurantId",
							"type": "uint128"
						},
						{
							"internalType": "uint128[]",
							"name": "itemIds",
							"type": "uint128[]"
						},
						{
							"internalType": "uint128[]",
							"name": "quantities",
							"type": "uint128[]"
						},
						{
							"internalType": "uint128",
							"name": "totalPrice",
							"type": "uint128"
						},
						{
							"internalType": "enum SMCFoodDapp.OrderStatus",
							"name": "status",
							"type": "uint8"
						},
						{
							"internalType": "uint128",
							"name": "timestamp",
							"type": "uint128"
						}
					],
					"internalType": "struct SMCFoodDapp.Order[]",
					"name": "",
					"type": "tuple[]"
				}
			],
			"stateMutability": "view",
			"type": "function"
		},
		{
			"inputs": [
				{
					"internalType": "uint128",
					"name": "orderId",
					"type": "uint128"
				}
			],
			"name": "getOrderDetails",
			"outputs": [
				{
					"components": [
						{
							"internalType": "uint128",
							"name": "id",
							"type": "uint128"
						},
						{
							"internalType": "address",
							"name": "customer",
							"type": "address"
						},
						{
							"internalType": "uint128",
							"name": "restaurantId",
							"type": "uint128"
						},
						{
							"internalType": "uint128[]",
							"name": "itemIds",
							"type": "uint128[]"
						},
						{
							"internalType": "uint128[]",
							"name": "quantities",
							"type": "uint128[]"
						},
						{
							"internalType": "uint128",
							"name": "totalPrice",
							"type": "uint128"
						},
						{
							"internalType": "enum SMCFoodDapp.OrderStatus",
							"name": "status",
							"type": "uint8"
						},
						{
							"internalType": "uint128",
							"name": "timestamp",
							"type": "uint128"
						}
					],
					"internalType": "struct SMCFoodDapp.Order",
					"name": "order",
					"type": "tuple"
				},
				{
					"components": [
						{
							"internalType": "uint128",
							"name": "id",
							"type": "uint128"
						},
						{
							"internalType": "uint128",
							"name": "restaurantId",
							"type": "uint128"
						},
						{
							"internalType": "string",
							"name": "name",
							"type": "string"
						},
						{
							"internalType": "uint128",
							"name": "price",
							"type": "uint128"
						},
						{
							"internalType": "bool",
							"name": "available",
							"type": "bool"
						},
						{
							"internalType": "string",
							"name": "description",
							"type": "string"
						},
						{
							"internalType": "string",
							"name": "category",
							"type": "string"
						},
						{
							"internalType": "uint128",
							"name": "totalRating",
							"type": "uint128"
						},
						{
							"internalType": "uint128",
							"name": "ratingCount",
							"type": "uint128"
						}
					],
					"internalType": "struct SMCFoodDapp.MenuItem[]",
					"name": "items",
					"type": "tuple[]"
				},
				{
					"internalType": "uint128[]",
					"name": "quantities",
					"type": "uint128[]"
				}
			],
			"stateMutability": "view",
			"type": "function"
		},
		{
			"inputs": [
				{
					"internalType": "uint128",
					"name": "",
					"type": "uint128"
				},
				{
					"internalType": "uint128",
					"name": "",
					"type": "uint128"
				}
			],
			"name": "menuByRestaurant",
			"outputs": [
				{
					"internalType": "uint128",
					"name": "id",
					"type": "uint128"
				},
				{
					"internalType": "uint128",
					"name": "restaurantId",
					"type": "uint128"
				},
				{
					"internalType": "string",
					"name": "name",
					"type": "string"
				},
				{
					"internalType": "uint128",
					"name": "price",
					"type": "uint128"
				},
				{
					"internalType": "bool",
					"name": "available",
					"type": "bool"
				},
				{
					"internalType": "string",
					"name": "description",
					"type": "string"
				},
				{
					"internalType": "string",
					"name": "category",
					"type": "string"
				},
				{
					"internalType": "uint128",
					"name": "totalRating",
					"type": "uint128"
				},
				{
					"internalType": "uint128",
					"name": "ratingCount",
					"type": "uint128"
				}
			],
			"stateMutability": "view",
			"type": "function"
		},
		{
			"inputs": [
				{
					"internalType": "uint128",
					"name": "",
					"type": "uint128"
				},
				{
					"internalType": "uint128",
					"name": "",
					"type": "uint128"
				}
			],
			"name": "orderDetails",
			"outputs": [
				{
					"internalType": "uint128",
					"name": "",
					"type": "uint128"
				}
			],
			"stateMutability": "view",
			"type": "function"
		},
		{
			"inputs": [
				{
					"internalType": "uint128",
					"name": "",
					"type": "uint128"
				}
			],
			"name": "orders",
			"outputs": [
				{
					"internalType": "uint128",
					"name": "id",
					"type": "uint128"
				},
				{
					"internalType": "address",
					"name": "customer",
					"type": "address"
				},
				{
					"internalType": "uint128",
					"name": "restaurantId",
					"type": "uint128"
				},
				{
					"internalType": "uint128",
					"name": "totalPrice",
					"type": "uint128"
				},
				{
					"internalType": "enum SMCFoodDapp.OrderStatus",
					"name": "status",
					"type": "uint8"
				},
				{
					"internalType": "uint128",
					"name": "timestamp",
					"type": "uint128"
				}
			],
			"stateMutability": "view",
			"type": "function"
		},
		{
			"inputs": [],
			"name": "owner",
			"outputs": [
				{
					"internalType": "address",
					"name": "",
					"type": "address"
				}
			],
			"stateMutability": "view",
			"type": "function"
		},
		{
			"inputs": [
				{
					"internalType": "address",
					"name": "",
					"type": "address"
				},
				{
					"internalType": "uint256",
					"name": "",
					"type": "uint256"
				}
			],
			"name": "ownerRestaurants",
			"outputs": [
				{
					"internalType": "uint128",
					"name": "",
					"type": "uint128"
				}
			],
			"stateMutability": "view",
			"type": "function"
		},
		{
			"inputs": [
				{
					"internalType": "address",
					"name": "",
					"type": "address"
				}
			],
			"name": "pendingWithdrawals",
			"outputs": [
				{
					"internalType": "uint128",
					"name": "",
					"type": "uint128"
				}
			],
			"stateMutability": "view",
			"type": "function"
		},
		{
			"inputs": [
				{
					"internalType": "uint128",
					"name": "restaurantId",
					"type": "uint128"
				},
				{
					"internalType": "uint128[]",
					"name": "itemIds",
					"type": "uint128[]"
				},
				{
					"internalType": "uint128[]",
					"name": "quantities",
					"type": "uint128[]"
				}
			],
			"name": "placeOrder",
			"outputs": [],
			"stateMutability": "payable",
			"type": "function"
		},
		{
			"inputs": [
				{
					"internalType": "uint128",
					"name": "restaurantId",
					"type": "uint128"
				},
				{
					"internalType": "uint128[]",
					"name": "itemIds",
					"type": "uint128[]"
				},
				{
					"internalType": "uint128[]",
					"name": "quantities",
					"type": "uint128[]"
				}
			],
			"name": "previewTotalAmount",
			"outputs": [
				{
					"internalType": "uint128",
					"name": "totalAmount",
					"type": "uint128"
				}
			],
			"stateMutability": "view",
			"type": "function"
		},
		{
			"inputs": [
				{
					"internalType": "uint128",
					"name": "restaurantId",
					"type": "uint128"
				},
				{
					"internalType": "uint128",
					"name": "menuId",
					"type": "uint128"
				},
				{
					"internalType": "uint8",
					"name": "rating",
					"type": "uint8"
				}
			],
			"name": "rateMenuItem",
			"outputs": [],
			"stateMutability": "nonpayable",
			"type": "function"
		},
		{
			"inputs": [],
			"name": "registerRestaurant",
			"outputs": [
				{
					"internalType": "uint128",
					"name": "",
					"type": "uint128"
				}
			],
			"stateMutability": "nonpayable",
			"type": "function"
		},
		{
			"inputs": [
				{
					"internalType": "uint128",
					"name": "restaurantId",
					"type": "uint128"
				},
				{
					"internalType": "uint128",
					"name": "menuId",
					"type": "uint128"
				}
			],
			"name": "removeMenuItem",
			"outputs": [],
			"stateMutability": "nonpayable",
			"type": "function"
		},
		{
			"inputs": [],
			"name": "renounceOwnership",
			"outputs": [],
			"stateMutability": "nonpayable",
			"type": "function"
		},
		{
			"inputs": [
				{
					"internalType": "uint128",
					"name": "",
					"type": "uint128"
				},
				{
					"internalType": "uint256",
					"name": "",
					"type": "uint256"
				}
			],
			"name": "restaurantMenuIds",
			"outputs": [
				{
					"internalType": "uint128",
					"name": "",
					"type": "uint128"
				}
			],
			"stateMutability": "view",
			"type": "function"
		},
		{
			"inputs": [
				{
					"internalType": "uint128",
					"name": "",
					"type": "uint128"
				}
			],
			"name": "restaurantOwners",
			"outputs": [
				{
					"internalType": "address",
					"name": "",
					"type": "address"
				}
			],
			"stateMutability": "view",
			"type": "function"
		},
		{
			"inputs": [
				{
					"internalType": "address",
					"name": "",
					"type": "address"
				}
			],
			"name": "roles",
			"outputs": [
				{
					"internalType": "enum SMCFoodDapp.Role",
					"name": "",
					"type": "uint8"
				}
			],
			"stateMutability": "view",
			"type": "function"
		},
		{
			"inputs": [
				{
					"internalType": "uint128",
					"name": "restaurantId",
					"type": "uint128"
				},
				{
					"internalType": "string",
					"name": "searchTerm",
					"type": "string"
				},
				{
					"internalType": "uint128",
					"name": "start",
					"type": "uint128"
				},
				{
					"internalType": "uint128",
					"name": "limit",
					"type": "uint128"
				}
			],
			"name": "searchMenuItems",
			"outputs": [
				{
					"components": [
						{
							"internalType": "uint128",
							"name": "id",
							"type": "uint128"
						},
						{
							"internalType": "uint128",
							"name": "restaurantId",
							"type": "uint128"
						},
						{
							"internalType": "string",
							"name": "name",
							"type": "string"
						},
						{
							"internalType": "uint128",
							"name": "price",
							"type": "uint128"
						},
						{
							"internalType": "bool",
							"name": "available",
							"type": "bool"
						},
						{
							"internalType": "string",
							"name": "description",
							"type": "string"
						},
						{
							"internalType": "string",
							"name": "category",
							"type": "string"
						},
						{
							"internalType": "uint128",
							"name": "totalRating",
							"type": "uint128"
						},
						{
							"internalType": "uint128",
							"name": "ratingCount",
							"type": "uint128"
						}
					],
					"internalType": "struct SMCFoodDapp.MenuItem[]",
					"name": "",
					"type": "tuple[]"
				}
			],
			"stateMutability": "view",
			"type": "function"
		},
		{
			"inputs": [],
			"name": "serviceFeePercentage",
			"outputs": [
				{
					"internalType": "uint8",
					"name": "",
					"type": "uint8"
				}
			],
			"stateMutability": "view",
			"type": "function"
		},
		{
			"inputs": [
				{
					"internalType": "uint8",
					"name": "percentage",
					"type": "uint8"
				}
			],
			"name": "setServiceFeePercentage",
			"outputs": [],
			"stateMutability": "nonpayable",
			"type": "function"
		},
		{
			"inputs": [
				{
					"internalType": "address",
					"name": "",
					"type": "address"
				}
			],
			"name": "staffRestaurant",
			"outputs": [
				{
					"internalType": "uint128",
					"name": "",
					"type": "uint128"
				}
			],
			"stateMutability": "view",
			"type": "function"
		},
		{
			"inputs": [
				{
					"internalType": "address",
					"name": "newOwner",
					"type": "address"
				}
			],
			"name": "transferOwnership",
			"outputs": [],
			"stateMutability": "nonpayable",
			"type": "function"
		},
		{
			"inputs": [
				{
					"internalType": "uint128",
					"name": "restaurantId",
					"type": "uint128"
				},
				{
					"internalType": "uint128",
					"name": "menuId",
					"type": "uint128"
				},
				{
					"internalType": "string",
					"name": "name",
					"type": "string"
				},
				{
					"internalType": "uint128",
					"name": "price",
					"type": "uint128"
				},
				{
					"internalType": "bool",
					"name": "available",
					"type": "bool"
				},
				{
					"internalType": "string",
					"name": "description",
					"type": "string"
				},
				{
					"internalType": "string",
					"name": "category",
					"type": "string"
				}
			],
			"name": "updateMenuItem",
			"outputs": [],
			"stateMutability": "nonpayable",
			"type": "function"
		},
		{
			"inputs": [
				{
					"internalType": "uint128",
					"name": "orderId",
					"type": "uint128"
				},
				{
					"internalType": "enum SMCFoodDapp.OrderStatus",
					"name": "status",
					"type": "uint8"
				}
			],
			"name": "updateOrderStatus",
			"outputs": [],
			"stateMutability": "nonpayable",
			"type": "function"
		},
		{
			"inputs": [
				{
					"internalType": "address",
					"name": "",
					"type": "address"
				}
			],
			"name": "userPoints",
			"outputs": [
				{
					"internalType": "uint128",
					"name": "",
					"type": "uint128"
				}
			],
			"stateMutability": "view",
			"type": "function"
		},
		{
			"inputs": [],
			"name": "withdrawServiceFees",
			"outputs": [],
			"stateMutability": "nonpayable",
			"type": "function"
		}
	]
}