{
	"access/RoleAccess.sol": {
		"RoleAccess": {
			"abi": [
				{
					"inputs": [
						{
							"internalType": "address",
							"name": "staff",
							"type": "address"
						},
						{
							"internalType": "uint128",
							"name": "restaurantId",
							"type": "uint128"
						}
					],
					"name": "assignStaff",
					"outputs": [],
					"stateMutability": "nonpayable",
					"type": "function"
				},
				{
					"inputs": [
						{
							"internalType": "address",
							"name": "staff",
							"type": "address"
						}
					],
					"name": "removeStaff",
					"outputs": [],
					"stateMutability": "nonpayable",
					"type": "function"
				},
				{
					"inputs": [
						{
							"internalType": "address",
							"name": "",
							"type": "address"
						}
					],
					"name": "roles",
					"outputs": [
						{
							"internalType": "enum Role",
							"name": "",
							"type": "uint8"
						}
					],
					"stateMutability": "view",
					"type": "function"
				},
				{
					"inputs": [
						{
							"internalType": "address",
							"name": "",
							"type": "address"
						}
					],
					"name": "staffRestaurants",
					"outputs": [
						{
							"internalType": "uint128",
							"name": "",
							"type": "uint128"
						}
					],
					"stateMutability": "view",
					"type": "function"
				}
			],
			"devdoc": {
				"kind": "dev",
				"methods": {},
				"version": 1
			},
			"evm": {
				"assembly": "    /* \"access/RoleAccess.sol\":99:1093  contract RoleAccess {... */\n  mstore(0x40, 0x80)\n  callvalue\n  dup1\n  iszero\n  tag_1\n  jumpi\n  revert(0x00, 0x00)\ntag_1:\n  pop\n  dataSize(sub_0)\n  dup1\n  dataOffset(sub_0)\n  0x00\n  codecopy\n  0x00\n  return\nstop\n\nsub_0: assembly {\n        /* \"access/RoleAccess.sol\":99:1093  contract RoleAccess {... */\n      mstore(0x40, 0x80)\n      callvalue\n      dup1\n      iszero\n      tag_1\n      jumpi\n      revert(0x00, 0x00)\n    tag_1:\n      pop\n      jumpi(tag_2, lt(calldatasize, 0x04))\n      shr(0xe0, calldataload(0x00))\n      dup1\n      0x2d3238fe\n      eq\n      tag_3\n      jumpi\n      dup1\n      0x99374642\n      eq\n      tag_4\n      jumpi\n      dup1\n      0xae9a4655\n      eq\n      tag_5\n      jumpi\n      dup1\n      0xc4522c92\n      eq\n      tag_6\n      jumpi\n    tag_2:\n      revert(0x00, 0x00)\n        /* \"access/RoleAccess.sol\":170:221  mapping(address => uint128) public staffRestaurants */\n    tag_3:\n      tag_7\n      tag_8\n      calldatasize\n      0x04\n      tag_9\n      jump\t// in\n    tag_8:\n      mstore(0x20, 0x01)\n      0x00\n      swap1\n      dup2\n      mstore\n      0x40\n      swap1\n      keccak256\n      sload\n      sub(shl(0x80, 0x01), 0x01)\n      and\n      dup2\n      jump\n    tag_7:\n      mload(0x40)\n      sub(shl(0x80, 0x01), 0x01)\n        /* \"#utility.yul\":547:594   */\n      swap1\n      swap2\n      and\n        /* \"#utility.yul\":529:595   */\n      dup2\n      mstore\n        /* \"#utility.yul\":517:519   */\n      0x20\n        /* \"#utility.yul\":502:520   */\n      add\n        /* \"access/RoleAccess.sol\":170:221  mapping(address => uint128) public staffRestaurants */\n    tag_11:\n      mload(0x40)\n      dup1\n      swap2\n      sub\n      swap1\n      return\n        /* \"access/RoleAccess.sol\":126:163  mapping(address => Role) public roles */\n    tag_4:\n      tag_13\n      tag_14\n      calldatasize\n      0x04\n      tag_9\n      jump\t// in\n    tag_14:\n      0x00\n      0x20\n      dup2\n      swap1\n      mstore\n      swap1\n      dup2\n      mstore\n      0x40\n      swap1\n      keccak256\n      sload\n      0xff\n      and\n      dup2\n      jump\n    tag_13:\n      mload(0x40)\n      tag_11\n      swap2\n      swap1\n      tag_17\n      jump\t// in\n        /* \"access/RoleAccess.sol\":769:939  function assignStaff(address staff, uint128 restaurantId) external onlyAdmin {... */\n    tag_5:\n      tag_18\n      tag_19\n      calldatasize\n      0x04\n      tag_20\n      jump\t// in\n    tag_19:\n      tag_21\n      jump\t// in\n    tag_18:\n      stop\n        /* \"access/RoleAccess.sol\":947:1090  function removeStaff(address staff) external onlyAdmin {... */\n    tag_6:\n      tag_18\n      tag_23\n      calldatasize\n      0x04\n      tag_9\n      jump\t// in\n    tag_23:\n      tag_24\n      jump\t// in\n        /* \"access/RoleAccess.sol\":769:939  function assignStaff(address staff, uint128 restaurantId) external onlyAdmin {... */\n    tag_21:\n        /* \"access/RoleAccess.sol\":276:286  msg.sender */\n      caller\n        /* \"access/RoleAccess.sol\":291:301  Role.Admin */\n      0x00\n        /* \"access/RoleAccess.sol\":270:287  roles[msg.sender] */\n      swap1\n      dup2\n      mstore\n      0x20\n      dup2\n      swap1\n      mstore\n      0x40\n      dup2\n      keccak256\n      sload\n      0xff\n      and\n        /* \"access/RoleAccess.sol\":270:301  roles[msg.sender] == Role.Admin */\n      0x02\n      dup2\n      gt\n      iszero\n      tag_30\n      jumpi\n      tag_30\n      tag_28\n      jump\t// in\n    tag_30:\n      eq\n        /* \"access/RoleAccess.sol\":262:316  require(roles[msg.sender] == Role.Admin, \"Only admin\") */\n      tag_31\n      jumpi\n      mload(0x40)\n      shl(0xe5, 0x461bcd)\n      dup2\n      mstore\n        /* \"#utility.yul\":1661:1663   */\n      0x20\n        /* \"access/RoleAccess.sol\":262:316  require(roles[msg.sender] == Role.Admin, \"Only admin\") */\n      0x04\n      dup3\n      add\n        /* \"#utility.yul\":1643:1664   */\n      mstore\n        /* \"#utility.yul\":1700:1702   */\n      0x0a\n        /* \"#utility.yul\":1680:1698   */\n      0x24\n      dup3\n      add\n        /* \"#utility.yul\":1673:1703   */\n      mstore\n      shl(0xb1, 0x27b7363c9030b236b4b7)\n        /* \"#utility.yul\":1719:1737   */\n      0x44\n      dup3\n      add\n        /* \"#utility.yul\":1712:1752   */\n      mstore\n        /* \"#utility.yul\":1769:1787   */\n      0x64\n      add\n        /* \"access/RoleAccess.sol\":262:316  require(roles[msg.sender] == Role.Admin, \"Only admin\") */\n    tag_32:\n      mload(0x40)\n      dup1\n      swap2\n      sub\n      swap1\n      revert\n    tag_31:\n      sub(shl(0xa0, 0x01), 0x01)\n        /* \"access/RoleAccess.sol\":857:869  roles[staff] */\n      swap2\n      swap1\n      swap2\n      and\n        /* \"access/RoleAccess.sol\":857:862  roles */\n      0x00\n        /* \"access/RoleAccess.sol\":857:869  roles[staff] */\n      swap1\n      dup2\n      mstore\n      0x20\n      dup2\n      dup2\n      mstore\n      0x40\n      dup1\n      dup4\n      keccak256\n        /* \"access/RoleAccess.sol\":857:882  roles[staff] = Role.Staff */\n      dup1\n      sload\n        /* \"access/RoleAccess.sol\":872:882  Role.Staff */\n      0x01\n      not(0xff)\n        /* \"access/RoleAccess.sol\":857:882  roles[staff] = Role.Staff */\n      swap1\n      swap2\n      and\n      dup2\n      or\n      swap1\n      swap2\n      sstore\n        /* \"access/RoleAccess.sol\":893:916  staffRestaurants[staff] */\n      swap1\n      swap2\n      mstore\n      swap1\n      keccak256\n        /* \"access/RoleAccess.sol\":893:931  staffRestaurants[staff] = restaurantId */\n      dup1\n      sload\n      not(sub(shl(0x80, 0x01), 0x01))\n      and\n      sub(shl(0x80, 0x01), 0x01)\n      swap1\n      swap3\n      and\n      swap2\n      swap1\n      swap2\n      or\n      swap1\n      sstore\n        /* \"access/RoleAccess.sol\":769:939  function assignStaff(address staff, uint128 restaurantId) external onlyAdmin {... */\n      jump\t// out\n        /* \"access/RoleAccess.sol\":947:1090  function removeStaff(address staff) external onlyAdmin {... */\n    tag_24:\n        /* \"access/RoleAccess.sol\":276:286  msg.sender */\n      caller\n        /* \"access/RoleAccess.sol\":291:301  Role.Admin */\n      0x00\n        /* \"access/RoleAccess.sol\":270:287  roles[msg.sender] */\n      swap1\n      dup2\n      mstore\n      0x20\n      dup2\n      swap1\n      mstore\n      0x40\n      dup2\n      keccak256\n      sload\n      0xff\n      and\n        /* \"access/RoleAccess.sol\":270:301  roles[msg.sender] == Role.Admin */\n      0x02\n      dup2\n      gt\n      iszero\n      tag_41\n      jumpi\n      tag_41\n      tag_28\n      jump\t// in\n    tag_41:\n      eq\n        /* \"access/RoleAccess.sol\":262:316  require(roles[msg.sender] == Role.Admin, \"Only admin\") */\n      tag_42\n      jumpi\n      mload(0x40)\n      shl(0xe5, 0x461bcd)\n      dup2\n      mstore\n        /* \"#utility.yul\":1661:1663   */\n      0x20\n        /* \"access/RoleAccess.sol\":262:316  require(roles[msg.sender] == Role.Admin, \"Only admin\") */\n      0x04\n      dup3\n      add\n        /* \"#utility.yul\":1643:1664   */\n      mstore\n        /* \"#utility.yul\":1700:1702   */\n      0x0a\n        /* \"#utility.yul\":1680:1698   */\n      0x24\n      dup3\n      add\n        /* \"#utility.yul\":1673:1703   */\n      mstore\n      shl(0xb1, 0x27b7363c9030b236b4b7)\n        /* \"#utility.yul\":1719:1737   */\n      0x44\n      dup3\n      add\n        /* \"#utility.yul\":1712:1752   */\n      mstore\n        /* \"#utility.yul\":1769:1787   */\n      0x64\n      add\n        /* \"access/RoleAccess.sol\":262:316  require(roles[msg.sender] == Role.Admin, \"Only admin\") */\n      tag_32\n        /* \"#utility.yul\":1459:1793   */\n      jump\n        /* \"access/RoleAccess.sol\":262:316  require(roles[msg.sender] == Role.Admin, \"Only admin\") */\n    tag_42:\n      sub(shl(0xa0, 0x01), 0x01)\n        /* \"access/RoleAccess.sol\":1020:1043  staffRestaurants[staff] */\n      and\n      0x00\n      swap1\n      dup2\n      mstore\n        /* \"access/RoleAccess.sol\":1020:1036  staffRestaurants */\n      0x01\n        /* \"access/RoleAccess.sol\":1020:1043  staffRestaurants[staff] */\n      0x20\n      swap1\n      dup2\n      mstore\n      0x40\n      dup1\n      dup4\n      keccak256\n        /* \"access/RoleAccess.sol\":1013:1043  delete staffRestaurants[staff] */\n      dup1\n      sload\n      not(sub(shl(0x80, 0x01), 0x01))\n      and\n      swap1\n      sstore\n        /* \"access/RoleAccess.sol\":1054:1066  roles[staff] */\n      swap1\n      dup3\n      swap1\n      mstore\n      swap1\n      keccak256\n        /* \"access/RoleAccess.sol\":1054:1082  roles[staff] = Role.Customer */\n      dup1\n      sload\n      not(0xff)\n      and\n        /* \"access/RoleAccess.sol\":1069:1082  Role.Customer */\n      0x02\n        /* \"access/RoleAccess.sol\":1054:1082  roles[staff] = Role.Customer */\n      or\n      swap1\n      sstore\n        /* \"access/RoleAccess.sol\":947:1090  function removeStaff(address staff) external onlyAdmin {... */\n      jump\t// out\n        /* \"#utility.yul\":14:187   */\n    tag_47:\n        /* \"#utility.yul\":82:102   */\n      dup1\n      calldataload\n      sub(shl(0xa0, 0x01), 0x01)\n        /* \"#utility.yul\":131:162   */\n      dup2\n      and\n        /* \"#utility.yul\":121:163   */\n      dup2\n      eq\n        /* \"#utility.yul\":111:181   */\n      tag_50\n      jumpi\n        /* \"#utility.yul\":177:178   */\n      0x00\n        /* \"#utility.yul\":174:175   */\n      0x00\n        /* \"#utility.yul\":167:179   */\n      revert\n        /* \"#utility.yul\":111:181   */\n    tag_50:\n        /* \"#utility.yul\":14:187   */\n      swap2\n      swap1\n      pop\n      jump\t// out\n        /* \"#utility.yul\":192:378   */\n    tag_9:\n        /* \"#utility.yul\":251:257   */\n      0x00\n        /* \"#utility.yul\":304:306   */\n      0x20\n        /* \"#utility.yul\":292:301   */\n      dup3\n        /* \"#utility.yul\":283:290   */\n      dup5\n        /* \"#utility.yul\":279:302   */\n      sub\n        /* \"#utility.yul\":275:307   */\n      slt\n        /* \"#utility.yul\":272:324   */\n      iszero\n      tag_52\n      jumpi\n        /* \"#utility.yul\":320:321   */\n      0x00\n        /* \"#utility.yul\":317:318   */\n      0x00\n        /* \"#utility.yul\":310:322   */\n      revert\n        /* \"#utility.yul\":272:324   */\n    tag_52:\n        /* \"#utility.yul\":343:372   */\n      tag_53\n        /* \"#utility.yul\":362:371   */\n      dup3\n        /* \"#utility.yul\":343:372   */\n      tag_47\n      jump\t// in\n    tag_53:\n        /* \"#utility.yul\":333:372   */\n      swap4\n        /* \"#utility.yul\":192:378   */\n      swap3\n      pop\n      pop\n      pop\n      jump\t// out\n        /* \"#utility.yul\":606:733   */\n    tag_28:\n        /* \"#utility.yul\":667:677   */\n      0x4e487b71\n        /* \"#utility.yul\":662:665   */\n      0xe0\n        /* \"#utility.yul\":658:678   */\n      shl\n        /* \"#utility.yul\":655:656   */\n      0x00\n        /* \"#utility.yul\":648:679   */\n      mstore\n        /* \"#utility.yul\":698:702   */\n      0x21\n        /* \"#utility.yul\":695:696   */\n      0x04\n        /* \"#utility.yul\":688:703   */\n      mstore\n        /* \"#utility.yul\":722:726   */\n      0x24\n        /* \"#utility.yul\":719:720   */\n      0x00\n        /* \"#utility.yul\":712:727   */\n      revert\n        /* \"#utility.yul\":738:1074   */\n    tag_17:\n        /* \"#utility.yul\":878:880   */\n      0x20\n        /* \"#utility.yul\":863:881   */\n      dup2\n      add\n        /* \"#utility.yul\":911:912   */\n      0x03\n        /* \"#utility.yul\":900:913   */\n      dup4\n      lt\n        /* \"#utility.yul\":890:1034   */\n      tag_57\n      jumpi\n        /* \"#utility.yul\":956:966   */\n      0x4e487b71\n        /* \"#utility.yul\":951:954   */\n      0xe0\n        /* \"#utility.yul\":947:967   */\n      shl\n        /* \"#utility.yul\":944:945   */\n      0x00\n        /* \"#utility.yul\":937:968   */\n      mstore\n        /* \"#utility.yul\":991:995   */\n      0x21\n        /* \"#utility.yul\":988:989   */\n      0x04\n        /* \"#utility.yul\":981:996   */\n      mstore\n        /* \"#utility.yul\":1019:1023   */\n      0x24\n        /* \"#utility.yul\":1016:1017   */\n      0x00\n        /* \"#utility.yul\":1009:1024   */\n      revert\n        /* \"#utility.yul\":890:1034   */\n    tag_57:\n        /* \"#utility.yul\":1043:1068   */\n      swap2\n      swap1\n      mstore\n        /* \"#utility.yul\":738:1074   */\n      swap1\n      jump\t// out\n        /* \"#utility.yul\":1079:1454   */\n    tag_20:\n        /* \"#utility.yul\":1147:1153   */\n      0x00\n        /* \"#utility.yul\":1155:1161   */\n      0x00\n        /* \"#utility.yul\":1208:1210   */\n      0x40\n        /* \"#utility.yul\":1196:1205   */\n      dup4\n        /* \"#utility.yul\":1187:1194   */\n      dup6\n        /* \"#utility.yul\":1183:1206   */\n      sub\n        /* \"#utility.yul\":1179:1211   */\n      slt\n        /* \"#utility.yul\":1176:1228   */\n      iszero\n      tag_59\n      jumpi\n        /* \"#utility.yul\":1224:1225   */\n      0x00\n        /* \"#utility.yul\":1221:1222   */\n      0x00\n        /* \"#utility.yul\":1214:1226   */\n      revert\n        /* \"#utility.yul\":1176:1228   */\n    tag_59:\n        /* \"#utility.yul\":1247:1276   */\n      tag_60\n        /* \"#utility.yul\":1266:1275   */\n      dup4\n        /* \"#utility.yul\":1247:1276   */\n      tag_47\n      jump\t// in\n    tag_60:\n        /* \"#utility.yul\":1237:1276   */\n      swap2\n      pop\n        /* \"#utility.yul\":1326:1328   */\n      0x20\n        /* \"#utility.yul\":1315:1324   */\n      dup4\n        /* \"#utility.yul\":1311:1329   */\n      add\n        /* \"#utility.yul\":1298:1330   */\n      calldataload\n      sub(shl(0x80, 0x01), 0x01)\n        /* \"#utility.yul\":1363:1368   */\n      dup2\n        /* \"#utility.yul\":1359:1405   */\n      and\n        /* \"#utility.yul\":1352:1357   */\n      dup2\n        /* \"#utility.yul\":1349:1406   */\n      eq\n        /* \"#utility.yul\":1339:1424   */\n      tag_61\n      jumpi\n        /* \"#utility.yul\":1420:1421   */\n      0x00\n        /* \"#utility.yul\":1417:1418   */\n      0x00\n        /* \"#utility.yul\":1410:1422   */\n      revert\n        /* \"#utility.yul\":1339:1424   */\n    tag_61:\n        /* \"#utility.yul\":1443:1448   */\n      dup1\n        /* \"#utility.yul\":1433:1448   */\n      swap2\n      pop\n      pop\n        /* \"#utility.yul\":1079:1454   */\n      swap3\n      pop\n      swap3\n      swap1\n      pop\n      jump\t// out\n\n    auxdata: 0xa26469706673582212208a2736e0885b0893d32fdc53eedcf0885dddaa517d82f142439cf262a5e4e81f64736f6c634300081e0033\n}\n",
				"bytecode": {
					"linkReferences": {},
					"object": "6080604052348015600e575f5ffd5b5061031b8061001c5f395ff3fe608060405234801561000f575f5ffd5b506004361061004a575f3560e01c80632d3238fe1461004e5780639937464214610093578063ae9a4655146100c2578063c4522c92146100d7575b5f5ffd5b61007661005c36600461024b565b60016020525f90815260409020546001600160801b031681565b6040516001600160801b0390911681526020015b60405180910390f35b6100b56100a136600461024b565b5f6020819052908152604090205460ff1681565b60405161008a919061027f565b6100d56100d03660046102a5565b6100ea565b005b6100d56100e536600461024b565b610199565b335f9081526020819052604081205460ff16600281111561010d5761010d61026b565b1461014c5760405162461bcd60e51b815260206004820152600a60248201526927b7363c9030b236b4b760b11b60448201526064015b60405180910390fd5b6001600160a01b03919091165f908152602081815260408083208054600160ff199091168117909155909152902080546001600160801b0319166001600160801b03909216919091179055565b335f9081526020819052604081205460ff1660028111156101bc576101bc61026b565b146101f65760405162461bcd60e51b815260206004820152600a60248201526927b7363c9030b236b4b760b11b6044820152606401610143565b6001600160a01b03165f90815260016020908152604080832080546001600160801b0319169055908290529020805460ff19166002179055565b80356001600160a01b0381168114610246575f5ffd5b919050565b5f6020828403121561025b575f5ffd5b61026482610230565b9392505050565b634e487b7160e01b5f52602160045260245ffd5b602081016003831061029f57634e487b7160e01b5f52602160045260245ffd5b91905290565b5f5f604083850312156102b6575f5ffd5b6102bf83610230565b915060208301356001600160801b03811681146102da575f5ffd5b80915050925092905056fea26469706673582212208a2736e0885b0893d32fdc53eedcf0885dddaa517d82f142439cf262a5e4e81f64736f6c634300081e0033",
					"opcodes": "PUSH1 0x80 PUSH1 0x40 MSTORE CALLVALUE DUP1 ISZERO PUSH1 0xE JUMPI PUSH0 PUSH0 REVERT JUMPDEST POP PUSH2 0x31B DUP1 PUSH2 0x1C PUSH0 CODECOPY PUSH0 RETURN INVALID PUSH1 0x80 PUSH1 0x40 MSTORE CALLVALUE DUP1 ISZERO PUSH2 0xF JUMPI PUSH0 PUSH0 REVERT JUMPDEST POP PUSH1 0x4 CALLDATASIZE LT PUSH2 0x4A JUMPI PUSH0 CALLDATALOAD PUSH1 0xE0 SHR DUP1 PUSH4 0x2D3238FE EQ PUSH2 0x4E JUMPI DUP1 PUSH4 0x99374642 EQ PUSH2 0x93 JUMPI DUP1 PUSH4 0xAE9A4655 EQ PUSH2 0xC2 JUMPI DUP1 PUSH4 0xC4522C92 EQ PUSH2 0xD7 JUMPI JUMPDEST PUSH0 PUSH0 REVERT JUMPDEST PUSH2 0x76 PUSH2 0x5C CALLDATASIZE PUSH1 0x4 PUSH2 0x24B JUMP JUMPDEST PUSH1 0x1 PUSH1 0x20 MSTORE PUSH0 SWAP1 DUP2 MSTORE PUSH1 0x40 SWAP1 KECCAK256 SLOAD PUSH1 0x1 PUSH1 0x1 PUSH1 0x80 SHL SUB AND DUP2 JUMP JUMPDEST PUSH1 0x40 MLOAD PUSH1 0x1 PUSH1 0x1 PUSH1 0x80 SHL SUB SWAP1 SWAP2 AND DUP2 MSTORE PUSH1 0x20 ADD JUMPDEST PUSH1 0x40 MLOAD DUP1 SWAP2 SUB SWAP1 RETURN JUMPDEST PUSH2 0xB5 PUSH2 0xA1 CALLDATASIZE PUSH1 0x4 PUSH2 0x24B JUMP JUMPDEST PUSH0 PUSH1 0x20 DUP2 SWAP1 MSTORE SWAP1 DUP2 MSTORE PUSH1 0x40 SWAP1 KECCAK256 SLOAD PUSH1 0xFF AND DUP2 JUMP JUMPDEST PUSH1 0x40 MLOAD PUSH2 0x8A SWAP2 SWAP1 PUSH2 0x27F JUMP JUMPDEST PUSH2 0xD5 PUSH2 0xD0 CALLDATASIZE PUSH1 0x4 PUSH2 0x2A5 JUMP JUMPDEST PUSH2 0xEA JUMP JUMPDEST STOP JUMPDEST PUSH2 0xD5 PUSH2 0xE5 CALLDATASIZE PUSH1 0x4 PUSH2 0x24B JUMP JUMPDEST PUSH2 0x199 JUMP JUMPDEST CALLER PUSH0 SWAP1 DUP2 MSTORE PUSH1 0x20 DUP2 SWAP1 MSTORE PUSH1 0x40 DUP2 KECCAK256 SLOAD PUSH1 0xFF AND PUSH1 0x2 DUP2 GT ISZERO PUSH2 0x10D JUMPI PUSH2 0x10D PUSH2 0x26B JUMP JUMPDEST EQ PUSH2 0x14C JUMPI PUSH1 0x40 MLOAD PUSH3 0x461BCD PUSH1 0xE5 SHL DUP2 MSTORE PUSH1 0x20 PUSH1 0x4 DUP3 ADD MSTORE PUSH1 0xA PUSH1 0x24 DUP3 ADD MSTORE PUSH10 0x27B7363C9030B236B4B7 PUSH1 0xB1 SHL PUSH1 0x44 DUP3 ADD MSTORE PUSH1 0x64 ADD JUMPDEST PUSH1 0x40 MLOAD DUP1 SWAP2 SUB SWAP1 REVERT JUMPDEST PUSH1 0x1 PUSH1 0x1 PUSH1 0xA0 SHL SUB SWAP2 SWAP1 SWAP2 AND PUSH0 SWAP1 DUP2 MSTORE PUSH1 0x20 DUP2 DUP2 MSTORE PUSH1 0x40 DUP1 DUP4 KECCAK256 DUP1 SLOAD PUSH1 0x1 PUSH1 0xFF NOT SWAP1 SWAP2 AND DUP2 OR SWAP1 SWAP2 SSTORE SWAP1 SWAP2 MSTORE SWAP1 KECCAK256 DUP1 SLOAD PUSH1 0x1 PUSH1 0x1 PUSH1 0x80 SHL SUB NOT AND PUSH1 0x1 PUSH1 0x1 PUSH1 0x80 SHL SUB SWAP1 SWAP3 AND SWAP2 SWAP1 SWAP2 OR SWAP1 SSTORE JUMP JUMPDEST CALLER PUSH0 SWAP1 DUP2 MSTORE PUSH1 0x20 DUP2 SWAP1 MSTORE PUSH1 0x40 DUP2 KECCAK256 SLOAD PUSH1 0xFF AND PUSH1 0x2 DUP2 GT ISZERO PUSH2 0x1BC JUMPI PUSH2 0x1BC PUSH2 0x26B JUMP JUMPDEST EQ PUSH2 0x1F6 JUMPI PUSH1 0x40 MLOAD PUSH3 0x461BCD PUSH1 0xE5 SHL DUP2 MSTORE PUSH1 0x20 PUSH1 0x4 DUP3 ADD MSTORE PUSH1 0xA PUSH1 0x24 DUP3 ADD MSTORE PUSH10 0x27B7363C9030B236B4B7 PUSH1 0xB1 SHL PUSH1 0x44 DUP3 ADD MSTORE PUSH1 0x64 ADD PUSH2 0x143 JUMP JUMPDEST PUSH1 0x1 PUSH1 0x1 PUSH1 0xA0 SHL SUB AND PUSH0 SWAP1 DUP2 MSTORE PUSH1 0x1 PUSH1 0x20 SWAP1 DUP2 MSTORE PUSH1 0x40 DUP1 DUP4 KECCAK256 DUP1 SLOAD PUSH1 0x1 PUSH1 0x1 PUSH1 0x80 SHL SUB NOT AND SWAP1 SSTORE SWAP1 DUP3 SWAP1 MSTORE SWAP1 KECCAK256 DUP1 SLOAD PUSH1 0xFF NOT AND PUSH1 0x2 OR SWAP1 SSTORE JUMP JUMPDEST DUP1 CALLDATALOAD PUSH1 0x1 PUSH1 0x1 PUSH1 0xA0 SHL SUB DUP2 AND DUP2 EQ PUSH2 0x246 JUMPI PUSH0 PUSH0 REVERT JUMPDEST SWAP2 SWAP1 POP JUMP JUMPDEST PUSH0 PUSH1 0x20 DUP3 DUP5 SUB SLT ISZERO PUSH2 0x25B JUMPI PUSH0 PUSH0 REVERT JUMPDEST PUSH2 0x264 DUP3 PUSH2 0x230 JUMP JUMPDEST SWAP4 SWAP3 POP POP POP JUMP JUMPDEST PUSH4 0x4E487B71 PUSH1 0xE0 SHL PUSH0 MSTORE PUSH1 0x21 PUSH1 0x4 MSTORE PUSH1 0x24 PUSH0 REVERT JUMPDEST PUSH1 0x20 DUP2 ADD PUSH1 0x3 DUP4 LT PUSH2 0x29F JUMPI PUSH4 0x4E487B71 PUSH1 0xE0 SHL PUSH0 MSTORE PUSH1 0x21 PUSH1 0x4 MSTORE PUSH1 0x24 PUSH0 REVERT JUMPDEST SWAP2 SWAP1 MSTORE SWAP1 JUMP JUMPDEST PUSH0 PUSH0 PUSH1 0x40 DUP4 DUP6 SUB SLT ISZERO PUSH2 0x2B6 JUMPI PUSH0 PUSH0 REVERT JUMPDEST PUSH2 0x2BF DUP4 PUSH2 0x230 JUMP JUMPDEST SWAP2 POP PUSH1 0x20 DUP4 ADD CALLDATALOAD PUSH1 0x1 PUSH1 0x1 PUSH1 0x80 SHL SUB DUP2 AND DUP2 EQ PUSH2 0x2DA JUMPI PUSH0 PUSH0 REVERT JUMPDEST DUP1 SWAP2 POP POP SWAP3 POP SWAP3 SWAP1 POP JUMP INVALID LOG2 PUSH5 0x6970667358 0x22 SLT KECCAK256 DUP11 0x27 CALLDATASIZE RJUMP 0x885B ADDMOD SWAP4 0xD3 0x2F 0xDC MSTORE8 RETURNCONTRACT 0xDC CREATE DUP9 TSTORE 0xDD 0xAA MLOAD PUSH30 0x82F142439CF262A5E4E81F64736F6C634300081E00330000000000000000 "
				},
				"gasEstimates": {
					"creation": {
						"codeDepositCost": "159000",
						"executionCost": "200",
						"totalCost": "159200"
					},
					"external": {
						"assignStaff(address,uint128)": "51266",
						"removeStaff(address)": "51166",
						"roles(address)": "2572",
						"staffRestaurants(address)": "2522"
					},
					"internal": {
						"initializeRoles(address)": "infinite"
					}
				},
				"methodIdentifiers": {
					"assignStaff(address,uint128)": "ae9a4655",
					"removeStaff(address)": "c4522c92",
					"roles(address)": "99374642",
					"staffRestaurants(address)": "2d3238fe"
				}
			},
			"storageLayout": {
				"storage": [
					{
						"astId": 7,
						"contract": "access/RoleAccess.sol:RoleAccess",
						"label": "roles",
						"offset": 0,
						"slot": "0",
						"type": "t_mapping(t_address,t_enum(Role)128)"
					},
					{
						"astId": 11,
						"contract": "access/RoleAccess.sol:RoleAccess",
						"label": "staffRestaurants",
						"offset": 0,
						"slot": "1",
						"type": "t_mapping(t_address,t_uint128)"
					}
				],
				"types": {
					"t_address": {
						"encoding": "inplace",
						"label": "address",
						"numberOfBytes": "20"
					},
					"t_enum(Role)128": {
						"encoding": "inplace",
						"label": "enum Role",
						"numberOfBytes": "1"
					},
					"t_mapping(t_address,t_enum(Role)128)": {
						"encoding": "mapping",
						"key": "t_address",
						"label": "mapping(address => enum Role)",
						"numberOfBytes": "32",
						"value": "t_enum(Role)128"
					},
					"t_mapping(t_address,t_uint128)": {
						"encoding": "mapping",
						"key": "t_address",
						"label": "mapping(address => uint128)",
						"numberOfBytes": "32",
						"value": "t_uint128"
					},
					"t_uint128": {
						"encoding": "inplace",
						"label": "uint128",
						"numberOfBytes": "16"
					}
				}
			},
			"userdoc": {
				"kind": "user",
				"methods": {},
				"version": 1
			}
		}
	}
}